{
	"base/artifacts/AddressBook.sol": {
		"AddressBook": {
			"abi": [
				{
					"inputs": [
						{
							"internalType": "address",
							"name": "_owner",
							"type": "address"
						}
					],
					"stateMutability": "nonpayable",
					"type": "constructor"
				},
				{
					"inputs": [
						{
							"internalType": "uint256",
							"name": "id",
							"type": "uint256"
						}
					],
					"name": "ContactNotFound",
					"type": "error"
				},
				{
					"inputs": [
						{
							"internalType": "uint256",
							"name": "_id",
							"type": "uint256"
						},
						{
							"internalType": "string",
							"name": "_firstName",
							"type": "string"
						},
						{
							"internalType": "string",
							"name": "_lastName",
							"type": "string"
						}
					],
					"name": "addContact",
					"outputs": [],
					"stateMutability": "nonpayable",
					"type": "function"
				},
				{
					"inputs": [
						{
							"internalType": "uint256",
							"name": "",
							"type": "uint256"
						}
					],
					"name": "contacts",
					"outputs": [
						{
							"internalType": "uint256",
							"name": "id",
							"type": "uint256"
						},
						{
							"internalType": "string",
							"name": "firstName",
							"type": "string"
						},
						{
							"internalType": "string",
							"name": "lastName",
							"type": "string"
						}
					],
					"stateMutability": "view",
					"type": "function"
				},
				{
					"inputs": [
						{
							"internalType": "uint256",
							"name": "_id",
							"type": "uint256"
						}
					],
					"name": "deleteContact",
					"outputs": [],
					"stateMutability": "nonpayable",
					"type": "function"
				},
				{
					"inputs": [],
					"name": "getAllContacts",
					"outputs": [
						{
							"components": [
								{
									"internalType": "uint256",
									"name": "id",
									"type": "uint256"
								},
								{
									"internalType": "string",
									"name": "firstName",
									"type": "string"
								},
								{
									"internalType": "string",
									"name": "lastName",
									"type": "string"
								},
								{
									"internalType": "uint256[]",
									"name": "phoneNumbers",
									"type": "uint256[]"
								}
							],
							"internalType": "struct AddressBook.Contact[]",
							"name": "",
							"type": "tuple[]"
						}
					],
					"stateMutability": "view",
					"type": "function"
				},
				{
					"inputs": [],
					"name": "owner",
					"outputs": [
						{
							"internalType": "address",
							"name": "",
							"type": "address"
						}
					],
					"stateMutability": "view",
					"type": "function"
				}
			],
			"devdoc": {
				"kind": "dev",
				"methods": {},
				"version": 1
			},
			"evm": {
				"assembly": "    /* \"base/artifacts/AddressBook.sol\":116:2008  contract AddressBook {... */\n  mstore(0x40, 0x80)\n    /* \"base/artifacts/AddressBook.sol\":827:888  constructor(address _owner) {... */\n  callvalue\n  dup1\n  iszero\n  tag_1\n  jumpi\n  0x00\n  dup1\n  revert\ntag_1:\n  pop\n  mload(0x40)\n  sub(codesize, bytecodeSize)\n  dup1\n  bytecodeSize\n  dup4\n  codecopy\n  dup2\n  dup2\n  add\n  0x40\n  mstore\n  dup2\n  add\n  swap1\n  tag_2\n  swap2\n  swap1\n  tag_3\n  jump\t// in\ntag_2:\n    /* \"base/artifacts/AddressBook.sol\":874:880  _owner */\n  dup1\n    /* \"base/artifacts/AddressBook.sol\":866:871  owner */\n  0x00\n  dup1\n    /* \"base/artifacts/AddressBook.sol\":866:880  owner = _owner */\n  0x0100\n  exp\n  dup2\n  sload\n  dup2\n  0xffffffffffffffffffffffffffffffffffffffff\n  mul\n  not\n  and\n  swap1\n  dup4\n  0xffffffffffffffffffffffffffffffffffffffff\n  and\n  mul\n  or\n  swap1\n  sstore\n  pop\n    /* \"base/artifacts/AddressBook.sol\":827:888  constructor(address _owner) {... */\n  pop\n    /* \"base/artifacts/AddressBook.sol\":116:2008  contract AddressBook {... */\n  jump(tag_6)\n    /* \"#utility.yul\":88:205   */\ntag_8:\n    /* \"#utility.yul\":197:198   */\n  0x00\n    /* \"#utility.yul\":194:195   */\n  dup1\n    /* \"#utility.yul\":187:199   */\n  revert\n    /* \"#utility.yul\":334:460   */\ntag_10:\n    /* \"#utility.yul\":371:378   */\n  0x00\n    /* \"#utility.yul\":411:453   */\n  0xffffffffffffffffffffffffffffffffffffffff\n    /* \"#utility.yul\":404:409   */\n  dup3\n    /* \"#utility.yul\":400:454   */\n  and\n    /* \"#utility.yul\":389:454   */\n  swap1\n  pop\n    /* \"#utility.yul\":334:460   */\n  swap2\n  swap1\n  pop\n  jump\t// out\n    /* \"#utility.yul\":466:562   */\ntag_11:\n    /* \"#utility.yul\":503:510   */\n  0x00\n    /* \"#utility.yul\":532:556   */\n  tag_20\n    /* \"#utility.yul\":550:555   */\n  dup3\n    /* \"#utility.yul\":532:556   */\n  tag_10\n  jump\t// in\ntag_20:\n    /* \"#utility.yul\":521:556   */\n  swap1\n  pop\n    /* \"#utility.yul\":466:562   */\n  swap2\n  swap1\n  pop\n  jump\t// out\n    /* \"#utility.yul\":568:690   */\ntag_12:\n    /* \"#utility.yul\":641:665   */\n  tag_22\n    /* \"#utility.yul\":659:664   */\n  dup2\n    /* \"#utility.yul\":641:665   */\n  tag_11\n  jump\t// in\ntag_22:\n    /* \"#utility.yul\":634:639   */\n  dup2\n    /* \"#utility.yul\":631:666   */\n  eq\n    /* \"#utility.yul\":621:684   */\n  tag_23\n  jumpi\n    /* \"#utility.yul\":680:681   */\n  0x00\n    /* \"#utility.yul\":677:678   */\n  dup1\n    /* \"#utility.yul\":670:682   */\n  revert\n    /* \"#utility.yul\":621:684   */\ntag_23:\n    /* \"#utility.yul\":568:690   */\n  pop\n  jump\t// out\n    /* \"#utility.yul\":696:839   */\ntag_13:\n    /* \"#utility.yul\":753:758   */\n  0x00\n    /* \"#utility.yul\":784:790   */\n  dup2\n    /* \"#utility.yul\":778:791   */\n  mload\n    /* \"#utility.yul\":769:791   */\n  swap1\n  pop\n    /* \"#utility.yul\":800:833   */\n  tag_25\n    /* \"#utility.yul\":827:832   */\n  dup2\n    /* \"#utility.yul\":800:833   */\n  tag_12\n  jump\t// in\ntag_25:\n    /* \"#utility.yul\":696:839   */\n  swap3\n  swap2\n  pop\n  pop\n  jump\t// out\n    /* \"#utility.yul\":845:1196   */\ntag_3:\n    /* \"#utility.yul\":915:921   */\n  0x00\n    /* \"#utility.yul\":964:966   */\n  0x20\n    /* \"#utility.yul\":952:961   */\n  dup3\n    /* \"#utility.yul\":943:950   */\n  dup5\n    /* \"#utility.yul\":939:962   */\n  sub\n    /* \"#utility.yul\":935:967   */\n  slt\n    /* \"#utility.yul\":932:1051   */\n  iszero\n  tag_27\n  jumpi\n    /* \"#utility.yul\":970:1049   */\n  tag_28\n  tag_8\n  jump\t// in\ntag_28:\n    /* \"#utility.yul\":932:1051   */\ntag_27:\n    /* \"#utility.yul\":1090:1091   */\n  0x00\n    /* \"#utility.yul\":1115:1179   */\n  tag_29\n    /* \"#utility.yul\":1171:1178   */\n  dup5\n    /* \"#utility.yul\":1162:1168   */\n  dup3\n    /* \"#utility.yul\":1151:1160   */\n  dup6\n    /* \"#utility.yul\":1147:1169   */\n  add\n    /* \"#utility.yul\":1115:1179   */\n  tag_13\n  jump\t// in\ntag_29:\n    /* \"#utility.yul\":1105:1179   */\n  swap2\n  pop\n    /* \"#utility.yul\":1061:1189   */\n  pop\n    /* \"#utility.yul\":845:1196   */\n  swap3\n  swap2\n  pop\n  pop\n  jump\t// out\n    /* \"base/artifacts/AddressBook.sol\":116:2008  contract AddressBook {... */\ntag_6:\n  dataSize(sub_0)\n  dup1\n  dataOffset(sub_0)\n  0x00\n  codecopy\n  0x00\n  return\nstop\n\nsub_0: assembly {\n        /* \"base/artifacts/AddressBook.sol\":116:2008  contract AddressBook {... */\n      mstore(0x40, 0x80)\n      callvalue\n      dup1\n      iszero\n      tag_1\n      jumpi\n      0x00\n      dup1\n      revert\n    tag_1:\n      pop\n      jumpi(tag_2, lt(calldatasize, 0x04))\n      shr(0xe0, calldataload(0x00))\n      dup1\n      0x8da5cb5b\n      eq\n      tag_3\n      jumpi\n      dup1\n      0xb9ed6fca\n      eq\n      tag_4\n      jumpi\n      dup1\n      0xe0f478cb\n      eq\n      tag_5\n      jumpi\n      dup1\n      0xe6e9d873\n      eq\n      tag_6\n      jumpi\n      dup1\n      0xef1d6ddd\n      eq\n      tag_7\n      jumpi\n    tag_2:\n      0x00\n      dup1\n      revert\n        /* \"base/artifacts/AddressBook.sol\":328:348  address public owner */\n    tag_3:\n      tag_8\n      tag_9\n      jump\t// in\n    tag_8:\n      mload(0x40)\n      tag_10\n      swap2\n      swap1\n      tag_11\n      jump\t// in\n    tag_10:\n      mload(0x40)\n      dup1\n      swap2\n      sub\n      swap1\n      return\n        /* \"base/artifacts/AddressBook.sol\":1321:1556  function deleteContact(uint256 _id) public onlyOwner {... */\n    tag_4:\n      tag_12\n      0x04\n      dup1\n      calldatasize\n      sub\n      dup2\n      add\n      swap1\n      tag_13\n      swap2\n      swap1\n      tag_14\n      jump\t// in\n    tag_13:\n      tag_15\n      jump\t// in\n    tag_12:\n      stop\n        /* \"base/artifacts/AddressBook.sol\":531:574  mapping(uint256 => Contact) public contacts */\n    tag_5:\n      tag_16\n      0x04\n      dup1\n      calldatasize\n      sub\n      dup2\n      add\n      swap1\n      tag_17\n      swap2\n      swap1\n      tag_14\n      jump\t// in\n    tag_17:\n      tag_18\n      jump\t// in\n    tag_16:\n      mload(0x40)\n      tag_19\n      swap4\n      swap3\n      swap2\n      swap1\n      tag_20\n      jump\t// in\n    tag_19:\n      mload(0x40)\n      dup1\n      swap2\n      sub\n      swap1\n      return\n        /* \"base/artifacts/AddressBook.sol\":997:1209  function addContact(uint256 _id, string memory _firstName, string memory _lastName) public onlyOwner {... */\n    tag_6:\n      tag_21\n      0x04\n      dup1\n      calldatasize\n      sub\n      dup2\n      add\n      swap1\n      tag_22\n      swap2\n      swap1\n      tag_23\n      jump\t// in\n    tag_22:\n      tag_24\n      jump\t// in\n    tag_21:\n      stop\n        /* \"base/artifacts/AddressBook.sol\":1720:2005  function getAllContacts() public view onlyOwner returns (Contact[] memory) {... */\n    tag_7:\n      tag_25\n      tag_26\n      jump\t// in\n    tag_25:\n      mload(0x40)\n      tag_27\n      swap2\n      swap1\n      tag_28\n      jump\t// in\n    tag_27:\n      mload(0x40)\n      dup1\n      swap2\n      sub\n      swap1\n      return\n        /* \"base/artifacts/AddressBook.sol\":328:348  address public owner */\n    tag_9:\n      0x00\n      dup1\n      sload\n      swap1\n      0x0100\n      exp\n      swap1\n      div\n      0xffffffffffffffffffffffffffffffffffffffff\n      and\n      dup2\n      jump\t// out\n        /* \"base/artifacts/AddressBook.sol\":1321:1556  function deleteContact(uint256 _id) public onlyOwner {... */\n    tag_15:\n        /* \"base/artifacts/AddressBook.sol\":710:715  owner */\n      0x00\n      dup1\n      sload\n      swap1\n      0x0100\n      exp\n      swap1\n      div\n      0xffffffffffffffffffffffffffffffffffffffff\n      and\n        /* \"base/artifacts/AddressBook.sol\":696:715  msg.sender == owner */\n      0xffffffffffffffffffffffffffffffffffffffff\n      and\n        /* \"base/artifacts/AddressBook.sol\":696:706  msg.sender */\n      caller\n        /* \"base/artifacts/AddressBook.sol\":696:715  msg.sender == owner */\n      0xffffffffffffffffffffffffffffffffffffffff\n      and\n      eq\n        /* \"base/artifacts/AddressBook.sol\":688:757  require(msg.sender == owner, \"Only the owner can call this function\") */\n      tag_30\n      jumpi\n      mload(0x40)\n      0x08c379a000000000000000000000000000000000000000000000000000000000\n      dup2\n      mstore\n      0x04\n      add\n      tag_31\n      swap1\n      tag_32\n      jump\t// in\n    tag_31:\n      mload(0x40)\n      dup1\n      swap2\n      sub\n      swap1\n      revert\n    tag_30:\n        /* \"base/artifacts/AddressBook.sol\":1409:1410  0 */\n      0x00\n        /* \"base/artifacts/AddressBook.sol\":1389:1397  contacts */\n      0x02\n        /* \"base/artifacts/AddressBook.sol\":1389:1402  contacts[_id] */\n      0x00\n        /* \"base/artifacts/AddressBook.sol\":1398:1401  _id */\n      dup4\n        /* \"base/artifacts/AddressBook.sol\":1389:1402  contacts[_id] */\n      dup2\n      mstore\n      0x20\n      add\n      swap1\n      dup2\n      mstore\n      0x20\n      add\n      0x00\n      keccak256\n        /* \"base/artifacts/AddressBook.sol\":1389:1405  contacts[_id].id */\n      0x00\n      add\n      sload\n        /* \"base/artifacts/AddressBook.sol\":1389:1410  contacts[_id].id == 0 */\n      sub\n        /* \"base/artifacts/AddressBook.sol\":1385:1549  if (contacts[_id].id == 0) {... */\n      tag_34\n      jumpi\n        /* \"base/artifacts/AddressBook.sol\":1450:1453  _id */\n      dup1\n        /* \"base/artifacts/AddressBook.sol\":1434:1454  ContactNotFound(_id) */\n      mload(0x40)\n      0xf55dec0000000000000000000000000000000000000000000000000000000000\n      dup2\n      mstore\n      0x04\n      add\n      tag_35\n      swap2\n      swap1\n      tag_36\n      jump\t// in\n    tag_35:\n      mload(0x40)\n      dup1\n      swap2\n      sub\n      swap1\n      revert\n        /* \"base/artifacts/AddressBook.sol\":1385:1549  if (contacts[_id].id == 0) {... */\n    tag_34:\n        /* \"base/artifacts/AddressBook.sol\":1494:1502  contacts */\n      0x02\n        /* \"base/artifacts/AddressBook.sol\":1494:1507  contacts[_id] */\n      0x00\n        /* \"base/artifacts/AddressBook.sol\":1503:1506  _id */\n      dup3\n        /* \"base/artifacts/AddressBook.sol\":1494:1507  contacts[_id] */\n      dup2\n      mstore\n      0x20\n      add\n      swap1\n      dup2\n      mstore\n      0x20\n      add\n      0x00\n      keccak256\n      0x00\n        /* \"base/artifacts/AddressBook.sol\":1487:1507  delete contacts[_id] */\n      dup1\n      dup3\n      add\n      0x00\n      swap1\n      sstore\n      0x01\n      dup3\n      add\n      0x00\n      tag_38\n      swap2\n      swap1\n      tag_39\n      jump\t// in\n    tag_38:\n      0x02\n      dup3\n      add\n      0x00\n      tag_40\n      swap2\n      swap1\n      tag_39\n      jump\t// in\n    tag_40:\n      0x03\n      dup3\n      add\n      0x00\n      tag_41\n      swap2\n      swap1\n      tag_42\n      jump\t// in\n    tag_41:\n      pop\n      pop\n        /* \"base/artifacts/AddressBook.sol\":1522:1535  totalContacts */\n      0x01\n      0x00\n        /* \"base/artifacts/AddressBook.sol\":1522:1537  totalContacts-- */\n      dup2\n      sload\n      dup1\n      swap3\n      swap2\n      swap1\n      tag_43\n      swap1\n      tag_44\n      jump\t// in\n    tag_43:\n      swap2\n      swap1\n      pop\n      sstore\n      pop\n        /* \"base/artifacts/AddressBook.sol\":1321:1556  function deleteContact(uint256 _id) public onlyOwner {... */\n      pop\n      jump\t// out\n        /* \"base/artifacts/AddressBook.sol\":531:574  mapping(uint256 => Contact) public contacts */\n    tag_18:\n      mstore(0x20, 0x02)\n      dup1\n      0x00\n      mstore\n      keccak256(0x00, 0x40)\n      0x00\n      swap2\n      pop\n      swap1\n      pop\n      dup1\n      0x00\n      add\n      sload\n      swap1\n      dup1\n      0x01\n      add\n      dup1\n      sload\n      tag_45\n      swap1\n      tag_46\n      jump\t// in\n    tag_45:\n      dup1\n      0x1f\n      add\n      0x20\n      dup1\n      swap2\n      div\n      mul\n      0x20\n      add\n      mload(0x40)\n      swap1\n      dup2\n      add\n      0x40\n      mstore\n      dup1\n      swap3\n      swap2\n      swap1\n      dup2\n      dup2\n      mstore\n      0x20\n      add\n      dup3\n      dup1\n      sload\n      tag_47\n      swap1\n      tag_46\n      jump\t// in\n    tag_47:\n      dup1\n      iszero\n      tag_48\n      jumpi\n      dup1\n      0x1f\n      lt\n      tag_49\n      jumpi\n      0x0100\n      dup1\n      dup4\n      sload\n      div\n      mul\n      dup4\n      mstore\n      swap2\n      0x20\n      add\n      swap2\n      jump(tag_48)\n    tag_49:\n      dup3\n      add\n      swap2\n      swap1\n      0x00\n      mstore\n      keccak256(0x00, 0x20)\n      swap1\n    tag_50:\n      dup2\n      sload\n      dup2\n      mstore\n      swap1\n      0x01\n      add\n      swap1\n      0x20\n      add\n      dup1\n      dup4\n      gt\n      tag_50\n      jumpi\n      dup3\n      swap1\n      sub\n      0x1f\n      and\n      dup3\n      add\n      swap2\n    tag_48:\n      pop\n      pop\n      pop\n      pop\n      pop\n      swap1\n      dup1\n      0x02\n      add\n      dup1\n      sload\n      tag_51\n      swap1\n      tag_46\n      jump\t// in\n    tag_51:\n      dup1\n      0x1f\n      add\n      0x20\n      dup1\n      swap2\n      div\n      mul\n      0x20\n      add\n      mload(0x40)\n      swap1\n      dup2\n      add\n      0x40\n      mstore\n      dup1\n      swap3\n      swap2\n      swap1\n      dup2\n      dup2\n      mstore\n      0x20\n      add\n      dup3\n      dup1\n      sload\n      tag_52\n      swap1\n      tag_46\n      jump\t// in\n    tag_52:\n      dup1\n      iszero\n      tag_53\n      jumpi\n      dup1\n      0x1f\n      lt\n      tag_54\n      jumpi\n      0x0100\n      dup1\n      dup4\n      sload\n      div\n      mul\n      dup4\n      mstore\n      swap2\n      0x20\n      add\n      swap2\n      jump(tag_53)\n    tag_54:\n      dup3\n      add\n      swap2\n      swap1\n      0x00\n      mstore\n      keccak256(0x00, 0x20)\n      swap1\n    tag_55:\n      dup2\n      sload\n      dup2\n      mstore\n      swap1\n      0x01\n      add\n      swap1\n      0x20\n      add\n      dup1\n      dup4\n      gt\n      tag_55\n      jumpi\n      dup3\n      swap1\n      sub\n      0x1f\n      and\n      dup3\n      add\n      swap2\n    tag_53:\n      pop\n      pop\n      pop\n      pop\n      pop\n      swap1\n      pop\n      dup4\n      jump\t// out\n        /* \"base/artifacts/AddressBook.sol\":997:1209  function addContact(uint256 _id, string memory _firstName, string memory _lastName) public onlyOwner {... */\n    tag_24:\n        /* \"base/artifacts/AddressBook.sol\":710:715  owner */\n      0x00\n      dup1\n      sload\n      swap1\n      0x0100\n      exp\n      swap1\n      div\n      0xffffffffffffffffffffffffffffffffffffffff\n      and\n        /* \"base/artifacts/AddressBook.sol\":696:715  msg.sender == owner */\n      0xffffffffffffffffffffffffffffffffffffffff\n      and\n        /* \"base/artifacts/AddressBook.sol\":696:706  msg.sender */\n      caller\n        /* \"base/artifacts/AddressBook.sol\":696:715  msg.sender == owner */\n      0xffffffffffffffffffffffffffffffffffffffff\n      and\n      eq\n        /* \"base/artifacts/AddressBook.sol\":688:757  require(msg.sender == owner, \"Only the owner can call this function\") */\n      tag_57\n      jumpi\n      mload(0x40)\n      0x08c379a000000000000000000000000000000000000000000000000000000000\n      dup2\n      mstore\n      0x04\n      add\n      tag_58\n      swap1\n      tag_32\n      jump\t// in\n    tag_58:\n      mload(0x40)\n      dup1\n      swap2\n      sub\n      swap1\n      revert\n    tag_57:\n        /* \"base/artifacts/AddressBook.sol\":1125:1175  Contact(_id, _firstName, _lastName, new uint[](0)) */\n      mload(0x40)\n      dup1\n      0x80\n      add\n      0x40\n      mstore\n      dup1\n        /* \"base/artifacts/AddressBook.sol\":1133:1136  _id */\n      dup5\n        /* \"base/artifacts/AddressBook.sol\":1125:1175  Contact(_id, _firstName, _lastName, new uint[](0)) */\n      dup2\n      mstore\n      0x20\n      add\n        /* \"base/artifacts/AddressBook.sol\":1138:1148  _firstName */\n      dup4\n        /* \"base/artifacts/AddressBook.sol\":1125:1175  Contact(_id, _firstName, _lastName, new uint[](0)) */\n      dup2\n      mstore\n      0x20\n      add\n        /* \"base/artifacts/AddressBook.sol\":1150:1159  _lastName */\n      dup3\n        /* \"base/artifacts/AddressBook.sol\":1125:1175  Contact(_id, _firstName, _lastName, new uint[](0)) */\n      dup2\n      mstore\n      0x20\n      add\n        /* \"base/artifacts/AddressBook.sol\":1172:1173  0 */\n      0x00\n        /* \"base/artifacts/AddressBook.sol\":1161:1174  new uint[](0) */\n      0xffffffffffffffff\n      dup2\n      gt\n      iszero\n      tag_60\n      jumpi\n      tag_61\n      tag_62\n      jump\t// in\n    tag_61:\n    tag_60:\n      mload(0x40)\n      swap1\n      dup1\n      dup3\n      mstore\n      dup1\n      0x20\n      mul\n      0x20\n      add\n      dup3\n      add\n      0x40\n      mstore\n      dup1\n      iszero\n      tag_63\n      jumpi\n      dup2\n      0x20\n      add\n      0x20\n      dup3\n      mul\n      dup1\n      calldatasize\n      dup4\n      calldatacopy\n      dup1\n      dup3\n      add\n      swap2\n      pop\n      pop\n      swap1\n      pop\n    tag_63:\n      pop\n        /* \"base/artifacts/AddressBook.sol\":1125:1175  Contact(_id, _firstName, _lastName, new uint[](0)) */\n      dup2\n      mstore\n      pop\n        /* \"base/artifacts/AddressBook.sol\":1109:1117  contacts */\n      0x02\n        /* \"base/artifacts/AddressBook.sol\":1109:1122  contacts[_id] */\n      0x00\n        /* \"base/artifacts/AddressBook.sol\":1118:1121  _id */\n      dup6\n        /* \"base/artifacts/AddressBook.sol\":1109:1122  contacts[_id] */\n      dup2\n      mstore\n      0x20\n      add\n      swap1\n      dup2\n      mstore\n      0x20\n      add\n      0x00\n      keccak256\n        /* \"base/artifacts/AddressBook.sol\":1109:1175  contacts[_id] = Contact(_id, _firstName, _lastName, new uint[](0)) */\n      0x00\n      dup3\n      add\n      mload\n      dup2\n      0x00\n      add\n      sstore\n      0x20\n      dup3\n      add\n      mload\n      dup2\n      0x01\n      add\n      swap1\n      dup2\n      tag_64\n      swap2\n      swap1\n      tag_65\n      jump\t// in\n    tag_64:\n      pop\n      0x40\n      dup3\n      add\n      mload\n      dup2\n      0x02\n      add\n      swap1\n      dup2\n      tag_66\n      swap2\n      swap1\n      tag_65\n      jump\t// in\n    tag_66:\n      pop\n      0x60\n      dup3\n      add\n      mload\n      dup2\n      0x03\n      add\n      swap1\n      dup1\n      mload\n      swap1\n      0x20\n      add\n      swap1\n      tag_67\n      swap3\n      swap2\n      swap1\n      tag_68\n      jump\t// in\n    tag_67:\n      pop\n      swap1\n      pop\n      pop\n        /* \"base/artifacts/AddressBook.sol\":1186:1199  totalContacts */\n      0x01\n      0x00\n        /* \"base/artifacts/AddressBook.sol\":1186:1201  totalContacts++ */\n      dup2\n      sload\n      dup1\n      swap3\n      swap2\n      swap1\n      tag_69\n      swap1\n      tag_70\n      jump\t// in\n    tag_69:\n      swap2\n      swap1\n      pop\n      sstore\n      pop\n        /* \"base/artifacts/AddressBook.sol\":997:1209  function addContact(uint256 _id, string memory _firstName, string memory _lastName) public onlyOwner {... */\n      pop\n      pop\n      pop\n      jump\t// out\n        /* \"base/artifacts/AddressBook.sol\":1720:2005  function getAllContacts() public view onlyOwner returns (Contact[] memory) {... */\n    tag_26:\n        /* \"base/artifacts/AddressBook.sol\":1777:1793  Contact[] memory */\n      0x60\n        /* \"base/artifacts/AddressBook.sol\":710:715  owner */\n      0x00\n      dup1\n      sload\n      swap1\n      0x0100\n      exp\n      swap1\n      div\n      0xffffffffffffffffffffffffffffffffffffffff\n      and\n        /* \"base/artifacts/AddressBook.sol\":696:715  msg.sender == owner */\n      0xffffffffffffffffffffffffffffffffffffffff\n      and\n        /* \"base/artifacts/AddressBook.sol\":696:706  msg.sender */\n      caller\n        /* \"base/artifacts/AddressBook.sol\":696:715  msg.sender == owner */\n      0xffffffffffffffffffffffffffffffffffffffff\n      and\n      eq\n        /* \"base/artifacts/AddressBook.sol\":688:757  require(msg.sender == owner, \"Only the owner can call this function\") */\n      tag_72\n      jumpi\n      mload(0x40)\n      0x08c379a000000000000000000000000000000000000000000000000000000000\n      dup2\n      mstore\n      0x04\n      add\n      tag_73\n      swap1\n      tag_32\n      jump\t// in\n    tag_73:\n      mload(0x40)\n      dup1\n      swap2\n      sub\n      swap1\n      revert\n    tag_72:\n        /* \"base/artifacts/AddressBook.sol\":1806:1832  Contact[] memory _contacts */\n      0x00\n        /* \"base/artifacts/AddressBook.sol\":1849:1862  totalContacts */\n      sload(0x01)\n        /* \"base/artifacts/AddressBook.sol\":1835:1863  new Contact[](totalContacts) */\n      0xffffffffffffffff\n      dup2\n      gt\n      iszero\n      tag_75\n      jumpi\n      tag_76\n      tag_62\n      jump\t// in\n    tag_76:\n    tag_75:\n      mload(0x40)\n      swap1\n      dup1\n      dup3\n      mstore\n      dup1\n      0x20\n      mul\n      0x20\n      add\n      dup3\n      add\n      0x40\n      mstore\n      dup1\n      iszero\n      tag_77\n      jumpi\n      dup2\n      0x20\n      add\n    tag_78:\n      tag_79\n      tag_80\n      jump\t// in\n    tag_79:\n      dup2\n      mstore\n      0x20\n      add\n      swap1\n      0x01\n      swap1\n      sub\n      swap1\n      dup2\n      tag_78\n      jumpi\n      swap1\n      pop\n    tag_77:\n      pop\n        /* \"base/artifacts/AddressBook.sol\":1806:1863  Contact[] memory _contacts = new Contact[](totalContacts) */\n      swap1\n      pop\n        /* \"base/artifacts/AddressBook.sol\":1879:1888  uint256 i */\n      0x00\n        /* \"base/artifacts/AddressBook.sol\":1874:1971  for (uint256 i = 0; i < totalContacts; i++) {... */\n    tag_81:\n        /* \"base/artifacts/AddressBook.sol\":1898:1911  totalContacts */\n      sload(0x01)\n        /* \"base/artifacts/AddressBook.sol\":1894:1895  i */\n      dup2\n        /* \"base/artifacts/AddressBook.sol\":1894:1911  i < totalContacts */\n      lt\n        /* \"base/artifacts/AddressBook.sol\":1874:1971  for (uint256 i = 0; i < totalContacts; i++) {... */\n      iszero\n      tag_82\n      jumpi\n        /* \"base/artifacts/AddressBook.sol\":1948:1956  contacts */\n      0x02\n        /* \"base/artifacts/AddressBook.sol\":1948:1959  contacts[i] */\n      0x00\n        /* \"base/artifacts/AddressBook.sol\":1957:1958  i */\n      dup3\n        /* \"base/artifacts/AddressBook.sol\":1948:1959  contacts[i] */\n      dup2\n      mstore\n      0x20\n      add\n      swap1\n      dup2\n      mstore\n      0x20\n      add\n      0x00\n      keccak256\n        /* \"base/artifacts/AddressBook.sol\":1933:1959  _contacts[i] = contacts[i] */\n      mload(0x40)\n      dup1\n      0x80\n      add\n      0x40\n      mstore\n      swap1\n      dup2\n      0x00\n      dup3\n      add\n      sload\n      dup2\n      mstore\n      0x20\n      add\n      0x01\n      dup3\n      add\n      dup1\n      sload\n      tag_84\n      swap1\n      tag_46\n      jump\t// in\n    tag_84:\n      dup1\n      0x1f\n      add\n      0x20\n      dup1\n      swap2\n      div\n      mul\n      0x20\n      add\n      mload(0x40)\n      swap1\n      dup2\n      add\n      0x40\n      mstore\n      dup1\n      swap3\n      swap2\n      swap1\n      dup2\n      dup2\n      mstore\n      0x20\n      add\n      dup3\n      dup1\n      sload\n      tag_85\n      swap1\n      tag_46\n      jump\t// in\n    tag_85:\n      dup1\n      iszero\n      tag_86\n      jumpi\n      dup1\n      0x1f\n      lt\n      tag_87\n      jumpi\n      0x0100\n      dup1\n      dup4\n      sload\n      div\n      mul\n      dup4\n      mstore\n      swap2\n      0x20\n      add\n      swap2\n      jump(tag_86)\n    tag_87:\n      dup3\n      add\n      swap2\n      swap1\n      0x00\n      mstore\n      keccak256(0x00, 0x20)\n      swap1\n    tag_88:\n      dup2\n      sload\n      dup2\n      mstore\n      swap1\n      0x01\n      add\n      swap1\n      0x20\n      add\n      dup1\n      dup4\n      gt\n      tag_88\n      jumpi\n      dup3\n      swap1\n      sub\n      0x1f\n      and\n      dup3\n      add\n      swap2\n    tag_86:\n      pop\n      pop\n      pop\n      pop\n      pop\n      dup2\n      mstore\n      0x20\n      add\n      0x02\n      dup3\n      add\n      dup1\n      sload\n      tag_89\n      swap1\n      tag_46\n      jump\t// in\n    tag_89:\n      dup1\n      0x1f\n      add\n      0x20\n      dup1\n      swap2\n      div\n      mul\n      0x20\n      add\n      mload(0x40)\n      swap1\n      dup2\n      add\n      0x40\n      mstore\n      dup1\n      swap3\n      swap2\n      swap1\n      dup2\n      dup2\n      mstore\n      0x20\n      add\n      dup3\n      dup1\n      sload\n      tag_90\n      swap1\n      tag_46\n      jump\t// in\n    tag_90:\n      dup1\n      iszero\n      tag_91\n      jumpi\n      dup1\n      0x1f\n      lt\n      tag_92\n      jumpi\n      0x0100\n      dup1\n      dup4\n      sload\n      div\n      mul\n      dup4\n      mstore\n      swap2\n      0x20\n      add\n      swap2\n      jump(tag_91)\n    tag_92:\n      dup3\n      add\n      swap2\n      swap1\n      0x00\n      mstore\n      keccak256(0x00, 0x20)\n      swap1\n    tag_93:\n      dup2\n      sload\n      dup2\n      mstore\n      swap1\n      0x01\n      add\n      swap1\n      0x20\n      add\n      dup1\n      dup4\n      gt\n      tag_93\n      jumpi\n      dup3\n      swap1\n      sub\n      0x1f\n      and\n      dup3\n      add\n      swap2\n    tag_91:\n      pop\n      pop\n      pop\n      pop\n      pop\n      dup2\n      mstore\n      0x20\n      add\n      0x03\n      dup3\n      add\n      dup1\n      sload\n      dup1\n      0x20\n      mul\n      0x20\n      add\n      mload(0x40)\n      swap1\n      dup2\n      add\n      0x40\n      mstore\n      dup1\n      swap3\n      swap2\n      swap1\n      dup2\n      dup2\n      mstore\n      0x20\n      add\n      dup3\n      dup1\n      sload\n      dup1\n      iszero\n      tag_94\n      jumpi\n      0x20\n      mul\n      dup3\n      add\n      swap2\n      swap1\n      0x00\n      mstore\n      keccak256(0x00, 0x20)\n      swap1\n    tag_95:\n      dup2\n      sload\n      dup2\n      mstore\n      0x20\n      add\n      swap1\n      0x01\n      add\n      swap1\n      dup1\n      dup4\n      gt\n      tag_95\n      jumpi\n    tag_94:\n      pop\n      pop\n      pop\n      pop\n      pop\n      dup2\n      mstore\n      pop\n      pop\n        /* \"base/artifacts/AddressBook.sol\":1933:1942  _contacts */\n      dup3\n        /* \"base/artifacts/AddressBook.sol\":1943:1944  i */\n      dup3\n        /* \"base/artifacts/AddressBook.sol\":1933:1945  _contacts[i] */\n      dup2\n      mload\n      dup2\n      lt\n      tag_96\n      jumpi\n      tag_97\n      tag_98\n      jump\t// in\n    tag_97:\n    tag_96:\n      0x20\n      mul\n      0x20\n      add\n      add\n        /* \"base/artifacts/AddressBook.sol\":1933:1959  _contacts[i] = contacts[i] */\n      dup2\n      swap1\n      mstore\n      pop\n        /* \"base/artifacts/AddressBook.sol\":1913:1916  i++ */\n      dup1\n      dup1\n      0x01\n      add\n      swap2\n      pop\n      pop\n        /* \"base/artifacts/AddressBook.sol\":1874:1971  for (uint256 i = 0; i < totalContacts; i++) {... */\n      jump(tag_81)\n    tag_82:\n      pop\n        /* \"base/artifacts/AddressBook.sol\":1988:1997  _contacts */\n      dup1\n        /* \"base/artifacts/AddressBook.sol\":1981:1997  return _contacts */\n      swap2\n      pop\n      pop\n        /* \"base/artifacts/AddressBook.sol\":1720:2005  function getAllContacts() public view onlyOwner returns (Contact[] memory) {... */\n      swap1\n      jump\t// out\n    tag_39:\n      pop\n      dup1\n      sload\n      tag_99\n      swap1\n      tag_46\n      jump\t// in\n    tag_99:\n      0x00\n      dup3\n      sstore\n      dup1\n      0x1f\n      lt\n      tag_101\n      jumpi\n      pop\n      jump(tag_100)\n    tag_101:\n      0x1f\n      add\n      0x20\n      swap1\n      div\n      swap1\n      0x00\n      mstore\n      keccak256(0x00, 0x20)\n      swap1\n      dup2\n      add\n      swap1\n      tag_102\n      swap2\n      swap1\n      tag_103\n      jump\t// in\n    tag_102:\n    tag_100:\n      pop\n      jump\t// out\n    tag_42:\n      pop\n      dup1\n      sload\n      0x00\n      dup3\n      sstore\n      swap1\n      0x00\n      mstore\n      keccak256(0x00, 0x20)\n      swap1\n      dup2\n      add\n      swap1\n      tag_105\n      swap2\n      swap1\n      tag_103\n      jump\t// in\n    tag_105:\n      pop\n      jump\t// out\n    tag_68:\n      dup3\n      dup1\n      sload\n      dup3\n      dup3\n      sstore\n      swap1\n      0x00\n      mstore\n      keccak256(0x00, 0x20)\n      swap1\n      dup2\n      add\n      swap3\n      dup3\n      iszero\n      tag_106\n      jumpi\n      swap2\n      0x20\n      mul\n      dup3\n      add\n    tag_107:\n      dup3\n      dup2\n      gt\n      iszero\n      tag_108\n      jumpi\n      dup3\n      mload\n      dup3\n      sstore\n      swap2\n      0x20\n      add\n      swap2\n      swap1\n      0x01\n      add\n      swap1\n      jump(tag_107)\n    tag_108:\n    tag_106:\n      pop\n      swap1\n      pop\n      tag_109\n      swap2\n      swap1\n      tag_103\n      jump\t// in\n    tag_109:\n      pop\n      swap1\n      jump\t// out\n    tag_80:\n      mload(0x40)\n      dup1\n      0x80\n      add\n      0x40\n      mstore\n      dup1\n      0x00\n      dup2\n      mstore\n      0x20\n      add\n      0x60\n      dup2\n      mstore\n      0x20\n      add\n      0x60\n      dup2\n      mstore\n      0x20\n      add\n      0x60\n      dup2\n      mstore\n      pop\n      swap1\n      jump\t// out\n    tag_103:\n    tag_110:\n      dup1\n      dup3\n      gt\n      iszero\n      tag_111\n      jumpi\n      0x00\n      dup2\n      0x00\n      swap1\n      sstore\n      pop\n      0x01\n      add\n      jump(tag_110)\n    tag_111:\n      pop\n      swap1\n      jump\t// out\n        /* \"#utility.yul\":7:133   */\n    tag_112:\n        /* \"#utility.yul\":44:51   */\n      0x00\n        /* \"#utility.yul\":84:126   */\n      0xffffffffffffffffffffffffffffffffffffffff\n        /* \"#utility.yul\":77:82   */\n      dup3\n        /* \"#utility.yul\":73:127   */\n      and\n        /* \"#utility.yul\":62:127   */\n      swap1\n      pop\n        /* \"#utility.yul\":7:133   */\n      swap2\n      swap1\n      pop\n      jump\t// out\n        /* \"#utility.yul\":139:235   */\n    tag_113:\n        /* \"#utility.yul\":176:183   */\n      0x00\n        /* \"#utility.yul\":205:229   */\n      tag_173\n        /* \"#utility.yul\":223:228   */\n      dup3\n        /* \"#utility.yul\":205:229   */\n      tag_112\n      jump\t// in\n    tag_173:\n        /* \"#utility.yul\":194:229   */\n      swap1\n      pop\n        /* \"#utility.yul\":139:235   */\n      swap2\n      swap1\n      pop\n      jump\t// out\n        /* \"#utility.yul\":241:359   */\n    tag_114:\n        /* \"#utility.yul\":328:352   */\n      tag_175\n        /* \"#utility.yul\":346:351   */\n      dup2\n        /* \"#utility.yul\":328:352   */\n      tag_113\n      jump\t// in\n    tag_175:\n        /* \"#utility.yul\":323:326   */\n      dup3\n        /* \"#utility.yul\":316:353   */\n      mstore\n        /* \"#utility.yul\":241:359   */\n      pop\n      pop\n      jump\t// out\n        /* \"#utility.yul\":365:587   */\n    tag_11:\n        /* \"#utility.yul\":458:462   */\n      0x00\n        /* \"#utility.yul\":496:498   */\n      0x20\n        /* \"#utility.yul\":485:494   */\n      dup3\n        /* \"#utility.yul\":481:499   */\n      add\n        /* \"#utility.yul\":473:499   */\n      swap1\n      pop\n        /* \"#utility.yul\":509:580   */\n      tag_177\n        /* \"#utility.yul\":577:578   */\n      0x00\n        /* \"#utility.yul\":566:575   */\n      dup4\n        /* \"#utility.yul\":562:579   */\n      add\n        /* \"#utility.yul\":553:559   */\n      dup5\n        /* \"#utility.yul\":509:580   */\n      tag_114\n      jump\t// in\n    tag_177:\n        /* \"#utility.yul\":365:587   */\n      swap3\n      swap2\n      pop\n      pop\n      jump\t// out\n        /* \"#utility.yul\":593:668   */\n    tag_115:\n        /* \"#utility.yul\":626:632   */\n      0x00\n        /* \"#utility.yul\":659:661   */\n      0x40\n        /* \"#utility.yul\":653:662   */\n      mload\n        /* \"#utility.yul\":643:662   */\n      swap1\n      pop\n        /* \"#utility.yul\":593:668   */\n      swap1\n      jump\t// out\n        /* \"#utility.yul\":674:791   */\n    tag_116:\n        /* \"#utility.yul\":783:784   */\n      0x00\n        /* \"#utility.yul\":780:781   */\n      dup1\n        /* \"#utility.yul\":773:785   */\n      revert\n        /* \"#utility.yul\":797:914   */\n    tag_117:\n        /* \"#utility.yul\":906:907   */\n      0x00\n        /* \"#utility.yul\":903:904   */\n      dup1\n        /* \"#utility.yul\":896:908   */\n      revert\n        /* \"#utility.yul\":920:997   */\n    tag_118:\n        /* \"#utility.yul\":957:964   */\n      0x00\n        /* \"#utility.yul\":986:991   */\n      dup2\n        /* \"#utility.yul\":975:991   */\n      swap1\n      pop\n        /* \"#utility.yul\":920:997   */\n      swap2\n      swap1\n      pop\n      jump\t// out\n        /* \"#utility.yul\":1003:1125   */\n    tag_119:\n        /* \"#utility.yul\":1076:1100   */\n      tag_183\n        /* \"#utility.yul\":1094:1099   */\n      dup2\n        /* \"#utility.yul\":1076:1100   */\n      tag_118\n      jump\t// in\n    tag_183:\n        /* \"#utility.yul\":1069:1074   */\n      dup2\n        /* \"#utility.yul\":1066:1101   */\n      eq\n        /* \"#utility.yul\":1056:1119   */\n      tag_184\n      jumpi\n        /* \"#utility.yul\":1115:1116   */\n      0x00\n        /* \"#utility.yul\":1112:1113   */\n      dup1\n        /* \"#utility.yul\":1105:1117   */\n      revert\n        /* \"#utility.yul\":1056:1119   */\n    tag_184:\n        /* \"#utility.yul\":1003:1125   */\n      pop\n      jump\t// out\n        /* \"#utility.yul\":1131:1270   */\n    tag_120:\n        /* \"#utility.yul\":1177:1182   */\n      0x00\n        /* \"#utility.yul\":1215:1221   */\n      dup2\n        /* \"#utility.yul\":1202:1222   */\n      calldataload\n        /* \"#utility.yul\":1193:1222   */\n      swap1\n      pop\n        /* \"#utility.yul\":1231:1264   */\n      tag_186\n        /* \"#utility.yul\":1258:1263   */\n      dup2\n        /* \"#utility.yul\":1231:1264   */\n      tag_119\n      jump\t// in\n    tag_186:\n        /* \"#utility.yul\":1131:1270   */\n      swap3\n      swap2\n      pop\n      pop\n      jump\t// out\n        /* \"#utility.yul\":1276:1605   */\n    tag_14:\n        /* \"#utility.yul\":1335:1341   */\n      0x00\n        /* \"#utility.yul\":1384:1386   */\n      0x20\n        /* \"#utility.yul\":1372:1381   */\n      dup3\n        /* \"#utility.yul\":1363:1370   */\n      dup5\n        /* \"#utility.yul\":1359:1382   */\n      sub\n        /* \"#utility.yul\":1355:1387   */\n      slt\n        /* \"#utility.yul\":1352:1471   */\n      iszero\n      tag_188\n      jumpi\n        /* \"#utility.yul\":1390:1469   */\n      tag_189\n      tag_116\n      jump\t// in\n    tag_189:\n        /* \"#utility.yul\":1352:1471   */\n    tag_188:\n        /* \"#utility.yul\":1510:1511   */\n      0x00\n        /* \"#utility.yul\":1535:1588   */\n      tag_190\n        /* \"#utility.yul\":1580:1587   */\n      dup5\n        /* \"#utility.yul\":1571:1577   */\n      dup3\n        /* \"#utility.yul\":1560:1569   */\n      dup6\n        /* \"#utility.yul\":1556:1578   */\n      add\n        /* \"#utility.yul\":1535:1588   */\n      tag_120\n      jump\t// in\n    tag_190:\n        /* \"#utility.yul\":1525:1588   */\n      swap2\n      pop\n        /* \"#utility.yul\":1481:1598   */\n      pop\n        /* \"#utility.yul\":1276:1605   */\n      swap3\n      swap2\n      pop\n      pop\n      jump\t// out\n        /* \"#utility.yul\":1611:1729   */\n    tag_121:\n        /* \"#utility.yul\":1698:1722   */\n      tag_192\n        /* \"#utility.yul\":1716:1721   */\n      dup2\n        /* \"#utility.yul\":1698:1722   */\n      tag_118\n      jump\t// in\n    tag_192:\n        /* \"#utility.yul\":1693:1696   */\n      dup3\n        /* \"#utility.yul\":1686:1723   */\n      mstore\n        /* \"#utility.yul\":1611:1729   */\n      pop\n      pop\n      jump\t// out\n        /* \"#utility.yul\":1735:1834   */\n    tag_122:\n        /* \"#utility.yul\":1787:1793   */\n      0x00\n        /* \"#utility.yul\":1821:1826   */\n      dup2\n        /* \"#utility.yul\":1815:1827   */\n      mload\n        /* \"#utility.yul\":1805:1827   */\n      swap1\n      pop\n        /* \"#utility.yul\":1735:1834   */\n      swap2\n      swap1\n      pop\n      jump\t// out\n        /* \"#utility.yul\":1840:2009   */\n    tag_123:\n        /* \"#utility.yul\":1924:1935   */\n      0x00\n        /* \"#utility.yul\":1958:1964   */\n      dup3\n        /* \"#utility.yul\":1953:1956   */\n      dup3\n        /* \"#utility.yul\":1946:1965   */\n      mstore\n        /* \"#utility.yul\":1998:2002   */\n      0x20\n        /* \"#utility.yul\":1993:1996   */\n      dup3\n        /* \"#utility.yul\":1989:2003   */\n      add\n        /* \"#utility.yul\":1974:2003   */\n      swap1\n      pop\n        /* \"#utility.yul\":1840:2009   */\n      swap3\n      swap2\n      pop\n      pop\n      jump\t// out\n        /* \"#utility.yul\":2015:2154   */\n    tag_124:\n        /* \"#utility.yul\":2104:2110   */\n      dup3\n        /* \"#utility.yul\":2099:2102   */\n      dup2\n        /* \"#utility.yul\":2094:2097   */\n      dup4\n        /* \"#utility.yul\":2088:2111   */\n      mcopy\n        /* \"#utility.yul\":2145:2146   */\n      0x00\n        /* \"#utility.yul\":2136:2142   */\n      dup4\n        /* \"#utility.yul\":2131:2134   */\n      dup4\n        /* \"#utility.yul\":2127:2143   */\n      add\n        /* \"#utility.yul\":2120:2147   */\n      mstore\n        /* \"#utility.yul\":2015:2154   */\n      pop\n      pop\n      pop\n      jump\t// out\n        /* \"#utility.yul\":2160:2262   */\n    tag_125:\n        /* \"#utility.yul\":2201:2207   */\n      0x00\n        /* \"#utility.yul\":2252:2254   */\n      0x1f\n        /* \"#utility.yul\":2248:2255   */\n      not\n        /* \"#utility.yul\":2243:2245   */\n      0x1f\n        /* \"#utility.yul\":2236:2241   */\n      dup4\n        /* \"#utility.yul\":2232:2246   */\n      add\n        /* \"#utility.yul\":2228:2256   */\n      and\n        /* \"#utility.yul\":2218:2256   */\n      swap1\n      pop\n        /* \"#utility.yul\":2160:2262   */\n      swap2\n      swap1\n      pop\n      jump\t// out\n        /* \"#utility.yul\":2268:2645   */\n    tag_126:\n        /* \"#utility.yul\":2356:2359   */\n      0x00\n        /* \"#utility.yul\":2384:2423   */\n      tag_198\n        /* \"#utility.yul\":2417:2422   */\n      dup3\n        /* \"#utility.yul\":2384:2423   */\n      tag_122\n      jump\t// in\n    tag_198:\n        /* \"#utility.yul\":2439:2510   */\n      tag_199\n        /* \"#utility.yul\":2503:2509   */\n      dup2\n        /* \"#utility.yul\":2498:2501   */\n      dup6\n        /* \"#utility.yul\":2439:2510   */\n      tag_123\n      jump\t// in\n    tag_199:\n        /* \"#utility.yul\":2432:2510   */\n      swap4\n      pop\n        /* \"#utility.yul\":2519:2584   */\n      tag_200\n        /* \"#utility.yul\":2577:2583   */\n      dup2\n        /* \"#utility.yul\":2572:2575   */\n      dup6\n        /* \"#utility.yul\":2565:2569   */\n      0x20\n        /* \"#utility.yul\":2558:2563   */\n      dup7\n        /* \"#utility.yul\":2554:2570   */\n      add\n        /* \"#utility.yul\":2519:2584   */\n      tag_124\n      jump\t// in\n    tag_200:\n        /* \"#utility.yul\":2609:2638   */\n      tag_201\n        /* \"#utility.yul\":2631:2637   */\n      dup2\n        /* \"#utility.yul\":2609:2638   */\n      tag_125\n      jump\t// in\n    tag_201:\n        /* \"#utility.yul\":2604:2607   */\n      dup5\n        /* \"#utility.yul\":2600:2639   */\n      add\n        /* \"#utility.yul\":2593:2639   */\n      swap2\n      pop\n        /* \"#utility.yul\":2360:2645   */\n      pop\n        /* \"#utility.yul\":2268:2645   */\n      swap3\n      swap2\n      pop\n      pop\n      jump\t// out\n        /* \"#utility.yul\":2651:3275   */\n    tag_20:\n        /* \"#utility.yul\":2840:2844   */\n      0x00\n        /* \"#utility.yul\":2878:2880   */\n      0x60\n        /* \"#utility.yul\":2867:2876   */\n      dup3\n        /* \"#utility.yul\":2863:2881   */\n      add\n        /* \"#utility.yul\":2855:2881   */\n      swap1\n      pop\n        /* \"#utility.yul\":2891:2962   */\n      tag_203\n        /* \"#utility.yul\":2959:2960   */\n      0x00\n        /* \"#utility.yul\":2948:2957   */\n      dup4\n        /* \"#utility.yul\":2944:2961   */\n      add\n        /* \"#utility.yul\":2935:2941   */\n      dup7\n        /* \"#utility.yul\":2891:2962   */\n      tag_121\n      jump\t// in\n    tag_203:\n        /* \"#utility.yul\":3009:3018   */\n      dup2\n        /* \"#utility.yul\":3003:3007   */\n      dup2\n        /* \"#utility.yul\":2999:3019   */\n      sub\n        /* \"#utility.yul\":2994:2996   */\n      0x20\n        /* \"#utility.yul\":2983:2992   */\n      dup4\n        /* \"#utility.yul\":2979:2997   */\n      add\n        /* \"#utility.yul\":2972:3020   */\n      mstore\n        /* \"#utility.yul\":3037:3115   */\n      tag_204\n        /* \"#utility.yul\":3110:3114   */\n      dup2\n        /* \"#utility.yul\":3101:3107   */\n      dup6\n        /* \"#utility.yul\":3037:3115   */\n      tag_126\n      jump\t// in\n    tag_204:\n        /* \"#utility.yul\":3029:3115   */\n      swap1\n      pop\n        /* \"#utility.yul\":3162:3171   */\n      dup2\n        /* \"#utility.yul\":3156:3160   */\n      dup2\n        /* \"#utility.yul\":3152:3172   */\n      sub\n        /* \"#utility.yul\":3147:3149   */\n      0x40\n        /* \"#utility.yul\":3136:3145   */\n      dup4\n        /* \"#utility.yul\":3132:3150   */\n      add\n        /* \"#utility.yul\":3125:3173   */\n      mstore\n        /* \"#utility.yul\":3190:3268   */\n      tag_205\n        /* \"#utility.yul\":3263:3267   */\n      dup2\n        /* \"#utility.yul\":3254:3260   */\n      dup5\n        /* \"#utility.yul\":3190:3268   */\n      tag_126\n      jump\t// in\n    tag_205:\n        /* \"#utility.yul\":3182:3268   */\n      swap1\n      pop\n        /* \"#utility.yul\":2651:3275   */\n      swap5\n      swap4\n      pop\n      pop\n      pop\n      pop\n      jump\t// out\n        /* \"#utility.yul\":3281:3398   */\n    tag_127:\n        /* \"#utility.yul\":3390:3391   */\n      0x00\n        /* \"#utility.yul\":3387:3388   */\n      dup1\n        /* \"#utility.yul\":3380:3392   */\n      revert\n        /* \"#utility.yul\":3404:3521   */\n    tag_128:\n        /* \"#utility.yul\":3513:3514   */\n      0x00\n        /* \"#utility.yul\":3510:3511   */\n      dup1\n        /* \"#utility.yul\":3503:3515   */\n      revert\n        /* \"#utility.yul\":3527:3707   */\n    tag_62:\n        /* \"#utility.yul\":3575:3652   */\n      0x4e487b7100000000000000000000000000000000000000000000000000000000\n        /* \"#utility.yul\":3572:3573   */\n      0x00\n        /* \"#utility.yul\":3565:3653   */\n      mstore\n        /* \"#utility.yul\":3672:3676   */\n      0x41\n        /* \"#utility.yul\":3669:3670   */\n      0x04\n        /* \"#utility.yul\":3662:3677   */\n      mstore\n        /* \"#utility.yul\":3696:3700   */\n      0x24\n        /* \"#utility.yul\":3693:3694   */\n      0x00\n        /* \"#utility.yul\":3686:3701   */\n      revert\n        /* \"#utility.yul\":3713:3994   */\n    tag_129:\n        /* \"#utility.yul\":3796:3823   */\n      tag_210\n        /* \"#utility.yul\":3818:3822   */\n      dup3\n        /* \"#utility.yul\":3796:3823   */\n      tag_125\n      jump\t// in\n    tag_210:\n        /* \"#utility.yul\":3788:3794   */\n      dup2\n        /* \"#utility.yul\":3784:3824   */\n      add\n        /* \"#utility.yul\":3926:3932   */\n      dup2\n        /* \"#utility.yul\":3914:3924   */\n      dup2\n        /* \"#utility.yul\":3911:3933   */\n      lt\n        /* \"#utility.yul\":3890:3908   */\n      0xffffffffffffffff\n        /* \"#utility.yul\":3878:3888   */\n      dup3\n        /* \"#utility.yul\":3875:3909   */\n      gt\n        /* \"#utility.yul\":3872:3934   */\n      or\n        /* \"#utility.yul\":3869:3957   */\n      iszero\n      tag_211\n      jumpi\n        /* \"#utility.yul\":3937:3955   */\n      tag_212\n      tag_62\n      jump\t// in\n    tag_212:\n        /* \"#utility.yul\":3869:3957   */\n    tag_211:\n        /* \"#utility.yul\":3977:3987   */\n      dup1\n        /* \"#utility.yul\":3973:3975   */\n      0x40\n        /* \"#utility.yul\":3966:3988   */\n      mstore\n        /* \"#utility.yul\":3756:3994   */\n      pop\n        /* \"#utility.yul\":3713:3994   */\n      pop\n      pop\n      jump\t// out\n        /* \"#utility.yul\":4000:4129   */\n    tag_130:\n        /* \"#utility.yul\":4034:4040   */\n      0x00\n        /* \"#utility.yul\":4061:4081   */\n      tag_214\n      tag_115\n      jump\t// in\n    tag_214:\n        /* \"#utility.yul\":4051:4081   */\n      swap1\n      pop\n        /* \"#utility.yul\":4090:4123   */\n      tag_215\n        /* \"#utility.yul\":4118:4122   */\n      dup3\n        /* \"#utility.yul\":4110:4116   */\n      dup3\n        /* \"#utility.yul\":4090:4123   */\n      tag_129\n      jump\t// in\n    tag_215:\n        /* \"#utility.yul\":4000:4129   */\n      swap2\n      swap1\n      pop\n      jump\t// out\n        /* \"#utility.yul\":4135:4443   */\n    tag_131:\n        /* \"#utility.yul\":4197:4201   */\n      0x00\n        /* \"#utility.yul\":4287:4305   */\n      0xffffffffffffffff\n        /* \"#utility.yul\":4279:4285   */\n      dup3\n        /* \"#utility.yul\":4276:4306   */\n      gt\n        /* \"#utility.yul\":4273:4329   */\n      iszero\n      tag_217\n      jumpi\n        /* \"#utility.yul\":4309:4327   */\n      tag_218\n      tag_62\n      jump\t// in\n    tag_218:\n        /* \"#utility.yul\":4273:4329   */\n    tag_217:\n        /* \"#utility.yul\":4347:4376   */\n      tag_219\n        /* \"#utility.yul\":4369:4375   */\n      dup3\n        /* \"#utility.yul\":4347:4376   */\n      tag_125\n      jump\t// in\n    tag_219:\n        /* \"#utility.yul\":4339:4376   */\n      swap1\n      pop\n        /* \"#utility.yul\":4431:4435   */\n      0x20\n        /* \"#utility.yul\":4425:4429   */\n      dup2\n        /* \"#utility.yul\":4421:4436   */\n      add\n        /* \"#utility.yul\":4413:4436   */\n      swap1\n      pop\n        /* \"#utility.yul\":4135:4443   */\n      swap2\n      swap1\n      pop\n      jump\t// out\n        /* \"#utility.yul\":4449:4597   */\n    tag_132:\n        /* \"#utility.yul\":4547:4553   */\n      dup3\n        /* \"#utility.yul\":4542:4545   */\n      dup2\n        /* \"#utility.yul\":4537:4540   */\n      dup4\n        /* \"#utility.yul\":4524:4554   */\n      calldatacopy\n        /* \"#utility.yul\":4588:4589   */\n      0x00\n        /* \"#utility.yul\":4579:4585   */\n      dup4\n        /* \"#utility.yul\":4574:4577   */\n      dup4\n        /* \"#utility.yul\":4570:4586   */\n      add\n        /* \"#utility.yul\":4563:4590   */\n      mstore\n        /* \"#utility.yul\":4449:4597   */\n      pop\n      pop\n      pop\n      jump\t// out\n        /* \"#utility.yul\":4603:5028   */\n    tag_133:\n        /* \"#utility.yul\":4681:4686   */\n      0x00\n        /* \"#utility.yul\":4706:4772   */\n      tag_222\n        /* \"#utility.yul\":4722:4771   */\n      tag_223\n        /* \"#utility.yul\":4764:4770   */\n      dup5\n        /* \"#utility.yul\":4722:4771   */\n      tag_131\n      jump\t// in\n    tag_223:\n        /* \"#utility.yul\":4706:4772   */\n      tag_130\n      jump\t// in\n    tag_222:\n        /* \"#utility.yul\":4697:4772   */\n      swap1\n      pop\n        /* \"#utility.yul\":4795:4801   */\n      dup3\n        /* \"#utility.yul\":4788:4793   */\n      dup2\n        /* \"#utility.yul\":4781:4802   */\n      mstore\n        /* \"#utility.yul\":4833:4837   */\n      0x20\n        /* \"#utility.yul\":4826:4831   */\n      dup2\n        /* \"#utility.yul\":4822:4838   */\n      add\n        /* \"#utility.yul\":4871:4874   */\n      dup5\n        /* \"#utility.yul\":4862:4868   */\n      dup5\n        /* \"#utility.yul\":4857:4860   */\n      dup5\n        /* \"#utility.yul\":4853:4869   */\n      add\n        /* \"#utility.yul\":4850:4875   */\n      gt\n        /* \"#utility.yul\":4847:4959   */\n      iszero\n      tag_224\n      jumpi\n        /* \"#utility.yul\":4878:4957   */\n      tag_225\n      tag_128\n      jump\t// in\n    tag_225:\n        /* \"#utility.yul\":4847:4959   */\n    tag_224:\n        /* \"#utility.yul\":4968:5022   */\n      tag_226\n        /* \"#utility.yul\":5015:5021   */\n      dup5\n        /* \"#utility.yul\":5010:5013   */\n      dup3\n        /* \"#utility.yul\":5005:5008   */\n      dup6\n        /* \"#utility.yul\":4968:5022   */\n      tag_132\n      jump\t// in\n    tag_226:\n        /* \"#utility.yul\":4687:5028   */\n      pop\n        /* \"#utility.yul\":4603:5028   */\n      swap4\n      swap3\n      pop\n      pop\n      pop\n      jump\t// out\n        /* \"#utility.yul\":5048:5388   */\n    tag_134:\n        /* \"#utility.yul\":5104:5109   */\n      0x00\n        /* \"#utility.yul\":5153:5156   */\n      dup3\n        /* \"#utility.yul\":5146:5150   */\n      0x1f\n        /* \"#utility.yul\":5138:5144   */\n      dup4\n        /* \"#utility.yul\":5134:5151   */\n      add\n        /* \"#utility.yul\":5130:5157   */\n      slt\n        /* \"#utility.yul\":5120:5242   */\n      tag_228\n      jumpi\n        /* \"#utility.yul\":5161:5240   */\n      tag_229\n      tag_127\n      jump\t// in\n    tag_229:\n        /* \"#utility.yul\":5120:5242   */\n    tag_228:\n        /* \"#utility.yul\":5278:5284   */\n      dup2\n        /* \"#utility.yul\":5265:5285   */\n      calldataload\n        /* \"#utility.yul\":5303:5382   */\n      tag_230\n        /* \"#utility.yul\":5378:5381   */\n      dup5\n        /* \"#utility.yul\":5370:5376   */\n      dup3\n        /* \"#utility.yul\":5363:5367   */\n      0x20\n        /* \"#utility.yul\":5355:5361   */\n      dup7\n        /* \"#utility.yul\":5351:5368   */\n      add\n        /* \"#utility.yul\":5303:5382   */\n      tag_133\n      jump\t// in\n    tag_230:\n        /* \"#utility.yul\":5294:5382   */\n      swap2\n      pop\n        /* \"#utility.yul\":5110:5388   */\n      pop\n        /* \"#utility.yul\":5048:5388   */\n      swap3\n      swap2\n      pop\n      pop\n      jump\t// out\n        /* \"#utility.yul\":5394:6373   */\n    tag_23:\n        /* \"#utility.yul\":5491:5497   */\n      0x00\n        /* \"#utility.yul\":5499:5505   */\n      dup1\n        /* \"#utility.yul\":5507:5513   */\n      0x00\n        /* \"#utility.yul\":5556:5558   */\n      0x60\n        /* \"#utility.yul\":5544:5553   */\n      dup5\n        /* \"#utility.yul\":5535:5542   */\n      dup7\n        /* \"#utility.yul\":5531:5554   */\n      sub\n        /* \"#utility.yul\":5527:5559   */\n      slt\n        /* \"#utility.yul\":5524:5643   */\n      iszero\n      tag_232\n      jumpi\n        /* \"#utility.yul\":5562:5641   */\n      tag_233\n      tag_116\n      jump\t// in\n    tag_233:\n        /* \"#utility.yul\":5524:5643   */\n    tag_232:\n        /* \"#utility.yul\":5682:5683   */\n      0x00\n        /* \"#utility.yul\":5707:5760   */\n      tag_234\n        /* \"#utility.yul\":5752:5759   */\n      dup7\n        /* \"#utility.yul\":5743:5749   */\n      dup3\n        /* \"#utility.yul\":5732:5741   */\n      dup8\n        /* \"#utility.yul\":5728:5750   */\n      add\n        /* \"#utility.yul\":5707:5760   */\n      tag_120\n      jump\t// in\n    tag_234:\n        /* \"#utility.yul\":5697:5760   */\n      swap4\n      pop\n        /* \"#utility.yul\":5653:5770   */\n      pop\n        /* \"#utility.yul\":5837:5839   */\n      0x20\n        /* \"#utility.yul\":5826:5835   */\n      dup5\n        /* \"#utility.yul\":5822:5840   */\n      add\n        /* \"#utility.yul\":5809:5841   */\n      calldataload\n        /* \"#utility.yul\":5868:5886   */\n      0xffffffffffffffff\n        /* \"#utility.yul\":5860:5866   */\n      dup2\n        /* \"#utility.yul\":5857:5887   */\n      gt\n        /* \"#utility.yul\":5854:5971   */\n      iszero\n      tag_235\n      jumpi\n        /* \"#utility.yul\":5890:5969   */\n      tag_236\n      tag_117\n      jump\t// in\n    tag_236:\n        /* \"#utility.yul\":5854:5971   */\n    tag_235:\n        /* \"#utility.yul\":5995:6058   */\n      tag_237\n        /* \"#utility.yul\":6050:6057   */\n      dup7\n        /* \"#utility.yul\":6041:6047   */\n      dup3\n        /* \"#utility.yul\":6030:6039   */\n      dup8\n        /* \"#utility.yul\":6026:6048   */\n      add\n        /* \"#utility.yul\":5995:6058   */\n      tag_134\n      jump\t// in\n    tag_237:\n        /* \"#utility.yul\":5985:6058   */\n      swap3\n      pop\n        /* \"#utility.yul\":5780:6068   */\n      pop\n        /* \"#utility.yul\":6135:6137   */\n      0x40\n        /* \"#utility.yul\":6124:6133   */\n      dup5\n        /* \"#utility.yul\":6120:6138   */\n      add\n        /* \"#utility.yul\":6107:6139   */\n      calldataload\n        /* \"#utility.yul\":6166:6184   */\n      0xffffffffffffffff\n        /* \"#utility.yul\":6158:6164   */\n      dup2\n        /* \"#utility.yul\":6155:6185   */\n      gt\n        /* \"#utility.yul\":6152:6269   */\n      iszero\n      tag_238\n      jumpi\n        /* \"#utility.yul\":6188:6267   */\n      tag_239\n      tag_117\n      jump\t// in\n    tag_239:\n        /* \"#utility.yul\":6152:6269   */\n    tag_238:\n        /* \"#utility.yul\":6293:6356   */\n      tag_240\n        /* \"#utility.yul\":6348:6355   */\n      dup7\n        /* \"#utility.yul\":6339:6345   */\n      dup3\n        /* \"#utility.yul\":6328:6337   */\n      dup8\n        /* \"#utility.yul\":6324:6346   */\n      add\n        /* \"#utility.yul\":6293:6356   */\n      tag_134\n      jump\t// in\n    tag_240:\n        /* \"#utility.yul\":6283:6356   */\n      swap2\n      pop\n        /* \"#utility.yul\":6078:6366   */\n      pop\n        /* \"#utility.yul\":5394:6373   */\n      swap3\n      pop\n      swap3\n      pop\n      swap3\n      jump\t// out\n        /* \"#utility.yul\":6379:6516   */\n    tag_135:\n        /* \"#utility.yul\":6469:6475   */\n      0x00\n        /* \"#utility.yul\":6503:6508   */\n      dup2\n        /* \"#utility.yul\":6497:6509   */\n      mload\n        /* \"#utility.yul\":6487:6509   */\n      swap1\n      pop\n        /* \"#utility.yul\":6379:6516   */\n      swap2\n      swap1\n      pop\n      jump\t// out\n        /* \"#utility.yul\":6522:6729   */\n    tag_136:\n        /* \"#utility.yul\":6644:6655   */\n      0x00\n        /* \"#utility.yul\":6678:6684   */\n      dup3\n        /* \"#utility.yul\":6673:6676   */\n      dup3\n        /* \"#utility.yul\":6666:6685   */\n      mstore\n        /* \"#utility.yul\":6718:6722   */\n      0x20\n        /* \"#utility.yul\":6713:6716   */\n      dup3\n        /* \"#utility.yul\":6709:6723   */\n      add\n        /* \"#utility.yul\":6694:6723   */\n      swap1\n      pop\n        /* \"#utility.yul\":6522:6729   */\n      swap3\n      swap2\n      pop\n      pop\n      jump\t// out\n        /* \"#utility.yul\":6735:6890   */\n    tag_137:\n        /* \"#utility.yul\":6825:6829   */\n      0x00\n        /* \"#utility.yul\":6848:6851   */\n      dup2\n        /* \"#utility.yul\":6840:6851   */\n      swap1\n      pop\n        /* \"#utility.yul\":6878:6882   */\n      0x20\n        /* \"#utility.yul\":6873:6876   */\n      dup3\n        /* \"#utility.yul\":6869:6883   */\n      add\n        /* \"#utility.yul\":6861:6883   */\n      swap1\n      pop\n        /* \"#utility.yul\":6735:6890   */\n      swap2\n      swap1\n      pop\n      jump\t// out\n        /* \"#utility.yul\":6896:7004   */\n    tag_138:\n        /* \"#utility.yul\":6973:6997   */\n      tag_245\n        /* \"#utility.yul\":6991:6996   */\n      dup2\n        /* \"#utility.yul\":6973:6997   */\n      tag_118\n      jump\t// in\n    tag_245:\n        /* \"#utility.yul\":6968:6971   */\n      dup3\n        /* \"#utility.yul\":6961:6998   */\n      mstore\n        /* \"#utility.yul\":6896:7004   */\n      pop\n      pop\n      jump\t// out\n        /* \"#utility.yul\":7010:7169   */\n    tag_139:\n        /* \"#utility.yul\":7084:7095   */\n      0x00\n        /* \"#utility.yul\":7118:7124   */\n      dup3\n        /* \"#utility.yul\":7113:7116   */\n      dup3\n        /* \"#utility.yul\":7106:7125   */\n      mstore\n        /* \"#utility.yul\":7158:7162   */\n      0x20\n        /* \"#utility.yul\":7153:7156   */\n      dup3\n        /* \"#utility.yul\":7149:7163   */\n      add\n        /* \"#utility.yul\":7134:7163   */\n      swap1\n      pop\n        /* \"#utility.yul\":7010:7169   */\n      swap3\n      swap2\n      pop\n      pop\n      jump\t// out\n        /* \"#utility.yul\":7175:7532   */\n    tag_140:\n        /* \"#utility.yul\":7253:7256   */\n      0x00\n        /* \"#utility.yul\":7281:7320   */\n      tag_248\n        /* \"#utility.yul\":7314:7319   */\n      dup3\n        /* \"#utility.yul\":7281:7320   */\n      tag_122\n      jump\t// in\n    tag_248:\n        /* \"#utility.yul\":7336:7397   */\n      tag_249\n        /* \"#utility.yul\":7390:7396   */\n      dup2\n        /* \"#utility.yul\":7385:7388   */\n      dup6\n        /* \"#utility.yul\":7336:7397   */\n      tag_139\n      jump\t// in\n    tag_249:\n        /* \"#utility.yul\":7329:7397   */\n      swap4\n      pop\n        /* \"#utility.yul\":7406:7471   */\n      tag_250\n        /* \"#utility.yul\":7464:7470   */\n      dup2\n        /* \"#utility.yul\":7459:7462   */\n      dup6\n        /* \"#utility.yul\":7452:7456   */\n      0x20\n        /* \"#utility.yul\":7445:7450   */\n      dup7\n        /* \"#utility.yul\":7441:7457   */\n      add\n        /* \"#utility.yul\":7406:7471   */\n      tag_124\n      jump\t// in\n    tag_250:\n        /* \"#utility.yul\":7496:7525   */\n      tag_251\n        /* \"#utility.yul\":7518:7524   */\n      dup2\n        /* \"#utility.yul\":7496:7525   */\n      tag_125\n      jump\t// in\n    tag_251:\n        /* \"#utility.yul\":7491:7494   */\n      dup5\n        /* \"#utility.yul\":7487:7526   */\n      add\n        /* \"#utility.yul\":7480:7526   */\n      swap2\n      pop\n        /* \"#utility.yul\":7257:7532   */\n      pop\n        /* \"#utility.yul\":7175:7532   */\n      swap3\n      swap2\n      pop\n      pop\n      jump\t// out\n        /* \"#utility.yul\":7538:7652   */\n    tag_141:\n        /* \"#utility.yul\":7605:7611   */\n      0x00\n        /* \"#utility.yul\":7639:7644   */\n      dup2\n        /* \"#utility.yul\":7633:7645   */\n      mload\n        /* \"#utility.yul\":7623:7645   */\n      swap1\n      pop\n        /* \"#utility.yul\":7538:7652   */\n      swap2\n      swap1\n      pop\n      jump\t// out\n        /* \"#utility.yul\":7658:7832   */\n    tag_142:\n        /* \"#utility.yul\":7747:7758   */\n      0x00\n        /* \"#utility.yul\":7781:7787   */\n      dup3\n        /* \"#utility.yul\":7776:7779   */\n      dup3\n        /* \"#utility.yul\":7769:7788   */\n      mstore\n        /* \"#utility.yul\":7821:7825   */\n      0x20\n        /* \"#utility.yul\":7816:7819   */\n      dup3\n        /* \"#utility.yul\":7812:7826   */\n      add\n        /* \"#utility.yul\":7797:7826   */\n      swap1\n      pop\n        /* \"#utility.yul\":7658:7832   */\n      swap3\n      swap2\n      pop\n      pop\n      jump\t// out\n        /* \"#utility.yul\":7838:7970   */\n    tag_143:\n        /* \"#utility.yul\":7905:7909   */\n      0x00\n        /* \"#utility.yul\":7928:7931   */\n      dup2\n        /* \"#utility.yul\":7920:7931   */\n      swap1\n      pop\n        /* \"#utility.yul\":7958:7962   */\n      0x20\n        /* \"#utility.yul\":7953:7956   */\n      dup3\n        /* \"#utility.yul\":7949:7963   */\n      add\n        /* \"#utility.yul\":7941:7963   */\n      swap1\n      pop\n        /* \"#utility.yul\":7838:7970   */\n      swap2\n      swap1\n      pop\n      jump\t// out\n        /* \"#utility.yul\":7976:8155   */\n    tag_144:\n        /* \"#utility.yul\":8045:8055   */\n      0x00\n        /* \"#utility.yul\":8066:8112   */\n      tag_256\n        /* \"#utility.yul\":8108:8111   */\n      dup4\n        /* \"#utility.yul\":8100:8106   */\n      dup4\n        /* \"#utility.yul\":8066:8112   */\n      tag_138\n      jump\t// in\n    tag_256:\n        /* \"#utility.yul\":8144:8148   */\n      0x20\n        /* \"#utility.yul\":8139:8142   */\n      dup4\n        /* \"#utility.yul\":8135:8149   */\n      add\n        /* \"#utility.yul\":8121:8149   */\n      swap1\n      pop\n        /* \"#utility.yul\":7976:8155   */\n      swap3\n      swap2\n      pop\n      pop\n      jump\t// out\n        /* \"#utility.yul\":8161:8274   */\n    tag_145:\n        /* \"#utility.yul\":8231:8235   */\n      0x00\n        /* \"#utility.yul\":8263:8267   */\n      0x20\n        /* \"#utility.yul\":8258:8261   */\n      dup3\n        /* \"#utility.yul\":8254:8268   */\n      add\n        /* \"#utility.yul\":8246:8268   */\n      swap1\n      pop\n        /* \"#utility.yul\":8161:8274   */\n      swap2\n      swap1\n      pop\n      jump\t// out\n        /* \"#utility.yul\":8310:9022   */\n    tag_146:\n        /* \"#utility.yul\":8419:8422   */\n      0x00\n        /* \"#utility.yul\":8448:8502   */\n      tag_259\n        /* \"#utility.yul\":8496:8501   */\n      dup3\n        /* \"#utility.yul\":8448:8502   */\n      tag_141\n      jump\t// in\n    tag_259:\n        /* \"#utility.yul\":8518:8594   */\n      tag_260\n        /* \"#utility.yul\":8587:8593   */\n      dup2\n        /* \"#utility.yul\":8582:8585   */\n      dup6\n        /* \"#utility.yul\":8518:8594   */\n      tag_142\n      jump\t// in\n    tag_260:\n        /* \"#utility.yul\":8511:8594   */\n      swap4\n      pop\n        /* \"#utility.yul\":8618:8674   */\n      tag_261\n        /* \"#utility.yul\":8668:8673   */\n      dup4\n        /* \"#utility.yul\":8618:8674   */\n      tag_143\n      jump\t// in\n    tag_261:\n        /* \"#utility.yul\":8697:8704   */\n      dup1\n        /* \"#utility.yul\":8728:8729   */\n      0x00\n        /* \"#utility.yul\":8713:8997   */\n    tag_262:\n        /* \"#utility.yul\":8738:8744   */\n      dup4\n        /* \"#utility.yul\":8735:8736   */\n      dup2\n        /* \"#utility.yul\":8732:8745   */\n      lt\n        /* \"#utility.yul\":8713:8997   */\n      iszero\n      tag_264\n      jumpi\n        /* \"#utility.yul\":8814:8820   */\n      dup2\n        /* \"#utility.yul\":8808:8821   */\n      mload\n        /* \"#utility.yul\":8841:8904   */\n      tag_265\n        /* \"#utility.yul\":8900:8903   */\n      dup9\n        /* \"#utility.yul\":8885:8898   */\n      dup3\n        /* \"#utility.yul\":8841:8904   */\n      tag_144\n      jump\t// in\n    tag_265:\n        /* \"#utility.yul\":8834:8904   */\n      swap8\n      pop\n        /* \"#utility.yul\":8927:8987   */\n      tag_266\n        /* \"#utility.yul\":8980:8986   */\n      dup4\n        /* \"#utility.yul\":8927:8987   */\n      tag_145\n      jump\t// in\n    tag_266:\n        /* \"#utility.yul\":8917:8987   */\n      swap3\n      pop\n        /* \"#utility.yul\":8773:8997   */\n      pop\n        /* \"#utility.yul\":8760:8761   */\n      0x01\n        /* \"#utility.yul\":8757:8758   */\n      dup2\n        /* \"#utility.yul\":8753:8762   */\n      add\n        /* \"#utility.yul\":8748:8762   */\n      swap1\n      pop\n        /* \"#utility.yul\":8713:8997   */\n      jump(tag_262)\n    tag_264:\n        /* \"#utility.yul\":8717:8731   */\n      pop\n        /* \"#utility.yul\":9013:9016   */\n      dup6\n        /* \"#utility.yul\":9006:9016   */\n      swap4\n      pop\n        /* \"#utility.yul\":8424:9022   */\n      pop\n      pop\n      pop\n        /* \"#utility.yul\":8310:9022   */\n      swap3\n      swap2\n      pop\n      pop\n      jump\t// out\n        /* \"#utility.yul\":9092:10219   */\n    tag_147:\n        /* \"#utility.yul\":9197:9200   */\n      0x00\n        /* \"#utility.yul\":9233:9237   */\n      0x80\n        /* \"#utility.yul\":9228:9231   */\n      dup4\n        /* \"#utility.yul\":9224:9238   */\n      add\n        /* \"#utility.yul\":9318:9322   */\n      0x00\n        /* \"#utility.yul\":9311:9316   */\n      dup4\n        /* \"#utility.yul\":9307:9323   */\n      add\n        /* \"#utility.yul\":9301:9324   */\n      mload\n        /* \"#utility.yul\":9337:9400   */\n      tag_268\n        /* \"#utility.yul\":9394:9398   */\n      0x00\n        /* \"#utility.yul\":9389:9392   */\n      dup7\n        /* \"#utility.yul\":9385:9399   */\n      add\n        /* \"#utility.yul\":9371:9383   */\n      dup3\n        /* \"#utility.yul\":9337:9400   */\n      tag_138\n      jump\t// in\n    tag_268:\n        /* \"#utility.yul\":9248:9410   */\n      pop\n        /* \"#utility.yul\":9497:9501   */\n      0x20\n        /* \"#utility.yul\":9490:9495   */\n      dup4\n        /* \"#utility.yul\":9486:9502   */\n      add\n        /* \"#utility.yul\":9480:9503   */\n      mload\n        /* \"#utility.yul\":9550:9553   */\n      dup5\n        /* \"#utility.yul\":9544:9548   */\n      dup3\n        /* \"#utility.yul\":9540:9554   */\n      sub\n        /* \"#utility.yul\":9533:9537   */\n      0x20\n        /* \"#utility.yul\":9528:9531   */\n      dup7\n        /* \"#utility.yul\":9524:9538   */\n      add\n        /* \"#utility.yul\":9517:9555   */\n      mstore\n        /* \"#utility.yul\":9576:9649   */\n      tag_269\n        /* \"#utility.yul\":9644:9648   */\n      dup3\n        /* \"#utility.yul\":9630:9642   */\n      dup3\n        /* \"#utility.yul\":9576:9649   */\n      tag_140\n      jump\t// in\n    tag_269:\n        /* \"#utility.yul\":9568:9649   */\n      swap2\n      pop\n        /* \"#utility.yul\":9420:9660   */\n      pop\n        /* \"#utility.yul\":9746:9750   */\n      0x40\n        /* \"#utility.yul\":9739:9744   */\n      dup4\n        /* \"#utility.yul\":9735:9751   */\n      add\n        /* \"#utility.yul\":9729:9752   */\n      mload\n        /* \"#utility.yul\":9799:9802   */\n      dup5\n        /* \"#utility.yul\":9793:9797   */\n      dup3\n        /* \"#utility.yul\":9789:9803   */\n      sub\n        /* \"#utility.yul\":9782:9786   */\n      0x40\n        /* \"#utility.yul\":9777:9780   */\n      dup7\n        /* \"#utility.yul\":9773:9787   */\n      add\n        /* \"#utility.yul\":9766:9804   */\n      mstore\n        /* \"#utility.yul\":9825:9898   */\n      tag_270\n        /* \"#utility.yul\":9893:9897   */\n      dup3\n        /* \"#utility.yul\":9879:9891   */\n      dup3\n        /* \"#utility.yul\":9825:9898   */\n      tag_140\n      jump\t// in\n    tag_270:\n        /* \"#utility.yul\":9817:9898   */\n      swap2\n      pop\n        /* \"#utility.yul\":9670:9909   */\n      pop\n        /* \"#utility.yul\":9999:10003   */\n      0x60\n        /* \"#utility.yul\":9992:9997   */\n      dup4\n        /* \"#utility.yul\":9988:10004   */\n      add\n        /* \"#utility.yul\":9982:10005   */\n      mload\n        /* \"#utility.yul\":10052:10055   */\n      dup5\n        /* \"#utility.yul\":10046:10050   */\n      dup3\n        /* \"#utility.yul\":10042:10056   */\n      sub\n        /* \"#utility.yul\":10035:10039   */\n      0x60\n        /* \"#utility.yul\":10030:10033   */\n      dup7\n        /* \"#utility.yul\":10026:10040   */\n      add\n        /* \"#utility.yul\":10019:10057   */\n      mstore\n        /* \"#utility.yul\":10078:10181   */\n      tag_271\n        /* \"#utility.yul\":10176:10180   */\n      dup3\n        /* \"#utility.yul\":10162:10174   */\n      dup3\n        /* \"#utility.yul\":10078:10181   */\n      tag_146\n      jump\t// in\n    tag_271:\n        /* \"#utility.yul\":10070:10181   */\n      swap2\n      pop\n        /* \"#utility.yul\":9919:10192   */\n      pop\n        /* \"#utility.yul\":10209:10213   */\n      dup1\n        /* \"#utility.yul\":10202:10213   */\n      swap2\n      pop\n        /* \"#utility.yul\":9202:10219   */\n      pop\n        /* \"#utility.yul\":9092:10219   */\n      swap3\n      swap2\n      pop\n      pop\n      jump\t// out\n        /* \"#utility.yul\":10225:10473   */\n    tag_148:\n        /* \"#utility.yul\":10340:10350   */\n      0x00\n        /* \"#utility.yul\":10375:10467   */\n      tag_273\n        /* \"#utility.yul\":10463:10466   */\n      dup4\n        /* \"#utility.yul\":10455:10461   */\n      dup4\n        /* \"#utility.yul\":10375:10467   */\n      tag_147\n      jump\t// in\n    tag_273:\n        /* \"#utility.yul\":10361:10467   */\n      swap1\n      pop\n        /* \"#utility.yul\":10225:10473   */\n      swap3\n      swap2\n      pop\n      pop\n      jump\t// out\n        /* \"#utility.yul\":10479:10615   */\n    tag_149:\n        /* \"#utility.yul\":10572:10576   */\n      0x00\n        /* \"#utility.yul\":10604:10608   */\n      0x20\n        /* \"#utility.yul\":10599:10602   */\n      dup3\n        /* \"#utility.yul\":10595:10609   */\n      add\n        /* \"#utility.yul\":10587:10609   */\n      swap1\n      pop\n        /* \"#utility.yul\":10479:10615   */\n      swap2\n      swap1\n      pop\n      jump\t// out\n        /* \"#utility.yul\":10689:11784   */\n    tag_150:\n        /* \"#utility.yul\":10854:10857   */\n      0x00\n        /* \"#utility.yul\":10883:10960   */\n      tag_276\n        /* \"#utility.yul\":10954:10959   */\n      dup3\n        /* \"#utility.yul\":10883:10960   */\n      tag_135\n      jump\t// in\n    tag_276:\n        /* \"#utility.yul\":10976:11085   */\n      tag_277\n        /* \"#utility.yul\":11078:11084   */\n      dup2\n        /* \"#utility.yul\":11073:11076   */\n      dup6\n        /* \"#utility.yul\":10976:11085   */\n      tag_136\n      jump\t// in\n    tag_277:\n        /* \"#utility.yul\":10969:11085   */\n      swap4\n      pop\n        /* \"#utility.yul\":11111:11114   */\n      dup4\n        /* \"#utility.yul\":11156:11160   */\n      0x20\n        /* \"#utility.yul\":11148:11154   */\n      dup3\n        /* \"#utility.yul\":11144:11161   */\n      mul\n        /* \"#utility.yul\":11139:11142   */\n      dup6\n        /* \"#utility.yul\":11135:11162   */\n      add\n        /* \"#utility.yul\":11186:11265   */\n      tag_278\n        /* \"#utility.yul\":11259:11264   */\n      dup6\n        /* \"#utility.yul\":11186:11265   */\n      tag_137\n      jump\t// in\n    tag_278:\n        /* \"#utility.yul\":11288:11295   */\n      dup1\n        /* \"#utility.yul\":11319:11320   */\n      0x00\n        /* \"#utility.yul\":11304:11739   */\n    tag_279:\n        /* \"#utility.yul\":11329:11335   */\n      dup6\n        /* \"#utility.yul\":11326:11327   */\n      dup2\n        /* \"#utility.yul\":11323:11336   */\n      lt\n        /* \"#utility.yul\":11304:11739   */\n      iszero\n      tag_281\n      jumpi\n        /* \"#utility.yul\":11400:11409   */\n      dup5\n        /* \"#utility.yul\":11394:11398   */\n      dup5\n        /* \"#utility.yul\":11390:11410   */\n      sub\n        /* \"#utility.yul\":11385:11388   */\n      dup10\n        /* \"#utility.yul\":11378:11411   */\n      mstore\n        /* \"#utility.yul\":11451:11457   */\n      dup2\n        /* \"#utility.yul\":11445:11458   */\n      mload\n        /* \"#utility.yul\":11479:11589   */\n      tag_282\n        /* \"#utility.yul\":11584:11588   */\n      dup6\n        /* \"#utility.yul\":11569:11582   */\n      dup3\n        /* \"#utility.yul\":11479:11589   */\n      tag_148\n      jump\t// in\n    tag_282:\n        /* \"#utility.yul\":11471:11589   */\n      swap5\n      pop\n        /* \"#utility.yul\":11612:11695   */\n      tag_283\n        /* \"#utility.yul\":11688:11694   */\n      dup4\n        /* \"#utility.yul\":11612:11695   */\n      tag_149\n      jump\t// in\n    tag_283:\n        /* \"#utility.yul\":11602:11695   */\n      swap3\n      pop\n        /* \"#utility.yul\":11724:11728   */\n      0x20\n        /* \"#utility.yul\":11719:11722   */\n      dup11\n        /* \"#utility.yul\":11715:11729   */\n      add\n        /* \"#utility.yul\":11708:11729   */\n      swap10\n      pop\n        /* \"#utility.yul\":11364:11739   */\n      pop\n        /* \"#utility.yul\":11351:11352   */\n      0x01\n        /* \"#utility.yul\":11348:11349   */\n      dup2\n        /* \"#utility.yul\":11344:11353   */\n      add\n        /* \"#utility.yul\":11339:11353   */\n      swap1\n      pop\n        /* \"#utility.yul\":11304:11739   */\n      jump(tag_279)\n    tag_281:\n        /* \"#utility.yul\":11308:11322   */\n      pop\n        /* \"#utility.yul\":11755:11759   */\n      dup3\n        /* \"#utility.yul\":11748:11759   */\n      swap8\n      pop\n        /* \"#utility.yul\":11775:11778   */\n      dup8\n        /* \"#utility.yul\":11768:11778   */\n      swap6\n      pop\n        /* \"#utility.yul\":10859:11784   */\n      pop\n      pop\n      pop\n      pop\n      pop\n        /* \"#utility.yul\":10689:11784   */\n      swap3\n      swap2\n      pop\n      pop\n      jump\t// out\n        /* \"#utility.yul\":11790:12255   */\n    tag_28:\n        /* \"#utility.yul\":11979:11983   */\n      0x00\n        /* \"#utility.yul\":12017:12019   */\n      0x20\n        /* \"#utility.yul\":12006:12015   */\n      dup3\n        /* \"#utility.yul\":12002:12020   */\n      add\n        /* \"#utility.yul\":11994:12020   */\n      swap1\n      pop\n        /* \"#utility.yul\":12066:12075   */\n      dup2\n        /* \"#utility.yul\":12060:12064   */\n      dup2\n        /* \"#utility.yul\":12056:12076   */\n      sub\n        /* \"#utility.yul\":12052:12053   */\n      0x00\n        /* \"#utility.yul\":12041:12050   */\n      dup4\n        /* \"#utility.yul\":12037:12054   */\n      add\n        /* \"#utility.yul\":12030:12077   */\n      mstore\n        /* \"#utility.yul\":12094:12248   */\n      tag_285\n        /* \"#utility.yul\":12243:12247   */\n      dup2\n        /* \"#utility.yul\":12234:12240   */\n      dup5\n        /* \"#utility.yul\":12094:12248   */\n      tag_150\n      jump\t// in\n    tag_285:\n        /* \"#utility.yul\":12086:12248   */\n      swap1\n      pop\n        /* \"#utility.yul\":11790:12255   */\n      swap3\n      swap2\n      pop\n      pop\n      jump\t// out\n        /* \"#utility.yul\":12261:12485   */\n    tag_151:\n        /* \"#utility.yul\":12401:12435   */\n      0x4f6e6c7920746865206f776e65722063616e2063616c6c20746869732066756e\n        /* \"#utility.yul\":12397:12398   */\n      0x00\n        /* \"#utility.yul\":12389:12395   */\n      dup3\n        /* \"#utility.yul\":12385:12399   */\n      add\n        /* \"#utility.yul\":12378:12436   */\n      mstore\n        /* \"#utility.yul\":12470:12477   */\n      0x6374696f6e000000000000000000000000000000000000000000000000000000\n        /* \"#utility.yul\":12465:12467   */\n      0x20\n        /* \"#utility.yul\":12457:12463   */\n      dup3\n        /* \"#utility.yul\":12453:12468   */\n      add\n        /* \"#utility.yul\":12446:12478   */\n      mstore\n        /* \"#utility.yul\":12261:12485   */\n      pop\n      jump\t// out\n        /* \"#utility.yul\":12491:12857   */\n    tag_152:\n        /* \"#utility.yul\":12633:12636   */\n      0x00\n        /* \"#utility.yul\":12654:12721   */\n      tag_288\n        /* \"#utility.yul\":12718:12720   */\n      0x25\n        /* \"#utility.yul\":12713:12716   */\n      dup4\n        /* \"#utility.yul\":12654:12721   */\n      tag_123\n      jump\t// in\n    tag_288:\n        /* \"#utility.yul\":12647:12721   */\n      swap2\n      pop\n        /* \"#utility.yul\":12730:12823   */\n      tag_289\n        /* \"#utility.yul\":12819:12822   */\n      dup3\n        /* \"#utility.yul\":12730:12823   */\n      tag_151\n      jump\t// in\n    tag_289:\n        /* \"#utility.yul\":12848:12850   */\n      0x40\n        /* \"#utility.yul\":12843:12846   */\n      dup3\n        /* \"#utility.yul\":12839:12851   */\n      add\n        /* \"#utility.yul\":12832:12851   */\n      swap1\n      pop\n        /* \"#utility.yul\":12491:12857   */\n      swap2\n      swap1\n      pop\n      jump\t// out\n        /* \"#utility.yul\":12863:13282   */\n    tag_32:\n        /* \"#utility.yul\":13029:13033   */\n      0x00\n        /* \"#utility.yul\":13067:13069   */\n      0x20\n        /* \"#utility.yul\":13056:13065   */\n      dup3\n        /* \"#utility.yul\":13052:13070   */\n      add\n        /* \"#utility.yul\":13044:13070   */\n      swap1\n      pop\n        /* \"#utility.yul\":13116:13125   */\n      dup2\n        /* \"#utility.yul\":13110:13114   */\n      dup2\n        /* \"#utility.yul\":13106:13126   */\n      sub\n        /* \"#utility.yul\":13102:13103   */\n      0x00\n        /* \"#utility.yul\":13091:13100   */\n      dup4\n        /* \"#utility.yul\":13087:13104   */\n      add\n        /* \"#utility.yul\":13080:13127   */\n      mstore\n        /* \"#utility.yul\":13144:13275   */\n      tag_291\n        /* \"#utility.yul\":13270:13274   */\n      dup2\n        /* \"#utility.yul\":13144:13275   */\n      tag_152\n      jump\t// in\n    tag_291:\n        /* \"#utility.yul\":13136:13275   */\n      swap1\n      pop\n        /* \"#utility.yul\":12863:13282   */\n      swap2\n      swap1\n      pop\n      jump\t// out\n        /* \"#utility.yul\":13288:13510   */\n    tag_36:\n        /* \"#utility.yul\":13381:13385   */\n      0x00\n        /* \"#utility.yul\":13419:13421   */\n      0x20\n        /* \"#utility.yul\":13408:13417   */\n      dup3\n        /* \"#utility.yul\":13404:13422   */\n      add\n        /* \"#utility.yul\":13396:13422   */\n      swap1\n      pop\n        /* \"#utility.yul\":13432:13503   */\n      tag_293\n        /* \"#utility.yul\":13500:13501   */\n      0x00\n        /* \"#utility.yul\":13489:13498   */\n      dup4\n        /* \"#utility.yul\":13485:13502   */\n      add\n        /* \"#utility.yul\":13476:13482   */\n      dup5\n        /* \"#utility.yul\":13432:13503   */\n      tag_121\n      jump\t// in\n    tag_293:\n        /* \"#utility.yul\":13288:13510   */\n      swap3\n      swap2\n      pop\n      pop\n      jump\t// out\n        /* \"#utility.yul\":13516:13696   */\n    tag_153:\n        /* \"#utility.yul\":13564:13641   */\n      0x4e487b7100000000000000000000000000000000000000000000000000000000\n        /* \"#utility.yul\":13561:13562   */\n      0x00\n        /* \"#utility.yul\":13554:13642   */\n      mstore\n        /* \"#utility.yul\":13661:13665   */\n      0x11\n        /* \"#utility.yul\":13658:13659   */\n      0x04\n        /* \"#utility.yul\":13651:13666   */\n      mstore\n        /* \"#utility.yul\":13685:13689   */\n      0x24\n        /* \"#utility.yul\":13682:13683   */\n      0x00\n        /* \"#utility.yul\":13675:13690   */\n      revert\n        /* \"#utility.yul\":13702:13873   */\n    tag_44:\n        /* \"#utility.yul\":13741:13744   */\n      0x00\n        /* \"#utility.yul\":13764:13788   */\n      tag_296\n        /* \"#utility.yul\":13782:13787   */\n      dup3\n        /* \"#utility.yul\":13764:13788   */\n      tag_118\n      jump\t// in\n    tag_296:\n        /* \"#utility.yul\":13755:13788   */\n      swap2\n      pop\n        /* \"#utility.yul\":13810:13814   */\n      0x00\n        /* \"#utility.yul\":13803:13808   */\n      dup3\n        /* \"#utility.yul\":13800:13815   */\n      sub\n        /* \"#utility.yul\":13797:13838   */\n      tag_297\n      jumpi\n        /* \"#utility.yul\":13818:13836   */\n      tag_298\n      tag_153\n      jump\t// in\n    tag_298:\n        /* \"#utility.yul\":13797:13838   */\n    tag_297:\n        /* \"#utility.yul\":13865:13866   */\n      0x01\n        /* \"#utility.yul\":13858:13863   */\n      dup3\n        /* \"#utility.yul\":13854:13867   */\n      sub\n        /* \"#utility.yul\":13847:13867   */\n      swap1\n      pop\n        /* \"#utility.yul\":13702:13873   */\n      swap2\n      swap1\n      pop\n      jump\t// out\n        /* \"#utility.yul\":13879:14059   */\n    tag_154:\n        /* \"#utility.yul\":13927:14004   */\n      0x4e487b7100000000000000000000000000000000000000000000000000000000\n        /* \"#utility.yul\":13924:13925   */\n      0x00\n        /* \"#utility.yul\":13917:14005   */\n      mstore\n        /* \"#utility.yul\":14024:14028   */\n      0x22\n        /* \"#utility.yul\":14021:14022   */\n      0x04\n        /* \"#utility.yul\":14014:14029   */\n      mstore\n        /* \"#utility.yul\":14048:14052   */\n      0x24\n        /* \"#utility.yul\":14045:14046   */\n      0x00\n        /* \"#utility.yul\":14038:14053   */\n      revert\n        /* \"#utility.yul\":14065:14385   */\n    tag_46:\n        /* \"#utility.yul\":14109:14115   */\n      0x00\n        /* \"#utility.yul\":14146:14147   */\n      0x02\n        /* \"#utility.yul\":14140:14144   */\n      dup3\n        /* \"#utility.yul\":14136:14148   */\n      div\n        /* \"#utility.yul\":14126:14148   */\n      swap1\n      pop\n        /* \"#utility.yul\":14193:14194   */\n      0x01\n        /* \"#utility.yul\":14187:14191   */\n      dup3\n        /* \"#utility.yul\":14183:14195   */\n      and\n        /* \"#utility.yul\":14214:14232   */\n      dup1\n        /* \"#utility.yul\":14204:14285   */\n      tag_301\n      jumpi\n        /* \"#utility.yul\":14270:14274   */\n      0x7f\n        /* \"#utility.yul\":14262:14268   */\n      dup3\n        /* \"#utility.yul\":14258:14275   */\n      and\n        /* \"#utility.yul\":14248:14275   */\n      swap2\n      pop\n        /* \"#utility.yul\":14204:14285   */\n    tag_301:\n        /* \"#utility.yul\":14332:14334   */\n      0x20\n        /* \"#utility.yul\":14324:14330   */\n      dup3\n        /* \"#utility.yul\":14321:14335   */\n      lt\n        /* \"#utility.yul\":14301:14319   */\n      dup2\n        /* \"#utility.yul\":14298:14336   */\n      sub\n        /* \"#utility.yul\":14295:14379   */\n      tag_302\n      jumpi\n        /* \"#utility.yul\":14351:14369   */\n      tag_303\n      tag_154\n      jump\t// in\n    tag_303:\n        /* \"#utility.yul\":14295:14379   */\n    tag_302:\n        /* \"#utility.yul\":14116:14385   */\n      pop\n        /* \"#utility.yul\":14065:14385   */\n      swap2\n      swap1\n      pop\n      jump\t// out\n        /* \"#utility.yul\":14391:14532   */\n    tag_155:\n        /* \"#utility.yul\":14440:14444   */\n      0x00\n        /* \"#utility.yul\":14463:14466   */\n      dup2\n        /* \"#utility.yul\":14455:14466   */\n      swap1\n      pop\n        /* \"#utility.yul\":14486:14489   */\n      dup2\n        /* \"#utility.yul\":14483:14484   */\n      0x00\n        /* \"#utility.yul\":14476:14490   */\n      mstore\n        /* \"#utility.yul\":14520:14524   */\n      0x20\n        /* \"#utility.yul\":14517:14518   */\n      0x00\n        /* \"#utility.yul\":14507:14525   */\n      keccak256\n        /* \"#utility.yul\":14499:14525   */\n      swap1\n      pop\n        /* \"#utility.yul\":14391:14532   */\n      swap2\n      swap1\n      pop\n      jump\t// out\n        /* \"#utility.yul\":14538:14631   */\n    tag_156:\n        /* \"#utility.yul\":14575:14581   */\n      0x00\n        /* \"#utility.yul\":14622:14624   */\n      0x20\n        /* \"#utility.yul\":14617:14619   */\n      0x1f\n        /* \"#utility.yul\":14610:14615   */\n      dup4\n        /* \"#utility.yul\":14606:14620   */\n      add\n        /* \"#utility.yul\":14602:14625   */\n      div\n        /* \"#utility.yul\":14592:14625   */\n      swap1\n      pop\n        /* \"#utility.yul\":14538:14631   */\n      swap2\n      swap1\n      pop\n      jump\t// out\n        /* \"#utility.yul\":14637:14744   */\n    tag_157:\n        /* \"#utility.yul\":14681:14689   */\n      0x00\n        /* \"#utility.yul\":14731:14736   */\n      dup3\n        /* \"#utility.yul\":14725:14729   */\n      dup3\n        /* \"#utility.yul\":14721:14737   */\n      shl\n        /* \"#utility.yul\":14700:14737   */\n      swap1\n      pop\n        /* \"#utility.yul\":14637:14744   */\n      swap3\n      swap2\n      pop\n      pop\n      jump\t// out\n        /* \"#utility.yul\":14750:15143   */\n    tag_158:\n        /* \"#utility.yul\":14819:14825   */\n      0x00\n        /* \"#utility.yul\":14869:14870   */\n      0x08\n        /* \"#utility.yul\":14857:14867   */\n      dup4\n        /* \"#utility.yul\":14853:14871   */\n      mul\n        /* \"#utility.yul\":14892:14989   */\n      tag_308\n        /* \"#utility.yul\":14922:14988   */\n      0xffffffffffffffffffffffffffffffffffffffffffffffffffffffffffffffff\n        /* \"#utility.yul\":14911:14920   */\n      dup3\n        /* \"#utility.yul\":14892:14989   */\n      tag_157\n      jump\t// in\n    tag_308:\n        /* \"#utility.yul\":15010:15049   */\n      tag_309\n        /* \"#utility.yul\":15040:15048   */\n      dup7\n        /* \"#utility.yul\":15029:15038   */\n      dup4\n        /* \"#utility.yul\":15010:15049   */\n      tag_157\n      jump\t// in\n    tag_309:\n        /* \"#utility.yul\":14998:15049   */\n      swap6\n      pop\n        /* \"#utility.yul\":15082:15086   */\n      dup1\n        /* \"#utility.yul\":15078:15087   */\n      not\n        /* \"#utility.yul\":15071:15076   */\n      dup5\n        /* \"#utility.yul\":15067:15088   */\n      and\n        /* \"#utility.yul\":15058:15088   */\n      swap4\n      pop\n        /* \"#utility.yul\":15131:15135   */\n      dup1\n        /* \"#utility.yul\":15121:15129   */\n      dup7\n        /* \"#utility.yul\":15117:15136   */\n      and\n        /* \"#utility.yul\":15110:15115   */\n      dup5\n        /* \"#utility.yul\":15107:15137   */\n      or\n        /* \"#utility.yul\":15097:15137   */\n      swap3\n      pop\n        /* \"#utility.yul\":14826:15143   */\n      pop\n      pop\n        /* \"#utility.yul\":14750:15143   */\n      swap4\n      swap3\n      pop\n      pop\n      pop\n      jump\t// out\n        /* \"#utility.yul\":15149:15209   */\n    tag_159:\n        /* \"#utility.yul\":15177:15180   */\n      0x00\n        /* \"#utility.yul\":15198:15203   */\n      dup2\n        /* \"#utility.yul\":15191:15203   */\n      swap1\n      pop\n        /* \"#utility.yul\":15149:15209   */\n      swap2\n      swap1\n      pop\n      jump\t// out\n        /* \"#utility.yul\":15215:15357   */\n    tag_160:\n        /* \"#utility.yul\":15265:15274   */\n      0x00\n        /* \"#utility.yul\":15298:15351   */\n      tag_312\n        /* \"#utility.yul\":15316:15350   */\n      tag_313\n        /* \"#utility.yul\":15325:15349   */\n      tag_314\n        /* \"#utility.yul\":15343:15348   */\n      dup5\n        /* \"#utility.yul\":15325:15349   */\n      tag_118\n      jump\t// in\n    tag_314:\n        /* \"#utility.yul\":15316:15350   */\n      tag_159\n      jump\t// in\n    tag_313:\n        /* \"#utility.yul\":15298:15351   */\n      tag_118\n      jump\t// in\n    tag_312:\n        /* \"#utility.yul\":15285:15351   */\n      swap1\n      pop\n        /* \"#utility.yul\":15215:15357   */\n      swap2\n      swap1\n      pop\n      jump\t// out\n        /* \"#utility.yul\":15363:15438   */\n    tag_161:\n        /* \"#utility.yul\":15406:15409   */\n      0x00\n        /* \"#utility.yul\":15427:15432   */\n      dup2\n        /* \"#utility.yul\":15420:15432   */\n      swap1\n      pop\n        /* \"#utility.yul\":15363:15438   */\n      swap2\n      swap1\n      pop\n      jump\t// out\n        /* \"#utility.yul\":15444:15713   */\n    tag_162:\n        /* \"#utility.yul\":15554:15593   */\n      tag_317\n        /* \"#utility.yul\":15585:15592   */\n      dup4\n        /* \"#utility.yul\":15554:15593   */\n      tag_160\n      jump\t// in\n    tag_317:\n        /* \"#utility.yul\":15615:15706   */\n      tag_318\n        /* \"#utility.yul\":15664:15705   */\n      tag_319\n        /* \"#utility.yul\":15688:15704   */\n      dup3\n        /* \"#utility.yul\":15664:15705   */\n      tag_161\n      jump\t// in\n    tag_319:\n        /* \"#utility.yul\":15656:15662   */\n      dup5\n        /* \"#utility.yul\":15649:15653   */\n      dup5\n        /* \"#utility.yul\":15643:15654   */\n      sload\n        /* \"#utility.yul\":15615:15706   */\n      tag_158\n      jump\t// in\n    tag_318:\n        /* \"#utility.yul\":15609:15613   */\n      dup3\n        /* \"#utility.yul\":15602:15707   */\n      sstore\n        /* \"#utility.yul\":15520:15713   */\n      pop\n        /* \"#utility.yul\":15444:15713   */\n      pop\n      pop\n      pop\n      jump\t// out\n        /* \"#utility.yul\":15719:15792   */\n    tag_163:\n        /* \"#utility.yul\":15764:15767   */\n      0x00\n        /* \"#utility.yul\":15719:15792   */\n      swap1\n      jump\t// out\n        /* \"#utility.yul\":15798:15987   */\n    tag_164:\n        /* \"#utility.yul\":15875:15907   */\n      tag_322\n      tag_163\n      jump\t// in\n    tag_322:\n        /* \"#utility.yul\":15916:15981   */\n      tag_323\n        /* \"#utility.yul\":15974:15980   */\n      dup2\n        /* \"#utility.yul\":15966:15972   */\n      dup5\n        /* \"#utility.yul\":15960:15964   */\n      dup5\n        /* \"#utility.yul\":15916:15981   */\n      tag_162\n      jump\t// in\n    tag_323:\n        /* \"#utility.yul\":15851:15987   */\n      pop\n        /* \"#utility.yul\":15798:15987   */\n      pop\n      pop\n      jump\t// out\n        /* \"#utility.yul\":15993:16179   */\n    tag_165:\n        /* \"#utility.yul\":16053:16173   */\n    tag_325:\n        /* \"#utility.yul\":16070:16073   */\n      dup2\n        /* \"#utility.yul\":16063:16068   */\n      dup2\n        /* \"#utility.yul\":16060:16074   */\n      lt\n        /* \"#utility.yul\":16053:16173   */\n      iszero\n      tag_327\n      jumpi\n        /* \"#utility.yul\":16124:16163   */\n      tag_328\n        /* \"#utility.yul\":16161:16162   */\n      0x00\n        /* \"#utility.yul\":16154:16159   */\n      dup3\n        /* \"#utility.yul\":16124:16163   */\n      tag_164\n      jump\t// in\n    tag_328:\n        /* \"#utility.yul\":16097:16098   */\n      0x01\n        /* \"#utility.yul\":16090:16095   */\n      dup2\n        /* \"#utility.yul\":16086:16099   */\n      add\n        /* \"#utility.yul\":16077:16099   */\n      swap1\n      pop\n        /* \"#utility.yul\":16053:16173   */\n      jump(tag_325)\n    tag_327:\n        /* \"#utility.yul\":15993:16179   */\n      pop\n      pop\n      jump\t// out\n        /* \"#utility.yul\":16185:16728   */\n    tag_166:\n        /* \"#utility.yul\":16286:16288   */\n      0x1f\n        /* \"#utility.yul\":16281:16284   */\n      dup3\n        /* \"#utility.yul\":16278:16289   */\n      gt\n        /* \"#utility.yul\":16275:16721   */\n      iszero\n      tag_330\n      jumpi\n        /* \"#utility.yul\":16320:16358   */\n      tag_331\n        /* \"#utility.yul\":16352:16357   */\n      dup2\n        /* \"#utility.yul\":16320:16358   */\n      tag_155\n      jump\t// in\n    tag_331:\n        /* \"#utility.yul\":16404:16433   */\n      tag_332\n        /* \"#utility.yul\":16422:16432   */\n      dup5\n        /* \"#utility.yul\":16404:16433   */\n      tag_156\n      jump\t// in\n    tag_332:\n        /* \"#utility.yul\":16394:16402   */\n      dup2\n        /* \"#utility.yul\":16390:16434   */\n      add\n        /* \"#utility.yul\":16587:16589   */\n      0x20\n        /* \"#utility.yul\":16575:16585   */\n      dup6\n        /* \"#utility.yul\":16572:16590   */\n      lt\n        /* \"#utility.yul\":16569:16618   */\n      iszero\n      tag_333\n      jumpi\n        /* \"#utility.yul\":16608:16616   */\n      dup2\n        /* \"#utility.yul\":16593:16616   */\n      swap1\n      pop\n        /* \"#utility.yul\":16569:16618   */\n    tag_333:\n        /* \"#utility.yul\":16631:16711   */\n      tag_334\n        /* \"#utility.yul\":16687:16709   */\n      tag_335\n        /* \"#utility.yul\":16705:16708   */\n      dup6\n        /* \"#utility.yul\":16687:16709   */\n      tag_156\n      jump\t// in\n    tag_335:\n        /* \"#utility.yul\":16677:16685   */\n      dup4\n        /* \"#utility.yul\":16673:16710   */\n      add\n        /* \"#utility.yul\":16660:16671   */\n      dup3\n        /* \"#utility.yul\":16631:16711   */\n      tag_165\n      jump\t// in\n    tag_334:\n        /* \"#utility.yul\":16290:16721   */\n      pop\n      pop\n        /* \"#utility.yul\":16275:16721   */\n    tag_330:\n        /* \"#utility.yul\":16185:16728   */\n      pop\n      pop\n      pop\n      jump\t// out\n        /* \"#utility.yul\":16734:16851   */\n    tag_167:\n        /* \"#utility.yul\":16788:16796   */\n      0x00\n        /* \"#utility.yul\":16838:16843   */\n      dup3\n        /* \"#utility.yul\":16832:16836   */\n      dup3\n        /* \"#utility.yul\":16828:16844   */\n      shr\n        /* \"#utility.yul\":16807:16844   */\n      swap1\n      pop\n        /* \"#utility.yul\":16734:16851   */\n      swap3\n      swap2\n      pop\n      pop\n      jump\t// out\n        /* \"#utility.yul\":16857:17026   */\n    tag_168:\n        /* \"#utility.yul\":16901:16907   */\n      0x00\n        /* \"#utility.yul\":16934:16985   */\n      tag_338\n        /* \"#utility.yul\":16982:16983   */\n      0x00\n        /* \"#utility.yul\":16978:16984   */\n      not\n        /* \"#utility.yul\":16970:16975   */\n      dup5\n        /* \"#utility.yul\":16967:16968   */\n      0x08\n        /* \"#utility.yul\":16963:16976   */\n      mul\n        /* \"#utility.yul\":16934:16985   */\n      tag_167\n      jump\t// in\n    tag_338:\n        /* \"#utility.yul\":16930:16986   */\n      not\n        /* \"#utility.yul\":17015:17019   */\n      dup1\n        /* \"#utility.yul\":17009:17013   */\n      dup4\n        /* \"#utility.yul\":17005:17020   */\n      and\n        /* \"#utility.yul\":16995:17020   */\n      swap2\n      pop\n        /* \"#utility.yul\":16908:17026   */\n      pop\n        /* \"#utility.yul\":16857:17026   */\n      swap3\n      swap2\n      pop\n      pop\n      jump\t// out\n        /* \"#utility.yul\":17031:17326   */\n    tag_169:\n        /* \"#utility.yul\":17107:17111   */\n      0x00\n        /* \"#utility.yul\":17253:17282   */\n      tag_340\n        /* \"#utility.yul\":17278:17281   */\n      dup4\n        /* \"#utility.yul\":17272:17276   */\n      dup4\n        /* \"#utility.yul\":17253:17282   */\n      tag_168\n      jump\t// in\n    tag_340:\n        /* \"#utility.yul\":17245:17282   */\n      swap2\n      pop\n        /* \"#utility.yul\":17315:17318   */\n      dup3\n        /* \"#utility.yul\":17312:17313   */\n      0x02\n        /* \"#utility.yul\":17308:17319   */\n      mul\n        /* \"#utility.yul\":17302:17306   */\n      dup3\n        /* \"#utility.yul\":17299:17320   */\n      or\n        /* \"#utility.yul\":17291:17320   */\n      swap1\n      pop\n        /* \"#utility.yul\":17031:17326   */\n      swap3\n      swap2\n      pop\n      pop\n      jump\t// out\n        /* \"#utility.yul\":17331:18726   */\n    tag_65:\n        /* \"#utility.yul\":17448:17485   */\n      tag_342\n        /* \"#utility.yul\":17481:17484   */\n      dup3\n        /* \"#utility.yul\":17448:17485   */\n      tag_122\n      jump\t// in\n    tag_342:\n        /* \"#utility.yul\":17550:17568   */\n      0xffffffffffffffff\n        /* \"#utility.yul\":17542:17548   */\n      dup2\n        /* \"#utility.yul\":17539:17569   */\n      gt\n        /* \"#utility.yul\":17536:17592   */\n      iszero\n      tag_343\n      jumpi\n        /* \"#utility.yul\":17572:17590   */\n      tag_344\n      tag_62\n      jump\t// in\n    tag_344:\n        /* \"#utility.yul\":17536:17592   */\n    tag_343:\n        /* \"#utility.yul\":17616:17654   */\n      tag_345\n        /* \"#utility.yul\":17648:17652   */\n      dup3\n        /* \"#utility.yul\":17642:17653   */\n      sload\n        /* \"#utility.yul\":17616:17654   */\n      tag_46\n      jump\t// in\n    tag_345:\n        /* \"#utility.yul\":17701:17768   */\n      tag_346\n        /* \"#utility.yul\":17761:17767   */\n      dup3\n        /* \"#utility.yul\":17753:17759   */\n      dup3\n        /* \"#utility.yul\":17747:17751   */\n      dup6\n        /* \"#utility.yul\":17701:17768   */\n      tag_166\n      jump\t// in\n    tag_346:\n        /* \"#utility.yul\":17795:17796   */\n      0x00\n        /* \"#utility.yul\":17819:17823   */\n      0x20\n        /* \"#utility.yul\":17806:17823   */\n      swap1\n      pop\n        /* \"#utility.yul\":17851:17853   */\n      0x1f\n        /* \"#utility.yul\":17843:17849   */\n      dup4\n        /* \"#utility.yul\":17840:17854   */\n      gt\n        /* \"#utility.yul\":17868:17869   */\n      0x01\n        /* \"#utility.yul\":17863:18481   */\n      dup2\n      eq\n      tag_348\n      jumpi\n        /* \"#utility.yul\":18525:18526   */\n      0x00\n        /* \"#utility.yul\":18542:18548   */\n      dup5\n        /* \"#utility.yul\":18539:18616   */\n      iszero\n      tag_349\n      jumpi\n        /* \"#utility.yul\":18591:18600   */\n      dup3\n        /* \"#utility.yul\":18586:18589   */\n      dup8\n        /* \"#utility.yul\":18582:18601   */\n      add\n        /* \"#utility.yul\":18576:18602   */\n      mload\n        /* \"#utility.yul\":18567:18602   */\n      swap1\n      pop\n        /* \"#utility.yul\":18539:18616   */\n    tag_349:\n        /* \"#utility.yul\":18642:18709   */\n      tag_350\n        /* \"#utility.yul\":18702:18708   */\n      dup6\n        /* \"#utility.yul\":18695:18700   */\n      dup3\n        /* \"#utility.yul\":18642:18709   */\n      tag_169\n      jump\t// in\n    tag_350:\n        /* \"#utility.yul\":18636:18640   */\n      dup7\n        /* \"#utility.yul\":18629:18710   */\n      sstore\n        /* \"#utility.yul\":18498:18720   */\n      pop\n        /* \"#utility.yul\":17833:18720   */\n      jump(tag_347)\n        /* \"#utility.yul\":17863:18481   */\n    tag_348:\n        /* \"#utility.yul\":17915:17919   */\n      0x1f\n        /* \"#utility.yul\":17911:17920   */\n      not\n        /* \"#utility.yul\":17903:17909   */\n      dup5\n        /* \"#utility.yul\":17899:17921   */\n      and\n        /* \"#utility.yul\":17949:17986   */\n      tag_351\n        /* \"#utility.yul\":17981:17985   */\n      dup7\n        /* \"#utility.yul\":17949:17986   */\n      tag_155\n      jump\t// in\n    tag_351:\n        /* \"#utility.yul\":18008:18009   */\n      0x00\n        /* \"#utility.yul\":18022:18230   */\n    tag_352:\n        /* \"#utility.yul\":18036:18043   */\n      dup3\n        /* \"#utility.yul\":18033:18034   */\n      dup2\n        /* \"#utility.yul\":18030:18044   */\n      lt\n        /* \"#utility.yul\":18022:18230   */\n      iszero\n      tag_354\n      jumpi\n        /* \"#utility.yul\":18115:18124   */\n      dup5\n        /* \"#utility.yul\":18110:18113   */\n      dup10\n        /* \"#utility.yul\":18106:18125   */\n      add\n        /* \"#utility.yul\":18100:18126   */\n      mload\n        /* \"#utility.yul\":18092:18098   */\n      dup3\n        /* \"#utility.yul\":18085:18127   */\n      sstore\n        /* \"#utility.yul\":18166:18167   */\n      0x01\n        /* \"#utility.yul\":18158:18164   */\n      dup3\n        /* \"#utility.yul\":18154:18168   */\n      add\n        /* \"#utility.yul\":18144:18168   */\n      swap2\n      pop\n        /* \"#utility.yul\":18213:18215   */\n      0x20\n        /* \"#utility.yul\":18202:18211   */\n      dup6\n        /* \"#utility.yul\":18198:18216   */\n      add\n        /* \"#utility.yul\":18185:18216   */\n      swap5\n      pop\n        /* \"#utility.yul\":18059:18063   */\n      0x20\n        /* \"#utility.yul\":18056:18057   */\n      dup2\n        /* \"#utility.yul\":18052:18064   */\n      add\n        /* \"#utility.yul\":18047:18064   */\n      swap1\n      pop\n        /* \"#utility.yul\":18022:18230   */\n      jump(tag_352)\n    tag_354:\n        /* \"#utility.yul\":18258:18264   */\n      dup7\n        /* \"#utility.yul\":18249:18256   */\n      dup4\n        /* \"#utility.yul\":18246:18265   */\n      lt\n        /* \"#utility.yul\":18243:18422   */\n      iszero\n      tag_355\n      jumpi\n        /* \"#utility.yul\":18316:18325   */\n      dup5\n        /* \"#utility.yul\":18311:18314   */\n      dup10\n        /* \"#utility.yul\":18307:18326   */\n      add\n        /* \"#utility.yul\":18301:18327   */\n      mload\n        /* \"#utility.yul\":18359:18407   */\n      tag_356\n        /* \"#utility.yul\":18401:18405   */\n      0x1f\n        /* \"#utility.yul\":18393:18399   */\n      dup10\n        /* \"#utility.yul\":18389:18406   */\n      and\n        /* \"#utility.yul\":18378:18387   */\n      dup3\n        /* \"#utility.yul\":18359:18407   */\n      tag_168\n      jump\t// in\n    tag_356:\n        /* \"#utility.yul\":18351:18357   */\n      dup4\n        /* \"#utility.yul\":18344:18408   */\n      sstore\n        /* \"#utility.yul\":18266:18422   */\n      pop\n        /* \"#utility.yul\":18243:18422   */\n    tag_355:\n        /* \"#utility.yul\":18468:18469   */\n      0x01\n        /* \"#utility.yul\":18464:18465   */\n      0x02\n        /* \"#utility.yul\":18456:18462   */\n      dup9\n        /* \"#utility.yul\":18452:18466   */\n      mul\n        /* \"#utility.yul\":18448:18470   */\n      add\n        /* \"#utility.yul\":18442:18446   */\n      dup9\n        /* \"#utility.yul\":18435:18471   */\n      sstore\n        /* \"#utility.yul\":17870:18481   */\n      pop\n      pop\n      pop\n        /* \"#utility.yul\":17833:18720   */\n    tag_347:\n      pop\n        /* \"#utility.yul\":17423:18726   */\n      pop\n      pop\n      pop\n        /* \"#utility.yul\":17331:18726   */\n      pop\n      pop\n      jump\t// out\n        /* \"#utility.yul\":18732:18965   */\n    tag_70:\n        /* \"#utility.yul\":18771:18774   */\n      0x00\n        /* \"#utility.yul\":18794:18818   */\n      tag_358\n        /* \"#utility.yul\":18812:18817   */\n      dup3\n        /* \"#utility.yul\":18794:18818   */\n      tag_118\n      jump\t// in\n    tag_358:\n        /* \"#utility.yul\":18785:18818   */\n      swap2\n      pop\n        /* \"#utility.yul\":18840:18906   */\n      0xffffffffffffffffffffffffffffffffffffffffffffffffffffffffffffffff\n        /* \"#utility.yul\":18833:18838   */\n      dup3\n        /* \"#utility.yul\":18830:18907   */\n      sub\n        /* \"#utility.yul\":18827:18930   */\n      tag_359\n      jumpi\n        /* \"#utility.yul\":18910:18928   */\n      tag_360\n      tag_153\n      jump\t// in\n    tag_360:\n        /* \"#utility.yul\":18827:18930   */\n    tag_359:\n        /* \"#utility.yul\":18957:18958   */\n      0x01\n        /* \"#utility.yul\":18950:18955   */\n      dup3\n        /* \"#utility.yul\":18946:18959   */\n      add\n        /* \"#utility.yul\":18939:18959   */\n      swap1\n      pop\n        /* \"#utility.yul\":18732:18965   */\n      swap2\n      swap1\n      pop\n      jump\t// out\n        /* \"#utility.yul\":18971:19151   */\n    tag_98:\n        /* \"#utility.yul\":19019:19096   */\n      0x4e487b7100000000000000000000000000000000000000000000000000000000\n        /* \"#utility.yul\":19016:19017   */\n      0x00\n        /* \"#utility.yul\":19009:19097   */\n      mstore\n        /* \"#utility.yul\":19116:19120   */\n      0x32\n        /* \"#utility.yul\":19113:19114   */\n      0x04\n        /* \"#utility.yul\":19106:19121   */\n      mstore\n        /* \"#utility.yul\":19140:19144   */\n      0x24\n        /* \"#utility.yul\":19137:19138   */\n      0x00\n        /* \"#utility.yul\":19130:19145   */\n      revert\n\n    auxdata: 0xa26469706673582212207e06bfc9602c43cb767355b1f3fb0607aed850743a2c1937b2e9c64a856c869464736f6c63430008190033\n}\n",
				"bytecode": {
					"linkReferences": {},
					"object": "608060405234801561000f575f80fd5b506040516113b93803806113b9833981810160405281019061003191906100d4565b805f806101000a81548173ffffffffffffffffffffffffffffffffffffffff021916908373ffffffffffffffffffffffffffffffffffffffff160217905550506100ff565b5f80fd5b5f73ffffffffffffffffffffffffffffffffffffffff82169050919050565b5f6100a38261007a565b9050919050565b6100b381610099565b81146100bd575f80fd5b50565b5f815190506100ce816100aa565b92915050565b5f602082840312156100e9576100e8610076565b5b5f6100f6848285016100c0565b91505092915050565b6112ad8061010c5f395ff3fe608060405234801561000f575f80fd5b5060043610610055575f3560e01c80638da5cb5b14610059578063b9ed6fca14610077578063e0f478cb14610093578063e6e9d873146100c5578063ef1d6ddd146100e1575b5f80fd5b6100616100ff565b60405161006e91906108f9565b60405180910390f35b610091600480360381019061008c9190610956565b610122565b005b6100ad60048036038101906100a89190610956565b610267565b6040516100bc93929190610a00565b60405180910390f35b6100df60048036038101906100da9190610b6f565b610399565b005b6100e9610510565b6040516100f69190610e1f565b60405180910390f35b5f8054906101000a900473ffffffffffffffffffffffffffffffffffffffff1681565b5f8054906101000a900473ffffffffffffffffffffffffffffffffffffffff1673ffffffffffffffffffffffffffffffffffffffff163373ffffffffffffffffffffffffffffffffffffffff16146101af576040517f08c379a00000000000000000000000000000000000000000000000000000000081526004016101a690610eaf565b60405180910390fd5b5f60025f8381526020019081526020015f205f01540361020657806040517ff55dec000000000000000000000000000000000000000000000000000000000081526004016101fd9190610ecd565b60405180910390fd5b60025f8281526020019081526020015f205f8082015f9055600182015f61022d91906107d2565b600282015f61023c91906107d2565b600382015f61024b919061080f565b505060015f81548092919061025f90610f13565b919050555050565b6002602052805f5260405f205f91509050805f01549080600101805461028c90610f67565b80601f01602080910402602001604051908101604052809291908181526020018280546102b890610f67565b80156103035780601f106102da57610100808354040283529160200191610303565b820191905f5260205f20905b8154815290600101906020018083116102e657829003601f168201915b50505050509080600201805461031890610f67565b80601f016020809104026020016040519081016040528092919081815260200182805461034490610f67565b801561038f5780601f106103665761010080835404028352916020019161038f565b820191905f5260205f20905b81548152906001019060200180831161037257829003601f168201915b5050505050905083565b5f8054906101000a900473ffffffffffffffffffffffffffffffffffffffff1673ffffffffffffffffffffffffffffffffffffffff163373ffffffffffffffffffffffffffffffffffffffff1614610426576040517f08c379a000000000000000000000000000000000000000000000000000000000815260040161041d90610eaf565b60405180910390fd5b60405180608001604052808481526020018381526020018281526020015f67ffffffffffffffff81111561045d5761045c610a4b565b5b60405190808252806020026020018201604052801561048b5781602001602082028036833780820191505090505b5081525060025f8581526020019081526020015f205f820151815f015560208201518160010190816104bd9190611134565b5060408201518160020190816104d39190611134565b5060608201518160030190805190602001906104f092919061082d565b5090505060015f81548092919061050690611203565b9190505550505050565b60605f8054906101000a900473ffffffffffffffffffffffffffffffffffffffff1673ffffffffffffffffffffffffffffffffffffffff163373ffffffffffffffffffffffffffffffffffffffff161461059f576040517f08c379a000000000000000000000000000000000000000000000000000000000815260040161059690610eaf565b60405180910390fd5b5f60015467ffffffffffffffff8111156105bc576105bb610a4b565b5b6040519080825280602002602001820160405280156105f557816020015b6105e2610878565b8152602001906001900390816105da5790505b5090505f5b6001548110156107ca5760025f8281526020019081526020015f206040518060800160405290815f820154815260200160018201805461063990610f67565b80601f016020809104026020016040519081016040528092919081815260200182805461066590610f67565b80156106b05780601f10610687576101008083540402835291602001916106b0565b820191905f5260205f20905b81548152906001019060200180831161069357829003601f168201915b505050505081526020016002820180546106c990610f67565b80601f01602080910402602001604051908101604052809291908181526020018280546106f590610f67565b80156107405780601f1061071757610100808354040283529160200191610740565b820191905f5260205f20905b81548152906001019060200180831161072357829003601f168201915b505050505081526020016003820180548060200260200160405190810160405280929190818152602001828054801561079657602002820191905f5260205f20905b815481526020019060010190808311610782575b5050505050815250508282815181106107b2576107b161124a565b5b602002602001018190525080806001019150506105fa565b508091505090565b5080546107de90610f67565b5f825580601f106107ef575061080c565b601f0160209004905f5260205f209081019061080b919061089f565b5b50565b5080545f8255905f5260205f209081019061082a919061089f565b50565b828054828255905f5260205f20908101928215610867579160200282015b8281111561086657825182559160200191906001019061084b565b5b509050610874919061089f565b5090565b60405180608001604052805f81526020016060815260200160608152602001606081525090565b5b808211156108b6575f815f9055506001016108a0565b5090565b5f73ffffffffffffffffffffffffffffffffffffffff82169050919050565b5f6108e3826108ba565b9050919050565b6108f3816108d9565b82525050565b5f60208201905061090c5f8301846108ea565b92915050565b5f604051905090565b5f80fd5b5f80fd5b5f819050919050565b61093581610923565b811461093f575f80fd5b50565b5f813590506109508161092c565b92915050565b5f6020828403121561096b5761096a61091b565b5b5f61097884828501610942565b91505092915050565b61098a81610923565b82525050565b5f81519050919050565b5f82825260208201905092915050565b8281835e5f83830152505050565b5f601f19601f8301169050919050565b5f6109d282610990565b6109dc818561099a565b93506109ec8185602086016109aa565b6109f5816109b8565b840191505092915050565b5f606082019050610a135f830186610981565b8181036020830152610a2581856109c8565b90508181036040830152610a3981846109c8565b9050949350505050565b5f80fd5b5f80fd5b7f4e487b71000000000000000000000000000000000000000000000000000000005f52604160045260245ffd5b610a81826109b8565b810181811067ffffffffffffffff82111715610aa057610a9f610a4b565b5b80604052505050565b5f610ab2610912565b9050610abe8282610a78565b919050565b5f67ffffffffffffffff821115610add57610adc610a4b565b5b610ae6826109b8565b9050602081019050919050565b828183375f83830152505050565b5f610b13610b0e84610ac3565b610aa9565b905082815260208101848484011115610b2f57610b2e610a47565b5b610b3a848285610af3565b509392505050565b5f82601f830112610b5657610b55610a43565b5b8135610b66848260208601610b01565b91505092915050565b5f805f60608486031215610b8657610b8561091b565b5b5f610b9386828701610942565b935050602084013567ffffffffffffffff811115610bb457610bb361091f565b5b610bc086828701610b42565b925050604084013567ffffffffffffffff811115610be157610be061091f565b5b610bed86828701610b42565b9150509250925092565b5f81519050919050565b5f82825260208201905092915050565b5f819050602082019050919050565b610c2981610923565b82525050565b5f82825260208201905092915050565b5f610c4982610990565b610c538185610c2f565b9350610c638185602086016109aa565b610c6c816109b8565b840191505092915050565b5f81519050919050565b5f82825260208201905092915050565b5f819050602082019050919050565b5f610cab8383610c20565b60208301905092915050565b5f602082019050919050565b5f610ccd82610c77565b610cd78185610c81565b9350610ce283610c91565b805f5b83811015610d12578151610cf98882610ca0565b9750610d0483610cb7565b925050600181019050610ce5565b5085935050505092915050565b5f608083015f830151610d345f860182610c20565b5060208301518482036020860152610d4c8282610c3f565b91505060408301518482036040860152610d668282610c3f565b91505060608301518482036060860152610d808282610cc3565b9150508091505092915050565b5f610d988383610d1f565b905092915050565b5f602082019050919050565b5f610db682610bf7565b610dc08185610c01565b935083602082028501610dd285610c11565b805f5b85811015610e0d5784840389528151610dee8582610d8d565b9450610df983610da0565b925060208a01995050600181019050610dd5565b50829750879550505050505092915050565b5f6020820190508181035f830152610e378184610dac565b905092915050565b7f4f6e6c7920746865206f776e65722063616e2063616c6c20746869732066756e5f8201527f6374696f6e000000000000000000000000000000000000000000000000000000602082015250565b5f610e9960258361099a565b9150610ea482610e3f565b604082019050919050565b5f6020820190508181035f830152610ec681610e8d565b9050919050565b5f602082019050610ee05f830184610981565b92915050565b7f4e487b71000000000000000000000000000000000000000000000000000000005f52601160045260245ffd5b5f610f1d82610923565b91505f8203610f2f57610f2e610ee6565b5b600182039050919050565b7f4e487b71000000000000000000000000000000000000000000000000000000005f52602260045260245ffd5b5f6002820490506001821680610f7e57607f821691505b602082108103610f9157610f90610f3a565b5b50919050565b5f819050815f5260205f209050919050565b5f6020601f8301049050919050565b5f82821b905092915050565b5f60088302610ff37fffffffffffffffffffffffffffffffffffffffffffffffffffffffffffffffff82610fb8565b610ffd8683610fb8565b95508019841693508086168417925050509392505050565b5f819050919050565b5f61103861103361102e84610923565b611015565b610923565b9050919050565b5f819050919050565b6110518361101e565b61106561105d8261103f565b848454610fc4565b825550505050565b5f90565b61107961106d565b611084818484611048565b505050565b5b818110156110a75761109c5f82611071565b60018101905061108a565b5050565b601f8211156110ec576110bd81610f97565b6110c684610fa9565b810160208510156110d5578190505b6110e96110e185610fa9565b830182611089565b50505b505050565b5f82821c905092915050565b5f61110c5f19846008026110f1565b1980831691505092915050565b5f61112483836110fd565b9150826002028217905092915050565b61113d82610990565b67ffffffffffffffff81111561115657611155610a4b565b5b6111608254610f67565b61116b8282856110ab565b5f60209050601f83116001811461119c575f841561118a578287015190505b6111948582611119565b8655506111fb565b601f1984166111aa86610f97565b5f5b828110156111d1578489015182556001820191506020850194506020810190506111ac565b868310156111ee57848901516111ea601f8916826110fd565b8355505b6001600288020188555050505b505050505050565b5f61120d82610923565b91507fffffffffffffffffffffffffffffffffffffffffffffffffffffffffffffffff820361123f5761123e610ee6565b5b600182019050919050565b7f4e487b71000000000000000000000000000000000000000000000000000000005f52603260045260245ffdfea26469706673582212207e06bfc9602c43cb767355b1f3fb0607aed850743a2c1937b2e9c64a856c869464736f6c63430008190033",
					"opcodes": "PUSH1 0x80 PUSH1 0x40 MSTORE CALLVALUE DUP1 ISZERO PUSH2 0xF JUMPI PUSH0 DUP1 REVERT JUMPDEST POP PUSH1 0x40 MLOAD PUSH2 0x13B9 CODESIZE SUB DUP1 PUSH2 0x13B9 DUP4 CODECOPY DUP2 DUP2 ADD PUSH1 0x40 MSTORE DUP2 ADD SWAP1 PUSH2 0x31 SWAP2 SWAP1 PUSH2 0xD4 JUMP JUMPDEST DUP1 PUSH0 DUP1 PUSH2 0x100 EXP DUP2 SLOAD DUP2 PUSH20 0xFFFFFFFFFFFFFFFFFFFFFFFFFFFFFFFFFFFFFFFF MUL NOT AND SWAP1 DUP4 PUSH20 0xFFFFFFFFFFFFFFFFFFFFFFFFFFFFFFFFFFFFFFFF AND MUL OR SWAP1 SSTORE POP POP PUSH2 0xFF JUMP JUMPDEST PUSH0 DUP1 REVERT JUMPDEST PUSH0 PUSH20 0xFFFFFFFFFFFFFFFFFFFFFFFFFFFFFFFFFFFFFFFF DUP3 AND SWAP1 POP SWAP2 SWAP1 POP JUMP JUMPDEST PUSH0 PUSH2 0xA3 DUP3 PUSH2 0x7A JUMP JUMPDEST SWAP1 POP SWAP2 SWAP1 POP JUMP JUMPDEST PUSH2 0xB3 DUP2 PUSH2 0x99 JUMP JUMPDEST DUP2 EQ PUSH2 0xBD JUMPI PUSH0 DUP1 REVERT JUMPDEST POP JUMP JUMPDEST PUSH0 DUP2 MLOAD SWAP1 POP PUSH2 0xCE DUP2 PUSH2 0xAA JUMP JUMPDEST SWAP3 SWAP2 POP POP JUMP JUMPDEST PUSH0 PUSH1 0x20 DUP3 DUP5 SUB SLT ISZERO PUSH2 0xE9 JUMPI PUSH2 0xE8 PUSH2 0x76 JUMP JUMPDEST JUMPDEST PUSH0 PUSH2 0xF6 DUP5 DUP3 DUP6 ADD PUSH2 0xC0 JUMP JUMPDEST SWAP2 POP POP SWAP3 SWAP2 POP POP JUMP JUMPDEST PUSH2 0x12AD DUP1 PUSH2 0x10C PUSH0 CODECOPY PUSH0 RETURN INVALID PUSH1 0x80 PUSH1 0x40 MSTORE CALLVALUE DUP1 ISZERO PUSH2 0xF JUMPI PUSH0 DUP1 REVERT JUMPDEST POP PUSH1 0x4 CALLDATASIZE LT PUSH2 0x55 JUMPI PUSH0 CALLDATALOAD PUSH1 0xE0 SHR DUP1 PUSH4 0x8DA5CB5B EQ PUSH2 0x59 JUMPI DUP1 PUSH4 0xB9ED6FCA EQ PUSH2 0x77 JUMPI DUP1 PUSH4 0xE0F478CB EQ PUSH2 0x93 JUMPI DUP1 PUSH4 0xE6E9D873 EQ PUSH2 0xC5 JUMPI DUP1 PUSH4 0xEF1D6DDD EQ PUSH2 0xE1 JUMPI JUMPDEST PUSH0 DUP1 REVERT JUMPDEST PUSH2 0x61 PUSH2 0xFF JUMP JUMPDEST PUSH1 0x40 MLOAD PUSH2 0x6E SWAP2 SWAP1 PUSH2 0x8F9 JUMP JUMPDEST PUSH1 0x40 MLOAD DUP1 SWAP2 SUB SWAP1 RETURN JUMPDEST PUSH2 0x91 PUSH1 0x4 DUP1 CALLDATASIZE SUB DUP2 ADD SWAP1 PUSH2 0x8C SWAP2 SWAP1 PUSH2 0x956 JUMP JUMPDEST PUSH2 0x122 JUMP JUMPDEST STOP JUMPDEST PUSH2 0xAD PUSH1 0x4 DUP1 CALLDATASIZE SUB DUP2 ADD SWAP1 PUSH2 0xA8 SWAP2 SWAP1 PUSH2 0x956 JUMP JUMPDEST PUSH2 0x267 JUMP JUMPDEST PUSH1 0x40 MLOAD PUSH2 0xBC SWAP4 SWAP3 SWAP2 SWAP1 PUSH2 0xA00 JUMP JUMPDEST PUSH1 0x40 MLOAD DUP1 SWAP2 SUB SWAP1 RETURN JUMPDEST PUSH2 0xDF PUSH1 0x4 DUP1 CALLDATASIZE SUB DUP2 ADD SWAP1 PUSH2 0xDA SWAP2 SWAP1 PUSH2 0xB6F JUMP JUMPDEST PUSH2 0x399 JUMP JUMPDEST STOP JUMPDEST PUSH2 0xE9 PUSH2 0x510 JUMP JUMPDEST PUSH1 0x40 MLOAD PUSH2 0xF6 SWAP2 SWAP1 PUSH2 0xE1F JUMP JUMPDEST PUSH1 0x40 MLOAD DUP1 SWAP2 SUB SWAP1 RETURN JUMPDEST PUSH0 DUP1 SLOAD SWAP1 PUSH2 0x100 EXP SWAP1 DIV PUSH20 0xFFFFFFFFFFFFFFFFFFFFFFFFFFFFFFFFFFFFFFFF AND DUP2 JUMP JUMPDEST PUSH0 DUP1 SLOAD SWAP1 PUSH2 0x100 EXP SWAP1 DIV PUSH20 0xFFFFFFFFFFFFFFFFFFFFFFFFFFFFFFFFFFFFFFFF AND PUSH20 0xFFFFFFFFFFFFFFFFFFFFFFFFFFFFFFFFFFFFFFFF AND CALLER PUSH20 0xFFFFFFFFFFFFFFFFFFFFFFFFFFFFFFFFFFFFFFFF AND EQ PUSH2 0x1AF JUMPI PUSH1 0x40 MLOAD PUSH32 0x8C379A000000000000000000000000000000000000000000000000000000000 DUP2 MSTORE PUSH1 0x4 ADD PUSH2 0x1A6 SWAP1 PUSH2 0xEAF JUMP JUMPDEST PUSH1 0x40 MLOAD DUP1 SWAP2 SUB SWAP1 REVERT JUMPDEST PUSH0 PUSH1 0x2 PUSH0 DUP4 DUP2 MSTORE PUSH1 0x20 ADD SWAP1 DUP2 MSTORE PUSH1 0x20 ADD PUSH0 KECCAK256 PUSH0 ADD SLOAD SUB PUSH2 0x206 JUMPI DUP1 PUSH1 0x40 MLOAD PUSH32 0xF55DEC0000000000000000000000000000000000000000000000000000000000 DUP2 MSTORE PUSH1 0x4 ADD PUSH2 0x1FD SWAP2 SWAP1 PUSH2 0xECD JUMP JUMPDEST PUSH1 0x40 MLOAD DUP1 SWAP2 SUB SWAP1 REVERT JUMPDEST PUSH1 0x2 PUSH0 DUP3 DUP2 MSTORE PUSH1 0x20 ADD SWAP1 DUP2 MSTORE PUSH1 0x20 ADD PUSH0 KECCAK256 PUSH0 DUP1 DUP3 ADD PUSH0 SWAP1 SSTORE PUSH1 0x1 DUP3 ADD PUSH0 PUSH2 0x22D SWAP2 SWAP1 PUSH2 0x7D2 JUMP JUMPDEST PUSH1 0x2 DUP3 ADD PUSH0 PUSH2 0x23C SWAP2 SWAP1 PUSH2 0x7D2 JUMP JUMPDEST PUSH1 0x3 DUP3 ADD PUSH0 PUSH2 0x24B SWAP2 SWAP1 PUSH2 0x80F JUMP JUMPDEST POP POP PUSH1 0x1 PUSH0 DUP2 SLOAD DUP1 SWAP3 SWAP2 SWAP1 PUSH2 0x25F SWAP1 PUSH2 0xF13 JUMP JUMPDEST SWAP2 SWAP1 POP SSTORE POP POP JUMP JUMPDEST PUSH1 0x2 PUSH1 0x20 MSTORE DUP1 PUSH0 MSTORE PUSH1 0x40 PUSH0 KECCAK256 PUSH0 SWAP2 POP SWAP1 POP DUP1 PUSH0 ADD SLOAD SWAP1 DUP1 PUSH1 0x1 ADD DUP1 SLOAD PUSH2 0x28C SWAP1 PUSH2 0xF67 JUMP JUMPDEST DUP1 PUSH1 0x1F ADD PUSH1 0x20 DUP1 SWAP2 DIV MUL PUSH1 0x20 ADD PUSH1 0x40 MLOAD SWAP1 DUP2 ADD PUSH1 0x40 MSTORE DUP1 SWAP3 SWAP2 SWAP1 DUP2 DUP2 MSTORE PUSH1 0x20 ADD DUP3 DUP1 SLOAD PUSH2 0x2B8 SWAP1 PUSH2 0xF67 JUMP JUMPDEST DUP1 ISZERO PUSH2 0x303 JUMPI DUP1 PUSH1 0x1F LT PUSH2 0x2DA JUMPI PUSH2 0x100 DUP1 DUP4 SLOAD DIV MUL DUP4 MSTORE SWAP2 PUSH1 0x20 ADD SWAP2 PUSH2 0x303 JUMP JUMPDEST DUP3 ADD SWAP2 SWAP1 PUSH0 MSTORE PUSH1 0x20 PUSH0 KECCAK256 SWAP1 JUMPDEST DUP2 SLOAD DUP2 MSTORE SWAP1 PUSH1 0x1 ADD SWAP1 PUSH1 0x20 ADD DUP1 DUP4 GT PUSH2 0x2E6 JUMPI DUP3 SWAP1 SUB PUSH1 0x1F AND DUP3 ADD SWAP2 JUMPDEST POP POP POP POP POP SWAP1 DUP1 PUSH1 0x2 ADD DUP1 SLOAD PUSH2 0x318 SWAP1 PUSH2 0xF67 JUMP JUMPDEST DUP1 PUSH1 0x1F ADD PUSH1 0x20 DUP1 SWAP2 DIV MUL PUSH1 0x20 ADD PUSH1 0x40 MLOAD SWAP1 DUP2 ADD PUSH1 0x40 MSTORE DUP1 SWAP3 SWAP2 SWAP1 DUP2 DUP2 MSTORE PUSH1 0x20 ADD DUP3 DUP1 SLOAD PUSH2 0x344 SWAP1 PUSH2 0xF67 JUMP JUMPDEST DUP1 ISZERO PUSH2 0x38F JUMPI DUP1 PUSH1 0x1F LT PUSH2 0x366 JUMPI PUSH2 0x100 DUP1 DUP4 SLOAD DIV MUL DUP4 MSTORE SWAP2 PUSH1 0x20 ADD SWAP2 PUSH2 0x38F JUMP JUMPDEST DUP3 ADD SWAP2 SWAP1 PUSH0 MSTORE PUSH1 0x20 PUSH0 KECCAK256 SWAP1 JUMPDEST DUP2 SLOAD DUP2 MSTORE SWAP1 PUSH1 0x1 ADD SWAP1 PUSH1 0x20 ADD DUP1 DUP4 GT PUSH2 0x372 JUMPI DUP3 SWAP1 SUB PUSH1 0x1F AND DUP3 ADD SWAP2 JUMPDEST POP POP POP POP POP SWAP1 POP DUP4 JUMP JUMPDEST PUSH0 DUP1 SLOAD SWAP1 PUSH2 0x100 EXP SWAP1 DIV PUSH20 0xFFFFFFFFFFFFFFFFFFFFFFFFFFFFFFFFFFFFFFFF AND PUSH20 0xFFFFFFFFFFFFFFFFFFFFFFFFFFFFFFFFFFFFFFFF AND CALLER PUSH20 0xFFFFFFFFFFFFFFFFFFFFFFFFFFFFFFFFFFFFFFFF AND EQ PUSH2 0x426 JUMPI PUSH1 0x40 MLOAD PUSH32 0x8C379A000000000000000000000000000000000000000000000000000000000 DUP2 MSTORE PUSH1 0x4 ADD PUSH2 0x41D SWAP1 PUSH2 0xEAF JUMP JUMPDEST PUSH1 0x40 MLOAD DUP1 SWAP2 SUB SWAP1 REVERT JUMPDEST PUSH1 0x40 MLOAD DUP1 PUSH1 0x80 ADD PUSH1 0x40 MSTORE DUP1 DUP5 DUP2 MSTORE PUSH1 0x20 ADD DUP4 DUP2 MSTORE PUSH1 0x20 ADD DUP3 DUP2 MSTORE PUSH1 0x20 ADD PUSH0 PUSH8 0xFFFFFFFFFFFFFFFF DUP2 GT ISZERO PUSH2 0x45D JUMPI PUSH2 0x45C PUSH2 0xA4B JUMP JUMPDEST JUMPDEST PUSH1 0x40 MLOAD SWAP1 DUP1 DUP3 MSTORE DUP1 PUSH1 0x20 MUL PUSH1 0x20 ADD DUP3 ADD PUSH1 0x40 MSTORE DUP1 ISZERO PUSH2 0x48B JUMPI DUP2 PUSH1 0x20 ADD PUSH1 0x20 DUP3 MUL DUP1 CALLDATASIZE DUP4 CALLDATACOPY DUP1 DUP3 ADD SWAP2 POP POP SWAP1 POP JUMPDEST POP DUP2 MSTORE POP PUSH1 0x2 PUSH0 DUP6 DUP2 MSTORE PUSH1 0x20 ADD SWAP1 DUP2 MSTORE PUSH1 0x20 ADD PUSH0 KECCAK256 PUSH0 DUP3 ADD MLOAD DUP2 PUSH0 ADD SSTORE PUSH1 0x20 DUP3 ADD MLOAD DUP2 PUSH1 0x1 ADD SWAP1 DUP2 PUSH2 0x4BD SWAP2 SWAP1 PUSH2 0x1134 JUMP JUMPDEST POP PUSH1 0x40 DUP3 ADD MLOAD DUP2 PUSH1 0x2 ADD SWAP1 DUP2 PUSH2 0x4D3 SWAP2 SWAP1 PUSH2 0x1134 JUMP JUMPDEST POP PUSH1 0x60 DUP3 ADD MLOAD DUP2 PUSH1 0x3 ADD SWAP1 DUP1 MLOAD SWAP1 PUSH1 0x20 ADD SWAP1 PUSH2 0x4F0 SWAP3 SWAP2 SWAP1 PUSH2 0x82D JUMP JUMPDEST POP SWAP1 POP POP PUSH1 0x1 PUSH0 DUP2 SLOAD DUP1 SWAP3 SWAP2 SWAP1 PUSH2 0x506 SWAP1 PUSH2 0x1203 JUMP JUMPDEST SWAP2 SWAP1 POP SSTORE POP POP POP POP JUMP JUMPDEST PUSH1 0x60 PUSH0 DUP1 SLOAD SWAP1 PUSH2 0x100 EXP SWAP1 DIV PUSH20 0xFFFFFFFFFFFFFFFFFFFFFFFFFFFFFFFFFFFFFFFF AND PUSH20 0xFFFFFFFFFFFFFFFFFFFFFFFFFFFFFFFFFFFFFFFF AND CALLER PUSH20 0xFFFFFFFFFFFFFFFFFFFFFFFFFFFFFFFFFFFFFFFF AND EQ PUSH2 0x59F JUMPI PUSH1 0x40 MLOAD PUSH32 0x8C379A000000000000000000000000000000000000000000000000000000000 DUP2 MSTORE PUSH1 0x4 ADD PUSH2 0x596 SWAP1 PUSH2 0xEAF JUMP JUMPDEST PUSH1 0x40 MLOAD DUP1 SWAP2 SUB SWAP1 REVERT JUMPDEST PUSH0 PUSH1 0x1 SLOAD PUSH8 0xFFFFFFFFFFFFFFFF DUP2 GT ISZERO PUSH2 0x5BC JUMPI PUSH2 0x5BB PUSH2 0xA4B JUMP JUMPDEST JUMPDEST PUSH1 0x40 MLOAD SWAP1 DUP1 DUP3 MSTORE DUP1 PUSH1 0x20 MUL PUSH1 0x20 ADD DUP3 ADD PUSH1 0x40 MSTORE DUP1 ISZERO PUSH2 0x5F5 JUMPI DUP2 PUSH1 0x20 ADD JUMPDEST PUSH2 0x5E2 PUSH2 0x878 JUMP JUMPDEST DUP2 MSTORE PUSH1 0x20 ADD SWAP1 PUSH1 0x1 SWAP1 SUB SWAP1 DUP2 PUSH2 0x5DA JUMPI SWAP1 POP JUMPDEST POP SWAP1 POP PUSH0 JUMPDEST PUSH1 0x1 SLOAD DUP2 LT ISZERO PUSH2 0x7CA JUMPI PUSH1 0x2 PUSH0 DUP3 DUP2 MSTORE PUSH1 0x20 ADD SWAP1 DUP2 MSTORE PUSH1 0x20 ADD PUSH0 KECCAK256 PUSH1 0x40 MLOAD DUP1 PUSH1 0x80 ADD PUSH1 0x40 MSTORE SWAP1 DUP2 PUSH0 DUP3 ADD SLOAD DUP2 MSTORE PUSH1 0x20 ADD PUSH1 0x1 DUP3 ADD DUP1 SLOAD PUSH2 0x639 SWAP1 PUSH2 0xF67 JUMP JUMPDEST DUP1 PUSH1 0x1F ADD PUSH1 0x20 DUP1 SWAP2 DIV MUL PUSH1 0x20 ADD PUSH1 0x40 MLOAD SWAP1 DUP2 ADD PUSH1 0x40 MSTORE DUP1 SWAP3 SWAP2 SWAP1 DUP2 DUP2 MSTORE PUSH1 0x20 ADD DUP3 DUP1 SLOAD PUSH2 0x665 SWAP1 PUSH2 0xF67 JUMP JUMPDEST DUP1 ISZERO PUSH2 0x6B0 JUMPI DUP1 PUSH1 0x1F LT PUSH2 0x687 JUMPI PUSH2 0x100 DUP1 DUP4 SLOAD DIV MUL DUP4 MSTORE SWAP2 PUSH1 0x20 ADD SWAP2 PUSH2 0x6B0 JUMP JUMPDEST DUP3 ADD SWAP2 SWAP1 PUSH0 MSTORE PUSH1 0x20 PUSH0 KECCAK256 SWAP1 JUMPDEST DUP2 SLOAD DUP2 MSTORE SWAP1 PUSH1 0x1 ADD SWAP1 PUSH1 0x20 ADD DUP1 DUP4 GT PUSH2 0x693 JUMPI DUP3 SWAP1 SUB PUSH1 0x1F AND DUP3 ADD SWAP2 JUMPDEST POP POP POP POP POP DUP2 MSTORE PUSH1 0x20 ADD PUSH1 0x2 DUP3 ADD DUP1 SLOAD PUSH2 0x6C9 SWAP1 PUSH2 0xF67 JUMP JUMPDEST DUP1 PUSH1 0x1F ADD PUSH1 0x20 DUP1 SWAP2 DIV MUL PUSH1 0x20 ADD PUSH1 0x40 MLOAD SWAP1 DUP2 ADD PUSH1 0x40 MSTORE DUP1 SWAP3 SWAP2 SWAP1 DUP2 DUP2 MSTORE PUSH1 0x20 ADD DUP3 DUP1 SLOAD PUSH2 0x6F5 SWAP1 PUSH2 0xF67 JUMP JUMPDEST DUP1 ISZERO PUSH2 0x740 JUMPI DUP1 PUSH1 0x1F LT PUSH2 0x717 JUMPI PUSH2 0x100 DUP1 DUP4 SLOAD DIV MUL DUP4 MSTORE SWAP2 PUSH1 0x20 ADD SWAP2 PUSH2 0x740 JUMP JUMPDEST DUP3 ADD SWAP2 SWAP1 PUSH0 MSTORE PUSH1 0x20 PUSH0 KECCAK256 SWAP1 JUMPDEST DUP2 SLOAD DUP2 MSTORE SWAP1 PUSH1 0x1 ADD SWAP1 PUSH1 0x20 ADD DUP1 DUP4 GT PUSH2 0x723 JUMPI DUP3 SWAP1 SUB PUSH1 0x1F AND DUP3 ADD SWAP2 JUMPDEST POP POP POP POP POP DUP2 MSTORE PUSH1 0x20 ADD PUSH1 0x3 DUP3 ADD DUP1 SLOAD DUP1 PUSH1 0x20 MUL PUSH1 0x20 ADD PUSH1 0x40 MLOAD SWAP1 DUP2 ADD PUSH1 0x40 MSTORE DUP1 SWAP3 SWAP2 SWAP1 DUP2 DUP2 MSTORE PUSH1 0x20 ADD DUP3 DUP1 SLOAD DUP1 ISZERO PUSH2 0x796 JUMPI PUSH1 0x20 MUL DUP3 ADD SWAP2 SWAP1 PUSH0 MSTORE PUSH1 0x20 PUSH0 KECCAK256 SWAP1 JUMPDEST DUP2 SLOAD DUP2 MSTORE PUSH1 0x20 ADD SWAP1 PUSH1 0x1 ADD SWAP1 DUP1 DUP4 GT PUSH2 0x782 JUMPI JUMPDEST POP POP POP POP POP DUP2 MSTORE POP POP DUP3 DUP3 DUP2 MLOAD DUP2 LT PUSH2 0x7B2 JUMPI PUSH2 0x7B1 PUSH2 0x124A JUMP JUMPDEST JUMPDEST PUSH1 0x20 MUL PUSH1 0x20 ADD ADD DUP2 SWAP1 MSTORE POP DUP1 DUP1 PUSH1 0x1 ADD SWAP2 POP POP PUSH2 0x5FA JUMP JUMPDEST POP DUP1 SWAP2 POP POP SWAP1 JUMP JUMPDEST POP DUP1 SLOAD PUSH2 0x7DE SWAP1 PUSH2 0xF67 JUMP JUMPDEST PUSH0 DUP3 SSTORE DUP1 PUSH1 0x1F LT PUSH2 0x7EF JUMPI POP PUSH2 0x80C JUMP JUMPDEST PUSH1 0x1F ADD PUSH1 0x20 SWAP1 DIV SWAP1 PUSH0 MSTORE PUSH1 0x20 PUSH0 KECCAK256 SWAP1 DUP2 ADD SWAP1 PUSH2 0x80B SWAP2 SWAP1 PUSH2 0x89F JUMP JUMPDEST JUMPDEST POP JUMP JUMPDEST POP DUP1 SLOAD PUSH0 DUP3 SSTORE SWAP1 PUSH0 MSTORE PUSH1 0x20 PUSH0 KECCAK256 SWAP1 DUP2 ADD SWAP1 PUSH2 0x82A SWAP2 SWAP1 PUSH2 0x89F JUMP JUMPDEST POP JUMP JUMPDEST DUP3 DUP1 SLOAD DUP3 DUP3 SSTORE SWAP1 PUSH0 MSTORE PUSH1 0x20 PUSH0 KECCAK256 SWAP1 DUP2 ADD SWAP3 DUP3 ISZERO PUSH2 0x867 JUMPI SWAP2 PUSH1 0x20 MUL DUP3 ADD JUMPDEST DUP3 DUP2 GT ISZERO PUSH2 0x866 JUMPI DUP3 MLOAD DUP3 SSTORE SWAP2 PUSH1 0x20 ADD SWAP2 SWAP1 PUSH1 0x1 ADD SWAP1 PUSH2 0x84B JUMP JUMPDEST JUMPDEST POP SWAP1 POP PUSH2 0x874 SWAP2 SWAP1 PUSH2 0x89F JUMP JUMPDEST POP SWAP1 JUMP JUMPDEST PUSH1 0x40 MLOAD DUP1 PUSH1 0x80 ADD PUSH1 0x40 MSTORE DUP1 PUSH0 DUP2 MSTORE PUSH1 0x20 ADD PUSH1 0x60 DUP2 MSTORE PUSH1 0x20 ADD PUSH1 0x60 DUP2 MSTORE PUSH1 0x20 ADD PUSH1 0x60 DUP2 MSTORE POP SWAP1 JUMP JUMPDEST JUMPDEST DUP1 DUP3 GT ISZERO PUSH2 0x8B6 JUMPI PUSH0 DUP2 PUSH0 SWAP1 SSTORE POP PUSH1 0x1 ADD PUSH2 0x8A0 JUMP JUMPDEST POP SWAP1 JUMP JUMPDEST PUSH0 PUSH20 0xFFFFFFFFFFFFFFFFFFFFFFFFFFFFFFFFFFFFFFFF DUP3 AND SWAP1 POP SWAP2 SWAP1 POP JUMP JUMPDEST PUSH0 PUSH2 0x8E3 DUP3 PUSH2 0x8BA JUMP JUMPDEST SWAP1 POP SWAP2 SWAP1 POP JUMP JUMPDEST PUSH2 0x8F3 DUP2 PUSH2 0x8D9 JUMP JUMPDEST DUP3 MSTORE POP POP JUMP JUMPDEST PUSH0 PUSH1 0x20 DUP3 ADD SWAP1 POP PUSH2 0x90C PUSH0 DUP4 ADD DUP5 PUSH2 0x8EA JUMP JUMPDEST SWAP3 SWAP2 POP POP JUMP JUMPDEST PUSH0 PUSH1 0x40 MLOAD SWAP1 POP SWAP1 JUMP JUMPDEST PUSH0 DUP1 REVERT JUMPDEST PUSH0 DUP1 REVERT JUMPDEST PUSH0 DUP2 SWAP1 POP SWAP2 SWAP1 POP JUMP JUMPDEST PUSH2 0x935 DUP2 PUSH2 0x923 JUMP JUMPDEST DUP2 EQ PUSH2 0x93F JUMPI PUSH0 DUP1 REVERT JUMPDEST POP JUMP JUMPDEST PUSH0 DUP2 CALLDATALOAD SWAP1 POP PUSH2 0x950 DUP2 PUSH2 0x92C JUMP JUMPDEST SWAP3 SWAP2 POP POP JUMP JUMPDEST PUSH0 PUSH1 0x20 DUP3 DUP5 SUB SLT ISZERO PUSH2 0x96B JUMPI PUSH2 0x96A PUSH2 0x91B JUMP JUMPDEST JUMPDEST PUSH0 PUSH2 0x978 DUP5 DUP3 DUP6 ADD PUSH2 0x942 JUMP JUMPDEST SWAP2 POP POP SWAP3 SWAP2 POP POP JUMP JUMPDEST PUSH2 0x98A DUP2 PUSH2 0x923 JUMP JUMPDEST DUP3 MSTORE POP POP JUMP JUMPDEST PUSH0 DUP2 MLOAD SWAP1 POP SWAP2 SWAP1 POP JUMP JUMPDEST PUSH0 DUP3 DUP3 MSTORE PUSH1 0x20 DUP3 ADD SWAP1 POP SWAP3 SWAP2 POP POP JUMP JUMPDEST DUP3 DUP2 DUP4 MCOPY PUSH0 DUP4 DUP4 ADD MSTORE POP POP POP JUMP JUMPDEST PUSH0 PUSH1 0x1F NOT PUSH1 0x1F DUP4 ADD AND SWAP1 POP SWAP2 SWAP1 POP JUMP JUMPDEST PUSH0 PUSH2 0x9D2 DUP3 PUSH2 0x990 JUMP JUMPDEST PUSH2 0x9DC DUP2 DUP6 PUSH2 0x99A JUMP JUMPDEST SWAP4 POP PUSH2 0x9EC DUP2 DUP6 PUSH1 0x20 DUP7 ADD PUSH2 0x9AA JUMP JUMPDEST PUSH2 0x9F5 DUP2 PUSH2 0x9B8 JUMP JUMPDEST DUP5 ADD SWAP2 POP POP SWAP3 SWAP2 POP POP JUMP JUMPDEST PUSH0 PUSH1 0x60 DUP3 ADD SWAP1 POP PUSH2 0xA13 PUSH0 DUP4 ADD DUP7 PUSH2 0x981 JUMP JUMPDEST DUP2 DUP2 SUB PUSH1 0x20 DUP4 ADD MSTORE PUSH2 0xA25 DUP2 DUP6 PUSH2 0x9C8 JUMP JUMPDEST SWAP1 POP DUP2 DUP2 SUB PUSH1 0x40 DUP4 ADD MSTORE PUSH2 0xA39 DUP2 DUP5 PUSH2 0x9C8 JUMP JUMPDEST SWAP1 POP SWAP5 SWAP4 POP POP POP POP JUMP JUMPDEST PUSH0 DUP1 REVERT JUMPDEST PUSH0 DUP1 REVERT JUMPDEST PUSH32 0x4E487B7100000000000000000000000000000000000000000000000000000000 PUSH0 MSTORE PUSH1 0x41 PUSH1 0x4 MSTORE PUSH1 0x24 PUSH0 REVERT JUMPDEST PUSH2 0xA81 DUP3 PUSH2 0x9B8 JUMP JUMPDEST DUP2 ADD DUP2 DUP2 LT PUSH8 0xFFFFFFFFFFFFFFFF DUP3 GT OR ISZERO PUSH2 0xAA0 JUMPI PUSH2 0xA9F PUSH2 0xA4B JUMP JUMPDEST JUMPDEST DUP1 PUSH1 0x40 MSTORE POP POP POP JUMP JUMPDEST PUSH0 PUSH2 0xAB2 PUSH2 0x912 JUMP JUMPDEST SWAP1 POP PUSH2 0xABE DUP3 DUP3 PUSH2 0xA78 JUMP JUMPDEST SWAP2 SWAP1 POP JUMP JUMPDEST PUSH0 PUSH8 0xFFFFFFFFFFFFFFFF DUP3 GT ISZERO PUSH2 0xADD JUMPI PUSH2 0xADC PUSH2 0xA4B JUMP JUMPDEST JUMPDEST PUSH2 0xAE6 DUP3 PUSH2 0x9B8 JUMP JUMPDEST SWAP1 POP PUSH1 0x20 DUP2 ADD SWAP1 POP SWAP2 SWAP1 POP JUMP JUMPDEST DUP3 DUP2 DUP4 CALLDATACOPY PUSH0 DUP4 DUP4 ADD MSTORE POP POP POP JUMP JUMPDEST PUSH0 PUSH2 0xB13 PUSH2 0xB0E DUP5 PUSH2 0xAC3 JUMP JUMPDEST PUSH2 0xAA9 JUMP JUMPDEST SWAP1 POP DUP3 DUP2 MSTORE PUSH1 0x20 DUP2 ADD DUP5 DUP5 DUP5 ADD GT ISZERO PUSH2 0xB2F JUMPI PUSH2 0xB2E PUSH2 0xA47 JUMP JUMPDEST JUMPDEST PUSH2 0xB3A DUP5 DUP3 DUP6 PUSH2 0xAF3 JUMP JUMPDEST POP SWAP4 SWAP3 POP POP POP JUMP JUMPDEST PUSH0 DUP3 PUSH1 0x1F DUP4 ADD SLT PUSH2 0xB56 JUMPI PUSH2 0xB55 PUSH2 0xA43 JUMP JUMPDEST JUMPDEST DUP2 CALLDATALOAD PUSH2 0xB66 DUP5 DUP3 PUSH1 0x20 DUP7 ADD PUSH2 0xB01 JUMP JUMPDEST SWAP2 POP POP SWAP3 SWAP2 POP POP JUMP JUMPDEST PUSH0 DUP1 PUSH0 PUSH1 0x60 DUP5 DUP7 SUB SLT ISZERO PUSH2 0xB86 JUMPI PUSH2 0xB85 PUSH2 0x91B JUMP JUMPDEST JUMPDEST PUSH0 PUSH2 0xB93 DUP7 DUP3 DUP8 ADD PUSH2 0x942 JUMP JUMPDEST SWAP4 POP POP PUSH1 0x20 DUP5 ADD CALLDATALOAD PUSH8 0xFFFFFFFFFFFFFFFF DUP2 GT ISZERO PUSH2 0xBB4 JUMPI PUSH2 0xBB3 PUSH2 0x91F JUMP JUMPDEST JUMPDEST PUSH2 0xBC0 DUP7 DUP3 DUP8 ADD PUSH2 0xB42 JUMP JUMPDEST SWAP3 POP POP PUSH1 0x40 DUP5 ADD CALLDATALOAD PUSH8 0xFFFFFFFFFFFFFFFF DUP2 GT ISZERO PUSH2 0xBE1 JUMPI PUSH2 0xBE0 PUSH2 0x91F JUMP JUMPDEST JUMPDEST PUSH2 0xBED DUP7 DUP3 DUP8 ADD PUSH2 0xB42 JUMP JUMPDEST SWAP2 POP POP SWAP3 POP SWAP3 POP SWAP3 JUMP JUMPDEST PUSH0 DUP2 MLOAD SWAP1 POP SWAP2 SWAP1 POP JUMP JUMPDEST PUSH0 DUP3 DUP3 MSTORE PUSH1 0x20 DUP3 ADD SWAP1 POP SWAP3 SWAP2 POP POP JUMP JUMPDEST PUSH0 DUP2 SWAP1 POP PUSH1 0x20 DUP3 ADD SWAP1 POP SWAP2 SWAP1 POP JUMP JUMPDEST PUSH2 0xC29 DUP2 PUSH2 0x923 JUMP JUMPDEST DUP3 MSTORE POP POP JUMP JUMPDEST PUSH0 DUP3 DUP3 MSTORE PUSH1 0x20 DUP3 ADD SWAP1 POP SWAP3 SWAP2 POP POP JUMP JUMPDEST PUSH0 PUSH2 0xC49 DUP3 PUSH2 0x990 JUMP JUMPDEST PUSH2 0xC53 DUP2 DUP6 PUSH2 0xC2F JUMP JUMPDEST SWAP4 POP PUSH2 0xC63 DUP2 DUP6 PUSH1 0x20 DUP7 ADD PUSH2 0x9AA JUMP JUMPDEST PUSH2 0xC6C DUP2 PUSH2 0x9B8 JUMP JUMPDEST DUP5 ADD SWAP2 POP POP SWAP3 SWAP2 POP POP JUMP JUMPDEST PUSH0 DUP2 MLOAD SWAP1 POP SWAP2 SWAP1 POP JUMP JUMPDEST PUSH0 DUP3 DUP3 MSTORE PUSH1 0x20 DUP3 ADD SWAP1 POP SWAP3 SWAP2 POP POP JUMP JUMPDEST PUSH0 DUP2 SWAP1 POP PUSH1 0x20 DUP3 ADD SWAP1 POP SWAP2 SWAP1 POP JUMP JUMPDEST PUSH0 PUSH2 0xCAB DUP4 DUP4 PUSH2 0xC20 JUMP JUMPDEST PUSH1 0x20 DUP4 ADD SWAP1 POP SWAP3 SWAP2 POP POP JUMP JUMPDEST PUSH0 PUSH1 0x20 DUP3 ADD SWAP1 POP SWAP2 SWAP1 POP JUMP JUMPDEST PUSH0 PUSH2 0xCCD DUP3 PUSH2 0xC77 JUMP JUMPDEST PUSH2 0xCD7 DUP2 DUP6 PUSH2 0xC81 JUMP JUMPDEST SWAP4 POP PUSH2 0xCE2 DUP4 PUSH2 0xC91 JUMP JUMPDEST DUP1 PUSH0 JUMPDEST DUP4 DUP2 LT ISZERO PUSH2 0xD12 JUMPI DUP2 MLOAD PUSH2 0xCF9 DUP9 DUP3 PUSH2 0xCA0 JUMP JUMPDEST SWAP8 POP PUSH2 0xD04 DUP4 PUSH2 0xCB7 JUMP JUMPDEST SWAP3 POP POP PUSH1 0x1 DUP2 ADD SWAP1 POP PUSH2 0xCE5 JUMP JUMPDEST POP DUP6 SWAP4 POP POP POP POP SWAP3 SWAP2 POP POP JUMP JUMPDEST PUSH0 PUSH1 0x80 DUP4 ADD PUSH0 DUP4 ADD MLOAD PUSH2 0xD34 PUSH0 DUP7 ADD DUP3 PUSH2 0xC20 JUMP JUMPDEST POP PUSH1 0x20 DUP4 ADD MLOAD DUP5 DUP3 SUB PUSH1 0x20 DUP7 ADD MSTORE PUSH2 0xD4C DUP3 DUP3 PUSH2 0xC3F JUMP JUMPDEST SWAP2 POP POP PUSH1 0x40 DUP4 ADD MLOAD DUP5 DUP3 SUB PUSH1 0x40 DUP7 ADD MSTORE PUSH2 0xD66 DUP3 DUP3 PUSH2 0xC3F JUMP JUMPDEST SWAP2 POP POP PUSH1 0x60 DUP4 ADD MLOAD DUP5 DUP3 SUB PUSH1 0x60 DUP7 ADD MSTORE PUSH2 0xD80 DUP3 DUP3 PUSH2 0xCC3 JUMP JUMPDEST SWAP2 POP POP DUP1 SWAP2 POP POP SWAP3 SWAP2 POP POP JUMP JUMPDEST PUSH0 PUSH2 0xD98 DUP4 DUP4 PUSH2 0xD1F JUMP JUMPDEST SWAP1 POP SWAP3 SWAP2 POP POP JUMP JUMPDEST PUSH0 PUSH1 0x20 DUP3 ADD SWAP1 POP SWAP2 SWAP1 POP JUMP JUMPDEST PUSH0 PUSH2 0xDB6 DUP3 PUSH2 0xBF7 JUMP JUMPDEST PUSH2 0xDC0 DUP2 DUP6 PUSH2 0xC01 JUMP JUMPDEST SWAP4 POP DUP4 PUSH1 0x20 DUP3 MUL DUP6 ADD PUSH2 0xDD2 DUP6 PUSH2 0xC11 JUMP JUMPDEST DUP1 PUSH0 JUMPDEST DUP6 DUP2 LT ISZERO PUSH2 0xE0D JUMPI DUP5 DUP5 SUB DUP10 MSTORE DUP2 MLOAD PUSH2 0xDEE DUP6 DUP3 PUSH2 0xD8D JUMP JUMPDEST SWAP5 POP PUSH2 0xDF9 DUP4 PUSH2 0xDA0 JUMP JUMPDEST SWAP3 POP PUSH1 0x20 DUP11 ADD SWAP10 POP POP PUSH1 0x1 DUP2 ADD SWAP1 POP PUSH2 0xDD5 JUMP JUMPDEST POP DUP3 SWAP8 POP DUP8 SWAP6 POP POP POP POP POP POP SWAP3 SWAP2 POP POP JUMP JUMPDEST PUSH0 PUSH1 0x20 DUP3 ADD SWAP1 POP DUP2 DUP2 SUB PUSH0 DUP4 ADD MSTORE PUSH2 0xE37 DUP2 DUP5 PUSH2 0xDAC JUMP JUMPDEST SWAP1 POP SWAP3 SWAP2 POP POP JUMP JUMPDEST PUSH32 0x4F6E6C7920746865206F776E65722063616E2063616C6C20746869732066756E PUSH0 DUP3 ADD MSTORE PUSH32 0x6374696F6E000000000000000000000000000000000000000000000000000000 PUSH1 0x20 DUP3 ADD MSTORE POP JUMP JUMPDEST PUSH0 PUSH2 0xE99 PUSH1 0x25 DUP4 PUSH2 0x99A JUMP JUMPDEST SWAP2 POP PUSH2 0xEA4 DUP3 PUSH2 0xE3F JUMP JUMPDEST PUSH1 0x40 DUP3 ADD SWAP1 POP SWAP2 SWAP1 POP JUMP JUMPDEST PUSH0 PUSH1 0x20 DUP3 ADD SWAP1 POP DUP2 DUP2 SUB PUSH0 DUP4 ADD MSTORE PUSH2 0xEC6 DUP2 PUSH2 0xE8D JUMP JUMPDEST SWAP1 POP SWAP2 SWAP1 POP JUMP JUMPDEST PUSH0 PUSH1 0x20 DUP3 ADD SWAP1 POP PUSH2 0xEE0 PUSH0 DUP4 ADD DUP5 PUSH2 0x981 JUMP JUMPDEST SWAP3 SWAP2 POP POP JUMP JUMPDEST PUSH32 0x4E487B7100000000000000000000000000000000000000000000000000000000 PUSH0 MSTORE PUSH1 0x11 PUSH1 0x4 MSTORE PUSH1 0x24 PUSH0 REVERT JUMPDEST PUSH0 PUSH2 0xF1D DUP3 PUSH2 0x923 JUMP JUMPDEST SWAP2 POP PUSH0 DUP3 SUB PUSH2 0xF2F JUMPI PUSH2 0xF2E PUSH2 0xEE6 JUMP JUMPDEST JUMPDEST PUSH1 0x1 DUP3 SUB SWAP1 POP SWAP2 SWAP1 POP JUMP JUMPDEST PUSH32 0x4E487B7100000000000000000000000000000000000000000000000000000000 PUSH0 MSTORE PUSH1 0x22 PUSH1 0x4 MSTORE PUSH1 0x24 PUSH0 REVERT JUMPDEST PUSH0 PUSH1 0x2 DUP3 DIV SWAP1 POP PUSH1 0x1 DUP3 AND DUP1 PUSH2 0xF7E JUMPI PUSH1 0x7F DUP3 AND SWAP2 POP JUMPDEST PUSH1 0x20 DUP3 LT DUP2 SUB PUSH2 0xF91 JUMPI PUSH2 0xF90 PUSH2 0xF3A JUMP JUMPDEST JUMPDEST POP SWAP2 SWAP1 POP JUMP JUMPDEST PUSH0 DUP2 SWAP1 POP DUP2 PUSH0 MSTORE PUSH1 0x20 PUSH0 KECCAK256 SWAP1 POP SWAP2 SWAP1 POP JUMP JUMPDEST PUSH0 PUSH1 0x20 PUSH1 0x1F DUP4 ADD DIV SWAP1 POP SWAP2 SWAP1 POP JUMP JUMPDEST PUSH0 DUP3 DUP3 SHL SWAP1 POP SWAP3 SWAP2 POP POP JUMP JUMPDEST PUSH0 PUSH1 0x8 DUP4 MUL PUSH2 0xFF3 PUSH32 0xFFFFFFFFFFFFFFFFFFFFFFFFFFFFFFFFFFFFFFFFFFFFFFFFFFFFFFFFFFFFFFFF DUP3 PUSH2 0xFB8 JUMP JUMPDEST PUSH2 0xFFD DUP7 DUP4 PUSH2 0xFB8 JUMP JUMPDEST SWAP6 POP DUP1 NOT DUP5 AND SWAP4 POP DUP1 DUP7 AND DUP5 OR SWAP3 POP POP POP SWAP4 SWAP3 POP POP POP JUMP JUMPDEST PUSH0 DUP2 SWAP1 POP SWAP2 SWAP1 POP JUMP JUMPDEST PUSH0 PUSH2 0x1038 PUSH2 0x1033 PUSH2 0x102E DUP5 PUSH2 0x923 JUMP JUMPDEST PUSH2 0x1015 JUMP JUMPDEST PUSH2 0x923 JUMP JUMPDEST SWAP1 POP SWAP2 SWAP1 POP JUMP JUMPDEST PUSH0 DUP2 SWAP1 POP SWAP2 SWAP1 POP JUMP JUMPDEST PUSH2 0x1051 DUP4 PUSH2 0x101E JUMP JUMPDEST PUSH2 0x1065 PUSH2 0x105D DUP3 PUSH2 0x103F JUMP JUMPDEST DUP5 DUP5 SLOAD PUSH2 0xFC4 JUMP JUMPDEST DUP3 SSTORE POP POP POP POP JUMP JUMPDEST PUSH0 SWAP1 JUMP JUMPDEST PUSH2 0x1079 PUSH2 0x106D JUMP JUMPDEST PUSH2 0x1084 DUP2 DUP5 DUP5 PUSH2 0x1048 JUMP JUMPDEST POP POP POP JUMP JUMPDEST JUMPDEST DUP2 DUP2 LT ISZERO PUSH2 0x10A7 JUMPI PUSH2 0x109C PUSH0 DUP3 PUSH2 0x1071 JUMP JUMPDEST PUSH1 0x1 DUP2 ADD SWAP1 POP PUSH2 0x108A JUMP JUMPDEST POP POP JUMP JUMPDEST PUSH1 0x1F DUP3 GT ISZERO PUSH2 0x10EC JUMPI PUSH2 0x10BD DUP2 PUSH2 0xF97 JUMP JUMPDEST PUSH2 0x10C6 DUP5 PUSH2 0xFA9 JUMP JUMPDEST DUP2 ADD PUSH1 0x20 DUP6 LT ISZERO PUSH2 0x10D5 JUMPI DUP2 SWAP1 POP JUMPDEST PUSH2 0x10E9 PUSH2 0x10E1 DUP6 PUSH2 0xFA9 JUMP JUMPDEST DUP4 ADD DUP3 PUSH2 0x1089 JUMP JUMPDEST POP POP JUMPDEST POP POP POP JUMP JUMPDEST PUSH0 DUP3 DUP3 SHR SWAP1 POP SWAP3 SWAP2 POP POP JUMP JUMPDEST PUSH0 PUSH2 0x110C PUSH0 NOT DUP5 PUSH1 0x8 MUL PUSH2 0x10F1 JUMP JUMPDEST NOT DUP1 DUP4 AND SWAP2 POP POP SWAP3 SWAP2 POP POP JUMP JUMPDEST PUSH0 PUSH2 0x1124 DUP4 DUP4 PUSH2 0x10FD JUMP JUMPDEST SWAP2 POP DUP3 PUSH1 0x2 MUL DUP3 OR SWAP1 POP SWAP3 SWAP2 POP POP JUMP JUMPDEST PUSH2 0x113D DUP3 PUSH2 0x990 JUMP JUMPDEST PUSH8 0xFFFFFFFFFFFFFFFF DUP2 GT ISZERO PUSH2 0x1156 JUMPI PUSH2 0x1155 PUSH2 0xA4B JUMP JUMPDEST JUMPDEST PUSH2 0x1160 DUP3 SLOAD PUSH2 0xF67 JUMP JUMPDEST PUSH2 0x116B DUP3 DUP3 DUP6 PUSH2 0x10AB JUMP JUMPDEST PUSH0 PUSH1 0x20 SWAP1 POP PUSH1 0x1F DUP4 GT PUSH1 0x1 DUP2 EQ PUSH2 0x119C JUMPI PUSH0 DUP5 ISZERO PUSH2 0x118A JUMPI DUP3 DUP8 ADD MLOAD SWAP1 POP JUMPDEST PUSH2 0x1194 DUP6 DUP3 PUSH2 0x1119 JUMP JUMPDEST DUP7 SSTORE POP PUSH2 0x11FB JUMP JUMPDEST PUSH1 0x1F NOT DUP5 AND PUSH2 0x11AA DUP7 PUSH2 0xF97 JUMP JUMPDEST PUSH0 JUMPDEST DUP3 DUP2 LT ISZERO PUSH2 0x11D1 JUMPI DUP5 DUP10 ADD MLOAD DUP3 SSTORE PUSH1 0x1 DUP3 ADD SWAP2 POP PUSH1 0x20 DUP6 ADD SWAP5 POP PUSH1 0x20 DUP2 ADD SWAP1 POP PUSH2 0x11AC JUMP JUMPDEST DUP7 DUP4 LT ISZERO PUSH2 0x11EE JUMPI DUP5 DUP10 ADD MLOAD PUSH2 0x11EA PUSH1 0x1F DUP10 AND DUP3 PUSH2 0x10FD JUMP JUMPDEST DUP4 SSTORE POP JUMPDEST PUSH1 0x1 PUSH1 0x2 DUP9 MUL ADD DUP9 SSTORE POP POP POP JUMPDEST POP POP POP POP POP POP JUMP JUMPDEST PUSH0 PUSH2 0x120D DUP3 PUSH2 0x923 JUMP JUMPDEST SWAP2 POP PUSH32 0xFFFFFFFFFFFFFFFFFFFFFFFFFFFFFFFFFFFFFFFFFFFFFFFFFFFFFFFFFFFFFFFF DUP3 SUB PUSH2 0x123F JUMPI PUSH2 0x123E PUSH2 0xEE6 JUMP JUMPDEST JUMPDEST PUSH1 0x1 DUP3 ADD SWAP1 POP SWAP2 SWAP1 POP JUMP JUMPDEST PUSH32 0x4E487B7100000000000000000000000000000000000000000000000000000000 PUSH0 MSTORE PUSH1 0x32 PUSH1 0x4 MSTORE PUSH1 0x24 PUSH0 REVERT INVALID LOG2 PUSH5 0x6970667358 0x22 SLT KECCAK256 PUSH31 0x6BFC9602C43CB767355B1F3FB0607AED850743A2C1937B2E9C64A856C8694 PUSH5 0x736F6C6343 STOP ADDMOD NOT STOP CALLER "
				},
				"gasEstimates": {
					"creation": {
						"codeDepositCost": "956200",
						"executionCost": "infinite",
						"totalCost": "infinite"
					},
					"external": {
						"addContact(uint256,string,string)": "infinite",
						"contacts(uint256)": "infinite",
						"deleteContact(uint256)": "infinite",
						"getAllContacts()": "infinite",
						"owner()": "2483"
					}
				},
				"methodIdentifiers": {
					"addContact(uint256,string,string)": "e6e9d873",
					"contacts(uint256)": "e0f478cb",
					"deleteContact(uint256)": "b9ed6fca",
					"getAllContacts()": "ef1d6ddd",
					"owner()": "8da5cb5b"
				}
			},
			"storageLayout": {
				"storage": [
					{
						"astId": 13,
						"contract": "base/artifacts/AddressBook.sol:AddressBook",
						"label": "owner",
						"offset": 0,
						"slot": "0",
						"type": "t_address"
					},
					{
						"astId": 15,
						"contract": "base/artifacts/AddressBook.sol:AddressBook",
						"label": "totalContacts",
						"offset": 0,
						"slot": "1",
						"type": "t_uint256"
					},
					{
						"astId": 20,
						"contract": "base/artifacts/AddressBook.sol:AddressBook",
						"label": "contacts",
						"offset": 0,
						"slot": "2",
						"type": "t_mapping(t_uint256,t_struct(Contact)11_storage)"
					}
				],
				"types": {
					"t_address": {
						"encoding": "inplace",
						"label": "address",
						"numberOfBytes": "20"
					},
					"t_array(t_uint256)dyn_storage": {
						"base": "t_uint256",
						"encoding": "dynamic_array",
						"label": "uint256[]",
						"numberOfBytes": "32"
					},
					"t_mapping(t_uint256,t_struct(Contact)11_storage)": {
						"encoding": "mapping",
						"key": "t_uint256",
						"label": "mapping(uint256 => struct AddressBook.Contact)",
						"numberOfBytes": "32",
						"value": "t_struct(Contact)11_storage"
					},
					"t_string_storage": {
						"encoding": "bytes",
						"label": "string",
						"numberOfBytes": "32"
					},
					"t_struct(Contact)11_storage": {
						"encoding": "inplace",
						"label": "struct AddressBook.Contact",
						"members": [
							{
								"astId": 3,
								"contract": "base/artifacts/AddressBook.sol:AddressBook",
								"label": "id",
								"offset": 0,
								"slot": "0",
								"type": "t_uint256"
							},
							{
								"astId": 5,
								"contract": "base/artifacts/AddressBook.sol:AddressBook",
								"label": "firstName",
								"offset": 0,
								"slot": "1",
								"type": "t_string_storage"
							},
							{
								"astId": 7,
								"contract": "base/artifacts/AddressBook.sol:AddressBook",
								"label": "lastName",
								"offset": 0,
								"slot": "2",
								"type": "t_string_storage"
							},
							{
								"astId": 10,
								"contract": "base/artifacts/AddressBook.sol:AddressBook",
								"label": "phoneNumbers",
								"offset": 0,
								"slot": "3",
								"type": "t_array(t_uint256)dyn_storage"
							}
						],
						"numberOfBytes": "128"
					},
					"t_uint256": {
						"encoding": "inplace",
						"label": "uint256",
						"numberOfBytes": "32"
					}
				}
			},
			"userdoc": {
				"kind": "user",
				"methods": {},
				"version": 1
			}
		}
	}
}