{
	"contrakts base/artifacts/EmployeeStorage.sol": {
		"EmployeeStorage": {
			"abi": [
				{
					"inputs": [],
					"stateMutability": "nonpayable",
					"type": "constructor"
				},
				{
					"inputs": [
						{
							"internalType": "uint256",
							"name": "_shares",
							"type": "uint256"
						}
					],
					"name": "TooManyShares",
					"type": "error"
				},
				{
					"inputs": [
						{
							"internalType": "uint256",
							"name": "_slot",
							"type": "uint256"
						}
					],
					"name": "checkForPacking",
					"outputs": [
						{
							"internalType": "uint256",
							"name": "r",
							"type": "uint256"
						}
					],
					"stateMutability": "view",
					"type": "function"
				},
				{
					"inputs": [],
					"name": "debugResetShares",
					"outputs": [],
					"stateMutability": "nonpayable",
					"type": "function"
				},
				{
					"inputs": [
						{
							"internalType": "uint16",
							"name": "_newShares",
							"type": "uint16"
						}
					],
					"name": "grantShares",
					"outputs": [],
					"stateMutability": "nonpayable",
					"type": "function"
				},
				{
					"inputs": [],
					"name": "idNumber",
					"outputs": [
						{
							"internalType": "uint256",
							"name": "",
							"type": "uint256"
						}
					],
					"stateMutability": "view",
					"type": "function"
				},
				{
					"inputs": [],
					"name": "name",
					"outputs": [
						{
							"internalType": "string",
							"name": "",
							"type": "string"
						}
					],
					"stateMutability": "view",
					"type": "function"
				},
				{
					"inputs": [],
					"name": "viewSalary",
					"outputs": [
						{
							"internalType": "uint32",
							"name": "",
							"type": "uint32"
						}
					],
					"stateMutability": "view",
					"type": "function"
				},
				{
					"inputs": [],
					"name": "viewShares",
					"outputs": [
						{
							"internalType": "uint16",
							"name": "",
							"type": "uint16"
						}
					],
					"stateMutability": "view",
					"type": "function"
				}
			],
			"devdoc": {
				"kind": "dev",
				"methods": {},
				"version": 1
			},
			"evm": {
				"assembly": "    /* \"contrakts base/artifacts/EmployeeStorage.sol\":120:2428  contract EmployeeStorage {... */\n  mstore(0x40, 0x80)\n    /* \"contrakts base/artifacts/EmployeeStorage.sol\":677:805  constructor() {... */\n  callvalue\n  dup1\n  iszero\n  tag_1\n  jumpi\n  0x00\n  dup1\n  revert\ntag_1:\n  pop\n    /* \"contrakts base/artifacts/EmployeeStorage.sol\":711:715  1000 */\n  0x03e8\n    /* \"contrakts base/artifacts/EmployeeStorage.sol\":702:708  shares */\n  0x00\n  dup1\n    /* \"contrakts base/artifacts/EmployeeStorage.sol\":702:715  shares = 1000 */\n  0x0100\n  exp\n  dup2\n  sload\n  dup2\n  0xffff\n  mul\n  not\n  and\n  swap1\n  dup4\n  0xffff\n  and\n  mul\n  or\n  swap1\n  sstore\n  pop\n    /* \"contrakts base/artifacts/EmployeeStorage.sol\":726:738  name = \"Pat\" */\n  mload(0x40)\n  dup1\n  0x40\n  add\n  0x40\n  mstore\n  dup1\n  0x03\n  dup2\n  mstore\n  0x20\n  add\n  0x5061740000000000000000000000000000000000000000000000000000000000\n  dup2\n  mstore\n  pop\n    /* \"contrakts base/artifacts/EmployeeStorage.sol\":726:730  name */\n  0x02\n    /* \"contrakts base/artifacts/EmployeeStorage.sol\":726:738  name = \"Pat\" */\n  swap1\n  dup2\n  tag_4\n  swap2\n  swap1\n  tag_5\n  jump\t// in\ntag_4:\n  pop\n    /* \"contrakts base/artifacts/EmployeeStorage.sol\":758:763  50000 */\n  0xc350\n    /* \"contrakts base/artifacts/EmployeeStorage.sol\":749:755  salary */\n  0x00\n  0x02\n    /* \"contrakts base/artifacts/EmployeeStorage.sol\":749:763  salary = 50000 */\n  0x0100\n  exp\n  dup2\n  sload\n  dup2\n  0xffffffff\n  mul\n  not\n  and\n  swap1\n  dup4\n  0xffffffff\n  and\n  mul\n  or\n  swap1\n  sstore\n  pop\n    /* \"contrakts base/artifacts/EmployeeStorage.sol\":785:797  112358132134 */\n  0x1a291109a6\n    /* \"contrakts base/artifacts/EmployeeStorage.sol\":774:782  idNumber */\n  0x01\n    /* \"contrakts base/artifacts/EmployeeStorage.sol\":774:797  idNumber = 112358132134 */\n  dup2\n  swap1\n  sstore\n  pop\n    /* \"contrakts base/artifacts/EmployeeStorage.sol\":120:2428  contract EmployeeStorage {... */\n  jump(tag_6)\n    /* \"#utility.yul\":7:106   */\ntag_7:\n    /* \"#utility.yul\":59:65   */\n  0x00\n    /* \"#utility.yul\":93:98   */\n  dup2\n    /* \"#utility.yul\":87:99   */\n  mload\n    /* \"#utility.yul\":77:99   */\n  swap1\n  pop\n    /* \"#utility.yul\":7:106   */\n  swap2\n  swap1\n  pop\n  jump\t// out\n    /* \"#utility.yul\":112:292   */\ntag_8:\n    /* \"#utility.yul\":160:237   */\n  0x4e487b7100000000000000000000000000000000000000000000000000000000\n    /* \"#utility.yul\":157:158   */\n  0x00\n    /* \"#utility.yul\":150:238   */\n  mstore\n    /* \"#utility.yul\":257:261   */\n  0x41\n    /* \"#utility.yul\":254:255   */\n  0x04\n    /* \"#utility.yul\":247:262   */\n  mstore\n    /* \"#utility.yul\":281:285   */\n  0x24\n    /* \"#utility.yul\":278:279   */\n  0x00\n    /* \"#utility.yul\":271:286   */\n  revert\n    /* \"#utility.yul\":298:478   */\ntag_9:\n    /* \"#utility.yul\":346:423   */\n  0x4e487b7100000000000000000000000000000000000000000000000000000000\n    /* \"#utility.yul\":343:344   */\n  0x00\n    /* \"#utility.yul\":336:424   */\n  mstore\n    /* \"#utility.yul\":443:447   */\n  0x22\n    /* \"#utility.yul\":440:441   */\n  0x04\n    /* \"#utility.yul\":433:448   */\n  mstore\n    /* \"#utility.yul\":467:471   */\n  0x24\n    /* \"#utility.yul\":464:465   */\n  0x00\n    /* \"#utility.yul\":457:472   */\n  revert\n    /* \"#utility.yul\":484:804   */\ntag_10:\n    /* \"#utility.yul\":528:534   */\n  0x00\n    /* \"#utility.yul\":565:566   */\n  0x02\n    /* \"#utility.yul\":559:563   */\n  dup3\n    /* \"#utility.yul\":555:567   */\n  div\n    /* \"#utility.yul\":545:567   */\n  swap1\n  pop\n    /* \"#utility.yul\":612:613   */\n  0x01\n    /* \"#utility.yul\":606:610   */\n  dup3\n    /* \"#utility.yul\":602:614   */\n  and\n    /* \"#utility.yul\":633:651   */\n  dup1\n    /* \"#utility.yul\":623:704   */\n  tag_32\n  jumpi\n    /* \"#utility.yul\":689:693   */\n  0x7f\n    /* \"#utility.yul\":681:687   */\n  dup3\n    /* \"#utility.yul\":677:694   */\n  and\n    /* \"#utility.yul\":667:694   */\n  swap2\n  pop\n    /* \"#utility.yul\":623:704   */\ntag_32:\n    /* \"#utility.yul\":751:753   */\n  0x20\n    /* \"#utility.yul\":743:749   */\n  dup3\n    /* \"#utility.yul\":740:754   */\n  lt\n    /* \"#utility.yul\":720:738   */\n  dup2\n    /* \"#utility.yul\":717:755   */\n  sub\n    /* \"#utility.yul\":714:798   */\n  tag_33\n  jumpi\n    /* \"#utility.yul\":770:788   */\n  tag_34\n  tag_9\n  jump\t// in\ntag_34:\n    /* \"#utility.yul\":714:798   */\ntag_33:\n    /* \"#utility.yul\":535:804   */\n  pop\n    /* \"#utility.yul\":484:804   */\n  swap2\n  swap1\n  pop\n  jump\t// out\n    /* \"#utility.yul\":810:951   */\ntag_11:\n    /* \"#utility.yul\":859:863   */\n  0x00\n    /* \"#utility.yul\":882:885   */\n  dup2\n    /* \"#utility.yul\":874:885   */\n  swap1\n  pop\n    /* \"#utility.yul\":905:908   */\n  dup2\n    /* \"#utility.yul\":902:903   */\n  0x00\n    /* \"#utility.yul\":895:909   */\n  mstore\n    /* \"#utility.yul\":939:943   */\n  0x20\n    /* \"#utility.yul\":936:937   */\n  0x00\n    /* \"#utility.yul\":926:944   */\n  keccak256\n    /* \"#utility.yul\":918:944   */\n  swap1\n  pop\n    /* \"#utility.yul\":810:951   */\n  swap2\n  swap1\n  pop\n  jump\t// out\n    /* \"#utility.yul\":957:1050   */\ntag_12:\n    /* \"#utility.yul\":994:1000   */\n  0x00\n    /* \"#utility.yul\":1041:1043   */\n  0x20\n    /* \"#utility.yul\":1036:1038   */\n  0x1f\n    /* \"#utility.yul\":1029:1034   */\n  dup4\n    /* \"#utility.yul\":1025:1039   */\n  add\n    /* \"#utility.yul\":1021:1044   */\n  div\n    /* \"#utility.yul\":1011:1044   */\n  swap1\n  pop\n    /* \"#utility.yul\":957:1050   */\n  swap2\n  swap1\n  pop\n  jump\t// out\n    /* \"#utility.yul\":1056:1163   */\ntag_13:\n    /* \"#utility.yul\":1100:1108   */\n  0x00\n    /* \"#utility.yul\":1150:1155   */\n  dup3\n    /* \"#utility.yul\":1144:1148   */\n  dup3\n    /* \"#utility.yul\":1140:1156   */\n  shl\n    /* \"#utility.yul\":1119:1156   */\n  swap1\n  pop\n    /* \"#utility.yul\":1056:1163   */\n  swap3\n  swap2\n  pop\n  pop\n  jump\t// out\n    /* \"#utility.yul\":1169:1562   */\ntag_14:\n    /* \"#utility.yul\":1238:1244   */\n  0x00\n    /* \"#utility.yul\":1288:1289   */\n  0x08\n    /* \"#utility.yul\":1276:1286   */\n  dup4\n    /* \"#utility.yul\":1272:1290   */\n  mul\n    /* \"#utility.yul\":1311:1408   */\n  tag_39\n    /* \"#utility.yul\":1341:1407   */\n  0xffffffffffffffffffffffffffffffffffffffffffffffffffffffffffffffff\n    /* \"#utility.yul\":1330:1339   */\n  dup3\n    /* \"#utility.yul\":1311:1408   */\n  tag_13\n  jump\t// in\ntag_39:\n    /* \"#utility.yul\":1429:1468   */\n  tag_40\n    /* \"#utility.yul\":1459:1467   */\n  dup7\n    /* \"#utility.yul\":1448:1457   */\n  dup4\n    /* \"#utility.yul\":1429:1468   */\n  tag_13\n  jump\t// in\ntag_40:\n    /* \"#utility.yul\":1417:1468   */\n  swap6\n  pop\n    /* \"#utility.yul\":1501:1505   */\n  dup1\n    /* \"#utility.yul\":1497:1506   */\n  not\n    /* \"#utility.yul\":1490:1495   */\n  dup5\n    /* \"#utility.yul\":1486:1507   */\n  and\n    /* \"#utility.yul\":1477:1507   */\n  swap4\n  pop\n    /* \"#utility.yul\":1550:1554   */\n  dup1\n    /* \"#utility.yul\":1540:1548   */\n  dup7\n    /* \"#utility.yul\":1536:1555   */\n  and\n    /* \"#utility.yul\":1529:1534   */\n  dup5\n    /* \"#utility.yul\":1526:1556   */\n  or\n    /* \"#utility.yul\":1516:1556   */\n  swap3\n  pop\n    /* \"#utility.yul\":1245:1562   */\n  pop\n  pop\n    /* \"#utility.yul\":1169:1562   */\n  swap4\n  swap3\n  pop\n  pop\n  pop\n  jump\t// out\n    /* \"#utility.yul\":1568:1645   */\ntag_15:\n    /* \"#utility.yul\":1605:1612   */\n  0x00\n    /* \"#utility.yul\":1634:1639   */\n  dup2\n    /* \"#utility.yul\":1623:1639   */\n  swap1\n  pop\n    /* \"#utility.yul\":1568:1645   */\n  swap2\n  swap1\n  pop\n  jump\t// out\n    /* \"#utility.yul\":1651:1711   */\ntag_16:\n    /* \"#utility.yul\":1679:1682   */\n  0x00\n    /* \"#utility.yul\":1700:1705   */\n  dup2\n    /* \"#utility.yul\":1693:1705   */\n  swap1\n  pop\n    /* \"#utility.yul\":1651:1711   */\n  swap2\n  swap1\n  pop\n  jump\t// out\n    /* \"#utility.yul\":1717:1859   */\ntag_17:\n    /* \"#utility.yul\":1767:1776   */\n  0x00\n    /* \"#utility.yul\":1800:1853   */\n  tag_44\n    /* \"#utility.yul\":1818:1852   */\n  tag_45\n    /* \"#utility.yul\":1827:1851   */\n  tag_46\n    /* \"#utility.yul\":1845:1850   */\n  dup5\n    /* \"#utility.yul\":1827:1851   */\n  tag_15\n  jump\t// in\ntag_46:\n    /* \"#utility.yul\":1818:1852   */\n  tag_16\n  jump\t// in\ntag_45:\n    /* \"#utility.yul\":1800:1853   */\n  tag_15\n  jump\t// in\ntag_44:\n    /* \"#utility.yul\":1787:1853   */\n  swap1\n  pop\n    /* \"#utility.yul\":1717:1859   */\n  swap2\n  swap1\n  pop\n  jump\t// out\n    /* \"#utility.yul\":1865:1940   */\ntag_18:\n    /* \"#utility.yul\":1908:1911   */\n  0x00\n    /* \"#utility.yul\":1929:1934   */\n  dup2\n    /* \"#utility.yul\":1922:1934   */\n  swap1\n  pop\n    /* \"#utility.yul\":1865:1940   */\n  swap2\n  swap1\n  pop\n  jump\t// out\n    /* \"#utility.yul\":1946:2215   */\ntag_19:\n    /* \"#utility.yul\":2056:2095   */\n  tag_49\n    /* \"#utility.yul\":2087:2094   */\n  dup4\n    /* \"#utility.yul\":2056:2095   */\n  tag_17\n  jump\t// in\ntag_49:\n    /* \"#utility.yul\":2117:2208   */\n  tag_50\n    /* \"#utility.yul\":2166:2207   */\n  tag_51\n    /* \"#utility.yul\":2190:2206   */\n  dup3\n    /* \"#utility.yul\":2166:2207   */\n  tag_18\n  jump\t// in\ntag_51:\n    /* \"#utility.yul\":2158:2164   */\n  dup5\n    /* \"#utility.yul\":2151:2155   */\n  dup5\n    /* \"#utility.yul\":2145:2156   */\n  sload\n    /* \"#utility.yul\":2117:2208   */\n  tag_14\n  jump\t// in\ntag_50:\n    /* \"#utility.yul\":2111:2115   */\n  dup3\n    /* \"#utility.yul\":2104:2209   */\n  sstore\n    /* \"#utility.yul\":2022:2215   */\n  pop\n    /* \"#utility.yul\":1946:2215   */\n  pop\n  pop\n  pop\n  jump\t// out\n    /* \"#utility.yul\":2221:2294   */\ntag_20:\n    /* \"#utility.yul\":2266:2269   */\n  0x00\n    /* \"#utility.yul\":2221:2294   */\n  swap1\n  jump\t// out\n    /* \"#utility.yul\":2300:2489   */\ntag_21:\n    /* \"#utility.yul\":2377:2409   */\n  tag_54\n  tag_20\n  jump\t// in\ntag_54:\n    /* \"#utility.yul\":2418:2483   */\n  tag_55\n    /* \"#utility.yul\":2476:2482   */\n  dup2\n    /* \"#utility.yul\":2468:2474   */\n  dup5\n    /* \"#utility.yul\":2462:2466   */\n  dup5\n    /* \"#utility.yul\":2418:2483   */\n  tag_19\n  jump\t// in\ntag_55:\n    /* \"#utility.yul\":2353:2489   */\n  pop\n    /* \"#utility.yul\":2300:2489   */\n  pop\n  pop\n  jump\t// out\n    /* \"#utility.yul\":2495:2681   */\ntag_22:\n    /* \"#utility.yul\":2555:2675   */\ntag_57:\n    /* \"#utility.yul\":2572:2575   */\n  dup2\n    /* \"#utility.yul\":2565:2570   */\n  dup2\n    /* \"#utility.yul\":2562:2576   */\n  lt\n    /* \"#utility.yul\":2555:2675   */\n  iszero\n  tag_59\n  jumpi\n    /* \"#utility.yul\":2626:2665   */\n  tag_60\n    /* \"#utility.yul\":2663:2664   */\n  0x00\n    /* \"#utility.yul\":2656:2661   */\n  dup3\n    /* \"#utility.yul\":2626:2665   */\n  tag_21\n  jump\t// in\ntag_60:\n    /* \"#utility.yul\":2599:2600   */\n  0x01\n    /* \"#utility.yul\":2592:2597   */\n  dup2\n    /* \"#utility.yul\":2588:2601   */\n  add\n    /* \"#utility.yul\":2579:2601   */\n  swap1\n  pop\n    /* \"#utility.yul\":2555:2675   */\n  jump(tag_57)\ntag_59:\n    /* \"#utility.yul\":2495:2681   */\n  pop\n  pop\n  jump\t// out\n    /* \"#utility.yul\":2687:3230   */\ntag_23:\n    /* \"#utility.yul\":2788:2790   */\n  0x1f\n    /* \"#utility.yul\":2783:2786   */\n  dup3\n    /* \"#utility.yul\":2780:2791   */\n  gt\n    /* \"#utility.yul\":2777:3223   */\n  iszero\n  tag_62\n  jumpi\n    /* \"#utility.yul\":2822:2860   */\n  tag_63\n    /* \"#utility.yul\":2854:2859   */\n  dup2\n    /* \"#utility.yul\":2822:2860   */\n  tag_11\n  jump\t// in\ntag_63:\n    /* \"#utility.yul\":2906:2935   */\n  tag_64\n    /* \"#utility.yul\":2924:2934   */\n  dup5\n    /* \"#utility.yul\":2906:2935   */\n  tag_12\n  jump\t// in\ntag_64:\n    /* \"#utility.yul\":2896:2904   */\n  dup2\n    /* \"#utility.yul\":2892:2936   */\n  add\n    /* \"#utility.yul\":3089:3091   */\n  0x20\n    /* \"#utility.yul\":3077:3087   */\n  dup6\n    /* \"#utility.yul\":3074:3092   */\n  lt\n    /* \"#utility.yul\":3071:3120   */\n  iszero\n  tag_65\n  jumpi\n    /* \"#utility.yul\":3110:3118   */\n  dup2\n    /* \"#utility.yul\":3095:3118   */\n  swap1\n  pop\n    /* \"#utility.yul\":3071:3120   */\ntag_65:\n    /* \"#utility.yul\":3133:3213   */\n  tag_66\n    /* \"#utility.yul\":3189:3211   */\n  tag_67\n    /* \"#utility.yul\":3207:3210   */\n  dup6\n    /* \"#utility.yul\":3189:3211   */\n  tag_12\n  jump\t// in\ntag_67:\n    /* \"#utility.yul\":3179:3187   */\n  dup4\n    /* \"#utility.yul\":3175:3212   */\n  add\n    /* \"#utility.yul\":3162:3173   */\n  dup3\n    /* \"#utility.yul\":3133:3213   */\n  tag_22\n  jump\t// in\ntag_66:\n    /* \"#utility.yul\":2792:3223   */\n  pop\n  pop\n    /* \"#utility.yul\":2777:3223   */\ntag_62:\n    /* \"#utility.yul\":2687:3230   */\n  pop\n  pop\n  pop\n  jump\t// out\n    /* \"#utility.yul\":3236:3353   */\ntag_24:\n    /* \"#utility.yul\":3290:3298   */\n  0x00\n    /* \"#utility.yul\":3340:3345   */\n  dup3\n    /* \"#utility.yul\":3334:3338   */\n  dup3\n    /* \"#utility.yul\":3330:3346   */\n  shr\n    /* \"#utility.yul\":3309:3346   */\n  swap1\n  pop\n    /* \"#utility.yul\":3236:3353   */\n  swap3\n  swap2\n  pop\n  pop\n  jump\t// out\n    /* \"#utility.yul\":3359:3528   */\ntag_25:\n    /* \"#utility.yul\":3403:3409   */\n  0x00\n    /* \"#utility.yul\":3436:3487   */\n  tag_70\n    /* \"#utility.yul\":3484:3485   */\n  0x00\n    /* \"#utility.yul\":3480:3486   */\n  not\n    /* \"#utility.yul\":3472:3477   */\n  dup5\n    /* \"#utility.yul\":3469:3470   */\n  0x08\n    /* \"#utility.yul\":3465:3478   */\n  mul\n    /* \"#utility.yul\":3436:3487   */\n  tag_24\n  jump\t// in\ntag_70:\n    /* \"#utility.yul\":3432:3488   */\n  not\n    /* \"#utility.yul\":3517:3521   */\n  dup1\n    /* \"#utility.yul\":3511:3515   */\n  dup4\n    /* \"#utility.yul\":3507:3522   */\n  and\n    /* \"#utility.yul\":3497:3522   */\n  swap2\n  pop\n    /* \"#utility.yul\":3410:3528   */\n  pop\n    /* \"#utility.yul\":3359:3528   */\n  swap3\n  swap2\n  pop\n  pop\n  jump\t// out\n    /* \"#utility.yul\":3533:3828   */\ntag_26:\n    /* \"#utility.yul\":3609:3613   */\n  0x00\n    /* \"#utility.yul\":3755:3784   */\n  tag_72\n    /* \"#utility.yul\":3780:3783   */\n  dup4\n    /* \"#utility.yul\":3774:3778   */\n  dup4\n    /* \"#utility.yul\":3755:3784   */\n  tag_25\n  jump\t// in\ntag_72:\n    /* \"#utility.yul\":3747:3784   */\n  swap2\n  pop\n    /* \"#utility.yul\":3817:3820   */\n  dup3\n    /* \"#utility.yul\":3814:3815   */\n  0x02\n    /* \"#utility.yul\":3810:3821   */\n  mul\n    /* \"#utility.yul\":3804:3808   */\n  dup3\n    /* \"#utility.yul\":3801:3822   */\n  or\n    /* \"#utility.yul\":3793:3822   */\n  swap1\n  pop\n    /* \"#utility.yul\":3533:3828   */\n  swap3\n  swap2\n  pop\n  pop\n  jump\t// out\n    /* \"#utility.yul\":3833:5228   */\ntag_5:\n    /* \"#utility.yul\":3950:3987   */\n  tag_74\n    /* \"#utility.yul\":3983:3986   */\n  dup3\n    /* \"#utility.yul\":3950:3987   */\n  tag_7\n  jump\t// in\ntag_74:\n    /* \"#utility.yul\":4052:4070   */\n  0xffffffffffffffff\n    /* \"#utility.yul\":4044:4050   */\n  dup2\n    /* \"#utility.yul\":4041:4071   */\n  gt\n    /* \"#utility.yul\":4038:4094   */\n  iszero\n  tag_75\n  jumpi\n    /* \"#utility.yul\":4074:4092   */\n  tag_76\n  tag_8\n  jump\t// in\ntag_76:\n    /* \"#utility.yul\":4038:4094   */\ntag_75:\n    /* \"#utility.yul\":4118:4156   */\n  tag_77\n    /* \"#utility.yul\":4150:4154   */\n  dup3\n    /* \"#utility.yul\":4144:4155   */\n  sload\n    /* \"#utility.yul\":4118:4156   */\n  tag_10\n  jump\t// in\ntag_77:\n    /* \"#utility.yul\":4203:4270   */\n  tag_78\n    /* \"#utility.yul\":4263:4269   */\n  dup3\n    /* \"#utility.yul\":4255:4261   */\n  dup3\n    /* \"#utility.yul\":4249:4253   */\n  dup6\n    /* \"#utility.yul\":4203:4270   */\n  tag_23\n  jump\t// in\ntag_78:\n    /* \"#utility.yul\":4297:4298   */\n  0x00\n    /* \"#utility.yul\":4321:4325   */\n  0x20\n    /* \"#utility.yul\":4308:4325   */\n  swap1\n  pop\n    /* \"#utility.yul\":4353:4355   */\n  0x1f\n    /* \"#utility.yul\":4345:4351   */\n  dup4\n    /* \"#utility.yul\":4342:4356   */\n  gt\n    /* \"#utility.yul\":4370:4371   */\n  0x01\n    /* \"#utility.yul\":4365:4983   */\n  dup2\n  eq\n  tag_80\n  jumpi\n    /* \"#utility.yul\":5027:5028   */\n  0x00\n    /* \"#utility.yul\":5044:5050   */\n  dup5\n    /* \"#utility.yul\":5041:5118   */\n  iszero\n  tag_81\n  jumpi\n    /* \"#utility.yul\":5093:5102   */\n  dup3\n    /* \"#utility.yul\":5088:5091   */\n  dup8\n    /* \"#utility.yul\":5084:5103   */\n  add\n    /* \"#utility.yul\":5078:5104   */\n  mload\n    /* \"#utility.yul\":5069:5104   */\n  swap1\n  pop\n    /* \"#utility.yul\":5041:5118   */\ntag_81:\n    /* \"#utility.yul\":5144:5211   */\n  tag_82\n    /* \"#utility.yul\":5204:5210   */\n  dup6\n    /* \"#utility.yul\":5197:5202   */\n  dup3\n    /* \"#utility.yul\":5144:5211   */\n  tag_26\n  jump\t// in\ntag_82:\n    /* \"#utility.yul\":5138:5142   */\n  dup7\n    /* \"#utility.yul\":5131:5212   */\n  sstore\n    /* \"#utility.yul\":5000:5222   */\n  pop\n    /* \"#utility.yul\":4335:5222   */\n  jump(tag_79)\n    /* \"#utility.yul\":4365:4983   */\ntag_80:\n    /* \"#utility.yul\":4417:4421   */\n  0x1f\n    /* \"#utility.yul\":4413:4422   */\n  not\n    /* \"#utility.yul\":4405:4411   */\n  dup5\n    /* \"#utility.yul\":4401:4423   */\n  and\n    /* \"#utility.yul\":4451:4488   */\n  tag_83\n    /* \"#utility.yul\":4483:4487   */\n  dup7\n    /* \"#utility.yul\":4451:4488   */\n  tag_11\n  jump\t// in\ntag_83:\n    /* \"#utility.yul\":4510:4511   */\n  0x00\n    /* \"#utility.yul\":4524:4732   */\ntag_84:\n    /* \"#utility.yul\":4538:4545   */\n  dup3\n    /* \"#utility.yul\":4535:4536   */\n  dup2\n    /* \"#utility.yul\":4532:4546   */\n  lt\n    /* \"#utility.yul\":4524:4732   */\n  iszero\n  tag_86\n  jumpi\n    /* \"#utility.yul\":4617:4626   */\n  dup5\n    /* \"#utility.yul\":4612:4615   */\n  dup10\n    /* \"#utility.yul\":4608:4627   */\n  add\n    /* \"#utility.yul\":4602:4628   */\n  mload\n    /* \"#utility.yul\":4594:4600   */\n  dup3\n    /* \"#utility.yul\":4587:4629   */\n  sstore\n    /* \"#utility.yul\":4668:4669   */\n  0x01\n    /* \"#utility.yul\":4660:4666   */\n  dup3\n    /* \"#utility.yul\":4656:4670   */\n  add\n    /* \"#utility.yul\":4646:4670   */\n  swap2\n  pop\n    /* \"#utility.yul\":4715:4717   */\n  0x20\n    /* \"#utility.yul\":4704:4713   */\n  dup6\n    /* \"#utility.yul\":4700:4718   */\n  add\n    /* \"#utility.yul\":4687:4718   */\n  swap5\n  pop\n    /* \"#utility.yul\":4561:4565   */\n  0x20\n    /* \"#utility.yul\":4558:4559   */\n  dup2\n    /* \"#utility.yul\":4554:4566   */\n  add\n    /* \"#utility.yul\":4549:4566   */\n  swap1\n  pop\n    /* \"#utility.yul\":4524:4732   */\n  jump(tag_84)\ntag_86:\n    /* \"#utility.yul\":4760:4766   */\n  dup7\n    /* \"#utility.yul\":4751:4758   */\n  dup4\n    /* \"#utility.yul\":4748:4767   */\n  lt\n    /* \"#utility.yul\":4745:4924   */\n  iszero\n  tag_87\n  jumpi\n    /* \"#utility.yul\":4818:4827   */\n  dup5\n    /* \"#utility.yul\":4813:4816   */\n  dup10\n    /* \"#utility.yul\":4809:4828   */\n  add\n    /* \"#utility.yul\":4803:4829   */\n  mload\n    /* \"#utility.yul\":4861:4909   */\n  tag_88\n    /* \"#utility.yul\":4903:4907   */\n  0x1f\n    /* \"#utility.yul\":4895:4901   */\n  dup10\n    /* \"#utility.yul\":4891:4908   */\n  and\n    /* \"#utility.yul\":4880:4889   */\n  dup3\n    /* \"#utility.yul\":4861:4909   */\n  tag_25\n  jump\t// in\ntag_88:\n    /* \"#utility.yul\":4853:4859   */\n  dup4\n    /* \"#utility.yul\":4846:4910   */\n  sstore\n    /* \"#utility.yul\":4768:4924   */\n  pop\n    /* \"#utility.yul\":4745:4924   */\ntag_87:\n    /* \"#utility.yul\":4970:4971   */\n  0x01\n    /* \"#utility.yul\":4966:4967   */\n  0x02\n    /* \"#utility.yul\":4958:4964   */\n  dup9\n    /* \"#utility.yul\":4954:4968   */\n  mul\n    /* \"#utility.yul\":4950:4972   */\n  add\n    /* \"#utility.yul\":4944:4948   */\n  dup9\n    /* \"#utility.yul\":4937:4973   */\n  sstore\n    /* \"#utility.yul\":4372:4983   */\n  pop\n  pop\n  pop\n    /* \"#utility.yul\":4335:5222   */\ntag_79:\n  pop\n    /* \"#utility.yul\":3925:5228   */\n  pop\n  pop\n  pop\n    /* \"#utility.yul\":3833:5228   */\n  pop\n  pop\n  jump\t// out\n    /* \"contrakts base/artifacts/EmployeeStorage.sol\":120:2428  contract EmployeeStorage {... */\ntag_6:\n  dataSize(sub_0)\n  dup1\n  dataOffset(sub_0)\n  0x00\n  codecopy\n  0x00\n  return\nstop\n\nsub_0: assembly {\n        /* \"contrakts base/artifacts/EmployeeStorage.sol\":120:2428  contract EmployeeStorage {... */\n      mstore(0x40, 0x80)\n      callvalue\n      dup1\n      iszero\n      tag_1\n      jumpi\n      0x00\n      dup1\n      revert\n    tag_1:\n      pop\n      jumpi(tag_2, lt(calldatasize, 0x04))\n      shr(0xe0, calldataload(0x00))\n      dup1\n      0x4c764809\n      gt\n      tag_10\n      jumpi\n      dup1\n      0x4c764809\n      eq\n      tag_6\n      jumpi\n      dup1\n      0x52c98689\n      eq\n      tag_7\n      jumpi\n      dup1\n      0x6d45e2a5\n      eq\n      tag_8\n      jumpi\n      dup1\n      0x8f6a861a\n      eq\n      tag_9\n      jumpi\n      jump(tag_2)\n    tag_10:\n      dup1\n      0x06fdde03\n      eq\n      tag_3\n      jumpi\n      dup1\n      0x3f83ea3b\n      eq\n      tag_4\n      jumpi\n      dup1\n      0x49574402\n      eq\n      tag_5\n      jumpi\n    tag_2:\n      0x00\n      dup1\n      revert\n        /* \"contrakts base/artifacts/EmployeeStorage.sol\":519:537  string public name */\n    tag_3:\n      tag_11\n      tag_12\n      jump\t// in\n    tag_11:\n      mload(0x40)\n      tag_13\n      swap2\n      swap1\n      tag_14\n      jump\t// in\n    tag_13:\n      mload(0x40)\n      dup1\n      swap2\n      sub\n      swap1\n      return\n        /* \"contrakts base/artifacts/EmployeeStorage.sol\":423:446  uint256 public idNumber */\n    tag_4:\n      tag_15\n      tag_16\n      jump\t// in\n    tag_15:\n      mload(0x40)\n      tag_17\n      swap2\n      swap1\n      tag_18\n      jump\t// in\n    tag_17:\n      mload(0x40)\n      dup1\n      swap2\n      sub\n      swap1\n      return\n        /* \"contrakts base/artifacts/EmployeeStorage.sol\":1357:1440  function viewSalary() public view returns (uint32) {... */\n    tag_5:\n      tag_19\n      tag_20\n      jump\t// in\n    tag_19:\n      mload(0x40)\n      tag_21\n      swap2\n      swap1\n      tag_22\n      jump\t// in\n    tag_21:\n      mload(0x40)\n      dup1\n      swap2\n      sub\n      swap1\n      return\n        /* \"contrakts base/artifacts/EmployeeStorage.sol\":2358:2425  function debugResetShares() public {... */\n    tag_6:\n      tag_23\n      tag_24\n      jump\t// in\n    tag_23:\n      stop\n        /* \"contrakts base/artifacts/EmployeeStorage.sol\":957:1234  function grantShares(uint16 _newShares) public {... */\n    tag_7:\n      tag_25\n      0x04\n      dup1\n      calldatasize\n      sub\n      dup2\n      add\n      swap1\n      tag_26\n      swap2\n      swap1\n      tag_27\n      jump\t// in\n    tag_26:\n      tag_28\n      jump\t// in\n    tag_25:\n      stop\n        /* \"contrakts base/artifacts/EmployeeStorage.sol\":1563:1646  function viewShares() public view returns (uint16) {... */\n    tag_8:\n      tag_29\n      tag_30\n      jump\t// in\n    tag_29:\n      mload(0x40)\n      tag_31\n      swap2\n      swap1\n      tag_32\n      jump\t// in\n    tag_31:\n      mload(0x40)\n      dup1\n      swap2\n      sub\n      swap1\n      return\n        /* \"contrakts base/artifacts/EmployeeStorage.sol\":2131:2273  function checkForPacking(uint256 _slot) public view returns (uint256 r) {... */\n    tag_9:\n      tag_33\n      0x04\n      dup1\n      calldatasize\n      sub\n      dup2\n      add\n      swap1\n      tag_34\n      swap2\n      swap1\n      tag_35\n      jump\t// in\n    tag_34:\n      tag_36\n      jump\t// in\n    tag_33:\n      mload(0x40)\n      tag_37\n      swap2\n      swap1\n      tag_18\n      jump\t// in\n    tag_37:\n      mload(0x40)\n      dup1\n      swap2\n      sub\n      swap1\n      return\n        /* \"contrakts base/artifacts/EmployeeStorage.sol\":519:537  string public name */\n    tag_12:\n      0x02\n      dup1\n      sload\n      tag_38\n      swap1\n      tag_39\n      jump\t// in\n    tag_38:\n      dup1\n      0x1f\n      add\n      0x20\n      dup1\n      swap2\n      div\n      mul\n      0x20\n      add\n      mload(0x40)\n      swap1\n      dup2\n      add\n      0x40\n      mstore\n      dup1\n      swap3\n      swap2\n      swap1\n      dup2\n      dup2\n      mstore\n      0x20\n      add\n      dup3\n      dup1\n      sload\n      tag_40\n      swap1\n      tag_39\n      jump\t// in\n    tag_40:\n      dup1\n      iszero\n      tag_41\n      jumpi\n      dup1\n      0x1f\n      lt\n      tag_42\n      jumpi\n      0x0100\n      dup1\n      dup4\n      sload\n      div\n      mul\n      dup4\n      mstore\n      swap2\n      0x20\n      add\n      swap2\n      jump(tag_41)\n    tag_42:\n      dup3\n      add\n      swap2\n      swap1\n      0x00\n      mstore\n      keccak256(0x00, 0x20)\n      swap1\n    tag_43:\n      dup2\n      sload\n      dup2\n      mstore\n      swap1\n      0x01\n      add\n      swap1\n      0x20\n      add\n      dup1\n      dup4\n      gt\n      tag_43\n      jumpi\n      dup3\n      swap1\n      sub\n      0x1f\n      and\n      dup3\n      add\n      swap2\n    tag_41:\n      pop\n      pop\n      pop\n      pop\n      pop\n      dup2\n      jump\t// out\n        /* \"contrakts base/artifacts/EmployeeStorage.sol\":423:446  uint256 public idNumber */\n    tag_16:\n      sload(0x01)\n      dup2\n      jump\t// out\n        /* \"contrakts base/artifacts/EmployeeStorage.sol\":1357:1440  function viewSalary() public view returns (uint32) {... */\n    tag_20:\n        /* \"contrakts base/artifacts/EmployeeStorage.sol\":1400:1406  uint32 */\n      0x00\n        /* \"contrakts base/artifacts/EmployeeStorage.sol\":1426:1432  salary */\n      dup1\n      0x02\n      swap1\n      sload\n      swap1\n      0x0100\n      exp\n      swap1\n      div\n      0xffffffff\n      and\n        /* \"contrakts base/artifacts/EmployeeStorage.sol\":1419:1432  return salary */\n      swap1\n      pop\n        /* \"contrakts base/artifacts/EmployeeStorage.sol\":1357:1440  function viewSalary() public view returns (uint32) {... */\n      swap1\n      jump\t// out\n        /* \"contrakts base/artifacts/EmployeeStorage.sol\":2358:2425  function debugResetShares() public {... */\n    tag_24:\n        /* \"contrakts base/artifacts/EmployeeStorage.sol\":2413:2417  1000 */\n      0x03e8\n        /* \"contrakts base/artifacts/EmployeeStorage.sol\":2404:2410  shares */\n      0x00\n      dup1\n        /* \"contrakts base/artifacts/EmployeeStorage.sol\":2404:2417  shares = 1000 */\n      0x0100\n      exp\n      dup2\n      sload\n      dup2\n      0xffff\n      mul\n      not\n      and\n      swap1\n      dup4\n      0xffff\n      and\n      mul\n      or\n      swap1\n      sstore\n      pop\n        /* \"contrakts base/artifacts/EmployeeStorage.sol\":2358:2425  function debugResetShares() public {... */\n      jump\t// out\n        /* \"contrakts base/artifacts/EmployeeStorage.sol\":957:1234  function grantShares(uint16 _newShares) public {... */\n    tag_28:\n        /* \"contrakts base/artifacts/EmployeeStorage.sol\":1032:1036  5000 */\n      0x1388\n        /* \"contrakts base/artifacts/EmployeeStorage.sol\":1019:1029  _newShares */\n      dup2\n        /* \"contrakts base/artifacts/EmployeeStorage.sol\":1019:1036  _newShares > 5000 */\n      0xffff\n      and\n      gt\n        /* \"contrakts base/artifacts/EmployeeStorage.sol\":1015:1196  if (_newShares > 5000) {... */\n      iszero\n      tag_47\n      jumpi\n        /* \"contrakts base/artifacts/EmployeeStorage.sol\":1053:1078  revert(\"Too many shares\") */\n      mload(0x40)\n      0x08c379a000000000000000000000000000000000000000000000000000000000\n      dup2\n      mstore\n      0x04\n      add\n      tag_48\n      swap1\n      tag_49\n      jump\t// in\n    tag_48:\n      mload(0x40)\n      dup1\n      swap2\n      sub\n      swap1\n      revert\n        /* \"contrakts base/artifacts/EmployeeStorage.sol\":1015:1196  if (_newShares > 5000) {... */\n    tag_47:\n        /* \"contrakts base/artifacts/EmployeeStorage.sol\":1122:1126  5000 */\n      0x1388\n        /* \"contrakts base/artifacts/EmployeeStorage.sol\":1109:1119  _newShares */\n      dup2\n        /* \"contrakts base/artifacts/EmployeeStorage.sol\":1100:1106  shares */\n      0x00\n      dup1\n      sload\n      swap1\n      0x0100\n      exp\n      swap1\n      div\n      0xffff\n      and\n        /* \"contrakts base/artifacts/EmployeeStorage.sol\":1100:1119  shares + _newShares */\n      tag_51\n      swap2\n      swap1\n      tag_52\n      jump\t// in\n    tag_51:\n        /* \"contrakts base/artifacts/EmployeeStorage.sol\":1100:1126  shares + _newShares > 5000 */\n      0xffff\n      and\n      gt\n        /* \"contrakts base/artifacts/EmployeeStorage.sol\":1096:1196  if (shares + _newShares > 5000) {... */\n      iszero\n      tag_53\n      jumpi\n        /* \"contrakts base/artifacts/EmployeeStorage.sol\":1173:1183  _newShares */\n      dup1\n        /* \"contrakts base/artifacts/EmployeeStorage.sol\":1164:1170  shares */\n      0x00\n      dup1\n      sload\n      swap1\n      0x0100\n      exp\n      swap1\n      div\n      0xffff\n      and\n        /* \"contrakts base/artifacts/EmployeeStorage.sol\":1164:1183  shares + _newShares */\n      tag_54\n      swap2\n      swap1\n      tag_52\n      jump\t// in\n    tag_54:\n        /* \"contrakts base/artifacts/EmployeeStorage.sol\":1150:1184  TooManyShares(shares + _newShares) */\n      mload(0x40)\n      0x0f7d410900000000000000000000000000000000000000000000000000000000\n      dup2\n      mstore\n      0x04\n      add\n      tag_55\n      swap2\n      swap1\n      tag_56\n      jump\t// in\n    tag_55:\n      mload(0x40)\n      dup1\n      swap2\n      sub\n      swap1\n      revert\n        /* \"contrakts base/artifacts/EmployeeStorage.sol\":1096:1196  if (shares + _newShares > 5000) {... */\n    tag_53:\n        /* \"contrakts base/artifacts/EmployeeStorage.sol\":1216:1226  _newShares */\n      dup1\n        /* \"contrakts base/artifacts/EmployeeStorage.sol\":1206:1212  shares */\n      0x00\n      dup1\n        /* \"contrakts base/artifacts/EmployeeStorage.sol\":1206:1226  shares += _newShares */\n      dup3\n      dup3\n      dup3\n      swap1\n      sload\n      swap1\n      0x0100\n      exp\n      swap1\n      div\n      0xffff\n      and\n      tag_57\n      swap2\n      swap1\n      tag_52\n      jump\t// in\n    tag_57:\n      swap3\n      pop\n      0x0100\n      exp\n      dup2\n      sload\n      dup2\n      0xffff\n      mul\n      not\n      and\n      swap1\n      dup4\n      0xffff\n      and\n      mul\n      or\n      swap1\n      sstore\n      pop\n        /* \"contrakts base/artifacts/EmployeeStorage.sol\":957:1234  function grantShares(uint16 _newShares) public {... */\n      pop\n      jump\t// out\n        /* \"contrakts base/artifacts/EmployeeStorage.sol\":1563:1646  function viewShares() public view returns (uint16) {... */\n    tag_30:\n        /* \"contrakts base/artifacts/EmployeeStorage.sol\":1606:1612  uint16 */\n      0x00\n        /* \"contrakts base/artifacts/EmployeeStorage.sol\":1632:1638  shares */\n      dup1\n      0x00\n      swap1\n      sload\n      swap1\n      0x0100\n      exp\n      swap1\n      div\n      0xffff\n      and\n        /* \"contrakts base/artifacts/EmployeeStorage.sol\":1625:1638  return shares */\n      swap1\n      pop\n        /* \"contrakts base/artifacts/EmployeeStorage.sol\":1563:1646  function viewShares() public view returns (uint16) {... */\n      swap1\n      jump\t// out\n        /* \"contrakts base/artifacts/EmployeeStorage.sol\":2131:2273  function checkForPacking(uint256 _slot) public view returns (uint256 r) {... */\n    tag_36:\n        /* \"contrakts base/artifacts/EmployeeStorage.sol\":2192:2201  uint256 r */\n      0x00\n        /* \"contrakts base/artifacts/EmployeeStorage.sol\":2249:2254  _slot */\n      dup2\n        /* \"contrakts base/artifacts/EmployeeStorage.sol\":2243:2255  sload(_slot) */\n      sload\n        /* \"contrakts base/artifacts/EmployeeStorage.sol\":2238:2255  r := sload(_slot) */\n      swap1\n      pop\n        /* \"contrakts base/artifacts/EmployeeStorage.sol\":2131:2273  function checkForPacking(uint256 _slot) public view returns (uint256 r) {... */\n      swap2\n      swap1\n      pop\n      jump\t// out\n        /* \"#utility.yul\":7:106   */\n    tag_60:\n        /* \"#utility.yul\":59:65   */\n      0x00\n        /* \"#utility.yul\":93:98   */\n      dup2\n        /* \"#utility.yul\":87:99   */\n      mload\n        /* \"#utility.yul\":77:99   */\n      swap1\n      pop\n        /* \"#utility.yul\":7:106   */\n      swap2\n      swap1\n      pop\n      jump\t// out\n        /* \"#utility.yul\":112:281   */\n    tag_61:\n        /* \"#utility.yul\":196:207   */\n      0x00\n        /* \"#utility.yul\":230:236   */\n      dup3\n        /* \"#utility.yul\":225:228   */\n      dup3\n        /* \"#utility.yul\":218:237   */\n      mstore\n        /* \"#utility.yul\":270:274   */\n      0x20\n        /* \"#utility.yul\":265:268   */\n      dup3\n        /* \"#utility.yul\":261:275   */\n      add\n        /* \"#utility.yul\":246:275   */\n      swap1\n      pop\n        /* \"#utility.yul\":112:281   */\n      swap3\n      swap2\n      pop\n      pop\n      jump\t// out\n        /* \"#utility.yul\":287:426   */\n    tag_62:\n        /* \"#utility.yul\":376:382   */\n      dup3\n        /* \"#utility.yul\":371:374   */\n      dup2\n        /* \"#utility.yul\":366:369   */\n      dup4\n        /* \"#utility.yul\":360:383   */\n      mcopy\n        /* \"#utility.yul\":417:418   */\n      0x00\n        /* \"#utility.yul\":408:414   */\n      dup4\n        /* \"#utility.yul\":403:406   */\n      dup4\n        /* \"#utility.yul\":399:415   */\n      add\n        /* \"#utility.yul\":392:419   */\n      mstore\n        /* \"#utility.yul\":287:426   */\n      pop\n      pop\n      pop\n      jump\t// out\n        /* \"#utility.yul\":432:534   */\n    tag_63:\n        /* \"#utility.yul\":473:479   */\n      0x00\n        /* \"#utility.yul\":524:526   */\n      0x1f\n        /* \"#utility.yul\":520:527   */\n      not\n        /* \"#utility.yul\":515:517   */\n      0x1f\n        /* \"#utility.yul\":508:513   */\n      dup4\n        /* \"#utility.yul\":504:518   */\n      add\n        /* \"#utility.yul\":500:528   */\n      and\n        /* \"#utility.yul\":490:528   */\n      swap1\n      pop\n        /* \"#utility.yul\":432:534   */\n      swap2\n      swap1\n      pop\n      jump\t// out\n        /* \"#utility.yul\":540:917   */\n    tag_64:\n        /* \"#utility.yul\":628:631   */\n      0x00\n        /* \"#utility.yul\":656:695   */\n      tag_91\n        /* \"#utility.yul\":689:694   */\n      dup3\n        /* \"#utility.yul\":656:695   */\n      tag_60\n      jump\t// in\n    tag_91:\n        /* \"#utility.yul\":711:782   */\n      tag_92\n        /* \"#utility.yul\":775:781   */\n      dup2\n        /* \"#utility.yul\":770:773   */\n      dup6\n        /* \"#utility.yul\":711:782   */\n      tag_61\n      jump\t// in\n    tag_92:\n        /* \"#utility.yul\":704:782   */\n      swap4\n      pop\n        /* \"#utility.yul\":791:856   */\n      tag_93\n        /* \"#utility.yul\":849:855   */\n      dup2\n        /* \"#utility.yul\":844:847   */\n      dup6\n        /* \"#utility.yul\":837:841   */\n      0x20\n        /* \"#utility.yul\":830:835   */\n      dup7\n        /* \"#utility.yul\":826:842   */\n      add\n        /* \"#utility.yul\":791:856   */\n      tag_62\n      jump\t// in\n    tag_93:\n        /* \"#utility.yul\":881:910   */\n      tag_94\n        /* \"#utility.yul\":903:909   */\n      dup2\n        /* \"#utility.yul\":881:910   */\n      tag_63\n      jump\t// in\n    tag_94:\n        /* \"#utility.yul\":876:879   */\n      dup5\n        /* \"#utility.yul\":872:911   */\n      add\n        /* \"#utility.yul\":865:911   */\n      swap2\n      pop\n        /* \"#utility.yul\":632:917   */\n      pop\n        /* \"#utility.yul\":540:917   */\n      swap3\n      swap2\n      pop\n      pop\n      jump\t// out\n        /* \"#utility.yul\":923:1236   */\n    tag_14:\n        /* \"#utility.yul\":1036:1040   */\n      0x00\n        /* \"#utility.yul\":1074:1076   */\n      0x20\n        /* \"#utility.yul\":1063:1072   */\n      dup3\n        /* \"#utility.yul\":1059:1077   */\n      add\n        /* \"#utility.yul\":1051:1077   */\n      swap1\n      pop\n        /* \"#utility.yul\":1123:1132   */\n      dup2\n        /* \"#utility.yul\":1117:1121   */\n      dup2\n        /* \"#utility.yul\":1113:1133   */\n      sub\n        /* \"#utility.yul\":1109:1110   */\n      0x00\n        /* \"#utility.yul\":1098:1107   */\n      dup4\n        /* \"#utility.yul\":1094:1111   */\n      add\n        /* \"#utility.yul\":1087:1134   */\n      mstore\n        /* \"#utility.yul\":1151:1229   */\n      tag_96\n        /* \"#utility.yul\":1224:1228   */\n      dup2\n        /* \"#utility.yul\":1215:1221   */\n      dup5\n        /* \"#utility.yul\":1151:1229   */\n      tag_64\n      jump\t// in\n    tag_96:\n        /* \"#utility.yul\":1143:1229   */\n      swap1\n      pop\n        /* \"#utility.yul\":923:1236   */\n      swap3\n      swap2\n      pop\n      pop\n      jump\t// out\n        /* \"#utility.yul\":1242:1319   */\n    tag_65:\n        /* \"#utility.yul\":1279:1286   */\n      0x00\n        /* \"#utility.yul\":1308:1313   */\n      dup2\n        /* \"#utility.yul\":1297:1313   */\n      swap1\n      pop\n        /* \"#utility.yul\":1242:1319   */\n      swap2\n      swap1\n      pop\n      jump\t// out\n        /* \"#utility.yul\":1325:1443   */\n    tag_66:\n        /* \"#utility.yul\":1412:1436   */\n      tag_99\n        /* \"#utility.yul\":1430:1435   */\n      dup2\n        /* \"#utility.yul\":1412:1436   */\n      tag_65\n      jump\t// in\n    tag_99:\n        /* \"#utility.yul\":1407:1410   */\n      dup3\n        /* \"#utility.yul\":1400:1437   */\n      mstore\n        /* \"#utility.yul\":1325:1443   */\n      pop\n      pop\n      jump\t// out\n        /* \"#utility.yul\":1449:1671   */\n    tag_18:\n        /* \"#utility.yul\":1542:1546   */\n      0x00\n        /* \"#utility.yul\":1580:1582   */\n      0x20\n        /* \"#utility.yul\":1569:1578   */\n      dup3\n        /* \"#utility.yul\":1565:1583   */\n      add\n        /* \"#utility.yul\":1557:1583   */\n      swap1\n      pop\n        /* \"#utility.yul\":1593:1664   */\n      tag_101\n        /* \"#utility.yul\":1661:1662   */\n      0x00\n        /* \"#utility.yul\":1650:1659   */\n      dup4\n        /* \"#utility.yul\":1646:1663   */\n      add\n        /* \"#utility.yul\":1637:1643   */\n      dup5\n        /* \"#utility.yul\":1593:1664   */\n      tag_66\n      jump\t// in\n    tag_101:\n        /* \"#utility.yul\":1449:1671   */\n      swap3\n      swap2\n      pop\n      pop\n      jump\t// out\n        /* \"#utility.yul\":1677:1770   */\n    tag_67:\n        /* \"#utility.yul\":1713:1720   */\n      0x00\n        /* \"#utility.yul\":1753:1763   */\n      0xffffffff\n        /* \"#utility.yul\":1746:1751   */\n      dup3\n        /* \"#utility.yul\":1742:1764   */\n      and\n        /* \"#utility.yul\":1731:1764   */\n      swap1\n      pop\n        /* \"#utility.yul\":1677:1770   */\n      swap2\n      swap1\n      pop\n      jump\t// out\n        /* \"#utility.yul\":1776:1891   */\n    tag_68:\n        /* \"#utility.yul\":1861:1884   */\n      tag_104\n        /* \"#utility.yul\":1878:1883   */\n      dup2\n        /* \"#utility.yul\":1861:1884   */\n      tag_67\n      jump\t// in\n    tag_104:\n        /* \"#utility.yul\":1856:1859   */\n      dup3\n        /* \"#utility.yul\":1849:1885   */\n      mstore\n        /* \"#utility.yul\":1776:1891   */\n      pop\n      pop\n      jump\t// out\n        /* \"#utility.yul\":1897:2115   */\n    tag_22:\n        /* \"#utility.yul\":1988:1992   */\n      0x00\n        /* \"#utility.yul\":2026:2028   */\n      0x20\n        /* \"#utility.yul\":2015:2024   */\n      dup3\n        /* \"#utility.yul\":2011:2029   */\n      add\n        /* \"#utility.yul\":2003:2029   */\n      swap1\n      pop\n        /* \"#utility.yul\":2039:2108   */\n      tag_106\n        /* \"#utility.yul\":2105:2106   */\n      0x00\n        /* \"#utility.yul\":2094:2103   */\n      dup4\n        /* \"#utility.yul\":2090:2107   */\n      add\n        /* \"#utility.yul\":2081:2087   */\n      dup5\n        /* \"#utility.yul\":2039:2108   */\n      tag_68\n      jump\t// in\n    tag_106:\n        /* \"#utility.yul\":1897:2115   */\n      swap3\n      swap2\n      pop\n      pop\n      jump\t// out\n        /* \"#utility.yul\":2202:2319   */\n    tag_70:\n        /* \"#utility.yul\":2311:2312   */\n      0x00\n        /* \"#utility.yul\":2308:2309   */\n      dup1\n        /* \"#utility.yul\":2301:2313   */\n      revert\n        /* \"#utility.yul\":2448:2537   */\n    tag_72:\n        /* \"#utility.yul\":2484:2491   */\n      0x00\n        /* \"#utility.yul\":2524:2530   */\n      0xffff\n        /* \"#utility.yul\":2517:2522   */\n      dup3\n        /* \"#utility.yul\":2513:2531   */\n      and\n        /* \"#utility.yul\":2502:2531   */\n      swap1\n      pop\n        /* \"#utility.yul\":2448:2537   */\n      swap2\n      swap1\n      pop\n      jump\t// out\n        /* \"#utility.yul\":2543:2663   */\n    tag_73:\n        /* \"#utility.yul\":2615:2638   */\n      tag_112\n        /* \"#utility.yul\":2632:2637   */\n      dup2\n        /* \"#utility.yul\":2615:2638   */\n      tag_72\n      jump\t// in\n    tag_112:\n        /* \"#utility.yul\":2608:2613   */\n      dup2\n        /* \"#utility.yul\":2605:2639   */\n      eq\n        /* \"#utility.yul\":2595:2657   */\n      tag_113\n      jumpi\n        /* \"#utility.yul\":2653:2654   */\n      0x00\n        /* \"#utility.yul\":2650:2651   */\n      dup1\n        /* \"#utility.yul\":2643:2655   */\n      revert\n        /* \"#utility.yul\":2595:2657   */\n    tag_113:\n        /* \"#utility.yul\":2543:2663   */\n      pop\n      jump\t// out\n        /* \"#utility.yul\":2669:2806   */\n    tag_74:\n        /* \"#utility.yul\":2714:2719   */\n      0x00\n        /* \"#utility.yul\":2752:2758   */\n      dup2\n        /* \"#utility.yul\":2739:2759   */\n      calldataload\n        /* \"#utility.yul\":2730:2759   */\n      swap1\n      pop\n        /* \"#utility.yul\":2768:2800   */\n      tag_115\n        /* \"#utility.yul\":2794:2799   */\n      dup2\n        /* \"#utility.yul\":2768:2800   */\n      tag_73\n      jump\t// in\n    tag_115:\n        /* \"#utility.yul\":2669:2806   */\n      swap3\n      swap2\n      pop\n      pop\n      jump\t// out\n        /* \"#utility.yul\":2812:3139   */\n    tag_27:\n        /* \"#utility.yul\":2870:2876   */\n      0x00\n        /* \"#utility.yul\":2919:2921   */\n      0x20\n        /* \"#utility.yul\":2907:2916   */\n      dup3\n        /* \"#utility.yul\":2898:2905   */\n      dup5\n        /* \"#utility.yul\":2894:2917   */\n      sub\n        /* \"#utility.yul\":2890:2922   */\n      slt\n        /* \"#utility.yul\":2887:3006   */\n      iszero\n      tag_117\n      jumpi\n        /* \"#utility.yul\":2925:3004   */\n      tag_118\n      tag_70\n      jump\t// in\n    tag_118:\n        /* \"#utility.yul\":2887:3006   */\n    tag_117:\n        /* \"#utility.yul\":3045:3046   */\n      0x00\n        /* \"#utility.yul\":3070:3122   */\n      tag_119\n        /* \"#utility.yul\":3114:3121   */\n      dup5\n        /* \"#utility.yul\":3105:3111   */\n      dup3\n        /* \"#utility.yul\":3094:3103   */\n      dup6\n        /* \"#utility.yul\":3090:3112   */\n      add\n        /* \"#utility.yul\":3070:3122   */\n      tag_74\n      jump\t// in\n    tag_119:\n        /* \"#utility.yul\":3060:3122   */\n      swap2\n      pop\n        /* \"#utility.yul\":3016:3132   */\n      pop\n        /* \"#utility.yul\":2812:3139   */\n      swap3\n      swap2\n      pop\n      pop\n      jump\t// out\n        /* \"#utility.yul\":3145:3260   */\n    tag_75:\n        /* \"#utility.yul\":3230:3253   */\n      tag_121\n        /* \"#utility.yul\":3247:3252   */\n      dup2\n        /* \"#utility.yul\":3230:3253   */\n      tag_72\n      jump\t// in\n    tag_121:\n        /* \"#utility.yul\":3225:3228   */\n      dup3\n        /* \"#utility.yul\":3218:3254   */\n      mstore\n        /* \"#utility.yul\":3145:3260   */\n      pop\n      pop\n      jump\t// out\n        /* \"#utility.yul\":3266:3484   */\n    tag_32:\n        /* \"#utility.yul\":3357:3361   */\n      0x00\n        /* \"#utility.yul\":3395:3397   */\n      0x20\n        /* \"#utility.yul\":3384:3393   */\n      dup3\n        /* \"#utility.yul\":3380:3398   */\n      add\n        /* \"#utility.yul\":3372:3398   */\n      swap1\n      pop\n        /* \"#utility.yul\":3408:3477   */\n      tag_123\n        /* \"#utility.yul\":3474:3475   */\n      0x00\n        /* \"#utility.yul\":3463:3472   */\n      dup4\n        /* \"#utility.yul\":3459:3476   */\n      add\n        /* \"#utility.yul\":3450:3456   */\n      dup5\n        /* \"#utility.yul\":3408:3477   */\n      tag_75\n      jump\t// in\n    tag_123:\n        /* \"#utility.yul\":3266:3484   */\n      swap3\n      swap2\n      pop\n      pop\n      jump\t// out\n        /* \"#utility.yul\":3490:3612   */\n    tag_76:\n        /* \"#utility.yul\":3563:3587   */\n      tag_125\n        /* \"#utility.yul\":3581:3586   */\n      dup2\n        /* \"#utility.yul\":3563:3587   */\n      tag_65\n      jump\t// in\n    tag_125:\n        /* \"#utility.yul\":3556:3561   */\n      dup2\n        /* \"#utility.yul\":3553:3588   */\n      eq\n        /* \"#utility.yul\":3543:3606   */\n      tag_126\n      jumpi\n        /* \"#utility.yul\":3602:3603   */\n      0x00\n        /* \"#utility.yul\":3599:3600   */\n      dup1\n        /* \"#utility.yul\":3592:3604   */\n      revert\n        /* \"#utility.yul\":3543:3606   */\n    tag_126:\n        /* \"#utility.yul\":3490:3612   */\n      pop\n      jump\t// out\n        /* \"#utility.yul\":3618:3757   */\n    tag_77:\n        /* \"#utility.yul\":3664:3669   */\n      0x00\n        /* \"#utility.yul\":3702:3708   */\n      dup2\n        /* \"#utility.yul\":3689:3709   */\n      calldataload\n        /* \"#utility.yul\":3680:3709   */\n      swap1\n      pop\n        /* \"#utility.yul\":3718:3751   */\n      tag_128\n        /* \"#utility.yul\":3745:3750   */\n      dup2\n        /* \"#utility.yul\":3718:3751   */\n      tag_76\n      jump\t// in\n    tag_128:\n        /* \"#utility.yul\":3618:3757   */\n      swap3\n      swap2\n      pop\n      pop\n      jump\t// out\n        /* \"#utility.yul\":3763:4092   */\n    tag_35:\n        /* \"#utility.yul\":3822:3828   */\n      0x00\n        /* \"#utility.yul\":3871:3873   */\n      0x20\n        /* \"#utility.yul\":3859:3868   */\n      dup3\n        /* \"#utility.yul\":3850:3857   */\n      dup5\n        /* \"#utility.yul\":3846:3869   */\n      sub\n        /* \"#utility.yul\":3842:3874   */\n      slt\n        /* \"#utility.yul\":3839:3958   */\n      iszero\n      tag_130\n      jumpi\n        /* \"#utility.yul\":3877:3956   */\n      tag_131\n      tag_70\n      jump\t// in\n    tag_131:\n        /* \"#utility.yul\":3839:3958   */\n    tag_130:\n        /* \"#utility.yul\":3997:3998   */\n      0x00\n        /* \"#utility.yul\":4022:4075   */\n      tag_132\n        /* \"#utility.yul\":4067:4074   */\n      dup5\n        /* \"#utility.yul\":4058:4064   */\n      dup3\n        /* \"#utility.yul\":4047:4056   */\n      dup6\n        /* \"#utility.yul\":4043:4065   */\n      add\n        /* \"#utility.yul\":4022:4075   */\n      tag_77\n      jump\t// in\n    tag_132:\n        /* \"#utility.yul\":4012:4075   */\n      swap2\n      pop\n        /* \"#utility.yul\":3968:4085   */\n      pop\n        /* \"#utility.yul\":3763:4092   */\n      swap3\n      swap2\n      pop\n      pop\n      jump\t// out\n        /* \"#utility.yul\":4098:4278   */\n    tag_78:\n        /* \"#utility.yul\":4146:4223   */\n      0x4e487b7100000000000000000000000000000000000000000000000000000000\n        /* \"#utility.yul\":4143:4144   */\n      0x00\n        /* \"#utility.yul\":4136:4224   */\n      mstore\n        /* \"#utility.yul\":4243:4247   */\n      0x22\n        /* \"#utility.yul\":4240:4241   */\n      0x04\n        /* \"#utility.yul\":4233:4248   */\n      mstore\n        /* \"#utility.yul\":4267:4271   */\n      0x24\n        /* \"#utility.yul\":4264:4265   */\n      0x00\n        /* \"#utility.yul\":4257:4272   */\n      revert\n        /* \"#utility.yul\":4284:4604   */\n    tag_39:\n        /* \"#utility.yul\":4328:4334   */\n      0x00\n        /* \"#utility.yul\":4365:4366   */\n      0x02\n        /* \"#utility.yul\":4359:4363   */\n      dup3\n        /* \"#utility.yul\":4355:4367   */\n      div\n        /* \"#utility.yul\":4345:4367   */\n      swap1\n      pop\n        /* \"#utility.yul\":4412:4413   */\n      0x01\n        /* \"#utility.yul\":4406:4410   */\n      dup3\n        /* \"#utility.yul\":4402:4414   */\n      and\n        /* \"#utility.yul\":4433:4451   */\n      dup1\n        /* \"#utility.yul\":4423:4504   */\n      tag_135\n      jumpi\n        /* \"#utility.yul\":4489:4493   */\n      0x7f\n        /* \"#utility.yul\":4481:4487   */\n      dup3\n        /* \"#utility.yul\":4477:4494   */\n      and\n        /* \"#utility.yul\":4467:4494   */\n      swap2\n      pop\n        /* \"#utility.yul\":4423:4504   */\n    tag_135:\n        /* \"#utility.yul\":4551:4553   */\n      0x20\n        /* \"#utility.yul\":4543:4549   */\n      dup3\n        /* \"#utility.yul\":4540:4554   */\n      lt\n        /* \"#utility.yul\":4520:4538   */\n      dup2\n        /* \"#utility.yul\":4517:4555   */\n      sub\n        /* \"#utility.yul\":4514:4598   */\n      tag_136\n      jumpi\n        /* \"#utility.yul\":4570:4588   */\n      tag_137\n      tag_78\n      jump\t// in\n    tag_137:\n        /* \"#utility.yul\":4514:4598   */\n    tag_136:\n        /* \"#utility.yul\":4335:4604   */\n      pop\n        /* \"#utility.yul\":4284:4604   */\n      swap2\n      swap1\n      pop\n      jump\t// out\n        /* \"#utility.yul\":4610:4775   */\n    tag_79:\n        /* \"#utility.yul\":4750:4767   */\n      0x546f6f206d616e79207368617265730000000000000000000000000000000000\n        /* \"#utility.yul\":4746:4747   */\n      0x00\n        /* \"#utility.yul\":4738:4744   */\n      dup3\n        /* \"#utility.yul\":4734:4748   */\n      add\n        /* \"#utility.yul\":4727:4768   */\n      mstore\n        /* \"#utility.yul\":4610:4775   */\n      pop\n      jump\t// out\n        /* \"#utility.yul\":4781:5147   */\n    tag_80:\n        /* \"#utility.yul\":4923:4926   */\n      0x00\n        /* \"#utility.yul\":4944:5011   */\n      tag_140\n        /* \"#utility.yul\":5008:5010   */\n      0x0f\n        /* \"#utility.yul\":5003:5006   */\n      dup4\n        /* \"#utility.yul\":4944:5011   */\n      tag_61\n      jump\t// in\n    tag_140:\n        /* \"#utility.yul\":4937:5011   */\n      swap2\n      pop\n        /* \"#utility.yul\":5020:5113   */\n      tag_141\n        /* \"#utility.yul\":5109:5112   */\n      dup3\n        /* \"#utility.yul\":5020:5113   */\n      tag_79\n      jump\t// in\n    tag_141:\n        /* \"#utility.yul\":5138:5140   */\n      0x20\n        /* \"#utility.yul\":5133:5136   */\n      dup3\n        /* \"#utility.yul\":5129:5141   */\n      add\n        /* \"#utility.yul\":5122:5141   */\n      swap1\n      pop\n        /* \"#utility.yul\":4781:5147   */\n      swap2\n      swap1\n      pop\n      jump\t// out\n        /* \"#utility.yul\":5153:5572   */\n    tag_49:\n        /* \"#utility.yul\":5319:5323   */\n      0x00\n        /* \"#utility.yul\":5357:5359   */\n      0x20\n        /* \"#utility.yul\":5346:5355   */\n      dup3\n        /* \"#utility.yul\":5342:5360   */\n      add\n        /* \"#utility.yul\":5334:5360   */\n      swap1\n      pop\n        /* \"#utility.yul\":5406:5415   */\n      dup2\n        /* \"#utility.yul\":5400:5404   */\n      dup2\n        /* \"#utility.yul\":5396:5416   */\n      sub\n        /* \"#utility.yul\":5392:5393   */\n      0x00\n        /* \"#utility.yul\":5381:5390   */\n      dup4\n        /* \"#utility.yul\":5377:5394   */\n      add\n        /* \"#utility.yul\":5370:5417   */\n      mstore\n        /* \"#utility.yul\":5434:5565   */\n      tag_143\n        /* \"#utility.yul\":5560:5564   */\n      dup2\n        /* \"#utility.yul\":5434:5565   */\n      tag_80\n      jump\t// in\n    tag_143:\n        /* \"#utility.yul\":5426:5565   */\n      swap1\n      pop\n        /* \"#utility.yul\":5153:5572   */\n      swap2\n      swap1\n      pop\n      jump\t// out\n        /* \"#utility.yul\":5578:5758   */\n    tag_81:\n        /* \"#utility.yul\":5626:5703   */\n      0x4e487b7100000000000000000000000000000000000000000000000000000000\n        /* \"#utility.yul\":5623:5624   */\n      0x00\n        /* \"#utility.yul\":5616:5704   */\n      mstore\n        /* \"#utility.yul\":5723:5727   */\n      0x11\n        /* \"#utility.yul\":5720:5721   */\n      0x04\n        /* \"#utility.yul\":5713:5728   */\n      mstore\n        /* \"#utility.yul\":5747:5751   */\n      0x24\n        /* \"#utility.yul\":5744:5745   */\n      0x00\n        /* \"#utility.yul\":5737:5752   */\n      revert\n        /* \"#utility.yul\":5764:5957   */\n    tag_52:\n        /* \"#utility.yul\":5803:5806   */\n      0x00\n        /* \"#utility.yul\":5822:5841   */\n      tag_146\n        /* \"#utility.yul\":5839:5840   */\n      dup3\n        /* \"#utility.yul\":5822:5841   */\n      tag_72\n      jump\t// in\n    tag_146:\n        /* \"#utility.yul\":5817:5841   */\n      swap2\n      pop\n        /* \"#utility.yul\":5855:5874   */\n      tag_147\n        /* \"#utility.yul\":5872:5873   */\n      dup4\n        /* \"#utility.yul\":5855:5874   */\n      tag_72\n      jump\t// in\n    tag_147:\n        /* \"#utility.yul\":5850:5874   */\n      swap3\n      pop\n        /* \"#utility.yul\":5897:5898   */\n      dup3\n        /* \"#utility.yul\":5894:5895   */\n      dup3\n        /* \"#utility.yul\":5890:5899   */\n      add\n        /* \"#utility.yul\":5883:5899   */\n      swap1\n      pop\n        /* \"#utility.yul\":5920:5926   */\n      0xffff\n        /* \"#utility.yul\":5915:5918   */\n      dup2\n        /* \"#utility.yul\":5912:5927   */\n      gt\n        /* \"#utility.yul\":5909:5950   */\n      iszero\n      tag_148\n      jumpi\n        /* \"#utility.yul\":5930:5948   */\n      tag_149\n      tag_81\n      jump\t// in\n    tag_149:\n        /* \"#utility.yul\":5909:5950   */\n    tag_148:\n        /* \"#utility.yul\":5764:5957   */\n      swap3\n      swap2\n      pop\n      pop\n      jump\t// out\n        /* \"#utility.yul\":5963:6023   */\n    tag_82:\n        /* \"#utility.yul\":5991:5994   */\n      0x00\n        /* \"#utility.yul\":6012:6017   */\n      dup2\n        /* \"#utility.yul\":6005:6017   */\n      swap1\n      pop\n        /* \"#utility.yul\":5963:6023   */\n      swap2\n      swap1\n      pop\n      jump\t// out\n        /* \"#utility.yul\":6029:6169   */\n    tag_83:\n        /* \"#utility.yul\":6078:6087   */\n      0x00\n        /* \"#utility.yul\":6111:6163   */\n      tag_152\n        /* \"#utility.yul\":6129:6162   */\n      tag_153\n        /* \"#utility.yul\":6138:6161   */\n      tag_154\n        /* \"#utility.yul\":6155:6160   */\n      dup5\n        /* \"#utility.yul\":6138:6161   */\n      tag_72\n      jump\t// in\n    tag_154:\n        /* \"#utility.yul\":6129:6162   */\n      tag_82\n      jump\t// in\n    tag_153:\n        /* \"#utility.yul\":6111:6163   */\n      tag_65\n      jump\t// in\n    tag_152:\n        /* \"#utility.yul\":6098:6163   */\n      swap1\n      pop\n        /* \"#utility.yul\":6029:6169   */\n      swap2\n      swap1\n      pop\n      jump\t// out\n        /* \"#utility.yul\":6175:6304   */\n    tag_84:\n        /* \"#utility.yul\":6261:6297   */\n      tag_156\n        /* \"#utility.yul\":6291:6296   */\n      dup2\n        /* \"#utility.yul\":6261:6297   */\n      tag_83\n      jump\t// in\n    tag_156:\n        /* \"#utility.yul\":6256:6259   */\n      dup3\n        /* \"#utility.yul\":6249:6298   */\n      mstore\n        /* \"#utility.yul\":6175:6304   */\n      pop\n      pop\n      jump\t// out\n        /* \"#utility.yul\":6310:6530   */\n    tag_56:\n        /* \"#utility.yul\":6402:6406   */\n      0x00\n        /* \"#utility.yul\":6440:6442   */\n      0x20\n        /* \"#utility.yul\":6429:6438   */\n      dup3\n        /* \"#utility.yul\":6425:6443   */\n      add\n        /* \"#utility.yul\":6417:6443   */\n      swap1\n      pop\n        /* \"#utility.yul\":6453:6523   */\n      tag_158\n        /* \"#utility.yul\":6520:6521   */\n      0x00\n        /* \"#utility.yul\":6509:6518   */\n      dup4\n        /* \"#utility.yul\":6505:6522   */\n      add\n        /* \"#utility.yul\":6496:6502   */\n      dup5\n        /* \"#utility.yul\":6453:6523   */\n      tag_84\n      jump\t// in\n    tag_158:\n        /* \"#utility.yul\":6310:6530   */\n      swap3\n      swap2\n      pop\n      pop\n      jump\t// out\n\n    auxdata: 0xa2646970667358221220d3a36da7b09737e24018f42b41e7b1f3d0788f5b977686c4801de265a1b2dcb064736f6c63430008190033\n}\n",
				"bytecode": {
					"linkReferences": {},
					"object": "608060405234801561000f575f80fd5b506103e85f806101000a81548161ffff021916908361ffff1602179055506040518060400160405280600381526020017f50617400000000000000000000000000000000000000000000000000000000008152506002908161007191906102df565b5061c3505f60026101000a81548163ffffffff021916908363ffffffff160217905550641a291109a66001819055506103ae565b5f81519050919050565b7f4e487b71000000000000000000000000000000000000000000000000000000005f52604160045260245ffd5b7f4e487b71000000000000000000000000000000000000000000000000000000005f52602260045260245ffd5b5f600282049050600182168061012057607f821691505b602082108103610133576101326100dc565b5b50919050565b5f819050815f5260205f209050919050565b5f6020601f8301049050919050565b5f82821b905092915050565b5f600883026101957fffffffffffffffffffffffffffffffffffffffffffffffffffffffffffffffff8261015a565b61019f868361015a565b95508019841693508086168417925050509392505050565b5f819050919050565b5f819050919050565b5f6101e36101de6101d9846101b7565b6101c0565b6101b7565b9050919050565b5f819050919050565b6101fc836101c9565b610210610208826101ea565b848454610166565b825550505050565b5f90565b610224610218565b61022f8184846101f3565b505050565b5b81811015610252576102475f8261021c565b600181019050610235565b5050565b601f8211156102975761026881610139565b6102718461014b565b81016020851015610280578190505b61029461028c8561014b565b830182610234565b50505b505050565b5f82821c905092915050565b5f6102b75f198460080261029c565b1980831691505092915050565b5f6102cf83836102a8565b9150826002028217905092915050565b6102e8826100a5565b67ffffffffffffffff811115610301576103006100af565b5b61030b8254610109565b610316828285610256565b5f60209050601f831160018114610347575f8415610335578287015190505b61033f85826102c4565b8655506103a6565b601f19841661035586610139565b5f5b8281101561037c57848901518255600182019150602085019450602081019050610357565b868310156103995784890151610395601f8916826102a8565b8355505b6001600288020188555050505b505050505050565b6106bd806103bb5f395ff3fe608060405234801561000f575f80fd5b506004361061007b575f3560e01c80634c764809116100595780634c764809146100d957806352c98689146100e35780636d45e2a5146100ff5780638f6a861a1461011d5761007b565b806306fdde031461007f5780633f83ea3b1461009d57806349574402146100bb575b5f80fd5b61008761014d565b60405161009491906103a3565b60405180910390f35b6100a56101d9565b6040516100b291906103db565b60405180910390f35b6100c36101df565b6040516100d09190610412565b60405180910390f35b6100e16101f7565b005b6100fd60048036038101906100f89190610466565b610216565b005b610107610314565b60405161011491906104a0565b60405180910390f35b610137600480360381019061013291906104e3565b610329565b60405161014491906103db565b60405180910390f35b6002805461015a9061053b565b80601f01602080910402602001604051908101604052809291908181526020018280546101869061053b565b80156101d15780601f106101a8576101008083540402835291602001916101d1565b820191905f5260205f20905b8154815290600101906020018083116101b457829003601f168201915b505050505081565b60015481565b5f8060029054906101000a900463ffffffff16905090565b6103e85f806101000a81548161ffff021916908361ffff160217905550565b6113888161ffff16111561025f576040517f08c379a0000000000000000000000000000000000000000000000000000000008152600401610256906105b5565b60405180910390fd5b611388815f8054906101000a900461ffff1661027b9190610600565b61ffff1611156102da57805f8054906101000a900461ffff1661029e9190610600565b6040517f0f7d41090000000000000000000000000000000000000000000000000000000081526004016102d1919061066e565b60405180910390fd5b805f808282829054906101000a900461ffff166102f79190610600565b92506101000a81548161ffff021916908361ffff16021790555050565b5f805f9054906101000a900461ffff16905090565b5f81549050919050565b5f81519050919050565b5f82825260208201905092915050565b8281835e5f83830152505050565b5f601f19601f8301169050919050565b5f61037582610333565b61037f818561033d565b935061038f81856020860161034d565b6103988161035b565b840191505092915050565b5f6020820190508181035f8301526103bb818461036b565b905092915050565b5f819050919050565b6103d5816103c3565b82525050565b5f6020820190506103ee5f8301846103cc565b92915050565b5f63ffffffff82169050919050565b61040c816103f4565b82525050565b5f6020820190506104255f830184610403565b92915050565b5f80fd5b5f61ffff82169050919050565b6104458161042f565b811461044f575f80fd5b50565b5f813590506104608161043c565b92915050565b5f6020828403121561047b5761047a61042b565b5b5f61048884828501610452565b91505092915050565b61049a8161042f565b82525050565b5f6020820190506104b35f830184610491565b92915050565b6104c2816103c3565b81146104cc575f80fd5b50565b5f813590506104dd816104b9565b92915050565b5f602082840312156104f8576104f761042b565b5b5f610505848285016104cf565b91505092915050565b7f4e487b71000000000000000000000000000000000000000000000000000000005f52602260045260245ffd5b5f600282049050600182168061055257607f821691505b6020821081036105655761056461050e565b5b50919050565b7f546f6f206d616e792073686172657300000000000000000000000000000000005f82015250565b5f61059f600f8361033d565b91506105aa8261056b565b602082019050919050565b5f6020820190508181035f8301526105cc81610593565b9050919050565b7f4e487b71000000000000000000000000000000000000000000000000000000005f52601160045260245ffd5b5f61060a8261042f565b91506106158361042f565b9250828201905061ffff81111561062f5761062e6105d3565b5b92915050565b5f819050919050565b5f61065861065361064e8461042f565b610635565b6103c3565b9050919050565b6106688161063e565b82525050565b5f6020820190506106815f83018461065f565b9291505056fea2646970667358221220d3a36da7b09737e24018f42b41e7b1f3d0788f5b977686c4801de265a1b2dcb064736f6c63430008190033",
					"opcodes": "PUSH1 0x80 PUSH1 0x40 MSTORE CALLVALUE DUP1 ISZERO PUSH2 0xF JUMPI PUSH0 DUP1 REVERT JUMPDEST POP PUSH2 0x3E8 PUSH0 DUP1 PUSH2 0x100 EXP DUP2 SLOAD DUP2 PUSH2 0xFFFF MUL NOT AND SWAP1 DUP4 PUSH2 0xFFFF AND MUL OR SWAP1 SSTORE POP PUSH1 0x40 MLOAD DUP1 PUSH1 0x40 ADD PUSH1 0x40 MSTORE DUP1 PUSH1 0x3 DUP2 MSTORE PUSH1 0x20 ADD PUSH32 0x5061740000000000000000000000000000000000000000000000000000000000 DUP2 MSTORE POP PUSH1 0x2 SWAP1 DUP2 PUSH2 0x71 SWAP2 SWAP1 PUSH2 0x2DF JUMP JUMPDEST POP PUSH2 0xC350 PUSH0 PUSH1 0x2 PUSH2 0x100 EXP DUP2 SLOAD DUP2 PUSH4 0xFFFFFFFF MUL NOT AND SWAP1 DUP4 PUSH4 0xFFFFFFFF AND MUL OR SWAP1 SSTORE POP PUSH5 0x1A291109A6 PUSH1 0x1 DUP2 SWAP1 SSTORE POP PUSH2 0x3AE JUMP JUMPDEST PUSH0 DUP2 MLOAD SWAP1 POP SWAP2 SWAP1 POP JUMP JUMPDEST PUSH32 0x4E487B7100000000000000000000000000000000000000000000000000000000 PUSH0 MSTORE PUSH1 0x41 PUSH1 0x4 MSTORE PUSH1 0x24 PUSH0 REVERT JUMPDEST PUSH32 0x4E487B7100000000000000000000000000000000000000000000000000000000 PUSH0 MSTORE PUSH1 0x22 PUSH1 0x4 MSTORE PUSH1 0x24 PUSH0 REVERT JUMPDEST PUSH0 PUSH1 0x2 DUP3 DIV SWAP1 POP PUSH1 0x1 DUP3 AND DUP1 PUSH2 0x120 JUMPI PUSH1 0x7F DUP3 AND SWAP2 POP JUMPDEST PUSH1 0x20 DUP3 LT DUP2 SUB PUSH2 0x133 JUMPI PUSH2 0x132 PUSH2 0xDC JUMP JUMPDEST JUMPDEST POP SWAP2 SWAP1 POP JUMP JUMPDEST PUSH0 DUP2 SWAP1 POP DUP2 PUSH0 MSTORE PUSH1 0x20 PUSH0 KECCAK256 SWAP1 POP SWAP2 SWAP1 POP JUMP JUMPDEST PUSH0 PUSH1 0x20 PUSH1 0x1F DUP4 ADD DIV SWAP1 POP SWAP2 SWAP1 POP JUMP JUMPDEST PUSH0 DUP3 DUP3 SHL SWAP1 POP SWAP3 SWAP2 POP POP JUMP JUMPDEST PUSH0 PUSH1 0x8 DUP4 MUL PUSH2 0x195 PUSH32 0xFFFFFFFFFFFFFFFFFFFFFFFFFFFFFFFFFFFFFFFFFFFFFFFFFFFFFFFFFFFFFFFF DUP3 PUSH2 0x15A JUMP JUMPDEST PUSH2 0x19F DUP7 DUP4 PUSH2 0x15A JUMP JUMPDEST SWAP6 POP DUP1 NOT DUP5 AND SWAP4 POP DUP1 DUP7 AND DUP5 OR SWAP3 POP POP POP SWAP4 SWAP3 POP POP POP JUMP JUMPDEST PUSH0 DUP2 SWAP1 POP SWAP2 SWAP1 POP JUMP JUMPDEST PUSH0 DUP2 SWAP1 POP SWAP2 SWAP1 POP JUMP JUMPDEST PUSH0 PUSH2 0x1E3 PUSH2 0x1DE PUSH2 0x1D9 DUP5 PUSH2 0x1B7 JUMP JUMPDEST PUSH2 0x1C0 JUMP JUMPDEST PUSH2 0x1B7 JUMP JUMPDEST SWAP1 POP SWAP2 SWAP1 POP JUMP JUMPDEST PUSH0 DUP2 SWAP1 POP SWAP2 SWAP1 POP JUMP JUMPDEST PUSH2 0x1FC DUP4 PUSH2 0x1C9 JUMP JUMPDEST PUSH2 0x210 PUSH2 0x208 DUP3 PUSH2 0x1EA JUMP JUMPDEST DUP5 DUP5 SLOAD PUSH2 0x166 JUMP JUMPDEST DUP3 SSTORE POP POP POP POP JUMP JUMPDEST PUSH0 SWAP1 JUMP JUMPDEST PUSH2 0x224 PUSH2 0x218 JUMP JUMPDEST PUSH2 0x22F DUP2 DUP5 DUP5 PUSH2 0x1F3 JUMP JUMPDEST POP POP POP JUMP JUMPDEST JUMPDEST DUP2 DUP2 LT ISZERO PUSH2 0x252 JUMPI PUSH2 0x247 PUSH0 DUP3 PUSH2 0x21C JUMP JUMPDEST PUSH1 0x1 DUP2 ADD SWAP1 POP PUSH2 0x235 JUMP JUMPDEST POP POP JUMP JUMPDEST PUSH1 0x1F DUP3 GT ISZERO PUSH2 0x297 JUMPI PUSH2 0x268 DUP2 PUSH2 0x139 JUMP JUMPDEST PUSH2 0x271 DUP5 PUSH2 0x14B JUMP JUMPDEST DUP2 ADD PUSH1 0x20 DUP6 LT ISZERO PUSH2 0x280 JUMPI DUP2 SWAP1 POP JUMPDEST PUSH2 0x294 PUSH2 0x28C DUP6 PUSH2 0x14B JUMP JUMPDEST DUP4 ADD DUP3 PUSH2 0x234 JUMP JUMPDEST POP POP JUMPDEST POP POP POP JUMP JUMPDEST PUSH0 DUP3 DUP3 SHR SWAP1 POP SWAP3 SWAP2 POP POP JUMP JUMPDEST PUSH0 PUSH2 0x2B7 PUSH0 NOT DUP5 PUSH1 0x8 MUL PUSH2 0x29C JUMP JUMPDEST NOT DUP1 DUP4 AND SWAP2 POP POP SWAP3 SWAP2 POP POP JUMP JUMPDEST PUSH0 PUSH2 0x2CF DUP4 DUP4 PUSH2 0x2A8 JUMP JUMPDEST SWAP2 POP DUP3 PUSH1 0x2 MUL DUP3 OR SWAP1 POP SWAP3 SWAP2 POP POP JUMP JUMPDEST PUSH2 0x2E8 DUP3 PUSH2 0xA5 JUMP JUMPDEST PUSH8 0xFFFFFFFFFFFFFFFF DUP2 GT ISZERO PUSH2 0x301 JUMPI PUSH2 0x300 PUSH2 0xAF JUMP JUMPDEST JUMPDEST PUSH2 0x30B DUP3 SLOAD PUSH2 0x109 JUMP JUMPDEST PUSH2 0x316 DUP3 DUP3 DUP6 PUSH2 0x256 JUMP JUMPDEST PUSH0 PUSH1 0x20 SWAP1 POP PUSH1 0x1F DUP4 GT PUSH1 0x1 DUP2 EQ PUSH2 0x347 JUMPI PUSH0 DUP5 ISZERO PUSH2 0x335 JUMPI DUP3 DUP8 ADD MLOAD SWAP1 POP JUMPDEST PUSH2 0x33F DUP6 DUP3 PUSH2 0x2C4 JUMP JUMPDEST DUP7 SSTORE POP PUSH2 0x3A6 JUMP JUMPDEST PUSH1 0x1F NOT DUP5 AND PUSH2 0x355 DUP7 PUSH2 0x139 JUMP JUMPDEST PUSH0 JUMPDEST DUP3 DUP2 LT ISZERO PUSH2 0x37C JUMPI DUP5 DUP10 ADD MLOAD DUP3 SSTORE PUSH1 0x1 DUP3 ADD SWAP2 POP PUSH1 0x20 DUP6 ADD SWAP5 POP PUSH1 0x20 DUP2 ADD SWAP1 POP PUSH2 0x357 JUMP JUMPDEST DUP7 DUP4 LT ISZERO PUSH2 0x399 JUMPI DUP5 DUP10 ADD MLOAD PUSH2 0x395 PUSH1 0x1F DUP10 AND DUP3 PUSH2 0x2A8 JUMP JUMPDEST DUP4 SSTORE POP JUMPDEST PUSH1 0x1 PUSH1 0x2 DUP9 MUL ADD DUP9 SSTORE POP POP POP JUMPDEST POP POP POP POP POP POP JUMP JUMPDEST PUSH2 0x6BD DUP1 PUSH2 0x3BB PUSH0 CODECOPY PUSH0 RETURN INVALID PUSH1 0x80 PUSH1 0x40 MSTORE CALLVALUE DUP1 ISZERO PUSH2 0xF JUMPI PUSH0 DUP1 REVERT JUMPDEST POP PUSH1 0x4 CALLDATASIZE LT PUSH2 0x7B JUMPI PUSH0 CALLDATALOAD PUSH1 0xE0 SHR DUP1 PUSH4 0x4C764809 GT PUSH2 0x59 JUMPI DUP1 PUSH4 0x4C764809 EQ PUSH2 0xD9 JUMPI DUP1 PUSH4 0x52C98689 EQ PUSH2 0xE3 JUMPI DUP1 PUSH4 0x6D45E2A5 EQ PUSH2 0xFF JUMPI DUP1 PUSH4 0x8F6A861A EQ PUSH2 0x11D JUMPI PUSH2 0x7B JUMP JUMPDEST DUP1 PUSH4 0x6FDDE03 EQ PUSH2 0x7F JUMPI DUP1 PUSH4 0x3F83EA3B EQ PUSH2 0x9D JUMPI DUP1 PUSH4 0x49574402 EQ PUSH2 0xBB JUMPI JUMPDEST PUSH0 DUP1 REVERT JUMPDEST PUSH2 0x87 PUSH2 0x14D JUMP JUMPDEST PUSH1 0x40 MLOAD PUSH2 0x94 SWAP2 SWAP1 PUSH2 0x3A3 JUMP JUMPDEST PUSH1 0x40 MLOAD DUP1 SWAP2 SUB SWAP1 RETURN JUMPDEST PUSH2 0xA5 PUSH2 0x1D9 JUMP JUMPDEST PUSH1 0x40 MLOAD PUSH2 0xB2 SWAP2 SWAP1 PUSH2 0x3DB JUMP JUMPDEST PUSH1 0x40 MLOAD DUP1 SWAP2 SUB SWAP1 RETURN JUMPDEST PUSH2 0xC3 PUSH2 0x1DF JUMP JUMPDEST PUSH1 0x40 MLOAD PUSH2 0xD0 SWAP2 SWAP1 PUSH2 0x412 JUMP JUMPDEST PUSH1 0x40 MLOAD DUP1 SWAP2 SUB SWAP1 RETURN JUMPDEST PUSH2 0xE1 PUSH2 0x1F7 JUMP JUMPDEST STOP JUMPDEST PUSH2 0xFD PUSH1 0x4 DUP1 CALLDATASIZE SUB DUP2 ADD SWAP1 PUSH2 0xF8 SWAP2 SWAP1 PUSH2 0x466 JUMP JUMPDEST PUSH2 0x216 JUMP JUMPDEST STOP JUMPDEST PUSH2 0x107 PUSH2 0x314 JUMP JUMPDEST PUSH1 0x40 MLOAD PUSH2 0x114 SWAP2 SWAP1 PUSH2 0x4A0 JUMP JUMPDEST PUSH1 0x40 MLOAD DUP1 SWAP2 SUB SWAP1 RETURN JUMPDEST PUSH2 0x137 PUSH1 0x4 DUP1 CALLDATASIZE SUB DUP2 ADD SWAP1 PUSH2 0x132 SWAP2 SWAP1 PUSH2 0x4E3 JUMP JUMPDEST PUSH2 0x329 JUMP JUMPDEST PUSH1 0x40 MLOAD PUSH2 0x144 SWAP2 SWAP1 PUSH2 0x3DB JUMP JUMPDEST PUSH1 0x40 MLOAD DUP1 SWAP2 SUB SWAP1 RETURN JUMPDEST PUSH1 0x2 DUP1 SLOAD PUSH2 0x15A SWAP1 PUSH2 0x53B JUMP JUMPDEST DUP1 PUSH1 0x1F ADD PUSH1 0x20 DUP1 SWAP2 DIV MUL PUSH1 0x20 ADD PUSH1 0x40 MLOAD SWAP1 DUP2 ADD PUSH1 0x40 MSTORE DUP1 SWAP3 SWAP2 SWAP1 DUP2 DUP2 MSTORE PUSH1 0x20 ADD DUP3 DUP1 SLOAD PUSH2 0x186 SWAP1 PUSH2 0x53B JUMP JUMPDEST DUP1 ISZERO PUSH2 0x1D1 JUMPI DUP1 PUSH1 0x1F LT PUSH2 0x1A8 JUMPI PUSH2 0x100 DUP1 DUP4 SLOAD DIV MUL DUP4 MSTORE SWAP2 PUSH1 0x20 ADD SWAP2 PUSH2 0x1D1 JUMP JUMPDEST DUP3 ADD SWAP2 SWAP1 PUSH0 MSTORE PUSH1 0x20 PUSH0 KECCAK256 SWAP1 JUMPDEST DUP2 SLOAD DUP2 MSTORE SWAP1 PUSH1 0x1 ADD SWAP1 PUSH1 0x20 ADD DUP1 DUP4 GT PUSH2 0x1B4 JUMPI DUP3 SWAP1 SUB PUSH1 0x1F AND DUP3 ADD SWAP2 JUMPDEST POP POP POP POP POP DUP2 JUMP JUMPDEST PUSH1 0x1 SLOAD DUP2 JUMP JUMPDEST PUSH0 DUP1 PUSH1 0x2 SWAP1 SLOAD SWAP1 PUSH2 0x100 EXP SWAP1 DIV PUSH4 0xFFFFFFFF AND SWAP1 POP SWAP1 JUMP JUMPDEST PUSH2 0x3E8 PUSH0 DUP1 PUSH2 0x100 EXP DUP2 SLOAD DUP2 PUSH2 0xFFFF MUL NOT AND SWAP1 DUP4 PUSH2 0xFFFF AND MUL OR SWAP1 SSTORE POP JUMP JUMPDEST PUSH2 0x1388 DUP2 PUSH2 0xFFFF AND GT ISZERO PUSH2 0x25F JUMPI PUSH1 0x40 MLOAD PUSH32 0x8C379A000000000000000000000000000000000000000000000000000000000 DUP2 MSTORE PUSH1 0x4 ADD PUSH2 0x256 SWAP1 PUSH2 0x5B5 JUMP JUMPDEST PUSH1 0x40 MLOAD DUP1 SWAP2 SUB SWAP1 REVERT JUMPDEST PUSH2 0x1388 DUP2 PUSH0 DUP1 SLOAD SWAP1 PUSH2 0x100 EXP SWAP1 DIV PUSH2 0xFFFF AND PUSH2 0x27B SWAP2 SWAP1 PUSH2 0x600 JUMP JUMPDEST PUSH2 0xFFFF AND GT ISZERO PUSH2 0x2DA JUMPI DUP1 PUSH0 DUP1 SLOAD SWAP1 PUSH2 0x100 EXP SWAP1 DIV PUSH2 0xFFFF AND PUSH2 0x29E SWAP2 SWAP1 PUSH2 0x600 JUMP JUMPDEST PUSH1 0x40 MLOAD PUSH32 0xF7D410900000000000000000000000000000000000000000000000000000000 DUP2 MSTORE PUSH1 0x4 ADD PUSH2 0x2D1 SWAP2 SWAP1 PUSH2 0x66E JUMP JUMPDEST PUSH1 0x40 MLOAD DUP1 SWAP2 SUB SWAP1 REVERT JUMPDEST DUP1 PUSH0 DUP1 DUP3 DUP3 DUP3 SWAP1 SLOAD SWAP1 PUSH2 0x100 EXP SWAP1 DIV PUSH2 0xFFFF AND PUSH2 0x2F7 SWAP2 SWAP1 PUSH2 0x600 JUMP JUMPDEST SWAP3 POP PUSH2 0x100 EXP DUP2 SLOAD DUP2 PUSH2 0xFFFF MUL NOT AND SWAP1 DUP4 PUSH2 0xFFFF AND MUL OR SWAP1 SSTORE POP POP JUMP JUMPDEST PUSH0 DUP1 PUSH0 SWAP1 SLOAD SWAP1 PUSH2 0x100 EXP SWAP1 DIV PUSH2 0xFFFF AND SWAP1 POP SWAP1 JUMP JUMPDEST PUSH0 DUP2 SLOAD SWAP1 POP SWAP2 SWAP1 POP JUMP JUMPDEST PUSH0 DUP2 MLOAD SWAP1 POP SWAP2 SWAP1 POP JUMP JUMPDEST PUSH0 DUP3 DUP3 MSTORE PUSH1 0x20 DUP3 ADD SWAP1 POP SWAP3 SWAP2 POP POP JUMP JUMPDEST DUP3 DUP2 DUP4 MCOPY PUSH0 DUP4 DUP4 ADD MSTORE POP POP POP JUMP JUMPDEST PUSH0 PUSH1 0x1F NOT PUSH1 0x1F DUP4 ADD AND SWAP1 POP SWAP2 SWAP1 POP JUMP JUMPDEST PUSH0 PUSH2 0x375 DUP3 PUSH2 0x333 JUMP JUMPDEST PUSH2 0x37F DUP2 DUP6 PUSH2 0x33D JUMP JUMPDEST SWAP4 POP PUSH2 0x38F DUP2 DUP6 PUSH1 0x20 DUP7 ADD PUSH2 0x34D JUMP JUMPDEST PUSH2 0x398 DUP2 PUSH2 0x35B JUMP JUMPDEST DUP5 ADD SWAP2 POP POP SWAP3 SWAP2 POP POP JUMP JUMPDEST PUSH0 PUSH1 0x20 DUP3 ADD SWAP1 POP DUP2 DUP2 SUB PUSH0 DUP4 ADD MSTORE PUSH2 0x3BB DUP2 DUP5 PUSH2 0x36B JUMP JUMPDEST SWAP1 POP SWAP3 SWAP2 POP POP JUMP JUMPDEST PUSH0 DUP2 SWAP1 POP SWAP2 SWAP1 POP JUMP JUMPDEST PUSH2 0x3D5 DUP2 PUSH2 0x3C3 JUMP JUMPDEST DUP3 MSTORE POP POP JUMP JUMPDEST PUSH0 PUSH1 0x20 DUP3 ADD SWAP1 POP PUSH2 0x3EE PUSH0 DUP4 ADD DUP5 PUSH2 0x3CC JUMP JUMPDEST SWAP3 SWAP2 POP POP JUMP JUMPDEST PUSH0 PUSH4 0xFFFFFFFF DUP3 AND SWAP1 POP SWAP2 SWAP1 POP JUMP JUMPDEST PUSH2 0x40C DUP2 PUSH2 0x3F4 JUMP JUMPDEST DUP3 MSTORE POP POP JUMP JUMPDEST PUSH0 PUSH1 0x20 DUP3 ADD SWAP1 POP PUSH2 0x425 PUSH0 DUP4 ADD DUP5 PUSH2 0x403 JUMP JUMPDEST SWAP3 SWAP2 POP POP JUMP JUMPDEST PUSH0 DUP1 REVERT JUMPDEST PUSH0 PUSH2 0xFFFF DUP3 AND SWAP1 POP SWAP2 SWAP1 POP JUMP JUMPDEST PUSH2 0x445 DUP2 PUSH2 0x42F JUMP JUMPDEST DUP2 EQ PUSH2 0x44F JUMPI PUSH0 DUP1 REVERT JUMPDEST POP JUMP JUMPDEST PUSH0 DUP2 CALLDATALOAD SWAP1 POP PUSH2 0x460 DUP2 PUSH2 0x43C JUMP JUMPDEST SWAP3 SWAP2 POP POP JUMP JUMPDEST PUSH0 PUSH1 0x20 DUP3 DUP5 SUB SLT ISZERO PUSH2 0x47B JUMPI PUSH2 0x47A PUSH2 0x42B JUMP JUMPDEST JUMPDEST PUSH0 PUSH2 0x488 DUP5 DUP3 DUP6 ADD PUSH2 0x452 JUMP JUMPDEST SWAP2 POP POP SWAP3 SWAP2 POP POP JUMP JUMPDEST PUSH2 0x49A DUP2 PUSH2 0x42F JUMP JUMPDEST DUP3 MSTORE POP POP JUMP JUMPDEST PUSH0 PUSH1 0x20 DUP3 ADD SWAP1 POP PUSH2 0x4B3 PUSH0 DUP4 ADD DUP5 PUSH2 0x491 JUMP JUMPDEST SWAP3 SWAP2 POP POP JUMP JUMPDEST PUSH2 0x4C2 DUP2 PUSH2 0x3C3 JUMP JUMPDEST DUP2 EQ PUSH2 0x4CC JUMPI PUSH0 DUP1 REVERT JUMPDEST POP JUMP JUMPDEST PUSH0 DUP2 CALLDATALOAD SWAP1 POP PUSH2 0x4DD DUP2 PUSH2 0x4B9 JUMP JUMPDEST SWAP3 SWAP2 POP POP JUMP JUMPDEST PUSH0 PUSH1 0x20 DUP3 DUP5 SUB SLT ISZERO PUSH2 0x4F8 JUMPI PUSH2 0x4F7 PUSH2 0x42B JUMP JUMPDEST JUMPDEST PUSH0 PUSH2 0x505 DUP5 DUP3 DUP6 ADD PUSH2 0x4CF JUMP JUMPDEST SWAP2 POP POP SWAP3 SWAP2 POP POP JUMP JUMPDEST PUSH32 0x4E487B7100000000000000000000000000000000000000000000000000000000 PUSH0 MSTORE PUSH1 0x22 PUSH1 0x4 MSTORE PUSH1 0x24 PUSH0 REVERT JUMPDEST PUSH0 PUSH1 0x2 DUP3 DIV SWAP1 POP PUSH1 0x1 DUP3 AND DUP1 PUSH2 0x552 JUMPI PUSH1 0x7F DUP3 AND SWAP2 POP JUMPDEST PUSH1 0x20 DUP3 LT DUP2 SUB PUSH2 0x565 JUMPI PUSH2 0x564 PUSH2 0x50E JUMP JUMPDEST JUMPDEST POP SWAP2 SWAP1 POP JUMP JUMPDEST PUSH32 0x546F6F206D616E79207368617265730000000000000000000000000000000000 PUSH0 DUP3 ADD MSTORE POP JUMP JUMPDEST PUSH0 PUSH2 0x59F PUSH1 0xF DUP4 PUSH2 0x33D JUMP JUMPDEST SWAP2 POP PUSH2 0x5AA DUP3 PUSH2 0x56B JUMP JUMPDEST PUSH1 0x20 DUP3 ADD SWAP1 POP SWAP2 SWAP1 POP JUMP JUMPDEST PUSH0 PUSH1 0x20 DUP3 ADD SWAP1 POP DUP2 DUP2 SUB PUSH0 DUP4 ADD MSTORE PUSH2 0x5CC DUP2 PUSH2 0x593 JUMP JUMPDEST SWAP1 POP SWAP2 SWAP1 POP JUMP JUMPDEST PUSH32 0x4E487B7100000000000000000000000000000000000000000000000000000000 PUSH0 MSTORE PUSH1 0x11 PUSH1 0x4 MSTORE PUSH1 0x24 PUSH0 REVERT JUMPDEST PUSH0 PUSH2 0x60A DUP3 PUSH2 0x42F JUMP JUMPDEST SWAP2 POP PUSH2 0x615 DUP4 PUSH2 0x42F JUMP JUMPDEST SWAP3 POP DUP3 DUP3 ADD SWAP1 POP PUSH2 0xFFFF DUP2 GT ISZERO PUSH2 0x62F JUMPI PUSH2 0x62E PUSH2 0x5D3 JUMP JUMPDEST JUMPDEST SWAP3 SWAP2 POP POP JUMP JUMPDEST PUSH0 DUP2 SWAP1 POP SWAP2 SWAP1 POP JUMP JUMPDEST PUSH0 PUSH2 0x658 PUSH2 0x653 PUSH2 0x64E DUP5 PUSH2 0x42F JUMP JUMPDEST PUSH2 0x635 JUMP JUMPDEST PUSH2 0x3C3 JUMP JUMPDEST SWAP1 POP SWAP2 SWAP1 POP JUMP JUMPDEST PUSH2 0x668 DUP2 PUSH2 0x63E JUMP JUMPDEST DUP3 MSTORE POP POP JUMP JUMPDEST PUSH0 PUSH1 0x20 DUP3 ADD SWAP1 POP PUSH2 0x681 PUSH0 DUP4 ADD DUP5 PUSH2 0x65F JUMP JUMPDEST SWAP3 SWAP2 POP POP JUMP INVALID LOG2 PUSH5 0x6970667358 0x22 SLT KECCAK256 0xD3 LOG3 PUSH14 0xA7B09737E24018F42B41E7B1F3D0 PUSH25 0x8F5B977686C4801DE265A1B2DCB064736F6C63430008190033 "
				},
				"gasEstimates": {
					"creation": {
						"codeDepositCost": "345000",
						"executionCost": "infinite",
						"totalCost": "infinite"
					},
					"external": {
						"checkForPacking(uint256)": "infinite",
						"debugResetShares()": "24409",
						"grantShares(uint16)": "infinite",
						"idNumber()": "2448",
						"name()": "infinite",
						"viewSalary()": "2569",
						"viewShares()": "2517"
					}
				},
				"methodIdentifiers": {
					"checkForPacking(uint256)": "8f6a861a",
					"debugResetShares()": "4c764809",
					"grantShares(uint16)": "52c98689",
					"idNumber()": "3f83ea3b",
					"name()": "06fdde03",
					"viewSalary()": "49574402",
					"viewShares()": "6d45e2a5"
				}
			},
			"storageLayout": {
				"storage": [
					{
						"astId": 3,
						"contract": "contrakts base/artifacts/EmployeeStorage.sol:EmployeeStorage",
						"label": "shares",
						"offset": 0,
						"slot": "0",
						"type": "t_uint16"
					},
					{
						"astId": 5,
						"contract": "contrakts base/artifacts/EmployeeStorage.sol:EmployeeStorage",
						"label": "salary",
						"offset": 2,
						"slot": "0",
						"type": "t_uint32"
					},
					{
						"astId": 7,
						"contract": "contrakts base/artifacts/EmployeeStorage.sol:EmployeeStorage",
						"label": "idNumber",
						"offset": 0,
						"slot": "1",
						"type": "t_uint256"
					},
					{
						"astId": 9,
						"contract": "contrakts base/artifacts/EmployeeStorage.sol:EmployeeStorage",
						"label": "name",
						"offset": 0,
						"slot": "2",
						"type": "t_string_storage"
					}
				],
				"types": {
					"t_string_storage": {
						"encoding": "bytes",
						"label": "string",
						"numberOfBytes": "32"
					},
					"t_uint16": {
						"encoding": "inplace",
						"label": "uint16",
						"numberOfBytes": "2"
					},
					"t_uint256": {
						"encoding": "inplace",
						"label": "uint256",
						"numberOfBytes": "32"
					},
					"t_uint32": {
						"encoding": "inplace",
						"label": "uint32",
						"numberOfBytes": "4"
					}
				}
			},
			"userdoc": {
				"kind": "user",
				"methods": {
					"checkForPacking(uint256)": {
						"notice": "Do not modify this function.  It is used to enable the unit test for this pin to check whether or not you have configured your storage variables to make use of packing. If you wish to cheat, simply modify this function to always return `0` I'm not your boss ¯\\_(ツ)_/¯ Fair warning though, if you do cheat, it will be on the blockchain having been deployed by your wallet....FOREVER!"
					},
					"debugResetShares()": {
						"notice": "Warning: Anyone can use this function at any time!"
					}
				},
				"version": 1
			}
		}
	}
}