{
	"base/WeightedVoting.sol": {
		"WeightedVoting": {
			"abi": [
				{
					"inputs": [],
					"stateMutability": "nonpayable",
					"type": "constructor"
				},
				{
					"inputs": [],
					"name": "AllTokensClaimed",
					"type": "error"
				},
				{
					"inputs": [],
					"name": "AlreadyVoted",
					"type": "error"
				},
				{
					"inputs": [
						{
							"internalType": "address",
							"name": "spender",
							"type": "address"
						},
						{
							"internalType": "uint256",
							"name": "allowance",
							"type": "uint256"
						},
						{
							"internalType": "uint256",
							"name": "needed",
							"type": "uint256"
						}
					],
					"name": "ERC20InsufficientAllowance",
					"type": "error"
				},
				{
					"inputs": [
						{
							"internalType": "address",
							"name": "sender",
							"type": "address"
						},
						{
							"internalType": "uint256",
							"name": "balance",
							"type": "uint256"
						},
						{
							"internalType": "uint256",
							"name": "needed",
							"type": "uint256"
						}
					],
					"name": "ERC20InsufficientBalance",
					"type": "error"
				},
				{
					"inputs": [
						{
							"internalType": "address",
							"name": "approver",
							"type": "address"
						}
					],
					"name": "ERC20InvalidApprover",
					"type": "error"
				},
				{
					"inputs": [
						{
							"internalType": "address",
							"name": "receiver",
							"type": "address"
						}
					],
					"name": "ERC20InvalidReceiver",
					"type": "error"
				},
				{
					"inputs": [
						{
							"internalType": "address",
							"name": "sender",
							"type": "address"
						}
					],
					"name": "ERC20InvalidSender",
					"type": "error"
				},
				{
					"inputs": [
						{
							"internalType": "address",
							"name": "spender",
							"type": "address"
						}
					],
					"name": "ERC20InvalidSpender",
					"type": "error"
				},
				{
					"inputs": [],
					"name": "NoTokensHeld",
					"type": "error"
				},
				{
					"inputs": [
						{
							"internalType": "uint256",
							"name": "quorum",
							"type": "uint256"
						}
					],
					"name": "QuorumTooHigh",
					"type": "error"
				},
				{
					"inputs": [],
					"name": "TokensClaimed",
					"type": "error"
				},
				{
					"inputs": [],
					"name": "VotingClosed",
					"type": "error"
				},
				{
					"anonymous": false,
					"inputs": [
						{
							"indexed": true,
							"internalType": "address",
							"name": "owner",
							"type": "address"
						},
						{
							"indexed": true,
							"internalType": "address",
							"name": "spender",
							"type": "address"
						},
						{
							"indexed": false,
							"internalType": "uint256",
							"name": "value",
							"type": "uint256"
						}
					],
					"name": "Approval",
					"type": "event"
				},
				{
					"anonymous": false,
					"inputs": [
						{
							"indexed": true,
							"internalType": "address",
							"name": "from",
							"type": "address"
						},
						{
							"indexed": true,
							"internalType": "address",
							"name": "to",
							"type": "address"
						},
						{
							"indexed": false,
							"internalType": "uint256",
							"name": "value",
							"type": "uint256"
						}
					],
					"name": "Transfer",
					"type": "event"
				},
				{
					"inputs": [
						{
							"internalType": "address",
							"name": "owner",
							"type": "address"
						},
						{
							"internalType": "address",
							"name": "spender",
							"type": "address"
						}
					],
					"name": "allowance",
					"outputs": [
						{
							"internalType": "uint256",
							"name": "",
							"type": "uint256"
						}
					],
					"stateMutability": "view",
					"type": "function"
				},
				{
					"inputs": [
						{
							"internalType": "address",
							"name": "spender",
							"type": "address"
						},
						{
							"internalType": "uint256",
							"name": "value",
							"type": "uint256"
						}
					],
					"name": "approve",
					"outputs": [
						{
							"internalType": "bool",
							"name": "",
							"type": "bool"
						}
					],
					"stateMutability": "nonpayable",
					"type": "function"
				},
				{
					"inputs": [
						{
							"internalType": "address",
							"name": "account",
							"type": "address"
						}
					],
					"name": "balanceOf",
					"outputs": [
						{
							"internalType": "uint256",
							"name": "",
							"type": "uint256"
						}
					],
					"stateMutability": "view",
					"type": "function"
				},
				{
					"inputs": [
						{
							"internalType": "address",
							"name": "",
							"type": "address"
						}
					],
					"name": "balances",
					"outputs": [
						{
							"internalType": "uint256",
							"name": "",
							"type": "uint256"
						}
					],
					"stateMutability": "view",
					"type": "function"
				},
				{
					"inputs": [],
					"name": "claim",
					"outputs": [],
					"stateMutability": "nonpayable",
					"type": "function"
				},
				{
					"inputs": [
						{
							"internalType": "string",
							"name": "_issueDesc",
							"type": "string"
						},
						{
							"internalType": "uint256",
							"name": "_quorum",
							"type": "uint256"
						}
					],
					"name": "createIssue",
					"outputs": [
						{
							"internalType": "uint256",
							"name": "",
							"type": "uint256"
						}
					],
					"stateMutability": "nonpayable",
					"type": "function"
				},
				{
					"inputs": [],
					"name": "decimals",
					"outputs": [
						{
							"internalType": "uint8",
							"name": "",
							"type": "uint8"
						}
					],
					"stateMutability": "view",
					"type": "function"
				},
				{
					"inputs": [
						{
							"internalType": "uint256",
							"name": "_issueId",
							"type": "uint256"
						}
					],
					"name": "getIssue",
					"outputs": [
						{
							"components": [
								{
									"internalType": "address[]",
									"name": "voters",
									"type": "address[]"
								},
								{
									"internalType": "string",
									"name": "issueDesc",
									"type": "string"
								},
								{
									"internalType": "uint256",
									"name": "votesFor",
									"type": "uint256"
								},
								{
									"internalType": "uint256",
									"name": "votesAgainst",
									"type": "uint256"
								},
								{
									"internalType": "uint256",
									"name": "votesAbstain",
									"type": "uint256"
								},
								{
									"internalType": "uint256",
									"name": "totalVotes",
									"type": "uint256"
								},
								{
									"internalType": "uint256",
									"name": "quorum",
									"type": "uint256"
								},
								{
									"internalType": "bool",
									"name": "passed",
									"type": "bool"
								},
								{
									"internalType": "bool",
									"name": "closed",
									"type": "bool"
								}
							],
							"internalType": "struct WeightedVoting.IssueView",
							"name": "",
							"type": "tuple"
						}
					],
					"stateMutability": "view",
					"type": "function"
				},
				{
					"inputs": [
						{
							"internalType": "address",
							"name": "",
							"type": "address"
						}
					],
					"name": "hasClaimed",
					"outputs": [
						{
							"internalType": "bool",
							"name": "",
							"type": "bool"
						}
					],
					"stateMutability": "view",
					"type": "function"
				},
				{
					"inputs": [],
					"name": "maxSupply",
					"outputs": [
						{
							"internalType": "uint256",
							"name": "",
							"type": "uint256"
						}
					],
					"stateMutability": "view",
					"type": "function"
				},
				{
					"inputs": [],
					"name": "name",
					"outputs": [
						{
							"internalType": "string",
							"name": "",
							"type": "string"
						}
					],
					"stateMutability": "view",
					"type": "function"
				},
				{
					"inputs": [],
					"name": "symbol",
					"outputs": [
						{
							"internalType": "string",
							"name": "",
							"type": "string"
						}
					],
					"stateMutability": "view",
					"type": "function"
				},
				{
					"inputs": [],
					"name": "totalSupply",
					"outputs": [
						{
							"internalType": "uint256",
							"name": "",
							"type": "uint256"
						}
					],
					"stateMutability": "view",
					"type": "function"
				},
				{
					"inputs": [
						{
							"internalType": "address",
							"name": "to",
							"type": "address"
						},
						{
							"internalType": "uint256",
							"name": "value",
							"type": "uint256"
						}
					],
					"name": "transfer",
					"outputs": [
						{
							"internalType": "bool",
							"name": "",
							"type": "bool"
						}
					],
					"stateMutability": "nonpayable",
					"type": "function"
				},
				{
					"inputs": [
						{
							"internalType": "address",
							"name": "from",
							"type": "address"
						},
						{
							"internalType": "address",
							"name": "to",
							"type": "address"
						},
						{
							"internalType": "uint256",
							"name": "value",
							"type": "uint256"
						}
					],
					"name": "transferFrom",
					"outputs": [
						{
							"internalType": "bool",
							"name": "",
							"type": "bool"
						}
					],
					"stateMutability": "nonpayable",
					"type": "function"
				},
				{
					"inputs": [
						{
							"internalType": "uint256",
							"name": "_issueId",
							"type": "uint256"
						},
						{
							"internalType": "enum WeightedVoting.Votes",
							"name": "_vote",
							"type": "uint8"
						}
					],
					"name": "vote",
					"outputs": [],
					"stateMutability": "nonpayable",
					"type": "function"
				}
			],
			"devdoc": {
				"errors": {
					"ERC20InsufficientAllowance(address,uint256,uint256)": [
						{
							"details": "Indicates a failure with the `spender`’s `allowance`. Used in transfers.",
							"params": {
								"allowance": "Amount of tokens a `spender` is allowed to operate with.",
								"needed": "Minimum amount required to perform a transfer.",
								"spender": "Address that may be allowed to operate on tokens without being their owner."
							}
						}
					],
					"ERC20InsufficientBalance(address,uint256,uint256)": [
						{
							"details": "Indicates an error related to the current `balance` of a `sender`. Used in transfers.",
							"params": {
								"balance": "Current balance for the interacting account.",
								"needed": "Minimum amount required to perform a transfer.",
								"sender": "Address whose tokens are being transferred."
							}
						}
					],
					"ERC20InvalidApprover(address)": [
						{
							"details": "Indicates a failure with the `approver` of a token to be approved. Used in approvals.",
							"params": {
								"approver": "Address initiating an approval operation."
							}
						}
					],
					"ERC20InvalidReceiver(address)": [
						{
							"details": "Indicates a failure with the token `receiver`. Used in transfers.",
							"params": {
								"receiver": "Address to which tokens are being transferred."
							}
						}
					],
					"ERC20InvalidSender(address)": [
						{
							"details": "Indicates a failure with the token `sender`. Used in transfers.",
							"params": {
								"sender": "Address whose tokens are being transferred."
							}
						}
					],
					"ERC20InvalidSpender(address)": [
						{
							"details": "Indicates a failure with the `spender` to be approved. Used in approvals.",
							"params": {
								"spender": "Address that may be allowed to operate on tokens without being their owner."
							}
						}
					]
				},
				"events": {
					"Approval(address,address,uint256)": {
						"details": "Emitted when the allowance of a `spender` for an `owner` is set by a call to {approve}. `value` is the new allowance."
					},
					"Transfer(address,address,uint256)": {
						"details": "Emitted when `value` tokens are moved from one account (`from`) to another (`to`). Note that `value` may be zero."
					}
				},
				"kind": "dev",
				"methods": {
					"allowance(address,address)": {
						"details": "See {IERC20-allowance}."
					},
					"approve(address,uint256)": {
						"details": "See {IERC20-approve}. NOTE: If `value` is the maximum `uint256`, the allowance is not updated on `transferFrom`. This is semantically equivalent to an infinite approval. Requirements: - `spender` cannot be the zero address."
					},
					"balanceOf(address)": {
						"details": "See {IERC20-balanceOf}."
					},
					"decimals()": {
						"details": "Returns the number of decimals used to get its user representation. For example, if `decimals` equals `2`, a balance of `505` tokens should be displayed to a user as `5.05` (`505 / 10 ** 2`). Tokens usually opt for a value of 18, imitating the relationship between Ether and Wei. This is the default value returned by this function, unless it's overridden. NOTE: This information is only used for _display_ purposes: it in no way affects any of the arithmetic of the contract, including {IERC20-balanceOf} and {IERC20-transfer}."
					},
					"name()": {
						"details": "Returns the name of the token."
					},
					"symbol()": {
						"details": "Returns the symbol of the token, usually a shorter version of the name."
					},
					"totalSupply()": {
						"details": "See {IERC20-totalSupply}."
					},
					"transfer(address,uint256)": {
						"details": "See {IERC20-transfer}. Requirements: - `to` cannot be the zero address. - the caller must have a balance of at least `value`."
					},
					"transferFrom(address,address,uint256)": {
						"details": "See {IERC20-transferFrom}. Emits an {Approval} event indicating the updated allowance. This is not required by the EIP. See the note at the beginning of {ERC20}. NOTE: Does not update the allowance if the current allowance is the maximum `uint256`. Requirements: - `from` and `to` cannot be the zero address. - `from` must have a balance of at least `value`. - the caller must have allowance for ``from``'s tokens of at least `value`."
					}
				},
				"version": 1
			},
			"evm": {
				"assembly": "    /* \"base/WeightedVoting.sol\":279:4682  contract WeightedVoting is ERC20 {... */\n  mstore(0x40, 0x80)\n    /* \"base/WeightedVoting.sol\":1277:1286  1_000_000 */\n  0x0f4240\n    /* \"base/WeightedVoting.sol\":1250:1286  uint256 public maxSupply = 1_000_000 */\n  0x07\n  sstore\n    /* \"base/WeightedVoting.sol\":1545:1718  constructor() ERC20(\"WeightedVoting\", \"WV\") {... */\n  callvalue\n  dup1\n  iszero\n  tag_1\n  jumpi\n  0x00\n  dup1\n  revert\ntag_1:\n  pop\n    /* \"@openzeppelin/contracts/token/ERC20/ERC20.sol\":1896:2009  constructor(string memory name_, string memory symbol_) {... */\n  mload(0x40)\n  dup1\n  0x40\n  add\n  0x40\n  mstore\n  dup1\n  0x0e\n  dup2\n  mstore\n  0x20\n  add\n  0x5765696768746564566f74696e67000000000000000000000000000000000000\n  dup2\n  mstore\n  pop\n  mload(0x40)\n  dup1\n  0x40\n  add\n  0x40\n  mstore\n  dup1\n  0x02\n  dup2\n  mstore\n  0x20\n  add\n  0x5756000000000000000000000000000000000000000000000000000000000000\n  dup2\n  mstore\n  pop\n    /* \"@openzeppelin/contracts/token/ERC20/ERC20.sol\":1970:1975  name_ */\n  dup2\n    /* \"@openzeppelin/contracts/token/ERC20/ERC20.sol\":1962:1967  _name */\n  0x03\n    /* \"@openzeppelin/contracts/token/ERC20/ERC20.sol\":1962:1975  _name = name_ */\n  swap1\n  dup2\n  tag_5\n  swap2\n  swap1\n  tag_6\n  jump\t// in\ntag_5:\n  pop\n    /* \"@openzeppelin/contracts/token/ERC20/ERC20.sol\":1995:2002  symbol_ */\n  dup1\n    /* \"@openzeppelin/contracts/token/ERC20/ERC20.sol\":1985:1992  _symbol */\n  0x04\n    /* \"@openzeppelin/contracts/token/ERC20/ERC20.sol\":1985:2002  _symbol = symbol_ */\n  swap1\n  dup2\n  tag_7\n  swap2\n  swap1\n  tag_6\n  jump\t// in\ntag_7:\n  pop\n    /* \"@openzeppelin/contracts/token/ERC20/ERC20.sol\":1896:2009  constructor(string memory name_, string memory symbol_) {... */\n  pop\n  pop\n    /* \"base/WeightedVoting.sol\":1600:1622  Issue storage newIssue */\n  0x00\n    /* \"base/WeightedVoting.sol\":1625:1631  issues */\n  0x08\n    /* \"base/WeightedVoting.sol\":1625:1638  issues.push() */\n  0x01\n  dup2\n  0x01\n  dup2\n  sload\n  add\n  dup1\n  dup3\n  sstore\n  dup1\n  swap2\n  pop\n  pop\n  sub\n  swap1\n  0x00\n  mstore\n  keccak256(0x00, 0x20)\n  swap1\n  0x09\n  mul\n  add\n    /* \"base/WeightedVoting.sol\":1600:1638  Issue storage newIssue = issues.push() */\n  swap1\n  pop\n    /* \"base/WeightedVoting.sol\":1649:1677  newIssue.issueDesc = \"burnt\" */\n  mload(0x40)\n  dup1\n  0x40\n  add\n  0x40\n  mstore\n  dup1\n  0x05\n  dup2\n  mstore\n  0x20\n  add\n  0x6275726e74000000000000000000000000000000000000000000000000000000\n  dup2\n  mstore\n  pop\n    /* \"base/WeightedVoting.sol\":1649:1657  newIssue */\n  dup2\n    /* \"base/WeightedVoting.sol\":1649:1667  newIssue.issueDesc */\n  0x02\n  add\n    /* \"base/WeightedVoting.sol\":1649:1677  newIssue.issueDesc = \"burnt\" */\n  swap1\n  dup2\n  tag_10\n  swap2\n  swap1\n  tag_6\n  jump\t// in\ntag_10:\n  pop\n    /* \"base/WeightedVoting.sol\":1706:1710  true */\n  0x01\n    /* \"base/WeightedVoting.sol\":1688:1696  newIssue */\n  dup2\n    /* \"base/WeightedVoting.sol\":1688:1703  newIssue.closed */\n  0x08\n  add\n  0x01\n    /* \"base/WeightedVoting.sol\":1688:1710  newIssue.closed = true */\n  0x0100\n  exp\n  dup2\n  sload\n  dup2\n  0xff\n  mul\n  not\n  and\n  swap1\n  dup4\n  iszero\n  iszero\n  mul\n  or\n  swap1\n  sstore\n  pop\n    /* \"base/WeightedVoting.sol\":1589:1718  {... */\n  pop\n    /* \"base/WeightedVoting.sol\":279:4682  contract WeightedVoting is ERC20 {... */\n  jump(tag_11)\n    /* \"#utility.yul\":7:106   */\ntag_12:\n    /* \"#utility.yul\":59:65   */\n  0x00\n    /* \"#utility.yul\":93:98   */\n  dup2\n    /* \"#utility.yul\":87:99   */\n  mload\n    /* \"#utility.yul\":77:99   */\n  swap1\n  pop\n    /* \"#utility.yul\":7:106   */\n  swap2\n  swap1\n  pop\n  jump\t// out\n    /* \"#utility.yul\":112:292   */\ntag_13:\n    /* \"#utility.yul\":160:237   */\n  0x4e487b7100000000000000000000000000000000000000000000000000000000\n    /* \"#utility.yul\":157:158   */\n  0x00\n    /* \"#utility.yul\":150:238   */\n  mstore\n    /* \"#utility.yul\":257:261   */\n  0x41\n    /* \"#utility.yul\":254:255   */\n  0x04\n    /* \"#utility.yul\":247:262   */\n  mstore\n    /* \"#utility.yul\":281:285   */\n  0x24\n    /* \"#utility.yul\":278:279   */\n  0x00\n    /* \"#utility.yul\":271:286   */\n  revert\n    /* \"#utility.yul\":298:478   */\ntag_14:\n    /* \"#utility.yul\":346:423   */\n  0x4e487b7100000000000000000000000000000000000000000000000000000000\n    /* \"#utility.yul\":343:344   */\n  0x00\n    /* \"#utility.yul\":336:424   */\n  mstore\n    /* \"#utility.yul\":443:447   */\n  0x22\n    /* \"#utility.yul\":440:441   */\n  0x04\n    /* \"#utility.yul\":433:448   */\n  mstore\n    /* \"#utility.yul\":467:471   */\n  0x24\n    /* \"#utility.yul\":464:465   */\n  0x00\n    /* \"#utility.yul\":457:472   */\n  revert\n    /* \"#utility.yul\":484:804   */\ntag_15:\n    /* \"#utility.yul\":528:534   */\n  0x00\n    /* \"#utility.yul\":565:566   */\n  0x02\n    /* \"#utility.yul\":559:563   */\n  dup3\n    /* \"#utility.yul\":555:567   */\n  div\n    /* \"#utility.yul\":545:567   */\n  swap1\n  pop\n    /* \"#utility.yul\":612:613   */\n  0x01\n    /* \"#utility.yul\":606:610   */\n  dup3\n    /* \"#utility.yul\":602:614   */\n  and\n    /* \"#utility.yul\":633:651   */\n  dup1\n    /* \"#utility.yul\":623:704   */\n  tag_37\n  jumpi\n    /* \"#utility.yul\":689:693   */\n  0x7f\n    /* \"#utility.yul\":681:687   */\n  dup3\n    /* \"#utility.yul\":677:694   */\n  and\n    /* \"#utility.yul\":667:694   */\n  swap2\n  pop\n    /* \"#utility.yul\":623:704   */\ntag_37:\n    /* \"#utility.yul\":751:753   */\n  0x20\n    /* \"#utility.yul\":743:749   */\n  dup3\n    /* \"#utility.yul\":740:754   */\n  lt\n    /* \"#utility.yul\":720:738   */\n  dup2\n    /* \"#utility.yul\":717:755   */\n  sub\n    /* \"#utility.yul\":714:798   */\n  tag_38\n  jumpi\n    /* \"#utility.yul\":770:788   */\n  tag_39\n  tag_14\n  jump\t// in\ntag_39:\n    /* \"#utility.yul\":714:798   */\ntag_38:\n    /* \"#utility.yul\":535:804   */\n  pop\n    /* \"#utility.yul\":484:804   */\n  swap2\n  swap1\n  pop\n  jump\t// out\n    /* \"#utility.yul\":810:951   */\ntag_16:\n    /* \"#utility.yul\":859:863   */\n  0x00\n    /* \"#utility.yul\":882:885   */\n  dup2\n    /* \"#utility.yul\":874:885   */\n  swap1\n  pop\n    /* \"#utility.yul\":905:908   */\n  dup2\n    /* \"#utility.yul\":902:903   */\n  0x00\n    /* \"#utility.yul\":895:909   */\n  mstore\n    /* \"#utility.yul\":939:943   */\n  0x20\n    /* \"#utility.yul\":936:937   */\n  0x00\n    /* \"#utility.yul\":926:944   */\n  keccak256\n    /* \"#utility.yul\":918:944   */\n  swap1\n  pop\n    /* \"#utility.yul\":810:951   */\n  swap2\n  swap1\n  pop\n  jump\t// out\n    /* \"#utility.yul\":957:1050   */\ntag_17:\n    /* \"#utility.yul\":994:1000   */\n  0x00\n    /* \"#utility.yul\":1041:1043   */\n  0x20\n    /* \"#utility.yul\":1036:1038   */\n  0x1f\n    /* \"#utility.yul\":1029:1034   */\n  dup4\n    /* \"#utility.yul\":1025:1039   */\n  add\n    /* \"#utility.yul\":1021:1044   */\n  div\n    /* \"#utility.yul\":1011:1044   */\n  swap1\n  pop\n    /* \"#utility.yul\":957:1050   */\n  swap2\n  swap1\n  pop\n  jump\t// out\n    /* \"#utility.yul\":1056:1163   */\ntag_18:\n    /* \"#utility.yul\":1100:1108   */\n  0x00\n    /* \"#utility.yul\":1150:1155   */\n  dup3\n    /* \"#utility.yul\":1144:1148   */\n  dup3\n    /* \"#utility.yul\":1140:1156   */\n  shl\n    /* \"#utility.yul\":1119:1156   */\n  swap1\n  pop\n    /* \"#utility.yul\":1056:1163   */\n  swap3\n  swap2\n  pop\n  pop\n  jump\t// out\n    /* \"#utility.yul\":1169:1562   */\ntag_19:\n    /* \"#utility.yul\":1238:1244   */\n  0x00\n    /* \"#utility.yul\":1288:1289   */\n  0x08\n    /* \"#utility.yul\":1276:1286   */\n  dup4\n    /* \"#utility.yul\":1272:1290   */\n  mul\n    /* \"#utility.yul\":1311:1408   */\n  tag_44\n    /* \"#utility.yul\":1341:1407   */\n  0xffffffffffffffffffffffffffffffffffffffffffffffffffffffffffffffff\n    /* \"#utility.yul\":1330:1339   */\n  dup3\n    /* \"#utility.yul\":1311:1408   */\n  tag_18\n  jump\t// in\ntag_44:\n    /* \"#utility.yul\":1429:1468   */\n  tag_45\n    /* \"#utility.yul\":1459:1467   */\n  dup7\n    /* \"#utility.yul\":1448:1457   */\n  dup4\n    /* \"#utility.yul\":1429:1468   */\n  tag_18\n  jump\t// in\ntag_45:\n    /* \"#utility.yul\":1417:1468   */\n  swap6\n  pop\n    /* \"#utility.yul\":1501:1505   */\n  dup1\n    /* \"#utility.yul\":1497:1506   */\n  not\n    /* \"#utility.yul\":1490:1495   */\n  dup5\n    /* \"#utility.yul\":1486:1507   */\n  and\n    /* \"#utility.yul\":1477:1507   */\n  swap4\n  pop\n    /* \"#utility.yul\":1550:1554   */\n  dup1\n    /* \"#utility.yul\":1540:1548   */\n  dup7\n    /* \"#utility.yul\":1536:1555   */\n  and\n    /* \"#utility.yul\":1529:1534   */\n  dup5\n    /* \"#utility.yul\":1526:1556   */\n  or\n    /* \"#utility.yul\":1516:1556   */\n  swap3\n  pop\n    /* \"#utility.yul\":1245:1562   */\n  pop\n  pop\n    /* \"#utility.yul\":1169:1562   */\n  swap4\n  swap3\n  pop\n  pop\n  pop\n  jump\t// out\n    /* \"#utility.yul\":1568:1645   */\ntag_20:\n    /* \"#utility.yul\":1605:1612   */\n  0x00\n    /* \"#utility.yul\":1634:1639   */\n  dup2\n    /* \"#utility.yul\":1623:1639   */\n  swap1\n  pop\n    /* \"#utility.yul\":1568:1645   */\n  swap2\n  swap1\n  pop\n  jump\t// out\n    /* \"#utility.yul\":1651:1711   */\ntag_21:\n    /* \"#utility.yul\":1679:1682   */\n  0x00\n    /* \"#utility.yul\":1700:1705   */\n  dup2\n    /* \"#utility.yul\":1693:1705   */\n  swap1\n  pop\n    /* \"#utility.yul\":1651:1711   */\n  swap2\n  swap1\n  pop\n  jump\t// out\n    /* \"#utility.yul\":1717:1859   */\ntag_22:\n    /* \"#utility.yul\":1767:1776   */\n  0x00\n    /* \"#utility.yul\":1800:1853   */\n  tag_49\n    /* \"#utility.yul\":1818:1852   */\n  tag_50\n    /* \"#utility.yul\":1827:1851   */\n  tag_51\n    /* \"#utility.yul\":1845:1850   */\n  dup5\n    /* \"#utility.yul\":1827:1851   */\n  tag_20\n  jump\t// in\ntag_51:\n    /* \"#utility.yul\":1818:1852   */\n  tag_21\n  jump\t// in\ntag_50:\n    /* \"#utility.yul\":1800:1853   */\n  tag_20\n  jump\t// in\ntag_49:\n    /* \"#utility.yul\":1787:1853   */\n  swap1\n  pop\n    /* \"#utility.yul\":1717:1859   */\n  swap2\n  swap1\n  pop\n  jump\t// out\n    /* \"#utility.yul\":1865:1940   */\ntag_23:\n    /* \"#utility.yul\":1908:1911   */\n  0x00\n    /* \"#utility.yul\":1929:1934   */\n  dup2\n    /* \"#utility.yul\":1922:1934   */\n  swap1\n  pop\n    /* \"#utility.yul\":1865:1940   */\n  swap2\n  swap1\n  pop\n  jump\t// out\n    /* \"#utility.yul\":1946:2215   */\ntag_24:\n    /* \"#utility.yul\":2056:2095   */\n  tag_54\n    /* \"#utility.yul\":2087:2094   */\n  dup4\n    /* \"#utility.yul\":2056:2095   */\n  tag_22\n  jump\t// in\ntag_54:\n    /* \"#utility.yul\":2117:2208   */\n  tag_55\n    /* \"#utility.yul\":2166:2207   */\n  tag_56\n    /* \"#utility.yul\":2190:2206   */\n  dup3\n    /* \"#utility.yul\":2166:2207   */\n  tag_23\n  jump\t// in\ntag_56:\n    /* \"#utility.yul\":2158:2164   */\n  dup5\n    /* \"#utility.yul\":2151:2155   */\n  dup5\n    /* \"#utility.yul\":2145:2156   */\n  sload\n    /* \"#utility.yul\":2117:2208   */\n  tag_19\n  jump\t// in\ntag_55:\n    /* \"#utility.yul\":2111:2115   */\n  dup3\n    /* \"#utility.yul\":2104:2209   */\n  sstore\n    /* \"#utility.yul\":2022:2215   */\n  pop\n    /* \"#utility.yul\":1946:2215   */\n  pop\n  pop\n  pop\n  jump\t// out\n    /* \"#utility.yul\":2221:2294   */\ntag_25:\n    /* \"#utility.yul\":2266:2269   */\n  0x00\n    /* \"#utility.yul\":2221:2294   */\n  swap1\n  jump\t// out\n    /* \"#utility.yul\":2300:2489   */\ntag_26:\n    /* \"#utility.yul\":2377:2409   */\n  tag_59\n  tag_25\n  jump\t// in\ntag_59:\n    /* \"#utility.yul\":2418:2483   */\n  tag_60\n    /* \"#utility.yul\":2476:2482   */\n  dup2\n    /* \"#utility.yul\":2468:2474   */\n  dup5\n    /* \"#utility.yul\":2462:2466   */\n  dup5\n    /* \"#utility.yul\":2418:2483   */\n  tag_24\n  jump\t// in\ntag_60:\n    /* \"#utility.yul\":2353:2489   */\n  pop\n    /* \"#utility.yul\":2300:2489   */\n  pop\n  pop\n  jump\t// out\n    /* \"#utility.yul\":2495:2681   */\ntag_27:\n    /* \"#utility.yul\":2555:2675   */\ntag_62:\n    /* \"#utility.yul\":2572:2575   */\n  dup2\n    /* \"#utility.yul\":2565:2570   */\n  dup2\n    /* \"#utility.yul\":2562:2576   */\n  lt\n    /* \"#utility.yul\":2555:2675   */\n  iszero\n  tag_64\n  jumpi\n    /* \"#utility.yul\":2626:2665   */\n  tag_65\n    /* \"#utility.yul\":2663:2664   */\n  0x00\n    /* \"#utility.yul\":2656:2661   */\n  dup3\n    /* \"#utility.yul\":2626:2665   */\n  tag_26\n  jump\t// in\ntag_65:\n    /* \"#utility.yul\":2599:2600   */\n  0x01\n    /* \"#utility.yul\":2592:2597   */\n  dup2\n    /* \"#utility.yul\":2588:2601   */\n  add\n    /* \"#utility.yul\":2579:2601   */\n  swap1\n  pop\n    /* \"#utility.yul\":2555:2675   */\n  jump(tag_62)\ntag_64:\n    /* \"#utility.yul\":2495:2681   */\n  pop\n  pop\n  jump\t// out\n    /* \"#utility.yul\":2687:3230   */\ntag_28:\n    /* \"#utility.yul\":2788:2790   */\n  0x1f\n    /* \"#utility.yul\":2783:2786   */\n  dup3\n    /* \"#utility.yul\":2780:2791   */\n  gt\n    /* \"#utility.yul\":2777:3223   */\n  iszero\n  tag_67\n  jumpi\n    /* \"#utility.yul\":2822:2860   */\n  tag_68\n    /* \"#utility.yul\":2854:2859   */\n  dup2\n    /* \"#utility.yul\":2822:2860   */\n  tag_16\n  jump\t// in\ntag_68:\n    /* \"#utility.yul\":2906:2935   */\n  tag_69\n    /* \"#utility.yul\":2924:2934   */\n  dup5\n    /* \"#utility.yul\":2906:2935   */\n  tag_17\n  jump\t// in\ntag_69:\n    /* \"#utility.yul\":2896:2904   */\n  dup2\n    /* \"#utility.yul\":2892:2936   */\n  add\n    /* \"#utility.yul\":3089:3091   */\n  0x20\n    /* \"#utility.yul\":3077:3087   */\n  dup6\n    /* \"#utility.yul\":3074:3092   */\n  lt\n    /* \"#utility.yul\":3071:3120   */\n  iszero\n  tag_70\n  jumpi\n    /* \"#utility.yul\":3110:3118   */\n  dup2\n    /* \"#utility.yul\":3095:3118   */\n  swap1\n  pop\n    /* \"#utility.yul\":3071:3120   */\ntag_70:\n    /* \"#utility.yul\":3133:3213   */\n  tag_71\n    /* \"#utility.yul\":3189:3211   */\n  tag_72\n    /* \"#utility.yul\":3207:3210   */\n  dup6\n    /* \"#utility.yul\":3189:3211   */\n  tag_17\n  jump\t// in\ntag_72:\n    /* \"#utility.yul\":3179:3187   */\n  dup4\n    /* \"#utility.yul\":3175:3212   */\n  add\n    /* \"#utility.yul\":3162:3173   */\n  dup3\n    /* \"#utility.yul\":3133:3213   */\n  tag_27\n  jump\t// in\ntag_71:\n    /* \"#utility.yul\":2792:3223   */\n  pop\n  pop\n    /* \"#utility.yul\":2777:3223   */\ntag_67:\n    /* \"#utility.yul\":2687:3230   */\n  pop\n  pop\n  pop\n  jump\t// out\n    /* \"#utility.yul\":3236:3353   */\ntag_29:\n    /* \"#utility.yul\":3290:3298   */\n  0x00\n    /* \"#utility.yul\":3340:3345   */\n  dup3\n    /* \"#utility.yul\":3334:3338   */\n  dup3\n    /* \"#utility.yul\":3330:3346   */\n  shr\n    /* \"#utility.yul\":3309:3346   */\n  swap1\n  pop\n    /* \"#utility.yul\":3236:3353   */\n  swap3\n  swap2\n  pop\n  pop\n  jump\t// out\n    /* \"#utility.yul\":3359:3528   */\ntag_30:\n    /* \"#utility.yul\":3403:3409   */\n  0x00\n    /* \"#utility.yul\":3436:3487   */\n  tag_75\n    /* \"#utility.yul\":3484:3485   */\n  0x00\n    /* \"#utility.yul\":3480:3486   */\n  not\n    /* \"#utility.yul\":3472:3477   */\n  dup5\n    /* \"#utility.yul\":3469:3470   */\n  0x08\n    /* \"#utility.yul\":3465:3478   */\n  mul\n    /* \"#utility.yul\":3436:3487   */\n  tag_29\n  jump\t// in\ntag_75:\n    /* \"#utility.yul\":3432:3488   */\n  not\n    /* \"#utility.yul\":3517:3521   */\n  dup1\n    /* \"#utility.yul\":3511:3515   */\n  dup4\n    /* \"#utility.yul\":3507:3522   */\n  and\n    /* \"#utility.yul\":3497:3522   */\n  swap2\n  pop\n    /* \"#utility.yul\":3410:3528   */\n  pop\n    /* \"#utility.yul\":3359:3528   */\n  swap3\n  swap2\n  pop\n  pop\n  jump\t// out\n    /* \"#utility.yul\":3533:3828   */\ntag_31:\n    /* \"#utility.yul\":3609:3613   */\n  0x00\n    /* \"#utility.yul\":3755:3784   */\n  tag_77\n    /* \"#utility.yul\":3780:3783   */\n  dup4\n    /* \"#utility.yul\":3774:3778   */\n  dup4\n    /* \"#utility.yul\":3755:3784   */\n  tag_30\n  jump\t// in\ntag_77:\n    /* \"#utility.yul\":3747:3784   */\n  swap2\n  pop\n    /* \"#utility.yul\":3817:3820   */\n  dup3\n    /* \"#utility.yul\":3814:3815   */\n  0x02\n    /* \"#utility.yul\":3810:3821   */\n  mul\n    /* \"#utility.yul\":3804:3808   */\n  dup3\n    /* \"#utility.yul\":3801:3822   */\n  or\n    /* \"#utility.yul\":3793:3822   */\n  swap1\n  pop\n    /* \"#utility.yul\":3533:3828   */\n  swap3\n  swap2\n  pop\n  pop\n  jump\t// out\n    /* \"#utility.yul\":3833:5228   */\ntag_6:\n    /* \"#utility.yul\":3950:3987   */\n  tag_79\n    /* \"#utility.yul\":3983:3986   */\n  dup3\n    /* \"#utility.yul\":3950:3987   */\n  tag_12\n  jump\t// in\ntag_79:\n    /* \"#utility.yul\":4052:4070   */\n  0xffffffffffffffff\n    /* \"#utility.yul\":4044:4050   */\n  dup2\n    /* \"#utility.yul\":4041:4071   */\n  gt\n    /* \"#utility.yul\":4038:4094   */\n  iszero\n  tag_80\n  jumpi\n    /* \"#utility.yul\":4074:4092   */\n  tag_81\n  tag_13\n  jump\t// in\ntag_81:\n    /* \"#utility.yul\":4038:4094   */\ntag_80:\n    /* \"#utility.yul\":4118:4156   */\n  tag_82\n    /* \"#utility.yul\":4150:4154   */\n  dup3\n    /* \"#utility.yul\":4144:4155   */\n  sload\n    /* \"#utility.yul\":4118:4156   */\n  tag_15\n  jump\t// in\ntag_82:\n    /* \"#utility.yul\":4203:4270   */\n  tag_83\n    /* \"#utility.yul\":4263:4269   */\n  dup3\n    /* \"#utility.yul\":4255:4261   */\n  dup3\n    /* \"#utility.yul\":4249:4253   */\n  dup6\n    /* \"#utility.yul\":4203:4270   */\n  tag_28\n  jump\t// in\ntag_83:\n    /* \"#utility.yul\":4297:4298   */\n  0x00\n    /* \"#utility.yul\":4321:4325   */\n  0x20\n    /* \"#utility.yul\":4308:4325   */\n  swap1\n  pop\n    /* \"#utility.yul\":4353:4355   */\n  0x1f\n    /* \"#utility.yul\":4345:4351   */\n  dup4\n    /* \"#utility.yul\":4342:4356   */\n  gt\n    /* \"#utility.yul\":4370:4371   */\n  0x01\n    /* \"#utility.yul\":4365:4983   */\n  dup2\n  eq\n  tag_85\n  jumpi\n    /* \"#utility.yul\":5027:5028   */\n  0x00\n    /* \"#utility.yul\":5044:5050   */\n  dup5\n    /* \"#utility.yul\":5041:5118   */\n  iszero\n  tag_86\n  jumpi\n    /* \"#utility.yul\":5093:5102   */\n  dup3\n    /* \"#utility.yul\":5088:5091   */\n  dup8\n    /* \"#utility.yul\":5084:5103   */\n  add\n    /* \"#utility.yul\":5078:5104   */\n  mload\n    /* \"#utility.yul\":5069:5104   */\n  swap1\n  pop\n    /* \"#utility.yul\":5041:5118   */\ntag_86:\n    /* \"#utility.yul\":5144:5211   */\n  tag_87\n    /* \"#utility.yul\":5204:5210   */\n  dup6\n    /* \"#utility.yul\":5197:5202   */\n  dup3\n    /* \"#utility.yul\":5144:5211   */\n  tag_31\n  jump\t// in\ntag_87:\n    /* \"#utility.yul\":5138:5142   */\n  dup7\n    /* \"#utility.yul\":5131:5212   */\n  sstore\n    /* \"#utility.yul\":5000:5222   */\n  pop\n    /* \"#utility.yul\":4335:5222   */\n  jump(tag_84)\n    /* \"#utility.yul\":4365:4983   */\ntag_85:\n    /* \"#utility.yul\":4417:4421   */\n  0x1f\n    /* \"#utility.yul\":4413:4422   */\n  not\n    /* \"#utility.yul\":4405:4411   */\n  dup5\n    /* \"#utility.yul\":4401:4423   */\n  and\n    /* \"#utility.yul\":4451:4488   */\n  tag_88\n    /* \"#utility.yul\":4483:4487   */\n  dup7\n    /* \"#utility.yul\":4451:4488   */\n  tag_16\n  jump\t// in\ntag_88:\n    /* \"#utility.yul\":4510:4511   */\n  0x00\n    /* \"#utility.yul\":4524:4732   */\ntag_89:\n    /* \"#utility.yul\":4538:4545   */\n  dup3\n    /* \"#utility.yul\":4535:4536   */\n  dup2\n    /* \"#utility.yul\":4532:4546   */\n  lt\n    /* \"#utility.yul\":4524:4732   */\n  iszero\n  tag_91\n  jumpi\n    /* \"#utility.yul\":4617:4626   */\n  dup5\n    /* \"#utility.yul\":4612:4615   */\n  dup10\n    /* \"#utility.yul\":4608:4627   */\n  add\n    /* \"#utility.yul\":4602:4628   */\n  mload\n    /* \"#utility.yul\":4594:4600   */\n  dup3\n    /* \"#utility.yul\":4587:4629   */\n  sstore\n    /* \"#utility.yul\":4668:4669   */\n  0x01\n    /* \"#utility.yul\":4660:4666   */\n  dup3\n    /* \"#utility.yul\":4656:4670   */\n  add\n    /* \"#utility.yul\":4646:4670   */\n  swap2\n  pop\n    /* \"#utility.yul\":4715:4717   */\n  0x20\n    /* \"#utility.yul\":4704:4713   */\n  dup6\n    /* \"#utility.yul\":4700:4718   */\n  add\n    /* \"#utility.yul\":4687:4718   */\n  swap5\n  pop\n    /* \"#utility.yul\":4561:4565   */\n  0x20\n    /* \"#utility.yul\":4558:4559   */\n  dup2\n    /* \"#utility.yul\":4554:4566   */\n  add\n    /* \"#utility.yul\":4549:4566   */\n  swap1\n  pop\n    /* \"#utility.yul\":4524:4732   */\n  jump(tag_89)\ntag_91:\n    /* \"#utility.yul\":4760:4766   */\n  dup7\n    /* \"#utility.yul\":4751:4758   */\n  dup4\n    /* \"#utility.yul\":4748:4767   */\n  lt\n    /* \"#utility.yul\":4745:4924   */\n  iszero\n  tag_92\n  jumpi\n    /* \"#utility.yul\":4818:4827   */\n  dup5\n    /* \"#utility.yul\":4813:4816   */\n  dup10\n    /* \"#utility.yul\":4809:4828   */\n  add\n    /* \"#utility.yul\":4803:4829   */\n  mload\n    /* \"#utility.yul\":4861:4909   */\n  tag_93\n    /* \"#utility.yul\":4903:4907   */\n  0x1f\n    /* \"#utility.yul\":4895:4901   */\n  dup10\n    /* \"#utility.yul\":4891:4908   */\n  and\n    /* \"#utility.yul\":4880:4889   */\n  dup3\n    /* \"#utility.yul\":4861:4909   */\n  tag_30\n  jump\t// in\ntag_93:\n    /* \"#utility.yul\":4853:4859   */\n  dup4\n    /* \"#utility.yul\":4846:4910   */\n  sstore\n    /* \"#utility.yul\":4768:4924   */\n  pop\n    /* \"#utility.yul\":4745:4924   */\ntag_92:\n    /* \"#utility.yul\":4970:4971   */\n  0x01\n    /* \"#utility.yul\":4966:4967   */\n  0x02\n    /* \"#utility.yul\":4958:4964   */\n  dup9\n    /* \"#utility.yul\":4954:4968   */\n  mul\n    /* \"#utility.yul\":4950:4972   */\n  add\n    /* \"#utility.yul\":4944:4948   */\n  dup9\n    /* \"#utility.yul\":4937:4973   */\n  sstore\n    /* \"#utility.yul\":4372:4983   */\n  pop\n  pop\n  pop\n    /* \"#utility.yul\":4335:5222   */\ntag_84:\n  pop\n    /* \"#utility.yul\":3925:5228   */\n  pop\n  pop\n  pop\n    /* \"#utility.yul\":3833:5228   */\n  pop\n  pop\n  jump\t// out\n    /* \"base/WeightedVoting.sol\":279:4682  contract WeightedVoting is ERC20 {... */\ntag_11:\n  dataSize(sub_0)\n  dup1\n  dataOffset(sub_0)\n  0x00\n  codecopy\n  0x00\n  return\nstop\n\nsub_0: assembly {\n        /* \"base/WeightedVoting.sol\":279:4682  contract WeightedVoting is ERC20 {... */\n      mstore(0x40, 0x80)\n      callvalue\n      dup1\n      iszero\n      tag_1\n      jumpi\n      0x00\n      dup1\n      revert\n    tag_1:\n      pop\n      jumpi(tag_2, lt(calldatasize, 0x04))\n      shr(0xe0, calldataload(0x00))\n      dup1\n      0x73b2e80e\n      gt\n      tag_19\n      jumpi\n      dup1\n      0x976b3113\n      gt\n      tag_20\n      jumpi\n      dup1\n      0x976b3113\n      eq\n      tag_15\n      jumpi\n      dup1\n      0xa9059cbb\n      eq\n      tag_16\n      jumpi\n      dup1\n      0xd5abeb01\n      eq\n      tag_17\n      jumpi\n      dup1\n      0xdd62ed3e\n      eq\n      tag_18\n      jumpi\n      jump(tag_2)\n    tag_20:\n      dup1\n      0x73b2e80e\n      eq\n      tag_11\n      jumpi\n      dup1\n      0x8615d855\n      eq\n      tag_12\n      jumpi\n      dup1\n      0x943e8216\n      eq\n      tag_13\n      jumpi\n      dup1\n      0x95d89b41\n      eq\n      tag_14\n      jumpi\n      jump(tag_2)\n    tag_19:\n      dup1\n      0x27e235e3\n      gt\n      tag_21\n      jumpi\n      dup1\n      0x27e235e3\n      eq\n      tag_7\n      jumpi\n      dup1\n      0x313ce567\n      eq\n      tag_8\n      jumpi\n      dup1\n      0x4e71d92d\n      eq\n      tag_9\n      jumpi\n      dup1\n      0x70a08231\n      eq\n      tag_10\n      jumpi\n      jump(tag_2)\n    tag_21:\n      dup1\n      0x06fdde03\n      eq\n      tag_3\n      jumpi\n      dup1\n      0x095ea7b3\n      eq\n      tag_4\n      jumpi\n      dup1\n      0x18160ddd\n      eq\n      tag_5\n      jumpi\n      dup1\n      0x23b872dd\n      eq\n      tag_6\n      jumpi\n    tag_2:\n      0x00\n      dup1\n      revert\n        /* \"@openzeppelin/contracts/token/ERC20/ERC20.sol\":2074:2163  function name() public view virtual returns (string memory) {... */\n    tag_3:\n      tag_22\n      tag_23\n      jump\t// in\n    tag_22:\n      mload(0x40)\n      tag_24\n      swap2\n      swap1\n      tag_25\n      jump\t// in\n    tag_24:\n      mload(0x40)\n      dup1\n      swap2\n      sub\n      swap1\n      return\n        /* \"@openzeppelin/contracts/token/ERC20/ERC20.sol\":4293:4479  function approve(address spender, uint256 value) public virtual returns (bool) {... */\n    tag_4:\n      tag_26\n      0x04\n      dup1\n      calldatasize\n      sub\n      dup2\n      add\n      swap1\n      tag_27\n      swap2\n      swap1\n      tag_28\n      jump\t// in\n    tag_27:\n      tag_29\n      jump\t// in\n    tag_26:\n      mload(0x40)\n      tag_30\n      swap2\n      swap1\n      tag_31\n      jump\t// in\n    tag_30:\n      mload(0x40)\n      dup1\n      swap2\n      sub\n      swap1\n      return\n        /* \"@openzeppelin/contracts/token/ERC20/ERC20.sol\":3144:3241  function totalSupply() public view virtual returns (uint256) {... */\n    tag_5:\n      tag_32\n      tag_33\n      jump\t// in\n    tag_32:\n      mload(0x40)\n      tag_34\n      swap2\n      swap1\n      tag_35\n      jump\t// in\n    tag_34:\n      mload(0x40)\n      dup1\n      swap2\n      sub\n      swap1\n      return\n        /* \"@openzeppelin/contracts/token/ERC20/ERC20.sol\":5039:5283  function transferFrom(address from, address to, uint256 value) public virtual returns (bool) {... */\n    tag_6:\n      tag_36\n      0x04\n      dup1\n      calldatasize\n      sub\n      dup2\n      add\n      swap1\n      tag_37\n      swap2\n      swap1\n      tag_38\n      jump\t// in\n    tag_37:\n      tag_39\n      jump\t// in\n    tag_36:\n      mload(0x40)\n      tag_40\n      swap2\n      swap1\n      tag_31\n      jump\t// in\n    tag_40:\n      mload(0x40)\n      dup1\n      swap2\n      sub\n      swap1\n      return\n        /* \"base/WeightedVoting.sol\":1048:1091  mapping(address => uint256) public balances */\n    tag_7:\n      tag_41\n      0x04\n      dup1\n      calldatasize\n      sub\n      dup2\n      add\n      swap1\n      tag_42\n      swap2\n      swap1\n      tag_43\n      jump\t// in\n    tag_42:\n      tag_44\n      jump\t// in\n    tag_41:\n      mload(0x40)\n      tag_45\n      swap2\n      swap1\n      tag_35\n      jump\t// in\n    tag_45:\n      mload(0x40)\n      dup1\n      swap2\n      sub\n      swap1\n      return\n        /* \"@openzeppelin/contracts/token/ERC20/ERC20.sol\":3002:3084  function decimals() public view virtual returns (uint8) {... */\n    tag_8:\n      tag_46\n      tag_47\n      jump\t// in\n    tag_46:\n      mload(0x40)\n      tag_48\n      swap2\n      swap1\n      tag_49\n      jump\t// in\n    tag_48:\n      mload(0x40)\n      dup1\n      swap2\n      sub\n      swap1\n      return\n        /* \"base/WeightedVoting.sol\":1890:2126  function claim() public {... */\n    tag_9:\n      tag_50\n      tag_51\n      jump\t// in\n    tag_50:\n      stop\n        /* \"@openzeppelin/contracts/token/ERC20/ERC20.sol\":3299:3415  function balanceOf(address account) public view virtual returns (uint256) {... */\n    tag_10:\n      tag_52\n      0x04\n      dup1\n      calldatasize\n      sub\n      dup2\n      add\n      swap1\n      tag_53\n      swap2\n      swap1\n      tag_43\n      jump\t// in\n    tag_53:\n      tag_54\n      jump\t// in\n    tag_52:\n      mload(0x40)\n      tag_55\n      swap2\n      swap1\n      tag_35\n      jump\t// in\n    tag_55:\n      mload(0x40)\n      dup1\n      swap2\n      sub\n      swap1\n      return\n        /* \"base/WeightedVoting.sol\":1156:1198  mapping(address => bool) public hasClaimed */\n    tag_11:\n      tag_56\n      0x04\n      dup1\n      calldatasize\n      sub\n      dup2\n      add\n      swap1\n      tag_57\n      swap2\n      swap1\n      tag_43\n      jump\t// in\n    tag_57:\n      tag_58\n      jump\t// in\n    tag_56:\n      mload(0x40)\n      tag_59\n      swap2\n      swap1\n      tag_31\n      jump\t// in\n    tag_59:\n      mload(0x40)\n      dup1\n      swap2\n      sub\n      swap1\n      return\n        /* \"base/WeightedVoting.sol\":2453:2853  function createIssue(string calldata _issueDesc, uint256 _quorum) external returns (uint256) {... */\n    tag_12:\n      tag_60\n      0x04\n      dup1\n      calldatasize\n      sub\n      dup2\n      add\n      swap1\n      tag_61\n      swap2\n      swap1\n      tag_62\n      jump\t// in\n    tag_61:\n      tag_63\n      jump\t// in\n    tag_60:\n      mload(0x40)\n      tag_64\n      swap2\n      swap1\n      tag_35\n      jump\t// in\n    tag_64:\n      mload(0x40)\n      dup1\n      swap2\n      sub\n      swap1\n      return\n        /* \"base/WeightedVoting.sol\":3801:4679  function vote(uint256 _issueId, Votes _vote) external {... */\n    tag_13:\n      tag_65\n      0x04\n      dup1\n      calldatasize\n      sub\n      dup2\n      add\n      swap1\n      tag_66\n      swap2\n      swap1\n      tag_67\n      jump\t// in\n    tag_66:\n      tag_68\n      jump\t// in\n    tag_65:\n      stop\n        /* \"@openzeppelin/contracts/token/ERC20/ERC20.sol\":2276:2369  function symbol() public view virtual returns (string memory) {... */\n    tag_14:\n      tag_69\n      tag_70\n      jump\t// in\n    tag_69:\n      mload(0x40)\n      tag_71\n      swap2\n      swap1\n      tag_25\n      jump\t// in\n    tag_71:\n      mload(0x40)\n      dup1\n      swap2\n      sub\n      swap1\n      return\n        /* \"base/WeightedVoting.sol\":2993:3533  function getIssue(uint256 _issueId) external view returns (IssueView memory) {... */\n    tag_15:\n      tag_72\n      0x04\n      dup1\n      calldatasize\n      sub\n      dup2\n      add\n      swap1\n      tag_73\n      swap2\n      swap1\n      tag_74\n      jump\t// in\n    tag_73:\n      tag_75\n      jump\t// in\n    tag_72:\n      mload(0x40)\n      tag_76\n      swap2\n      swap1\n      tag_77\n      jump\t// in\n    tag_76:\n      mload(0x40)\n      dup1\n      swap2\n      sub\n      swap1\n      return\n        /* \"@openzeppelin/contracts/token/ERC20/ERC20.sol\":3610:3788  function transfer(address to, uint256 value) public virtual returns (bool) {... */\n    tag_16:\n      tag_78\n      0x04\n      dup1\n      calldatasize\n      sub\n      dup2\n      add\n      swap1\n      tag_79\n      swap2\n      swap1\n      tag_28\n      jump\t// in\n    tag_79:\n      tag_80\n      jump\t// in\n    tag_78:\n      mload(0x40)\n      tag_81\n      swap2\n      swap1\n      tag_31\n      jump\t// in\n    tag_81:\n      mload(0x40)\n      dup1\n      swap2\n      sub\n      swap1\n      return\n        /* \"base/WeightedVoting.sol\":1250:1286  uint256 public maxSupply = 1_000_000 */\n    tag_17:\n      tag_82\n      tag_83\n      jump\t// in\n    tag_82:\n      mload(0x40)\n      tag_84\n      swap2\n      swap1\n      tag_35\n      jump\t// in\n    tag_84:\n      mload(0x40)\n      dup1\n      swap2\n      sub\n      swap1\n      return\n        /* \"@openzeppelin/contracts/token/ERC20/ERC20.sol\":3846:3986  function allowance(address owner, address spender) public view virtual returns (uint256) {... */\n    tag_18:\n      tag_85\n      0x04\n      dup1\n      calldatasize\n      sub\n      dup2\n      add\n      swap1\n      tag_86\n      swap2\n      swap1\n      tag_87\n      jump\t// in\n    tag_86:\n      tag_88\n      jump\t// in\n    tag_85:\n      mload(0x40)\n      tag_89\n      swap2\n      swap1\n      tag_35\n      jump\t// in\n    tag_89:\n      mload(0x40)\n      dup1\n      swap2\n      sub\n      swap1\n      return\n        /* \"@openzeppelin/contracts/token/ERC20/ERC20.sol\":2074:2163  function name() public view virtual returns (string memory) {... */\n    tag_23:\n        /* \"@openzeppelin/contracts/token/ERC20/ERC20.sol\":2119:2132  string memory */\n      0x60\n        /* \"@openzeppelin/contracts/token/ERC20/ERC20.sol\":2151:2156  _name */\n      0x03\n        /* \"@openzeppelin/contracts/token/ERC20/ERC20.sol\":2144:2156  return _name */\n      dup1\n      sload\n      tag_91\n      swap1\n      tag_92\n      jump\t// in\n    tag_91:\n      dup1\n      0x1f\n      add\n      0x20\n      dup1\n      swap2\n      div\n      mul\n      0x20\n      add\n      mload(0x40)\n      swap1\n      dup2\n      add\n      0x40\n      mstore\n      dup1\n      swap3\n      swap2\n      swap1\n      dup2\n      dup2\n      mstore\n      0x20\n      add\n      dup3\n      dup1\n      sload\n      tag_93\n      swap1\n      tag_92\n      jump\t// in\n    tag_93:\n      dup1\n      iszero\n      tag_94\n      jumpi\n      dup1\n      0x1f\n      lt\n      tag_95\n      jumpi\n      0x0100\n      dup1\n      dup4\n      sload\n      div\n      mul\n      dup4\n      mstore\n      swap2\n      0x20\n      add\n      swap2\n      jump(tag_94)\n    tag_95:\n      dup3\n      add\n      swap2\n      swap1\n      0x00\n      mstore\n      keccak256(0x00, 0x20)\n      swap1\n    tag_96:\n      dup2\n      sload\n      dup2\n      mstore\n      swap1\n      0x01\n      add\n      swap1\n      0x20\n      add\n      dup1\n      dup4\n      gt\n      tag_96\n      jumpi\n      dup3\n      swap1\n      sub\n      0x1f\n      and\n      dup3\n      add\n      swap2\n    tag_94:\n      pop\n      pop\n      pop\n      pop\n      pop\n      swap1\n      pop\n        /* \"@openzeppelin/contracts/token/ERC20/ERC20.sol\":2074:2163  function name() public view virtual returns (string memory) {... */\n      swap1\n      jump\t// out\n        /* \"@openzeppelin/contracts/token/ERC20/ERC20.sol\":4293:4479  function approve(address spender, uint256 value) public virtual returns (bool) {... */\n    tag_29:\n        /* \"@openzeppelin/contracts/token/ERC20/ERC20.sol\":4366:4370  bool */\n      0x00\n        /* \"@openzeppelin/contracts/token/ERC20/ERC20.sol\":4382:4395  address owner */\n      dup1\n        /* \"@openzeppelin/contracts/token/ERC20/ERC20.sol\":4398:4410  _msgSender() */\n      tag_98\n        /* \"@openzeppelin/contracts/token/ERC20/ERC20.sol\":4398:4408  _msgSender */\n      tag_99\n        /* \"@openzeppelin/contracts/token/ERC20/ERC20.sol\":4398:4410  _msgSender() */\n      jump\t// in\n    tag_98:\n        /* \"@openzeppelin/contracts/token/ERC20/ERC20.sol\":4382:4410  address owner = _msgSender() */\n      swap1\n      pop\n        /* \"@openzeppelin/contracts/token/ERC20/ERC20.sol\":4420:4451  _approve(owner, spender, value) */\n      tag_100\n        /* \"@openzeppelin/contracts/token/ERC20/ERC20.sol\":4429:4434  owner */\n      dup2\n        /* \"@openzeppelin/contracts/token/ERC20/ERC20.sol\":4436:4443  spender */\n      dup6\n        /* \"@openzeppelin/contracts/token/ERC20/ERC20.sol\":4445:4450  value */\n      dup6\n        /* \"@openzeppelin/contracts/token/ERC20/ERC20.sol\":4420:4428  _approve */\n      tag_101\n        /* \"@openzeppelin/contracts/token/ERC20/ERC20.sol\":4420:4451  _approve(owner, spender, value) */\n      jump\t// in\n    tag_100:\n        /* \"@openzeppelin/contracts/token/ERC20/ERC20.sol\":4468:4472  true */\n      0x01\n        /* \"@openzeppelin/contracts/token/ERC20/ERC20.sol\":4461:4472  return true */\n      swap2\n      pop\n      pop\n        /* \"@openzeppelin/contracts/token/ERC20/ERC20.sol\":4293:4479  function approve(address spender, uint256 value) public virtual returns (bool) {... */\n      swap3\n      swap2\n      pop\n      pop\n      jump\t// out\n        /* \"@openzeppelin/contracts/token/ERC20/ERC20.sol\":3144:3241  function totalSupply() public view virtual returns (uint256) {... */\n    tag_33:\n        /* \"@openzeppelin/contracts/token/ERC20/ERC20.sol\":3196:3203  uint256 */\n      0x00\n        /* \"@openzeppelin/contracts/token/ERC20/ERC20.sol\":3222:3234  _totalSupply */\n      sload(0x02)\n        /* \"@openzeppelin/contracts/token/ERC20/ERC20.sol\":3215:3234  return _totalSupply */\n      swap1\n      pop\n        /* \"@openzeppelin/contracts/token/ERC20/ERC20.sol\":3144:3241  function totalSupply() public view virtual returns (uint256) {... */\n      swap1\n      jump\t// out\n        /* \"@openzeppelin/contracts/token/ERC20/ERC20.sol\":5039:5283  function transferFrom(address from, address to, uint256 value) public virtual returns (bool) {... */\n    tag_39:\n        /* \"@openzeppelin/contracts/token/ERC20/ERC20.sol\":5126:5130  bool */\n      0x00\n        /* \"@openzeppelin/contracts/token/ERC20/ERC20.sol\":5142:5157  address spender */\n      dup1\n        /* \"@openzeppelin/contracts/token/ERC20/ERC20.sol\":5160:5172  _msgSender() */\n      tag_104\n        /* \"@openzeppelin/contracts/token/ERC20/ERC20.sol\":5160:5170  _msgSender */\n      tag_99\n        /* \"@openzeppelin/contracts/token/ERC20/ERC20.sol\":5160:5172  _msgSender() */\n      jump\t// in\n    tag_104:\n        /* \"@openzeppelin/contracts/token/ERC20/ERC20.sol\":5142:5172  address spender = _msgSender() */\n      swap1\n      pop\n        /* \"@openzeppelin/contracts/token/ERC20/ERC20.sol\":5182:5219  _spendAllowance(from, spender, value) */\n      tag_105\n        /* \"@openzeppelin/contracts/token/ERC20/ERC20.sol\":5198:5202  from */\n      dup6\n        /* \"@openzeppelin/contracts/token/ERC20/ERC20.sol\":5204:5211  spender */\n      dup3\n        /* \"@openzeppelin/contracts/token/ERC20/ERC20.sol\":5213:5218  value */\n      dup6\n        /* \"@openzeppelin/contracts/token/ERC20/ERC20.sol\":5182:5197  _spendAllowance */\n      tag_106\n        /* \"@openzeppelin/contracts/token/ERC20/ERC20.sol\":5182:5219  _spendAllowance(from, spender, value) */\n      jump\t// in\n    tag_105:\n        /* \"@openzeppelin/contracts/token/ERC20/ERC20.sol\":5229:5255  _transfer(from, to, value) */\n      tag_107\n        /* \"@openzeppelin/contracts/token/ERC20/ERC20.sol\":5239:5243  from */\n      dup6\n        /* \"@openzeppelin/contracts/token/ERC20/ERC20.sol\":5245:5247  to */\n      dup6\n        /* \"@openzeppelin/contracts/token/ERC20/ERC20.sol\":5249:5254  value */\n      dup6\n        /* \"@openzeppelin/contracts/token/ERC20/ERC20.sol\":5229:5238  _transfer */\n      tag_108\n        /* \"@openzeppelin/contracts/token/ERC20/ERC20.sol\":5229:5255  _transfer(from, to, value) */\n      jump\t// in\n    tag_107:\n        /* \"@openzeppelin/contracts/token/ERC20/ERC20.sol\":5272:5276  true */\n      0x01\n        /* \"@openzeppelin/contracts/token/ERC20/ERC20.sol\":5265:5276  return true */\n      swap2\n      pop\n      pop\n        /* \"@openzeppelin/contracts/token/ERC20/ERC20.sol\":5039:5283  function transferFrom(address from, address to, uint256 value) public virtual returns (bool) {... */\n      swap4\n      swap3\n      pop\n      pop\n      pop\n      jump\t// out\n        /* \"base/WeightedVoting.sol\":1048:1091  mapping(address => uint256) public balances */\n    tag_44:\n      mstore(0x20, 0x05)\n      dup1\n      0x00\n      mstore\n      keccak256(0x00, 0x40)\n      0x00\n      swap2\n      pop\n      swap1\n      pop\n      sload\n      dup2\n      jump\t// out\n        /* \"@openzeppelin/contracts/token/ERC20/ERC20.sol\":3002:3084  function decimals() public view virtual returns (uint8) {... */\n    tag_47:\n        /* \"@openzeppelin/contracts/token/ERC20/ERC20.sol\":3051:3056  uint8 */\n      0x00\n        /* \"@openzeppelin/contracts/token/ERC20/ERC20.sol\":3075:3077  18 */\n      0x12\n        /* \"@openzeppelin/contracts/token/ERC20/ERC20.sol\":3068:3077  return 18 */\n      swap1\n      pop\n        /* \"@openzeppelin/contracts/token/ERC20/ERC20.sol\":3002:3084  function decimals() public view virtual returns (uint8) {... */\n      swap1\n      jump\t// out\n        /* \"base/WeightedVoting.sol\":1890:2126  function claim() public {... */\n    tag_51:\n        /* \"base/WeightedVoting.sol\":1929:1939  hasClaimed */\n      0x06\n        /* \"base/WeightedVoting.sol\":1929:1951  hasClaimed[msg.sender] */\n      0x00\n        /* \"base/WeightedVoting.sol\":1940:1950  msg.sender */\n      caller\n        /* \"base/WeightedVoting.sol\":1929:1951  hasClaimed[msg.sender] */\n      0xffffffffffffffffffffffffffffffffffffffff\n      and\n      0xffffffffffffffffffffffffffffffffffffffff\n      and\n      dup2\n      mstore\n      0x20\n      add\n      swap1\n      dup2\n      mstore\n      0x20\n      add\n      0x00\n      keccak256\n      0x00\n      swap1\n      sload\n      swap1\n      0x0100\n      exp\n      swap1\n      div\n      0xff\n      and\n        /* \"base/WeightedVoting.sol\":1925:1975  if (hasClaimed[msg.sender]) revert TokensClaimed() */\n      iszero\n      tag_111\n      jumpi\n        /* \"base/WeightedVoting.sol\":1960:1975  TokensClaimed() */\n      mload(0x40)\n      0x0b1327a600000000000000000000000000000000000000000000000000000000\n      dup2\n      mstore\n      0x04\n      add\n      mload(0x40)\n      dup1\n      swap2\n      sub\n      swap1\n      revert\n        /* \"base/WeightedVoting.sol\":1925:1975  if (hasClaimed[msg.sender]) revert TokensClaimed() */\n    tag_111:\n        /* \"base/WeightedVoting.sol\":2007:2016  maxSupply */\n      sload(0x07)\n        /* \"base/WeightedVoting.sol\":1990:2003  totalSupply() */\n      tag_112\n        /* \"base/WeightedVoting.sol\":1990:2001  totalSupply */\n      tag_33\n        /* \"base/WeightedVoting.sol\":1990:2003  totalSupply() */\n      jump\t// in\n    tag_112:\n        /* \"base/WeightedVoting.sol\":1990:2016  totalSupply() >= maxSupply */\n      lt\n        /* \"base/WeightedVoting.sol\":1986:2043  if (totalSupply() >= maxSupply) revert AllTokensClaimed() */\n      tag_113\n      jumpi\n        /* \"base/WeightedVoting.sol\":2025:2043  AllTokensClaimed() */\n      mload(0x40)\n      0xcbe2483100000000000000000000000000000000000000000000000000000000\n      dup2\n      mstore\n      0x04\n      add\n      mload(0x40)\n      dup1\n      swap2\n      sub\n      swap1\n      revert\n        /* \"base/WeightedVoting.sol\":1986:2043  if (totalSupply() >= maxSupply) revert AllTokensClaimed() */\n    tag_113:\n        /* \"base/WeightedVoting.sol\":2081:2085  true */\n      0x01\n        /* \"base/WeightedVoting.sol\":2056:2066  hasClaimed */\n      0x06\n        /* \"base/WeightedVoting.sol\":2056:2078  hasClaimed[msg.sender] */\n      0x00\n        /* \"base/WeightedVoting.sol\":2067:2077  msg.sender */\n      caller\n        /* \"base/WeightedVoting.sol\":2056:2078  hasClaimed[msg.sender] */\n      0xffffffffffffffffffffffffffffffffffffffff\n      and\n      0xffffffffffffffffffffffffffffffffffffffff\n      and\n      dup2\n      mstore\n      0x20\n      add\n      swap1\n      dup2\n      mstore\n      0x20\n      add\n      0x00\n      keccak256\n      0x00\n        /* \"base/WeightedVoting.sol\":2056:2085  hasClaimed[msg.sender] = true */\n      0x0100\n      exp\n      dup2\n      sload\n      dup2\n      0xff\n      mul\n      not\n      and\n      swap1\n      dup4\n      iszero\n      iszero\n      mul\n      or\n      swap1\n      sstore\n      pop\n        /* \"base/WeightedVoting.sol\":2096:2118  _mint(msg.sender, 100) */\n      tag_114\n        /* \"base/WeightedVoting.sol\":2102:2112  msg.sender */\n      caller\n        /* \"base/WeightedVoting.sol\":2114:2117  100 */\n      0x64\n        /* \"base/WeightedVoting.sol\":2096:2101  _mint */\n      tag_115\n        /* \"base/WeightedVoting.sol\":2096:2118  _mint(msg.sender, 100) */\n      jump\t// in\n    tag_114:\n        /* \"base/WeightedVoting.sol\":1890:2126  function claim() public {... */\n      jump\t// out\n        /* \"@openzeppelin/contracts/token/ERC20/ERC20.sol\":3299:3415  function balanceOf(address account) public view virtual returns (uint256) {... */\n    tag_54:\n        /* \"@openzeppelin/contracts/token/ERC20/ERC20.sol\":3364:3371  uint256 */\n      0x00\n        /* \"@openzeppelin/contracts/token/ERC20/ERC20.sol\":3390:3399  _balances */\n      dup1\n        /* \"@openzeppelin/contracts/token/ERC20/ERC20.sol\":3390:3408  _balances[account] */\n      0x00\n        /* \"@openzeppelin/contracts/token/ERC20/ERC20.sol\":3400:3407  account */\n      dup4\n        /* \"@openzeppelin/contracts/token/ERC20/ERC20.sol\":3390:3408  _balances[account] */\n      0xffffffffffffffffffffffffffffffffffffffff\n      and\n      0xffffffffffffffffffffffffffffffffffffffff\n      and\n      dup2\n      mstore\n      0x20\n      add\n      swap1\n      dup2\n      mstore\n      0x20\n      add\n      0x00\n      keccak256\n      sload\n        /* \"@openzeppelin/contracts/token/ERC20/ERC20.sol\":3383:3408  return _balances[account] */\n      swap1\n      pop\n        /* \"@openzeppelin/contracts/token/ERC20/ERC20.sol\":3299:3415  function balanceOf(address account) public view virtual returns (uint256) {... */\n      swap2\n      swap1\n      pop\n      jump\t// out\n        /* \"base/WeightedVoting.sol\":1156:1198  mapping(address => bool) public hasClaimed */\n    tag_58:\n      mstore(0x20, 0x06)\n      dup1\n      0x00\n      mstore\n      keccak256(0x00, 0x40)\n      0x00\n      swap2\n      pop\n      sload\n      swap1\n      0x0100\n      exp\n      swap1\n      div\n      0xff\n      and\n      dup2\n      jump\t// out\n        /* \"base/WeightedVoting.sol\":2453:2853  function createIssue(string calldata _issueDesc, uint256 _quorum) external returns (uint256) {... */\n    tag_63:\n        /* \"base/WeightedVoting.sol\":2537:2544  uint256 */\n      0x00\n        /* \"base/WeightedVoting.sol\":2586:2587  0 */\n      dup1\n        /* \"base/WeightedVoting.sol\":2561:2582  balanceOf(msg.sender) */\n      tag_118\n        /* \"base/WeightedVoting.sol\":2571:2581  msg.sender */\n      caller\n        /* \"base/WeightedVoting.sol\":2561:2570  balanceOf */\n      tag_54\n        /* \"base/WeightedVoting.sol\":2561:2582  balanceOf(msg.sender) */\n      jump\t// in\n    tag_118:\n        /* \"base/WeightedVoting.sol\":2561:2587  balanceOf(msg.sender) == 0 */\n      sub\n        /* \"base/WeightedVoting.sol\":2557:2610  if (balanceOf(msg.sender) == 0) revert NoTokensHeld() */\n      tag_119\n      jumpi\n        /* \"base/WeightedVoting.sol\":2596:2610  NoTokensHeld() */\n      mload(0x40)\n      0x8439960d00000000000000000000000000000000000000000000000000000000\n      dup2\n      mstore\n      0x04\n      add\n      mload(0x40)\n      dup1\n      swap2\n      sub\n      swap1\n      revert\n        /* \"base/WeightedVoting.sol\":2557:2610  if (balanceOf(msg.sender) == 0) revert NoTokensHeld() */\n    tag_119:\n        /* \"base/WeightedVoting.sol\":2635:2648  totalSupply() */\n      tag_120\n        /* \"base/WeightedVoting.sol\":2635:2646  totalSupply */\n      tag_33\n        /* \"base/WeightedVoting.sol\":2635:2648  totalSupply() */\n      jump\t// in\n    tag_120:\n        /* \"base/WeightedVoting.sol\":2625:2632  _quorum */\n      dup3\n        /* \"base/WeightedVoting.sol\":2625:2648  _quorum > totalSupply() */\n      gt\n        /* \"base/WeightedVoting.sol\":2621:2679  if (_quorum > totalSupply()) revert QuorumTooHigh(_quorum) */\n      iszero\n      tag_121\n      jumpi\n        /* \"base/WeightedVoting.sol\":2671:2678  _quorum */\n      dup2\n        /* \"base/WeightedVoting.sol\":2657:2679  QuorumTooHigh(_quorum) */\n      mload(0x40)\n      0x589a495200000000000000000000000000000000000000000000000000000000\n      dup2\n      mstore\n      0x04\n      add\n      tag_122\n      swap2\n      swap1\n      tag_35\n      jump\t// in\n    tag_122:\n      mload(0x40)\n      dup1\n      swap2\n      sub\n      swap1\n      revert\n        /* \"base/WeightedVoting.sol\":2621:2679  if (_quorum > totalSupply()) revert QuorumTooHigh(_quorum) */\n    tag_121:\n        /* \"base/WeightedVoting.sol\":2692:2714  Issue storage newIssue */\n      0x00\n        /* \"base/WeightedVoting.sol\":2717:2723  issues */\n      0x08\n        /* \"base/WeightedVoting.sol\":2717:2730  issues.push() */\n      0x01\n      dup2\n      0x01\n      dup2\n      sload\n      add\n      dup1\n      dup3\n      sstore\n      dup1\n      swap2\n      pop\n      pop\n      sub\n      swap1\n      0x00\n      mstore\n      keccak256(0x00, 0x20)\n      swap1\n      0x09\n      mul\n      add\n        /* \"base/WeightedVoting.sol\":2692:2730  Issue storage newIssue = issues.push() */\n      swap1\n      pop\n        /* \"base/WeightedVoting.sol\":2762:2772  _issueDesc */\n      dup5\n      dup5\n        /* \"base/WeightedVoting.sol\":2741:2749  newIssue */\n      dup3\n        /* \"base/WeightedVoting.sol\":2741:2759  newIssue.issueDesc */\n      0x02\n      add\n        /* \"base/WeightedVoting.sol\":2741:2772  newIssue.issueDesc = _issueDesc */\n      swap2\n      dup3\n      tag_124\n      swap3\n      swap2\n      swap1\n      tag_125\n      jump\t// in\n    tag_124:\n      pop\n        /* \"base/WeightedVoting.sol\":2801:2808  _quorum */\n      dup3\n        /* \"base/WeightedVoting.sol\":2783:2791  newIssue */\n      dup2\n        /* \"base/WeightedVoting.sol\":2783:2798  newIssue.quorum */\n      0x07\n      add\n        /* \"base/WeightedVoting.sol\":2783:2808  newIssue.quorum = _quorum */\n      dup2\n      swap1\n      sstore\n      pop\n        /* \"base/WeightedVoting.sol\":2844:2845  1 */\n      0x01\n        /* \"base/WeightedVoting.sol\":2828:2834  issues */\n      0x08\n        /* \"base/WeightedVoting.sol\":2828:2841  issues.length */\n      dup1\n      sload\n      swap1\n      pop\n        /* \"base/WeightedVoting.sol\":2828:2845  issues.length - 1 */\n      tag_126\n      swap2\n      swap1\n      tag_127\n      jump\t// in\n    tag_126:\n        /* \"base/WeightedVoting.sol\":2821:2845  return issues.length - 1 */\n      swap2\n      pop\n      pop\n        /* \"base/WeightedVoting.sol\":2453:2853  function createIssue(string calldata _issueDesc, uint256 _quorum) external returns (uint256) {... */\n      swap4\n      swap3\n      pop\n      pop\n      pop\n      jump\t// out\n        /* \"base/WeightedVoting.sol\":3801:4679  function vote(uint256 _issueId, Votes _vote) external {... */\n    tag_68:\n        /* \"base/WeightedVoting.sol\":3866:3885  Issue storage issue */\n      0x00\n        /* \"base/WeightedVoting.sol\":3888:3894  issues */\n      0x08\n        /* \"base/WeightedVoting.sol\":3895:3903  _issueId */\n      dup4\n        /* \"base/WeightedVoting.sol\":3888:3904  issues[_issueId] */\n      dup2\n      sload\n      dup2\n      lt\n      tag_129\n      jumpi\n      tag_130\n      tag_131\n      jump\t// in\n    tag_130:\n    tag_129:\n      swap1\n      0x00\n      mstore\n      keccak256(0x00, 0x20)\n      swap1\n      0x09\n      mul\n      add\n        /* \"base/WeightedVoting.sol\":3866:3904  Issue storage issue = issues[_issueId] */\n      swap1\n      pop\n        /* \"base/WeightedVoting.sol\":3919:3924  issue */\n      dup1\n        /* \"base/WeightedVoting.sol\":3919:3931  issue.closed */\n      0x08\n      add\n      0x01\n      swap1\n      sload\n      swap1\n      0x0100\n      exp\n      swap1\n      div\n      0xff\n      and\n        /* \"base/WeightedVoting.sol\":3915:3954  if (issue.closed) revert VotingClosed() */\n      iszero\n      tag_133\n      jumpi\n        /* \"base/WeightedVoting.sol\":3940:3954  VotingClosed() */\n      mload(0x40)\n      0x66b6cb4a00000000000000000000000000000000000000000000000000000000\n      dup2\n      mstore\n      0x04\n      add\n      mload(0x40)\n      dup1\n      swap2\n      sub\n      swap1\n      revert\n        /* \"base/WeightedVoting.sol\":3915:3954  if (issue.closed) revert VotingClosed() */\n    tag_133:\n        /* \"base/WeightedVoting.sol\":3969:4002  issue.voters.contains(msg.sender) */\n      tag_134\n        /* \"base/WeightedVoting.sol\":3991:4001  msg.sender */\n      caller\n        /* \"base/WeightedVoting.sol\":3969:3974  issue */\n      dup3\n        /* \"base/WeightedVoting.sol\":3969:3981  issue.voters */\n      0x00\n      add\n        /* \"base/WeightedVoting.sol\":3969:3990  issue.voters.contains */\n      tag_135\n      swap1\n        /* \"base/WeightedVoting.sol\":3969:4002  issue.voters.contains(msg.sender) */\n      swap2\n      swap1\n      0xffffffff\n      and\n      jump\t// in\n    tag_134:\n        /* \"base/WeightedVoting.sol\":3965:4025  if (issue.voters.contains(msg.sender)) revert AlreadyVoted() */\n      iszero\n      tag_136\n      jumpi\n        /* \"base/WeightedVoting.sol\":4011:4025  AlreadyVoted() */\n      mload(0x40)\n      0x7c9a1cf900000000000000000000000000000000000000000000000000000000\n      dup2\n      mstore\n      0x04\n      add\n      mload(0x40)\n      dup1\n      swap2\n      sub\n      swap1\n      revert\n        /* \"base/WeightedVoting.sol\":3965:4025  if (issue.voters.contains(msg.sender)) revert AlreadyVoted() */\n    tag_136:\n        /* \"base/WeightedVoting.sol\":4065:4066  0 */\n      0x00\n        /* \"base/WeightedVoting.sol\":4040:4061  balanceOf(msg.sender) */\n      tag_137\n        /* \"base/WeightedVoting.sol\":4050:4060  msg.sender */\n      caller\n        /* \"base/WeightedVoting.sol\":4040:4049  balanceOf */\n      tag_54\n        /* \"base/WeightedVoting.sol\":4040:4061  balanceOf(msg.sender) */\n      jump\t// in\n    tag_137:\n        /* \"base/WeightedVoting.sol\":4040:4066  balanceOf(msg.sender) == 0 */\n      sub\n        /* \"base/WeightedVoting.sol\":4036:4089  if (balanceOf(msg.sender) == 0) revert NoTokensHeld() */\n      tag_138\n      jumpi\n        /* \"base/WeightedVoting.sol\":4075:4089  NoTokensHeld() */\n      mload(0x40)\n      0x8439960d00000000000000000000000000000000000000000000000000000000\n      dup2\n      mstore\n      0x04\n      add\n      mload(0x40)\n      dup1\n      swap2\n      sub\n      swap1\n      revert\n        /* \"base/WeightedVoting.sol\":4036:4089  if (balanceOf(msg.sender) == 0) revert NoTokensHeld() */\n    tag_138:\n        /* \"base/WeightedVoting.sol\":4102:4130  issue.voters.add(msg.sender) */\n      tag_139\n        /* \"base/WeightedVoting.sol\":4119:4129  msg.sender */\n      caller\n        /* \"base/WeightedVoting.sol\":4102:4107  issue */\n      dup3\n        /* \"base/WeightedVoting.sol\":4102:4114  issue.voters */\n      0x00\n      add\n        /* \"base/WeightedVoting.sol\":4102:4118  issue.voters.add */\n      tag_140\n      swap1\n        /* \"base/WeightedVoting.sol\":4102:4130  issue.voters.add(msg.sender) */\n      swap2\n      swap1\n      0xffffffff\n      and\n      jump\t// in\n    tag_139:\n      pop\n        /* \"base/WeightedVoting.sol\":4161:4182  balanceOf(msg.sender) */\n      tag_141\n        /* \"base/WeightedVoting.sol\":4171:4181  msg.sender */\n      caller\n        /* \"base/WeightedVoting.sol\":4161:4170  balanceOf */\n      tag_54\n        /* \"base/WeightedVoting.sol\":4161:4182  balanceOf(msg.sender) */\n      jump\t// in\n    tag_141:\n        /* \"base/WeightedVoting.sol\":4141:4146  issue */\n      dup2\n        /* \"base/WeightedVoting.sol\":4141:4157  issue.totalVotes */\n      0x06\n      add\n      0x00\n        /* \"base/WeightedVoting.sol\":4141:4182  issue.totalVotes += balanceOf(msg.sender) */\n      dup3\n      dup3\n      sload\n      tag_142\n      swap2\n      swap1\n      tag_143\n      jump\t// in\n    tag_142:\n      swap3\n      pop\n      pop\n      dup2\n      swap1\n      sstore\n      pop\n        /* \"base/WeightedVoting.sol\":4208:4217  Votes.For */\n      0x00\n        /* \"base/WeightedVoting.sol\":4199:4217  _vote == Votes.For */\n      0x02\n      dup2\n      gt\n      iszero\n      tag_144\n      jumpi\n      tag_145\n      tag_146\n      jump\t// in\n    tag_145:\n    tag_144:\n        /* \"base/WeightedVoting.sol\":4199:4204  _vote */\n      dup3\n        /* \"base/WeightedVoting.sol\":4199:4217  _vote == Votes.For */\n      0x02\n      dup2\n      gt\n      iszero\n      tag_147\n      jumpi\n      tag_148\n      tag_146\n      jump\t// in\n    tag_148:\n    tag_147:\n      sub\n        /* \"base/WeightedVoting.sol\":4195:4465  if (_vote == Votes.For) {... */\n      tag_149\n      jumpi\n        /* \"base/WeightedVoting.sol\":4252:4273  balanceOf(msg.sender) */\n      tag_150\n        /* \"base/WeightedVoting.sol\":4262:4272  msg.sender */\n      caller\n        /* \"base/WeightedVoting.sol\":4252:4261  balanceOf */\n      tag_54\n        /* \"base/WeightedVoting.sol\":4252:4273  balanceOf(msg.sender) */\n      jump\t// in\n    tag_150:\n        /* \"base/WeightedVoting.sol\":4234:4239  issue */\n      dup2\n        /* \"base/WeightedVoting.sol\":4234:4248  issue.votesFor */\n      0x03\n      add\n      0x00\n        /* \"base/WeightedVoting.sol\":4234:4273  issue.votesFor += balanceOf(msg.sender) */\n      dup3\n      dup3\n      sload\n      tag_151\n      swap2\n      swap1\n      tag_143\n      jump\t// in\n    tag_151:\n      swap3\n      pop\n      pop\n      dup2\n      swap1\n      sstore\n      pop\n        /* \"base/WeightedVoting.sol\":4195:4465  if (_vote == Votes.For) {... */\n      jump(tag_152)\n    tag_149:\n        /* \"base/WeightedVoting.sol\":4304:4317  Votes.Against */\n      0x01\n        /* \"base/WeightedVoting.sol\":4295:4317  _vote == Votes.Against */\n      0x02\n      dup2\n      gt\n      iszero\n      tag_153\n      jumpi\n      tag_154\n      tag_146\n      jump\t// in\n    tag_154:\n    tag_153:\n        /* \"base/WeightedVoting.sol\":4295:4300  _vote */\n      dup3\n        /* \"base/WeightedVoting.sol\":4295:4317  _vote == Votes.Against */\n      0x02\n      dup2\n      gt\n      iszero\n      tag_155\n      jumpi\n      tag_156\n      tag_146\n      jump\t// in\n    tag_156:\n    tag_155:\n      sub\n        /* \"base/WeightedVoting.sol\":4291:4465  if (_vote == Votes.Against) {... */\n      tag_157\n      jumpi\n        /* \"base/WeightedVoting.sol\":4356:4377  balanceOf(msg.sender) */\n      tag_158\n        /* \"base/WeightedVoting.sol\":4366:4376  msg.sender */\n      caller\n        /* \"base/WeightedVoting.sol\":4356:4365  balanceOf */\n      tag_54\n        /* \"base/WeightedVoting.sol\":4356:4377  balanceOf(msg.sender) */\n      jump\t// in\n    tag_158:\n        /* \"base/WeightedVoting.sol\":4334:4339  issue */\n      dup2\n        /* \"base/WeightedVoting.sol\":4334:4352  issue.votesAgainst */\n      0x04\n      add\n      0x00\n        /* \"base/WeightedVoting.sol\":4334:4377  issue.votesAgainst += balanceOf(msg.sender) */\n      dup3\n      dup3\n      sload\n      tag_159\n      swap2\n      swap1\n      tag_143\n      jump\t// in\n    tag_159:\n      swap3\n      pop\n      pop\n      dup2\n      swap1\n      sstore\n      pop\n        /* \"base/WeightedVoting.sol\":4291:4465  if (_vote == Votes.Against) {... */\n      jump(tag_160)\n    tag_157:\n        /* \"base/WeightedVoting.sol\":4432:4453  balanceOf(msg.sender) */\n      tag_161\n        /* \"base/WeightedVoting.sol\":4442:4452  msg.sender */\n      caller\n        /* \"base/WeightedVoting.sol\":4432:4441  balanceOf */\n      tag_54\n        /* \"base/WeightedVoting.sol\":4432:4453  balanceOf(msg.sender) */\n      jump\t// in\n    tag_161:\n        /* \"base/WeightedVoting.sol\":4410:4415  issue */\n      dup2\n        /* \"base/WeightedVoting.sol\":4410:4428  issue.votesAbstain */\n      0x05\n      add\n      0x00\n        /* \"base/WeightedVoting.sol\":4410:4453  issue.votesAbstain += balanceOf(msg.sender) */\n      dup3\n      dup3\n      sload\n      tag_162\n      swap2\n      swap1\n      tag_143\n      jump\t// in\n    tag_162:\n      swap3\n      pop\n      pop\n      dup2\n      swap1\n      sstore\n      pop\n        /* \"base/WeightedVoting.sol\":4291:4465  if (_vote == Votes.Against) {... */\n    tag_160:\n        /* \"base/WeightedVoting.sol\":4195:4465  if (_vote == Votes.For) {... */\n    tag_152:\n        /* \"base/WeightedVoting.sol\":4501:4506  issue */\n      dup1\n        /* \"base/WeightedVoting.sol\":4501:4513  issue.quorum */\n      0x07\n      add\n      sload\n        /* \"base/WeightedVoting.sol\":4481:4486  issue */\n      dup2\n        /* \"base/WeightedVoting.sol\":4481:4497  issue.totalVotes */\n      0x06\n      add\n      sload\n        /* \"base/WeightedVoting.sol\":4481:4513  issue.totalVotes >= issue.quorum */\n      lt\n        /* \"base/WeightedVoting.sol\":4477:4672  if (issue.totalVotes >= issue.quorum) {... */\n      tag_163\n      jumpi\n        /* \"base/WeightedVoting.sol\":4551:4556  issue */\n      dup1\n        /* \"base/WeightedVoting.sol\":4551:4569  issue.votesAgainst */\n      0x04\n      add\n      sload\n        /* \"base/WeightedVoting.sol\":4534:4539  issue */\n      dup2\n        /* \"base/WeightedVoting.sol\":4534:4548  issue.votesFor */\n      0x03\n      add\n      sload\n        /* \"base/WeightedVoting.sol\":4534:4569  issue.votesFor > issue.votesAgainst */\n      gt\n        /* \"base/WeightedVoting.sol\":4530:4625  if (issue.votesFor > issue.votesAgainst) {... */\n      iszero\n      tag_164\n      jumpi\n        /* \"base/WeightedVoting.sol\":4605:4609  true */\n      0x01\n        /* \"base/WeightedVoting.sol\":4590:4595  issue */\n      dup2\n        /* \"base/WeightedVoting.sol\":4590:4602  issue.passed */\n      0x08\n      add\n      0x00\n        /* \"base/WeightedVoting.sol\":4590:4609  issue.passed = true */\n      0x0100\n      exp\n      dup2\n      sload\n      dup2\n      0xff\n      mul\n      not\n      and\n      swap1\n      dup4\n      iszero\n      iszero\n      mul\n      or\n      swap1\n      sstore\n      pop\n        /* \"base/WeightedVoting.sol\":4530:4625  if (issue.votesFor > issue.votesAgainst) {... */\n    tag_164:\n        /* \"base/WeightedVoting.sol\":4656:4660  true */\n      0x01\n        /* \"base/WeightedVoting.sol\":4641:4646  issue */\n      dup2\n        /* \"base/WeightedVoting.sol\":4641:4653  issue.closed */\n      0x08\n      add\n      0x01\n        /* \"base/WeightedVoting.sol\":4641:4660  issue.closed = true */\n      0x0100\n      exp\n      dup2\n      sload\n      dup2\n      0xff\n      mul\n      not\n      and\n      swap1\n      dup4\n      iszero\n      iszero\n      mul\n      or\n      swap1\n      sstore\n      pop\n        /* \"base/WeightedVoting.sol\":4477:4672  if (issue.totalVotes >= issue.quorum) {... */\n    tag_163:\n        /* \"base/WeightedVoting.sol\":3855:4679  {... */\n      pop\n        /* \"base/WeightedVoting.sol\":3801:4679  function vote(uint256 _issueId, Votes _vote) external {... */\n      pop\n      pop\n      jump\t// out\n        /* \"@openzeppelin/contracts/token/ERC20/ERC20.sol\":2276:2369  function symbol() public view virtual returns (string memory) {... */\n    tag_70:\n        /* \"@openzeppelin/contracts/token/ERC20/ERC20.sol\":2323:2336  string memory */\n      0x60\n        /* \"@openzeppelin/contracts/token/ERC20/ERC20.sol\":2355:2362  _symbol */\n      0x04\n        /* \"@openzeppelin/contracts/token/ERC20/ERC20.sol\":2348:2362  return _symbol */\n      dup1\n      sload\n      tag_166\n      swap1\n      tag_92\n      jump\t// in\n    tag_166:\n      dup1\n      0x1f\n      add\n      0x20\n      dup1\n      swap2\n      div\n      mul\n      0x20\n      add\n      mload(0x40)\n      swap1\n      dup2\n      add\n      0x40\n      mstore\n      dup1\n      swap3\n      swap2\n      swap1\n      dup2\n      dup2\n      mstore\n      0x20\n      add\n      dup3\n      dup1\n      sload\n      tag_167\n      swap1\n      tag_92\n      jump\t// in\n    tag_167:\n      dup1\n      iszero\n      tag_168\n      jumpi\n      dup1\n      0x1f\n      lt\n      tag_169\n      jumpi\n      0x0100\n      dup1\n      dup4\n      sload\n      div\n      mul\n      dup4\n      mstore\n      swap2\n      0x20\n      add\n      swap2\n      jump(tag_168)\n    tag_169:\n      dup3\n      add\n      swap2\n      swap1\n      0x00\n      mstore\n      keccak256(0x00, 0x20)\n      swap1\n    tag_170:\n      dup2\n      sload\n      dup2\n      mstore\n      swap1\n      0x01\n      add\n      swap1\n      0x20\n      add\n      dup1\n      dup4\n      gt\n      tag_170\n      jumpi\n      dup3\n      swap1\n      sub\n      0x1f\n      and\n      dup3\n      add\n      swap2\n    tag_168:\n      pop\n      pop\n      pop\n      pop\n      pop\n      swap1\n      pop\n        /* \"@openzeppelin/contracts/token/ERC20/ERC20.sol\":2276:2369  function symbol() public view virtual returns (string memory) {... */\n      swap1\n      jump\t// out\n        /* \"base/WeightedVoting.sol\":2993:3533  function getIssue(uint256 _issueId) external view returns (IssueView memory) {... */\n    tag_75:\n        /* \"base/WeightedVoting.sol\":3052:3068  IssueView memory */\n      tag_171\n      tag_172\n      jump\t// in\n    tag_171:\n        /* \"base/WeightedVoting.sol\":3081:3100  Issue storage issue */\n      0x00\n        /* \"base/WeightedVoting.sol\":3103:3109  issues */\n      0x08\n        /* \"base/WeightedVoting.sol\":3110:3118  _issueId */\n      dup4\n        /* \"base/WeightedVoting.sol\":3103:3119  issues[_issueId] */\n      dup2\n      sload\n      dup2\n      lt\n      tag_174\n      jumpi\n      tag_175\n      tag_131\n      jump\t// in\n    tag_175:\n    tag_174:\n      swap1\n      0x00\n      mstore\n      keccak256(0x00, 0x20)\n      swap1\n      0x09\n      mul\n      add\n        /* \"base/WeightedVoting.sol\":3081:3119  Issue storage issue = issues[_issueId] */\n      swap1\n      pop\n        /* \"base/WeightedVoting.sol\":3137:3525  IssueView({... */\n      mload(0x40)\n      dup1\n      0x0120\n      add\n      0x40\n      mstore\n      dup1\n        /* \"base/WeightedVoting.sol\":3170:3191  issue.voters.values() */\n      tag_177\n        /* \"base/WeightedVoting.sol\":3170:3175  issue */\n      dup4\n        /* \"base/WeightedVoting.sol\":3170:3182  issue.voters */\n      0x00\n      add\n        /* \"base/WeightedVoting.sol\":3170:3189  issue.voters.values */\n      tag_178\n        /* \"base/WeightedVoting.sol\":3170:3191  issue.voters.values() */\n      jump\t// in\n    tag_177:\n        /* \"base/WeightedVoting.sol\":3137:3525  IssueView({... */\n      dup2\n      mstore\n      0x20\n      add\n        /* \"base/WeightedVoting.sol\":3217:3222  issue */\n      dup3\n        /* \"base/WeightedVoting.sol\":3217:3232  issue.issueDesc */\n      0x02\n      add\n        /* \"base/WeightedVoting.sol\":3137:3525  IssueView({... */\n      dup1\n      sload\n      tag_179\n      swap1\n      tag_92\n      jump\t// in\n    tag_179:\n      dup1\n      0x1f\n      add\n      0x20\n      dup1\n      swap2\n      div\n      mul\n      0x20\n      add\n      mload(0x40)\n      swap1\n      dup2\n      add\n      0x40\n      mstore\n      dup1\n      swap3\n      swap2\n      swap1\n      dup2\n      dup2\n      mstore\n      0x20\n      add\n      dup3\n      dup1\n      sload\n      tag_180\n      swap1\n      tag_92\n      jump\t// in\n    tag_180:\n      dup1\n      iszero\n      tag_181\n      jumpi\n      dup1\n      0x1f\n      lt\n      tag_182\n      jumpi\n      0x0100\n      dup1\n      dup4\n      sload\n      div\n      mul\n      dup4\n      mstore\n      swap2\n      0x20\n      add\n      swap2\n      jump(tag_181)\n    tag_182:\n      dup3\n      add\n      swap2\n      swap1\n      0x00\n      mstore\n      keccak256(0x00, 0x20)\n      swap1\n    tag_183:\n      dup2\n      sload\n      dup2\n      mstore\n      swap1\n      0x01\n      add\n      swap1\n      0x20\n      add\n      dup1\n      dup4\n      gt\n      tag_183\n      jumpi\n      dup3\n      swap1\n      sub\n      0x1f\n      and\n      dup3\n      add\n      swap2\n    tag_181:\n      pop\n      pop\n      pop\n      pop\n      pop\n      dup2\n      mstore\n      0x20\n      add\n        /* \"base/WeightedVoting.sol\":3335:3340  issue */\n      dup3\n        /* \"base/WeightedVoting.sol\":3335:3349  issue.votesFor */\n      0x03\n      add\n      sload\n        /* \"base/WeightedVoting.sol\":3137:3525  IssueView({... */\n      dup2\n      mstore\n      0x20\n      add\n        /* \"base/WeightedVoting.sol\":3378:3383  issue */\n      dup3\n        /* \"base/WeightedVoting.sol\":3378:3396  issue.votesAgainst */\n      0x04\n      add\n      sload\n        /* \"base/WeightedVoting.sol\":3137:3525  IssueView({... */\n      dup2\n      mstore\n      0x20\n      add\n        /* \"base/WeightedVoting.sol\":3425:3430  issue */\n      dup3\n        /* \"base/WeightedVoting.sol\":3425:3443  issue.votesAbstain */\n      0x05\n      add\n      sload\n        /* \"base/WeightedVoting.sol\":3137:3525  IssueView({... */\n      dup2\n      mstore\n      0x20\n      add\n        /* \"base/WeightedVoting.sol\":3294:3299  issue */\n      dup3\n        /* \"base/WeightedVoting.sol\":3294:3310  issue.totalVotes */\n      0x06\n      add\n      sload\n        /* \"base/WeightedVoting.sol\":3137:3525  IssueView({... */\n      dup2\n      mstore\n      0x20\n      add\n        /* \"base/WeightedVoting.sol\":3255:3260  issue */\n      dup3\n        /* \"base/WeightedVoting.sol\":3255:3267  issue.quorum */\n      0x07\n      add\n      sload\n        /* \"base/WeightedVoting.sol\":3137:3525  IssueView({... */\n      dup2\n      mstore\n      0x20\n      add\n        /* \"base/WeightedVoting.sol\":3466:3471  issue */\n      dup3\n        /* \"base/WeightedVoting.sol\":3466:3478  issue.passed */\n      0x08\n      add\n      0x00\n      swap1\n      sload\n      swap1\n      0x0100\n      exp\n      swap1\n      div\n      0xff\n      and\n        /* \"base/WeightedVoting.sol\":3137:3525  IssueView({... */\n      iszero\n      iszero\n      dup2\n      mstore\n      0x20\n      add\n        /* \"base/WeightedVoting.sol\":3501:3506  issue */\n      dup3\n        /* \"base/WeightedVoting.sol\":3501:3513  issue.closed */\n      0x08\n      add\n      0x01\n      swap1\n      sload\n      swap1\n      0x0100\n      exp\n      swap1\n      div\n      0xff\n      and\n        /* \"base/WeightedVoting.sol\":3137:3525  IssueView({... */\n      iszero\n      iszero\n      dup2\n      mstore\n      pop\n        /* \"base/WeightedVoting.sol\":3130:3525  return IssueView({... */\n      swap2\n      pop\n      pop\n        /* \"base/WeightedVoting.sol\":2993:3533  function getIssue(uint256 _issueId) external view returns (IssueView memory) {... */\n      swap2\n      swap1\n      pop\n      jump\t// out\n        /* \"@openzeppelin/contracts/token/ERC20/ERC20.sol\":3610:3788  function transfer(address to, uint256 value) public virtual returns (bool) {... */\n    tag_80:\n        /* \"@openzeppelin/contracts/token/ERC20/ERC20.sol\":3679:3683  bool */\n      0x00\n        /* \"@openzeppelin/contracts/token/ERC20/ERC20.sol\":3695:3708  address owner */\n      dup1\n        /* \"@openzeppelin/contracts/token/ERC20/ERC20.sol\":3711:3723  _msgSender() */\n      tag_185\n        /* \"@openzeppelin/contracts/token/ERC20/ERC20.sol\":3711:3721  _msgSender */\n      tag_99\n        /* \"@openzeppelin/contracts/token/ERC20/ERC20.sol\":3711:3723  _msgSender() */\n      jump\t// in\n    tag_185:\n        /* \"@openzeppelin/contracts/token/ERC20/ERC20.sol\":3695:3723  address owner = _msgSender() */\n      swap1\n      pop\n        /* \"@openzeppelin/contracts/token/ERC20/ERC20.sol\":3733:3760  _transfer(owner, to, value) */\n      tag_186\n        /* \"@openzeppelin/contracts/token/ERC20/ERC20.sol\":3743:3748  owner */\n      dup2\n        /* \"@openzeppelin/contracts/token/ERC20/ERC20.sol\":3750:3752  to */\n      dup6\n        /* \"@openzeppelin/contracts/token/ERC20/ERC20.sol\":3754:3759  value */\n      dup6\n        /* \"@openzeppelin/contracts/token/ERC20/ERC20.sol\":3733:3742  _transfer */\n      tag_108\n        /* \"@openzeppelin/contracts/token/ERC20/ERC20.sol\":3733:3760  _transfer(owner, to, value) */\n      jump\t// in\n    tag_186:\n        /* \"@openzeppelin/contracts/token/ERC20/ERC20.sol\":3777:3781  true */\n      0x01\n        /* \"@openzeppelin/contracts/token/ERC20/ERC20.sol\":3770:3781  return true */\n      swap2\n      pop\n      pop\n        /* \"@openzeppelin/contracts/token/ERC20/ERC20.sol\":3610:3788  function transfer(address to, uint256 value) public virtual returns (bool) {... */\n      swap3\n      swap2\n      pop\n      pop\n      jump\t// out\n        /* \"base/WeightedVoting.sol\":1250:1286  uint256 public maxSupply = 1_000_000 */\n    tag_83:\n      sload(0x07)\n      dup2\n      jump\t// out\n        /* \"@openzeppelin/contracts/token/ERC20/ERC20.sol\":3846:3986  function allowance(address owner, address spender) public view virtual returns (uint256) {... */\n    tag_88:\n        /* \"@openzeppelin/contracts/token/ERC20/ERC20.sol\":3926:3933  uint256 */\n      0x00\n        /* \"@openzeppelin/contracts/token/ERC20/ERC20.sol\":3952:3963  _allowances */\n      0x01\n        /* \"@openzeppelin/contracts/token/ERC20/ERC20.sol\":3952:3970  _allowances[owner] */\n      0x00\n        /* \"@openzeppelin/contracts/token/ERC20/ERC20.sol\":3964:3969  owner */\n      dup5\n        /* \"@openzeppelin/contracts/token/ERC20/ERC20.sol\":3952:3970  _allowances[owner] */\n      0xffffffffffffffffffffffffffffffffffffffff\n      and\n      0xffffffffffffffffffffffffffffffffffffffff\n      and\n      dup2\n      mstore\n      0x20\n      add\n      swap1\n      dup2\n      mstore\n      0x20\n      add\n      0x00\n      keccak256\n        /* \"@openzeppelin/contracts/token/ERC20/ERC20.sol\":3952:3979  _allowances[owner][spender] */\n      0x00\n        /* \"@openzeppelin/contracts/token/ERC20/ERC20.sol\":3971:3978  spender */\n      dup4\n        /* \"@openzeppelin/contracts/token/ERC20/ERC20.sol\":3952:3979  _allowances[owner][spender] */\n      0xffffffffffffffffffffffffffffffffffffffff\n      and\n      0xffffffffffffffffffffffffffffffffffffffff\n      and\n      dup2\n      mstore\n      0x20\n      add\n      swap1\n      dup2\n      mstore\n      0x20\n      add\n      0x00\n      keccak256\n      sload\n        /* \"@openzeppelin/contracts/token/ERC20/ERC20.sol\":3945:3979  return _allowances[owner][spender] */\n      swap1\n      pop\n        /* \"@openzeppelin/contracts/token/ERC20/ERC20.sol\":3846:3986  function allowance(address owner, address spender) public view virtual returns (uint256) {... */\n      swap3\n      swap2\n      pop\n      pop\n      jump\t// out\n        /* \"@openzeppelin/contracts/utils/Context.sol\":656:752  function _msgSender() internal view virtual returns (address) {... */\n    tag_99:\n        /* \"@openzeppelin/contracts/utils/Context.sol\":709:716  address */\n      0x00\n        /* \"@openzeppelin/contracts/utils/Context.sol\":735:745  msg.sender */\n      caller\n        /* \"@openzeppelin/contracts/utils/Context.sol\":728:745  return msg.sender */\n      swap1\n      pop\n        /* \"@openzeppelin/contracts/utils/Context.sol\":656:752  function _msgSender() internal view virtual returns (address) {... */\n      swap1\n      jump\t// out\n        /* \"@openzeppelin/contracts/token/ERC20/ERC20.sol\":8989:9117  function _approve(address owner, address spender, uint256 value) internal {... */\n    tag_101:\n        /* \"@openzeppelin/contracts/token/ERC20/ERC20.sol\":9073:9110  _approve(owner, spender, value, true) */\n      tag_190\n        /* \"@openzeppelin/contracts/token/ERC20/ERC20.sol\":9082:9087  owner */\n      dup4\n        /* \"@openzeppelin/contracts/token/ERC20/ERC20.sol\":9089:9096  spender */\n      dup4\n        /* \"@openzeppelin/contracts/token/ERC20/ERC20.sol\":9098:9103  value */\n      dup4\n        /* \"@openzeppelin/contracts/token/ERC20/ERC20.sol\":9105:9109  true */\n      0x01\n        /* \"@openzeppelin/contracts/token/ERC20/ERC20.sol\":9073:9081  _approve */\n      tag_191\n        /* \"@openzeppelin/contracts/token/ERC20/ERC20.sol\":9073:9110  _approve(owner, spender, value, true) */\n      jump\t// in\n    tag_190:\n        /* \"@openzeppelin/contracts/token/ERC20/ERC20.sol\":8989:9117  function _approve(address owner, address spender, uint256 value) internal {... */\n      pop\n      pop\n      pop\n      jump\t// out\n        /* \"@openzeppelin/contracts/token/ERC20/ERC20.sol\":10663:11140  function _spendAllowance(address owner, address spender, uint256 value) internal virtual {... */\n    tag_106:\n        /* \"@openzeppelin/contracts/token/ERC20/ERC20.sol\":10762:10786  uint256 currentAllowance */\n      0x00\n        /* \"@openzeppelin/contracts/token/ERC20/ERC20.sol\":10789:10814  allowance(owner, spender) */\n      tag_193\n        /* \"@openzeppelin/contracts/token/ERC20/ERC20.sol\":10799:10804  owner */\n      dup5\n        /* \"@openzeppelin/contracts/token/ERC20/ERC20.sol\":10806:10813  spender */\n      dup5\n        /* \"@openzeppelin/contracts/token/ERC20/ERC20.sol\":10789:10798  allowance */\n      tag_88\n        /* \"@openzeppelin/contracts/token/ERC20/ERC20.sol\":10789:10814  allowance(owner, spender) */\n      jump\t// in\n    tag_193:\n        /* \"@openzeppelin/contracts/token/ERC20/ERC20.sol\":10762:10814  uint256 currentAllowance = allowance(owner, spender) */\n      swap1\n      pop\n        /* \"@openzeppelin/contracts/token/ERC20/ERC20.sol\":10848:10865  type(uint256).max */\n      0xffffffffffffffffffffffffffffffffffffffffffffffffffffffffffffffff\n        /* \"@openzeppelin/contracts/token/ERC20/ERC20.sol\":10828:10844  currentAllowance */\n      dup2\n        /* \"@openzeppelin/contracts/token/ERC20/ERC20.sol\":10828:10865  currentAllowance != type(uint256).max */\n      eq\n        /* \"@openzeppelin/contracts/token/ERC20/ERC20.sol\":10824:11134  if (currentAllowance != type(uint256).max) {... */\n      tag_194\n      jumpi\n        /* \"@openzeppelin/contracts/token/ERC20/ERC20.sol\":10904:10909  value */\n      dup2\n        /* \"@openzeppelin/contracts/token/ERC20/ERC20.sol\":10885:10901  currentAllowance */\n      dup2\n        /* \"@openzeppelin/contracts/token/ERC20/ERC20.sol\":10885:10909  currentAllowance < value */\n      lt\n        /* \"@openzeppelin/contracts/token/ERC20/ERC20.sol\":10881:11011  if (currentAllowance < value) {... */\n      iszero\n      tag_195\n      jumpi\n        /* \"@openzeppelin/contracts/token/ERC20/ERC20.sol\":10963:10970  spender */\n      dup3\n        /* \"@openzeppelin/contracts/token/ERC20/ERC20.sol\":10972:10988  currentAllowance */\n      dup2\n        /* \"@openzeppelin/contracts/token/ERC20/ERC20.sol\":10990:10995  value */\n      dup4\n        /* \"@openzeppelin/contracts/token/ERC20/ERC20.sol\":10936:10996  ERC20InsufficientAllowance(spender, currentAllowance, value) */\n      mload(0x40)\n      0xfb8f41b200000000000000000000000000000000000000000000000000000000\n      dup2\n      mstore\n      0x04\n      add\n      tag_196\n      swap4\n      swap3\n      swap2\n      swap1\n      tag_197\n      jump\t// in\n    tag_196:\n      mload(0x40)\n      dup1\n      swap2\n      sub\n      swap1\n      revert\n        /* \"@openzeppelin/contracts/token/ERC20/ERC20.sol\":10881:11011  if (currentAllowance < value) {... */\n    tag_195:\n        /* \"@openzeppelin/contracts/token/ERC20/ERC20.sol\":11052:11109  _approve(owner, spender, currentAllowance - value, false) */\n      tag_198\n        /* \"@openzeppelin/contracts/token/ERC20/ERC20.sol\":11061:11066  owner */\n      dup5\n        /* \"@openzeppelin/contracts/token/ERC20/ERC20.sol\":11068:11075  spender */\n      dup5\n        /* \"@openzeppelin/contracts/token/ERC20/ERC20.sol\":11096:11101  value */\n      dup5\n        /* \"@openzeppelin/contracts/token/ERC20/ERC20.sol\":11077:11093  currentAllowance */\n      dup5\n        /* \"@openzeppelin/contracts/token/ERC20/ERC20.sol\":11077:11101  currentAllowance - value */\n      sub\n        /* \"@openzeppelin/contracts/token/ERC20/ERC20.sol\":11103:11108  false */\n      0x00\n        /* \"@openzeppelin/contracts/token/ERC20/ERC20.sol\":11052:11060  _approve */\n      tag_191\n        /* \"@openzeppelin/contracts/token/ERC20/ERC20.sol\":11052:11109  _approve(owner, spender, currentAllowance - value, false) */\n      jump\t// in\n    tag_198:\n        /* \"@openzeppelin/contracts/token/ERC20/ERC20.sol\":10824:11134  if (currentAllowance != type(uint256).max) {... */\n    tag_194:\n        /* \"@openzeppelin/contracts/token/ERC20/ERC20.sol\":10752:11140  {... */\n      pop\n        /* \"@openzeppelin/contracts/token/ERC20/ERC20.sol\":10663:11140  function _spendAllowance(address owner, address spender, uint256 value) internal virtual {... */\n      pop\n      pop\n      pop\n      jump\t// out\n        /* \"@openzeppelin/contracts/token/ERC20/ERC20.sol\":5656:5956  function _transfer(address from, address to, uint256 value) internal {... */\n    tag_108:\n        /* \"@openzeppelin/contracts/token/ERC20/ERC20.sol\":5755:5756  0 */\n      0x00\n        /* \"@openzeppelin/contracts/token/ERC20/ERC20.sol\":5739:5757  from == address(0) */\n      0xffffffffffffffffffffffffffffffffffffffff\n      and\n        /* \"@openzeppelin/contracts/token/ERC20/ERC20.sol\":5739:5743  from */\n      dup4\n        /* \"@openzeppelin/contracts/token/ERC20/ERC20.sol\":5739:5757  from == address(0) */\n      0xffffffffffffffffffffffffffffffffffffffff\n      and\n      sub\n        /* \"@openzeppelin/contracts/token/ERC20/ERC20.sol\":5735:5821  if (from == address(0)) {... */\n      tag_200\n      jumpi\n        /* \"@openzeppelin/contracts/token/ERC20/ERC20.sol\":5807:5808  0 */\n      0x00\n        /* \"@openzeppelin/contracts/token/ERC20/ERC20.sol\":5780:5810  ERC20InvalidSender(address(0)) */\n      mload(0x40)\n      0x96c6fd1e00000000000000000000000000000000000000000000000000000000\n      dup2\n      mstore\n      0x04\n      add\n      tag_201\n      swap2\n      swap1\n      tag_202\n      jump\t// in\n    tag_201:\n      mload(0x40)\n      dup1\n      swap2\n      sub\n      swap1\n      revert\n        /* \"@openzeppelin/contracts/token/ERC20/ERC20.sol\":5735:5821  if (from == address(0)) {... */\n    tag_200:\n        /* \"@openzeppelin/contracts/token/ERC20/ERC20.sol\":5848:5849  0 */\n      0x00\n        /* \"@openzeppelin/contracts/token/ERC20/ERC20.sol\":5834:5850  to == address(0) */\n      0xffffffffffffffffffffffffffffffffffffffff\n      and\n        /* \"@openzeppelin/contracts/token/ERC20/ERC20.sol\":5834:5836  to */\n      dup3\n        /* \"@openzeppelin/contracts/token/ERC20/ERC20.sol\":5834:5850  to == address(0) */\n      0xffffffffffffffffffffffffffffffffffffffff\n      and\n      sub\n        /* \"@openzeppelin/contracts/token/ERC20/ERC20.sol\":5830:5916  if (to == address(0)) {... */\n      tag_203\n      jumpi\n        /* \"@openzeppelin/contracts/token/ERC20/ERC20.sol\":5902:5903  0 */\n      0x00\n        /* \"@openzeppelin/contracts/token/ERC20/ERC20.sol\":5873:5905  ERC20InvalidReceiver(address(0)) */\n      mload(0x40)\n      0xec442f0500000000000000000000000000000000000000000000000000000000\n      dup2\n      mstore\n      0x04\n      add\n      tag_204\n      swap2\n      swap1\n      tag_202\n      jump\t// in\n    tag_204:\n      mload(0x40)\n      dup1\n      swap2\n      sub\n      swap1\n      revert\n        /* \"@openzeppelin/contracts/token/ERC20/ERC20.sol\":5830:5916  if (to == address(0)) {... */\n    tag_203:\n        /* \"@openzeppelin/contracts/token/ERC20/ERC20.sol\":5925:5949  _update(from, to, value) */\n      tag_205\n        /* \"@openzeppelin/contracts/token/ERC20/ERC20.sol\":5933:5937  from */\n      dup4\n        /* \"@openzeppelin/contracts/token/ERC20/ERC20.sol\":5939:5941  to */\n      dup4\n        /* \"@openzeppelin/contracts/token/ERC20/ERC20.sol\":5943:5948  value */\n      dup4\n        /* \"@openzeppelin/contracts/token/ERC20/ERC20.sol\":5925:5932  _update */\n      tag_206\n        /* \"@openzeppelin/contracts/token/ERC20/ERC20.sol\":5925:5949  _update(from, to, value) */\n      jump\t// in\n    tag_205:\n        /* \"@openzeppelin/contracts/token/ERC20/ERC20.sol\":5656:5956  function _transfer(address from, address to, uint256 value) internal {... */\n      pop\n      pop\n      pop\n      jump\t// out\n        /* \"@openzeppelin/contracts/token/ERC20/ERC20.sol\":7721:7929  function _mint(address account, uint256 value) internal {... */\n    tag_115:\n        /* \"@openzeppelin/contracts/token/ERC20/ERC20.sol\":7810:7811  0 */\n      0x00\n        /* \"@openzeppelin/contracts/token/ERC20/ERC20.sol\":7791:7812  account == address(0) */\n      0xffffffffffffffffffffffffffffffffffffffff\n      and\n        /* \"@openzeppelin/contracts/token/ERC20/ERC20.sol\":7791:7798  account */\n      dup3\n        /* \"@openzeppelin/contracts/token/ERC20/ERC20.sol\":7791:7812  account == address(0) */\n      0xffffffffffffffffffffffffffffffffffffffff\n      and\n      sub\n        /* \"@openzeppelin/contracts/token/ERC20/ERC20.sol\":7787:7878  if (account == address(0)) {... */\n      tag_208\n      jumpi\n        /* \"@openzeppelin/contracts/token/ERC20/ERC20.sol\":7864:7865  0 */\n      0x00\n        /* \"@openzeppelin/contracts/token/ERC20/ERC20.sol\":7835:7867  ERC20InvalidReceiver(address(0)) */\n      mload(0x40)\n      0xec442f0500000000000000000000000000000000000000000000000000000000\n      dup2\n      mstore\n      0x04\n      add\n      tag_209\n      swap2\n      swap1\n      tag_202\n      jump\t// in\n    tag_209:\n      mload(0x40)\n      dup1\n      swap2\n      sub\n      swap1\n      revert\n        /* \"@openzeppelin/contracts/token/ERC20/ERC20.sol\":7787:7878  if (account == address(0)) {... */\n    tag_208:\n        /* \"@openzeppelin/contracts/token/ERC20/ERC20.sol\":7887:7922  _update(address(0), account, value) */\n      tag_210\n        /* \"@openzeppelin/contracts/token/ERC20/ERC20.sol\":7903:7904  0 */\n      0x00\n        /* \"@openzeppelin/contracts/token/ERC20/ERC20.sol\":7907:7914  account */\n      dup4\n        /* \"@openzeppelin/contracts/token/ERC20/ERC20.sol\":7916:7921  value */\n      dup4\n        /* \"@openzeppelin/contracts/token/ERC20/ERC20.sol\":7887:7894  _update */\n      tag_206\n        /* \"@openzeppelin/contracts/token/ERC20/ERC20.sol\":7887:7922  _update(address(0), account, value) */\n      jump\t// in\n    tag_210:\n        /* \"@openzeppelin/contracts/token/ERC20/ERC20.sol\":7721:7929  function _mint(address account, uint256 value) internal {... */\n      pop\n      pop\n      jump\t// out\n        /* \"@openzeppelin/contracts/utils/structs/EnumerableSet.sol\":8871:9036  function contains(AddressSet storage set, address value) internal view returns (bool) {... */\n    tag_135:\n        /* \"@openzeppelin/contracts/utils/structs/EnumerableSet.sol\":8951:8955  bool */\n      0x00\n        /* \"@openzeppelin/contracts/utils/structs/EnumerableSet.sol\":8974:9029  _contains(set._inner, bytes32(uint256(uint160(value)))) */\n      tag_212\n        /* \"@openzeppelin/contracts/utils/structs/EnumerableSet.sol\":8984:8987  set */\n      dup4\n        /* \"@openzeppelin/contracts/utils/structs/EnumerableSet.sol\":8984:8994  set._inner */\n      0x00\n      add\n        /* \"@openzeppelin/contracts/utils/structs/EnumerableSet.sol\":9020:9025  value */\n      dup4\n        /* \"@openzeppelin/contracts/utils/structs/EnumerableSet.sol\":9004:9027  uint256(uint160(value)) */\n      0xffffffffffffffffffffffffffffffffffffffff\n      and\n        /* \"@openzeppelin/contracts/utils/structs/EnumerableSet.sol\":8996:9028  bytes32(uint256(uint160(value))) */\n      0x00\n      shl\n        /* \"@openzeppelin/contracts/utils/structs/EnumerableSet.sol\":8974:8983  _contains */\n      tag_213\n        /* \"@openzeppelin/contracts/utils/structs/EnumerableSet.sol\":8974:9029  _contains(set._inner, bytes32(uint256(uint160(value)))) */\n      jump\t// in\n    tag_212:\n        /* \"@openzeppelin/contracts/utils/structs/EnumerableSet.sol\":8967:9029  return _contains(set._inner, bytes32(uint256(uint160(value)))) */\n      swap1\n      pop\n        /* \"@openzeppelin/contracts/utils/structs/EnumerableSet.sol\":8871:9036  function contains(AddressSet storage set, address value) internal view returns (bool) {... */\n      swap3\n      swap2\n      pop\n      pop\n      jump\t// out\n        /* \"@openzeppelin/contracts/utils/structs/EnumerableSet.sol\":8316:8466  function add(AddressSet storage set, address value) internal returns (bool) {... */\n    tag_140:\n        /* \"@openzeppelin/contracts/utils/structs/EnumerableSet.sol\":8386:8390  bool */\n      0x00\n        /* \"@openzeppelin/contracts/utils/structs/EnumerableSet.sol\":8409:8459  _add(set._inner, bytes32(uint256(uint160(value)))) */\n      tag_215\n        /* \"@openzeppelin/contracts/utils/structs/EnumerableSet.sol\":8414:8417  set */\n      dup4\n        /* \"@openzeppelin/contracts/utils/structs/EnumerableSet.sol\":8414:8424  set._inner */\n      0x00\n      add\n        /* \"@openzeppelin/contracts/utils/structs/EnumerableSet.sol\":8450:8455  value */\n      dup4\n        /* \"@openzeppelin/contracts/utils/structs/EnumerableSet.sol\":8434:8457  uint256(uint160(value)) */\n      0xffffffffffffffffffffffffffffffffffffffff\n      and\n        /* \"@openzeppelin/contracts/utils/structs/EnumerableSet.sol\":8426:8458  bytes32(uint256(uint160(value))) */\n      0x00\n      shl\n        /* \"@openzeppelin/contracts/utils/structs/EnumerableSet.sol\":8409:8413  _add */\n      tag_216\n        /* \"@openzeppelin/contracts/utils/structs/EnumerableSet.sol\":8409:8459  _add(set._inner, bytes32(uint256(uint160(value)))) */\n      jump\t// in\n    tag_215:\n        /* \"@openzeppelin/contracts/utils/structs/EnumerableSet.sol\":8402:8459  return _add(set._inner, bytes32(uint256(uint160(value)))) */\n      swap1\n      pop\n        /* \"@openzeppelin/contracts/utils/structs/EnumerableSet.sol\":8316:8466  function add(AddressSet storage set, address value) internal returns (bool) {... */\n      swap3\n      swap2\n      pop\n      pop\n      jump\t// out\n        /* \"@openzeppelin/contracts/utils/structs/EnumerableSet.sol\":10270:10570  function values(AddressSet storage set) internal view returns (address[] memory) {... */\n    tag_178:\n        /* \"@openzeppelin/contracts/utils/structs/EnumerableSet.sol\":10333:10349  address[] memory */\n      0x60\n        /* \"@openzeppelin/contracts/utils/structs/EnumerableSet.sol\":10361:10383  bytes32[] memory store */\n      0x00\n        /* \"@openzeppelin/contracts/utils/structs/EnumerableSet.sol\":10386:10405  _values(set._inner) */\n      tag_218\n        /* \"@openzeppelin/contracts/utils/structs/EnumerableSet.sol\":10394:10397  set */\n      dup4\n        /* \"@openzeppelin/contracts/utils/structs/EnumerableSet.sol\":10394:10404  set._inner */\n      0x00\n      add\n        /* \"@openzeppelin/contracts/utils/structs/EnumerableSet.sol\":10386:10393  _values */\n      tag_219\n        /* \"@openzeppelin/contracts/utils/structs/EnumerableSet.sol\":10386:10405  _values(set._inner) */\n      jump\t// in\n    tag_218:\n        /* \"@openzeppelin/contracts/utils/structs/EnumerableSet.sol\":10361:10405  bytes32[] memory store = _values(set._inner) */\n      swap1\n      pop\n        /* \"@openzeppelin/contracts/utils/structs/EnumerableSet.sol\":10415:10438  address[] memory result */\n      0x60\n        /* \"@openzeppelin/contracts/utils/structs/EnumerableSet.sol\":10525:10530  store */\n      dup2\n        /* \"@openzeppelin/contracts/utils/structs/EnumerableSet.sol\":10515:10530  result := store */\n      swap1\n      pop\n        /* \"@openzeppelin/contracts/utils/structs/EnumerableSet.sol\":10557:10563  result */\n      dup1\n        /* \"@openzeppelin/contracts/utils/structs/EnumerableSet.sol\":10550:10563  return result */\n      swap3\n      pop\n      pop\n      pop\n        /* \"@openzeppelin/contracts/utils/structs/EnumerableSet.sol\":10270:10570  function values(AddressSet storage set) internal view returns (address[] memory) {... */\n      swap2\n      swap1\n      pop\n      jump\t// out\n        /* \"@openzeppelin/contracts/token/ERC20/ERC20.sol\":9949:10381  function _approve(address owner, address spender, uint256 value, bool emitEvent) internal virtual {... */\n    tag_191:\n        /* \"@openzeppelin/contracts/token/ERC20/ERC20.sol\":10078:10079  0 */\n      0x00\n        /* \"@openzeppelin/contracts/token/ERC20/ERC20.sol\":10061:10080  owner == address(0) */\n      0xffffffffffffffffffffffffffffffffffffffff\n      and\n        /* \"@openzeppelin/contracts/token/ERC20/ERC20.sol\":10061:10066  owner */\n      dup5\n        /* \"@openzeppelin/contracts/token/ERC20/ERC20.sol\":10061:10080  owner == address(0) */\n      0xffffffffffffffffffffffffffffffffffffffff\n      and\n      sub\n        /* \"@openzeppelin/contracts/token/ERC20/ERC20.sol\":10057:10146  if (owner == address(0)) {... */\n      tag_221\n      jumpi\n        /* \"@openzeppelin/contracts/token/ERC20/ERC20.sol\":10132:10133  0 */\n      0x00\n        /* \"@openzeppelin/contracts/token/ERC20/ERC20.sol\":10103:10135  ERC20InvalidApprover(address(0)) */\n      mload(0x40)\n      0xe602df0500000000000000000000000000000000000000000000000000000000\n      dup2\n      mstore\n      0x04\n      add\n      tag_222\n      swap2\n      swap1\n      tag_202\n      jump\t// in\n    tag_222:\n      mload(0x40)\n      dup1\n      swap2\n      sub\n      swap1\n      revert\n        /* \"@openzeppelin/contracts/token/ERC20/ERC20.sol\":10057:10146  if (owner == address(0)) {... */\n    tag_221:\n        /* \"@openzeppelin/contracts/token/ERC20/ERC20.sol\":10178:10179  0 */\n      0x00\n        /* \"@openzeppelin/contracts/token/ERC20/ERC20.sol\":10159:10180  spender == address(0) */\n      0xffffffffffffffffffffffffffffffffffffffff\n      and\n        /* \"@openzeppelin/contracts/token/ERC20/ERC20.sol\":10159:10166  spender */\n      dup4\n        /* \"@openzeppelin/contracts/token/ERC20/ERC20.sol\":10159:10180  spender == address(0) */\n      0xffffffffffffffffffffffffffffffffffffffff\n      and\n      sub\n        /* \"@openzeppelin/contracts/token/ERC20/ERC20.sol\":10155:10245  if (spender == address(0)) {... */\n      tag_223\n      jumpi\n        /* \"@openzeppelin/contracts/token/ERC20/ERC20.sol\":10231:10232  0 */\n      0x00\n        /* \"@openzeppelin/contracts/token/ERC20/ERC20.sol\":10203:10234  ERC20InvalidSpender(address(0)) */\n      mload(0x40)\n      0x94280d6200000000000000000000000000000000000000000000000000000000\n      dup2\n      mstore\n      0x04\n      add\n      tag_224\n      swap2\n      swap1\n      tag_202\n      jump\t// in\n    tag_224:\n      mload(0x40)\n      dup1\n      swap2\n      sub\n      swap1\n      revert\n        /* \"@openzeppelin/contracts/token/ERC20/ERC20.sol\":10155:10245  if (spender == address(0)) {... */\n    tag_223:\n        /* \"@openzeppelin/contracts/token/ERC20/ERC20.sol\":10284:10289  value */\n      dup2\n        /* \"@openzeppelin/contracts/token/ERC20/ERC20.sol\":10254:10265  _allowances */\n      0x01\n        /* \"@openzeppelin/contracts/token/ERC20/ERC20.sol\":10254:10272  _allowances[owner] */\n      0x00\n        /* \"@openzeppelin/contracts/token/ERC20/ERC20.sol\":10266:10271  owner */\n      dup7\n        /* \"@openzeppelin/contracts/token/ERC20/ERC20.sol\":10254:10272  _allowances[owner] */\n      0xffffffffffffffffffffffffffffffffffffffff\n      and\n      0xffffffffffffffffffffffffffffffffffffffff\n      and\n      dup2\n      mstore\n      0x20\n      add\n      swap1\n      dup2\n      mstore\n      0x20\n      add\n      0x00\n      keccak256\n        /* \"@openzeppelin/contracts/token/ERC20/ERC20.sol\":10254:10281  _allowances[owner][spender] */\n      0x00\n        /* \"@openzeppelin/contracts/token/ERC20/ERC20.sol\":10273:10280  spender */\n      dup6\n        /* \"@openzeppelin/contracts/token/ERC20/ERC20.sol\":10254:10281  _allowances[owner][spender] */\n      0xffffffffffffffffffffffffffffffffffffffff\n      and\n      0xffffffffffffffffffffffffffffffffffffffff\n      and\n      dup2\n      mstore\n      0x20\n      add\n      swap1\n      dup2\n      mstore\n      0x20\n      add\n      0x00\n      keccak256\n        /* \"@openzeppelin/contracts/token/ERC20/ERC20.sol\":10254:10289  _allowances[owner][spender] = value */\n      dup2\n      swap1\n      sstore\n      pop\n        /* \"@openzeppelin/contracts/token/ERC20/ERC20.sol\":10303:10312  emitEvent */\n      dup1\n        /* \"@openzeppelin/contracts/token/ERC20/ERC20.sol\":10299:10375  if (emitEvent) {... */\n      iszero\n      tag_225\n      jumpi\n        /* \"@openzeppelin/contracts/token/ERC20/ERC20.sol\":10349:10356  spender */\n      dup3\n        /* \"@openzeppelin/contracts/token/ERC20/ERC20.sol\":10333:10364  Approval(owner, spender, value) */\n      0xffffffffffffffffffffffffffffffffffffffff\n      and\n        /* \"@openzeppelin/contracts/token/ERC20/ERC20.sol\":10342:10347  owner */\n      dup5\n        /* \"@openzeppelin/contracts/token/ERC20/ERC20.sol\":10333:10364  Approval(owner, spender, value) */\n      0xffffffffffffffffffffffffffffffffffffffff\n      and\n      0x8c5be1e5ebec7d5bd14f71427d1e84f3dd0314c0f7b2291e5b200ac8c7c3b925\n        /* \"@openzeppelin/contracts/token/ERC20/ERC20.sol\":10358:10363  value */\n      dup5\n        /* \"@openzeppelin/contracts/token/ERC20/ERC20.sol\":10333:10364  Approval(owner, spender, value) */\n      mload(0x40)\n      tag_226\n      swap2\n      swap1\n      tag_35\n      jump\t// in\n    tag_226:\n      mload(0x40)\n      dup1\n      swap2\n      sub\n      swap1\n      log3\n        /* \"@openzeppelin/contracts/token/ERC20/ERC20.sol\":10299:10375  if (emitEvent) {... */\n    tag_225:\n        /* \"@openzeppelin/contracts/token/ERC20/ERC20.sol\":9949:10381  function _approve(address owner, address spender, uint256 value, bool emitEvent) internal virtual {... */\n      pop\n      pop\n      pop\n      pop\n      jump\t// out\n        /* \"@openzeppelin/contracts/token/ERC20/ERC20.sol\":6271:7378  function _update(address from, address to, uint256 value) internal virtual {... */\n    tag_206:\n        /* \"@openzeppelin/contracts/token/ERC20/ERC20.sol\":6376:6377  0 */\n      0x00\n        /* \"@openzeppelin/contracts/token/ERC20/ERC20.sol\":6360:6378  from == address(0) */\n      0xffffffffffffffffffffffffffffffffffffffff\n      and\n        /* \"@openzeppelin/contracts/token/ERC20/ERC20.sol\":6360:6364  from */\n      dup4\n        /* \"@openzeppelin/contracts/token/ERC20/ERC20.sol\":6360:6378  from == address(0) */\n      0xffffffffffffffffffffffffffffffffffffffff\n      and\n      sub\n        /* \"@openzeppelin/contracts/token/ERC20/ERC20.sol\":6356:6896  if (from == address(0)) {... */\n      tag_228\n      jumpi\n        /* \"@openzeppelin/contracts/token/ERC20/ERC20.sol\":6512:6517  value */\n      dup1\n        /* \"@openzeppelin/contracts/token/ERC20/ERC20.sol\":6496:6508  _totalSupply */\n      0x02\n      0x00\n        /* \"@openzeppelin/contracts/token/ERC20/ERC20.sol\":6496:6517  _totalSupply += value */\n      dup3\n      dup3\n      sload\n      tag_229\n      swap2\n      swap1\n      tag_143\n      jump\t// in\n    tag_229:\n      swap3\n      pop\n      pop\n      dup2\n      swap1\n      sstore\n      pop\n        /* \"@openzeppelin/contracts/token/ERC20/ERC20.sol\":6356:6896  if (from == address(0)) {... */\n      jump(tag_230)\n    tag_228:\n        /* \"@openzeppelin/contracts/token/ERC20/ERC20.sol\":6548:6567  uint256 fromBalance */\n      0x00\n        /* \"@openzeppelin/contracts/token/ERC20/ERC20.sol\":6570:6579  _balances */\n      dup1\n        /* \"@openzeppelin/contracts/token/ERC20/ERC20.sol\":6570:6585  _balances[from] */\n      0x00\n        /* \"@openzeppelin/contracts/token/ERC20/ERC20.sol\":6580:6584  from */\n      dup6\n        /* \"@openzeppelin/contracts/token/ERC20/ERC20.sol\":6570:6585  _balances[from] */\n      0xffffffffffffffffffffffffffffffffffffffff\n      and\n      0xffffffffffffffffffffffffffffffffffffffff\n      and\n      dup2\n      mstore\n      0x20\n      add\n      swap1\n      dup2\n      mstore\n      0x20\n      add\n      0x00\n      keccak256\n      sload\n        /* \"@openzeppelin/contracts/token/ERC20/ERC20.sol\":6548:6585  uint256 fromBalance = _balances[from] */\n      swap1\n      pop\n        /* \"@openzeppelin/contracts/token/ERC20/ERC20.sol\":6617:6622  value */\n      dup2\n        /* \"@openzeppelin/contracts/token/ERC20/ERC20.sol\":6603:6614  fromBalance */\n      dup2\n        /* \"@openzeppelin/contracts/token/ERC20/ERC20.sol\":6603:6622  fromBalance < value */\n      lt\n        /* \"@openzeppelin/contracts/token/ERC20/ERC20.sol\":6599:6714  if (fromBalance < value) {... */\n      iszero\n      tag_231\n      jumpi\n        /* \"@openzeppelin/contracts/token/ERC20/ERC20.sol\":6674:6678  from */\n      dup4\n        /* \"@openzeppelin/contracts/token/ERC20/ERC20.sol\":6680:6691  fromBalance */\n      dup2\n        /* \"@openzeppelin/contracts/token/ERC20/ERC20.sol\":6693:6698  value */\n      dup4\n        /* \"@openzeppelin/contracts/token/ERC20/ERC20.sol\":6649:6699  ERC20InsufficientBalance(from, fromBalance, value) */\n      mload(0x40)\n      0xe450d38c00000000000000000000000000000000000000000000000000000000\n      dup2\n      mstore\n      0x04\n      add\n      tag_232\n      swap4\n      swap3\n      swap2\n      swap1\n      tag_197\n      jump\t// in\n    tag_232:\n      mload(0x40)\n      dup1\n      swap2\n      sub\n      swap1\n      revert\n        /* \"@openzeppelin/contracts/token/ERC20/ERC20.sol\":6599:6714  if (fromBalance < value) {... */\n    tag_231:\n        /* \"@openzeppelin/contracts/token/ERC20/ERC20.sol\":6866:6871  value */\n      dup2\n        /* \"@openzeppelin/contracts/token/ERC20/ERC20.sol\":6852:6863  fromBalance */\n      dup2\n        /* \"@openzeppelin/contracts/token/ERC20/ERC20.sol\":6852:6871  fromBalance - value */\n      sub\n        /* \"@openzeppelin/contracts/token/ERC20/ERC20.sol\":6834:6843  _balances */\n      0x00\n        /* \"@openzeppelin/contracts/token/ERC20/ERC20.sol\":6834:6849  _balances[from] */\n      dup1\n        /* \"@openzeppelin/contracts/token/ERC20/ERC20.sol\":6844:6848  from */\n      dup7\n        /* \"@openzeppelin/contracts/token/ERC20/ERC20.sol\":6834:6849  _balances[from] */\n      0xffffffffffffffffffffffffffffffffffffffff\n      and\n      0xffffffffffffffffffffffffffffffffffffffff\n      and\n      dup2\n      mstore\n      0x20\n      add\n      swap1\n      dup2\n      mstore\n      0x20\n      add\n      0x00\n      keccak256\n        /* \"@openzeppelin/contracts/token/ERC20/ERC20.sol\":6834:6871  _balances[from] = fromBalance - value */\n      dup2\n      swap1\n      sstore\n      pop\n        /* \"@openzeppelin/contracts/token/ERC20/ERC20.sol\":6534:6896  {... */\n      pop\n        /* \"@openzeppelin/contracts/token/ERC20/ERC20.sol\":6356:6896  if (from == address(0)) {... */\n    tag_230:\n        /* \"@openzeppelin/contracts/token/ERC20/ERC20.sol\":6924:6925  0 */\n      0x00\n        /* \"@openzeppelin/contracts/token/ERC20/ERC20.sol\":6910:6926  to == address(0) */\n      0xffffffffffffffffffffffffffffffffffffffff\n      and\n        /* \"@openzeppelin/contracts/token/ERC20/ERC20.sol\":6910:6912  to */\n      dup3\n        /* \"@openzeppelin/contracts/token/ERC20/ERC20.sol\":6910:6926  to == address(0) */\n      0xffffffffffffffffffffffffffffffffffffffff\n      and\n      sub\n        /* \"@openzeppelin/contracts/token/ERC20/ERC20.sol\":6906:7331  if (to == address(0)) {... */\n      tag_233\n      jumpi\n        /* \"@openzeppelin/contracts/token/ERC20/ERC20.sol\":7089:7094  value */\n      dup1\n        /* \"@openzeppelin/contracts/token/ERC20/ERC20.sol\":7073:7085  _totalSupply */\n      0x02\n      0x00\n        /* \"@openzeppelin/contracts/token/ERC20/ERC20.sol\":7073:7094  _totalSupply -= value */\n      dup3\n      dup3\n      sload\n      sub\n      swap3\n      pop\n      pop\n      dup2\n      swap1\n      sstore\n      pop\n        /* \"@openzeppelin/contracts/token/ERC20/ERC20.sol\":6906:7331  if (to == address(0)) {... */\n      jump(tag_234)\n    tag_233:\n        /* \"@openzeppelin/contracts/token/ERC20/ERC20.sol\":7301:7306  value */\n      dup1\n        /* \"@openzeppelin/contracts/token/ERC20/ERC20.sol\":7284:7293  _balances */\n      0x00\n        /* \"@openzeppelin/contracts/token/ERC20/ERC20.sol\":7284:7297  _balances[to] */\n      dup1\n        /* \"@openzeppelin/contracts/token/ERC20/ERC20.sol\":7294:7296  to */\n      dup5\n        /* \"@openzeppelin/contracts/token/ERC20/ERC20.sol\":7284:7297  _balances[to] */\n      0xffffffffffffffffffffffffffffffffffffffff\n      and\n      0xffffffffffffffffffffffffffffffffffffffff\n      and\n      dup2\n      mstore\n      0x20\n      add\n      swap1\n      dup2\n      mstore\n      0x20\n      add\n      0x00\n      keccak256\n      0x00\n        /* \"@openzeppelin/contracts/token/ERC20/ERC20.sol\":7284:7306  _balances[to] += value */\n      dup3\n      dup3\n      sload\n      add\n      swap3\n      pop\n      pop\n      dup2\n      swap1\n      sstore\n      pop\n        /* \"@openzeppelin/contracts/token/ERC20/ERC20.sol\":6906:7331  if (to == address(0)) {... */\n    tag_234:\n        /* \"@openzeppelin/contracts/token/ERC20/ERC20.sol\":7361:7363  to */\n      dup2\n        /* \"@openzeppelin/contracts/token/ERC20/ERC20.sol\":7346:7371  Transfer(from, to, value) */\n      0xffffffffffffffffffffffffffffffffffffffff\n      and\n        /* \"@openzeppelin/contracts/token/ERC20/ERC20.sol\":7355:7359  from */\n      dup4\n        /* \"@openzeppelin/contracts/token/ERC20/ERC20.sol\":7346:7371  Transfer(from, to, value) */\n      0xffffffffffffffffffffffffffffffffffffffff\n      and\n      0xddf252ad1be2c89b69c2b068fc378daa952ba7f163c4a11628f55a4df523b3ef\n        /* \"@openzeppelin/contracts/token/ERC20/ERC20.sol\":7365:7370  value */\n      dup4\n        /* \"@openzeppelin/contracts/token/ERC20/ERC20.sol\":7346:7371  Transfer(from, to, value) */\n      mload(0x40)\n      tag_235\n      swap2\n      swap1\n      tag_35\n      jump\t// in\n    tag_235:\n      mload(0x40)\n      dup1\n      swap2\n      sub\n      swap1\n      log3\n        /* \"@openzeppelin/contracts/token/ERC20/ERC20.sol\":6271:7378  function _update(address from, address to, uint256 value) internal virtual {... */\n      pop\n      pop\n      pop\n      jump\t// out\n        /* \"@openzeppelin/contracts/utils/structs/EnumerableSet.sol\":4264:4393  function _contains(Set storage set, bytes32 value) private view returns (bool) {... */\n    tag_213:\n        /* \"@openzeppelin/contracts/utils/structs/EnumerableSet.sol\":4337:4341  bool */\n      0x00\n        /* \"@openzeppelin/contracts/utils/structs/EnumerableSet.sol\":4385:4386  0 */\n      dup1\n        /* \"@openzeppelin/contracts/utils/structs/EnumerableSet.sol\":4360:4363  set */\n      dup4\n        /* \"@openzeppelin/contracts/utils/structs/EnumerableSet.sol\":4360:4374  set._positions */\n      0x01\n      add\n        /* \"@openzeppelin/contracts/utils/structs/EnumerableSet.sol\":4360:4381  set._positions[value] */\n      0x00\n        /* \"@openzeppelin/contracts/utils/structs/EnumerableSet.sol\":4375:4380  value */\n      dup5\n        /* \"@openzeppelin/contracts/utils/structs/EnumerableSet.sol\":4360:4381  set._positions[value] */\n      dup2\n      mstore\n      0x20\n      add\n      swap1\n      dup2\n      mstore\n      0x20\n      add\n      0x00\n      keccak256\n      sload\n        /* \"@openzeppelin/contracts/utils/structs/EnumerableSet.sol\":4360:4386  set._positions[value] != 0 */\n      eq\n      iszero\n        /* \"@openzeppelin/contracts/utils/structs/EnumerableSet.sol\":4353:4386  return set._positions[value] != 0 */\n      swap1\n      pop\n        /* \"@openzeppelin/contracts/utils/structs/EnumerableSet.sol\":4264:4393  function _contains(Set storage set, bytes32 value) private view returns (bool) {... */\n      swap3\n      swap2\n      pop\n      pop\n      jump\t// out\n        /* \"@openzeppelin/contracts/utils/structs/EnumerableSet.sol\":2241:2647  function _add(Set storage set, bytes32 value) private returns (bool) {... */\n    tag_216:\n        /* \"@openzeppelin/contracts/utils/structs/EnumerableSet.sol\":2304:2308  bool */\n      0x00\n        /* \"@openzeppelin/contracts/utils/structs/EnumerableSet.sol\":2325:2346  _contains(set, value) */\n      tag_238\n        /* \"@openzeppelin/contracts/utils/structs/EnumerableSet.sol\":2335:2338  set */\n      dup4\n        /* \"@openzeppelin/contracts/utils/structs/EnumerableSet.sol\":2340:2345  value */\n      dup4\n        /* \"@openzeppelin/contracts/utils/structs/EnumerableSet.sol\":2325:2334  _contains */\n      tag_213\n        /* \"@openzeppelin/contracts/utils/structs/EnumerableSet.sol\":2325:2346  _contains(set, value) */\n      jump\t// in\n    tag_238:\n        /* \"@openzeppelin/contracts/utils/structs/EnumerableSet.sol\":2320:2641  if (!_contains(set, value)) {... */\n      tag_239\n      jumpi\n        /* \"@openzeppelin/contracts/utils/structs/EnumerableSet.sol\":2362:2365  set */\n      dup3\n        /* \"@openzeppelin/contracts/utils/structs/EnumerableSet.sol\":2362:2373  set._values */\n      0x00\n      add\n        /* \"@openzeppelin/contracts/utils/structs/EnumerableSet.sol\":2379:2384  value */\n      dup3\n        /* \"@openzeppelin/contracts/utils/structs/EnumerableSet.sol\":2362:2385  set._values.push(value) */\n      swap1\n      dup1\n      0x01\n      dup2\n      sload\n      add\n      dup1\n      dup3\n      sstore\n      dup1\n      swap2\n      pop\n      pop\n      0x01\n      swap1\n      sub\n      swap1\n      0x00\n      mstore\n      keccak256(0x00, 0x20)\n      add\n      0x00\n      swap1\n      swap2\n      swap1\n      swap2\n      swap1\n      swap2\n      pop\n      sstore\n        /* \"@openzeppelin/contracts/utils/structs/EnumerableSet.sol\":2544:2547  set */\n      dup3\n        /* \"@openzeppelin/contracts/utils/structs/EnumerableSet.sol\":2544:2555  set._values */\n      0x00\n      add\n        /* \"@openzeppelin/contracts/utils/structs/EnumerableSet.sol\":2544:2562  set._values.length */\n      dup1\n      sload\n      swap1\n      pop\n        /* \"@openzeppelin/contracts/utils/structs/EnumerableSet.sol\":2520:2523  set */\n      dup4\n        /* \"@openzeppelin/contracts/utils/structs/EnumerableSet.sol\":2520:2534  set._positions */\n      0x01\n      add\n        /* \"@openzeppelin/contracts/utils/structs/EnumerableSet.sol\":2520:2541  set._positions[value] */\n      0x00\n        /* \"@openzeppelin/contracts/utils/structs/EnumerableSet.sol\":2535:2540  value */\n      dup5\n        /* \"@openzeppelin/contracts/utils/structs/EnumerableSet.sol\":2520:2541  set._positions[value] */\n      dup2\n      mstore\n      0x20\n      add\n      swap1\n      dup2\n      mstore\n      0x20\n      add\n      0x00\n      keccak256\n        /* \"@openzeppelin/contracts/utils/structs/EnumerableSet.sol\":2520:2562  set._positions[value] = set._values.length */\n      dup2\n      swap1\n      sstore\n      pop\n        /* \"@openzeppelin/contracts/utils/structs/EnumerableSet.sol\":2583:2587  true */\n      0x01\n        /* \"@openzeppelin/contracts/utils/structs/EnumerableSet.sol\":2576:2587  return true */\n      swap1\n      pop\n      jump(tag_237)\n        /* \"@openzeppelin/contracts/utils/structs/EnumerableSet.sol\":2320:2641  if (!_contains(set, value)) {... */\n    tag_239:\n        /* \"@openzeppelin/contracts/utils/structs/EnumerableSet.sol\":2625:2630  false */\n      0x00\n        /* \"@openzeppelin/contracts/utils/structs/EnumerableSet.sol\":2618:2630  return false */\n      swap1\n      pop\n        /* \"@openzeppelin/contracts/utils/structs/EnumerableSet.sol\":2241:2647  function _add(Set storage set, bytes32 value) private returns (bool) {... */\n    tag_237:\n      swap3\n      swap2\n      pop\n      pop\n      jump\t// out\n        /* \"@openzeppelin/contracts/utils/structs/EnumerableSet.sol\":5581:5690  function _values(Set storage set) private view returns (bytes32[] memory) {... */\n    tag_219:\n        /* \"@openzeppelin/contracts/utils/structs/EnumerableSet.sol\":5637:5653  bytes32[] memory */\n      0x60\n        /* \"@openzeppelin/contracts/utils/structs/EnumerableSet.sol\":5672:5675  set */\n      dup2\n        /* \"@openzeppelin/contracts/utils/structs/EnumerableSet.sol\":5672:5683  set._values */\n      0x00\n      add\n        /* \"@openzeppelin/contracts/utils/structs/EnumerableSet.sol\":5665:5683  return set._values */\n      dup1\n      sload\n      dup1\n      0x20\n      mul\n      0x20\n      add\n      mload(0x40)\n      swap1\n      dup2\n      add\n      0x40\n      mstore\n      dup1\n      swap3\n      swap2\n      swap1\n      dup2\n      dup2\n      mstore\n      0x20\n      add\n      dup3\n      dup1\n      sload\n      dup1\n      iszero\n      tag_243\n      jumpi\n      0x20\n      mul\n      dup3\n      add\n      swap2\n      swap1\n      0x00\n      mstore\n      keccak256(0x00, 0x20)\n      swap1\n    tag_244:\n      dup2\n      sload\n      dup2\n      mstore\n      0x20\n      add\n      swap1\n      0x01\n      add\n      swap1\n      dup1\n      dup4\n      gt\n      tag_244\n      jumpi\n    tag_243:\n      pop\n      pop\n      pop\n      pop\n      pop\n      swap1\n      pop\n        /* \"@openzeppelin/contracts/utils/structs/EnumerableSet.sol\":5581:5690  function _values(Set storage set) private view returns (bytes32[] memory) {... */\n      swap2\n      swap1\n      pop\n      jump\t// out\n    tag_172:\n      mload(0x40)\n      dup1\n      0x0120\n      add\n      0x40\n      mstore\n      dup1\n      0x60\n      dup2\n      mstore\n      0x20\n      add\n      0x60\n      dup2\n      mstore\n      0x20\n      add\n      0x00\n      dup2\n      mstore\n      0x20\n      add\n      0x00\n      dup2\n      mstore\n      0x20\n      add\n      0x00\n      dup2\n      mstore\n      0x20\n      add\n      0x00\n      dup2\n      mstore\n      0x20\n      add\n      0x00\n      dup2\n      mstore\n      0x20\n      add\n      iszero(iszero(0x00))\n      dup2\n      mstore\n      0x20\n      add\n      iszero(iszero(0x00))\n      dup2\n      mstore\n      pop\n      swap1\n      jump\t// out\n        /* \"#utility.yul\":7:106   */\n    tag_245:\n        /* \"#utility.yul\":59:65   */\n      0x00\n        /* \"#utility.yul\":93:98   */\n      dup2\n        /* \"#utility.yul\":87:99   */\n      mload\n        /* \"#utility.yul\":77:99   */\n      swap1\n      pop\n        /* \"#utility.yul\":7:106   */\n      swap2\n      swap1\n      pop\n      jump\t// out\n        /* \"#utility.yul\":112:281   */\n    tag_246:\n        /* \"#utility.yul\":196:207   */\n      0x00\n        /* \"#utility.yul\":230:236   */\n      dup3\n        /* \"#utility.yul\":225:228   */\n      dup3\n        /* \"#utility.yul\":218:237   */\n      mstore\n        /* \"#utility.yul\":270:274   */\n      0x20\n        /* \"#utility.yul\":265:268   */\n      dup3\n        /* \"#utility.yul\":261:275   */\n      add\n        /* \"#utility.yul\":246:275   */\n      swap1\n      pop\n        /* \"#utility.yul\":112:281   */\n      swap3\n      swap2\n      pop\n      pop\n      jump\t// out\n        /* \"#utility.yul\":287:426   */\n    tag_247:\n        /* \"#utility.yul\":376:382   */\n      dup3\n        /* \"#utility.yul\":371:374   */\n      dup2\n        /* \"#utility.yul\":366:369   */\n      dup4\n        /* \"#utility.yul\":360:383   */\n      mcopy\n        /* \"#utility.yul\":417:418   */\n      0x00\n        /* \"#utility.yul\":408:414   */\n      dup4\n        /* \"#utility.yul\":403:406   */\n      dup4\n        /* \"#utility.yul\":399:415   */\n      add\n        /* \"#utility.yul\":392:419   */\n      mstore\n        /* \"#utility.yul\":287:426   */\n      pop\n      pop\n      pop\n      jump\t// out\n        /* \"#utility.yul\":432:534   */\n    tag_248:\n        /* \"#utility.yul\":473:479   */\n      0x00\n        /* \"#utility.yul\":524:526   */\n      0x1f\n        /* \"#utility.yul\":520:527   */\n      not\n        /* \"#utility.yul\":515:517   */\n      0x1f\n        /* \"#utility.yul\":508:513   */\n      dup4\n        /* \"#utility.yul\":504:518   */\n      add\n        /* \"#utility.yul\":500:528   */\n      and\n        /* \"#utility.yul\":490:528   */\n      swap1\n      pop\n        /* \"#utility.yul\":432:534   */\n      swap2\n      swap1\n      pop\n      jump\t// out\n        /* \"#utility.yul\":540:917   */\n    tag_249:\n        /* \"#utility.yul\":628:631   */\n      0x00\n        /* \"#utility.yul\":656:695   */\n      tag_309\n        /* \"#utility.yul\":689:694   */\n      dup3\n        /* \"#utility.yul\":656:695   */\n      tag_245\n      jump\t// in\n    tag_309:\n        /* \"#utility.yul\":711:782   */\n      tag_310\n        /* \"#utility.yul\":775:781   */\n      dup2\n        /* \"#utility.yul\":770:773   */\n      dup6\n        /* \"#utility.yul\":711:782   */\n      tag_246\n      jump\t// in\n    tag_310:\n        /* \"#utility.yul\":704:782   */\n      swap4\n      pop\n        /* \"#utility.yul\":791:856   */\n      tag_311\n        /* \"#utility.yul\":849:855   */\n      dup2\n        /* \"#utility.yul\":844:847   */\n      dup6\n        /* \"#utility.yul\":837:841   */\n      0x20\n        /* \"#utility.yul\":830:835   */\n      dup7\n        /* \"#utility.yul\":826:842   */\n      add\n        /* \"#utility.yul\":791:856   */\n      tag_247\n      jump\t// in\n    tag_311:\n        /* \"#utility.yul\":881:910   */\n      tag_312\n        /* \"#utility.yul\":903:909   */\n      dup2\n        /* \"#utility.yul\":881:910   */\n      tag_248\n      jump\t// in\n    tag_312:\n        /* \"#utility.yul\":876:879   */\n      dup5\n        /* \"#utility.yul\":872:911   */\n      add\n        /* \"#utility.yul\":865:911   */\n      swap2\n      pop\n        /* \"#utility.yul\":632:917   */\n      pop\n        /* \"#utility.yul\":540:917   */\n      swap3\n      swap2\n      pop\n      pop\n      jump\t// out\n        /* \"#utility.yul\":923:1236   */\n    tag_25:\n        /* \"#utility.yul\":1036:1040   */\n      0x00\n        /* \"#utility.yul\":1074:1076   */\n      0x20\n        /* \"#utility.yul\":1063:1072   */\n      dup3\n        /* \"#utility.yul\":1059:1077   */\n      add\n        /* \"#utility.yul\":1051:1077   */\n      swap1\n      pop\n        /* \"#utility.yul\":1123:1132   */\n      dup2\n        /* \"#utility.yul\":1117:1121   */\n      dup2\n        /* \"#utility.yul\":1113:1133   */\n      sub\n        /* \"#utility.yul\":1109:1110   */\n      0x00\n        /* \"#utility.yul\":1098:1107   */\n      dup4\n        /* \"#utility.yul\":1094:1111   */\n      add\n        /* \"#utility.yul\":1087:1134   */\n      mstore\n        /* \"#utility.yul\":1151:1229   */\n      tag_314\n        /* \"#utility.yul\":1224:1228   */\n      dup2\n        /* \"#utility.yul\":1215:1221   */\n      dup5\n        /* \"#utility.yul\":1151:1229   */\n      tag_249\n      jump\t// in\n    tag_314:\n        /* \"#utility.yul\":1143:1229   */\n      swap1\n      pop\n        /* \"#utility.yul\":923:1236   */\n      swap3\n      swap2\n      pop\n      pop\n      jump\t// out\n        /* \"#utility.yul\":1323:1440   */\n    tag_251:\n        /* \"#utility.yul\":1432:1433   */\n      0x00\n        /* \"#utility.yul\":1429:1430   */\n      dup1\n        /* \"#utility.yul\":1422:1434   */\n      revert\n        /* \"#utility.yul\":1446:1563   */\n    tag_252:\n        /* \"#utility.yul\":1555:1556   */\n      0x00\n        /* \"#utility.yul\":1552:1553   */\n      dup1\n        /* \"#utility.yul\":1545:1557   */\n      revert\n        /* \"#utility.yul\":1569:1695   */\n    tag_253:\n        /* \"#utility.yul\":1606:1613   */\n      0x00\n        /* \"#utility.yul\":1646:1688   */\n      0xffffffffffffffffffffffffffffffffffffffff\n        /* \"#utility.yul\":1639:1644   */\n      dup3\n        /* \"#utility.yul\":1635:1689   */\n      and\n        /* \"#utility.yul\":1624:1689   */\n      swap1\n      pop\n        /* \"#utility.yul\":1569:1695   */\n      swap2\n      swap1\n      pop\n      jump\t// out\n        /* \"#utility.yul\":1701:1797   */\n    tag_254:\n        /* \"#utility.yul\":1738:1745   */\n      0x00\n        /* \"#utility.yul\":1767:1791   */\n      tag_320\n        /* \"#utility.yul\":1785:1790   */\n      dup3\n        /* \"#utility.yul\":1767:1791   */\n      tag_253\n      jump\t// in\n    tag_320:\n        /* \"#utility.yul\":1756:1791   */\n      swap1\n      pop\n        /* \"#utility.yul\":1701:1797   */\n      swap2\n      swap1\n      pop\n      jump\t// out\n        /* \"#utility.yul\":1803:1925   */\n    tag_255:\n        /* \"#utility.yul\":1876:1900   */\n      tag_322\n        /* \"#utility.yul\":1894:1899   */\n      dup2\n        /* \"#utility.yul\":1876:1900   */\n      tag_254\n      jump\t// in\n    tag_322:\n        /* \"#utility.yul\":1869:1874   */\n      dup2\n        /* \"#utility.yul\":1866:1901   */\n      eq\n        /* \"#utility.yul\":1856:1919   */\n      tag_323\n      jumpi\n        /* \"#utility.yul\":1915:1916   */\n      0x00\n        /* \"#utility.yul\":1912:1913   */\n      dup1\n        /* \"#utility.yul\":1905:1917   */\n      revert\n        /* \"#utility.yul\":1856:1919   */\n    tag_323:\n        /* \"#utility.yul\":1803:1925   */\n      pop\n      jump\t// out\n        /* \"#utility.yul\":1931:2070   */\n    tag_256:\n        /* \"#utility.yul\":1977:1982   */\n      0x00\n        /* \"#utility.yul\":2015:2021   */\n      dup2\n        /* \"#utility.yul\":2002:2022   */\n      calldataload\n        /* \"#utility.yul\":1993:2022   */\n      swap1\n      pop\n        /* \"#utility.yul\":2031:2064   */\n      tag_325\n        /* \"#utility.yul\":2058:2063   */\n      dup2\n        /* \"#utility.yul\":2031:2064   */\n      tag_255\n      jump\t// in\n    tag_325:\n        /* \"#utility.yul\":1931:2070   */\n      swap3\n      swap2\n      pop\n      pop\n      jump\t// out\n        /* \"#utility.yul\":2076:2153   */\n    tag_257:\n        /* \"#utility.yul\":2113:2120   */\n      0x00\n        /* \"#utility.yul\":2142:2147   */\n      dup2\n        /* \"#utility.yul\":2131:2147   */\n      swap1\n      pop\n        /* \"#utility.yul\":2076:2153   */\n      swap2\n      swap1\n      pop\n      jump\t// out\n        /* \"#utility.yul\":2159:2281   */\n    tag_258:\n        /* \"#utility.yul\":2232:2256   */\n      tag_328\n        /* \"#utility.yul\":2250:2255   */\n      dup2\n        /* \"#utility.yul\":2232:2256   */\n      tag_257\n      jump\t// in\n    tag_328:\n        /* \"#utility.yul\":2225:2230   */\n      dup2\n        /* \"#utility.yul\":2222:2257   */\n      eq\n        /* \"#utility.yul\":2212:2275   */\n      tag_329\n      jumpi\n        /* \"#utility.yul\":2271:2272   */\n      0x00\n        /* \"#utility.yul\":2268:2269   */\n      dup1\n        /* \"#utility.yul\":2261:2273   */\n      revert\n        /* \"#utility.yul\":2212:2275   */\n    tag_329:\n        /* \"#utility.yul\":2159:2281   */\n      pop\n      jump\t// out\n        /* \"#utility.yul\":2287:2426   */\n    tag_259:\n        /* \"#utility.yul\":2333:2338   */\n      0x00\n        /* \"#utility.yul\":2371:2377   */\n      dup2\n        /* \"#utility.yul\":2358:2378   */\n      calldataload\n        /* \"#utility.yul\":2349:2378   */\n      swap1\n      pop\n        /* \"#utility.yul\":2387:2420   */\n      tag_331\n        /* \"#utility.yul\":2414:2419   */\n      dup2\n        /* \"#utility.yul\":2387:2420   */\n      tag_258\n      jump\t// in\n    tag_331:\n        /* \"#utility.yul\":2287:2426   */\n      swap3\n      swap2\n      pop\n      pop\n      jump\t// out\n        /* \"#utility.yul\":2432:2906   */\n    tag_28:\n        /* \"#utility.yul\":2500:2506   */\n      0x00\n        /* \"#utility.yul\":2508:2514   */\n      dup1\n        /* \"#utility.yul\":2557:2559   */\n      0x40\n        /* \"#utility.yul\":2545:2554   */\n      dup4\n        /* \"#utility.yul\":2536:2543   */\n      dup6\n        /* \"#utility.yul\":2532:2555   */\n      sub\n        /* \"#utility.yul\":2528:2560   */\n      slt\n        /* \"#utility.yul\":2525:2644   */\n      iszero\n      tag_333\n      jumpi\n        /* \"#utility.yul\":2563:2642   */\n      tag_334\n      tag_251\n      jump\t// in\n    tag_334:\n        /* \"#utility.yul\":2525:2644   */\n    tag_333:\n        /* \"#utility.yul\":2683:2684   */\n      0x00\n        /* \"#utility.yul\":2708:2761   */\n      tag_335\n        /* \"#utility.yul\":2753:2760   */\n      dup6\n        /* \"#utility.yul\":2744:2750   */\n      dup3\n        /* \"#utility.yul\":2733:2742   */\n      dup7\n        /* \"#utility.yul\":2729:2751   */\n      add\n        /* \"#utility.yul\":2708:2761   */\n      tag_256\n      jump\t// in\n    tag_335:\n        /* \"#utility.yul\":2698:2761   */\n      swap3\n      pop\n        /* \"#utility.yul\":2654:2771   */\n      pop\n        /* \"#utility.yul\":2810:2812   */\n      0x20\n        /* \"#utility.yul\":2836:2889   */\n      tag_336\n        /* \"#utility.yul\":2881:2888   */\n      dup6\n        /* \"#utility.yul\":2872:2878   */\n      dup3\n        /* \"#utility.yul\":2861:2870   */\n      dup7\n        /* \"#utility.yul\":2857:2879   */\n      add\n        /* \"#utility.yul\":2836:2889   */\n      tag_259\n      jump\t// in\n    tag_336:\n        /* \"#utility.yul\":2826:2889   */\n      swap2\n      pop\n        /* \"#utility.yul\":2781:2899   */\n      pop\n        /* \"#utility.yul\":2432:2906   */\n      swap3\n      pop\n      swap3\n      swap1\n      pop\n      jump\t// out\n        /* \"#utility.yul\":2912:3002   */\n    tag_260:\n        /* \"#utility.yul\":2946:2953   */\n      0x00\n        /* \"#utility.yul\":2989:2994   */\n      dup2\n        /* \"#utility.yul\":2982:2995   */\n      iszero\n        /* \"#utility.yul\":2975:2996   */\n      iszero\n        /* \"#utility.yul\":2964:2996   */\n      swap1\n      pop\n        /* \"#utility.yul\":2912:3002   */\n      swap2\n      swap1\n      pop\n      jump\t// out\n        /* \"#utility.yul\":3008:3117   */\n    tag_261:\n        /* \"#utility.yul\":3089:3110   */\n      tag_339\n        /* \"#utility.yul\":3104:3109   */\n      dup2\n        /* \"#utility.yul\":3089:3110   */\n      tag_260\n      jump\t// in\n    tag_339:\n        /* \"#utility.yul\":3084:3087   */\n      dup3\n        /* \"#utility.yul\":3077:3111   */\n      mstore\n        /* \"#utility.yul\":3008:3117   */\n      pop\n      pop\n      jump\t// out\n        /* \"#utility.yul\":3123:3333   */\n    tag_31:\n        /* \"#utility.yul\":3210:3214   */\n      0x00\n        /* \"#utility.yul\":3248:3250   */\n      0x20\n        /* \"#utility.yul\":3237:3246   */\n      dup3\n        /* \"#utility.yul\":3233:3251   */\n      add\n        /* \"#utility.yul\":3225:3251   */\n      swap1\n      pop\n        /* \"#utility.yul\":3261:3326   */\n      tag_341\n        /* \"#utility.yul\":3323:3324   */\n      0x00\n        /* \"#utility.yul\":3312:3321   */\n      dup4\n        /* \"#utility.yul\":3308:3325   */\n      add\n        /* \"#utility.yul\":3299:3305   */\n      dup5\n        /* \"#utility.yul\":3261:3326   */\n      tag_261\n      jump\t// in\n    tag_341:\n        /* \"#utility.yul\":3123:3333   */\n      swap3\n      swap2\n      pop\n      pop\n      jump\t// out\n        /* \"#utility.yul\":3339:3457   */\n    tag_262:\n        /* \"#utility.yul\":3426:3450   */\n      tag_343\n        /* \"#utility.yul\":3444:3449   */\n      dup2\n        /* \"#utility.yul\":3426:3450   */\n      tag_257\n      jump\t// in\n    tag_343:\n        /* \"#utility.yul\":3421:3424   */\n      dup3\n        /* \"#utility.yul\":3414:3451   */\n      mstore\n        /* \"#utility.yul\":3339:3457   */\n      pop\n      pop\n      jump\t// out\n        /* \"#utility.yul\":3463:3685   */\n    tag_35:\n        /* \"#utility.yul\":3556:3560   */\n      0x00\n        /* \"#utility.yul\":3594:3596   */\n      0x20\n        /* \"#utility.yul\":3583:3592   */\n      dup3\n        /* \"#utility.yul\":3579:3597   */\n      add\n        /* \"#utility.yul\":3571:3597   */\n      swap1\n      pop\n        /* \"#utility.yul\":3607:3678   */\n      tag_345\n        /* \"#utility.yul\":3675:3676   */\n      0x00\n        /* \"#utility.yul\":3664:3673   */\n      dup4\n        /* \"#utility.yul\":3660:3677   */\n      add\n        /* \"#utility.yul\":3651:3657   */\n      dup5\n        /* \"#utility.yul\":3607:3678   */\n      tag_262\n      jump\t// in\n    tag_345:\n        /* \"#utility.yul\":3463:3685   */\n      swap3\n      swap2\n      pop\n      pop\n      jump\t// out\n        /* \"#utility.yul\":3691:4310   */\n    tag_38:\n        /* \"#utility.yul\":3768:3774   */\n      0x00\n        /* \"#utility.yul\":3776:3782   */\n      dup1\n        /* \"#utility.yul\":3784:3790   */\n      0x00\n        /* \"#utility.yul\":3833:3835   */\n      0x60\n        /* \"#utility.yul\":3821:3830   */\n      dup5\n        /* \"#utility.yul\":3812:3819   */\n      dup7\n        /* \"#utility.yul\":3808:3831   */\n      sub\n        /* \"#utility.yul\":3804:3836   */\n      slt\n        /* \"#utility.yul\":3801:3920   */\n      iszero\n      tag_347\n      jumpi\n        /* \"#utility.yul\":3839:3918   */\n      tag_348\n      tag_251\n      jump\t// in\n    tag_348:\n        /* \"#utility.yul\":3801:3920   */\n    tag_347:\n        /* \"#utility.yul\":3959:3960   */\n      0x00\n        /* \"#utility.yul\":3984:4037   */\n      tag_349\n        /* \"#utility.yul\":4029:4036   */\n      dup7\n        /* \"#utility.yul\":4020:4026   */\n      dup3\n        /* \"#utility.yul\":4009:4018   */\n      dup8\n        /* \"#utility.yul\":4005:4027   */\n      add\n        /* \"#utility.yul\":3984:4037   */\n      tag_256\n      jump\t// in\n    tag_349:\n        /* \"#utility.yul\":3974:4037   */\n      swap4\n      pop\n        /* \"#utility.yul\":3930:4047   */\n      pop\n        /* \"#utility.yul\":4086:4088   */\n      0x20\n        /* \"#utility.yul\":4112:4165   */\n      tag_350\n        /* \"#utility.yul\":4157:4164   */\n      dup7\n        /* \"#utility.yul\":4148:4154   */\n      dup3\n        /* \"#utility.yul\":4137:4146   */\n      dup8\n        /* \"#utility.yul\":4133:4155   */\n      add\n        /* \"#utility.yul\":4112:4165   */\n      tag_256\n      jump\t// in\n    tag_350:\n        /* \"#utility.yul\":4102:4165   */\n      swap3\n      pop\n        /* \"#utility.yul\":4057:4175   */\n      pop\n        /* \"#utility.yul\":4214:4216   */\n      0x40\n        /* \"#utility.yul\":4240:4293   */\n      tag_351\n        /* \"#utility.yul\":4285:4292   */\n      dup7\n        /* \"#utility.yul\":4276:4282   */\n      dup3\n        /* \"#utility.yul\":4265:4274   */\n      dup8\n        /* \"#utility.yul\":4261:4283   */\n      add\n        /* \"#utility.yul\":4240:4293   */\n      tag_259\n      jump\t// in\n    tag_351:\n        /* \"#utility.yul\":4230:4293   */\n      swap2\n      pop\n        /* \"#utility.yul\":4185:4303   */\n      pop\n        /* \"#utility.yul\":3691:4310   */\n      swap3\n      pop\n      swap3\n      pop\n      swap3\n      jump\t// out\n        /* \"#utility.yul\":4316:4645   */\n    tag_43:\n        /* \"#utility.yul\":4375:4381   */\n      0x00\n        /* \"#utility.yul\":4424:4426   */\n      0x20\n        /* \"#utility.yul\":4412:4421   */\n      dup3\n        /* \"#utility.yul\":4403:4410   */\n      dup5\n        /* \"#utility.yul\":4399:4422   */\n      sub\n        /* \"#utility.yul\":4395:4427   */\n      slt\n        /* \"#utility.yul\":4392:4511   */\n      iszero\n      tag_353\n      jumpi\n        /* \"#utility.yul\":4430:4509   */\n      tag_354\n      tag_251\n      jump\t// in\n    tag_354:\n        /* \"#utility.yul\":4392:4511   */\n    tag_353:\n        /* \"#utility.yul\":4550:4551   */\n      0x00\n        /* \"#utility.yul\":4575:4628   */\n      tag_355\n        /* \"#utility.yul\":4620:4627   */\n      dup5\n        /* \"#utility.yul\":4611:4617   */\n      dup3\n        /* \"#utility.yul\":4600:4609   */\n      dup6\n        /* \"#utility.yul\":4596:4618   */\n      add\n        /* \"#utility.yul\":4575:4628   */\n      tag_256\n      jump\t// in\n    tag_355:\n        /* \"#utility.yul\":4565:4628   */\n      swap2\n      pop\n        /* \"#utility.yul\":4521:4638   */\n      pop\n        /* \"#utility.yul\":4316:4645   */\n      swap3\n      swap2\n      pop\n      pop\n      jump\t// out\n        /* \"#utility.yul\":4651:4737   */\n    tag_263:\n        /* \"#utility.yul\":4686:4693   */\n      0x00\n        /* \"#utility.yul\":4726:4730   */\n      0xff\n        /* \"#utility.yul\":4719:4724   */\n      dup3\n        /* \"#utility.yul\":4715:4731   */\n      and\n        /* \"#utility.yul\":4704:4731   */\n      swap1\n      pop\n        /* \"#utility.yul\":4651:4737   */\n      swap2\n      swap1\n      pop\n      jump\t// out\n        /* \"#utility.yul\":4743:4855   */\n    tag_264:\n        /* \"#utility.yul\":4826:4848   */\n      tag_358\n        /* \"#utility.yul\":4842:4847   */\n      dup2\n        /* \"#utility.yul\":4826:4848   */\n      tag_263\n      jump\t// in\n    tag_358:\n        /* \"#utility.yul\":4821:4824   */\n      dup3\n        /* \"#utility.yul\":4814:4849   */\n      mstore\n        /* \"#utility.yul\":4743:4855   */\n      pop\n      pop\n      jump\t// out\n        /* \"#utility.yul\":4861:5075   */\n    tag_49:\n        /* \"#utility.yul\":4950:4954   */\n      0x00\n        /* \"#utility.yul\":4988:4990   */\n      0x20\n        /* \"#utility.yul\":4977:4986   */\n      dup3\n        /* \"#utility.yul\":4973:4991   */\n      add\n        /* \"#utility.yul\":4965:4991   */\n      swap1\n      pop\n        /* \"#utility.yul\":5001:5068   */\n      tag_360\n        /* \"#utility.yul\":5065:5066   */\n      0x00\n        /* \"#utility.yul\":5054:5063   */\n      dup4\n        /* \"#utility.yul\":5050:5067   */\n      add\n        /* \"#utility.yul\":5041:5047   */\n      dup5\n        /* \"#utility.yul\":5001:5068   */\n      tag_264\n      jump\t// in\n    tag_360:\n        /* \"#utility.yul\":4861:5075   */\n      swap3\n      swap2\n      pop\n      pop\n      jump\t// out\n        /* \"#utility.yul\":5081:5198   */\n    tag_265:\n        /* \"#utility.yul\":5190:5191   */\n      0x00\n        /* \"#utility.yul\":5187:5188   */\n      dup1\n        /* \"#utility.yul\":5180:5192   */\n      revert\n        /* \"#utility.yul\":5204:5321   */\n    tag_266:\n        /* \"#utility.yul\":5313:5314   */\n      0x00\n        /* \"#utility.yul\":5310:5311   */\n      dup1\n        /* \"#utility.yul\":5303:5315   */\n      revert\n        /* \"#utility.yul\":5327:5444   */\n    tag_267:\n        /* \"#utility.yul\":5436:5437   */\n      0x00\n        /* \"#utility.yul\":5433:5434   */\n      dup1\n        /* \"#utility.yul\":5426:5438   */\n      revert\n        /* \"#utility.yul\":5464:6017   */\n    tag_268:\n        /* \"#utility.yul\":5522:5530   */\n      0x00\n        /* \"#utility.yul\":5532:5538   */\n      dup1\n        /* \"#utility.yul\":5582:5585   */\n      dup4\n        /* \"#utility.yul\":5575:5579   */\n      0x1f\n        /* \"#utility.yul\":5567:5573   */\n      dup5\n        /* \"#utility.yul\":5563:5580   */\n      add\n        /* \"#utility.yul\":5559:5586   */\n      slt\n        /* \"#utility.yul\":5549:5671   */\n      tag_365\n      jumpi\n        /* \"#utility.yul\":5590:5669   */\n      tag_366\n      tag_265\n      jump\t// in\n    tag_366:\n        /* \"#utility.yul\":5549:5671   */\n    tag_365:\n        /* \"#utility.yul\":5703:5709   */\n      dup3\n        /* \"#utility.yul\":5690:5710   */\n      calldataload\n        /* \"#utility.yul\":5680:5710   */\n      swap1\n      pop\n        /* \"#utility.yul\":5733:5751   */\n      0xffffffffffffffff\n        /* \"#utility.yul\":5725:5731   */\n      dup2\n        /* \"#utility.yul\":5722:5752   */\n      gt\n        /* \"#utility.yul\":5719:5836   */\n      iszero\n      tag_367\n      jumpi\n        /* \"#utility.yul\":5755:5834   */\n      tag_368\n      tag_266\n      jump\t// in\n    tag_368:\n        /* \"#utility.yul\":5719:5836   */\n    tag_367:\n        /* \"#utility.yul\":5869:5873   */\n      0x20\n        /* \"#utility.yul\":5861:5867   */\n      dup4\n        /* \"#utility.yul\":5857:5874   */\n      add\n        /* \"#utility.yul\":5845:5874   */\n      swap2\n      pop\n        /* \"#utility.yul\":5923:5926   */\n      dup4\n        /* \"#utility.yul\":5915:5919   */\n      0x01\n        /* \"#utility.yul\":5907:5913   */\n      dup3\n        /* \"#utility.yul\":5903:5920   */\n      mul\n        /* \"#utility.yul\":5893:5901   */\n      dup4\n        /* \"#utility.yul\":5889:5921   */\n      add\n        /* \"#utility.yul\":5886:5927   */\n      gt\n        /* \"#utility.yul\":5883:6011   */\n      iszero\n      tag_369\n      jumpi\n        /* \"#utility.yul\":5930:6009   */\n      tag_370\n      tag_267\n      jump\t// in\n    tag_370:\n        /* \"#utility.yul\":5883:6011   */\n    tag_369:\n        /* \"#utility.yul\":5464:6017   */\n      swap3\n      pop\n      swap3\n      swap1\n      pop\n      jump\t// out\n        /* \"#utility.yul\":6023:6697   */\n    tag_62:\n        /* \"#utility.yul\":6103:6109   */\n      0x00\n        /* \"#utility.yul\":6111:6117   */\n      dup1\n        /* \"#utility.yul\":6119:6125   */\n      0x00\n        /* \"#utility.yul\":6168:6170   */\n      0x40\n        /* \"#utility.yul\":6156:6165   */\n      dup5\n        /* \"#utility.yul\":6147:6154   */\n      dup7\n        /* \"#utility.yul\":6143:6166   */\n      sub\n        /* \"#utility.yul\":6139:6171   */\n      slt\n        /* \"#utility.yul\":6136:6255   */\n      iszero\n      tag_372\n      jumpi\n        /* \"#utility.yul\":6174:6253   */\n      tag_373\n      tag_251\n      jump\t// in\n    tag_373:\n        /* \"#utility.yul\":6136:6255   */\n    tag_372:\n        /* \"#utility.yul\":6322:6323   */\n      0x00\n        /* \"#utility.yul\":6311:6320   */\n      dup5\n        /* \"#utility.yul\":6307:6324   */\n      add\n        /* \"#utility.yul\":6294:6325   */\n      calldataload\n        /* \"#utility.yul\":6352:6370   */\n      0xffffffffffffffff\n        /* \"#utility.yul\":6344:6350   */\n      dup2\n        /* \"#utility.yul\":6341:6371   */\n      gt\n        /* \"#utility.yul\":6338:6455   */\n      iszero\n      tag_374\n      jumpi\n        /* \"#utility.yul\":6374:6453   */\n      tag_375\n      tag_252\n      jump\t// in\n    tag_375:\n        /* \"#utility.yul\":6338:6455   */\n    tag_374:\n        /* \"#utility.yul\":6487:6552   */\n      tag_376\n        /* \"#utility.yul\":6544:6551   */\n      dup7\n        /* \"#utility.yul\":6535:6541   */\n      dup3\n        /* \"#utility.yul\":6524:6533   */\n      dup8\n        /* \"#utility.yul\":6520:6542   */\n      add\n        /* \"#utility.yul\":6487:6552   */\n      tag_268\n      jump\t// in\n    tag_376:\n        /* \"#utility.yul\":6469:6552   */\n      swap4\n      pop\n      swap4\n      pop\n        /* \"#utility.yul\":6265:6562   */\n      pop\n        /* \"#utility.yul\":6601:6603   */\n      0x20\n        /* \"#utility.yul\":6627:6680   */\n      tag_377\n        /* \"#utility.yul\":6672:6679   */\n      dup7\n        /* \"#utility.yul\":6663:6669   */\n      dup3\n        /* \"#utility.yul\":6652:6661   */\n      dup8\n        /* \"#utility.yul\":6648:6670   */\n      add\n        /* \"#utility.yul\":6627:6680   */\n      tag_259\n      jump\t// in\n    tag_377:\n        /* \"#utility.yul\":6617:6680   */\n      swap2\n      pop\n        /* \"#utility.yul\":6572:6690   */\n      pop\n        /* \"#utility.yul\":6023:6697   */\n      swap3\n      pop\n      swap3\n      pop\n      swap3\n      jump\t// out\n        /* \"#utility.yul\":6703:6812   */\n    tag_269:\n        /* \"#utility.yul\":6786:6787   */\n      0x03\n        /* \"#utility.yul\":6779:6784   */\n      dup2\n        /* \"#utility.yul\":6776:6788   */\n      lt\n        /* \"#utility.yul\":6766:6806   */\n      tag_379\n      jumpi\n        /* \"#utility.yul\":6802:6803   */\n      0x00\n        /* \"#utility.yul\":6799:6800   */\n      dup1\n        /* \"#utility.yul\":6792:6804   */\n      revert\n        /* \"#utility.yul\":6766:6806   */\n    tag_379:\n        /* \"#utility.yul\":6703:6812   */\n      pop\n      jump\t// out\n        /* \"#utility.yul\":6818:6977   */\n    tag_270:\n        /* \"#utility.yul\":6874:6879   */\n      0x00\n        /* \"#utility.yul\":6912:6918   */\n      dup2\n        /* \"#utility.yul\":6899:6919   */\n      calldataload\n        /* \"#utility.yul\":6890:6919   */\n      swap1\n      pop\n        /* \"#utility.yul\":6928:6971   */\n      tag_381\n        /* \"#utility.yul\":6965:6970   */\n      dup2\n        /* \"#utility.yul\":6928:6971   */\n      tag_269\n      jump\t// in\n    tag_381:\n        /* \"#utility.yul\":6818:6977   */\n      swap3\n      swap2\n      pop\n      pop\n      jump\t// out\n        /* \"#utility.yul\":6983:7477   */\n    tag_67:\n        /* \"#utility.yul\":7061:7067   */\n      0x00\n        /* \"#utility.yul\":7069:7075   */\n      dup1\n        /* \"#utility.yul\":7118:7120   */\n      0x40\n        /* \"#utility.yul\":7106:7115   */\n      dup4\n        /* \"#utility.yul\":7097:7104   */\n      dup6\n        /* \"#utility.yul\":7093:7116   */\n      sub\n        /* \"#utility.yul\":7089:7121   */\n      slt\n        /* \"#utility.yul\":7086:7205   */\n      iszero\n      tag_383\n      jumpi\n        /* \"#utility.yul\":7124:7203   */\n      tag_384\n      tag_251\n      jump\t// in\n    tag_384:\n        /* \"#utility.yul\":7086:7205   */\n    tag_383:\n        /* \"#utility.yul\":7244:7245   */\n      0x00\n        /* \"#utility.yul\":7269:7322   */\n      tag_385\n        /* \"#utility.yul\":7314:7321   */\n      dup6\n        /* \"#utility.yul\":7305:7311   */\n      dup3\n        /* \"#utility.yul\":7294:7303   */\n      dup7\n        /* \"#utility.yul\":7290:7312   */\n      add\n        /* \"#utility.yul\":7269:7322   */\n      tag_259\n      jump\t// in\n    tag_385:\n        /* \"#utility.yul\":7259:7322   */\n      swap3\n      pop\n        /* \"#utility.yul\":7215:7332   */\n      pop\n        /* \"#utility.yul\":7371:7373   */\n      0x20\n        /* \"#utility.yul\":7397:7460   */\n      tag_386\n        /* \"#utility.yul\":7452:7459   */\n      dup6\n        /* \"#utility.yul\":7443:7449   */\n      dup3\n        /* \"#utility.yul\":7432:7441   */\n      dup7\n        /* \"#utility.yul\":7428:7450   */\n      add\n        /* \"#utility.yul\":7397:7460   */\n      tag_270\n      jump\t// in\n    tag_386:\n        /* \"#utility.yul\":7387:7460   */\n      swap2\n      pop\n        /* \"#utility.yul\":7342:7470   */\n      pop\n        /* \"#utility.yul\":6983:7477   */\n      swap3\n      pop\n      swap3\n      swap1\n      pop\n      jump\t// out\n        /* \"#utility.yul\":7483:7812   */\n    tag_74:\n        /* \"#utility.yul\":7542:7548   */\n      0x00\n        /* \"#utility.yul\":7591:7593   */\n      0x20\n        /* \"#utility.yul\":7579:7588   */\n      dup3\n        /* \"#utility.yul\":7570:7577   */\n      dup5\n        /* \"#utility.yul\":7566:7589   */\n      sub\n        /* \"#utility.yul\":7562:7594   */\n      slt\n        /* \"#utility.yul\":7559:7678   */\n      iszero\n      tag_388\n      jumpi\n        /* \"#utility.yul\":7597:7676   */\n      tag_389\n      tag_251\n      jump\t// in\n    tag_389:\n        /* \"#utility.yul\":7559:7678   */\n    tag_388:\n        /* \"#utility.yul\":7717:7718   */\n      0x00\n        /* \"#utility.yul\":7742:7795   */\n      tag_390\n        /* \"#utility.yul\":7787:7794   */\n      dup5\n        /* \"#utility.yul\":7778:7784   */\n      dup3\n        /* \"#utility.yul\":7767:7776   */\n      dup6\n        /* \"#utility.yul\":7763:7785   */\n      add\n        /* \"#utility.yul\":7742:7795   */\n      tag_259\n      jump\t// in\n    tag_390:\n        /* \"#utility.yul\":7732:7795   */\n      swap2\n      pop\n        /* \"#utility.yul\":7688:7805   */\n      pop\n        /* \"#utility.yul\":7483:7812   */\n      swap3\n      swap2\n      pop\n      pop\n      jump\t// out\n        /* \"#utility.yul\":7818:7932   */\n    tag_271:\n        /* \"#utility.yul\":7885:7891   */\n      0x00\n        /* \"#utility.yul\":7919:7924   */\n      dup2\n        /* \"#utility.yul\":7913:7925   */\n      mload\n        /* \"#utility.yul\":7903:7925   */\n      swap1\n      pop\n        /* \"#utility.yul\":7818:7932   */\n      swap2\n      swap1\n      pop\n      jump\t// out\n        /* \"#utility.yul\":7938:8112   */\n    tag_272:\n        /* \"#utility.yul\":8027:8038   */\n      0x00\n        /* \"#utility.yul\":8061:8067   */\n      dup3\n        /* \"#utility.yul\":8056:8059   */\n      dup3\n        /* \"#utility.yul\":8049:8068   */\n      mstore\n        /* \"#utility.yul\":8101:8105   */\n      0x20\n        /* \"#utility.yul\":8096:8099   */\n      dup3\n        /* \"#utility.yul\":8092:8106   */\n      add\n        /* \"#utility.yul\":8077:8106   */\n      swap1\n      pop\n        /* \"#utility.yul\":7938:8112   */\n      swap3\n      swap2\n      pop\n      pop\n      jump\t// out\n        /* \"#utility.yul\":8118:8250   */\n    tag_273:\n        /* \"#utility.yul\":8185:8189   */\n      0x00\n        /* \"#utility.yul\":8208:8211   */\n      dup2\n        /* \"#utility.yul\":8200:8211   */\n      swap1\n      pop\n        /* \"#utility.yul\":8238:8242   */\n      0x20\n        /* \"#utility.yul\":8233:8236   */\n      dup3\n        /* \"#utility.yul\":8229:8243   */\n      add\n        /* \"#utility.yul\":8221:8243   */\n      swap1\n      pop\n        /* \"#utility.yul\":8118:8250   */\n      swap2\n      swap1\n      pop\n      jump\t// out\n        /* \"#utility.yul\":8256:8364   */\n    tag_274:\n        /* \"#utility.yul\":8333:8357   */\n      tag_395\n        /* \"#utility.yul\":8351:8356   */\n      dup2\n        /* \"#utility.yul\":8333:8357   */\n      tag_254\n      jump\t// in\n    tag_395:\n        /* \"#utility.yul\":8328:8331   */\n      dup3\n        /* \"#utility.yul\":8321:8358   */\n      mstore\n        /* \"#utility.yul\":8256:8364   */\n      pop\n      pop\n      jump\t// out\n        /* \"#utility.yul\":8370:8549   */\n    tag_275:\n        /* \"#utility.yul\":8439:8449   */\n      0x00\n        /* \"#utility.yul\":8460:8506   */\n      tag_397\n        /* \"#utility.yul\":8502:8505   */\n      dup4\n        /* \"#utility.yul\":8494:8500   */\n      dup4\n        /* \"#utility.yul\":8460:8506   */\n      tag_274\n      jump\t// in\n    tag_397:\n        /* \"#utility.yul\":8538:8542   */\n      0x20\n        /* \"#utility.yul\":8533:8536   */\n      dup4\n        /* \"#utility.yul\":8529:8543   */\n      add\n        /* \"#utility.yul\":8515:8543   */\n      swap1\n      pop\n        /* \"#utility.yul\":8370:8549   */\n      swap3\n      swap2\n      pop\n      pop\n      jump\t// out\n        /* \"#utility.yul\":8555:8668   */\n    tag_276:\n        /* \"#utility.yul\":8625:8629   */\n      0x00\n        /* \"#utility.yul\":8657:8661   */\n      0x20\n        /* \"#utility.yul\":8652:8655   */\n      dup3\n        /* \"#utility.yul\":8648:8662   */\n      add\n        /* \"#utility.yul\":8640:8662   */\n      swap1\n      pop\n        /* \"#utility.yul\":8555:8668   */\n      swap2\n      swap1\n      pop\n      jump\t// out\n        /* \"#utility.yul\":8704:9416   */\n    tag_277:\n        /* \"#utility.yul\":8813:8816   */\n      0x00\n        /* \"#utility.yul\":8842:8896   */\n      tag_400\n        /* \"#utility.yul\":8890:8895   */\n      dup3\n        /* \"#utility.yul\":8842:8896   */\n      tag_271\n      jump\t// in\n    tag_400:\n        /* \"#utility.yul\":8912:8988   */\n      tag_401\n        /* \"#utility.yul\":8981:8987   */\n      dup2\n        /* \"#utility.yul\":8976:8979   */\n      dup6\n        /* \"#utility.yul\":8912:8988   */\n      tag_272\n      jump\t// in\n    tag_401:\n        /* \"#utility.yul\":8905:8988   */\n      swap4\n      pop\n        /* \"#utility.yul\":9012:9068   */\n      tag_402\n        /* \"#utility.yul\":9062:9067   */\n      dup4\n        /* \"#utility.yul\":9012:9068   */\n      tag_273\n      jump\t// in\n    tag_402:\n        /* \"#utility.yul\":9091:9098   */\n      dup1\n        /* \"#utility.yul\":9122:9123   */\n      0x00\n        /* \"#utility.yul\":9107:9391   */\n    tag_403:\n        /* \"#utility.yul\":9132:9138   */\n      dup4\n        /* \"#utility.yul\":9129:9130   */\n      dup2\n        /* \"#utility.yul\":9126:9139   */\n      lt\n        /* \"#utility.yul\":9107:9391   */\n      iszero\n      tag_405\n      jumpi\n        /* \"#utility.yul\":9208:9214   */\n      dup2\n        /* \"#utility.yul\":9202:9215   */\n      mload\n        /* \"#utility.yul\":9235:9298   */\n      tag_406\n        /* \"#utility.yul\":9294:9297   */\n      dup9\n        /* \"#utility.yul\":9279:9292   */\n      dup3\n        /* \"#utility.yul\":9235:9298   */\n      tag_275\n      jump\t// in\n    tag_406:\n        /* \"#utility.yul\":9228:9298   */\n      swap8\n      pop\n        /* \"#utility.yul\":9321:9381   */\n      tag_407\n        /* \"#utility.yul\":9374:9380   */\n      dup4\n        /* \"#utility.yul\":9321:9381   */\n      tag_276\n      jump\t// in\n    tag_407:\n        /* \"#utility.yul\":9311:9381   */\n      swap3\n      pop\n        /* \"#utility.yul\":9167:9391   */\n      pop\n        /* \"#utility.yul\":9154:9155   */\n      0x01\n        /* \"#utility.yul\":9151:9152   */\n      dup2\n        /* \"#utility.yul\":9147:9156   */\n      add\n        /* \"#utility.yul\":9142:9156   */\n      swap1\n      pop\n        /* \"#utility.yul\":9107:9391   */\n      jump(tag_403)\n    tag_405:\n        /* \"#utility.yul\":9111:9125   */\n      pop\n        /* \"#utility.yul\":9407:9410   */\n      dup6\n        /* \"#utility.yul\":9400:9410   */\n      swap4\n      pop\n        /* \"#utility.yul\":8818:9416   */\n      pop\n      pop\n      pop\n        /* \"#utility.yul\":8704:9416   */\n      swap3\n      swap2\n      pop\n      pop\n      jump\t// out\n        /* \"#utility.yul\":9422:9581   */\n    tag_278:\n        /* \"#utility.yul\":9496:9507   */\n      0x00\n        /* \"#utility.yul\":9530:9536   */\n      dup3\n        /* \"#utility.yul\":9525:9528   */\n      dup3\n        /* \"#utility.yul\":9518:9537   */\n      mstore\n        /* \"#utility.yul\":9570:9574   */\n      0x20\n        /* \"#utility.yul\":9565:9568   */\n      dup3\n        /* \"#utility.yul\":9561:9575   */\n      add\n        /* \"#utility.yul\":9546:9575   */\n      swap1\n      pop\n        /* \"#utility.yul\":9422:9581   */\n      swap3\n      swap2\n      pop\n      pop\n      jump\t// out\n        /* \"#utility.yul\":9587:9944   */\n    tag_279:\n        /* \"#utility.yul\":9665:9668   */\n      0x00\n        /* \"#utility.yul\":9693:9732   */\n      tag_410\n        /* \"#utility.yul\":9726:9731   */\n      dup3\n        /* \"#utility.yul\":9693:9732   */\n      tag_245\n      jump\t// in\n    tag_410:\n        /* \"#utility.yul\":9748:9809   */\n      tag_411\n        /* \"#utility.yul\":9802:9808   */\n      dup2\n        /* \"#utility.yul\":9797:9800   */\n      dup6\n        /* \"#utility.yul\":9748:9809   */\n      tag_278\n      jump\t// in\n    tag_411:\n        /* \"#utility.yul\":9741:9809   */\n      swap4\n      pop\n        /* \"#utility.yul\":9818:9883   */\n      tag_412\n        /* \"#utility.yul\":9876:9882   */\n      dup2\n        /* \"#utility.yul\":9871:9874   */\n      dup6\n        /* \"#utility.yul\":9864:9868   */\n      0x20\n        /* \"#utility.yul\":9857:9862   */\n      dup7\n        /* \"#utility.yul\":9853:9869   */\n      add\n        /* \"#utility.yul\":9818:9883   */\n      tag_247\n      jump\t// in\n    tag_412:\n        /* \"#utility.yul\":9908:9937   */\n      tag_413\n        /* \"#utility.yul\":9930:9936   */\n      dup2\n        /* \"#utility.yul\":9908:9937   */\n      tag_248\n      jump\t// in\n    tag_413:\n        /* \"#utility.yul\":9903:9906   */\n      dup5\n        /* \"#utility.yul\":9899:9938   */\n      add\n        /* \"#utility.yul\":9892:9938   */\n      swap2\n      pop\n        /* \"#utility.yul\":9669:9944   */\n      pop\n        /* \"#utility.yul\":9587:9944   */\n      swap3\n      swap2\n      pop\n      pop\n      jump\t// out\n        /* \"#utility.yul\":9950:10058   */\n    tag_280:\n        /* \"#utility.yul\":10027:10051   */\n      tag_415\n        /* \"#utility.yul\":10045:10050   */\n      dup2\n        /* \"#utility.yul\":10027:10051   */\n      tag_257\n      jump\t// in\n    tag_415:\n        /* \"#utility.yul\":10022:10025   */\n      dup3\n        /* \"#utility.yul\":10015:10052   */\n      mstore\n        /* \"#utility.yul\":9950:10058   */\n      pop\n      pop\n      jump\t// out\n        /* \"#utility.yul\":10064:10163   */\n    tag_281:\n        /* \"#utility.yul\":10135:10156   */\n      tag_417\n        /* \"#utility.yul\":10150:10155   */\n      dup2\n        /* \"#utility.yul\":10135:10156   */\n      tag_260\n      jump\t// in\n    tag_417:\n        /* \"#utility.yul\":10130:10133   */\n      dup3\n        /* \"#utility.yul\":10123:10157   */\n      mstore\n        /* \"#utility.yul\":10064:10163   */\n      pop\n      pop\n      jump\t// out\n        /* \"#utility.yul\":10243:12205   */\n    tag_282:\n        /* \"#utility.yul\":10366:10369   */\n      0x00\n        /* \"#utility.yul\":10402:10408   */\n      0x0120\n        /* \"#utility.yul\":10397:10400   */\n      dup4\n        /* \"#utility.yul\":10393:10409   */\n      add\n        /* \"#utility.yul\":10493:10497   */\n      0x00\n        /* \"#utility.yul\":10486:10491   */\n      dup4\n        /* \"#utility.yul\":10482:10498   */\n      add\n        /* \"#utility.yul\":10476:10499   */\n      mload\n        /* \"#utility.yul\":10546:10549   */\n      dup5\n        /* \"#utility.yul\":10540:10544   */\n      dup3\n        /* \"#utility.yul\":10536:10550   */\n      sub\n        /* \"#utility.yul\":10529:10533   */\n      0x00\n        /* \"#utility.yul\":10524:10527   */\n      dup7\n        /* \"#utility.yul\":10520:10534   */\n      add\n        /* \"#utility.yul\":10513:10551   */\n      mstore\n        /* \"#utility.yul\":10572:10675   */\n      tag_419\n        /* \"#utility.yul\":10670:10674   */\n      dup3\n        /* \"#utility.yul\":10656:10668   */\n      dup3\n        /* \"#utility.yul\":10572:10675   */\n      tag_277\n      jump\t// in\n    tag_419:\n        /* \"#utility.yul\":10564:10675   */\n      swap2\n      pop\n        /* \"#utility.yul\":10419:10686   */\n      pop\n        /* \"#utility.yul\":10773:10777   */\n      0x20\n        /* \"#utility.yul\":10766:10771   */\n      dup4\n        /* \"#utility.yul\":10762:10778   */\n      add\n        /* \"#utility.yul\":10756:10779   */\n      mload\n        /* \"#utility.yul\":10826:10829   */\n      dup5\n        /* \"#utility.yul\":10820:10824   */\n      dup3\n        /* \"#utility.yul\":10816:10830   */\n      sub\n        /* \"#utility.yul\":10809:10813   */\n      0x20\n        /* \"#utility.yul\":10804:10807   */\n      dup7\n        /* \"#utility.yul\":10800:10814   */\n      add\n        /* \"#utility.yul\":10793:10831   */\n      mstore\n        /* \"#utility.yul\":10852:10925   */\n      tag_420\n        /* \"#utility.yul\":10920:10924   */\n      dup3\n        /* \"#utility.yul\":10906:10918   */\n      dup3\n        /* \"#utility.yul\":10852:10925   */\n      tag_279\n      jump\t// in\n    tag_420:\n        /* \"#utility.yul\":10844:10925   */\n      swap2\n      pop\n        /* \"#utility.yul\":10696:10936   */\n      pop\n        /* \"#utility.yul\":11022:11026   */\n      0x40\n        /* \"#utility.yul\":11015:11020   */\n      dup4\n        /* \"#utility.yul\":11011:11027   */\n      add\n        /* \"#utility.yul\":11005:11028   */\n      mload\n        /* \"#utility.yul\":11041:11104   */\n      tag_421\n        /* \"#utility.yul\":11098:11102   */\n      0x40\n        /* \"#utility.yul\":11093:11096   */\n      dup7\n        /* \"#utility.yul\":11089:11103   */\n      add\n        /* \"#utility.yul\":11075:11087   */\n      dup3\n        /* \"#utility.yul\":11041:11104   */\n      tag_280\n      jump\t// in\n    tag_421:\n        /* \"#utility.yul\":10946:11114   */\n      pop\n        /* \"#utility.yul\":11204:11208   */\n      0x60\n        /* \"#utility.yul\":11197:11202   */\n      dup4\n        /* \"#utility.yul\":11193:11209   */\n      add\n        /* \"#utility.yul\":11187:11210   */\n      mload\n        /* \"#utility.yul\":11223:11286   */\n      tag_422\n        /* \"#utility.yul\":11280:11284   */\n      0x60\n        /* \"#utility.yul\":11275:11278   */\n      dup7\n        /* \"#utility.yul\":11271:11285   */\n      add\n        /* \"#utility.yul\":11257:11269   */\n      dup3\n        /* \"#utility.yul\":11223:11286   */\n      tag_280\n      jump\t// in\n    tag_422:\n        /* \"#utility.yul\":11124:11296   */\n      pop\n        /* \"#utility.yul\":11386:11390   */\n      0x80\n        /* \"#utility.yul\":11379:11384   */\n      dup4\n        /* \"#utility.yul\":11375:11391   */\n      add\n        /* \"#utility.yul\":11369:11392   */\n      mload\n        /* \"#utility.yul\":11405:11468   */\n      tag_423\n        /* \"#utility.yul\":11462:11466   */\n      0x80\n        /* \"#utility.yul\":11457:11460   */\n      dup7\n        /* \"#utility.yul\":11453:11467   */\n      add\n        /* \"#utility.yul\":11439:11451   */\n      dup3\n        /* \"#utility.yul\":11405:11468   */\n      tag_280\n      jump\t// in\n    tag_423:\n        /* \"#utility.yul\":11306:11478   */\n      pop\n        /* \"#utility.yul\":11566:11570   */\n      0xa0\n        /* \"#utility.yul\":11559:11564   */\n      dup4\n        /* \"#utility.yul\":11555:11571   */\n      add\n        /* \"#utility.yul\":11549:11572   */\n      mload\n        /* \"#utility.yul\":11585:11648   */\n      tag_424\n        /* \"#utility.yul\":11642:11646   */\n      0xa0\n        /* \"#utility.yul\":11637:11640   */\n      dup7\n        /* \"#utility.yul\":11633:11647   */\n      add\n        /* \"#utility.yul\":11619:11631   */\n      dup3\n        /* \"#utility.yul\":11585:11648   */\n      tag_280\n      jump\t// in\n    tag_424:\n        /* \"#utility.yul\":11488:11658   */\n      pop\n        /* \"#utility.yul\":11742:11746   */\n      0xc0\n        /* \"#utility.yul\":11735:11740   */\n      dup4\n        /* \"#utility.yul\":11731:11747   */\n      add\n        /* \"#utility.yul\":11725:11748   */\n      mload\n        /* \"#utility.yul\":11761:11824   */\n      tag_425\n        /* \"#utility.yul\":11818:11822   */\n      0xc0\n        /* \"#utility.yul\":11813:11816   */\n      dup7\n        /* \"#utility.yul\":11809:11823   */\n      add\n        /* \"#utility.yul\":11795:11807   */\n      dup3\n        /* \"#utility.yul\":11761:11824   */\n      tag_280\n      jump\t// in\n    tag_425:\n        /* \"#utility.yul\":11668:11834   */\n      pop\n        /* \"#utility.yul\":11918:11922   */\n      0xe0\n        /* \"#utility.yul\":11911:11916   */\n      dup4\n        /* \"#utility.yul\":11907:11923   */\n      add\n        /* \"#utility.yul\":11901:11924   */\n      mload\n        /* \"#utility.yul\":11937:11994   */\n      tag_426\n        /* \"#utility.yul\":11988:11992   */\n      0xe0\n        /* \"#utility.yul\":11983:11986   */\n      dup7\n        /* \"#utility.yul\":11979:11993   */\n      add\n        /* \"#utility.yul\":11965:11977   */\n      dup3\n        /* \"#utility.yul\":11937:11994   */\n      tag_281\n      jump\t// in\n    tag_426:\n        /* \"#utility.yul\":11844:12004   */\n      pop\n        /* \"#utility.yul\":12088:12094   */\n      0x0100\n        /* \"#utility.yul\":12081:12086   */\n      dup4\n        /* \"#utility.yul\":12077:12095   */\n      add\n        /* \"#utility.yul\":12071:12096   */\n      mload\n        /* \"#utility.yul\":12109:12168   */\n      tag_427\n        /* \"#utility.yul\":12160:12166   */\n      0x0100\n        /* \"#utility.yul\":12155:12158   */\n      dup7\n        /* \"#utility.yul\":12151:12167   */\n      add\n        /* \"#utility.yul\":12137:12149   */\n      dup3\n        /* \"#utility.yul\":12109:12168   */\n      tag_281\n      jump\t// in\n    tag_427:\n        /* \"#utility.yul\":12014:12178   */\n      pop\n        /* \"#utility.yul\":12195:12199   */\n      dup1\n        /* \"#utility.yul\":12188:12199   */\n      swap2\n      pop\n        /* \"#utility.yul\":10371:12205   */\n      pop\n        /* \"#utility.yul\":10243:12205   */\n      swap3\n      swap2\n      pop\n      pop\n      jump\t// out\n        /* \"#utility.yul\":12211:12592   */\n    tag_77:\n        /* \"#utility.yul\":12358:12362   */\n      0x00\n        /* \"#utility.yul\":12396:12398   */\n      0x20\n        /* \"#utility.yul\":12385:12394   */\n      dup3\n        /* \"#utility.yul\":12381:12399   */\n      add\n        /* \"#utility.yul\":12373:12399   */\n      swap1\n      pop\n        /* \"#utility.yul\":12445:12454   */\n      dup2\n        /* \"#utility.yul\":12439:12443   */\n      dup2\n        /* \"#utility.yul\":12435:12455   */\n      sub\n        /* \"#utility.yul\":12431:12432   */\n      0x00\n        /* \"#utility.yul\":12420:12429   */\n      dup4\n        /* \"#utility.yul\":12416:12433   */\n      add\n        /* \"#utility.yul\":12409:12456   */\n      mstore\n        /* \"#utility.yul\":12473:12585   */\n      tag_429\n        /* \"#utility.yul\":12580:12584   */\n      dup2\n        /* \"#utility.yul\":12571:12577   */\n      dup5\n        /* \"#utility.yul\":12473:12585   */\n      tag_282\n      jump\t// in\n    tag_429:\n        /* \"#utility.yul\":12465:12585   */\n      swap1\n      pop\n        /* \"#utility.yul\":12211:12592   */\n      swap3\n      swap2\n      pop\n      pop\n      jump\t// out\n        /* \"#utility.yul\":12598:13072   */\n    tag_87:\n        /* \"#utility.yul\":12666:12672   */\n      0x00\n        /* \"#utility.yul\":12674:12680   */\n      dup1\n        /* \"#utility.yul\":12723:12725   */\n      0x40\n        /* \"#utility.yul\":12711:12720   */\n      dup4\n        /* \"#utility.yul\":12702:12709   */\n      dup6\n        /* \"#utility.yul\":12698:12721   */\n      sub\n        /* \"#utility.yul\":12694:12726   */\n      slt\n        /* \"#utility.yul\":12691:12810   */\n      iszero\n      tag_431\n      jumpi\n        /* \"#utility.yul\":12729:12808   */\n      tag_432\n      tag_251\n      jump\t// in\n    tag_432:\n        /* \"#utility.yul\":12691:12810   */\n    tag_431:\n        /* \"#utility.yul\":12849:12850   */\n      0x00\n        /* \"#utility.yul\":12874:12927   */\n      tag_433\n        /* \"#utility.yul\":12919:12926   */\n      dup6\n        /* \"#utility.yul\":12910:12916   */\n      dup3\n        /* \"#utility.yul\":12899:12908   */\n      dup7\n        /* \"#utility.yul\":12895:12917   */\n      add\n        /* \"#utility.yul\":12874:12927   */\n      tag_256\n      jump\t// in\n    tag_433:\n        /* \"#utility.yul\":12864:12927   */\n      swap3\n      pop\n        /* \"#utility.yul\":12820:12937   */\n      pop\n        /* \"#utility.yul\":12976:12978   */\n      0x20\n        /* \"#utility.yul\":13002:13055   */\n      tag_434\n        /* \"#utility.yul\":13047:13054   */\n      dup6\n        /* \"#utility.yul\":13038:13044   */\n      dup3\n        /* \"#utility.yul\":13027:13036   */\n      dup7\n        /* \"#utility.yul\":13023:13045   */\n      add\n        /* \"#utility.yul\":13002:13055   */\n      tag_256\n      jump\t// in\n    tag_434:\n        /* \"#utility.yul\":12992:13055   */\n      swap2\n      pop\n        /* \"#utility.yul\":12947:13065   */\n      pop\n        /* \"#utility.yul\":12598:13072   */\n      swap3\n      pop\n      swap3\n      swap1\n      pop\n      jump\t// out\n        /* \"#utility.yul\":13078:13258   */\n    tag_283:\n        /* \"#utility.yul\":13126:13203   */\n      0x4e487b7100000000000000000000000000000000000000000000000000000000\n        /* \"#utility.yul\":13123:13124   */\n      0x00\n        /* \"#utility.yul\":13116:13204   */\n      mstore\n        /* \"#utility.yul\":13223:13227   */\n      0x22\n        /* \"#utility.yul\":13220:13221   */\n      0x04\n        /* \"#utility.yul\":13213:13228   */\n      mstore\n        /* \"#utility.yul\":13247:13251   */\n      0x24\n        /* \"#utility.yul\":13244:13245   */\n      0x00\n        /* \"#utility.yul\":13237:13252   */\n      revert\n        /* \"#utility.yul\":13264:13584   */\n    tag_92:\n        /* \"#utility.yul\":13308:13314   */\n      0x00\n        /* \"#utility.yul\":13345:13346   */\n      0x02\n        /* \"#utility.yul\":13339:13343   */\n      dup3\n        /* \"#utility.yul\":13335:13347   */\n      div\n        /* \"#utility.yul\":13325:13347   */\n      swap1\n      pop\n        /* \"#utility.yul\":13392:13393   */\n      0x01\n        /* \"#utility.yul\":13386:13390   */\n      dup3\n        /* \"#utility.yul\":13382:13394   */\n      and\n        /* \"#utility.yul\":13413:13431   */\n      dup1\n        /* \"#utility.yul\":13403:13484   */\n      tag_437\n      jumpi\n        /* \"#utility.yul\":13469:13473   */\n      0x7f\n        /* \"#utility.yul\":13461:13467   */\n      dup3\n        /* \"#utility.yul\":13457:13474   */\n      and\n        /* \"#utility.yul\":13447:13474   */\n      swap2\n      pop\n        /* \"#utility.yul\":13403:13484   */\n    tag_437:\n        /* \"#utility.yul\":13531:13533   */\n      0x20\n        /* \"#utility.yul\":13523:13529   */\n      dup3\n        /* \"#utility.yul\":13520:13534   */\n      lt\n        /* \"#utility.yul\":13500:13518   */\n      dup2\n        /* \"#utility.yul\":13497:13535   */\n      sub\n        /* \"#utility.yul\":13494:13578   */\n      tag_438\n      jumpi\n        /* \"#utility.yul\":13550:13568   */\n      tag_439\n      tag_283\n      jump\t// in\n    tag_439:\n        /* \"#utility.yul\":13494:13578   */\n    tag_438:\n        /* \"#utility.yul\":13315:13584   */\n      pop\n        /* \"#utility.yul\":13264:13584   */\n      swap2\n      swap1\n      pop\n      jump\t// out\n        /* \"#utility.yul\":13590:13687   */\n    tag_284:\n        /* \"#utility.yul\":13649:13655   */\n      0x00\n        /* \"#utility.yul\":13677:13680   */\n      dup3\n        /* \"#utility.yul\":13667:13680   */\n      swap1\n      pop\n        /* \"#utility.yul\":13590:13687   */\n      swap3\n      swap2\n      pop\n      pop\n      jump\t// out\n        /* \"#utility.yul\":13693:13873   */\n    tag_285:\n        /* \"#utility.yul\":13741:13818   */\n      0x4e487b7100000000000000000000000000000000000000000000000000000000\n        /* \"#utility.yul\":13738:13739   */\n      0x00\n        /* \"#utility.yul\":13731:13819   */\n      mstore\n        /* \"#utility.yul\":13838:13842   */\n      0x41\n        /* \"#utility.yul\":13835:13836   */\n      0x04\n        /* \"#utility.yul\":13828:13843   */\n      mstore\n        /* \"#utility.yul\":13862:13866   */\n      0x24\n        /* \"#utility.yul\":13859:13860   */\n      0x00\n        /* \"#utility.yul\":13852:13867   */\n      revert\n        /* \"#utility.yul\":13879:14020   */\n    tag_286:\n        /* \"#utility.yul\":13928:13932   */\n      0x00\n        /* \"#utility.yul\":13951:13954   */\n      dup2\n        /* \"#utility.yul\":13943:13954   */\n      swap1\n      pop\n        /* \"#utility.yul\":13974:13977   */\n      dup2\n        /* \"#utility.yul\":13971:13972   */\n      0x00\n        /* \"#utility.yul\":13964:13978   */\n      mstore\n        /* \"#utility.yul\":14008:14012   */\n      0x20\n        /* \"#utility.yul\":14005:14006   */\n      0x00\n        /* \"#utility.yul\":13995:14013   */\n      keccak256\n        /* \"#utility.yul\":13987:14013   */\n      swap1\n      pop\n        /* \"#utility.yul\":13879:14020   */\n      swap2\n      swap1\n      pop\n      jump\t// out\n        /* \"#utility.yul\":14026:14119   */\n    tag_287:\n        /* \"#utility.yul\":14063:14069   */\n      0x00\n        /* \"#utility.yul\":14110:14112   */\n      0x20\n        /* \"#utility.yul\":14105:14107   */\n      0x1f\n        /* \"#utility.yul\":14098:14103   */\n      dup4\n        /* \"#utility.yul\":14094:14108   */\n      add\n        /* \"#utility.yul\":14090:14113   */\n      div\n        /* \"#utility.yul\":14080:14113   */\n      swap1\n      pop\n        /* \"#utility.yul\":14026:14119   */\n      swap2\n      swap1\n      pop\n      jump\t// out\n        /* \"#utility.yul\":14125:14232   */\n    tag_288:\n        /* \"#utility.yul\":14169:14177   */\n      0x00\n        /* \"#utility.yul\":14219:14224   */\n      dup3\n        /* \"#utility.yul\":14213:14217   */\n      dup3\n        /* \"#utility.yul\":14209:14225   */\n      shl\n        /* \"#utility.yul\":14188:14225   */\n      swap1\n      pop\n        /* \"#utility.yul\":14125:14232   */\n      swap3\n      swap2\n      pop\n      pop\n      jump\t// out\n        /* \"#utility.yul\":14238:14631   */\n    tag_289:\n        /* \"#utility.yul\":14307:14313   */\n      0x00\n        /* \"#utility.yul\":14357:14358   */\n      0x08\n        /* \"#utility.yul\":14345:14355   */\n      dup4\n        /* \"#utility.yul\":14341:14359   */\n      mul\n        /* \"#utility.yul\":14380:14477   */\n      tag_446\n        /* \"#utility.yul\":14410:14476   */\n      0xffffffffffffffffffffffffffffffffffffffffffffffffffffffffffffffff\n        /* \"#utility.yul\":14399:14408   */\n      dup3\n        /* \"#utility.yul\":14380:14477   */\n      tag_288\n      jump\t// in\n    tag_446:\n        /* \"#utility.yul\":14498:14537   */\n      tag_447\n        /* \"#utility.yul\":14528:14536   */\n      dup7\n        /* \"#utility.yul\":14517:14526   */\n      dup4\n        /* \"#utility.yul\":14498:14537   */\n      tag_288\n      jump\t// in\n    tag_447:\n        /* \"#utility.yul\":14486:14537   */\n      swap6\n      pop\n        /* \"#utility.yul\":14570:14574   */\n      dup1\n        /* \"#utility.yul\":14566:14575   */\n      not\n        /* \"#utility.yul\":14559:14564   */\n      dup5\n        /* \"#utility.yul\":14555:14576   */\n      and\n        /* \"#utility.yul\":14546:14576   */\n      swap4\n      pop\n        /* \"#utility.yul\":14619:14623   */\n      dup1\n        /* \"#utility.yul\":14609:14617   */\n      dup7\n        /* \"#utility.yul\":14605:14624   */\n      and\n        /* \"#utility.yul\":14598:14603   */\n      dup5\n        /* \"#utility.yul\":14595:14625   */\n      or\n        /* \"#utility.yul\":14585:14625   */\n      swap3\n      pop\n        /* \"#utility.yul\":14314:14631   */\n      pop\n      pop\n        /* \"#utility.yul\":14238:14631   */\n      swap4\n      swap3\n      pop\n      pop\n      pop\n      jump\t// out\n        /* \"#utility.yul\":14637:14697   */\n    tag_290:\n        /* \"#utility.yul\":14665:14668   */\n      0x00\n        /* \"#utility.yul\":14686:14691   */\n      dup2\n        /* \"#utility.yul\":14679:14691   */\n      swap1\n      pop\n        /* \"#utility.yul\":14637:14697   */\n      swap2\n      swap1\n      pop\n      jump\t// out\n        /* \"#utility.yul\":14703:14845   */\n    tag_291:\n        /* \"#utility.yul\":14753:14762   */\n      0x00\n        /* \"#utility.yul\":14786:14839   */\n      tag_450\n        /* \"#utility.yul\":14804:14838   */\n      tag_451\n        /* \"#utility.yul\":14813:14837   */\n      tag_452\n        /* \"#utility.yul\":14831:14836   */\n      dup5\n        /* \"#utility.yul\":14813:14837   */\n      tag_257\n      jump\t// in\n    tag_452:\n        /* \"#utility.yul\":14804:14838   */\n      tag_290\n      jump\t// in\n    tag_451:\n        /* \"#utility.yul\":14786:14839   */\n      tag_257\n      jump\t// in\n    tag_450:\n        /* \"#utility.yul\":14773:14839   */\n      swap1\n      pop\n        /* \"#utility.yul\":14703:14845   */\n      swap2\n      swap1\n      pop\n      jump\t// out\n        /* \"#utility.yul\":14851:14926   */\n    tag_292:\n        /* \"#utility.yul\":14894:14897   */\n      0x00\n        /* \"#utility.yul\":14915:14920   */\n      dup2\n        /* \"#utility.yul\":14908:14920   */\n      swap1\n      pop\n        /* \"#utility.yul\":14851:14926   */\n      swap2\n      swap1\n      pop\n      jump\t// out\n        /* \"#utility.yul\":14932:15201   */\n    tag_293:\n        /* \"#utility.yul\":15042:15081   */\n      tag_455\n        /* \"#utility.yul\":15073:15080   */\n      dup4\n        /* \"#utility.yul\":15042:15081   */\n      tag_291\n      jump\t// in\n    tag_455:\n        /* \"#utility.yul\":15103:15194   */\n      tag_456\n        /* \"#utility.yul\":15152:15193   */\n      tag_457\n        /* \"#utility.yul\":15176:15192   */\n      dup3\n        /* \"#utility.yul\":15152:15193   */\n      tag_292\n      jump\t// in\n    tag_457:\n        /* \"#utility.yul\":15144:15150   */\n      dup5\n        /* \"#utility.yul\":15137:15141   */\n      dup5\n        /* \"#utility.yul\":15131:15142   */\n      sload\n        /* \"#utility.yul\":15103:15194   */\n      tag_289\n      jump\t// in\n    tag_456:\n        /* \"#utility.yul\":15097:15101   */\n      dup3\n        /* \"#utility.yul\":15090:15195   */\n      sstore\n        /* \"#utility.yul\":15008:15201   */\n      pop\n        /* \"#utility.yul\":14932:15201   */\n      pop\n      pop\n      pop\n      jump\t// out\n        /* \"#utility.yul\":15207:15280   */\n    tag_294:\n        /* \"#utility.yul\":15252:15255   */\n      0x00\n        /* \"#utility.yul\":15207:15280   */\n      swap1\n      jump\t// out\n        /* \"#utility.yul\":15286:15475   */\n    tag_295:\n        /* \"#utility.yul\":15363:15395   */\n      tag_460\n      tag_294\n      jump\t// in\n    tag_460:\n        /* \"#utility.yul\":15404:15469   */\n      tag_461\n        /* \"#utility.yul\":15462:15468   */\n      dup2\n        /* \"#utility.yul\":15454:15460   */\n      dup5\n        /* \"#utility.yul\":15448:15452   */\n      dup5\n        /* \"#utility.yul\":15404:15469   */\n      tag_293\n      jump\t// in\n    tag_461:\n        /* \"#utility.yul\":15339:15475   */\n      pop\n        /* \"#utility.yul\":15286:15475   */\n      pop\n      pop\n      jump\t// out\n        /* \"#utility.yul\":15481:15667   */\n    tag_296:\n        /* \"#utility.yul\":15541:15661   */\n    tag_463:\n        /* \"#utility.yul\":15558:15561   */\n      dup2\n        /* \"#utility.yul\":15551:15556   */\n      dup2\n        /* \"#utility.yul\":15548:15562   */\n      lt\n        /* \"#utility.yul\":15541:15661   */\n      iszero\n      tag_465\n      jumpi\n        /* \"#utility.yul\":15612:15651   */\n      tag_466\n        /* \"#utility.yul\":15649:15650   */\n      0x00\n        /* \"#utility.yul\":15642:15647   */\n      dup3\n        /* \"#utility.yul\":15612:15651   */\n      tag_295\n      jump\t// in\n    tag_466:\n        /* \"#utility.yul\":15585:15586   */\n      0x01\n        /* \"#utility.yul\":15578:15583   */\n      dup2\n        /* \"#utility.yul\":15574:15587   */\n      add\n        /* \"#utility.yul\":15565:15587   */\n      swap1\n      pop\n        /* \"#utility.yul\":15541:15661   */\n      jump(tag_463)\n    tag_465:\n        /* \"#utility.yul\":15481:15667   */\n      pop\n      pop\n      jump\t// out\n        /* \"#utility.yul\":15673:16216   */\n    tag_297:\n        /* \"#utility.yul\":15774:15776   */\n      0x1f\n        /* \"#utility.yul\":15769:15772   */\n      dup3\n        /* \"#utility.yul\":15766:15777   */\n      gt\n        /* \"#utility.yul\":15763:16209   */\n      iszero\n      tag_468\n      jumpi\n        /* \"#utility.yul\":15808:15846   */\n      tag_469\n        /* \"#utility.yul\":15840:15845   */\n      dup2\n        /* \"#utility.yul\":15808:15846   */\n      tag_286\n      jump\t// in\n    tag_469:\n        /* \"#utility.yul\":15892:15921   */\n      tag_470\n        /* \"#utility.yul\":15910:15920   */\n      dup5\n        /* \"#utility.yul\":15892:15921   */\n      tag_287\n      jump\t// in\n    tag_470:\n        /* \"#utility.yul\":15882:15890   */\n      dup2\n        /* \"#utility.yul\":15878:15922   */\n      add\n        /* \"#utility.yul\":16075:16077   */\n      0x20\n        /* \"#utility.yul\":16063:16073   */\n      dup6\n        /* \"#utility.yul\":16060:16078   */\n      lt\n        /* \"#utility.yul\":16057:16106   */\n      iszero\n      tag_471\n      jumpi\n        /* \"#utility.yul\":16096:16104   */\n      dup2\n        /* \"#utility.yul\":16081:16104   */\n      swap1\n      pop\n        /* \"#utility.yul\":16057:16106   */\n    tag_471:\n        /* \"#utility.yul\":16119:16199   */\n      tag_472\n        /* \"#utility.yul\":16175:16197   */\n      tag_473\n        /* \"#utility.yul\":16193:16196   */\n      dup6\n        /* \"#utility.yul\":16175:16197   */\n      tag_287\n      jump\t// in\n    tag_473:\n        /* \"#utility.yul\":16165:16173   */\n      dup4\n        /* \"#utility.yul\":16161:16198   */\n      add\n        /* \"#utility.yul\":16148:16159   */\n      dup3\n        /* \"#utility.yul\":16119:16199   */\n      tag_296\n      jump\t// in\n    tag_472:\n        /* \"#utility.yul\":15778:16209   */\n      pop\n      pop\n        /* \"#utility.yul\":15763:16209   */\n    tag_468:\n        /* \"#utility.yul\":15673:16216   */\n      pop\n      pop\n      pop\n      jump\t// out\n        /* \"#utility.yul\":16222:16339   */\n    tag_298:\n        /* \"#utility.yul\":16276:16284   */\n      0x00\n        /* \"#utility.yul\":16326:16331   */\n      dup3\n        /* \"#utility.yul\":16320:16324   */\n      dup3\n        /* \"#utility.yul\":16316:16332   */\n      shr\n        /* \"#utility.yul\":16295:16332   */\n      swap1\n      pop\n        /* \"#utility.yul\":16222:16339   */\n      swap3\n      swap2\n      pop\n      pop\n      jump\t// out\n        /* \"#utility.yul\":16345:16514   */\n    tag_299:\n        /* \"#utility.yul\":16389:16395   */\n      0x00\n        /* \"#utility.yul\":16422:16473   */\n      tag_476\n        /* \"#utility.yul\":16470:16471   */\n      0x00\n        /* \"#utility.yul\":16466:16472   */\n      not\n        /* \"#utility.yul\":16458:16463   */\n      dup5\n        /* \"#utility.yul\":16455:16456   */\n      0x08\n        /* \"#utility.yul\":16451:16464   */\n      mul\n        /* \"#utility.yul\":16422:16473   */\n      tag_298\n      jump\t// in\n    tag_476:\n        /* \"#utility.yul\":16418:16474   */\n      not\n        /* \"#utility.yul\":16503:16507   */\n      dup1\n        /* \"#utility.yul\":16497:16501   */\n      dup4\n        /* \"#utility.yul\":16493:16508   */\n      and\n        /* \"#utility.yul\":16483:16508   */\n      swap2\n      pop\n        /* \"#utility.yul\":16396:16514   */\n      pop\n        /* \"#utility.yul\":16345:16514   */\n      swap3\n      swap2\n      pop\n      pop\n      jump\t// out\n        /* \"#utility.yul\":16519:16814   */\n    tag_300:\n        /* \"#utility.yul\":16595:16599   */\n      0x00\n        /* \"#utility.yul\":16741:16770   */\n      tag_478\n        /* \"#utility.yul\":16766:16769   */\n      dup4\n        /* \"#utility.yul\":16760:16764   */\n      dup4\n        /* \"#utility.yul\":16741:16770   */\n      tag_299\n      jump\t// in\n    tag_478:\n        /* \"#utility.yul\":16733:16770   */\n      swap2\n      pop\n        /* \"#utility.yul\":16803:16806   */\n      dup3\n        /* \"#utility.yul\":16800:16801   */\n      0x02\n        /* \"#utility.yul\":16796:16807   */\n      mul\n        /* \"#utility.yul\":16790:16794   */\n      dup3\n        /* \"#utility.yul\":16787:16808   */\n      or\n        /* \"#utility.yul\":16779:16808   */\n      swap1\n      pop\n        /* \"#utility.yul\":16519:16814   */\n      swap3\n      swap2\n      pop\n      pop\n      jump\t// out\n        /* \"#utility.yul\":16819:18222   */\n    tag_125:\n        /* \"#utility.yul\":16943:16987   */\n      tag_480\n        /* \"#utility.yul\":16983:16986   */\n      dup4\n        /* \"#utility.yul\":16978:16981   */\n      dup4\n        /* \"#utility.yul\":16943:16987   */\n      tag_284\n      jump\t// in\n    tag_480:\n        /* \"#utility.yul\":17052:17070   */\n      0xffffffffffffffff\n        /* \"#utility.yul\":17044:17050   */\n      dup2\n        /* \"#utility.yul\":17041:17071   */\n      gt\n        /* \"#utility.yul\":17038:17094   */\n      iszero\n      tag_481\n      jumpi\n        /* \"#utility.yul\":17074:17092   */\n      tag_482\n      tag_285\n      jump\t// in\n    tag_482:\n        /* \"#utility.yul\":17038:17094   */\n    tag_481:\n        /* \"#utility.yul\":17118:17156   */\n      tag_483\n        /* \"#utility.yul\":17150:17154   */\n      dup3\n        /* \"#utility.yul\":17144:17155   */\n      sload\n        /* \"#utility.yul\":17118:17156   */\n      tag_92\n      jump\t// in\n    tag_483:\n        /* \"#utility.yul\":17203:17270   */\n      tag_484\n        /* \"#utility.yul\":17263:17269   */\n      dup3\n        /* \"#utility.yul\":17255:17261   */\n      dup3\n        /* \"#utility.yul\":17249:17253   */\n      dup6\n        /* \"#utility.yul\":17203:17270   */\n      tag_297\n      jump\t// in\n    tag_484:\n        /* \"#utility.yul\":17297:17298   */\n      0x00\n        /* \"#utility.yul\":17326:17328   */\n      0x1f\n        /* \"#utility.yul\":17318:17324   */\n      dup4\n        /* \"#utility.yul\":17315:17329   */\n      gt\n        /* \"#utility.yul\":17343:17344   */\n      0x01\n        /* \"#utility.yul\":17338:17970   */\n      dup2\n      eq\n      tag_486\n      jumpi\n        /* \"#utility.yul\":18014:18015   */\n      0x00\n        /* \"#utility.yul\":18031:18037   */\n      dup5\n        /* \"#utility.yul\":18028:18112   */\n      iszero\n      tag_487\n      jumpi\n        /* \"#utility.yul\":18087:18096   */\n      dup3\n        /* \"#utility.yul\":18082:18085   */\n      dup8\n        /* \"#utility.yul\":18078:18097   */\n      add\n        /* \"#utility.yul\":18065:18098   */\n      calldataload\n        /* \"#utility.yul\":18056:18098   */\n      swap1\n      pop\n        /* \"#utility.yul\":18028:18112   */\n    tag_487:\n        /* \"#utility.yul\":18138:18205   */\n      tag_488\n        /* \"#utility.yul\":18198:18204   */\n      dup6\n        /* \"#utility.yul\":18191:18196   */\n      dup3\n        /* \"#utility.yul\":18138:18205   */\n      tag_300\n      jump\t// in\n    tag_488:\n        /* \"#utility.yul\":18132:18136   */\n      dup7\n        /* \"#utility.yul\":18125:18206   */\n      sstore\n        /* \"#utility.yul\":17987:18216   */\n      pop\n        /* \"#utility.yul\":17308:18216   */\n      jump(tag_485)\n        /* \"#utility.yul\":17338:17970   */\n    tag_486:\n        /* \"#utility.yul\":17390:17394   */\n      0x1f\n        /* \"#utility.yul\":17386:17395   */\n      not\n        /* \"#utility.yul\":17378:17384   */\n      dup5\n        /* \"#utility.yul\":17374:17396   */\n      and\n        /* \"#utility.yul\":17424:17461   */\n      tag_489\n        /* \"#utility.yul\":17456:17460   */\n      dup7\n        /* \"#utility.yul\":17424:17461   */\n      tag_286\n      jump\t// in\n    tag_489:\n        /* \"#utility.yul\":17483:17484   */\n      0x00\n        /* \"#utility.yul\":17497:17712   */\n    tag_490:\n        /* \"#utility.yul\":17511:17518   */\n      dup3\n        /* \"#utility.yul\":17508:17509   */\n      dup2\n        /* \"#utility.yul\":17505:17519   */\n      lt\n        /* \"#utility.yul\":17497:17712   */\n      iszero\n      tag_492\n      jumpi\n        /* \"#utility.yul\":17597:17606   */\n      dup5\n        /* \"#utility.yul\":17592:17595   */\n      dup10\n        /* \"#utility.yul\":17588:17607   */\n      add\n        /* \"#utility.yul\":17575:17608   */\n      calldataload\n        /* \"#utility.yul\":17567:17573   */\n      dup3\n        /* \"#utility.yul\":17560:17609   */\n      sstore\n        /* \"#utility.yul\":17648:17649   */\n      0x01\n        /* \"#utility.yul\":17640:17646   */\n      dup3\n        /* \"#utility.yul\":17636:17650   */\n      add\n        /* \"#utility.yul\":17626:17650   */\n      swap2\n      pop\n        /* \"#utility.yul\":17695:17697   */\n      0x20\n        /* \"#utility.yul\":17684:17693   */\n      dup6\n        /* \"#utility.yul\":17680:17698   */\n      add\n        /* \"#utility.yul\":17667:17698   */\n      swap5\n      pop\n        /* \"#utility.yul\":17534:17538   */\n      0x20\n        /* \"#utility.yul\":17531:17532   */\n      dup2\n        /* \"#utility.yul\":17527:17539   */\n      add\n        /* \"#utility.yul\":17522:17539   */\n      swap1\n      pop\n        /* \"#utility.yul\":17497:17712   */\n      jump(tag_490)\n    tag_492:\n        /* \"#utility.yul\":17740:17746   */\n      dup7\n        /* \"#utility.yul\":17731:17738   */\n      dup4\n        /* \"#utility.yul\":17728:17747   */\n      lt\n        /* \"#utility.yul\":17725:17911   */\n      iszero\n      tag_493\n      jumpi\n        /* \"#utility.yul\":17805:17814   */\n      dup5\n        /* \"#utility.yul\":17800:17803   */\n      dup10\n        /* \"#utility.yul\":17796:17815   */\n      add\n        /* \"#utility.yul\":17783:17816   */\n      calldataload\n        /* \"#utility.yul\":17848:17896   */\n      tag_494\n        /* \"#utility.yul\":17890:17894   */\n      0x1f\n        /* \"#utility.yul\":17882:17888   */\n      dup10\n        /* \"#utility.yul\":17878:17895   */\n      and\n        /* \"#utility.yul\":17867:17876   */\n      dup3\n        /* \"#utility.yul\":17848:17896   */\n      tag_299\n      jump\t// in\n    tag_494:\n        /* \"#utility.yul\":17840:17846   */\n      dup4\n        /* \"#utility.yul\":17833:17897   */\n      sstore\n        /* \"#utility.yul\":17748:17911   */\n      pop\n        /* \"#utility.yul\":17725:17911   */\n    tag_493:\n        /* \"#utility.yul\":17957:17958   */\n      0x01\n        /* \"#utility.yul\":17953:17954   */\n      0x02\n        /* \"#utility.yul\":17945:17951   */\n      dup9\n        /* \"#utility.yul\":17941:17955   */\n      mul\n        /* \"#utility.yul\":17937:17959   */\n      add\n        /* \"#utility.yul\":17931:17935   */\n      dup9\n        /* \"#utility.yul\":17924:17960   */\n      sstore\n        /* \"#utility.yul\":17345:17970   */\n      pop\n      pop\n      pop\n        /* \"#utility.yul\":17308:18216   */\n    tag_485:\n      pop\n        /* \"#utility.yul\":16918:18222   */\n      pop\n      pop\n      pop\n        /* \"#utility.yul\":16819:18222   */\n      pop\n      pop\n      pop\n      jump\t// out\n        /* \"#utility.yul\":18228:18408   */\n    tag_301:\n        /* \"#utility.yul\":18276:18353   */\n      0x4e487b7100000000000000000000000000000000000000000000000000000000\n        /* \"#utility.yul\":18273:18274   */\n      0x00\n        /* \"#utility.yul\":18266:18354   */\n      mstore\n        /* \"#utility.yul\":18373:18377   */\n      0x11\n        /* \"#utility.yul\":18370:18371   */\n      0x04\n        /* \"#utility.yul\":18363:18378   */\n      mstore\n        /* \"#utility.yul\":18397:18401   */\n      0x24\n        /* \"#utility.yul\":18394:18395   */\n      0x00\n        /* \"#utility.yul\":18387:18402   */\n      revert\n        /* \"#utility.yul\":18414:18608   */\n    tag_127:\n        /* \"#utility.yul\":18454:18458   */\n      0x00\n        /* \"#utility.yul\":18474:18494   */\n      tag_497\n        /* \"#utility.yul\":18492:18493   */\n      dup3\n        /* \"#utility.yul\":18474:18494   */\n      tag_257\n      jump\t// in\n    tag_497:\n        /* \"#utility.yul\":18469:18494   */\n      swap2\n      pop\n        /* \"#utility.yul\":18508:18528   */\n      tag_498\n        /* \"#utility.yul\":18526:18527   */\n      dup4\n        /* \"#utility.yul\":18508:18528   */\n      tag_257\n      jump\t// in\n    tag_498:\n        /* \"#utility.yul\":18503:18528   */\n      swap3\n      pop\n        /* \"#utility.yul\":18552:18553   */\n      dup3\n        /* \"#utility.yul\":18549:18550   */\n      dup3\n        /* \"#utility.yul\":18545:18554   */\n      sub\n        /* \"#utility.yul\":18537:18554   */\n      swap1\n      pop\n        /* \"#utility.yul\":18576:18577   */\n      dup2\n        /* \"#utility.yul\":18570:18574   */\n      dup2\n        /* \"#utility.yul\":18567:18578   */\n      gt\n        /* \"#utility.yul\":18564:18601   */\n      iszero\n      tag_499\n      jumpi\n        /* \"#utility.yul\":18581:18599   */\n      tag_500\n      tag_301\n      jump\t// in\n    tag_500:\n        /* \"#utility.yul\":18564:18601   */\n    tag_499:\n        /* \"#utility.yul\":18414:18608   */\n      swap3\n      swap2\n      pop\n      pop\n      jump\t// out\n        /* \"#utility.yul\":18614:18794   */\n    tag_131:\n        /* \"#utility.yul\":18662:18739   */\n      0x4e487b7100000000000000000000000000000000000000000000000000000000\n        /* \"#utility.yul\":18659:18660   */\n      0x00\n        /* \"#utility.yul\":18652:18740   */\n      mstore\n        /* \"#utility.yul\":18759:18763   */\n      0x32\n        /* \"#utility.yul\":18756:18757   */\n      0x04\n        /* \"#utility.yul\":18749:18764   */\n      mstore\n        /* \"#utility.yul\":18783:18787   */\n      0x24\n        /* \"#utility.yul\":18780:18781   */\n      0x00\n        /* \"#utility.yul\":18773:18788   */\n      revert\n        /* \"#utility.yul\":18800:18991   */\n    tag_143:\n        /* \"#utility.yul\":18840:18843   */\n      0x00\n        /* \"#utility.yul\":18859:18879   */\n      tag_503\n        /* \"#utility.yul\":18877:18878   */\n      dup3\n        /* \"#utility.yul\":18859:18879   */\n      tag_257\n      jump\t// in\n    tag_503:\n        /* \"#utility.yul\":18854:18879   */\n      swap2\n      pop\n        /* \"#utility.yul\":18893:18913   */\n      tag_504\n        /* \"#utility.yul\":18911:18912   */\n      dup4\n        /* \"#utility.yul\":18893:18913   */\n      tag_257\n      jump\t// in\n    tag_504:\n        /* \"#utility.yul\":18888:18913   */\n      swap3\n      pop\n        /* \"#utility.yul\":18936:18937   */\n      dup3\n        /* \"#utility.yul\":18933:18934   */\n      dup3\n        /* \"#utility.yul\":18929:18938   */\n      add\n        /* \"#utility.yul\":18922:18938   */\n      swap1\n      pop\n        /* \"#utility.yul\":18957:18960   */\n      dup1\n        /* \"#utility.yul\":18954:18955   */\n      dup3\n        /* \"#utility.yul\":18951:18961   */\n      gt\n        /* \"#utility.yul\":18948:18984   */\n      iszero\n      tag_505\n      jumpi\n        /* \"#utility.yul\":18964:18982   */\n      tag_506\n      tag_301\n      jump\t// in\n    tag_506:\n        /* \"#utility.yul\":18948:18984   */\n    tag_505:\n        /* \"#utility.yul\":18800:18991   */\n      swap3\n      swap2\n      pop\n      pop\n      jump\t// out\n        /* \"#utility.yul\":18997:19177   */\n    tag_146:\n        /* \"#utility.yul\":19045:19122   */\n      0x4e487b7100000000000000000000000000000000000000000000000000000000\n        /* \"#utility.yul\":19042:19043   */\n      0x00\n        /* \"#utility.yul\":19035:19123   */\n      mstore\n        /* \"#utility.yul\":19142:19146   */\n      0x21\n        /* \"#utility.yul\":19139:19140   */\n      0x04\n        /* \"#utility.yul\":19132:19147   */\n      mstore\n        /* \"#utility.yul\":19166:19170   */\n      0x24\n        /* \"#utility.yul\":19163:19164   */\n      0x00\n        /* \"#utility.yul\":19156:19171   */\n      revert\n        /* \"#utility.yul\":19183:19301   */\n    tag_302:\n        /* \"#utility.yul\":19270:19294   */\n      tag_509\n        /* \"#utility.yul\":19288:19293   */\n      dup2\n        /* \"#utility.yul\":19270:19294   */\n      tag_254\n      jump\t// in\n    tag_509:\n        /* \"#utility.yul\":19265:19268   */\n      dup3\n        /* \"#utility.yul\":19258:19295   */\n      mstore\n        /* \"#utility.yul\":19183:19301   */\n      pop\n      pop\n      jump\t// out\n        /* \"#utility.yul\":19307:19749   */\n    tag_197:\n        /* \"#utility.yul\":19456:19460   */\n      0x00\n        /* \"#utility.yul\":19494:19496   */\n      0x60\n        /* \"#utility.yul\":19483:19492   */\n      dup3\n        /* \"#utility.yul\":19479:19497   */\n      add\n        /* \"#utility.yul\":19471:19497   */\n      swap1\n      pop\n        /* \"#utility.yul\":19507:19578   */\n      tag_511\n        /* \"#utility.yul\":19575:19576   */\n      0x00\n        /* \"#utility.yul\":19564:19573   */\n      dup4\n        /* \"#utility.yul\":19560:19577   */\n      add\n        /* \"#utility.yul\":19551:19557   */\n      dup7\n        /* \"#utility.yul\":19507:19578   */\n      tag_302\n      jump\t// in\n    tag_511:\n        /* \"#utility.yul\":19588:19660   */\n      tag_512\n        /* \"#utility.yul\":19656:19658   */\n      0x20\n        /* \"#utility.yul\":19645:19654   */\n      dup4\n        /* \"#utility.yul\":19641:19659   */\n      add\n        /* \"#utility.yul\":19632:19638   */\n      dup6\n        /* \"#utility.yul\":19588:19660   */\n      tag_262\n      jump\t// in\n    tag_512:\n        /* \"#utility.yul\":19670:19742   */\n      tag_513\n        /* \"#utility.yul\":19738:19740   */\n      0x40\n        /* \"#utility.yul\":19727:19736   */\n      dup4\n        /* \"#utility.yul\":19723:19741   */\n      add\n        /* \"#utility.yul\":19714:19720   */\n      dup5\n        /* \"#utility.yul\":19670:19742   */\n      tag_262\n      jump\t// in\n    tag_513:\n        /* \"#utility.yul\":19307:19749   */\n      swap5\n      swap4\n      pop\n      pop\n      pop\n      pop\n      jump\t// out\n        /* \"#utility.yul\":19755:19977   */\n    tag_202:\n        /* \"#utility.yul\":19848:19852   */\n      0x00\n        /* \"#utility.yul\":19886:19888   */\n      0x20\n        /* \"#utility.yul\":19875:19884   */\n      dup3\n        /* \"#utility.yul\":19871:19889   */\n      add\n        /* \"#utility.yul\":19863:19889   */\n      swap1\n      pop\n        /* \"#utility.yul\":19899:19970   */\n      tag_515\n        /* \"#utility.yul\":19967:19968   */\n      0x00\n        /* \"#utility.yul\":19956:19965   */\n      dup4\n        /* \"#utility.yul\":19952:19969   */\n      add\n        /* \"#utility.yul\":19943:19949   */\n      dup5\n        /* \"#utility.yul\":19899:19970   */\n      tag_302\n      jump\t// in\n    tag_515:\n        /* \"#utility.yul\":19755:19977   */\n      swap3\n      swap2\n      pop\n      pop\n      jump\t// out\n\n    auxdata: 0xa2646970667358221220a58d705dc4b11aad11379170d684ea87aae7a10ae03138ecb1e5e0a968831d0964736f6c63430008190033\n}\n",
				"bytecode": {
					"linkReferences": {},
					"object": "6080604052620f4240600755348015610016575f80fd5b506040518060400160405280600e81526020017f5765696768746564566f74696e670000000000000000000000000000000000008152506040518060400160405280600281526020017f57560000000000000000000000000000000000000000000000000000000000008152508160039081610092919061036a565b5080600490816100a2919061036a565b5050505f600860018160018154018082558091505003905f5260205f20906009020190506040518060400160405280600581526020017f6275726e7400000000000000000000000000000000000000000000000000000081525081600201908161010c919061036a565b5060018160080160016101000a81548160ff02191690831515021790555050610439565b5f81519050919050565b7f4e487b71000000000000000000000000000000000000000000000000000000005f52604160045260245ffd5b7f4e487b71000000000000000000000000000000000000000000000000000000005f52602260045260245ffd5b5f60028204905060018216806101ab57607f821691505b6020821081036101be576101bd610167565b5b50919050565b5f819050815f5260205f209050919050565b5f6020601f8301049050919050565b5f82821b905092915050565b5f600883026102207fffffffffffffffffffffffffffffffffffffffffffffffffffffffffffffffff826101e5565b61022a86836101e5565b95508019841693508086168417925050509392505050565b5f819050919050565b5f819050919050565b5f61026e61026961026484610242565b61024b565b610242565b9050919050565b5f819050919050565b61028783610254565b61029b61029382610275565b8484546101f1565b825550505050565b5f90565b6102af6102a3565b6102ba81848461027e565b505050565b5b818110156102dd576102d25f826102a7565b6001810190506102c0565b5050565b601f821115610322576102f3816101c4565b6102fc846101d6565b8101602085101561030b578190505b61031f610317856101d6565b8301826102bf565b50505b505050565b5f82821c905092915050565b5f6103425f1984600802610327565b1980831691505092915050565b5f61035a8383610333565b9150826002028217905092915050565b61037382610130565b67ffffffffffffffff81111561038c5761038b61013a565b5b6103968254610194565b6103a18282856102e1565b5f60209050601f8311600181146103d2575f84156103c0578287015190505b6103ca858261034f565b865550610431565b601f1984166103e0866101c4565b5f5b82811015610407578489015182556001820191506020850194506020810190506103e2565b868310156104245784890151610420601f891682610333565b8355505b6001600288020188555050505b505050505050565b611dd3806104465f395ff3fe608060405234801561000f575f80fd5b50600436106100fe575f3560e01c806373b2e80e11610095578063976b311311610064578063976b3113146102c0578063a9059cbb146102f0578063d5abeb0114610320578063dd62ed3e1461033e576100fe565b806373b2e80e146102265780638615d85514610256578063943e82161461028657806395d89b41146102a2576100fe565b806327e235e3116100d157806327e235e31461019e578063313ce567146101ce5780634e71d92d146101ec57806370a08231146101f6576100fe565b806306fdde0314610102578063095ea7b31461012057806318160ddd1461015057806323b872dd1461016e575b5f80fd5b61010a61036e565b60405161011791906113ca565b60405180910390f35b61013a6004803603810190610135919061147f565b6103fe565b60405161014791906114d7565b60405180910390f35b610158610420565b60405161016591906114ff565b60405180910390f35b61018860048036038101906101839190611518565b610429565b60405161019591906114d7565b60405180910390f35b6101b860048036038101906101b39190611568565b610457565b6040516101c591906114ff565b60405180910390f35b6101d661046c565b6040516101e391906115ae565b60405180910390f35b6101f4610474565b005b610210600480360381019061020b9190611568565b610599565b60405161021d91906114ff565b60405180910390f35b610240600480360381019061023b9190611568565b6105de565b60405161024d91906114d7565b60405180910390f35b610270600480360381019061026b9190611628565b6105fb565b60405161027d91906114ff565b60405180910390f35b6102a0600480360381019061029b91906116a8565b6106e3565b005b6102aa61093c565b6040516102b791906113ca565b60405180910390f35b6102da60048036038101906102d591906116e6565b6109cc565b6040516102e791906118f7565b60405180910390f35b61030a6004803603810190610305919061147f565b610b0c565b60405161031791906114d7565b60405180910390f35b610328610b2e565b60405161033591906114ff565b60405180910390f35b61035860048036038101906103539190611917565b610b34565b60405161036591906114ff565b60405180910390f35b60606003805461037d90611982565b80601f01602080910402602001604051908101604052809291908181526020018280546103a990611982565b80156103f45780601f106103cb576101008083540402835291602001916103f4565b820191905f5260205f20905b8154815290600101906020018083116103d757829003601f168201915b5050505050905090565b5f80610408610bb6565b9050610415818585610bbd565b600191505092915050565b5f600254905090565b5f80610433610bb6565b9050610440858285610bcf565b61044b858585610c61565b60019150509392505050565b6005602052805f5260405f205f915090505481565b5f6012905090565b60065f3373ffffffffffffffffffffffffffffffffffffffff1673ffffffffffffffffffffffffffffffffffffffff1681526020019081526020015f205f9054906101000a900460ff16156104f5576040517f0b1327a600000000000000000000000000000000000000000000000000000000815260040160405180910390fd5b600754610500610420565b10610537576040517fcbe2483100000000000000000000000000000000000000000000000000000000815260040160405180910390fd5b600160065f3373ffffffffffffffffffffffffffffffffffffffff1673ffffffffffffffffffffffffffffffffffffffff1681526020019081526020015f205f6101000a81548160ff021916908315150217905550610597336064610d51565b565b5f805f8373ffffffffffffffffffffffffffffffffffffffff1673ffffffffffffffffffffffffffffffffffffffff1681526020019081526020015f20549050919050565b6006602052805f5260405f205f915054906101000a900460ff1681565b5f8061060633610599565b0361063d576040517f8439960d00000000000000000000000000000000000000000000000000000000815260040160405180910390fd5b610645610420565b82111561068957816040517f589a495200000000000000000000000000000000000000000000000000000000815260040161068091906114ff565b60405180910390fd5b5f600860018160018154018082558091505003905f5260205f209060090201905084848260020191826106bd929190611b86565b5082816007018190555060016008805490506106d99190611c80565b9150509392505050565b5f600883815481106106f8576106f7611cb3565b5b905f5260205f20906009020190508060080160019054906101000a900460ff161561074f576040517f66b6cb4a00000000000000000000000000000000000000000000000000000000815260040160405180910390fd5b61076433825f01610dd090919063ffffffff16565b1561079b576040517f7c9a1cf900000000000000000000000000000000000000000000000000000000815260040160405180910390fd5b5f6107a533610599565b036107dc576040517f8439960d00000000000000000000000000000000000000000000000000000000815260040160405180910390fd5b6107f133825f01610dfd90919063ffffffff16565b506107fb33610599565b816006015f82825461080d9190611ce0565b925050819055505f600281111561082757610826611d13565b5b82600281111561083a57610839611d13565b5b036108665761084833610599565b816003015f82825461085a9190611ce0565b925050819055506108dd565b6001600281111561087a57610879611d13565b5b82600281111561088d5761088c611d13565b5b036108b95761089b33610599565b816004015f8282546108ad9190611ce0565b925050819055506108dc565b6108c233610599565b816005015f8282546108d49190611ce0565b925050819055505b5b806007015481600601541061093757806004015481600301541115610919576001816008015f6101000a81548160ff0219169083151502179055505b60018160080160016101000a81548160ff0219169083151502179055505b505050565b60606004805461094b90611982565b80601f016020809104026020016040519081016040528092919081815260200182805461097790611982565b80156109c25780601f10610999576101008083540402835291602001916109c2565b820191905f5260205f20905b8154815290600101906020018083116109a557829003601f168201915b5050505050905090565b6109d4611311565b5f600883815481106109e9576109e8611cb3565b5b905f5260205f2090600902019050604051806101200160405280610a0e835f01610e2a565b8152602001826002018054610a2290611982565b80601f0160208091040260200160405190810160405280929190818152602001828054610a4e90611982565b8015610a995780601f10610a7057610100808354040283529160200191610a99565b820191905f5260205f20905b815481529060010190602001808311610a7c57829003601f168201915b505050505081526020018260030154815260200182600401548152602001826005015481526020018260060154815260200182600701548152602001826008015f9054906101000a900460ff16151581526020018260080160019054906101000a900460ff161515815250915050919050565b5f80610b16610bb6565b9050610b23818585610c61565b600191505092915050565b60075481565b5f60015f8473ffffffffffffffffffffffffffffffffffffffff1673ffffffffffffffffffffffffffffffffffffffff1681526020019081526020015f205f8373ffffffffffffffffffffffffffffffffffffffff1673ffffffffffffffffffffffffffffffffffffffff1681526020019081526020015f2054905092915050565b5f33905090565b610bca8383836001610e49565b505050565b5f610bda8484610b34565b90507fffffffffffffffffffffffffffffffffffffffffffffffffffffffffffffffff8114610c5b5781811015610c4c578281836040517ffb8f41b2000000000000000000000000000000000000000000000000000000008152600401610c4393929190611d4f565b60405180910390fd5b610c5a84848484035f610e49565b5b50505050565b5f73ffffffffffffffffffffffffffffffffffffffff168373ffffffffffffffffffffffffffffffffffffffff1603610cd1575f6040517f96c6fd1e000000000000000000000000000000000000000000000000000000008152600401610cc89190611d84565b60405180910390fd5b5f73ffffffffffffffffffffffffffffffffffffffff168273ffffffffffffffffffffffffffffffffffffffff1603610d41575f6040517fec442f05000000000000000000000000000000000000000000000000000000008152600401610d389190611d84565b60405180910390fd5b610d4c838383611018565b505050565b5f73ffffffffffffffffffffffffffffffffffffffff168273ffffffffffffffffffffffffffffffffffffffff1603610dc1575f6040517fec442f05000000000000000000000000000000000000000000000000000000008152600401610db89190611d84565b60405180910390fd5b610dcc5f8383611018565b5050565b5f610df5835f018373ffffffffffffffffffffffffffffffffffffffff165f1b611231565b905092915050565b5f610e22835f018373ffffffffffffffffffffffffffffffffffffffff165f1b611251565b905092915050565b60605f610e38835f016112b8565b905060608190508092505050919050565b5f73ffffffffffffffffffffffffffffffffffffffff168473ffffffffffffffffffffffffffffffffffffffff1603610eb9575f6040517fe602df05000000000000000000000000000000000000000000000000000000008152600401610eb09190611d84565b60405180910390fd5b5f73ffffffffffffffffffffffffffffffffffffffff168373ffffffffffffffffffffffffffffffffffffffff1603610f29575f6040517f94280d62000000000000000000000000000000000000000000000000000000008152600401610f209190611d84565b60405180910390fd5b8160015f8673ffffffffffffffffffffffffffffffffffffffff1673ffffffffffffffffffffffffffffffffffffffff1681526020019081526020015f205f8573ffffffffffffffffffffffffffffffffffffffff1673ffffffffffffffffffffffffffffffffffffffff1681526020019081526020015f20819055508015611012578273ffffffffffffffffffffffffffffffffffffffff168473ffffffffffffffffffffffffffffffffffffffff167f8c5be1e5ebec7d5bd14f71427d1e84f3dd0314c0f7b2291e5b200ac8c7c3b9258460405161100991906114ff565b60405180910390a35b50505050565b5f73ffffffffffffffffffffffffffffffffffffffff168373ffffffffffffffffffffffffffffffffffffffff1603611068578060025f82825461105c9190611ce0565b92505081905550611136565b5f805f8573ffffffffffffffffffffffffffffffffffffffff1673ffffffffffffffffffffffffffffffffffffffff1681526020019081526020015f20549050818110156110f1578381836040517fe450d38c0000000000000000000000000000000000000000000000000000000081526004016110e893929190611d4f565b60405180910390fd5b8181035f808673ffffffffffffffffffffffffffffffffffffffff1673ffffffffffffffffffffffffffffffffffffffff1681526020019081526020015f2081905550505b5f73ffffffffffffffffffffffffffffffffffffffff168273ffffffffffffffffffffffffffffffffffffffff160361117d578060025f82825403925050819055506111c7565b805f808473ffffffffffffffffffffffffffffffffffffffff1673ffffffffffffffffffffffffffffffffffffffff1681526020019081526020015f205f82825401925050819055505b8173ffffffffffffffffffffffffffffffffffffffff168373ffffffffffffffffffffffffffffffffffffffff167fddf252ad1be2c89b69c2b068fc378daa952ba7f163c4a11628f55a4df523b3ef8360405161122491906114ff565b60405180910390a3505050565b5f80836001015f8481526020019081526020015f20541415905092915050565b5f61125c8383611231565b6112ae57825f0182908060018154018082558091505060019003905f5260205f20015f9091909190915055825f0180549050836001015f8481526020019081526020015f2081905550600190506112b2565b5f90505b92915050565b6060815f0180548060200260200160405190810160405280929190818152602001828054801561130557602002820191905f5260205f20905b8154815260200190600101908083116112f1575b50505050509050919050565b60405180610120016040528060608152602001606081526020015f81526020015f81526020015f81526020015f81526020015f81526020015f151581526020015f151581525090565b5f81519050919050565b5f82825260208201905092915050565b8281835e5f83830152505050565b5f601f19601f8301169050919050565b5f61139c8261135a565b6113a68185611364565b93506113b6818560208601611374565b6113bf81611382565b840191505092915050565b5f6020820190508181035f8301526113e28184611392565b905092915050565b5f80fd5b5f80fd5b5f73ffffffffffffffffffffffffffffffffffffffff82169050919050565b5f61141b826113f2565b9050919050565b61142b81611411565b8114611435575f80fd5b50565b5f8135905061144681611422565b92915050565b5f819050919050565b61145e8161144c565b8114611468575f80fd5b50565b5f8135905061147981611455565b92915050565b5f8060408385031215611495576114946113ea565b5b5f6114a285828601611438565b92505060206114b38582860161146b565b9150509250929050565b5f8115159050919050565b6114d1816114bd565b82525050565b5f6020820190506114ea5f8301846114c8565b92915050565b6114f98161144c565b82525050565b5f6020820190506115125f8301846114f0565b92915050565b5f805f6060848603121561152f5761152e6113ea565b5b5f61153c86828701611438565b935050602061154d86828701611438565b925050604061155e8682870161146b565b9150509250925092565b5f6020828403121561157d5761157c6113ea565b5b5f61158a84828501611438565b91505092915050565b5f60ff82169050919050565b6115a881611593565b82525050565b5f6020820190506115c15f83018461159f565b92915050565b5f80fd5b5f80fd5b5f80fd5b5f8083601f8401126115e8576115e76115c7565b5b8235905067ffffffffffffffff811115611605576116046115cb565b5b602083019150836001820283011115611621576116206115cf565b5b9250929050565b5f805f6040848603121561163f5761163e6113ea565b5b5f84013567ffffffffffffffff81111561165c5761165b6113ee565b5b611668868287016115d3565b9350935050602061167b8682870161146b565b9150509250925092565b60038110611691575f80fd5b50565b5f813590506116a281611685565b92915050565b5f80604083850312156116be576116bd6113ea565b5b5f6116cb8582860161146b565b92505060206116dc85828601611694565b9150509250929050565b5f602082840312156116fb576116fa6113ea565b5b5f6117088482850161146b565b91505092915050565b5f81519050919050565b5f82825260208201905092915050565b5f819050602082019050919050565b61174381611411565b82525050565b5f611754838361173a565b60208301905092915050565b5f602082019050919050565b5f61177682611711565b611780818561171b565b935061178b8361172b565b805f5b838110156117bb5781516117a28882611749565b97506117ad83611760565b92505060018101905061178e565b5085935050505092915050565b5f82825260208201905092915050565b5f6117e28261135a565b6117ec81856117c8565b93506117fc818560208601611374565b61180581611382565b840191505092915050565b6118198161144c565b82525050565b611828816114bd565b82525050565b5f61012083015f8301518482035f860152611849828261176c565b9150506020830151848203602086015261186382826117d8565b91505060408301516118786040860182611810565b50606083015161188b6060860182611810565b50608083015161189e6080860182611810565b5060a08301516118b160a0860182611810565b5060c08301516118c460c0860182611810565b5060e08301516118d760e086018261181f565b506101008301516118ec61010086018261181f565b508091505092915050565b5f6020820190508181035f83015261190f818461182e565b905092915050565b5f806040838503121561192d5761192c6113ea565b5b5f61193a85828601611438565b925050602061194b85828601611438565b9150509250929050565b7f4e487b71000000000000000000000000000000000000000000000000000000005f52602260045260245ffd5b5f600282049050600182168061199957607f821691505b6020821081036119ac576119ab611955565b5b50919050565b5f82905092915050565b7f4e487b71000000000000000000000000000000000000000000000000000000005f52604160045260245ffd5b5f819050815f5260205f209050919050565b5f6020601f8301049050919050565b5f82821b905092915050565b5f60088302611a457fffffffffffffffffffffffffffffffffffffffffffffffffffffffffffffffff82611a0a565b611a4f8683611a0a565b95508019841693508086168417925050509392505050565b5f819050919050565b5f611a8a611a85611a808461144c565b611a67565b61144c565b9050919050565b5f819050919050565b611aa383611a70565b611ab7611aaf82611a91565b848454611a16565b825550505050565b5f90565b611acb611abf565b611ad6818484611a9a565b505050565b5b81811015611af957611aee5f82611ac3565b600181019050611adc565b5050565b601f821115611b3e57611b0f816119e9565b611b18846119fb565b81016020851015611b27578190505b611b3b611b33856119fb565b830182611adb565b50505b505050565b5f82821c905092915050565b5f611b5e5f1984600802611b43565b1980831691505092915050565b5f611b768383611b4f565b9150826002028217905092915050565b611b9083836119b2565b67ffffffffffffffff811115611ba957611ba86119bc565b5b611bb38254611982565b611bbe828285611afd565b5f601f831160018114611beb575f8415611bd9578287013590505b611be38582611b6b565b865550611c4a565b601f198416611bf9866119e9565b5f5b82811015611c2057848901358255600182019150602085019450602081019050611bfb565b86831015611c3d5784890135611c39601f891682611b4f565b8355505b6001600288020188555050505b50505050505050565b7f4e487b71000000000000000000000000000000000000000000000000000000005f52601160045260245ffd5b5f611c8a8261144c565b9150611c958361144c565b9250828203905081811115611cad57611cac611c53565b5b92915050565b7f4e487b71000000000000000000000000000000000000000000000000000000005f52603260045260245ffd5b5f611cea8261144c565b9150611cf58361144c565b9250828201905080821115611d0d57611d0c611c53565b5b92915050565b7f4e487b71000000000000000000000000000000000000000000000000000000005f52602160045260245ffd5b611d4981611411565b82525050565b5f606082019050611d625f830186611d40565b611d6f60208301856114f0565b611d7c60408301846114f0565b949350505050565b5f602082019050611d975f830184611d40565b9291505056fea2646970667358221220a58d705dc4b11aad11379170d684ea87aae7a10ae03138ecb1e5e0a968831d0964736f6c63430008190033",
					"opcodes": "PUSH1 0x80 PUSH1 0x40 MSTORE PUSH3 0xF4240 PUSH1 0x7 SSTORE CALLVALUE DUP1 ISZERO PUSH2 0x16 JUMPI PUSH0 DUP1 REVERT JUMPDEST POP PUSH1 0x40 MLOAD DUP1 PUSH1 0x40 ADD PUSH1 0x40 MSTORE DUP1 PUSH1 0xE DUP2 MSTORE PUSH1 0x20 ADD PUSH32 0x5765696768746564566F74696E67000000000000000000000000000000000000 DUP2 MSTORE POP PUSH1 0x40 MLOAD DUP1 PUSH1 0x40 ADD PUSH1 0x40 MSTORE DUP1 PUSH1 0x2 DUP2 MSTORE PUSH1 0x20 ADD PUSH32 0x5756000000000000000000000000000000000000000000000000000000000000 DUP2 MSTORE POP DUP2 PUSH1 0x3 SWAP1 DUP2 PUSH2 0x92 SWAP2 SWAP1 PUSH2 0x36A JUMP JUMPDEST POP DUP1 PUSH1 0x4 SWAP1 DUP2 PUSH2 0xA2 SWAP2 SWAP1 PUSH2 0x36A JUMP JUMPDEST POP POP POP PUSH0 PUSH1 0x8 PUSH1 0x1 DUP2 PUSH1 0x1 DUP2 SLOAD ADD DUP1 DUP3 SSTORE DUP1 SWAP2 POP POP SUB SWAP1 PUSH0 MSTORE PUSH1 0x20 PUSH0 KECCAK256 SWAP1 PUSH1 0x9 MUL ADD SWAP1 POP PUSH1 0x40 MLOAD DUP1 PUSH1 0x40 ADD PUSH1 0x40 MSTORE DUP1 PUSH1 0x5 DUP2 MSTORE PUSH1 0x20 ADD PUSH32 0x6275726E74000000000000000000000000000000000000000000000000000000 DUP2 MSTORE POP DUP2 PUSH1 0x2 ADD SWAP1 DUP2 PUSH2 0x10C SWAP2 SWAP1 PUSH2 0x36A JUMP JUMPDEST POP PUSH1 0x1 DUP2 PUSH1 0x8 ADD PUSH1 0x1 PUSH2 0x100 EXP DUP2 SLOAD DUP2 PUSH1 0xFF MUL NOT AND SWAP1 DUP4 ISZERO ISZERO MUL OR SWAP1 SSTORE POP POP PUSH2 0x439 JUMP JUMPDEST PUSH0 DUP2 MLOAD SWAP1 POP SWAP2 SWAP1 POP JUMP JUMPDEST PUSH32 0x4E487B7100000000000000000000000000000000000000000000000000000000 PUSH0 MSTORE PUSH1 0x41 PUSH1 0x4 MSTORE PUSH1 0x24 PUSH0 REVERT JUMPDEST PUSH32 0x4E487B7100000000000000000000000000000000000000000000000000000000 PUSH0 MSTORE PUSH1 0x22 PUSH1 0x4 MSTORE PUSH1 0x24 PUSH0 REVERT JUMPDEST PUSH0 PUSH1 0x2 DUP3 DIV SWAP1 POP PUSH1 0x1 DUP3 AND DUP1 PUSH2 0x1AB JUMPI PUSH1 0x7F DUP3 AND SWAP2 POP JUMPDEST PUSH1 0x20 DUP3 LT DUP2 SUB PUSH2 0x1BE JUMPI PUSH2 0x1BD PUSH2 0x167 JUMP JUMPDEST JUMPDEST POP SWAP2 SWAP1 POP JUMP JUMPDEST PUSH0 DUP2 SWAP1 POP DUP2 PUSH0 MSTORE PUSH1 0x20 PUSH0 KECCAK256 SWAP1 POP SWAP2 SWAP1 POP JUMP JUMPDEST PUSH0 PUSH1 0x20 PUSH1 0x1F DUP4 ADD DIV SWAP1 POP SWAP2 SWAP1 POP JUMP JUMPDEST PUSH0 DUP3 DUP3 SHL SWAP1 POP SWAP3 SWAP2 POP POP JUMP JUMPDEST PUSH0 PUSH1 0x8 DUP4 MUL PUSH2 0x220 PUSH32 0xFFFFFFFFFFFFFFFFFFFFFFFFFFFFFFFFFFFFFFFFFFFFFFFFFFFFFFFFFFFFFFFF DUP3 PUSH2 0x1E5 JUMP JUMPDEST PUSH2 0x22A DUP7 DUP4 PUSH2 0x1E5 JUMP JUMPDEST SWAP6 POP DUP1 NOT DUP5 AND SWAP4 POP DUP1 DUP7 AND DUP5 OR SWAP3 POP POP POP SWAP4 SWAP3 POP POP POP JUMP JUMPDEST PUSH0 DUP2 SWAP1 POP SWAP2 SWAP1 POP JUMP JUMPDEST PUSH0 DUP2 SWAP1 POP SWAP2 SWAP1 POP JUMP JUMPDEST PUSH0 PUSH2 0x26E PUSH2 0x269 PUSH2 0x264 DUP5 PUSH2 0x242 JUMP JUMPDEST PUSH2 0x24B JUMP JUMPDEST PUSH2 0x242 JUMP JUMPDEST SWAP1 POP SWAP2 SWAP1 POP JUMP JUMPDEST PUSH0 DUP2 SWAP1 POP SWAP2 SWAP1 POP JUMP JUMPDEST PUSH2 0x287 DUP4 PUSH2 0x254 JUMP JUMPDEST PUSH2 0x29B PUSH2 0x293 DUP3 PUSH2 0x275 JUMP JUMPDEST DUP5 DUP5 SLOAD PUSH2 0x1F1 JUMP JUMPDEST DUP3 SSTORE POP POP POP POP JUMP JUMPDEST PUSH0 SWAP1 JUMP JUMPDEST PUSH2 0x2AF PUSH2 0x2A3 JUMP JUMPDEST PUSH2 0x2BA DUP2 DUP5 DUP5 PUSH2 0x27E JUMP JUMPDEST POP POP POP JUMP JUMPDEST JUMPDEST DUP2 DUP2 LT ISZERO PUSH2 0x2DD JUMPI PUSH2 0x2D2 PUSH0 DUP3 PUSH2 0x2A7 JUMP JUMPDEST PUSH1 0x1 DUP2 ADD SWAP1 POP PUSH2 0x2C0 JUMP JUMPDEST POP POP JUMP JUMPDEST PUSH1 0x1F DUP3 GT ISZERO PUSH2 0x322 JUMPI PUSH2 0x2F3 DUP2 PUSH2 0x1C4 JUMP JUMPDEST PUSH2 0x2FC DUP5 PUSH2 0x1D6 JUMP JUMPDEST DUP2 ADD PUSH1 0x20 DUP6 LT ISZERO PUSH2 0x30B JUMPI DUP2 SWAP1 POP JUMPDEST PUSH2 0x31F PUSH2 0x317 DUP6 PUSH2 0x1D6 JUMP JUMPDEST DUP4 ADD DUP3 PUSH2 0x2BF JUMP JUMPDEST POP POP JUMPDEST POP POP POP JUMP JUMPDEST PUSH0 DUP3 DUP3 SHR SWAP1 POP SWAP3 SWAP2 POP POP JUMP JUMPDEST PUSH0 PUSH2 0x342 PUSH0 NOT DUP5 PUSH1 0x8 MUL PUSH2 0x327 JUMP JUMPDEST NOT DUP1 DUP4 AND SWAP2 POP POP SWAP3 SWAP2 POP POP JUMP JUMPDEST PUSH0 PUSH2 0x35A DUP4 DUP4 PUSH2 0x333 JUMP JUMPDEST SWAP2 POP DUP3 PUSH1 0x2 MUL DUP3 OR SWAP1 POP SWAP3 SWAP2 POP POP JUMP JUMPDEST PUSH2 0x373 DUP3 PUSH2 0x130 JUMP JUMPDEST PUSH8 0xFFFFFFFFFFFFFFFF DUP2 GT ISZERO PUSH2 0x38C JUMPI PUSH2 0x38B PUSH2 0x13A JUMP JUMPDEST JUMPDEST PUSH2 0x396 DUP3 SLOAD PUSH2 0x194 JUMP JUMPDEST PUSH2 0x3A1 DUP3 DUP3 DUP6 PUSH2 0x2E1 JUMP JUMPDEST PUSH0 PUSH1 0x20 SWAP1 POP PUSH1 0x1F DUP4 GT PUSH1 0x1 DUP2 EQ PUSH2 0x3D2 JUMPI PUSH0 DUP5 ISZERO PUSH2 0x3C0 JUMPI DUP3 DUP8 ADD MLOAD SWAP1 POP JUMPDEST PUSH2 0x3CA DUP6 DUP3 PUSH2 0x34F JUMP JUMPDEST DUP7 SSTORE POP PUSH2 0x431 JUMP JUMPDEST PUSH1 0x1F NOT DUP5 AND PUSH2 0x3E0 DUP7 PUSH2 0x1C4 JUMP JUMPDEST PUSH0 JUMPDEST DUP3 DUP2 LT ISZERO PUSH2 0x407 JUMPI DUP5 DUP10 ADD MLOAD DUP3 SSTORE PUSH1 0x1 DUP3 ADD SWAP2 POP PUSH1 0x20 DUP6 ADD SWAP5 POP PUSH1 0x20 DUP2 ADD SWAP1 POP PUSH2 0x3E2 JUMP JUMPDEST DUP7 DUP4 LT ISZERO PUSH2 0x424 JUMPI DUP5 DUP10 ADD MLOAD PUSH2 0x420 PUSH1 0x1F DUP10 AND DUP3 PUSH2 0x333 JUMP JUMPDEST DUP4 SSTORE POP JUMPDEST PUSH1 0x1 PUSH1 0x2 DUP9 MUL ADD DUP9 SSTORE POP POP POP JUMPDEST POP POP POP POP POP POP JUMP JUMPDEST PUSH2 0x1DD3 DUP1 PUSH2 0x446 PUSH0 CODECOPY PUSH0 RETURN INVALID PUSH1 0x80 PUSH1 0x40 MSTORE CALLVALUE DUP1 ISZERO PUSH2 0xF JUMPI PUSH0 DUP1 REVERT JUMPDEST POP PUSH1 0x4 CALLDATASIZE LT PUSH2 0xFE JUMPI PUSH0 CALLDATALOAD PUSH1 0xE0 SHR DUP1 PUSH4 0x73B2E80E GT PUSH2 0x95 JUMPI DUP1 PUSH4 0x976B3113 GT PUSH2 0x64 JUMPI DUP1 PUSH4 0x976B3113 EQ PUSH2 0x2C0 JUMPI DUP1 PUSH4 0xA9059CBB EQ PUSH2 0x2F0 JUMPI DUP1 PUSH4 0xD5ABEB01 EQ PUSH2 0x320 JUMPI DUP1 PUSH4 0xDD62ED3E EQ PUSH2 0x33E JUMPI PUSH2 0xFE JUMP JUMPDEST DUP1 PUSH4 0x73B2E80E EQ PUSH2 0x226 JUMPI DUP1 PUSH4 0x8615D855 EQ PUSH2 0x256 JUMPI DUP1 PUSH4 0x943E8216 EQ PUSH2 0x286 JUMPI DUP1 PUSH4 0x95D89B41 EQ PUSH2 0x2A2 JUMPI PUSH2 0xFE JUMP JUMPDEST DUP1 PUSH4 0x27E235E3 GT PUSH2 0xD1 JUMPI DUP1 PUSH4 0x27E235E3 EQ PUSH2 0x19E JUMPI DUP1 PUSH4 0x313CE567 EQ PUSH2 0x1CE JUMPI DUP1 PUSH4 0x4E71D92D EQ PUSH2 0x1EC JUMPI DUP1 PUSH4 0x70A08231 EQ PUSH2 0x1F6 JUMPI PUSH2 0xFE JUMP JUMPDEST DUP1 PUSH4 0x6FDDE03 EQ PUSH2 0x102 JUMPI DUP1 PUSH4 0x95EA7B3 EQ PUSH2 0x120 JUMPI DUP1 PUSH4 0x18160DDD EQ PUSH2 0x150 JUMPI DUP1 PUSH4 0x23B872DD EQ PUSH2 0x16E JUMPI JUMPDEST PUSH0 DUP1 REVERT JUMPDEST PUSH2 0x10A PUSH2 0x36E JUMP JUMPDEST PUSH1 0x40 MLOAD PUSH2 0x117 SWAP2 SWAP1 PUSH2 0x13CA JUMP JUMPDEST PUSH1 0x40 MLOAD DUP1 SWAP2 SUB SWAP1 RETURN JUMPDEST PUSH2 0x13A PUSH1 0x4 DUP1 CALLDATASIZE SUB DUP2 ADD SWAP1 PUSH2 0x135 SWAP2 SWAP1 PUSH2 0x147F JUMP JUMPDEST PUSH2 0x3FE JUMP JUMPDEST PUSH1 0x40 MLOAD PUSH2 0x147 SWAP2 SWAP1 PUSH2 0x14D7 JUMP JUMPDEST PUSH1 0x40 MLOAD DUP1 SWAP2 SUB SWAP1 RETURN JUMPDEST PUSH2 0x158 PUSH2 0x420 JUMP JUMPDEST PUSH1 0x40 MLOAD PUSH2 0x165 SWAP2 SWAP1 PUSH2 0x14FF JUMP JUMPDEST PUSH1 0x40 MLOAD DUP1 SWAP2 SUB SWAP1 RETURN JUMPDEST PUSH2 0x188 PUSH1 0x4 DUP1 CALLDATASIZE SUB DUP2 ADD SWAP1 PUSH2 0x183 SWAP2 SWAP1 PUSH2 0x1518 JUMP JUMPDEST PUSH2 0x429 JUMP JUMPDEST PUSH1 0x40 MLOAD PUSH2 0x195 SWAP2 SWAP1 PUSH2 0x14D7 JUMP JUMPDEST PUSH1 0x40 MLOAD DUP1 SWAP2 SUB SWAP1 RETURN JUMPDEST PUSH2 0x1B8 PUSH1 0x4 DUP1 CALLDATASIZE SUB DUP2 ADD SWAP1 PUSH2 0x1B3 SWAP2 SWAP1 PUSH2 0x1568 JUMP JUMPDEST PUSH2 0x457 JUMP JUMPDEST PUSH1 0x40 MLOAD PUSH2 0x1C5 SWAP2 SWAP1 PUSH2 0x14FF JUMP JUMPDEST PUSH1 0x40 MLOAD DUP1 SWAP2 SUB SWAP1 RETURN JUMPDEST PUSH2 0x1D6 PUSH2 0x46C JUMP JUMPDEST PUSH1 0x40 MLOAD PUSH2 0x1E3 SWAP2 SWAP1 PUSH2 0x15AE JUMP JUMPDEST PUSH1 0x40 MLOAD DUP1 SWAP2 SUB SWAP1 RETURN JUMPDEST PUSH2 0x1F4 PUSH2 0x474 JUMP JUMPDEST STOP JUMPDEST PUSH2 0x210 PUSH1 0x4 DUP1 CALLDATASIZE SUB DUP2 ADD SWAP1 PUSH2 0x20B SWAP2 SWAP1 PUSH2 0x1568 JUMP JUMPDEST PUSH2 0x599 JUMP JUMPDEST PUSH1 0x40 MLOAD PUSH2 0x21D SWAP2 SWAP1 PUSH2 0x14FF JUMP JUMPDEST PUSH1 0x40 MLOAD DUP1 SWAP2 SUB SWAP1 RETURN JUMPDEST PUSH2 0x240 PUSH1 0x4 DUP1 CALLDATASIZE SUB DUP2 ADD SWAP1 PUSH2 0x23B SWAP2 SWAP1 PUSH2 0x1568 JUMP JUMPDEST PUSH2 0x5DE JUMP JUMPDEST PUSH1 0x40 MLOAD PUSH2 0x24D SWAP2 SWAP1 PUSH2 0x14D7 JUMP JUMPDEST PUSH1 0x40 MLOAD DUP1 SWAP2 SUB SWAP1 RETURN JUMPDEST PUSH2 0x270 PUSH1 0x4 DUP1 CALLDATASIZE SUB DUP2 ADD SWAP1 PUSH2 0x26B SWAP2 SWAP1 PUSH2 0x1628 JUMP JUMPDEST PUSH2 0x5FB JUMP JUMPDEST PUSH1 0x40 MLOAD PUSH2 0x27D SWAP2 SWAP1 PUSH2 0x14FF JUMP JUMPDEST PUSH1 0x40 MLOAD DUP1 SWAP2 SUB SWAP1 RETURN JUMPDEST PUSH2 0x2A0 PUSH1 0x4 DUP1 CALLDATASIZE SUB DUP2 ADD SWAP1 PUSH2 0x29B SWAP2 SWAP1 PUSH2 0x16A8 JUMP JUMPDEST PUSH2 0x6E3 JUMP JUMPDEST STOP JUMPDEST PUSH2 0x2AA PUSH2 0x93C JUMP JUMPDEST PUSH1 0x40 MLOAD PUSH2 0x2B7 SWAP2 SWAP1 PUSH2 0x13CA JUMP JUMPDEST PUSH1 0x40 MLOAD DUP1 SWAP2 SUB SWAP1 RETURN JUMPDEST PUSH2 0x2DA PUSH1 0x4 DUP1 CALLDATASIZE SUB DUP2 ADD SWAP1 PUSH2 0x2D5 SWAP2 SWAP1 PUSH2 0x16E6 JUMP JUMPDEST PUSH2 0x9CC JUMP JUMPDEST PUSH1 0x40 MLOAD PUSH2 0x2E7 SWAP2 SWAP1 PUSH2 0x18F7 JUMP JUMPDEST PUSH1 0x40 MLOAD DUP1 SWAP2 SUB SWAP1 RETURN JUMPDEST PUSH2 0x30A PUSH1 0x4 DUP1 CALLDATASIZE SUB DUP2 ADD SWAP1 PUSH2 0x305 SWAP2 SWAP1 PUSH2 0x147F JUMP JUMPDEST PUSH2 0xB0C JUMP JUMPDEST PUSH1 0x40 MLOAD PUSH2 0x317 SWAP2 SWAP1 PUSH2 0x14D7 JUMP JUMPDEST PUSH1 0x40 MLOAD DUP1 SWAP2 SUB SWAP1 RETURN JUMPDEST PUSH2 0x328 PUSH2 0xB2E JUMP JUMPDEST PUSH1 0x40 MLOAD PUSH2 0x335 SWAP2 SWAP1 PUSH2 0x14FF JUMP JUMPDEST PUSH1 0x40 MLOAD DUP1 SWAP2 SUB SWAP1 RETURN JUMPDEST PUSH2 0x358 PUSH1 0x4 DUP1 CALLDATASIZE SUB DUP2 ADD SWAP1 PUSH2 0x353 SWAP2 SWAP1 PUSH2 0x1917 JUMP JUMPDEST PUSH2 0xB34 JUMP JUMPDEST PUSH1 0x40 MLOAD PUSH2 0x365 SWAP2 SWAP1 PUSH2 0x14FF JUMP JUMPDEST PUSH1 0x40 MLOAD DUP1 SWAP2 SUB SWAP1 RETURN JUMPDEST PUSH1 0x60 PUSH1 0x3 DUP1 SLOAD PUSH2 0x37D SWAP1 PUSH2 0x1982 JUMP JUMPDEST DUP1 PUSH1 0x1F ADD PUSH1 0x20 DUP1 SWAP2 DIV MUL PUSH1 0x20 ADD PUSH1 0x40 MLOAD SWAP1 DUP2 ADD PUSH1 0x40 MSTORE DUP1 SWAP3 SWAP2 SWAP1 DUP2 DUP2 MSTORE PUSH1 0x20 ADD DUP3 DUP1 SLOAD PUSH2 0x3A9 SWAP1 PUSH2 0x1982 JUMP JUMPDEST DUP1 ISZERO PUSH2 0x3F4 JUMPI DUP1 PUSH1 0x1F LT PUSH2 0x3CB JUMPI PUSH2 0x100 DUP1 DUP4 SLOAD DIV MUL DUP4 MSTORE SWAP2 PUSH1 0x20 ADD SWAP2 PUSH2 0x3F4 JUMP JUMPDEST DUP3 ADD SWAP2 SWAP1 PUSH0 MSTORE PUSH1 0x20 PUSH0 KECCAK256 SWAP1 JUMPDEST DUP2 SLOAD DUP2 MSTORE SWAP1 PUSH1 0x1 ADD SWAP1 PUSH1 0x20 ADD DUP1 DUP4 GT PUSH2 0x3D7 JUMPI DUP3 SWAP1 SUB PUSH1 0x1F AND DUP3 ADD SWAP2 JUMPDEST POP POP POP POP POP SWAP1 POP SWAP1 JUMP JUMPDEST PUSH0 DUP1 PUSH2 0x408 PUSH2 0xBB6 JUMP JUMPDEST SWAP1 POP PUSH2 0x415 DUP2 DUP6 DUP6 PUSH2 0xBBD JUMP JUMPDEST PUSH1 0x1 SWAP2 POP POP SWAP3 SWAP2 POP POP JUMP JUMPDEST PUSH0 PUSH1 0x2 SLOAD SWAP1 POP SWAP1 JUMP JUMPDEST PUSH0 DUP1 PUSH2 0x433 PUSH2 0xBB6 JUMP JUMPDEST SWAP1 POP PUSH2 0x440 DUP6 DUP3 DUP6 PUSH2 0xBCF JUMP JUMPDEST PUSH2 0x44B DUP6 DUP6 DUP6 PUSH2 0xC61 JUMP JUMPDEST PUSH1 0x1 SWAP2 POP POP SWAP4 SWAP3 POP POP POP JUMP JUMPDEST PUSH1 0x5 PUSH1 0x20 MSTORE DUP1 PUSH0 MSTORE PUSH1 0x40 PUSH0 KECCAK256 PUSH0 SWAP2 POP SWAP1 POP SLOAD DUP2 JUMP JUMPDEST PUSH0 PUSH1 0x12 SWAP1 POP SWAP1 JUMP JUMPDEST PUSH1 0x6 PUSH0 CALLER PUSH20 0xFFFFFFFFFFFFFFFFFFFFFFFFFFFFFFFFFFFFFFFF AND PUSH20 0xFFFFFFFFFFFFFFFFFFFFFFFFFFFFFFFFFFFFFFFF AND DUP2 MSTORE PUSH1 0x20 ADD SWAP1 DUP2 MSTORE PUSH1 0x20 ADD PUSH0 KECCAK256 PUSH0 SWAP1 SLOAD SWAP1 PUSH2 0x100 EXP SWAP1 DIV PUSH1 0xFF AND ISZERO PUSH2 0x4F5 JUMPI PUSH1 0x40 MLOAD PUSH32 0xB1327A600000000000000000000000000000000000000000000000000000000 DUP2 MSTORE PUSH1 0x4 ADD PUSH1 0x40 MLOAD DUP1 SWAP2 SUB SWAP1 REVERT JUMPDEST PUSH1 0x7 SLOAD PUSH2 0x500 PUSH2 0x420 JUMP JUMPDEST LT PUSH2 0x537 JUMPI PUSH1 0x40 MLOAD PUSH32 0xCBE2483100000000000000000000000000000000000000000000000000000000 DUP2 MSTORE PUSH1 0x4 ADD PUSH1 0x40 MLOAD DUP1 SWAP2 SUB SWAP1 REVERT JUMPDEST PUSH1 0x1 PUSH1 0x6 PUSH0 CALLER PUSH20 0xFFFFFFFFFFFFFFFFFFFFFFFFFFFFFFFFFFFFFFFF AND PUSH20 0xFFFFFFFFFFFFFFFFFFFFFFFFFFFFFFFFFFFFFFFF AND DUP2 MSTORE PUSH1 0x20 ADD SWAP1 DUP2 MSTORE PUSH1 0x20 ADD PUSH0 KECCAK256 PUSH0 PUSH2 0x100 EXP DUP2 SLOAD DUP2 PUSH1 0xFF MUL NOT AND SWAP1 DUP4 ISZERO ISZERO MUL OR SWAP1 SSTORE POP PUSH2 0x597 CALLER PUSH1 0x64 PUSH2 0xD51 JUMP JUMPDEST JUMP JUMPDEST PUSH0 DUP1 PUSH0 DUP4 PUSH20 0xFFFFFFFFFFFFFFFFFFFFFFFFFFFFFFFFFFFFFFFF AND PUSH20 0xFFFFFFFFFFFFFFFFFFFFFFFFFFFFFFFFFFFFFFFF AND DUP2 MSTORE PUSH1 0x20 ADD SWAP1 DUP2 MSTORE PUSH1 0x20 ADD PUSH0 KECCAK256 SLOAD SWAP1 POP SWAP2 SWAP1 POP JUMP JUMPDEST PUSH1 0x6 PUSH1 0x20 MSTORE DUP1 PUSH0 MSTORE PUSH1 0x40 PUSH0 KECCAK256 PUSH0 SWAP2 POP SLOAD SWAP1 PUSH2 0x100 EXP SWAP1 DIV PUSH1 0xFF AND DUP2 JUMP JUMPDEST PUSH0 DUP1 PUSH2 0x606 CALLER PUSH2 0x599 JUMP JUMPDEST SUB PUSH2 0x63D JUMPI PUSH1 0x40 MLOAD PUSH32 0x8439960D00000000000000000000000000000000000000000000000000000000 DUP2 MSTORE PUSH1 0x4 ADD PUSH1 0x40 MLOAD DUP1 SWAP2 SUB SWAP1 REVERT JUMPDEST PUSH2 0x645 PUSH2 0x420 JUMP JUMPDEST DUP3 GT ISZERO PUSH2 0x689 JUMPI DUP2 PUSH1 0x40 MLOAD PUSH32 0x589A495200000000000000000000000000000000000000000000000000000000 DUP2 MSTORE PUSH1 0x4 ADD PUSH2 0x680 SWAP2 SWAP1 PUSH2 0x14FF JUMP JUMPDEST PUSH1 0x40 MLOAD DUP1 SWAP2 SUB SWAP1 REVERT JUMPDEST PUSH0 PUSH1 0x8 PUSH1 0x1 DUP2 PUSH1 0x1 DUP2 SLOAD ADD DUP1 DUP3 SSTORE DUP1 SWAP2 POP POP SUB SWAP1 PUSH0 MSTORE PUSH1 0x20 PUSH0 KECCAK256 SWAP1 PUSH1 0x9 MUL ADD SWAP1 POP DUP5 DUP5 DUP3 PUSH1 0x2 ADD SWAP2 DUP3 PUSH2 0x6BD SWAP3 SWAP2 SWAP1 PUSH2 0x1B86 JUMP JUMPDEST POP DUP3 DUP2 PUSH1 0x7 ADD DUP2 SWAP1 SSTORE POP PUSH1 0x1 PUSH1 0x8 DUP1 SLOAD SWAP1 POP PUSH2 0x6D9 SWAP2 SWAP1 PUSH2 0x1C80 JUMP JUMPDEST SWAP2 POP POP SWAP4 SWAP3 POP POP POP JUMP JUMPDEST PUSH0 PUSH1 0x8 DUP4 DUP2 SLOAD DUP2 LT PUSH2 0x6F8 JUMPI PUSH2 0x6F7 PUSH2 0x1CB3 JUMP JUMPDEST JUMPDEST SWAP1 PUSH0 MSTORE PUSH1 0x20 PUSH0 KECCAK256 SWAP1 PUSH1 0x9 MUL ADD SWAP1 POP DUP1 PUSH1 0x8 ADD PUSH1 0x1 SWAP1 SLOAD SWAP1 PUSH2 0x100 EXP SWAP1 DIV PUSH1 0xFF AND ISZERO PUSH2 0x74F JUMPI PUSH1 0x40 MLOAD PUSH32 0x66B6CB4A00000000000000000000000000000000000000000000000000000000 DUP2 MSTORE PUSH1 0x4 ADD PUSH1 0x40 MLOAD DUP1 SWAP2 SUB SWAP1 REVERT JUMPDEST PUSH2 0x764 CALLER DUP3 PUSH0 ADD PUSH2 0xDD0 SWAP1 SWAP2 SWAP1 PUSH4 0xFFFFFFFF AND JUMP JUMPDEST ISZERO PUSH2 0x79B JUMPI PUSH1 0x40 MLOAD PUSH32 0x7C9A1CF900000000000000000000000000000000000000000000000000000000 DUP2 MSTORE PUSH1 0x4 ADD PUSH1 0x40 MLOAD DUP1 SWAP2 SUB SWAP1 REVERT JUMPDEST PUSH0 PUSH2 0x7A5 CALLER PUSH2 0x599 JUMP JUMPDEST SUB PUSH2 0x7DC JUMPI PUSH1 0x40 MLOAD PUSH32 0x8439960D00000000000000000000000000000000000000000000000000000000 DUP2 MSTORE PUSH1 0x4 ADD PUSH1 0x40 MLOAD DUP1 SWAP2 SUB SWAP1 REVERT JUMPDEST PUSH2 0x7F1 CALLER DUP3 PUSH0 ADD PUSH2 0xDFD SWAP1 SWAP2 SWAP1 PUSH4 0xFFFFFFFF AND JUMP JUMPDEST POP PUSH2 0x7FB CALLER PUSH2 0x599 JUMP JUMPDEST DUP2 PUSH1 0x6 ADD PUSH0 DUP3 DUP3 SLOAD PUSH2 0x80D SWAP2 SWAP1 PUSH2 0x1CE0 JUMP JUMPDEST SWAP3 POP POP DUP2 SWAP1 SSTORE POP PUSH0 PUSH1 0x2 DUP2 GT ISZERO PUSH2 0x827 JUMPI PUSH2 0x826 PUSH2 0x1D13 JUMP JUMPDEST JUMPDEST DUP3 PUSH1 0x2 DUP2 GT ISZERO PUSH2 0x83A JUMPI PUSH2 0x839 PUSH2 0x1D13 JUMP JUMPDEST JUMPDEST SUB PUSH2 0x866 JUMPI PUSH2 0x848 CALLER PUSH2 0x599 JUMP JUMPDEST DUP2 PUSH1 0x3 ADD PUSH0 DUP3 DUP3 SLOAD PUSH2 0x85A SWAP2 SWAP1 PUSH2 0x1CE0 JUMP JUMPDEST SWAP3 POP POP DUP2 SWAP1 SSTORE POP PUSH2 0x8DD JUMP JUMPDEST PUSH1 0x1 PUSH1 0x2 DUP2 GT ISZERO PUSH2 0x87A JUMPI PUSH2 0x879 PUSH2 0x1D13 JUMP JUMPDEST JUMPDEST DUP3 PUSH1 0x2 DUP2 GT ISZERO PUSH2 0x88D JUMPI PUSH2 0x88C PUSH2 0x1D13 JUMP JUMPDEST JUMPDEST SUB PUSH2 0x8B9 JUMPI PUSH2 0x89B CALLER PUSH2 0x599 JUMP JUMPDEST DUP2 PUSH1 0x4 ADD PUSH0 DUP3 DUP3 SLOAD PUSH2 0x8AD SWAP2 SWAP1 PUSH2 0x1CE0 JUMP JUMPDEST SWAP3 POP POP DUP2 SWAP1 SSTORE POP PUSH2 0x8DC JUMP JUMPDEST PUSH2 0x8C2 CALLER PUSH2 0x599 JUMP JUMPDEST DUP2 PUSH1 0x5 ADD PUSH0 DUP3 DUP3 SLOAD PUSH2 0x8D4 SWAP2 SWAP1 PUSH2 0x1CE0 JUMP JUMPDEST SWAP3 POP POP DUP2 SWAP1 SSTORE POP JUMPDEST JUMPDEST DUP1 PUSH1 0x7 ADD SLOAD DUP2 PUSH1 0x6 ADD SLOAD LT PUSH2 0x937 JUMPI DUP1 PUSH1 0x4 ADD SLOAD DUP2 PUSH1 0x3 ADD SLOAD GT ISZERO PUSH2 0x919 JUMPI PUSH1 0x1 DUP2 PUSH1 0x8 ADD PUSH0 PUSH2 0x100 EXP DUP2 SLOAD DUP2 PUSH1 0xFF MUL NOT AND SWAP1 DUP4 ISZERO ISZERO MUL OR SWAP1 SSTORE POP JUMPDEST PUSH1 0x1 DUP2 PUSH1 0x8 ADD PUSH1 0x1 PUSH2 0x100 EXP DUP2 SLOAD DUP2 PUSH1 0xFF MUL NOT AND SWAP1 DUP4 ISZERO ISZERO MUL OR SWAP1 SSTORE POP JUMPDEST POP POP POP JUMP JUMPDEST PUSH1 0x60 PUSH1 0x4 DUP1 SLOAD PUSH2 0x94B SWAP1 PUSH2 0x1982 JUMP JUMPDEST DUP1 PUSH1 0x1F ADD PUSH1 0x20 DUP1 SWAP2 DIV MUL PUSH1 0x20 ADD PUSH1 0x40 MLOAD SWAP1 DUP2 ADD PUSH1 0x40 MSTORE DUP1 SWAP3 SWAP2 SWAP1 DUP2 DUP2 MSTORE PUSH1 0x20 ADD DUP3 DUP1 SLOAD PUSH2 0x977 SWAP1 PUSH2 0x1982 JUMP JUMPDEST DUP1 ISZERO PUSH2 0x9C2 JUMPI DUP1 PUSH1 0x1F LT PUSH2 0x999 JUMPI PUSH2 0x100 DUP1 DUP4 SLOAD DIV MUL DUP4 MSTORE SWAP2 PUSH1 0x20 ADD SWAP2 PUSH2 0x9C2 JUMP JUMPDEST DUP3 ADD SWAP2 SWAP1 PUSH0 MSTORE PUSH1 0x20 PUSH0 KECCAK256 SWAP1 JUMPDEST DUP2 SLOAD DUP2 MSTORE SWAP1 PUSH1 0x1 ADD SWAP1 PUSH1 0x20 ADD DUP1 DUP4 GT PUSH2 0x9A5 JUMPI DUP3 SWAP1 SUB PUSH1 0x1F AND DUP3 ADD SWAP2 JUMPDEST POP POP POP POP POP SWAP1 POP SWAP1 JUMP JUMPDEST PUSH2 0x9D4 PUSH2 0x1311 JUMP JUMPDEST PUSH0 PUSH1 0x8 DUP4 DUP2 SLOAD DUP2 LT PUSH2 0x9E9 JUMPI PUSH2 0x9E8 PUSH2 0x1CB3 JUMP JUMPDEST JUMPDEST SWAP1 PUSH0 MSTORE PUSH1 0x20 PUSH0 KECCAK256 SWAP1 PUSH1 0x9 MUL ADD SWAP1 POP PUSH1 0x40 MLOAD DUP1 PUSH2 0x120 ADD PUSH1 0x40 MSTORE DUP1 PUSH2 0xA0E DUP4 PUSH0 ADD PUSH2 0xE2A JUMP JUMPDEST DUP2 MSTORE PUSH1 0x20 ADD DUP3 PUSH1 0x2 ADD DUP1 SLOAD PUSH2 0xA22 SWAP1 PUSH2 0x1982 JUMP JUMPDEST DUP1 PUSH1 0x1F ADD PUSH1 0x20 DUP1 SWAP2 DIV MUL PUSH1 0x20 ADD PUSH1 0x40 MLOAD SWAP1 DUP2 ADD PUSH1 0x40 MSTORE DUP1 SWAP3 SWAP2 SWAP1 DUP2 DUP2 MSTORE PUSH1 0x20 ADD DUP3 DUP1 SLOAD PUSH2 0xA4E SWAP1 PUSH2 0x1982 JUMP JUMPDEST DUP1 ISZERO PUSH2 0xA99 JUMPI DUP1 PUSH1 0x1F LT PUSH2 0xA70 JUMPI PUSH2 0x100 DUP1 DUP4 SLOAD DIV MUL DUP4 MSTORE SWAP2 PUSH1 0x20 ADD SWAP2 PUSH2 0xA99 JUMP JUMPDEST DUP3 ADD SWAP2 SWAP1 PUSH0 MSTORE PUSH1 0x20 PUSH0 KECCAK256 SWAP1 JUMPDEST DUP2 SLOAD DUP2 MSTORE SWAP1 PUSH1 0x1 ADD SWAP1 PUSH1 0x20 ADD DUP1 DUP4 GT PUSH2 0xA7C JUMPI DUP3 SWAP1 SUB PUSH1 0x1F AND DUP3 ADD SWAP2 JUMPDEST POP POP POP POP POP DUP2 MSTORE PUSH1 0x20 ADD DUP3 PUSH1 0x3 ADD SLOAD DUP2 MSTORE PUSH1 0x20 ADD DUP3 PUSH1 0x4 ADD SLOAD DUP2 MSTORE PUSH1 0x20 ADD DUP3 PUSH1 0x5 ADD SLOAD DUP2 MSTORE PUSH1 0x20 ADD DUP3 PUSH1 0x6 ADD SLOAD DUP2 MSTORE PUSH1 0x20 ADD DUP3 PUSH1 0x7 ADD SLOAD DUP2 MSTORE PUSH1 0x20 ADD DUP3 PUSH1 0x8 ADD PUSH0 SWAP1 SLOAD SWAP1 PUSH2 0x100 EXP SWAP1 DIV PUSH1 0xFF AND ISZERO ISZERO DUP2 MSTORE PUSH1 0x20 ADD DUP3 PUSH1 0x8 ADD PUSH1 0x1 SWAP1 SLOAD SWAP1 PUSH2 0x100 EXP SWAP1 DIV PUSH1 0xFF AND ISZERO ISZERO DUP2 MSTORE POP SWAP2 POP POP SWAP2 SWAP1 POP JUMP JUMPDEST PUSH0 DUP1 PUSH2 0xB16 PUSH2 0xBB6 JUMP JUMPDEST SWAP1 POP PUSH2 0xB23 DUP2 DUP6 DUP6 PUSH2 0xC61 JUMP JUMPDEST PUSH1 0x1 SWAP2 POP POP SWAP3 SWAP2 POP POP JUMP JUMPDEST PUSH1 0x7 SLOAD DUP2 JUMP JUMPDEST PUSH0 PUSH1 0x1 PUSH0 DUP5 PUSH20 0xFFFFFFFFFFFFFFFFFFFFFFFFFFFFFFFFFFFFFFFF AND PUSH20 0xFFFFFFFFFFFFFFFFFFFFFFFFFFFFFFFFFFFFFFFF AND DUP2 MSTORE PUSH1 0x20 ADD SWAP1 DUP2 MSTORE PUSH1 0x20 ADD PUSH0 KECCAK256 PUSH0 DUP4 PUSH20 0xFFFFFFFFFFFFFFFFFFFFFFFFFFFFFFFFFFFFFFFF AND PUSH20 0xFFFFFFFFFFFFFFFFFFFFFFFFFFFFFFFFFFFFFFFF AND DUP2 MSTORE PUSH1 0x20 ADD SWAP1 DUP2 MSTORE PUSH1 0x20 ADD PUSH0 KECCAK256 SLOAD SWAP1 POP SWAP3 SWAP2 POP POP JUMP JUMPDEST PUSH0 CALLER SWAP1 POP SWAP1 JUMP JUMPDEST PUSH2 0xBCA DUP4 DUP4 DUP4 PUSH1 0x1 PUSH2 0xE49 JUMP JUMPDEST POP POP POP JUMP JUMPDEST PUSH0 PUSH2 0xBDA DUP5 DUP5 PUSH2 0xB34 JUMP JUMPDEST SWAP1 POP PUSH32 0xFFFFFFFFFFFFFFFFFFFFFFFFFFFFFFFFFFFFFFFFFFFFFFFFFFFFFFFFFFFFFFFF DUP2 EQ PUSH2 0xC5B JUMPI DUP2 DUP2 LT ISZERO PUSH2 0xC4C JUMPI DUP3 DUP2 DUP4 PUSH1 0x40 MLOAD PUSH32 0xFB8F41B200000000000000000000000000000000000000000000000000000000 DUP2 MSTORE PUSH1 0x4 ADD PUSH2 0xC43 SWAP4 SWAP3 SWAP2 SWAP1 PUSH2 0x1D4F JUMP JUMPDEST PUSH1 0x40 MLOAD DUP1 SWAP2 SUB SWAP1 REVERT JUMPDEST PUSH2 0xC5A DUP5 DUP5 DUP5 DUP5 SUB PUSH0 PUSH2 0xE49 JUMP JUMPDEST JUMPDEST POP POP POP POP JUMP JUMPDEST PUSH0 PUSH20 0xFFFFFFFFFFFFFFFFFFFFFFFFFFFFFFFFFFFFFFFF AND DUP4 PUSH20 0xFFFFFFFFFFFFFFFFFFFFFFFFFFFFFFFFFFFFFFFF AND SUB PUSH2 0xCD1 JUMPI PUSH0 PUSH1 0x40 MLOAD PUSH32 0x96C6FD1E00000000000000000000000000000000000000000000000000000000 DUP2 MSTORE PUSH1 0x4 ADD PUSH2 0xCC8 SWAP2 SWAP1 PUSH2 0x1D84 JUMP JUMPDEST PUSH1 0x40 MLOAD DUP1 SWAP2 SUB SWAP1 REVERT JUMPDEST PUSH0 PUSH20 0xFFFFFFFFFFFFFFFFFFFFFFFFFFFFFFFFFFFFFFFF AND DUP3 PUSH20 0xFFFFFFFFFFFFFFFFFFFFFFFFFFFFFFFFFFFFFFFF AND SUB PUSH2 0xD41 JUMPI PUSH0 PUSH1 0x40 MLOAD PUSH32 0xEC442F0500000000000000000000000000000000000000000000000000000000 DUP2 MSTORE PUSH1 0x4 ADD PUSH2 0xD38 SWAP2 SWAP1 PUSH2 0x1D84 JUMP JUMPDEST PUSH1 0x40 MLOAD DUP1 SWAP2 SUB SWAP1 REVERT JUMPDEST PUSH2 0xD4C DUP4 DUP4 DUP4 PUSH2 0x1018 JUMP JUMPDEST POP POP POP JUMP JUMPDEST PUSH0 PUSH20 0xFFFFFFFFFFFFFFFFFFFFFFFFFFFFFFFFFFFFFFFF AND DUP3 PUSH20 0xFFFFFFFFFFFFFFFFFFFFFFFFFFFFFFFFFFFFFFFF AND SUB PUSH2 0xDC1 JUMPI PUSH0 PUSH1 0x40 MLOAD PUSH32 0xEC442F0500000000000000000000000000000000000000000000000000000000 DUP2 MSTORE PUSH1 0x4 ADD PUSH2 0xDB8 SWAP2 SWAP1 PUSH2 0x1D84 JUMP JUMPDEST PUSH1 0x40 MLOAD DUP1 SWAP2 SUB SWAP1 REVERT JUMPDEST PUSH2 0xDCC PUSH0 DUP4 DUP4 PUSH2 0x1018 JUMP JUMPDEST POP POP JUMP JUMPDEST PUSH0 PUSH2 0xDF5 DUP4 PUSH0 ADD DUP4 PUSH20 0xFFFFFFFFFFFFFFFFFFFFFFFFFFFFFFFFFFFFFFFF AND PUSH0 SHL PUSH2 0x1231 JUMP JUMPDEST SWAP1 POP SWAP3 SWAP2 POP POP JUMP JUMPDEST PUSH0 PUSH2 0xE22 DUP4 PUSH0 ADD DUP4 PUSH20 0xFFFFFFFFFFFFFFFFFFFFFFFFFFFFFFFFFFFFFFFF AND PUSH0 SHL PUSH2 0x1251 JUMP JUMPDEST SWAP1 POP SWAP3 SWAP2 POP POP JUMP JUMPDEST PUSH1 0x60 PUSH0 PUSH2 0xE38 DUP4 PUSH0 ADD PUSH2 0x12B8 JUMP JUMPDEST SWAP1 POP PUSH1 0x60 DUP2 SWAP1 POP DUP1 SWAP3 POP POP POP SWAP2 SWAP1 POP JUMP JUMPDEST PUSH0 PUSH20 0xFFFFFFFFFFFFFFFFFFFFFFFFFFFFFFFFFFFFFFFF AND DUP5 PUSH20 0xFFFFFFFFFFFFFFFFFFFFFFFFFFFFFFFFFFFFFFFF AND SUB PUSH2 0xEB9 JUMPI PUSH0 PUSH1 0x40 MLOAD PUSH32 0xE602DF0500000000000000000000000000000000000000000000000000000000 DUP2 MSTORE PUSH1 0x4 ADD PUSH2 0xEB0 SWAP2 SWAP1 PUSH2 0x1D84 JUMP JUMPDEST PUSH1 0x40 MLOAD DUP1 SWAP2 SUB SWAP1 REVERT JUMPDEST PUSH0 PUSH20 0xFFFFFFFFFFFFFFFFFFFFFFFFFFFFFFFFFFFFFFFF AND DUP4 PUSH20 0xFFFFFFFFFFFFFFFFFFFFFFFFFFFFFFFFFFFFFFFF AND SUB PUSH2 0xF29 JUMPI PUSH0 PUSH1 0x40 MLOAD PUSH32 0x94280D6200000000000000000000000000000000000000000000000000000000 DUP2 MSTORE PUSH1 0x4 ADD PUSH2 0xF20 SWAP2 SWAP1 PUSH2 0x1D84 JUMP JUMPDEST PUSH1 0x40 MLOAD DUP1 SWAP2 SUB SWAP1 REVERT JUMPDEST DUP2 PUSH1 0x1 PUSH0 DUP7 PUSH20 0xFFFFFFFFFFFFFFFFFFFFFFFFFFFFFFFFFFFFFFFF AND PUSH20 0xFFFFFFFFFFFFFFFFFFFFFFFFFFFFFFFFFFFFFFFF AND DUP2 MSTORE PUSH1 0x20 ADD SWAP1 DUP2 MSTORE PUSH1 0x20 ADD PUSH0 KECCAK256 PUSH0 DUP6 PUSH20 0xFFFFFFFFFFFFFFFFFFFFFFFFFFFFFFFFFFFFFFFF AND PUSH20 0xFFFFFFFFFFFFFFFFFFFFFFFFFFFFFFFFFFFFFFFF AND DUP2 MSTORE PUSH1 0x20 ADD SWAP1 DUP2 MSTORE PUSH1 0x20 ADD PUSH0 KECCAK256 DUP2 SWAP1 SSTORE POP DUP1 ISZERO PUSH2 0x1012 JUMPI DUP3 PUSH20 0xFFFFFFFFFFFFFFFFFFFFFFFFFFFFFFFFFFFFFFFF AND DUP5 PUSH20 0xFFFFFFFFFFFFFFFFFFFFFFFFFFFFFFFFFFFFFFFF AND PUSH32 0x8C5BE1E5EBEC7D5BD14F71427D1E84F3DD0314C0F7B2291E5B200AC8C7C3B925 DUP5 PUSH1 0x40 MLOAD PUSH2 0x1009 SWAP2 SWAP1 PUSH2 0x14FF JUMP JUMPDEST PUSH1 0x40 MLOAD DUP1 SWAP2 SUB SWAP1 LOG3 JUMPDEST POP POP POP POP JUMP JUMPDEST PUSH0 PUSH20 0xFFFFFFFFFFFFFFFFFFFFFFFFFFFFFFFFFFFFFFFF AND DUP4 PUSH20 0xFFFFFFFFFFFFFFFFFFFFFFFFFFFFFFFFFFFFFFFF AND SUB PUSH2 0x1068 JUMPI DUP1 PUSH1 0x2 PUSH0 DUP3 DUP3 SLOAD PUSH2 0x105C SWAP2 SWAP1 PUSH2 0x1CE0 JUMP JUMPDEST SWAP3 POP POP DUP2 SWAP1 SSTORE POP PUSH2 0x1136 JUMP JUMPDEST PUSH0 DUP1 PUSH0 DUP6 PUSH20 0xFFFFFFFFFFFFFFFFFFFFFFFFFFFFFFFFFFFFFFFF AND PUSH20 0xFFFFFFFFFFFFFFFFFFFFFFFFFFFFFFFFFFFFFFFF AND DUP2 MSTORE PUSH1 0x20 ADD SWAP1 DUP2 MSTORE PUSH1 0x20 ADD PUSH0 KECCAK256 SLOAD SWAP1 POP DUP2 DUP2 LT ISZERO PUSH2 0x10F1 JUMPI DUP4 DUP2 DUP4 PUSH1 0x40 MLOAD PUSH32 0xE450D38C00000000000000000000000000000000000000000000000000000000 DUP2 MSTORE PUSH1 0x4 ADD PUSH2 0x10E8 SWAP4 SWAP3 SWAP2 SWAP1 PUSH2 0x1D4F JUMP JUMPDEST PUSH1 0x40 MLOAD DUP1 SWAP2 SUB SWAP1 REVERT JUMPDEST DUP2 DUP2 SUB PUSH0 DUP1 DUP7 PUSH20 0xFFFFFFFFFFFFFFFFFFFFFFFFFFFFFFFFFFFFFFFF AND PUSH20 0xFFFFFFFFFFFFFFFFFFFFFFFFFFFFFFFFFFFFFFFF AND DUP2 MSTORE PUSH1 0x20 ADD SWAP1 DUP2 MSTORE PUSH1 0x20 ADD PUSH0 KECCAK256 DUP2 SWAP1 SSTORE POP POP JUMPDEST PUSH0 PUSH20 0xFFFFFFFFFFFFFFFFFFFFFFFFFFFFFFFFFFFFFFFF AND DUP3 PUSH20 0xFFFFFFFFFFFFFFFFFFFFFFFFFFFFFFFFFFFFFFFF AND SUB PUSH2 0x117D JUMPI DUP1 PUSH1 0x2 PUSH0 DUP3 DUP3 SLOAD SUB SWAP3 POP POP DUP2 SWAP1 SSTORE POP PUSH2 0x11C7 JUMP JUMPDEST DUP1 PUSH0 DUP1 DUP5 PUSH20 0xFFFFFFFFFFFFFFFFFFFFFFFFFFFFFFFFFFFFFFFF AND PUSH20 0xFFFFFFFFFFFFFFFFFFFFFFFFFFFFFFFFFFFFFFFF AND DUP2 MSTORE PUSH1 0x20 ADD SWAP1 DUP2 MSTORE PUSH1 0x20 ADD PUSH0 KECCAK256 PUSH0 DUP3 DUP3 SLOAD ADD SWAP3 POP POP DUP2 SWAP1 SSTORE POP JUMPDEST DUP2 PUSH20 0xFFFFFFFFFFFFFFFFFFFFFFFFFFFFFFFFFFFFFFFF AND DUP4 PUSH20 0xFFFFFFFFFFFFFFFFFFFFFFFFFFFFFFFFFFFFFFFF AND PUSH32 0xDDF252AD1BE2C89B69C2B068FC378DAA952BA7F163C4A11628F55A4DF523B3EF DUP4 PUSH1 0x40 MLOAD PUSH2 0x1224 SWAP2 SWAP1 PUSH2 0x14FF JUMP JUMPDEST PUSH1 0x40 MLOAD DUP1 SWAP2 SUB SWAP1 LOG3 POP POP POP JUMP JUMPDEST PUSH0 DUP1 DUP4 PUSH1 0x1 ADD PUSH0 DUP5 DUP2 MSTORE PUSH1 0x20 ADD SWAP1 DUP2 MSTORE PUSH1 0x20 ADD PUSH0 KECCAK256 SLOAD EQ ISZERO SWAP1 POP SWAP3 SWAP2 POP POP JUMP JUMPDEST PUSH0 PUSH2 0x125C DUP4 DUP4 PUSH2 0x1231 JUMP JUMPDEST PUSH2 0x12AE JUMPI DUP3 PUSH0 ADD DUP3 SWAP1 DUP1 PUSH1 0x1 DUP2 SLOAD ADD DUP1 DUP3 SSTORE DUP1 SWAP2 POP POP PUSH1 0x1 SWAP1 SUB SWAP1 PUSH0 MSTORE PUSH1 0x20 PUSH0 KECCAK256 ADD PUSH0 SWAP1 SWAP2 SWAP1 SWAP2 SWAP1 SWAP2 POP SSTORE DUP3 PUSH0 ADD DUP1 SLOAD SWAP1 POP DUP4 PUSH1 0x1 ADD PUSH0 DUP5 DUP2 MSTORE PUSH1 0x20 ADD SWAP1 DUP2 MSTORE PUSH1 0x20 ADD PUSH0 KECCAK256 DUP2 SWAP1 SSTORE POP PUSH1 0x1 SWAP1 POP PUSH2 0x12B2 JUMP JUMPDEST PUSH0 SWAP1 POP JUMPDEST SWAP3 SWAP2 POP POP JUMP JUMPDEST PUSH1 0x60 DUP2 PUSH0 ADD DUP1 SLOAD DUP1 PUSH1 0x20 MUL PUSH1 0x20 ADD PUSH1 0x40 MLOAD SWAP1 DUP2 ADD PUSH1 0x40 MSTORE DUP1 SWAP3 SWAP2 SWAP1 DUP2 DUP2 MSTORE PUSH1 0x20 ADD DUP3 DUP1 SLOAD DUP1 ISZERO PUSH2 0x1305 JUMPI PUSH1 0x20 MUL DUP3 ADD SWAP2 SWAP1 PUSH0 MSTORE PUSH1 0x20 PUSH0 KECCAK256 SWAP1 JUMPDEST DUP2 SLOAD DUP2 MSTORE PUSH1 0x20 ADD SWAP1 PUSH1 0x1 ADD SWAP1 DUP1 DUP4 GT PUSH2 0x12F1 JUMPI JUMPDEST POP POP POP POP POP SWAP1 POP SWAP2 SWAP1 POP JUMP JUMPDEST PUSH1 0x40 MLOAD DUP1 PUSH2 0x120 ADD PUSH1 0x40 MSTORE DUP1 PUSH1 0x60 DUP2 MSTORE PUSH1 0x20 ADD PUSH1 0x60 DUP2 MSTORE PUSH1 0x20 ADD PUSH0 DUP2 MSTORE PUSH1 0x20 ADD PUSH0 DUP2 MSTORE PUSH1 0x20 ADD PUSH0 DUP2 MSTORE PUSH1 0x20 ADD PUSH0 DUP2 MSTORE PUSH1 0x20 ADD PUSH0 DUP2 MSTORE PUSH1 0x20 ADD PUSH0 ISZERO ISZERO DUP2 MSTORE PUSH1 0x20 ADD PUSH0 ISZERO ISZERO DUP2 MSTORE POP SWAP1 JUMP JUMPDEST PUSH0 DUP2 MLOAD SWAP1 POP SWAP2 SWAP1 POP JUMP JUMPDEST PUSH0 DUP3 DUP3 MSTORE PUSH1 0x20 DUP3 ADD SWAP1 POP SWAP3 SWAP2 POP POP JUMP JUMPDEST DUP3 DUP2 DUP4 MCOPY PUSH0 DUP4 DUP4 ADD MSTORE POP POP POP JUMP JUMPDEST PUSH0 PUSH1 0x1F NOT PUSH1 0x1F DUP4 ADD AND SWAP1 POP SWAP2 SWAP1 POP JUMP JUMPDEST PUSH0 PUSH2 0x139C DUP3 PUSH2 0x135A JUMP JUMPDEST PUSH2 0x13A6 DUP2 DUP6 PUSH2 0x1364 JUMP JUMPDEST SWAP4 POP PUSH2 0x13B6 DUP2 DUP6 PUSH1 0x20 DUP7 ADD PUSH2 0x1374 JUMP JUMPDEST PUSH2 0x13BF DUP2 PUSH2 0x1382 JUMP JUMPDEST DUP5 ADD SWAP2 POP POP SWAP3 SWAP2 POP POP JUMP JUMPDEST PUSH0 PUSH1 0x20 DUP3 ADD SWAP1 POP DUP2 DUP2 SUB PUSH0 DUP4 ADD MSTORE PUSH2 0x13E2 DUP2 DUP5 PUSH2 0x1392 JUMP JUMPDEST SWAP1 POP SWAP3 SWAP2 POP POP JUMP JUMPDEST PUSH0 DUP1 REVERT JUMPDEST PUSH0 DUP1 REVERT JUMPDEST PUSH0 PUSH20 0xFFFFFFFFFFFFFFFFFFFFFFFFFFFFFFFFFFFFFFFF DUP3 AND SWAP1 POP SWAP2 SWAP1 POP JUMP JUMPDEST PUSH0 PUSH2 0x141B DUP3 PUSH2 0x13F2 JUMP JUMPDEST SWAP1 POP SWAP2 SWAP1 POP JUMP JUMPDEST PUSH2 0x142B DUP2 PUSH2 0x1411 JUMP JUMPDEST DUP2 EQ PUSH2 0x1435 JUMPI PUSH0 DUP1 REVERT JUMPDEST POP JUMP JUMPDEST PUSH0 DUP2 CALLDATALOAD SWAP1 POP PUSH2 0x1446 DUP2 PUSH2 0x1422 JUMP JUMPDEST SWAP3 SWAP2 POP POP JUMP JUMPDEST PUSH0 DUP2 SWAP1 POP SWAP2 SWAP1 POP JUMP JUMPDEST PUSH2 0x145E DUP2 PUSH2 0x144C JUMP JUMPDEST DUP2 EQ PUSH2 0x1468 JUMPI PUSH0 DUP1 REVERT JUMPDEST POP JUMP JUMPDEST PUSH0 DUP2 CALLDATALOAD SWAP1 POP PUSH2 0x1479 DUP2 PUSH2 0x1455 JUMP JUMPDEST SWAP3 SWAP2 POP POP JUMP JUMPDEST PUSH0 DUP1 PUSH1 0x40 DUP4 DUP6 SUB SLT ISZERO PUSH2 0x1495 JUMPI PUSH2 0x1494 PUSH2 0x13EA JUMP JUMPDEST JUMPDEST PUSH0 PUSH2 0x14A2 DUP6 DUP3 DUP7 ADD PUSH2 0x1438 JUMP JUMPDEST SWAP3 POP POP PUSH1 0x20 PUSH2 0x14B3 DUP6 DUP3 DUP7 ADD PUSH2 0x146B JUMP JUMPDEST SWAP2 POP POP SWAP3 POP SWAP3 SWAP1 POP JUMP JUMPDEST PUSH0 DUP2 ISZERO ISZERO SWAP1 POP SWAP2 SWAP1 POP JUMP JUMPDEST PUSH2 0x14D1 DUP2 PUSH2 0x14BD JUMP JUMPDEST DUP3 MSTORE POP POP JUMP JUMPDEST PUSH0 PUSH1 0x20 DUP3 ADD SWAP1 POP PUSH2 0x14EA PUSH0 DUP4 ADD DUP5 PUSH2 0x14C8 JUMP JUMPDEST SWAP3 SWAP2 POP POP JUMP JUMPDEST PUSH2 0x14F9 DUP2 PUSH2 0x144C JUMP JUMPDEST DUP3 MSTORE POP POP JUMP JUMPDEST PUSH0 PUSH1 0x20 DUP3 ADD SWAP1 POP PUSH2 0x1512 PUSH0 DUP4 ADD DUP5 PUSH2 0x14F0 JUMP JUMPDEST SWAP3 SWAP2 POP POP JUMP JUMPDEST PUSH0 DUP1 PUSH0 PUSH1 0x60 DUP5 DUP7 SUB SLT ISZERO PUSH2 0x152F JUMPI PUSH2 0x152E PUSH2 0x13EA JUMP JUMPDEST JUMPDEST PUSH0 PUSH2 0x153C DUP7 DUP3 DUP8 ADD PUSH2 0x1438 JUMP JUMPDEST SWAP4 POP POP PUSH1 0x20 PUSH2 0x154D DUP7 DUP3 DUP8 ADD PUSH2 0x1438 JUMP JUMPDEST SWAP3 POP POP PUSH1 0x40 PUSH2 0x155E DUP7 DUP3 DUP8 ADD PUSH2 0x146B JUMP JUMPDEST SWAP2 POP POP SWAP3 POP SWAP3 POP SWAP3 JUMP JUMPDEST PUSH0 PUSH1 0x20 DUP3 DUP5 SUB SLT ISZERO PUSH2 0x157D JUMPI PUSH2 0x157C PUSH2 0x13EA JUMP JUMPDEST JUMPDEST PUSH0 PUSH2 0x158A DUP5 DUP3 DUP6 ADD PUSH2 0x1438 JUMP JUMPDEST SWAP2 POP POP SWAP3 SWAP2 POP POP JUMP JUMPDEST PUSH0 PUSH1 0xFF DUP3 AND SWAP1 POP SWAP2 SWAP1 POP JUMP JUMPDEST PUSH2 0x15A8 DUP2 PUSH2 0x1593 JUMP JUMPDEST DUP3 MSTORE POP POP JUMP JUMPDEST PUSH0 PUSH1 0x20 DUP3 ADD SWAP1 POP PUSH2 0x15C1 PUSH0 DUP4 ADD DUP5 PUSH2 0x159F JUMP JUMPDEST SWAP3 SWAP2 POP POP JUMP JUMPDEST PUSH0 DUP1 REVERT JUMPDEST PUSH0 DUP1 REVERT JUMPDEST PUSH0 DUP1 REVERT JUMPDEST PUSH0 DUP1 DUP4 PUSH1 0x1F DUP5 ADD SLT PUSH2 0x15E8 JUMPI PUSH2 0x15E7 PUSH2 0x15C7 JUMP JUMPDEST JUMPDEST DUP3 CALLDATALOAD SWAP1 POP PUSH8 0xFFFFFFFFFFFFFFFF DUP2 GT ISZERO PUSH2 0x1605 JUMPI PUSH2 0x1604 PUSH2 0x15CB JUMP JUMPDEST JUMPDEST PUSH1 0x20 DUP4 ADD SWAP2 POP DUP4 PUSH1 0x1 DUP3 MUL DUP4 ADD GT ISZERO PUSH2 0x1621 JUMPI PUSH2 0x1620 PUSH2 0x15CF JUMP JUMPDEST JUMPDEST SWAP3 POP SWAP3 SWAP1 POP JUMP JUMPDEST PUSH0 DUP1 PUSH0 PUSH1 0x40 DUP5 DUP7 SUB SLT ISZERO PUSH2 0x163F JUMPI PUSH2 0x163E PUSH2 0x13EA JUMP JUMPDEST JUMPDEST PUSH0 DUP5 ADD CALLDATALOAD PUSH8 0xFFFFFFFFFFFFFFFF DUP2 GT ISZERO PUSH2 0x165C JUMPI PUSH2 0x165B PUSH2 0x13EE JUMP JUMPDEST JUMPDEST PUSH2 0x1668 DUP7 DUP3 DUP8 ADD PUSH2 0x15D3 JUMP JUMPDEST SWAP4 POP SWAP4 POP POP PUSH1 0x20 PUSH2 0x167B DUP7 DUP3 DUP8 ADD PUSH2 0x146B JUMP JUMPDEST SWAP2 POP POP SWAP3 POP SWAP3 POP SWAP3 JUMP JUMPDEST PUSH1 0x3 DUP2 LT PUSH2 0x1691 JUMPI PUSH0 DUP1 REVERT JUMPDEST POP JUMP JUMPDEST PUSH0 DUP2 CALLDATALOAD SWAP1 POP PUSH2 0x16A2 DUP2 PUSH2 0x1685 JUMP JUMPDEST SWAP3 SWAP2 POP POP JUMP JUMPDEST PUSH0 DUP1 PUSH1 0x40 DUP4 DUP6 SUB SLT ISZERO PUSH2 0x16BE JUMPI PUSH2 0x16BD PUSH2 0x13EA JUMP JUMPDEST JUMPDEST PUSH0 PUSH2 0x16CB DUP6 DUP3 DUP7 ADD PUSH2 0x146B JUMP JUMPDEST SWAP3 POP POP PUSH1 0x20 PUSH2 0x16DC DUP6 DUP3 DUP7 ADD PUSH2 0x1694 JUMP JUMPDEST SWAP2 POP POP SWAP3 POP SWAP3 SWAP1 POP JUMP JUMPDEST PUSH0 PUSH1 0x20 DUP3 DUP5 SUB SLT ISZERO PUSH2 0x16FB JUMPI PUSH2 0x16FA PUSH2 0x13EA JUMP JUMPDEST JUMPDEST PUSH0 PUSH2 0x1708 DUP5 DUP3 DUP6 ADD PUSH2 0x146B JUMP JUMPDEST SWAP2 POP POP SWAP3 SWAP2 POP POP JUMP JUMPDEST PUSH0 DUP2 MLOAD SWAP1 POP SWAP2 SWAP1 POP JUMP JUMPDEST PUSH0 DUP3 DUP3 MSTORE PUSH1 0x20 DUP3 ADD SWAP1 POP SWAP3 SWAP2 POP POP JUMP JUMPDEST PUSH0 DUP2 SWAP1 POP PUSH1 0x20 DUP3 ADD SWAP1 POP SWAP2 SWAP1 POP JUMP JUMPDEST PUSH2 0x1743 DUP2 PUSH2 0x1411 JUMP JUMPDEST DUP3 MSTORE POP POP JUMP JUMPDEST PUSH0 PUSH2 0x1754 DUP4 DUP4 PUSH2 0x173A JUMP JUMPDEST PUSH1 0x20 DUP4 ADD SWAP1 POP SWAP3 SWAP2 POP POP JUMP JUMPDEST PUSH0 PUSH1 0x20 DUP3 ADD SWAP1 POP SWAP2 SWAP1 POP JUMP JUMPDEST PUSH0 PUSH2 0x1776 DUP3 PUSH2 0x1711 JUMP JUMPDEST PUSH2 0x1780 DUP2 DUP6 PUSH2 0x171B JUMP JUMPDEST SWAP4 POP PUSH2 0x178B DUP4 PUSH2 0x172B JUMP JUMPDEST DUP1 PUSH0 JUMPDEST DUP4 DUP2 LT ISZERO PUSH2 0x17BB JUMPI DUP2 MLOAD PUSH2 0x17A2 DUP9 DUP3 PUSH2 0x1749 JUMP JUMPDEST SWAP8 POP PUSH2 0x17AD DUP4 PUSH2 0x1760 JUMP JUMPDEST SWAP3 POP POP PUSH1 0x1 DUP2 ADD SWAP1 POP PUSH2 0x178E JUMP JUMPDEST POP DUP6 SWAP4 POP POP POP POP SWAP3 SWAP2 POP POP JUMP JUMPDEST PUSH0 DUP3 DUP3 MSTORE PUSH1 0x20 DUP3 ADD SWAP1 POP SWAP3 SWAP2 POP POP JUMP JUMPDEST PUSH0 PUSH2 0x17E2 DUP3 PUSH2 0x135A JUMP JUMPDEST PUSH2 0x17EC DUP2 DUP6 PUSH2 0x17C8 JUMP JUMPDEST SWAP4 POP PUSH2 0x17FC DUP2 DUP6 PUSH1 0x20 DUP7 ADD PUSH2 0x1374 JUMP JUMPDEST PUSH2 0x1805 DUP2 PUSH2 0x1382 JUMP JUMPDEST DUP5 ADD SWAP2 POP POP SWAP3 SWAP2 POP POP JUMP JUMPDEST PUSH2 0x1819 DUP2 PUSH2 0x144C JUMP JUMPDEST DUP3 MSTORE POP POP JUMP JUMPDEST PUSH2 0x1828 DUP2 PUSH2 0x14BD JUMP JUMPDEST DUP3 MSTORE POP POP JUMP JUMPDEST PUSH0 PUSH2 0x120 DUP4 ADD PUSH0 DUP4 ADD MLOAD DUP5 DUP3 SUB PUSH0 DUP7 ADD MSTORE PUSH2 0x1849 DUP3 DUP3 PUSH2 0x176C JUMP JUMPDEST SWAP2 POP POP PUSH1 0x20 DUP4 ADD MLOAD DUP5 DUP3 SUB PUSH1 0x20 DUP7 ADD MSTORE PUSH2 0x1863 DUP3 DUP3 PUSH2 0x17D8 JUMP JUMPDEST SWAP2 POP POP PUSH1 0x40 DUP4 ADD MLOAD PUSH2 0x1878 PUSH1 0x40 DUP7 ADD DUP3 PUSH2 0x1810 JUMP JUMPDEST POP PUSH1 0x60 DUP4 ADD MLOAD PUSH2 0x188B PUSH1 0x60 DUP7 ADD DUP3 PUSH2 0x1810 JUMP JUMPDEST POP PUSH1 0x80 DUP4 ADD MLOAD PUSH2 0x189E PUSH1 0x80 DUP7 ADD DUP3 PUSH2 0x1810 JUMP JUMPDEST POP PUSH1 0xA0 DUP4 ADD MLOAD PUSH2 0x18B1 PUSH1 0xA0 DUP7 ADD DUP3 PUSH2 0x1810 JUMP JUMPDEST POP PUSH1 0xC0 DUP4 ADD MLOAD PUSH2 0x18C4 PUSH1 0xC0 DUP7 ADD DUP3 PUSH2 0x1810 JUMP JUMPDEST POP PUSH1 0xE0 DUP4 ADD MLOAD PUSH2 0x18D7 PUSH1 0xE0 DUP7 ADD DUP3 PUSH2 0x181F JUMP JUMPDEST POP PUSH2 0x100 DUP4 ADD MLOAD PUSH2 0x18EC PUSH2 0x100 DUP7 ADD DUP3 PUSH2 0x181F JUMP JUMPDEST POP DUP1 SWAP2 POP POP SWAP3 SWAP2 POP POP JUMP JUMPDEST PUSH0 PUSH1 0x20 DUP3 ADD SWAP1 POP DUP2 DUP2 SUB PUSH0 DUP4 ADD MSTORE PUSH2 0x190F DUP2 DUP5 PUSH2 0x182E JUMP JUMPDEST SWAP1 POP SWAP3 SWAP2 POP POP JUMP JUMPDEST PUSH0 DUP1 PUSH1 0x40 DUP4 DUP6 SUB SLT ISZERO PUSH2 0x192D JUMPI PUSH2 0x192C PUSH2 0x13EA JUMP JUMPDEST JUMPDEST PUSH0 PUSH2 0x193A DUP6 DUP3 DUP7 ADD PUSH2 0x1438 JUMP JUMPDEST SWAP3 POP POP PUSH1 0x20 PUSH2 0x194B DUP6 DUP3 DUP7 ADD PUSH2 0x1438 JUMP JUMPDEST SWAP2 POP POP SWAP3 POP SWAP3 SWAP1 POP JUMP JUMPDEST PUSH32 0x4E487B7100000000000000000000000000000000000000000000000000000000 PUSH0 MSTORE PUSH1 0x22 PUSH1 0x4 MSTORE PUSH1 0x24 PUSH0 REVERT JUMPDEST PUSH0 PUSH1 0x2 DUP3 DIV SWAP1 POP PUSH1 0x1 DUP3 AND DUP1 PUSH2 0x1999 JUMPI PUSH1 0x7F DUP3 AND SWAP2 POP JUMPDEST PUSH1 0x20 DUP3 LT DUP2 SUB PUSH2 0x19AC JUMPI PUSH2 0x19AB PUSH2 0x1955 JUMP JUMPDEST JUMPDEST POP SWAP2 SWAP1 POP JUMP JUMPDEST PUSH0 DUP3 SWAP1 POP SWAP3 SWAP2 POP POP JUMP JUMPDEST PUSH32 0x4E487B7100000000000000000000000000000000000000000000000000000000 PUSH0 MSTORE PUSH1 0x41 PUSH1 0x4 MSTORE PUSH1 0x24 PUSH0 REVERT JUMPDEST PUSH0 DUP2 SWAP1 POP DUP2 PUSH0 MSTORE PUSH1 0x20 PUSH0 KECCAK256 SWAP1 POP SWAP2 SWAP1 POP JUMP JUMPDEST PUSH0 PUSH1 0x20 PUSH1 0x1F DUP4 ADD DIV SWAP1 POP SWAP2 SWAP1 POP JUMP JUMPDEST PUSH0 DUP3 DUP3 SHL SWAP1 POP SWAP3 SWAP2 POP POP JUMP JUMPDEST PUSH0 PUSH1 0x8 DUP4 MUL PUSH2 0x1A45 PUSH32 0xFFFFFFFFFFFFFFFFFFFFFFFFFFFFFFFFFFFFFFFFFFFFFFFFFFFFFFFFFFFFFFFF DUP3 PUSH2 0x1A0A JUMP JUMPDEST PUSH2 0x1A4F DUP7 DUP4 PUSH2 0x1A0A JUMP JUMPDEST SWAP6 POP DUP1 NOT DUP5 AND SWAP4 POP DUP1 DUP7 AND DUP5 OR SWAP3 POP POP POP SWAP4 SWAP3 POP POP POP JUMP JUMPDEST PUSH0 DUP2 SWAP1 POP SWAP2 SWAP1 POP JUMP JUMPDEST PUSH0 PUSH2 0x1A8A PUSH2 0x1A85 PUSH2 0x1A80 DUP5 PUSH2 0x144C JUMP JUMPDEST PUSH2 0x1A67 JUMP JUMPDEST PUSH2 0x144C JUMP JUMPDEST SWAP1 POP SWAP2 SWAP1 POP JUMP JUMPDEST PUSH0 DUP2 SWAP1 POP SWAP2 SWAP1 POP JUMP JUMPDEST PUSH2 0x1AA3 DUP4 PUSH2 0x1A70 JUMP JUMPDEST PUSH2 0x1AB7 PUSH2 0x1AAF DUP3 PUSH2 0x1A91 JUMP JUMPDEST DUP5 DUP5 SLOAD PUSH2 0x1A16 JUMP JUMPDEST DUP3 SSTORE POP POP POP POP JUMP JUMPDEST PUSH0 SWAP1 JUMP JUMPDEST PUSH2 0x1ACB PUSH2 0x1ABF JUMP JUMPDEST PUSH2 0x1AD6 DUP2 DUP5 DUP5 PUSH2 0x1A9A JUMP JUMPDEST POP POP POP JUMP JUMPDEST JUMPDEST DUP2 DUP2 LT ISZERO PUSH2 0x1AF9 JUMPI PUSH2 0x1AEE PUSH0 DUP3 PUSH2 0x1AC3 JUMP JUMPDEST PUSH1 0x1 DUP2 ADD SWAP1 POP PUSH2 0x1ADC JUMP JUMPDEST POP POP JUMP JUMPDEST PUSH1 0x1F DUP3 GT ISZERO PUSH2 0x1B3E JUMPI PUSH2 0x1B0F DUP2 PUSH2 0x19E9 JUMP JUMPDEST PUSH2 0x1B18 DUP5 PUSH2 0x19FB JUMP JUMPDEST DUP2 ADD PUSH1 0x20 DUP6 LT ISZERO PUSH2 0x1B27 JUMPI DUP2 SWAP1 POP JUMPDEST PUSH2 0x1B3B PUSH2 0x1B33 DUP6 PUSH2 0x19FB JUMP JUMPDEST DUP4 ADD DUP3 PUSH2 0x1ADB JUMP JUMPDEST POP POP JUMPDEST POP POP POP JUMP JUMPDEST PUSH0 DUP3 DUP3 SHR SWAP1 POP SWAP3 SWAP2 POP POP JUMP JUMPDEST PUSH0 PUSH2 0x1B5E PUSH0 NOT DUP5 PUSH1 0x8 MUL PUSH2 0x1B43 JUMP JUMPDEST NOT DUP1 DUP4 AND SWAP2 POP POP SWAP3 SWAP2 POP POP JUMP JUMPDEST PUSH0 PUSH2 0x1B76 DUP4 DUP4 PUSH2 0x1B4F JUMP JUMPDEST SWAP2 POP DUP3 PUSH1 0x2 MUL DUP3 OR SWAP1 POP SWAP3 SWAP2 POP POP JUMP JUMPDEST PUSH2 0x1B90 DUP4 DUP4 PUSH2 0x19B2 JUMP JUMPDEST PUSH8 0xFFFFFFFFFFFFFFFF DUP2 GT ISZERO PUSH2 0x1BA9 JUMPI PUSH2 0x1BA8 PUSH2 0x19BC JUMP JUMPDEST JUMPDEST PUSH2 0x1BB3 DUP3 SLOAD PUSH2 0x1982 JUMP JUMPDEST PUSH2 0x1BBE DUP3 DUP3 DUP6 PUSH2 0x1AFD JUMP JUMPDEST PUSH0 PUSH1 0x1F DUP4 GT PUSH1 0x1 DUP2 EQ PUSH2 0x1BEB JUMPI PUSH0 DUP5 ISZERO PUSH2 0x1BD9 JUMPI DUP3 DUP8 ADD CALLDATALOAD SWAP1 POP JUMPDEST PUSH2 0x1BE3 DUP6 DUP3 PUSH2 0x1B6B JUMP JUMPDEST DUP7 SSTORE POP PUSH2 0x1C4A JUMP JUMPDEST PUSH1 0x1F NOT DUP5 AND PUSH2 0x1BF9 DUP7 PUSH2 0x19E9 JUMP JUMPDEST PUSH0 JUMPDEST DUP3 DUP2 LT ISZERO PUSH2 0x1C20 JUMPI DUP5 DUP10 ADD CALLDATALOAD DUP3 SSTORE PUSH1 0x1 DUP3 ADD SWAP2 POP PUSH1 0x20 DUP6 ADD SWAP5 POP PUSH1 0x20 DUP2 ADD SWAP1 POP PUSH2 0x1BFB JUMP JUMPDEST DUP7 DUP4 LT ISZERO PUSH2 0x1C3D JUMPI DUP5 DUP10 ADD CALLDATALOAD PUSH2 0x1C39 PUSH1 0x1F DUP10 AND DUP3 PUSH2 0x1B4F JUMP JUMPDEST DUP4 SSTORE POP JUMPDEST PUSH1 0x1 PUSH1 0x2 DUP9 MUL ADD DUP9 SSTORE POP POP POP JUMPDEST POP POP POP POP POP POP POP JUMP JUMPDEST PUSH32 0x4E487B7100000000000000000000000000000000000000000000000000000000 PUSH0 MSTORE PUSH1 0x11 PUSH1 0x4 MSTORE PUSH1 0x24 PUSH0 REVERT JUMPDEST PUSH0 PUSH2 0x1C8A DUP3 PUSH2 0x144C JUMP JUMPDEST SWAP2 POP PUSH2 0x1C95 DUP4 PUSH2 0x144C JUMP JUMPDEST SWAP3 POP DUP3 DUP3 SUB SWAP1 POP DUP2 DUP2 GT ISZERO PUSH2 0x1CAD JUMPI PUSH2 0x1CAC PUSH2 0x1C53 JUMP JUMPDEST JUMPDEST SWAP3 SWAP2 POP POP JUMP JUMPDEST PUSH32 0x4E487B7100000000000000000000000000000000000000000000000000000000 PUSH0 MSTORE PUSH1 0x32 PUSH1 0x4 MSTORE PUSH1 0x24 PUSH0 REVERT JUMPDEST PUSH0 PUSH2 0x1CEA DUP3 PUSH2 0x144C JUMP JUMPDEST SWAP2 POP PUSH2 0x1CF5 DUP4 PUSH2 0x144C JUMP JUMPDEST SWAP3 POP DUP3 DUP3 ADD SWAP1 POP DUP1 DUP3 GT ISZERO PUSH2 0x1D0D JUMPI PUSH2 0x1D0C PUSH2 0x1C53 JUMP JUMPDEST JUMPDEST SWAP3 SWAP2 POP POP JUMP JUMPDEST PUSH32 0x4E487B7100000000000000000000000000000000000000000000000000000000 PUSH0 MSTORE PUSH1 0x21 PUSH1 0x4 MSTORE PUSH1 0x24 PUSH0 REVERT JUMPDEST PUSH2 0x1D49 DUP2 PUSH2 0x1411 JUMP JUMPDEST DUP3 MSTORE POP POP JUMP JUMPDEST PUSH0 PUSH1 0x60 DUP3 ADD SWAP1 POP PUSH2 0x1D62 PUSH0 DUP4 ADD DUP7 PUSH2 0x1D40 JUMP JUMPDEST PUSH2 0x1D6F PUSH1 0x20 DUP4 ADD DUP6 PUSH2 0x14F0 JUMP JUMPDEST PUSH2 0x1D7C PUSH1 0x40 DUP4 ADD DUP5 PUSH2 0x14F0 JUMP JUMPDEST SWAP5 SWAP4 POP POP POP POP JUMP JUMPDEST PUSH0 PUSH1 0x20 DUP3 ADD SWAP1 POP PUSH2 0x1D97 PUSH0 DUP4 ADD DUP5 PUSH2 0x1D40 JUMP JUMPDEST SWAP3 SWAP2 POP POP JUMP INVALID LOG2 PUSH5 0x6970667358 0x22 SLT KECCAK256 0xA5 DUP14 PUSH17 0x5DC4B11AAD11379170D684EA87AAE7A10A 0xE0 BALANCE CODESIZE 0xEC 0xB1 0xE5 0xE0 0xA9 PUSH9 0x831D0964736F6C6343 STOP ADDMOD NOT STOP CALLER "
				},
				"gasEstimates": {
					"creation": {
						"codeDepositCost": "1527000",
						"executionCost": "infinite",
						"totalCost": "infinite"
					},
					"external": {
						"allowance(address,address)": "infinite",
						"approve(address,uint256)": "infinite",
						"balanceOf(address)": "2918",
						"balances(address)": "2825",
						"claim()": "infinite",
						"createIssue(string,uint256)": "infinite",
						"decimals()": "383",
						"getIssue(uint256)": "infinite",
						"hasClaimed(address)": "2856",
						"maxSupply()": "2491",
						"name()": "infinite",
						"symbol()": "infinite",
						"totalSupply()": "2500",
						"transfer(address,uint256)": "infinite",
						"transferFrom(address,address,uint256)": "infinite",
						"vote(uint256,uint8)": "infinite"
					}
				},
				"methodIdentifiers": {
					"allowance(address,address)": "dd62ed3e",
					"approve(address,uint256)": "095ea7b3",
					"balanceOf(address)": "70a08231",
					"balances(address)": "27e235e3",
					"claim()": "4e71d92d",
					"createIssue(string,uint256)": "8615d855",
					"decimals()": "313ce567",
					"getIssue(uint256)": "976b3113",
					"hasClaimed(address)": "73b2e80e",
					"maxSupply()": "d5abeb01",
					"name()": "06fdde03",
					"symbol()": "95d89b41",
					"totalSupply()": "18160ddd",
					"transfer(address,uint256)": "a9059cbb",
					"transferFrom(address,address,uint256)": "23b872dd",
					"vote(uint256,uint8)": "943e8216"
				}
			},
			"storageLayout": {
				"storage": [
					{
						"astId": 159,
						"contract": "base/WeightedVoting.sol:WeightedVoting",
						"label": "_balances",
						"offset": 0,
						"slot": "0",
						"type": "t_mapping(t_address,t_uint256)"
					},
					{
						"astId": 165,
						"contract": "base/WeightedVoting.sol:WeightedVoting",
						"label": "_allowances",
						"offset": 0,
						"slot": "1",
						"type": "t_mapping(t_address,t_mapping(t_address,t_uint256))"
					},
					{
						"astId": 167,
						"contract": "base/WeightedVoting.sol:WeightedVoting",
						"label": "_totalSupply",
						"offset": 0,
						"slot": "2",
						"type": "t_uint256"
					},
					{
						"astId": 169,
						"contract": "base/WeightedVoting.sol:WeightedVoting",
						"label": "_name",
						"offset": 0,
						"slot": "3",
						"type": "t_string_storage"
					},
					{
						"astId": 171,
						"contract": "base/WeightedVoting.sol:WeightedVoting",
						"label": "_symbol",
						"offset": 0,
						"slot": "4",
						"type": "t_string_storage"
					},
					{
						"astId": 1458,
						"contract": "base/WeightedVoting.sol:WeightedVoting",
						"label": "balances",
						"offset": 0,
						"slot": "5",
						"type": "t_mapping(t_address,t_uint256)"
					},
					{
						"astId": 1462,
						"contract": "base/WeightedVoting.sol:WeightedVoting",
						"label": "hasClaimed",
						"offset": 0,
						"slot": "6",
						"type": "t_mapping(t_address,t_bool)"
					},
					{
						"astId": 1465,
						"contract": "base/WeightedVoting.sol:WeightedVoting",
						"label": "maxSupply",
						"offset": 0,
						"slot": "7",
						"type": "t_uint256"
					},
					{
						"astId": 1469,
						"contract": "base/WeightedVoting.sol:WeightedVoting",
						"label": "issues",
						"offset": 0,
						"slot": "8",
						"type": "t_array(t_struct(Issue)1430_storage)dyn_storage"
					}
				],
				"types": {
					"t_address": {
						"encoding": "inplace",
						"label": "address",
						"numberOfBytes": "20"
					},
					"t_array(t_bytes32)dyn_storage": {
						"base": "t_bytes32",
						"encoding": "dynamic_array",
						"label": "bytes32[]",
						"numberOfBytes": "32"
					},
					"t_array(t_struct(Issue)1430_storage)dyn_storage": {
						"base": "t_struct(Issue)1430_storage",
						"encoding": "dynamic_array",
						"label": "struct WeightedVoting.Issue[]",
						"numberOfBytes": "32"
					},
					"t_bool": {
						"encoding": "inplace",
						"label": "bool",
						"numberOfBytes": "1"
					},
					"t_bytes32": {
						"encoding": "inplace",
						"label": "bytes32",
						"numberOfBytes": "32"
					},
					"t_mapping(t_address,t_bool)": {
						"encoding": "mapping",
						"key": "t_address",
						"label": "mapping(address => bool)",
						"numberOfBytes": "32",
						"value": "t_bool"
					},
					"t_mapping(t_address,t_mapping(t_address,t_uint256))": {
						"encoding": "mapping",
						"key": "t_address",
						"label": "mapping(address => mapping(address => uint256))",
						"numberOfBytes": "32",
						"value": "t_mapping(t_address,t_uint256)"
					},
					"t_mapping(t_address,t_uint256)": {
						"encoding": "mapping",
						"key": "t_address",
						"label": "mapping(address => uint256)",
						"numberOfBytes": "32",
						"value": "t_uint256"
					},
					"t_mapping(t_bytes32,t_uint256)": {
						"encoding": "mapping",
						"key": "t_bytes32",
						"label": "mapping(bytes32 => uint256)",
						"numberOfBytes": "32",
						"value": "t_uint256"
					},
					"t_string_storage": {
						"encoding": "bytes",
						"label": "string",
						"numberOfBytes": "32"
					},
					"t_struct(AddressSet)1111_storage": {
						"encoding": "inplace",
						"label": "struct EnumerableSet.AddressSet",
						"members": [
							{
								"astId": 1110,
								"contract": "base/WeightedVoting.sol:WeightedVoting",
								"label": "_inner",
								"offset": 0,
								"slot": "0",
								"type": "t_struct(Set)796_storage"
							}
						],
						"numberOfBytes": "64"
					},
					"t_struct(Issue)1430_storage": {
						"encoding": "inplace",
						"label": "struct WeightedVoting.Issue",
						"members": [
							{
								"astId": 1413,
								"contract": "base/WeightedVoting.sol:WeightedVoting",
								"label": "voters",
								"offset": 0,
								"slot": "0",
								"type": "t_struct(AddressSet)1111_storage"
							},
							{
								"astId": 1415,
								"contract": "base/WeightedVoting.sol:WeightedVoting",
								"label": "issueDesc",
								"offset": 0,
								"slot": "2",
								"type": "t_string_storage"
							},
							{
								"astId": 1417,
								"contract": "base/WeightedVoting.sol:WeightedVoting",
								"label": "votesFor",
								"offset": 0,
								"slot": "3",
								"type": "t_uint256"
							},
							{
								"astId": 1419,
								"contract": "base/WeightedVoting.sol:WeightedVoting",
								"label": "votesAgainst",
								"offset": 0,
								"slot": "4",
								"type": "t_uint256"
							},
							{
								"astId": 1421,
								"contract": "base/WeightedVoting.sol:WeightedVoting",
								"label": "votesAbstain",
								"offset": 0,
								"slot": "5",
								"type": "t_uint256"
							},
							{
								"astId": 1423,
								"contract": "base/WeightedVoting.sol:WeightedVoting",
								"label": "totalVotes",
								"offset": 0,
								"slot": "6",
								"type": "t_uint256"
							},
							{
								"astId": 1425,
								"contract": "base/WeightedVoting.sol:WeightedVoting",
								"label": "quorum",
								"offset": 0,
								"slot": "7",
								"type": "t_uint256"
							},
							{
								"astId": 1427,
								"contract": "base/WeightedVoting.sol:WeightedVoting",
								"label": "passed",
								"offset": 0,
								"slot": "8",
								"type": "t_bool"
							},
							{
								"astId": 1429,
								"contract": "base/WeightedVoting.sol:WeightedVoting",
								"label": "closed",
								"offset": 1,
								"slot": "8",
								"type": "t_bool"
							}
						],
						"numberOfBytes": "288"
					},
					"t_struct(Set)796_storage": {
						"encoding": "inplace",
						"label": "struct EnumerableSet.Set",
						"members": [
							{
								"astId": 791,
								"contract": "base/WeightedVoting.sol:WeightedVoting",
								"label": "_values",
								"offset": 0,
								"slot": "0",
								"type": "t_array(t_bytes32)dyn_storage"
							},
							{
								"astId": 795,
								"contract": "base/WeightedVoting.sol:WeightedVoting",
								"label": "_positions",
								"offset": 0,
								"slot": "1",
								"type": "t_mapping(t_bytes32,t_uint256)"
							}
						],
						"numberOfBytes": "64"
					},
					"t_uint256": {
						"encoding": "inplace",
						"label": "uint256",
						"numberOfBytes": "32"
					}
				}
			},
			"userdoc": {
				"kind": "user",
				"methods": {},
				"version": 1
			}
		}
	}
}