{
	"base/ErrorTriageExercise.sol": {
		"ErrorTriageExercise": {
			"abi": [
				{
					"inputs": [
						{
							"internalType": "uint256",
							"name": "_a",
							"type": "uint256"
						},
						{
							"internalType": "uint256",
							"name": "_b",
							"type": "uint256"
						}
					],
					"name": "absDiff",
					"outputs": [
						{
							"internalType": "uint256",
							"name": "",
							"type": "uint256"
						}
					],
					"stateMutability": "pure",
					"type": "function"
				},
				{
					"inputs": [
						{
							"internalType": "uint256",
							"name": "_num",
							"type": "uint256"
						}
					],
					"name": "addToArr",
					"outputs": [],
					"stateMutability": "nonpayable",
					"type": "function"
				},
				{
					"inputs": [
						{
							"internalType": "uint256",
							"name": "_base",
							"type": "uint256"
						},
						{
							"internalType": "int256",
							"name": "_modifier",
							"type": "int256"
						}
					],
					"name": "applyModifier",
					"outputs": [
						{
							"internalType": "uint256",
							"name": "",
							"type": "uint256"
						}
					],
					"stateMutability": "pure",
					"type": "function"
				},
				{
					"inputs": [
						{
							"internalType": "uint256",
							"name": "_a",
							"type": "uint256"
						},
						{
							"internalType": "uint256",
							"name": "_b",
							"type": "uint256"
						},
						{
							"internalType": "uint256",
							"name": "_c",
							"type": "uint256"
						},
						{
							"internalType": "uint256",
							"name": "_d",
							"type": "uint256"
						}
					],
					"name": "diffWithNeighbor",
					"outputs": [
						{
							"internalType": "uint256[]",
							"name": "",
							"type": "uint256[]"
						}
					],
					"stateMutability": "pure",
					"type": "function"
				},
				{
					"inputs": [],
					"name": "getArr",
					"outputs": [
						{
							"internalType": "uint256[]",
							"name": "",
							"type": "uint256[]"
						}
					],
					"stateMutability": "view",
					"type": "function"
				},
				{
					"inputs": [],
					"name": "popWithReturn",
					"outputs": [
						{
							"internalType": "uint256",
							"name": "last",
							"type": "uint256"
						}
					],
					"stateMutability": "nonpayable",
					"type": "function"
				},
				{
					"inputs": [],
					"name": "resetArr",
					"outputs": [],
					"stateMutability": "nonpayable",
					"type": "function"
				}
			],
			"devdoc": {
				"kind": "dev",
				"methods": {},
				"version": 1
			},
			"evm": {
				"assembly": "    /* \"base/ErrorTriageExercise.sol\":124:1767  contract ErrorTriageExercise {... */\n  mstore(0x40, 0x80)\n  callvalue\n  dup1\n  iszero\n  tag_1\n  jumpi\n  0x00\n  dup1\n  revert\ntag_1:\n  pop\n  dataSize(sub_0)\n  dup1\n  dataOffset(sub_0)\n  0x00\n  codecopy\n  0x00\n  return\nstop\n\nsub_0: assembly {\n        /* \"base/ErrorTriageExercise.sol\":124:1767  contract ErrorTriageExercise {... */\n      mstore(0x40, 0x80)\n      callvalue\n      dup1\n      iszero\n      tag_1\n      jumpi\n      0x00\n      dup1\n      revert\n    tag_1:\n      pop\n      jumpi(tag_2, lt(calldatasize, 0x04))\n      shr(0xe0, calldataload(0x00))\n      dup1\n      0xa09ae0aa\n      gt\n      tag_10\n      jumpi\n      dup1\n      0xa09ae0aa\n      eq\n      tag_6\n      jumpi\n      dup1\n      0xe1819ff9\n      eq\n      tag_7\n      jumpi\n      dup1\n      0xf74e51ea\n      eq\n      tag_8\n      jumpi\n      dup1\n      0xfb8cbced\n      eq\n      tag_9\n      jumpi\n      jump(tag_2)\n    tag_10:\n      dup1\n      0x1abe2ac2\n      eq\n      tag_3\n      jumpi\n      dup1\n      0x29432314\n      eq\n      tag_4\n      jumpi\n      dup1\n      0x64529db5\n      eq\n      tag_5\n      jumpi\n    tag_2:\n      0x00\n      dup1\n      revert\n        /* \"base/ErrorTriageExercise.sol\":1346:1466  function popWithReturn() public returns (uint256 last) {... */\n    tag_3:\n      tag_11\n      tag_12\n      jump\t// in\n    tag_11:\n      mload(0x40)\n      tag_13\n      swap2\n      swap1\n      tag_14\n      jump\t// in\n    tag_13:\n      mload(0x40)\n      dup1\n      swap2\n      sub\n      swap1\n      return\n        /* \"base/ErrorTriageExercise.sol\":354:668  function diffWithNeighbor(uint256 _a, uint256 _b, uint256 _c, uint256 _d) public pure returns (uint256[] memory) {... */\n    tag_4:\n      tag_15\n      0x04\n      dup1\n      calldatasize\n      sub\n      dup2\n      add\n      swap1\n      tag_16\n      swap2\n      swap1\n      tag_17\n      jump\t// in\n    tag_16:\n      tag_18\n      jump\t// in\n    tag_15:\n      mload(0x40)\n      tag_19\n      swap2\n      swap1\n      tag_20\n      jump\t// in\n    tag_19:\n      mload(0x40)\n      dup1\n      swap2\n      sub\n      swap1\n      return\n        /* \"base/ErrorTriageExercise.sol\":1708:1764  function resetArr() public {... */\n    tag_5:\n      tag_21\n      tag_22\n      jump\t// in\n    tag_21:\n      stop\n        /* \"base/ErrorTriageExercise.sol\":676:866  function absDiff(uint256 _a, uint256 _b) public pure returns (uint256) {... */\n    tag_6:\n      tag_23\n      0x04\n      dup1\n      calldatasize\n      sub\n      dup2\n      add\n      swap1\n      tag_24\n      swap2\n      swap1\n      tag_25\n      jump\t// in\n    tag_24:\n      tag_26\n      jump\t// in\n    tag_23:\n      mload(0x40)\n      tag_27\n      swap2\n      swap1\n      tag_14\n      jump\t// in\n    tag_27:\n      mload(0x40)\n      dup1\n      swap2\n      sub\n      swap1\n      return\n        /* \"base/ErrorTriageExercise.sol\":1534:1606  function addToArr(uint256 _num) public {... */\n    tag_7:\n      tag_28\n      0x04\n      dup1\n      calldatasize\n      sub\n      dup2\n      add\n      swap1\n      tag_29\n      swap2\n      swap1\n      tag_30\n      jump\t// in\n    tag_29:\n      tag_31\n      jump\t// in\n    tag_28:\n      stop\n        /* \"base/ErrorTriageExercise.sol\":1031:1177  function applyModifier(uint256 _base, int256 _modifier) public pure returns (uint256) {... */\n    tag_8:\n      tag_32\n      0x04\n      dup1\n      calldatasize\n      sub\n      dup2\n      add\n      swap1\n      tag_33\n      swap2\n      swap1\n      tag_34\n      jump\t// in\n    tag_33:\n      tag_35\n      jump\t// in\n    tag_32:\n      mload(0x40)\n      tag_36\n      swap2\n      swap1\n      tag_14\n      jump\t// in\n    tag_36:\n      mload(0x40)\n      dup1\n      swap2\n      sub\n      swap1\n      return\n        /* \"base/ErrorTriageExercise.sol\":1614:1700  function getArr() public view returns (uint256[] memory) {... */\n    tag_9:\n      tag_37\n      tag_38\n      jump\t// in\n    tag_37:\n      mload(0x40)\n      tag_39\n      swap2\n      swap1\n      tag_20\n      jump\t// in\n    tag_39:\n      mload(0x40)\n      dup1\n      swap2\n      sub\n      swap1\n      return\n        /* \"base/ErrorTriageExercise.sol\":1346:1466  function popWithReturn() public returns (uint256 last) {... */\n    tag_12:\n        /* \"base/ErrorTriageExercise.sol\":1387:1399  uint256 last */\n      0x00\n        /* \"base/ErrorTriageExercise.sol\":1419:1422  arr */\n      dup1\n        /* \"base/ErrorTriageExercise.sol\":1436:1437  1 */\n      0x01\n        /* \"base/ErrorTriageExercise.sol\":1423:1426  arr */\n      0x00\n        /* \"base/ErrorTriageExercise.sol\":1423:1433  arr.length */\n      dup1\n      sload\n      swap1\n      pop\n        /* \"base/ErrorTriageExercise.sol\":1423:1437  arr.length - 1 */\n      tag_41\n      swap2\n      swap1\n      tag_42\n      jump\t// in\n    tag_41:\n        /* \"base/ErrorTriageExercise.sol\":1419:1438  arr[arr.length - 1] */\n      dup2\n      sload\n      dup2\n      lt\n      tag_43\n      jumpi\n      tag_44\n      tag_45\n      jump\t// in\n    tag_44:\n    tag_43:\n      swap1\n      0x00\n      mstore\n      keccak256(0x00, 0x20)\n      add\n      sload\n        /* \"base/ErrorTriageExercise.sol\":1412:1438  last = arr[arr.length - 1] */\n      swap1\n      pop\n        /* \"base/ErrorTriageExercise.sol\":1449:1452  arr */\n      0x00\n        /* \"base/ErrorTriageExercise.sol\":1449:1458  arr.pop() */\n      dup1\n      sload\n      dup1\n      tag_47\n      jumpi\n      tag_48\n      tag_49\n      jump\t// in\n    tag_48:\n    tag_47:\n      0x01\n      swap1\n      sub\n      dup2\n      dup2\n      swap1\n      0x00\n      mstore\n      keccak256(0x00, 0x20)\n      add\n      0x00\n      swap1\n      sstore\n      swap1\n      sstore\n        /* \"base/ErrorTriageExercise.sol\":1346:1466  function popWithReturn() public returns (uint256 last) {... */\n      swap1\n      jump\t// out\n        /* \"base/ErrorTriageExercise.sol\":354:668  function diffWithNeighbor(uint256 _a, uint256 _b, uint256 _c, uint256 _d) public pure returns (uint256[] memory) {... */\n    tag_18:\n        /* \"base/ErrorTriageExercise.sol\":449:465  uint256[] memory */\n      0x60\n        /* \"base/ErrorTriageExercise.sol\":478:502  uint256[] memory results */\n      0x00\n        /* \"base/ErrorTriageExercise.sol\":516:517  3 */\n      0x03\n        /* \"base/ErrorTriageExercise.sol\":505:518  new uint[](3) */\n      0xffffffffffffffff\n      dup2\n      gt\n      iszero\n      tag_52\n      jumpi\n      tag_53\n      tag_54\n      jump\t// in\n    tag_53:\n    tag_52:\n      mload(0x40)\n      swap1\n      dup1\n      dup3\n      mstore\n      dup1\n      0x20\n      mul\n      0x20\n      add\n      dup3\n      add\n      0x40\n      mstore\n      dup1\n      iszero\n      tag_55\n      jumpi\n      dup2\n      0x20\n      add\n      0x20\n      dup3\n      mul\n      dup1\n      calldatasize\n      dup4\n      calldatacopy\n      dup1\n      dup3\n      add\n      swap2\n      pop\n      pop\n      swap1\n      pop\n    tag_55:\n      pop\n        /* \"base/ErrorTriageExercise.sol\":478:518  uint256[] memory results = new uint[](3) */\n      swap1\n      pop\n        /* \"base/ErrorTriageExercise.sol\":542:557  absDiff(_a, _b) */\n      tag_56\n        /* \"base/ErrorTriageExercise.sol\":550:552  _a */\n      dup7\n        /* \"base/ErrorTriageExercise.sol\":554:556  _b */\n      dup7\n        /* \"base/ErrorTriageExercise.sol\":542:549  absDiff */\n      tag_26\n        /* \"base/ErrorTriageExercise.sol\":542:557  absDiff(_a, _b) */\n      jump\t// in\n    tag_56:\n        /* \"base/ErrorTriageExercise.sol\":529:536  results */\n      dup2\n        /* \"base/ErrorTriageExercise.sol\":537:538  0 */\n      0x00\n        /* \"base/ErrorTriageExercise.sol\":529:539  results[0] */\n      dup2\n      mload\n      dup2\n      lt\n      tag_57\n      jumpi\n      tag_58\n      tag_45\n      jump\t// in\n    tag_58:\n    tag_57:\n      0x20\n      mul\n      0x20\n      add\n      add\n        /* \"base/ErrorTriageExercise.sol\":529:557  results[0] = absDiff(_a, _b) */\n      dup2\n      dup2\n      mstore\n      pop\n      pop\n        /* \"base/ErrorTriageExercise.sol\":581:596  absDiff(_b, _c) */\n      tag_59\n        /* \"base/ErrorTriageExercise.sol\":589:591  _b */\n      dup6\n        /* \"base/ErrorTriageExercise.sol\":593:595  _c */\n      dup6\n        /* \"base/ErrorTriageExercise.sol\":581:588  absDiff */\n      tag_26\n        /* \"base/ErrorTriageExercise.sol\":581:596  absDiff(_b, _c) */\n      jump\t// in\n    tag_59:\n        /* \"base/ErrorTriageExercise.sol\":568:575  results */\n      dup2\n        /* \"base/ErrorTriageExercise.sol\":576:577  1 */\n      0x01\n        /* \"base/ErrorTriageExercise.sol\":568:578  results[1] */\n      dup2\n      mload\n      dup2\n      lt\n      tag_60\n      jumpi\n      tag_61\n      tag_45\n      jump\t// in\n    tag_61:\n    tag_60:\n      0x20\n      mul\n      0x20\n      add\n      add\n        /* \"base/ErrorTriageExercise.sol\":568:596  results[1] = absDiff(_b, _c) */\n      dup2\n      dup2\n      mstore\n      pop\n      pop\n        /* \"base/ErrorTriageExercise.sol\":620:635  absDiff(_c, _d) */\n      tag_62\n        /* \"base/ErrorTriageExercise.sol\":628:630  _c */\n      dup5\n        /* \"base/ErrorTriageExercise.sol\":632:634  _d */\n      dup5\n        /* \"base/ErrorTriageExercise.sol\":620:627  absDiff */\n      tag_26\n        /* \"base/ErrorTriageExercise.sol\":620:635  absDiff(_c, _d) */\n      jump\t// in\n    tag_62:\n        /* \"base/ErrorTriageExercise.sol\":607:614  results */\n      dup2\n        /* \"base/ErrorTriageExercise.sol\":615:616  2 */\n      0x02\n        /* \"base/ErrorTriageExercise.sol\":607:617  results[2] */\n      dup2\n      mload\n      dup2\n      lt\n      tag_63\n      jumpi\n      tag_64\n      tag_45\n      jump\t// in\n    tag_64:\n    tag_63:\n      0x20\n      mul\n      0x20\n      add\n      add\n        /* \"base/ErrorTriageExercise.sol\":607:635  results[2] = absDiff(_c, _d) */\n      dup2\n      dup2\n      mstore\n      pop\n      pop\n        /* \"base/ErrorTriageExercise.sol\":653:660  results */\n      dup1\n        /* \"base/ErrorTriageExercise.sol\":646:660  return results */\n      swap2\n      pop\n      pop\n        /* \"base/ErrorTriageExercise.sol\":354:668  function diffWithNeighbor(uint256 _a, uint256 _b, uint256 _c, uint256 _d) public pure returns (uint256[] memory) {... */\n      swap5\n      swap4\n      pop\n      pop\n      pop\n      pop\n      jump\t// out\n        /* \"base/ErrorTriageExercise.sol\":1708:1764  function resetArr() public {... */\n    tag_22:\n        /* \"base/ErrorTriageExercise.sol\":1753:1756  arr */\n      0x00\n      dup1\n        /* \"base/ErrorTriageExercise.sol\":1746:1756  delete arr */\n      tag_66\n      swap2\n      swap1\n      tag_67\n      jump\t// in\n    tag_66:\n        /* \"base/ErrorTriageExercise.sol\":1708:1764  function resetArr() public {... */\n      jump\t// out\n        /* \"base/ErrorTriageExercise.sol\":676:866  function absDiff(uint256 _a, uint256 _b) public pure returns (uint256) {... */\n    tag_26:\n        /* \"base/ErrorTriageExercise.sol\":738:745  uint256 */\n      0x00\n        /* \"base/ErrorTriageExercise.sol\":767:769  _b */\n      dup2\n        /* \"base/ErrorTriageExercise.sol\":762:764  _a */\n      dup4\n        /* \"base/ErrorTriageExercise.sol\":762:769  _a > _b */\n      gt\n        /* \"base/ErrorTriageExercise.sol\":758:859  if (_a > _b) {... */\n      iszero\n      tag_69\n      jumpi\n        /* \"base/ErrorTriageExercise.sol\":798:800  _b */\n      dup2\n        /* \"base/ErrorTriageExercise.sol\":793:795  _a */\n      dup4\n        /* \"base/ErrorTriageExercise.sol\":793:800  _a - _b */\n      tag_70\n      swap2\n      swap1\n      tag_42\n      jump\t// in\n    tag_70:\n        /* \"base/ErrorTriageExercise.sol\":786:800  return _a - _b */\n      swap1\n      pop\n      jump(tag_68)\n        /* \"base/ErrorTriageExercise.sol\":758:859  if (_a > _b) {... */\n    tag_69:\n        /* \"base/ErrorTriageExercise.sol\":845:847  _a */\n      dup3\n        /* \"base/ErrorTriageExercise.sol\":840:842  _b */\n      dup3\n        /* \"base/ErrorTriageExercise.sol\":840:847  _b - _a */\n      tag_72\n      swap2\n      swap1\n      tag_42\n      jump\t// in\n    tag_72:\n        /* \"base/ErrorTriageExercise.sol\":833:847  return _b - _a */\n      swap1\n      pop\n        /* \"base/ErrorTriageExercise.sol\":676:866  function absDiff(uint256 _a, uint256 _b) public pure returns (uint256) {... */\n    tag_68:\n      swap3\n      swap2\n      pop\n      pop\n      jump\t// out\n        /* \"base/ErrorTriageExercise.sol\":1534:1606  function addToArr(uint256 _num) public {... */\n    tag_31:\n        /* \"base/ErrorTriageExercise.sol\":1584:1587  arr */\n      0x00\n        /* \"base/ErrorTriageExercise.sol\":1593:1597  _num */\n      dup2\n        /* \"base/ErrorTriageExercise.sol\":1584:1598  arr.push(_num) */\n      swap1\n      dup1\n      0x01\n      dup2\n      sload\n      add\n      dup1\n      dup3\n      sstore\n      dup1\n      swap2\n      pop\n      pop\n      0x01\n      swap1\n      sub\n      swap1\n      0x00\n      mstore\n      keccak256(0x00, 0x20)\n      add\n      0x00\n      swap1\n      swap2\n      swap1\n      swap2\n      swap1\n      swap2\n      pop\n      sstore\n        /* \"base/ErrorTriageExercise.sol\":1534:1606  function addToArr(uint256 _num) public {... */\n      pop\n      jump\t// out\n        /* \"base/ErrorTriageExercise.sol\":1031:1177  function applyModifier(uint256 _base, int256 _modifier) public pure returns (uint256) {... */\n    tag_35:\n        /* \"base/ErrorTriageExercise.sol\":1108:1115  uint256 */\n      0x00\n        /* \"base/ErrorTriageExercise.sol\":1159:1168  _modifier */\n      dup2\n        /* \"base/ErrorTriageExercise.sol\":1150:1155  _base */\n      dup4\n        /* \"base/ErrorTriageExercise.sol\":1143:1168  int256(_base) + _modifier */\n      tag_76\n      swap2\n      swap1\n      tag_77\n      jump\t// in\n    tag_76:\n        /* \"base/ErrorTriageExercise.sol\":1128:1169  return uint256(int256(_base) + _modifier) */\n      swap1\n      pop\n        /* \"base/ErrorTriageExercise.sol\":1031:1177  function applyModifier(uint256 _base, int256 _modifier) public pure returns (uint256) {... */\n      swap3\n      swap2\n      pop\n      pop\n      jump\t// out\n        /* \"base/ErrorTriageExercise.sol\":1614:1700  function getArr() public view returns (uint256[] memory) {... */\n    tag_38:\n        /* \"base/ErrorTriageExercise.sol\":1653:1669  uint256[] memory */\n      0x60\n        /* \"base/ErrorTriageExercise.sol\":1689:1692  arr */\n      0x00\n        /* \"base/ErrorTriageExercise.sol\":1682:1692  return arr */\n      dup1\n      sload\n      dup1\n      0x20\n      mul\n      0x20\n      add\n      mload(0x40)\n      swap1\n      dup2\n      add\n      0x40\n      mstore\n      dup1\n      swap3\n      swap2\n      swap1\n      dup2\n      dup2\n      mstore\n      0x20\n      add\n      dup3\n      dup1\n      sload\n      dup1\n      iszero\n      tag_79\n      jumpi\n      0x20\n      mul\n      dup3\n      add\n      swap2\n      swap1\n      0x00\n      mstore\n      keccak256(0x00, 0x20)\n      swap1\n    tag_80:\n      dup2\n      sload\n      dup2\n      mstore\n      0x20\n      add\n      swap1\n      0x01\n      add\n      swap1\n      dup1\n      dup4\n      gt\n      tag_80\n      jumpi\n    tag_79:\n      pop\n      pop\n      pop\n      pop\n      pop\n      swap1\n      pop\n        /* \"base/ErrorTriageExercise.sol\":1614:1700  function getArr() public view returns (uint256[] memory) {... */\n      swap1\n      jump\t// out\n    tag_67:\n      pop\n      dup1\n      sload\n      0x00\n      dup3\n      sstore\n      swap1\n      0x00\n      mstore\n      keccak256(0x00, 0x20)\n      swap1\n      dup2\n      add\n      swap1\n      tag_82\n      swap2\n      swap1\n      tag_83\n      jump\t// in\n    tag_82:\n      pop\n      jump\t// out\n    tag_83:\n    tag_84:\n      dup1\n      dup3\n      gt\n      iszero\n      tag_85\n      jumpi\n      0x00\n      dup2\n      0x00\n      swap1\n      sstore\n      pop\n      0x01\n      add\n      jump(tag_84)\n    tag_85:\n      pop\n      swap1\n      jump\t// out\n        /* \"#utility.yul\":7:84   */\n    tag_86:\n        /* \"#utility.yul\":44:51   */\n      0x00\n        /* \"#utility.yul\":73:78   */\n      dup2\n        /* \"#utility.yul\":62:78   */\n      swap1\n      pop\n        /* \"#utility.yul\":7:84   */\n      swap2\n      swap1\n      pop\n      jump\t// out\n        /* \"#utility.yul\":90:208   */\n    tag_87:\n        /* \"#utility.yul\":177:201   */\n      tag_107\n        /* \"#utility.yul\":195:200   */\n      dup2\n        /* \"#utility.yul\":177:201   */\n      tag_86\n      jump\t// in\n    tag_107:\n        /* \"#utility.yul\":172:175   */\n      dup3\n        /* \"#utility.yul\":165:202   */\n      mstore\n        /* \"#utility.yul\":90:208   */\n      pop\n      pop\n      jump\t// out\n        /* \"#utility.yul\":214:436   */\n    tag_14:\n        /* \"#utility.yul\":307:311   */\n      0x00\n        /* \"#utility.yul\":345:347   */\n      0x20\n        /* \"#utility.yul\":334:343   */\n      dup3\n        /* \"#utility.yul\":330:348   */\n      add\n        /* \"#utility.yul\":322:348   */\n      swap1\n      pop\n        /* \"#utility.yul\":358:429   */\n      tag_109\n        /* \"#utility.yul\":426:427   */\n      0x00\n        /* \"#utility.yul\":415:424   */\n      dup4\n        /* \"#utility.yul\":411:428   */\n      add\n        /* \"#utility.yul\":402:408   */\n      dup5\n        /* \"#utility.yul\":358:429   */\n      tag_87\n      jump\t// in\n    tag_109:\n        /* \"#utility.yul\":214:436   */\n      swap3\n      swap2\n      pop\n      pop\n      jump\t// out\n        /* \"#utility.yul\":523:640   */\n    tag_89:\n        /* \"#utility.yul\":632:633   */\n      0x00\n        /* \"#utility.yul\":629:630   */\n      dup1\n        /* \"#utility.yul\":622:634   */\n      revert\n        /* \"#utility.yul\":769:891   */\n    tag_91:\n        /* \"#utility.yul\":842:866   */\n      tag_114\n        /* \"#utility.yul\":860:865   */\n      dup2\n        /* \"#utility.yul\":842:866   */\n      tag_86\n      jump\t// in\n    tag_114:\n        /* \"#utility.yul\":835:840   */\n      dup2\n        /* \"#utility.yul\":832:867   */\n      eq\n        /* \"#utility.yul\":822:885   */\n      tag_115\n      jumpi\n        /* \"#utility.yul\":881:882   */\n      0x00\n        /* \"#utility.yul\":878:879   */\n      dup1\n        /* \"#utility.yul\":871:883   */\n      revert\n        /* \"#utility.yul\":822:885   */\n    tag_115:\n        /* \"#utility.yul\":769:891   */\n      pop\n      jump\t// out\n        /* \"#utility.yul\":897:1036   */\n    tag_92:\n        /* \"#utility.yul\":943:948   */\n      0x00\n        /* \"#utility.yul\":981:987   */\n      dup2\n        /* \"#utility.yul\":968:988   */\n      calldataload\n        /* \"#utility.yul\":959:988   */\n      swap1\n      pop\n        /* \"#utility.yul\":997:1030   */\n      tag_117\n        /* \"#utility.yul\":1024:1029   */\n      dup2\n        /* \"#utility.yul\":997:1030   */\n      tag_91\n      jump\t// in\n    tag_117:\n        /* \"#utility.yul\":897:1036   */\n      swap3\n      swap2\n      pop\n      pop\n      jump\t// out\n        /* \"#utility.yul\":1042:1807   */\n    tag_17:\n        /* \"#utility.yul\":1128:1134   */\n      0x00\n        /* \"#utility.yul\":1136:1142   */\n      dup1\n        /* \"#utility.yul\":1144:1150   */\n      0x00\n        /* \"#utility.yul\":1152:1158   */\n      dup1\n        /* \"#utility.yul\":1201:1204   */\n      0x80\n        /* \"#utility.yul\":1189:1198   */\n      dup6\n        /* \"#utility.yul\":1180:1187   */\n      dup8\n        /* \"#utility.yul\":1176:1199   */\n      sub\n        /* \"#utility.yul\":1172:1205   */\n      slt\n        /* \"#utility.yul\":1169:1289   */\n      iszero\n      tag_119\n      jumpi\n        /* \"#utility.yul\":1208:1287   */\n      tag_120\n      tag_89\n      jump\t// in\n    tag_120:\n        /* \"#utility.yul\":1169:1289   */\n    tag_119:\n        /* \"#utility.yul\":1328:1329   */\n      0x00\n        /* \"#utility.yul\":1353:1406   */\n      tag_121\n        /* \"#utility.yul\":1398:1405   */\n      dup8\n        /* \"#utility.yul\":1389:1395   */\n      dup3\n        /* \"#utility.yul\":1378:1387   */\n      dup9\n        /* \"#utility.yul\":1374:1396   */\n      add\n        /* \"#utility.yul\":1353:1406   */\n      tag_92\n      jump\t// in\n    tag_121:\n        /* \"#utility.yul\":1343:1406   */\n      swap5\n      pop\n        /* \"#utility.yul\":1299:1416   */\n      pop\n        /* \"#utility.yul\":1455:1457   */\n      0x20\n        /* \"#utility.yul\":1481:1534   */\n      tag_122\n        /* \"#utility.yul\":1526:1533   */\n      dup8\n        /* \"#utility.yul\":1517:1523   */\n      dup3\n        /* \"#utility.yul\":1506:1515   */\n      dup9\n        /* \"#utility.yul\":1502:1524   */\n      add\n        /* \"#utility.yul\":1481:1534   */\n      tag_92\n      jump\t// in\n    tag_122:\n        /* \"#utility.yul\":1471:1534   */\n      swap4\n      pop\n        /* \"#utility.yul\":1426:1544   */\n      pop\n        /* \"#utility.yul\":1583:1585   */\n      0x40\n        /* \"#utility.yul\":1609:1662   */\n      tag_123\n        /* \"#utility.yul\":1654:1661   */\n      dup8\n        /* \"#utility.yul\":1645:1651   */\n      dup3\n        /* \"#utility.yul\":1634:1643   */\n      dup9\n        /* \"#utility.yul\":1630:1652   */\n      add\n        /* \"#utility.yul\":1609:1662   */\n      tag_92\n      jump\t// in\n    tag_123:\n        /* \"#utility.yul\":1599:1662   */\n      swap3\n      pop\n        /* \"#utility.yul\":1554:1672   */\n      pop\n        /* \"#utility.yul\":1711:1713   */\n      0x60\n        /* \"#utility.yul\":1737:1790   */\n      tag_124\n        /* \"#utility.yul\":1782:1789   */\n      dup8\n        /* \"#utility.yul\":1773:1779   */\n      dup3\n        /* \"#utility.yul\":1762:1771   */\n      dup9\n        /* \"#utility.yul\":1758:1780   */\n      add\n        /* \"#utility.yul\":1737:1790   */\n      tag_92\n      jump\t// in\n    tag_124:\n        /* \"#utility.yul\":1727:1790   */\n      swap2\n      pop\n        /* \"#utility.yul\":1682:1800   */\n      pop\n        /* \"#utility.yul\":1042:1807   */\n      swap3\n      swap6\n      swap2\n      swap5\n      pop\n      swap3\n      pop\n      jump\t// out\n        /* \"#utility.yul\":1813:1927   */\n    tag_93:\n        /* \"#utility.yul\":1880:1886   */\n      0x00\n        /* \"#utility.yul\":1914:1919   */\n      dup2\n        /* \"#utility.yul\":1908:1920   */\n      mload\n        /* \"#utility.yul\":1898:1920   */\n      swap1\n      pop\n        /* \"#utility.yul\":1813:1927   */\n      swap2\n      swap1\n      pop\n      jump\t// out\n        /* \"#utility.yul\":1933:2117   */\n    tag_94:\n        /* \"#utility.yul\":2032:2043   */\n      0x00\n        /* \"#utility.yul\":2066:2072   */\n      dup3\n        /* \"#utility.yul\":2061:2064   */\n      dup3\n        /* \"#utility.yul\":2054:2073   */\n      mstore\n        /* \"#utility.yul\":2106:2110   */\n      0x20\n        /* \"#utility.yul\":2101:2104   */\n      dup3\n        /* \"#utility.yul\":2097:2111   */\n      add\n        /* \"#utility.yul\":2082:2111   */\n      swap1\n      pop\n        /* \"#utility.yul\":1933:2117   */\n      swap3\n      swap2\n      pop\n      pop\n      jump\t// out\n        /* \"#utility.yul\":2123:2255   */\n    tag_95:\n        /* \"#utility.yul\":2190:2194   */\n      0x00\n        /* \"#utility.yul\":2213:2216   */\n      dup2\n        /* \"#utility.yul\":2205:2216   */\n      swap1\n      pop\n        /* \"#utility.yul\":2243:2247   */\n      0x20\n        /* \"#utility.yul\":2238:2241   */\n      dup3\n        /* \"#utility.yul\":2234:2248   */\n      add\n        /* \"#utility.yul\":2226:2248   */\n      swap1\n      pop\n        /* \"#utility.yul\":2123:2255   */\n      swap2\n      swap1\n      pop\n      jump\t// out\n        /* \"#utility.yul\":2261:2369   */\n    tag_96:\n        /* \"#utility.yul\":2338:2362   */\n      tag_129\n        /* \"#utility.yul\":2356:2361   */\n      dup2\n        /* \"#utility.yul\":2338:2362   */\n      tag_86\n      jump\t// in\n    tag_129:\n        /* \"#utility.yul\":2333:2336   */\n      dup3\n        /* \"#utility.yul\":2326:2363   */\n      mstore\n        /* \"#utility.yul\":2261:2369   */\n      pop\n      pop\n      jump\t// out\n        /* \"#utility.yul\":2375:2554   */\n    tag_97:\n        /* \"#utility.yul\":2444:2454   */\n      0x00\n        /* \"#utility.yul\":2465:2511   */\n      tag_131\n        /* \"#utility.yul\":2507:2510   */\n      dup4\n        /* \"#utility.yul\":2499:2505   */\n      dup4\n        /* \"#utility.yul\":2465:2511   */\n      tag_96\n      jump\t// in\n    tag_131:\n        /* \"#utility.yul\":2543:2547   */\n      0x20\n        /* \"#utility.yul\":2538:2541   */\n      dup4\n        /* \"#utility.yul\":2534:2548   */\n      add\n        /* \"#utility.yul\":2520:2548   */\n      swap1\n      pop\n        /* \"#utility.yul\":2375:2554   */\n      swap3\n      swap2\n      pop\n      pop\n      jump\t// out\n        /* \"#utility.yul\":2560:2673   */\n    tag_98:\n        /* \"#utility.yul\":2630:2634   */\n      0x00\n        /* \"#utility.yul\":2662:2666   */\n      0x20\n        /* \"#utility.yul\":2657:2660   */\n      dup3\n        /* \"#utility.yul\":2653:2667   */\n      add\n        /* \"#utility.yul\":2645:2667   */\n      swap1\n      pop\n        /* \"#utility.yul\":2560:2673   */\n      swap2\n      swap1\n      pop\n      jump\t// out\n        /* \"#utility.yul\":2709:3441   */\n    tag_99:\n        /* \"#utility.yul\":2828:2831   */\n      0x00\n        /* \"#utility.yul\":2857:2911   */\n      tag_134\n        /* \"#utility.yul\":2905:2910   */\n      dup3\n        /* \"#utility.yul\":2857:2911   */\n      tag_93\n      jump\t// in\n    tag_134:\n        /* \"#utility.yul\":2927:3013   */\n      tag_135\n        /* \"#utility.yul\":3006:3012   */\n      dup2\n        /* \"#utility.yul\":3001:3004   */\n      dup6\n        /* \"#utility.yul\":2927:3013   */\n      tag_94\n      jump\t// in\n    tag_135:\n        /* \"#utility.yul\":2920:3013   */\n      swap4\n      pop\n        /* \"#utility.yul\":3037:3093   */\n      tag_136\n        /* \"#utility.yul\":3087:3092   */\n      dup4\n        /* \"#utility.yul\":3037:3093   */\n      tag_95\n      jump\t// in\n    tag_136:\n        /* \"#utility.yul\":3116:3123   */\n      dup1\n        /* \"#utility.yul\":3147:3148   */\n      0x00\n        /* \"#utility.yul\":3132:3416   */\n    tag_137:\n        /* \"#utility.yul\":3157:3163   */\n      dup4\n        /* \"#utility.yul\":3154:3155   */\n      dup2\n        /* \"#utility.yul\":3151:3164   */\n      lt\n        /* \"#utility.yul\":3132:3416   */\n      iszero\n      tag_139\n      jumpi\n        /* \"#utility.yul\":3233:3239   */\n      dup2\n        /* \"#utility.yul\":3227:3240   */\n      mload\n        /* \"#utility.yul\":3260:3323   */\n      tag_140\n        /* \"#utility.yul\":3319:3322   */\n      dup9\n        /* \"#utility.yul\":3304:3317   */\n      dup3\n        /* \"#utility.yul\":3260:3323   */\n      tag_97\n      jump\t// in\n    tag_140:\n        /* \"#utility.yul\":3253:3323   */\n      swap8\n      pop\n        /* \"#utility.yul\":3346:3406   */\n      tag_141\n        /* \"#utility.yul\":3399:3405   */\n      dup4\n        /* \"#utility.yul\":3346:3406   */\n      tag_98\n      jump\t// in\n    tag_141:\n        /* \"#utility.yul\":3336:3406   */\n      swap3\n      pop\n        /* \"#utility.yul\":3192:3416   */\n      pop\n        /* \"#utility.yul\":3179:3180   */\n      0x01\n        /* \"#utility.yul\":3176:3177   */\n      dup2\n        /* \"#utility.yul\":3172:3181   */\n      add\n        /* \"#utility.yul\":3167:3181   */\n      swap1\n      pop\n        /* \"#utility.yul\":3132:3416   */\n      jump(tag_137)\n    tag_139:\n        /* \"#utility.yul\":3136:3150   */\n      pop\n        /* \"#utility.yul\":3432:3435   */\n      dup6\n        /* \"#utility.yul\":3425:3435   */\n      swap4\n      pop\n        /* \"#utility.yul\":2833:3441   */\n      pop\n      pop\n      pop\n        /* \"#utility.yul\":2709:3441   */\n      swap3\n      swap2\n      pop\n      pop\n      jump\t// out\n        /* \"#utility.yul\":3447:3820   */\n    tag_20:\n        /* \"#utility.yul\":3590:3594   */\n      0x00\n        /* \"#utility.yul\":3628:3630   */\n      0x20\n        /* \"#utility.yul\":3617:3626   */\n      dup3\n        /* \"#utility.yul\":3613:3631   */\n      add\n        /* \"#utility.yul\":3605:3631   */\n      swap1\n      pop\n        /* \"#utility.yul\":3677:3686   */\n      dup2\n        /* \"#utility.yul\":3671:3675   */\n      dup2\n        /* \"#utility.yul\":3667:3687   */\n      sub\n        /* \"#utility.yul\":3663:3664   */\n      0x00\n        /* \"#utility.yul\":3652:3661   */\n      dup4\n        /* \"#utility.yul\":3648:3665   */\n      add\n        /* \"#utility.yul\":3641:3688   */\n      mstore\n        /* \"#utility.yul\":3705:3813   */\n      tag_143\n        /* \"#utility.yul\":3808:3812   */\n      dup2\n        /* \"#utility.yul\":3799:3805   */\n      dup5\n        /* \"#utility.yul\":3705:3813   */\n      tag_99\n      jump\t// in\n    tag_143:\n        /* \"#utility.yul\":3697:3813   */\n      swap1\n      pop\n        /* \"#utility.yul\":3447:3820   */\n      swap3\n      swap2\n      pop\n      pop\n      jump\t// out\n        /* \"#utility.yul\":3826:4300   */\n    tag_25:\n        /* \"#utility.yul\":3894:3900   */\n      0x00\n        /* \"#utility.yul\":3902:3908   */\n      dup1\n        /* \"#utility.yul\":3951:3953   */\n      0x40\n        /* \"#utility.yul\":3939:3948   */\n      dup4\n        /* \"#utility.yul\":3930:3937   */\n      dup6\n        /* \"#utility.yul\":3926:3949   */\n      sub\n        /* \"#utility.yul\":3922:3954   */\n      slt\n        /* \"#utility.yul\":3919:4038   */\n      iszero\n      tag_145\n      jumpi\n        /* \"#utility.yul\":3957:4036   */\n      tag_146\n      tag_89\n      jump\t// in\n    tag_146:\n        /* \"#utility.yul\":3919:4038   */\n    tag_145:\n        /* \"#utility.yul\":4077:4078   */\n      0x00\n        /* \"#utility.yul\":4102:4155   */\n      tag_147\n        /* \"#utility.yul\":4147:4154   */\n      dup6\n        /* \"#utility.yul\":4138:4144   */\n      dup3\n        /* \"#utility.yul\":4127:4136   */\n      dup7\n        /* \"#utility.yul\":4123:4145   */\n      add\n        /* \"#utility.yul\":4102:4155   */\n      tag_92\n      jump\t// in\n    tag_147:\n        /* \"#utility.yul\":4092:4155   */\n      swap3\n      pop\n        /* \"#utility.yul\":4048:4165   */\n      pop\n        /* \"#utility.yul\":4204:4206   */\n      0x20\n        /* \"#utility.yul\":4230:4283   */\n      tag_148\n        /* \"#utility.yul\":4275:4282   */\n      dup6\n        /* \"#utility.yul\":4266:4272   */\n      dup3\n        /* \"#utility.yul\":4255:4264   */\n      dup7\n        /* \"#utility.yul\":4251:4273   */\n      add\n        /* \"#utility.yul\":4230:4283   */\n      tag_92\n      jump\t// in\n    tag_148:\n        /* \"#utility.yul\":4220:4283   */\n      swap2\n      pop\n        /* \"#utility.yul\":4175:4293   */\n      pop\n        /* \"#utility.yul\":3826:4300   */\n      swap3\n      pop\n      swap3\n      swap1\n      pop\n      jump\t// out\n        /* \"#utility.yul\":4306:4635   */\n    tag_30:\n        /* \"#utility.yul\":4365:4371   */\n      0x00\n        /* \"#utility.yul\":4414:4416   */\n      0x20\n        /* \"#utility.yul\":4402:4411   */\n      dup3\n        /* \"#utility.yul\":4393:4400   */\n      dup5\n        /* \"#utility.yul\":4389:4412   */\n      sub\n        /* \"#utility.yul\":4385:4417   */\n      slt\n        /* \"#utility.yul\":4382:4501   */\n      iszero\n      tag_150\n      jumpi\n        /* \"#utility.yul\":4420:4499   */\n      tag_151\n      tag_89\n      jump\t// in\n    tag_151:\n        /* \"#utility.yul\":4382:4501   */\n    tag_150:\n        /* \"#utility.yul\":4540:4541   */\n      0x00\n        /* \"#utility.yul\":4565:4618   */\n      tag_152\n        /* \"#utility.yul\":4610:4617   */\n      dup5\n        /* \"#utility.yul\":4601:4607   */\n      dup3\n        /* \"#utility.yul\":4590:4599   */\n      dup6\n        /* \"#utility.yul\":4586:4608   */\n      add\n        /* \"#utility.yul\":4565:4618   */\n      tag_92\n      jump\t// in\n    tag_152:\n        /* \"#utility.yul\":4555:4618   */\n      swap2\n      pop\n        /* \"#utility.yul\":4511:4628   */\n      pop\n        /* \"#utility.yul\":4306:4635   */\n      swap3\n      swap2\n      pop\n      pop\n      jump\t// out\n        /* \"#utility.yul\":4641:4717   */\n    tag_100:\n        /* \"#utility.yul\":4677:4684   */\n      0x00\n        /* \"#utility.yul\":4706:4711   */\n      dup2\n        /* \"#utility.yul\":4695:4711   */\n      swap1\n      pop\n        /* \"#utility.yul\":4641:4717   */\n      swap2\n      swap1\n      pop\n      jump\t// out\n        /* \"#utility.yul\":4723:4843   */\n    tag_101:\n        /* \"#utility.yul\":4795:4818   */\n      tag_155\n        /* \"#utility.yul\":4812:4817   */\n      dup2\n        /* \"#utility.yul\":4795:4818   */\n      tag_100\n      jump\t// in\n    tag_155:\n        /* \"#utility.yul\":4788:4793   */\n      dup2\n        /* \"#utility.yul\":4785:4819   */\n      eq\n        /* \"#utility.yul\":4775:4837   */\n      tag_156\n      jumpi\n        /* \"#utility.yul\":4833:4834   */\n      0x00\n        /* \"#utility.yul\":4830:4831   */\n      dup1\n        /* \"#utility.yul\":4823:4835   */\n      revert\n        /* \"#utility.yul\":4775:4837   */\n    tag_156:\n        /* \"#utility.yul\":4723:4843   */\n      pop\n      jump\t// out\n        /* \"#utility.yul\":4849:4986   */\n    tag_102:\n        /* \"#utility.yul\":4894:4899   */\n      0x00\n        /* \"#utility.yul\":4932:4938   */\n      dup2\n        /* \"#utility.yul\":4919:4939   */\n      calldataload\n        /* \"#utility.yul\":4910:4939   */\n      swap1\n      pop\n        /* \"#utility.yul\":4948:4980   */\n      tag_158\n        /* \"#utility.yul\":4974:4979   */\n      dup2\n        /* \"#utility.yul\":4948:4980   */\n      tag_101\n      jump\t// in\n    tag_158:\n        /* \"#utility.yul\":4849:4986   */\n      swap3\n      swap2\n      pop\n      pop\n      jump\t// out\n        /* \"#utility.yul\":4992:5464   */\n    tag_34:\n        /* \"#utility.yul\":5059:5065   */\n      0x00\n        /* \"#utility.yul\":5067:5073   */\n      dup1\n        /* \"#utility.yul\":5116:5118   */\n      0x40\n        /* \"#utility.yul\":5104:5113   */\n      dup4\n        /* \"#utility.yul\":5095:5102   */\n      dup6\n        /* \"#utility.yul\":5091:5114   */\n      sub\n        /* \"#utility.yul\":5087:5119   */\n      slt\n        /* \"#utility.yul\":5084:5203   */\n      iszero\n      tag_160\n      jumpi\n        /* \"#utility.yul\":5122:5201   */\n      tag_161\n      tag_89\n      jump\t// in\n    tag_161:\n        /* \"#utility.yul\":5084:5203   */\n    tag_160:\n        /* \"#utility.yul\":5242:5243   */\n      0x00\n        /* \"#utility.yul\":5267:5320   */\n      tag_162\n        /* \"#utility.yul\":5312:5319   */\n      dup6\n        /* \"#utility.yul\":5303:5309   */\n      dup3\n        /* \"#utility.yul\":5292:5301   */\n      dup7\n        /* \"#utility.yul\":5288:5310   */\n      add\n        /* \"#utility.yul\":5267:5320   */\n      tag_92\n      jump\t// in\n    tag_162:\n        /* \"#utility.yul\":5257:5320   */\n      swap3\n      pop\n        /* \"#utility.yul\":5213:5330   */\n      pop\n        /* \"#utility.yul\":5369:5371   */\n      0x20\n        /* \"#utility.yul\":5395:5447   */\n      tag_163\n        /* \"#utility.yul\":5439:5446   */\n      dup6\n        /* \"#utility.yul\":5430:5436   */\n      dup3\n        /* \"#utility.yul\":5419:5428   */\n      dup7\n        /* \"#utility.yul\":5415:5437   */\n      add\n        /* \"#utility.yul\":5395:5447   */\n      tag_102\n      jump\t// in\n    tag_163:\n        /* \"#utility.yul\":5385:5447   */\n      swap2\n      pop\n        /* \"#utility.yul\":5340:5457   */\n      pop\n        /* \"#utility.yul\":4992:5464   */\n      swap3\n      pop\n      swap3\n      swap1\n      pop\n      jump\t// out\n        /* \"#utility.yul\":5470:5650   */\n    tag_103:\n        /* \"#utility.yul\":5518:5595   */\n      0x4e487b7100000000000000000000000000000000000000000000000000000000\n        /* \"#utility.yul\":5515:5516   */\n      0x00\n        /* \"#utility.yul\":5508:5596   */\n      mstore\n        /* \"#utility.yul\":5615:5619   */\n      0x11\n        /* \"#utility.yul\":5612:5613   */\n      0x04\n        /* \"#utility.yul\":5605:5620   */\n      mstore\n        /* \"#utility.yul\":5639:5643   */\n      0x24\n        /* \"#utility.yul\":5636:5637   */\n      0x00\n        /* \"#utility.yul\":5629:5644   */\n      revert\n        /* \"#utility.yul\":5656:5850   */\n    tag_42:\n        /* \"#utility.yul\":5696:5700   */\n      0x00\n        /* \"#utility.yul\":5716:5736   */\n      tag_166\n        /* \"#utility.yul\":5734:5735   */\n      dup3\n        /* \"#utility.yul\":5716:5736   */\n      tag_86\n      jump\t// in\n    tag_166:\n        /* \"#utility.yul\":5711:5736   */\n      swap2\n      pop\n        /* \"#utility.yul\":5750:5770   */\n      tag_167\n        /* \"#utility.yul\":5768:5769   */\n      dup4\n        /* \"#utility.yul\":5750:5770   */\n      tag_86\n      jump\t// in\n    tag_167:\n        /* \"#utility.yul\":5745:5770   */\n      swap3\n      pop\n        /* \"#utility.yul\":5794:5795   */\n      dup3\n        /* \"#utility.yul\":5791:5792   */\n      dup3\n        /* \"#utility.yul\":5787:5796   */\n      sub\n        /* \"#utility.yul\":5779:5796   */\n      swap1\n      pop\n        /* \"#utility.yul\":5818:5819   */\n      dup2\n        /* \"#utility.yul\":5812:5816   */\n      dup2\n        /* \"#utility.yul\":5809:5820   */\n      gt\n        /* \"#utility.yul\":5806:5843   */\n      iszero\n      tag_168\n      jumpi\n        /* \"#utility.yul\":5823:5841   */\n      tag_169\n      tag_103\n      jump\t// in\n    tag_169:\n        /* \"#utility.yul\":5806:5843   */\n    tag_168:\n        /* \"#utility.yul\":5656:5850   */\n      swap3\n      swap2\n      pop\n      pop\n      jump\t// out\n        /* \"#utility.yul\":5856:6036   */\n    tag_45:\n        /* \"#utility.yul\":5904:5981   */\n      0x4e487b7100000000000000000000000000000000000000000000000000000000\n        /* \"#utility.yul\":5901:5902   */\n      0x00\n        /* \"#utility.yul\":5894:5982   */\n      mstore\n        /* \"#utility.yul\":6001:6005   */\n      0x32\n        /* \"#utility.yul\":5998:5999   */\n      0x04\n        /* \"#utility.yul\":5991:6006   */\n      mstore\n        /* \"#utility.yul\":6025:6029   */\n      0x24\n        /* \"#utility.yul\":6022:6023   */\n      0x00\n        /* \"#utility.yul\":6015:6030   */\n      revert\n        /* \"#utility.yul\":6042:6222   */\n    tag_49:\n        /* \"#utility.yul\":6090:6167   */\n      0x4e487b7100000000000000000000000000000000000000000000000000000000\n        /* \"#utility.yul\":6087:6088   */\n      0x00\n        /* \"#utility.yul\":6080:6168   */\n      mstore\n        /* \"#utility.yul\":6187:6191   */\n      0x31\n        /* \"#utility.yul\":6184:6185   */\n      0x04\n        /* \"#utility.yul\":6177:6192   */\n      mstore\n        /* \"#utility.yul\":6211:6215   */\n      0x24\n        /* \"#utility.yul\":6208:6209   */\n      0x00\n        /* \"#utility.yul\":6201:6216   */\n      revert\n        /* \"#utility.yul\":6228:6408   */\n    tag_54:\n        /* \"#utility.yul\":6276:6353   */\n      0x4e487b7100000000000000000000000000000000000000000000000000000000\n        /* \"#utility.yul\":6273:6274   */\n      0x00\n        /* \"#utility.yul\":6266:6354   */\n      mstore\n        /* \"#utility.yul\":6373:6377   */\n      0x41\n        /* \"#utility.yul\":6370:6371   */\n      0x04\n        /* \"#utility.yul\":6363:6378   */\n      mstore\n        /* \"#utility.yul\":6397:6401   */\n      0x24\n        /* \"#utility.yul\":6394:6395   */\n      0x00\n        /* \"#utility.yul\":6387:6402   */\n      revert\n        /* \"#utility.yul\":6414:6789   */\n    tag_77:\n        /* \"#utility.yul\":6453:6456   */\n      0x00\n        /* \"#utility.yul\":6472:6491   */\n      tag_174\n        /* \"#utility.yul\":6489:6490   */\n      dup3\n        /* \"#utility.yul\":6472:6491   */\n      tag_100\n      jump\t// in\n    tag_174:\n        /* \"#utility.yul\":6467:6491   */\n      swap2\n      pop\n        /* \"#utility.yul\":6505:6524   */\n      tag_175\n        /* \"#utility.yul\":6522:6523   */\n      dup4\n        /* \"#utility.yul\":6505:6524   */\n      tag_100\n      jump\t// in\n    tag_175:\n        /* \"#utility.yul\":6500:6524   */\n      swap3\n      pop\n        /* \"#utility.yul\":6547:6548   */\n      dup3\n        /* \"#utility.yul\":6544:6545   */\n      dup3\n        /* \"#utility.yul\":6540:6549   */\n      add\n        /* \"#utility.yul\":6533:6549   */\n      swap1\n      pop\n        /* \"#utility.yul\":6745:6746   */\n      dup3\n        /* \"#utility.yul\":6740:6743   */\n      dup2\n        /* \"#utility.yul\":6736:6747   */\n      slt\n        /* \"#utility.yul\":6729:6748   */\n      iszero\n        /* \"#utility.yul\":6725:6726   */\n      0x00\n        /* \"#utility.yul\":6722:6723   */\n      dup4\n        /* \"#utility.yul\":6718:6727   */\n      slt\n        /* \"#utility.yul\":6714:6749   */\n      and\n        /* \"#utility.yul\":6697:6698   */\n      dup4\n        /* \"#utility.yul\":6692:6695   */\n      dup3\n        /* \"#utility.yul\":6688:6699   */\n      slt\n        /* \"#utility.yul\":6683:6684   */\n      0x00\n        /* \"#utility.yul\":6680:6681   */\n      dup5\n        /* \"#utility.yul\":6676:6685   */\n      slt\n        /* \"#utility.yul\":6669:6686   */\n      iszero\n        /* \"#utility.yul\":6665:6700   */\n      and\n        /* \"#utility.yul\":6649:6759   */\n      or\n        /* \"#utility.yul\":6646:6782   */\n      iszero\n      tag_176\n      jumpi\n        /* \"#utility.yul\":6762:6780   */\n      tag_177\n      tag_103\n      jump\t// in\n    tag_177:\n        /* \"#utility.yul\":6646:6782   */\n    tag_176:\n        /* \"#utility.yul\":6414:6789   */\n      swap3\n      swap2\n      pop\n      pop\n      jump\t// out\n\n    auxdata: 0xa2646970667358221220713ef9b38e2ac14463b6b42a184e9dfe7cd98e8f0193a09135e06adc7262cd9d64736f6c63430008190033\n}\n",
				"bytecode": {
					"linkReferences": {},
					"object": "6080604052348015600e575f80fd5b5061077b8061001c5f395ff3fe608060405234801561000f575f80fd5b506004361061007b575f3560e01c8063a09ae0aa11610059578063a09ae0aa146100d7578063e1819ff914610107578063f74e51ea14610123578063fb8cbced146101535761007b565b80631abe2ac21461007f578063294323141461009d57806364529db5146100cd575b5f80fd5b610087610171565b60405161009491906103c1565b60405180910390f35b6100b760048036038101906100b29190610408565b6101c7565b6040516100c49190610523565b60405180910390f35b6100d561029f565b005b6100f160048036038101906100ec9190610543565b6102ad565b6040516100fe91906103c1565b60405180910390f35b610121600480360381019061011c9190610581565b6102de565b005b61013d600480360381019061013891906105df565b610306565b60405161014a91906103c1565b60405180910390f35b61015b61031b565b6040516101689190610523565b60405180910390f35b5f8060015f80549050610184919061064a565b815481106101955761019461067d565b5b905f5260205f20015490505f8054806101b1576101b06106aa565b5b600190038181905f5260205f20015f9055905590565b60605f600367ffffffffffffffff8111156101e5576101e46106d7565b5b6040519080825280602002602001820160405280156102135781602001602082028036833780820191505090505b50905061022086866102ad565b815f815181106102335761023261067d565b5b60200260200101818152505061024985856102ad565b8160018151811061025d5761025c61067d565b5b60200260200101818152505061027384846102ad565b816002815181106102875761028661067d565b5b60200260200101818152505080915050949350505050565b5f806102ab9190610370565b565b5f818311156102c95781836102c2919061064a565b90506102d8565b82826102d5919061064a565b90505b92915050565b5f81908060018154018082558091505060019003905f5260205f20015f909190919091505550565b5f81836103139190610704565b905092915050565b60605f80548060200260200160405190810160405280929190818152602001828054801561036657602002820191905f5260205f20905b815481526020019060010190808311610352575b5050505050905090565b5080545f8255905f5260205f209081019061038b919061038e565b50565b5b808211156103a5575f815f90555060010161038f565b5090565b5f819050919050565b6103bb816103a9565b82525050565b5f6020820190506103d45f8301846103b2565b92915050565b5f80fd5b6103e7816103a9565b81146103f1575f80fd5b50565b5f81359050610402816103de565b92915050565b5f805f80608085870312156104205761041f6103da565b5b5f61042d878288016103f4565b945050602061043e878288016103f4565b935050604061044f878288016103f4565b9250506060610460878288016103f4565b91505092959194509250565b5f81519050919050565b5f82825260208201905092915050565b5f819050602082019050919050565b61049e816103a9565b82525050565b5f6104af8383610495565b60208301905092915050565b5f602082019050919050565b5f6104d18261046c565b6104db8185610476565b93506104e683610486565b805f5b838110156105165781516104fd88826104a4565b9750610508836104bb565b9250506001810190506104e9565b5085935050505092915050565b5f6020820190508181035f83015261053b81846104c7565b905092915050565b5f8060408385031215610559576105586103da565b5b5f610566858286016103f4565b9250506020610577858286016103f4565b9150509250929050565b5f60208284031215610596576105956103da565b5b5f6105a3848285016103f4565b91505092915050565b5f819050919050565b6105be816105ac565b81146105c8575f80fd5b50565b5f813590506105d9816105b5565b92915050565b5f80604083850312156105f5576105f46103da565b5b5f610602858286016103f4565b9250506020610613858286016105cb565b9150509250929050565b7f4e487b71000000000000000000000000000000000000000000000000000000005f52601160045260245ffd5b5f610654826103a9565b915061065f836103a9565b92508282039050818111156106775761067661061d565b5b92915050565b7f4e487b71000000000000000000000000000000000000000000000000000000005f52603260045260245ffd5b7f4e487b71000000000000000000000000000000000000000000000000000000005f52603160045260245ffd5b7f4e487b71000000000000000000000000000000000000000000000000000000005f52604160045260245ffd5b5f61070e826105ac565b9150610719836105ac565b92508282019050828112155f8312168382125f84121516171561073f5761073e61061d565b5b9291505056fea2646970667358221220713ef9b38e2ac14463b6b42a184e9dfe7cd98e8f0193a09135e06adc7262cd9d64736f6c63430008190033",
					"opcodes": "PUSH1 0x80 PUSH1 0x40 MSTORE CALLVALUE DUP1 ISZERO PUSH1 0xE JUMPI PUSH0 DUP1 REVERT JUMPDEST POP PUSH2 0x77B DUP1 PUSH2 0x1C PUSH0 CODECOPY PUSH0 RETURN INVALID PUSH1 0x80 PUSH1 0x40 MSTORE CALLVALUE DUP1 ISZERO PUSH2 0xF JUMPI PUSH0 DUP1 REVERT JUMPDEST POP PUSH1 0x4 CALLDATASIZE LT PUSH2 0x7B JUMPI PUSH0 CALLDATALOAD PUSH1 0xE0 SHR DUP1 PUSH4 0xA09AE0AA GT PUSH2 0x59 JUMPI DUP1 PUSH4 0xA09AE0AA EQ PUSH2 0xD7 JUMPI DUP1 PUSH4 0xE1819FF9 EQ PUSH2 0x107 JUMPI DUP1 PUSH4 0xF74E51EA EQ PUSH2 0x123 JUMPI DUP1 PUSH4 0xFB8CBCED EQ PUSH2 0x153 JUMPI PUSH2 0x7B JUMP JUMPDEST DUP1 PUSH4 0x1ABE2AC2 EQ PUSH2 0x7F JUMPI DUP1 PUSH4 0x29432314 EQ PUSH2 0x9D JUMPI DUP1 PUSH4 0x64529DB5 EQ PUSH2 0xCD JUMPI JUMPDEST PUSH0 DUP1 REVERT JUMPDEST PUSH2 0x87 PUSH2 0x171 JUMP JUMPDEST PUSH1 0x40 MLOAD PUSH2 0x94 SWAP2 SWAP1 PUSH2 0x3C1 JUMP JUMPDEST PUSH1 0x40 MLOAD DUP1 SWAP2 SUB SWAP1 RETURN JUMPDEST PUSH2 0xB7 PUSH1 0x4 DUP1 CALLDATASIZE SUB DUP2 ADD SWAP1 PUSH2 0xB2 SWAP2 SWAP1 PUSH2 0x408 JUMP JUMPDEST PUSH2 0x1C7 JUMP JUMPDEST PUSH1 0x40 MLOAD PUSH2 0xC4 SWAP2 SWAP1 PUSH2 0x523 JUMP JUMPDEST PUSH1 0x40 MLOAD DUP1 SWAP2 SUB SWAP1 RETURN JUMPDEST PUSH2 0xD5 PUSH2 0x29F JUMP JUMPDEST STOP JUMPDEST PUSH2 0xF1 PUSH1 0x4 DUP1 CALLDATASIZE SUB DUP2 ADD SWAP1 PUSH2 0xEC SWAP2 SWAP1 PUSH2 0x543 JUMP JUMPDEST PUSH2 0x2AD JUMP JUMPDEST PUSH1 0x40 MLOAD PUSH2 0xFE SWAP2 SWAP1 PUSH2 0x3C1 JUMP JUMPDEST PUSH1 0x40 MLOAD DUP1 SWAP2 SUB SWAP1 RETURN JUMPDEST PUSH2 0x121 PUSH1 0x4 DUP1 CALLDATASIZE SUB DUP2 ADD SWAP1 PUSH2 0x11C SWAP2 SWAP1 PUSH2 0x581 JUMP JUMPDEST PUSH2 0x2DE JUMP JUMPDEST STOP JUMPDEST PUSH2 0x13D PUSH1 0x4 DUP1 CALLDATASIZE SUB DUP2 ADD SWAP1 PUSH2 0x138 SWAP2 SWAP1 PUSH2 0x5DF JUMP JUMPDEST PUSH2 0x306 JUMP JUMPDEST PUSH1 0x40 MLOAD PUSH2 0x14A SWAP2 SWAP1 PUSH2 0x3C1 JUMP JUMPDEST PUSH1 0x40 MLOAD DUP1 SWAP2 SUB SWAP1 RETURN JUMPDEST PUSH2 0x15B PUSH2 0x31B JUMP JUMPDEST PUSH1 0x40 MLOAD PUSH2 0x168 SWAP2 SWAP1 PUSH2 0x523 JUMP JUMPDEST PUSH1 0x40 MLOAD DUP1 SWAP2 SUB SWAP1 RETURN JUMPDEST PUSH0 DUP1 PUSH1 0x1 PUSH0 DUP1 SLOAD SWAP1 POP PUSH2 0x184 SWAP2 SWAP1 PUSH2 0x64A JUMP JUMPDEST DUP2 SLOAD DUP2 LT PUSH2 0x195 JUMPI PUSH2 0x194 PUSH2 0x67D JUMP JUMPDEST JUMPDEST SWAP1 PUSH0 MSTORE PUSH1 0x20 PUSH0 KECCAK256 ADD SLOAD SWAP1 POP PUSH0 DUP1 SLOAD DUP1 PUSH2 0x1B1 JUMPI PUSH2 0x1B0 PUSH2 0x6AA JUMP JUMPDEST JUMPDEST PUSH1 0x1 SWAP1 SUB DUP2 DUP2 SWAP1 PUSH0 MSTORE PUSH1 0x20 PUSH0 KECCAK256 ADD PUSH0 SWAP1 SSTORE SWAP1 SSTORE SWAP1 JUMP JUMPDEST PUSH1 0x60 PUSH0 PUSH1 0x3 PUSH8 0xFFFFFFFFFFFFFFFF DUP2 GT ISZERO PUSH2 0x1E5 JUMPI PUSH2 0x1E4 PUSH2 0x6D7 JUMP JUMPDEST JUMPDEST PUSH1 0x40 MLOAD SWAP1 DUP1 DUP3 MSTORE DUP1 PUSH1 0x20 MUL PUSH1 0x20 ADD DUP3 ADD PUSH1 0x40 MSTORE DUP1 ISZERO PUSH2 0x213 JUMPI DUP2 PUSH1 0x20 ADD PUSH1 0x20 DUP3 MUL DUP1 CALLDATASIZE DUP4 CALLDATACOPY DUP1 DUP3 ADD SWAP2 POP POP SWAP1 POP JUMPDEST POP SWAP1 POP PUSH2 0x220 DUP7 DUP7 PUSH2 0x2AD JUMP JUMPDEST DUP2 PUSH0 DUP2 MLOAD DUP2 LT PUSH2 0x233 JUMPI PUSH2 0x232 PUSH2 0x67D JUMP JUMPDEST JUMPDEST PUSH1 0x20 MUL PUSH1 0x20 ADD ADD DUP2 DUP2 MSTORE POP POP PUSH2 0x249 DUP6 DUP6 PUSH2 0x2AD JUMP JUMPDEST DUP2 PUSH1 0x1 DUP2 MLOAD DUP2 LT PUSH2 0x25D JUMPI PUSH2 0x25C PUSH2 0x67D JUMP JUMPDEST JUMPDEST PUSH1 0x20 MUL PUSH1 0x20 ADD ADD DUP2 DUP2 MSTORE POP POP PUSH2 0x273 DUP5 DUP5 PUSH2 0x2AD JUMP JUMPDEST DUP2 PUSH1 0x2 DUP2 MLOAD DUP2 LT PUSH2 0x287 JUMPI PUSH2 0x286 PUSH2 0x67D JUMP JUMPDEST JUMPDEST PUSH1 0x20 MUL PUSH1 0x20 ADD ADD DUP2 DUP2 MSTORE POP POP DUP1 SWAP2 POP POP SWAP5 SWAP4 POP POP POP POP JUMP JUMPDEST PUSH0 DUP1 PUSH2 0x2AB SWAP2 SWAP1 PUSH2 0x370 JUMP JUMPDEST JUMP JUMPDEST PUSH0 DUP2 DUP4 GT ISZERO PUSH2 0x2C9 JUMPI DUP2 DUP4 PUSH2 0x2C2 SWAP2 SWAP1 PUSH2 0x64A JUMP JUMPDEST SWAP1 POP PUSH2 0x2D8 JUMP JUMPDEST DUP3 DUP3 PUSH2 0x2D5 SWAP2 SWAP1 PUSH2 0x64A JUMP JUMPDEST SWAP1 POP JUMPDEST SWAP3 SWAP2 POP POP JUMP JUMPDEST PUSH0 DUP2 SWAP1 DUP1 PUSH1 0x1 DUP2 SLOAD ADD DUP1 DUP3 SSTORE DUP1 SWAP2 POP POP PUSH1 0x1 SWAP1 SUB SWAP1 PUSH0 MSTORE PUSH1 0x20 PUSH0 KECCAK256 ADD PUSH0 SWAP1 SWAP2 SWAP1 SWAP2 SWAP1 SWAP2 POP SSTORE POP JUMP JUMPDEST PUSH0 DUP2 DUP4 PUSH2 0x313 SWAP2 SWAP1 PUSH2 0x704 JUMP JUMPDEST SWAP1 POP SWAP3 SWAP2 POP POP JUMP JUMPDEST PUSH1 0x60 PUSH0 DUP1 SLOAD DUP1 PUSH1 0x20 MUL PUSH1 0x20 ADD PUSH1 0x40 MLOAD SWAP1 DUP2 ADD PUSH1 0x40 MSTORE DUP1 SWAP3 SWAP2 SWAP1 DUP2 DUP2 MSTORE PUSH1 0x20 ADD DUP3 DUP1 SLOAD DUP1 ISZERO PUSH2 0x366 JUMPI PUSH1 0x20 MUL DUP3 ADD SWAP2 SWAP1 PUSH0 MSTORE PUSH1 0x20 PUSH0 KECCAK256 SWAP1 JUMPDEST DUP2 SLOAD DUP2 MSTORE PUSH1 0x20 ADD SWAP1 PUSH1 0x1 ADD SWAP1 DUP1 DUP4 GT PUSH2 0x352 JUMPI JUMPDEST POP POP POP POP POP SWAP1 POP SWAP1 JUMP JUMPDEST POP DUP1 SLOAD PUSH0 DUP3 SSTORE SWAP1 PUSH0 MSTORE PUSH1 0x20 PUSH0 KECCAK256 SWAP1 DUP2 ADD SWAP1 PUSH2 0x38B SWAP2 SWAP1 PUSH2 0x38E JUMP JUMPDEST POP JUMP JUMPDEST JUMPDEST DUP1 DUP3 GT ISZERO PUSH2 0x3A5 JUMPI PUSH0 DUP2 PUSH0 SWAP1 SSTORE POP PUSH1 0x1 ADD PUSH2 0x38F JUMP JUMPDEST POP SWAP1 JUMP JUMPDEST PUSH0 DUP2 SWAP1 POP SWAP2 SWAP1 POP JUMP JUMPDEST PUSH2 0x3BB DUP2 PUSH2 0x3A9 JUMP JUMPDEST DUP3 MSTORE POP POP JUMP JUMPDEST PUSH0 PUSH1 0x20 DUP3 ADD SWAP1 POP PUSH2 0x3D4 PUSH0 DUP4 ADD DUP5 PUSH2 0x3B2 JUMP JUMPDEST SWAP3 SWAP2 POP POP JUMP JUMPDEST PUSH0 DUP1 REVERT JUMPDEST PUSH2 0x3E7 DUP2 PUSH2 0x3A9 JUMP JUMPDEST DUP2 EQ PUSH2 0x3F1 JUMPI PUSH0 DUP1 REVERT JUMPDEST POP JUMP JUMPDEST PUSH0 DUP2 CALLDATALOAD SWAP1 POP PUSH2 0x402 DUP2 PUSH2 0x3DE JUMP JUMPDEST SWAP3 SWAP2 POP POP JUMP JUMPDEST PUSH0 DUP1 PUSH0 DUP1 PUSH1 0x80 DUP6 DUP8 SUB SLT ISZERO PUSH2 0x420 JUMPI PUSH2 0x41F PUSH2 0x3DA JUMP JUMPDEST JUMPDEST PUSH0 PUSH2 0x42D DUP8 DUP3 DUP9 ADD PUSH2 0x3F4 JUMP JUMPDEST SWAP5 POP POP PUSH1 0x20 PUSH2 0x43E DUP8 DUP3 DUP9 ADD PUSH2 0x3F4 JUMP JUMPDEST SWAP4 POP POP PUSH1 0x40 PUSH2 0x44F DUP8 DUP3 DUP9 ADD PUSH2 0x3F4 JUMP JUMPDEST SWAP3 POP POP PUSH1 0x60 PUSH2 0x460 DUP8 DUP3 DUP9 ADD PUSH2 0x3F4 JUMP JUMPDEST SWAP2 POP POP SWAP3 SWAP6 SWAP2 SWAP5 POP SWAP3 POP JUMP JUMPDEST PUSH0 DUP2 MLOAD SWAP1 POP SWAP2 SWAP1 POP JUMP JUMPDEST PUSH0 DUP3 DUP3 MSTORE PUSH1 0x20 DUP3 ADD SWAP1 POP SWAP3 SWAP2 POP POP JUMP JUMPDEST PUSH0 DUP2 SWAP1 POP PUSH1 0x20 DUP3 ADD SWAP1 POP SWAP2 SWAP1 POP JUMP JUMPDEST PUSH2 0x49E DUP2 PUSH2 0x3A9 JUMP JUMPDEST DUP3 MSTORE POP POP JUMP JUMPDEST PUSH0 PUSH2 0x4AF DUP4 DUP4 PUSH2 0x495 JUMP JUMPDEST PUSH1 0x20 DUP4 ADD SWAP1 POP SWAP3 SWAP2 POP POP JUMP JUMPDEST PUSH0 PUSH1 0x20 DUP3 ADD SWAP1 POP SWAP2 SWAP1 POP JUMP JUMPDEST PUSH0 PUSH2 0x4D1 DUP3 PUSH2 0x46C JUMP JUMPDEST PUSH2 0x4DB DUP2 DUP6 PUSH2 0x476 JUMP JUMPDEST SWAP4 POP PUSH2 0x4E6 DUP4 PUSH2 0x486 JUMP JUMPDEST DUP1 PUSH0 JUMPDEST DUP4 DUP2 LT ISZERO PUSH2 0x516 JUMPI DUP2 MLOAD PUSH2 0x4FD DUP9 DUP3 PUSH2 0x4A4 JUMP JUMPDEST SWAP8 POP PUSH2 0x508 DUP4 PUSH2 0x4BB JUMP JUMPDEST SWAP3 POP POP PUSH1 0x1 DUP2 ADD SWAP1 POP PUSH2 0x4E9 JUMP JUMPDEST POP DUP6 SWAP4 POP POP POP POP SWAP3 SWAP2 POP POP JUMP JUMPDEST PUSH0 PUSH1 0x20 DUP3 ADD SWAP1 POP DUP2 DUP2 SUB PUSH0 DUP4 ADD MSTORE PUSH2 0x53B DUP2 DUP5 PUSH2 0x4C7 JUMP JUMPDEST SWAP1 POP SWAP3 SWAP2 POP POP JUMP JUMPDEST PUSH0 DUP1 PUSH1 0x40 DUP4 DUP6 SUB SLT ISZERO PUSH2 0x559 JUMPI PUSH2 0x558 PUSH2 0x3DA JUMP JUMPDEST JUMPDEST PUSH0 PUSH2 0x566 DUP6 DUP3 DUP7 ADD PUSH2 0x3F4 JUMP JUMPDEST SWAP3 POP POP PUSH1 0x20 PUSH2 0x577 DUP6 DUP3 DUP7 ADD PUSH2 0x3F4 JUMP JUMPDEST SWAP2 POP POP SWAP3 POP SWAP3 SWAP1 POP JUMP JUMPDEST PUSH0 PUSH1 0x20 DUP3 DUP5 SUB SLT ISZERO PUSH2 0x596 JUMPI PUSH2 0x595 PUSH2 0x3DA JUMP JUMPDEST JUMPDEST PUSH0 PUSH2 0x5A3 DUP5 DUP3 DUP6 ADD PUSH2 0x3F4 JUMP JUMPDEST SWAP2 POP POP SWAP3 SWAP2 POP POP JUMP JUMPDEST PUSH0 DUP2 SWAP1 POP SWAP2 SWAP1 POP JUMP JUMPDEST PUSH2 0x5BE DUP2 PUSH2 0x5AC JUMP JUMPDEST DUP2 EQ PUSH2 0x5C8 JUMPI PUSH0 DUP1 REVERT JUMPDEST POP JUMP JUMPDEST PUSH0 DUP2 CALLDATALOAD SWAP1 POP PUSH2 0x5D9 DUP2 PUSH2 0x5B5 JUMP JUMPDEST SWAP3 SWAP2 POP POP JUMP JUMPDEST PUSH0 DUP1 PUSH1 0x40 DUP4 DUP6 SUB SLT ISZERO PUSH2 0x5F5 JUMPI PUSH2 0x5F4 PUSH2 0x3DA JUMP JUMPDEST JUMPDEST PUSH0 PUSH2 0x602 DUP6 DUP3 DUP7 ADD PUSH2 0x3F4 JUMP JUMPDEST SWAP3 POP POP PUSH1 0x20 PUSH2 0x613 DUP6 DUP3 DUP7 ADD PUSH2 0x5CB JUMP JUMPDEST SWAP2 POP POP SWAP3 POP SWAP3 SWAP1 POP JUMP JUMPDEST PUSH32 0x4E487B7100000000000000000000000000000000000000000000000000000000 PUSH0 MSTORE PUSH1 0x11 PUSH1 0x4 MSTORE PUSH1 0x24 PUSH0 REVERT JUMPDEST PUSH0 PUSH2 0x654 DUP3 PUSH2 0x3A9 JUMP JUMPDEST SWAP2 POP PUSH2 0x65F DUP4 PUSH2 0x3A9 JUMP JUMPDEST SWAP3 POP DUP3 DUP3 SUB SWAP1 POP DUP2 DUP2 GT ISZERO PUSH2 0x677 JUMPI PUSH2 0x676 PUSH2 0x61D JUMP JUMPDEST JUMPDEST SWAP3 SWAP2 POP POP JUMP JUMPDEST PUSH32 0x4E487B7100000000000000000000000000000000000000000000000000000000 PUSH0 MSTORE PUSH1 0x32 PUSH1 0x4 MSTORE PUSH1 0x24 PUSH0 REVERT JUMPDEST PUSH32 0x4E487B7100000000000000000000000000000000000000000000000000000000 PUSH0 MSTORE PUSH1 0x31 PUSH1 0x4 MSTORE PUSH1 0x24 PUSH0 REVERT JUMPDEST PUSH32 0x4E487B7100000000000000000000000000000000000000000000000000000000 PUSH0 MSTORE PUSH1 0x41 PUSH1 0x4 MSTORE PUSH1 0x24 PUSH0 REVERT JUMPDEST PUSH0 PUSH2 0x70E DUP3 PUSH2 0x5AC JUMP JUMPDEST SWAP2 POP PUSH2 0x719 DUP4 PUSH2 0x5AC JUMP JUMPDEST SWAP3 POP DUP3 DUP3 ADD SWAP1 POP DUP3 DUP2 SLT ISZERO PUSH0 DUP4 SLT AND DUP4 DUP3 SLT PUSH0 DUP5 SLT ISZERO AND OR ISZERO PUSH2 0x73F JUMPI PUSH2 0x73E PUSH2 0x61D JUMP JUMPDEST JUMPDEST SWAP3 SWAP2 POP POP JUMP INVALID LOG2 PUSH5 0x6970667358 0x22 SLT KECCAK256 PUSH18 0x3EF9B38E2AC14463B6B42A184E9DFE7CD98E DUP16 ADD SWAP4 LOG0 SWAP2 CALLDATALOAD 0xE0 PUSH11 0xDC7262CD9D64736F6C6343 STOP ADDMOD NOT STOP CALLER "
				},
				"gasEstimates": {
					"creation": {
						"codeDepositCost": "383000",
						"executionCost": "416",
						"totalCost": "383416"
					},
					"external": {
						"absDiff(uint256,uint256)": "infinite",
						"addToArr(uint256)": "46842",
						"applyModifier(uint256,int256)": "infinite",
						"diffWithNeighbor(uint256,uint256,uint256,uint256)": "infinite",
						"getArr()": "infinite",
						"popWithReturn()": "infinite",
						"resetArr()": "infinite"
					}
				},
				"methodIdentifiers": {
					"absDiff(uint256,uint256)": "a09ae0aa",
					"addToArr(uint256)": "e1819ff9",
					"applyModifier(uint256,int256)": "f74e51ea",
					"diffWithNeighbor(uint256,uint256,uint256,uint256)": "29432314",
					"getArr()": "fb8cbced",
					"popWithReturn()": "1abe2ac2",
					"resetArr()": "64529db5"
				}
			},
			"storageLayout": {
				"storage": [
					{
						"astId": 106,
						"contract": "base/ErrorTriageExercise.sol:ErrorTriageExercise",
						"label": "arr",
						"offset": 0,
						"slot": "0",
						"type": "t_array(t_uint256)dyn_storage"
					}
				],
				"types": {
					"t_array(t_uint256)dyn_storage": {
						"base": "t_uint256",
						"encoding": "dynamic_array",
						"label": "uint256[]",
						"numberOfBytes": "32"
					},
					"t_uint256": {
						"encoding": "inplace",
						"label": "uint256",
						"numberOfBytes": "32"
					}
				}
			},
			"userdoc": {
				"kind": "user",
				"methods": {
					"applyModifier(uint256,int256)": {
						"notice": "Changes the _base by the value of _modifier.  Base is always >= 1000.  Modifiers can be between positive and negative 100;"
					},
					"diffWithNeighbor(uint256,uint256,uint256,uint256)": {
						"notice": "Finds the difference between each uint with it's neighbor (a to b, b to c, etc.) and returns a uint array with the absolute integer difference of each pairing."
					}
				},
				"version": 1
			}
		}
	}
}