{
	"contrakts base/ArraysExercise.sol": {
		"ArraysExercise": {
			"abi": [
				{
					"inputs": [],
					"name": "afterY2K",
					"outputs": [
						{
							"internalType": "uint256[]",
							"name": "",
							"type": "uint256[]"
						},
						{
							"internalType": "address[]",
							"name": "",
							"type": "address[]"
						}
					],
					"stateMutability": "view",
					"type": "function"
				},
				{
					"inputs": [
						{
							"internalType": "uint256[]",
							"name": "_toAppend",
							"type": "uint256[]"
						}
					],
					"name": "appendToNumbers",
					"outputs": [],
					"stateMutability": "nonpayable",
					"type": "function"
				},
				{
					"inputs": [],
					"name": "getNumbers",
					"outputs": [
						{
							"internalType": "uint256[]",
							"name": "",
							"type": "uint256[]"
						}
					],
					"stateMutability": "view",
					"type": "function"
				},
				{
					"inputs": [
						{
							"internalType": "uint256",
							"name": "",
							"type": "uint256"
						}
					],
					"name": "numbers",
					"outputs": [
						{
							"internalType": "uint256",
							"name": "",
							"type": "uint256"
						}
					],
					"stateMutability": "view",
					"type": "function"
				},
				{
					"inputs": [],
					"name": "resetNumbers",
					"outputs": [],
					"stateMutability": "nonpayable",
					"type": "function"
				},
				{
					"inputs": [],
					"name": "resetSenders",
					"outputs": [],
					"stateMutability": "nonpayable",
					"type": "function"
				},
				{
					"inputs": [],
					"name": "resetTimestamps",
					"outputs": [],
					"stateMutability": "nonpayable",
					"type": "function"
				},
				{
					"inputs": [
						{
							"internalType": "uint256",
							"name": "_unixTimestamp",
							"type": "uint256"
						}
					],
					"name": "saveTimestamp",
					"outputs": [],
					"stateMutability": "nonpayable",
					"type": "function"
				},
				{
					"inputs": [
						{
							"internalType": "uint256",
							"name": "",
							"type": "uint256"
						}
					],
					"name": "senders",
					"outputs": [
						{
							"internalType": "address",
							"name": "",
							"type": "address"
						}
					],
					"stateMutability": "view",
					"type": "function"
				},
				{
					"inputs": [
						{
							"internalType": "uint256",
							"name": "",
							"type": "uint256"
						}
					],
					"name": "timestamps",
					"outputs": [
						{
							"internalType": "uint256",
							"name": "",
							"type": "uint256"
						}
					],
					"stateMutability": "view",
					"type": "function"
				}
			],
			"devdoc": {
				"kind": "dev",
				"methods": {},
				"version": 1
			},
			"evm": {
				"assembly": "    /* \"contrakts base/ArraysExercise.sol\":184:3076  contract ArraysExercise {... */\n  mstore(0x40, 0x80)\n    /* \"contrakts base/ArraysExercise.sol\":276:334  uint256[] public numbers = [1, 2, 3, 4, 5, 6, 7, 8, 9, 10] */\n  mload(0x40)\n  dup1\n  0x0140\n  add\n  0x40\n  mstore\n  dup1\n    /* \"contrakts base/ArraysExercise.sol\":304:305  1 */\n  0x01\n    /* \"contrakts base/ArraysExercise.sol\":276:334  uint256[] public numbers = [1, 2, 3, 4, 5, 6, 7, 8, 9, 10] */\n  0xff\n  and\n  dup2\n  mstore\n  0x20\n  add\n    /* \"contrakts base/ArraysExercise.sol\":307:308  2 */\n  0x02\n    /* \"contrakts base/ArraysExercise.sol\":276:334  uint256[] public numbers = [1, 2, 3, 4, 5, 6, 7, 8, 9, 10] */\n  0xff\n  and\n  dup2\n  mstore\n  0x20\n  add\n    /* \"contrakts base/ArraysExercise.sol\":310:311  3 */\n  0x03\n    /* \"contrakts base/ArraysExercise.sol\":276:334  uint256[] public numbers = [1, 2, 3, 4, 5, 6, 7, 8, 9, 10] */\n  0xff\n  and\n  dup2\n  mstore\n  0x20\n  add\n    /* \"contrakts base/ArraysExercise.sol\":313:314  4 */\n  0x04\n    /* \"contrakts base/ArraysExercise.sol\":276:334  uint256[] public numbers = [1, 2, 3, 4, 5, 6, 7, 8, 9, 10] */\n  0xff\n  and\n  dup2\n  mstore\n  0x20\n  add\n    /* \"contrakts base/ArraysExercise.sol\":316:317  5 */\n  0x05\n    /* \"contrakts base/ArraysExercise.sol\":276:334  uint256[] public numbers = [1, 2, 3, 4, 5, 6, 7, 8, 9, 10] */\n  0xff\n  and\n  dup2\n  mstore\n  0x20\n  add\n    /* \"contrakts base/ArraysExercise.sol\":319:320  6 */\n  0x06\n    /* \"contrakts base/ArraysExercise.sol\":276:334  uint256[] public numbers = [1, 2, 3, 4, 5, 6, 7, 8, 9, 10] */\n  0xff\n  and\n  dup2\n  mstore\n  0x20\n  add\n    /* \"contrakts base/ArraysExercise.sol\":322:323  7 */\n  0x07\n    /* \"contrakts base/ArraysExercise.sol\":276:334  uint256[] public numbers = [1, 2, 3, 4, 5, 6, 7, 8, 9, 10] */\n  0xff\n  and\n  dup2\n  mstore\n  0x20\n  add\n    /* \"contrakts base/ArraysExercise.sol\":325:326  8 */\n  0x08\n    /* \"contrakts base/ArraysExercise.sol\":276:334  uint256[] public numbers = [1, 2, 3, 4, 5, 6, 7, 8, 9, 10] */\n  0xff\n  and\n  dup2\n  mstore\n  0x20\n  add\n    /* \"contrakts base/ArraysExercise.sol\":328:329  9 */\n  0x09\n    /* \"contrakts base/ArraysExercise.sol\":276:334  uint256[] public numbers = [1, 2, 3, 4, 5, 6, 7, 8, 9, 10] */\n  0xff\n  and\n  dup2\n  mstore\n  0x20\n  add\n    /* \"contrakts base/ArraysExercise.sol\":331:333  10 */\n  0x0a\n    /* \"contrakts base/ArraysExercise.sol\":276:334  uint256[] public numbers = [1, 2, 3, 4, 5, 6, 7, 8, 9, 10] */\n  0xff\n  and\n  dup2\n  mstore\n  pop\n  0x00\n  swap1\n  0x0a\n  tag_1\n  swap3\n  swap2\n  swap1\n  tag_2\n  jump\t// in\ntag_1:\n  pop\n    /* \"contrakts base/ArraysExercise.sol\":184:3076  contract ArraysExercise {... */\n  callvalue\n  dup1\n  iszero\n  tag_3\n  jumpi\n  0x00\n  dup1\n  revert\ntag_3:\n  pop\n  jump(tag_4)\ntag_2:\n  dup3\n  dup1\n  sload\n  dup3\n  dup3\n  sstore\n  swap1\n  0x00\n  mstore\n  keccak256(0x00, 0x20)\n  swap1\n  dup2\n  add\n  swap3\n  dup3\n  iszero\n  tag_5\n  jumpi\n  swap2\n  0x20\n  mul\n  dup3\n  add\ntag_6:\n  dup3\n  dup2\n  gt\n  iszero\n  tag_7\n  jumpi\n  dup3\n  mload\n  dup3\n  swap1\n  0xff\n  and\n  swap1\n  sstore\n  swap2\n  0x20\n  add\n  swap2\n  swap1\n  0x01\n  add\n  swap1\n  jump(tag_6)\ntag_7:\ntag_5:\n  pop\n  swap1\n  pop\n  tag_8\n  swap2\n  swap1\n  tag_9\n  jump\t// in\ntag_8:\n  pop\n  swap1\n  jump\t// out\ntag_9:\ntag_10:\n  dup1\n  dup3\n  gt\n  iszero\n  tag_11\n  jumpi\n  0x00\n  dup2\n  0x00\n  swap1\n  sstore\n  pop\n  0x01\n  add\n  jump(tag_10)\ntag_11:\n  pop\n  swap1\n  jump\t// out\ntag_4:\n  dataSize(sub_0)\n  dup1\n  dataOffset(sub_0)\n  0x00\n  codecopy\n  0x00\n  return\nstop\n\nsub_0: assembly {\n        /* \"contrakts base/ArraysExercise.sol\":184:3076  contract ArraysExercise {... */\n      mstore(0x40, 0x80)\n      callvalue\n      dup1\n      iszero\n      tag_1\n      jumpi\n      0x00\n      dup1\n      revert\n    tag_1:\n      pop\n      jumpi(tag_2, lt(calldatasize, 0x04))\n      shr(0xe0, calldataload(0x00))\n      dup1\n      0x9977c78a\n      gt\n      tag_13\n      jumpi\n      dup1\n      0x9977c78a\n      eq\n      tag_8\n      jumpi\n      dup1\n      0xa00b7acd\n      eq\n      tag_9\n      jumpi\n      dup1\n      0xade82bfd\n      eq\n      tag_10\n      jumpi\n      dup1\n      0xb1cebac5\n      eq\n      tag_11\n      jumpi\n      dup1\n      0xd39fa233\n      eq\n      tag_12\n      jumpi\n      jump(tag_2)\n    tag_13:\n      dup1\n      0x20aaf79a\n      eq\n      tag_3\n      jumpi\n      dup1\n      0x4f9377db\n      eq\n      tag_4\n      jumpi\n      dup1\n      0x7f66b1b8\n      eq\n      tag_5\n      jumpi\n      dup1\n      0x89f915f6\n      eq\n      tag_6\n      jumpi\n      dup1\n      0x8bc33af3\n      eq\n      tag_7\n      jumpi\n    tag_2:\n      0x00\n      dup1\n      revert\n        /* \"contrakts base/ArraysExercise.sol\":2047:3073  function afterY2K() public view returns (uint256[] memory, address[] memory) {... */\n    tag_3:\n      tag_14\n      tag_15\n      jump\t// in\n    tag_14:\n      mload(0x40)\n      tag_16\n      swap3\n      swap2\n      swap1\n      tag_17\n      jump\t// in\n    tag_16:\n      mload(0x40)\n      dup1\n      swap2\n      sub\n      swap1\n      return\n        /* \"contrakts base/ArraysExercise.sol\":1001:1181  function appendToNumbers(uint256[] calldata _toAppend) public {... */\n    tag_4:\n      tag_18\n      0x04\n      dup1\n      calldatasize\n      sub\n      dup2\n      add\n      swap1\n      tag_19\n      swap2\n      swap1\n      tag_20\n      jump\t// in\n    tag_19:\n      tag_21\n      jump\t// in\n    tag_18:\n      stop\n        /* \"contrakts base/ArraysExercise.sol\":1532:1596  function resetSenders() public {... */\n    tag_5:\n      tag_22\n      tag_23\n      jump\t// in\n    tag_22:\n      stop\n        /* \"contrakts base/ArraysExercise.sol\":595:689  function getNumbers() public view returns (uint256[] memory) {... */\n    tag_6:\n      tag_24\n      tag_25\n      jump\t// in\n    tag_24:\n      mload(0x40)\n      tag_26\n      swap2\n      swap1\n      tag_27\n      jump\t// in\n    tag_26:\n      mload(0x40)\n      dup1\n      swap2\n      sub\n      swap1\n      return\n        /* \"contrakts base/ArraysExercise.sol\":512:539  uint256[] public timestamps */\n    tag_7:\n      tag_28\n      0x04\n      dup1\n      calldatasize\n      sub\n      dup2\n      add\n      swap1\n      tag_29\n      swap2\n      swap1\n      tag_30\n      jump\t// in\n    tag_29:\n      tag_31\n      jump\t// in\n    tag_28:\n      mload(0x40)\n      tag_32\n      swap2\n      swap1\n      tag_33\n      jump\t// in\n    tag_32:\n      mload(0x40)\n      dup1\n      swap2\n      sub\n      swap1\n      return\n        /* \"contrakts base/ArraysExercise.sol\":408:432  address[] public senders */\n    tag_8:\n      tag_34\n      0x04\n      dup1\n      calldatasize\n      sub\n      dup2\n      add\n      swap1\n      tag_35\n      swap2\n      swap1\n      tag_30\n      jump\t// in\n    tag_35:\n      tag_36\n      jump\t// in\n    tag_34:\n      mload(0x40)\n      tag_37\n      swap2\n      swap1\n      tag_38\n      jump\t// in\n    tag_37:\n      mload(0x40)\n      dup1\n      swap2\n      sub\n      swap1\n      return\n        /* \"contrakts base/ArraysExercise.sol\":1310:1449  function saveTimestamp(uint256 _unixTimestamp) public {... */\n    tag_9:\n      tag_39\n      0x04\n      dup1\n      calldatasize\n      sub\n      dup2\n      add\n      swap1\n      tag_40\n      swap2\n      swap1\n      tag_30\n      jump\t// in\n    tag_40:\n      tag_41\n      jump\t// in\n    tag_39:\n      stop\n        /* \"contrakts base/ArraysExercise.sol\":1682:1752  function resetTimestamps() public {... */\n    tag_10:\n      tag_42\n      tag_43\n      jump\t// in\n    tag_42:\n      stop\n        /* \"contrakts base/ArraysExercise.sol\":764:914  function resetNumbers() public {... */\n    tag_11:\n      tag_44\n      tag_45\n      jump\t// in\n    tag_44:\n      stop\n        /* \"contrakts base/ArraysExercise.sol\":276:334  uint256[] public numbers = [1, 2, 3, 4, 5, 6, 7, 8, 9, 10] */\n    tag_12:\n      tag_46\n      0x04\n      dup1\n      calldatasize\n      sub\n      dup2\n      add\n      swap1\n      tag_47\n      swap2\n      swap1\n      tag_30\n      jump\t// in\n    tag_47:\n      tag_48\n      jump\t// in\n    tag_46:\n      mload(0x40)\n      tag_49\n      swap2\n      swap1\n      tag_33\n      jump\t// in\n    tag_49:\n      mload(0x40)\n      dup1\n      swap2\n      sub\n      swap1\n      return\n        /* \"contrakts base/ArraysExercise.sol\":2047:3073  function afterY2K() public view returns (uint256[] memory, address[] memory) {... */\n    tag_15:\n        /* \"contrakts base/ArraysExercise.sol\":2088:2104  uint256[] memory */\n      0x60\n        /* \"contrakts base/ArraysExercise.sol\":2106:2122  address[] memory */\n      dup1\n        /* \"contrakts base/ArraysExercise.sol\":2219:2232  uint256 count */\n      0x00\n        /* \"contrakts base/ArraysExercise.sol\":2252:2261  uint256 i */\n      dup1\n        /* \"contrakts base/ArraysExercise.sol\":2247:2394  for (uint256 i = 0; i < timestamps.length; i++) {... */\n    tag_51:\n        /* \"contrakts base/ArraysExercise.sol\":2271:2281  timestamps */\n      0x02\n        /* \"contrakts base/ArraysExercise.sol\":2271:2288  timestamps.length */\n      dup1\n      sload\n      swap1\n      pop\n        /* \"contrakts base/ArraysExercise.sol\":2267:2268  i */\n      dup2\n        /* \"contrakts base/ArraysExercise.sol\":2267:2288  i < timestamps.length */\n      lt\n        /* \"contrakts base/ArraysExercise.sol\":2247:2394  for (uint256 i = 0; i < timestamps.length; i++) {... */\n      iszero\n      tag_52\n      jumpi\n        /* \"contrakts base/ArraysExercise.sol\":2330:2339  946702800 */\n      0x386d89d0\n        /* \"contrakts base/ArraysExercise.sol\":2314:2324  timestamps */\n      0x02\n        /* \"contrakts base/ArraysExercise.sol\":2325:2326  i */\n      dup3\n        /* \"contrakts base/ArraysExercise.sol\":2314:2327  timestamps[i] */\n      dup2\n      sload\n      dup2\n      lt\n      tag_54\n      jumpi\n      tag_55\n      tag_56\n      jump\t// in\n    tag_55:\n    tag_54:\n      swap1\n      0x00\n      mstore\n      keccak256(0x00, 0x20)\n      add\n      sload\n        /* \"contrakts base/ArraysExercise.sol\":2314:2339  timestamps[i] > 946702800 */\n      gt\n        /* \"contrakts base/ArraysExercise.sol\":2310:2383  if (timestamps[i] > 946702800) {... */\n      iszero\n      tag_58\n      jumpi\n        /* \"contrakts base/ArraysExercise.sol\":2360:2367  count++ */\n      dup2\n      dup1\n      tag_59\n      swap1\n      tag_60\n      jump\t// in\n    tag_59:\n      swap3\n      pop\n      pop\n        /* \"contrakts base/ArraysExercise.sol\":2310:2383  if (timestamps[i] > 946702800) {... */\n    tag_58:\n        /* \"contrakts base/ArraysExercise.sol\":2290:2293  i++ */\n      dup1\n      dup1\n      0x01\n      add\n      swap2\n      pop\n      pop\n        /* \"contrakts base/ArraysExercise.sol\":2247:2394  for (uint256 i = 0; i < timestamps.length; i++) {... */\n      jump(tag_51)\n    tag_52:\n      pop\n        /* \"contrakts base/ArraysExercise.sol\":2461:2496  uint256[] memory timestampsAfterY2K */\n      0x00\n        /* \"contrakts base/ArraysExercise.sol\":2510:2515  count */\n      dup2\n        /* \"contrakts base/ArraysExercise.sol\":2499:2516  new uint[](count) */\n      0xffffffffffffffff\n      dup2\n      gt\n      iszero\n      tag_61\n      jumpi\n      tag_62\n      tag_63\n      jump\t// in\n    tag_62:\n    tag_61:\n      mload(0x40)\n      swap1\n      dup1\n      dup3\n      mstore\n      dup1\n      0x20\n      mul\n      0x20\n      add\n      dup3\n      add\n      0x40\n      mstore\n      dup1\n      iszero\n      tag_64\n      jumpi\n      dup2\n      0x20\n      add\n      0x20\n      dup3\n      mul\n      dup1\n      calldatasize\n      dup4\n      calldatacopy\n      dup1\n      dup3\n      add\n      swap2\n      pop\n      pop\n      swap1\n      pop\n    tag_64:\n      pop\n        /* \"contrakts base/ArraysExercise.sol\":2461:2516  uint256[] memory timestampsAfterY2K = new uint[](count) */\n      swap1\n      pop\n        /* \"contrakts base/ArraysExercise.sol\":2527:2559  address[] memory sendersAfterY2K */\n      0x00\n        /* \"contrakts base/ArraysExercise.sol\":2576:2581  count */\n      dup3\n        /* \"contrakts base/ArraysExercise.sol\":2562:2582  new address[](count) */\n      0xffffffffffffffff\n      dup2\n      gt\n      iszero\n      tag_65\n      jumpi\n      tag_66\n      tag_63\n      jump\t// in\n    tag_66:\n    tag_65:\n      mload(0x40)\n      swap1\n      dup1\n      dup3\n      mstore\n      dup1\n      0x20\n      mul\n      0x20\n      add\n      dup3\n      add\n      0x40\n      mstore\n      dup1\n      iszero\n      tag_67\n      jumpi\n      dup2\n      0x20\n      add\n      0x20\n      dup3\n      mul\n      dup1\n      calldatasize\n      dup4\n      calldatacopy\n      dup1\n      dup3\n      add\n      swap2\n      pop\n      pop\n      swap1\n      pop\n    tag_67:\n      pop\n        /* \"contrakts base/ArraysExercise.sol\":2527:2582  address[] memory sendersAfterY2K = new address[](count) */\n      swap1\n      pop\n        /* \"contrakts base/ArraysExercise.sol\":2663:2676  uint256 index */\n      0x00\n        /* \"contrakts base/ArraysExercise.sol\":2753:2762  uint256 i */\n      dup1\n        /* \"contrakts base/ArraysExercise.sol\":2748:3009  for (uint256 i = 0; i < timestamps.length; i++) {... */\n    tag_68:\n        /* \"contrakts base/ArraysExercise.sol\":2772:2782  timestamps */\n      0x02\n        /* \"contrakts base/ArraysExercise.sol\":2772:2789  timestamps.length */\n      dup1\n      sload\n      swap1\n      pop\n        /* \"contrakts base/ArraysExercise.sol\":2768:2769  i */\n      dup2\n        /* \"contrakts base/ArraysExercise.sol\":2768:2789  i < timestamps.length */\n      lt\n        /* \"contrakts base/ArraysExercise.sol\":2748:3009  for (uint256 i = 0; i < timestamps.length; i++) {... */\n      iszero\n      tag_69\n      jumpi\n        /* \"contrakts base/ArraysExercise.sol\":2831:2840  946702800 */\n      0x386d89d0\n        /* \"contrakts base/ArraysExercise.sol\":2815:2825  timestamps */\n      0x02\n        /* \"contrakts base/ArraysExercise.sol\":2826:2827  i */\n      dup3\n        /* \"contrakts base/ArraysExercise.sol\":2815:2828  timestamps[i] */\n      dup2\n      sload\n      dup2\n      lt\n      tag_71\n      jumpi\n      tag_72\n      tag_56\n      jump\t// in\n    tag_72:\n    tag_71:\n      swap1\n      0x00\n      mstore\n      keccak256(0x00, 0x20)\n      add\n      sload\n        /* \"contrakts base/ArraysExercise.sol\":2815:2840  timestamps[i] > 946702800 */\n      gt\n        /* \"contrakts base/ArraysExercise.sol\":2811:2998  if (timestamps[i] > 946702800) {... */\n      iszero\n      tag_74\n      jumpi\n        /* \"contrakts base/ArraysExercise.sol\":2889:2899  timestamps */\n      0x02\n        /* \"contrakts base/ArraysExercise.sol\":2900:2901  i */\n      dup2\n        /* \"contrakts base/ArraysExercise.sol\":2889:2902  timestamps[i] */\n      dup2\n      sload\n      dup2\n      lt\n      tag_75\n      jumpi\n      tag_76\n      tag_56\n      jump\t// in\n    tag_76:\n    tag_75:\n      swap1\n      0x00\n      mstore\n      keccak256(0x00, 0x20)\n      add\n      sload\n        /* \"contrakts base/ArraysExercise.sol\":2861:2879  timestampsAfterY2K */\n      dup5\n        /* \"contrakts base/ArraysExercise.sol\":2880:2885  index */\n      dup4\n        /* \"contrakts base/ArraysExercise.sol\":2861:2886  timestampsAfterY2K[index] */\n      dup2\n      mload\n      dup2\n      lt\n      tag_78\n      jumpi\n      tag_79\n      tag_56\n      jump\t// in\n    tag_79:\n    tag_78:\n      0x20\n      mul\n      0x20\n      add\n      add\n        /* \"contrakts base/ArraysExercise.sol\":2861:2902  timestampsAfterY2K[index] = timestamps[i] */\n      dup2\n      dup2\n      mstore\n      pop\n      pop\n        /* \"contrakts base/ArraysExercise.sol\":2946:2953  senders */\n      0x01\n        /* \"contrakts base/ArraysExercise.sol\":2954:2955  i */\n      dup2\n        /* \"contrakts base/ArraysExercise.sol\":2946:2956  senders[i] */\n      dup2\n      sload\n      dup2\n      lt\n      tag_80\n      jumpi\n      tag_81\n      tag_56\n      jump\t// in\n    tag_81:\n    tag_80:\n      swap1\n      0x00\n      mstore\n      keccak256(0x00, 0x20)\n      add\n      0x00\n      swap1\n      sload\n      swap1\n      0x0100\n      exp\n      swap1\n      div\n      0xffffffffffffffffffffffffffffffffffffffff\n      and\n        /* \"contrakts base/ArraysExercise.sol\":2921:2936  sendersAfterY2K */\n      dup4\n        /* \"contrakts base/ArraysExercise.sol\":2937:2942  index */\n      dup4\n        /* \"contrakts base/ArraysExercise.sol\":2921:2943  sendersAfterY2K[index] */\n      dup2\n      mload\n      dup2\n      lt\n      tag_83\n      jumpi\n      tag_84\n      tag_56\n      jump\t// in\n    tag_84:\n    tag_83:\n      0x20\n      mul\n      0x20\n      add\n      add\n        /* \"contrakts base/ArraysExercise.sol\":2921:2956  sendersAfterY2K[index] = senders[i] */\n      swap1\n      0xffffffffffffffffffffffffffffffffffffffff\n      and\n      swap1\n      dup2\n      0xffffffffffffffffffffffffffffffffffffffff\n      and\n      dup2\n      mstore\n      pop\n      pop\n        /* \"contrakts base/ArraysExercise.sol\":2975:2982  index++ */\n      dup2\n      dup1\n      tag_85\n      swap1\n      tag_60\n      jump\t// in\n    tag_85:\n      swap3\n      pop\n      pop\n        /* \"contrakts base/ArraysExercise.sol\":2811:2998  if (timestamps[i] > 946702800) {... */\n    tag_74:\n        /* \"contrakts base/ArraysExercise.sol\":2791:2794  i++ */\n      dup1\n      dup1\n      0x01\n      add\n      swap2\n      pop\n      pop\n        /* \"contrakts base/ArraysExercise.sol\":2748:3009  for (uint256 i = 0; i < timestamps.length; i++) {... */\n      jump(tag_68)\n    tag_69:\n      pop\n        /* \"contrakts base/ArraysExercise.sol\":3029:3047  timestampsAfterY2K */\n      dup3\n        /* \"contrakts base/ArraysExercise.sol\":3049:3064  sendersAfterY2K */\n      dup3\n        /* \"contrakts base/ArraysExercise.sol\":3021:3065  return (timestampsAfterY2K, sendersAfterY2K) */\n      swap6\n      pop\n      swap6\n      pop\n      pop\n      pop\n      pop\n      pop\n        /* \"contrakts base/ArraysExercise.sol\":2047:3073  function afterY2K() public view returns (uint256[] memory, address[] memory) {... */\n      swap1\n      swap2\n      jump\t// out\n        /* \"contrakts base/ArraysExercise.sol\":1001:1181  function appendToNumbers(uint256[] calldata _toAppend) public {... */\n    tag_21:\n        /* \"contrakts base/ArraysExercise.sol\":1079:1088  uint256 i */\n      0x00\n        /* \"contrakts base/ArraysExercise.sol\":1074:1174  for (uint256 i = 0; i < _toAppend.length; i++) {... */\n    tag_87:\n        /* \"contrakts base/ArraysExercise.sol\":1098:1107  _toAppend */\n      dup3\n      dup3\n        /* \"contrakts base/ArraysExercise.sol\":1098:1114  _toAppend.length */\n      swap1\n      pop\n        /* \"contrakts base/ArraysExercise.sol\":1094:1095  i */\n      dup2\n        /* \"contrakts base/ArraysExercise.sol\":1094:1114  i < _toAppend.length */\n      lt\n        /* \"contrakts base/ArraysExercise.sol\":1074:1174  for (uint256 i = 0; i < _toAppend.length; i++) {... */\n      iszero\n      tag_88\n      jumpi\n        /* \"contrakts base/ArraysExercise.sol\":1136:1143  numbers */\n      0x00\n        /* \"contrakts base/ArraysExercise.sol\":1149:1158  _toAppend */\n      dup4\n      dup4\n        /* \"contrakts base/ArraysExercise.sol\":1159:1160  i */\n      dup4\n        /* \"contrakts base/ArraysExercise.sol\":1149:1161  _toAppend[i] */\n      dup2\n      dup2\n      lt\n      tag_90\n      jumpi\n      tag_91\n      tag_56\n      jump\t// in\n    tag_91:\n    tag_90:\n      swap1\n      pop\n      0x20\n      mul\n      add\n      calldataload\n        /* \"contrakts base/ArraysExercise.sol\":1136:1162  numbers.push(_toAppend[i]) */\n      swap1\n      dup1\n      0x01\n      dup2\n      sload\n      add\n      dup1\n      dup3\n      sstore\n      dup1\n      swap2\n      pop\n      pop\n      0x01\n      swap1\n      sub\n      swap1\n      0x00\n      mstore\n      keccak256(0x00, 0x20)\n      add\n      0x00\n      swap1\n      swap2\n      swap1\n      swap2\n      swap1\n      swap2\n      pop\n      sstore\n        /* \"contrakts base/ArraysExercise.sol\":1116:1119  i++ */\n      dup1\n      dup1\n      0x01\n      add\n      swap2\n      pop\n      pop\n        /* \"contrakts base/ArraysExercise.sol\":1074:1174  for (uint256 i = 0; i < _toAppend.length; i++) {... */\n      jump(tag_87)\n    tag_88:\n      pop\n        /* \"contrakts base/ArraysExercise.sol\":1001:1181  function appendToNumbers(uint256[] calldata _toAppend) public {... */\n      pop\n      pop\n      jump\t// out\n        /* \"contrakts base/ArraysExercise.sol\":1532:1596  function resetSenders() public {... */\n    tag_23:\n        /* \"contrakts base/ArraysExercise.sol\":1581:1588  senders */\n      0x01\n      0x00\n        /* \"contrakts base/ArraysExercise.sol\":1574:1588  delete senders */\n      tag_94\n      swap2\n      swap1\n      tag_95\n      jump\t// in\n    tag_94:\n        /* \"contrakts base/ArraysExercise.sol\":1532:1596  function resetSenders() public {... */\n      jump\t// out\n        /* \"contrakts base/ArraysExercise.sol\":595:689  function getNumbers() public view returns (uint256[] memory) {... */\n    tag_25:\n        /* \"contrakts base/ArraysExercise.sol\":638:654  uint256[] memory */\n      0x60\n        /* \"contrakts base/ArraysExercise.sol\":674:681  numbers */\n      0x00\n        /* \"contrakts base/ArraysExercise.sol\":667:681  return numbers */\n      dup1\n      sload\n      dup1\n      0x20\n      mul\n      0x20\n      add\n      mload(0x40)\n      swap1\n      dup2\n      add\n      0x40\n      mstore\n      dup1\n      swap3\n      swap2\n      swap1\n      dup2\n      dup2\n      mstore\n      0x20\n      add\n      dup3\n      dup1\n      sload\n      dup1\n      iszero\n      tag_97\n      jumpi\n      0x20\n      mul\n      dup3\n      add\n      swap2\n      swap1\n      0x00\n      mstore\n      keccak256(0x00, 0x20)\n      swap1\n    tag_98:\n      dup2\n      sload\n      dup2\n      mstore\n      0x20\n      add\n      swap1\n      0x01\n      add\n      swap1\n      dup1\n      dup4\n      gt\n      tag_98\n      jumpi\n    tag_97:\n      pop\n      pop\n      pop\n      pop\n      pop\n      swap1\n      pop\n        /* \"contrakts base/ArraysExercise.sol\":595:689  function getNumbers() public view returns (uint256[] memory) {... */\n      swap1\n      jump\t// out\n        /* \"contrakts base/ArraysExercise.sol\":512:539  uint256[] public timestamps */\n    tag_31:\n      0x02\n      dup2\n      dup2\n      sload\n      dup2\n      lt\n      tag_99\n      jumpi\n      0x00\n      dup1\n      revert\n    tag_99:\n      swap1\n      0x00\n      mstore\n      keccak256(0x00, 0x20)\n      add\n      0x00\n      swap2\n      pop\n      swap1\n      pop\n      sload\n      dup2\n      jump\t// out\n        /* \"contrakts base/ArraysExercise.sol\":408:432  address[] public senders */\n    tag_36:\n      0x01\n      dup2\n      dup2\n      sload\n      dup2\n      lt\n      tag_101\n      jumpi\n      0x00\n      dup1\n      revert\n    tag_101:\n      swap1\n      0x00\n      mstore\n      keccak256(0x00, 0x20)\n      add\n      0x00\n      swap2\n      pop\n      sload\n      swap1\n      0x0100\n      exp\n      swap1\n      div\n      0xffffffffffffffffffffffffffffffffffffffff\n      and\n      dup2\n      jump\t// out\n        /* \"contrakts base/ArraysExercise.sol\":1310:1449  function saveTimestamp(uint256 _unixTimestamp) public {... */\n    tag_41:\n        /* \"contrakts base/ArraysExercise.sol\":1375:1382  senders */\n      0x01\n        /* \"contrakts base/ArraysExercise.sol\":1388:1398  msg.sender */\n      caller\n        /* \"contrakts base/ArraysExercise.sol\":1375:1399  senders.push(msg.sender) */\n      swap1\n      dup1\n      0x01\n      dup2\n      sload\n      add\n      dup1\n      dup3\n      sstore\n      dup1\n      swap2\n      pop\n      pop\n      0x01\n      swap1\n      sub\n      swap1\n      0x00\n      mstore\n      keccak256(0x00, 0x20)\n      add\n      0x00\n      swap1\n      swap2\n      swap1\n      swap2\n      swap1\n      swap2\n      0x0100\n      exp\n      dup2\n      sload\n      dup2\n      0xffffffffffffffffffffffffffffffffffffffff\n      mul\n      not\n      and\n      swap1\n      dup4\n      0xffffffffffffffffffffffffffffffffffffffff\n      and\n      mul\n      or\n      swap1\n      sstore\n      pop\n        /* \"contrakts base/ArraysExercise.sol\":1410:1420  timestamps */\n      0x02\n        /* \"contrakts base/ArraysExercise.sol\":1426:1440  _unixTimestamp */\n      dup2\n        /* \"contrakts base/ArraysExercise.sol\":1410:1441  timestamps.push(_unixTimestamp) */\n      swap1\n      dup1\n      0x01\n      dup2\n      sload\n      add\n      dup1\n      dup3\n      sstore\n      dup1\n      swap2\n      pop\n      pop\n      0x01\n      swap1\n      sub\n      swap1\n      0x00\n      mstore\n      keccak256(0x00, 0x20)\n      add\n      0x00\n      swap1\n      swap2\n      swap1\n      swap2\n      swap1\n      swap2\n      pop\n      sstore\n        /* \"contrakts base/ArraysExercise.sol\":1310:1449  function saveTimestamp(uint256 _unixTimestamp) public {... */\n      pop\n      jump\t// out\n        /* \"contrakts base/ArraysExercise.sol\":1682:1752  function resetTimestamps() public {... */\n    tag_43:\n        /* \"contrakts base/ArraysExercise.sol\":1734:1744  timestamps */\n      0x02\n      0x00\n        /* \"contrakts base/ArraysExercise.sol\":1727:1744  delete timestamps */\n      tag_107\n      swap2\n      swap1\n      tag_108\n      jump\t// in\n    tag_107:\n        /* \"contrakts base/ArraysExercise.sol\":1682:1752  function resetTimestamps() public {... */\n      jump\t// out\n        /* \"contrakts base/ArraysExercise.sol\":764:914  function resetNumbers() public {... */\n    tag_45:\n        /* \"contrakts base/ArraysExercise.sol\":813:820  numbers */\n      0x00\n      dup1\n        /* \"contrakts base/ArraysExercise.sol\":806:820  delete numbers */\n      tag_110\n      swap2\n      swap1\n      tag_108\n      jump\t// in\n    tag_110:\n        /* \"contrakts base/ArraysExercise.sol\":836:845  uint256 i */\n      0x00\n        /* \"contrakts base/ArraysExercise.sol\":848:849  1 */\n      0x01\n        /* \"contrakts base/ArraysExercise.sol\":836:849  uint256 i = 1 */\n      swap1\n      pop\n        /* \"contrakts base/ArraysExercise.sol\":831:907  for (uint256 i = 1; i <= 10; i++) {... */\n    tag_111:\n        /* \"contrakts base/ArraysExercise.sol\":856:858  10 */\n      0x0a\n        /* \"contrakts base/ArraysExercise.sol\":851:852  i */\n      dup2\n        /* \"contrakts base/ArraysExercise.sol\":851:858  i <= 10 */\n      gt\n        /* \"contrakts base/ArraysExercise.sol\":831:907  for (uint256 i = 1; i <= 10; i++) {... */\n      tag_112\n      jumpi\n        /* \"contrakts base/ArraysExercise.sol\":880:887  numbers */\n      0x00\n        /* \"contrakts base/ArraysExercise.sol\":893:894  i */\n      dup2\n        /* \"contrakts base/ArraysExercise.sol\":880:895  numbers.push(i) */\n      swap1\n      dup1\n      0x01\n      dup2\n      sload\n      add\n      dup1\n      dup3\n      sstore\n      dup1\n      swap2\n      pop\n      pop\n      0x01\n      swap1\n      sub\n      swap1\n      0x00\n      mstore\n      keccak256(0x00, 0x20)\n      add\n      0x00\n      swap1\n      swap2\n      swap1\n      swap2\n      swap1\n      swap2\n      pop\n      sstore\n        /* \"contrakts base/ArraysExercise.sol\":860:863  i++ */\n      dup1\n      dup1\n      tag_115\n      swap1\n      tag_60\n      jump\t// in\n    tag_115:\n      swap2\n      pop\n      pop\n        /* \"contrakts base/ArraysExercise.sol\":831:907  for (uint256 i = 1; i <= 10; i++) {... */\n      jump(tag_111)\n    tag_112:\n      pop\n        /* \"contrakts base/ArraysExercise.sol\":764:914  function resetNumbers() public {... */\n      jump\t// out\n        /* \"contrakts base/ArraysExercise.sol\":276:334  uint256[] public numbers = [1, 2, 3, 4, 5, 6, 7, 8, 9, 10] */\n    tag_48:\n      0x00\n      dup2\n      dup2\n      sload\n      dup2\n      lt\n      tag_116\n      jumpi\n      0x00\n      dup1\n      revert\n    tag_116:\n      swap1\n      0x00\n      mstore\n      keccak256(0x00, 0x20)\n      add\n      0x00\n      swap2\n      pop\n      swap1\n      pop\n      sload\n      dup2\n      jump\t// out\n    tag_95:\n      pop\n      dup1\n      sload\n      0x00\n      dup3\n      sstore\n      swap1\n      0x00\n      mstore\n      keccak256(0x00, 0x20)\n      swap1\n      dup2\n      add\n      swap1\n      tag_119\n      swap2\n      swap1\n      tag_120\n      jump\t// in\n    tag_119:\n      pop\n      jump\t// out\n    tag_108:\n      pop\n      dup1\n      sload\n      0x00\n      dup3\n      sstore\n      swap1\n      0x00\n      mstore\n      keccak256(0x00, 0x20)\n      swap1\n      dup2\n      add\n      swap1\n      tag_122\n      swap2\n      swap1\n      tag_120\n      jump\t// in\n    tag_122:\n      pop\n      jump\t// out\n    tag_120:\n    tag_123:\n      dup1\n      dup3\n      gt\n      iszero\n      tag_124\n      jumpi\n      0x00\n      dup2\n      0x00\n      swap1\n      sstore\n      pop\n      0x01\n      add\n      jump(tag_123)\n    tag_124:\n      pop\n      swap1\n      jump\t// out\n        /* \"#utility.yul\":7:121   */\n    tag_125:\n        /* \"#utility.yul\":74:80   */\n      0x00\n        /* \"#utility.yul\":108:113   */\n      dup2\n        /* \"#utility.yul\":102:114   */\n      mload\n        /* \"#utility.yul\":92:114   */\n      swap1\n      pop\n        /* \"#utility.yul\":7:121   */\n      swap2\n      swap1\n      pop\n      jump\t// out\n        /* \"#utility.yul\":127:311   */\n    tag_126:\n        /* \"#utility.yul\":226:237   */\n      0x00\n        /* \"#utility.yul\":260:266   */\n      dup3\n        /* \"#utility.yul\":255:258   */\n      dup3\n        /* \"#utility.yul\":248:267   */\n      mstore\n        /* \"#utility.yul\":300:304   */\n      0x20\n        /* \"#utility.yul\":295:298   */\n      dup3\n        /* \"#utility.yul\":291:305   */\n      add\n        /* \"#utility.yul\":276:305   */\n      swap1\n      pop\n        /* \"#utility.yul\":127:311   */\n      swap3\n      swap2\n      pop\n      pop\n      jump\t// out\n        /* \"#utility.yul\":317:449   */\n    tag_127:\n        /* \"#utility.yul\":384:388   */\n      0x00\n        /* \"#utility.yul\":407:410   */\n      dup2\n        /* \"#utility.yul\":399:410   */\n      swap1\n      pop\n        /* \"#utility.yul\":437:441   */\n      0x20\n        /* \"#utility.yul\":432:435   */\n      dup3\n        /* \"#utility.yul\":428:442   */\n      add\n        /* \"#utility.yul\":420:442   */\n      swap1\n      pop\n        /* \"#utility.yul\":317:449   */\n      swap2\n      swap1\n      pop\n      jump\t// out\n        /* \"#utility.yul\":455:532   */\n    tag_128:\n        /* \"#utility.yul\":492:499   */\n      0x00\n        /* \"#utility.yul\":521:526   */\n      dup2\n        /* \"#utility.yul\":510:526   */\n      swap1\n      pop\n        /* \"#utility.yul\":455:532   */\n      swap2\n      swap1\n      pop\n      jump\t// out\n        /* \"#utility.yul\":538:646   */\n    tag_129:\n        /* \"#utility.yul\":615:639   */\n      tag_160\n        /* \"#utility.yul\":633:638   */\n      dup2\n        /* \"#utility.yul\":615:639   */\n      tag_128\n      jump\t// in\n    tag_160:\n        /* \"#utility.yul\":610:613   */\n      dup3\n        /* \"#utility.yul\":603:640   */\n      mstore\n        /* \"#utility.yul\":538:646   */\n      pop\n      pop\n      jump\t// out\n        /* \"#utility.yul\":652:831   */\n    tag_130:\n        /* \"#utility.yul\":721:731   */\n      0x00\n        /* \"#utility.yul\":742:788   */\n      tag_162\n        /* \"#utility.yul\":784:787   */\n      dup4\n        /* \"#utility.yul\":776:782   */\n      dup4\n        /* \"#utility.yul\":742:788   */\n      tag_129\n      jump\t// in\n    tag_162:\n        /* \"#utility.yul\":820:824   */\n      0x20\n        /* \"#utility.yul\":815:818   */\n      dup4\n        /* \"#utility.yul\":811:825   */\n      add\n        /* \"#utility.yul\":797:825   */\n      swap1\n      pop\n        /* \"#utility.yul\":652:831   */\n      swap3\n      swap2\n      pop\n      pop\n      jump\t// out\n        /* \"#utility.yul\":837:950   */\n    tag_131:\n        /* \"#utility.yul\":907:911   */\n      0x00\n        /* \"#utility.yul\":939:943   */\n      0x20\n        /* \"#utility.yul\":934:937   */\n      dup3\n        /* \"#utility.yul\":930:944   */\n      add\n        /* \"#utility.yul\":922:944   */\n      swap1\n      pop\n        /* \"#utility.yul\":837:950   */\n      swap2\n      swap1\n      pop\n      jump\t// out\n        /* \"#utility.yul\":986:1718   */\n    tag_132:\n        /* \"#utility.yul\":1105:1108   */\n      0x00\n        /* \"#utility.yul\":1134:1188   */\n      tag_165\n        /* \"#utility.yul\":1182:1187   */\n      dup3\n        /* \"#utility.yul\":1134:1188   */\n      tag_125\n      jump\t// in\n    tag_165:\n        /* \"#utility.yul\":1204:1290   */\n      tag_166\n        /* \"#utility.yul\":1283:1289   */\n      dup2\n        /* \"#utility.yul\":1278:1281   */\n      dup6\n        /* \"#utility.yul\":1204:1290   */\n      tag_126\n      jump\t// in\n    tag_166:\n        /* \"#utility.yul\":1197:1290   */\n      swap4\n      pop\n        /* \"#utility.yul\":1314:1370   */\n      tag_167\n        /* \"#utility.yul\":1364:1369   */\n      dup4\n        /* \"#utility.yul\":1314:1370   */\n      tag_127\n      jump\t// in\n    tag_167:\n        /* \"#utility.yul\":1393:1400   */\n      dup1\n        /* \"#utility.yul\":1424:1425   */\n      0x00\n        /* \"#utility.yul\":1409:1693   */\n    tag_168:\n        /* \"#utility.yul\":1434:1440   */\n      dup4\n        /* \"#utility.yul\":1431:1432   */\n      dup2\n        /* \"#utility.yul\":1428:1441   */\n      lt\n        /* \"#utility.yul\":1409:1693   */\n      iszero\n      tag_170\n      jumpi\n        /* \"#utility.yul\":1510:1516   */\n      dup2\n        /* \"#utility.yul\":1504:1517   */\n      mload\n        /* \"#utility.yul\":1537:1600   */\n      tag_171\n        /* \"#utility.yul\":1596:1599   */\n      dup9\n        /* \"#utility.yul\":1581:1594   */\n      dup3\n        /* \"#utility.yul\":1537:1600   */\n      tag_130\n      jump\t// in\n    tag_171:\n        /* \"#utility.yul\":1530:1600   */\n      swap8\n      pop\n        /* \"#utility.yul\":1623:1683   */\n      tag_172\n        /* \"#utility.yul\":1676:1682   */\n      dup4\n        /* \"#utility.yul\":1623:1683   */\n      tag_131\n      jump\t// in\n    tag_172:\n        /* \"#utility.yul\":1613:1683   */\n      swap3\n      pop\n        /* \"#utility.yul\":1469:1693   */\n      pop\n        /* \"#utility.yul\":1456:1457   */\n      0x01\n        /* \"#utility.yul\":1453:1454   */\n      dup2\n        /* \"#utility.yul\":1449:1458   */\n      add\n        /* \"#utility.yul\":1444:1458   */\n      swap1\n      pop\n        /* \"#utility.yul\":1409:1693   */\n      jump(tag_168)\n    tag_170:\n        /* \"#utility.yul\":1413:1427   */\n      pop\n        /* \"#utility.yul\":1709:1712   */\n      dup6\n        /* \"#utility.yul\":1702:1712   */\n      swap4\n      pop\n        /* \"#utility.yul\":1110:1718   */\n      pop\n      pop\n      pop\n        /* \"#utility.yul\":986:1718   */\n      swap3\n      swap2\n      pop\n      pop\n      jump\t// out\n        /* \"#utility.yul\":1724:1838   */\n    tag_133:\n        /* \"#utility.yul\":1791:1797   */\n      0x00\n        /* \"#utility.yul\":1825:1830   */\n      dup2\n        /* \"#utility.yul\":1819:1831   */\n      mload\n        /* \"#utility.yul\":1809:1831   */\n      swap1\n      pop\n        /* \"#utility.yul\":1724:1838   */\n      swap2\n      swap1\n      pop\n      jump\t// out\n        /* \"#utility.yul\":1844:2028   */\n    tag_134:\n        /* \"#utility.yul\":1943:1954   */\n      0x00\n        /* \"#utility.yul\":1977:1983   */\n      dup3\n        /* \"#utility.yul\":1972:1975   */\n      dup3\n        /* \"#utility.yul\":1965:1984   */\n      mstore\n        /* \"#utility.yul\":2017:2021   */\n      0x20\n        /* \"#utility.yul\":2012:2015   */\n      dup3\n        /* \"#utility.yul\":2008:2022   */\n      add\n        /* \"#utility.yul\":1993:2022   */\n      swap1\n      pop\n        /* \"#utility.yul\":1844:2028   */\n      swap3\n      swap2\n      pop\n      pop\n      jump\t// out\n        /* \"#utility.yul\":2034:2166   */\n    tag_135:\n        /* \"#utility.yul\":2101:2105   */\n      0x00\n        /* \"#utility.yul\":2124:2127   */\n      dup2\n        /* \"#utility.yul\":2116:2127   */\n      swap1\n      pop\n        /* \"#utility.yul\":2154:2158   */\n      0x20\n        /* \"#utility.yul\":2149:2152   */\n      dup3\n        /* \"#utility.yul\":2145:2159   */\n      add\n        /* \"#utility.yul\":2137:2159   */\n      swap1\n      pop\n        /* \"#utility.yul\":2034:2166   */\n      swap2\n      swap1\n      pop\n      jump\t// out\n        /* \"#utility.yul\":2172:2298   */\n    tag_136:\n        /* \"#utility.yul\":2209:2216   */\n      0x00\n        /* \"#utility.yul\":2249:2291   */\n      0xffffffffffffffffffffffffffffffffffffffff\n        /* \"#utility.yul\":2242:2247   */\n      dup3\n        /* \"#utility.yul\":2238:2292   */\n      and\n        /* \"#utility.yul\":2227:2292   */\n      swap1\n      pop\n        /* \"#utility.yul\":2172:2298   */\n      swap2\n      swap1\n      pop\n      jump\t// out\n        /* \"#utility.yul\":2304:2400   */\n    tag_137:\n        /* \"#utility.yul\":2341:2348   */\n      0x00\n        /* \"#utility.yul\":2370:2394   */\n      tag_178\n        /* \"#utility.yul\":2388:2393   */\n      dup3\n        /* \"#utility.yul\":2370:2394   */\n      tag_136\n      jump\t// in\n    tag_178:\n        /* \"#utility.yul\":2359:2394   */\n      swap1\n      pop\n        /* \"#utility.yul\":2304:2400   */\n      swap2\n      swap1\n      pop\n      jump\t// out\n        /* \"#utility.yul\":2406:2514   */\n    tag_138:\n        /* \"#utility.yul\":2483:2507   */\n      tag_180\n        /* \"#utility.yul\":2501:2506   */\n      dup2\n        /* \"#utility.yul\":2483:2507   */\n      tag_137\n      jump\t// in\n    tag_180:\n        /* \"#utility.yul\":2478:2481   */\n      dup3\n        /* \"#utility.yul\":2471:2508   */\n      mstore\n        /* \"#utility.yul\":2406:2514   */\n      pop\n      pop\n      jump\t// out\n        /* \"#utility.yul\":2520:2699   */\n    tag_139:\n        /* \"#utility.yul\":2589:2599   */\n      0x00\n        /* \"#utility.yul\":2610:2656   */\n      tag_182\n        /* \"#utility.yul\":2652:2655   */\n      dup4\n        /* \"#utility.yul\":2644:2650   */\n      dup4\n        /* \"#utility.yul\":2610:2656   */\n      tag_138\n      jump\t// in\n    tag_182:\n        /* \"#utility.yul\":2688:2692   */\n      0x20\n        /* \"#utility.yul\":2683:2686   */\n      dup4\n        /* \"#utility.yul\":2679:2693   */\n      add\n        /* \"#utility.yul\":2665:2693   */\n      swap1\n      pop\n        /* \"#utility.yul\":2520:2699   */\n      swap3\n      swap2\n      pop\n      pop\n      jump\t// out\n        /* \"#utility.yul\":2705:2818   */\n    tag_140:\n        /* \"#utility.yul\":2775:2779   */\n      0x00\n        /* \"#utility.yul\":2807:2811   */\n      0x20\n        /* \"#utility.yul\":2802:2805   */\n      dup3\n        /* \"#utility.yul\":2798:2812   */\n      add\n        /* \"#utility.yul\":2790:2812   */\n      swap1\n      pop\n        /* \"#utility.yul\":2705:2818   */\n      swap2\n      swap1\n      pop\n      jump\t// out\n        /* \"#utility.yul\":2854:3586   */\n    tag_141:\n        /* \"#utility.yul\":2973:2976   */\n      0x00\n        /* \"#utility.yul\":3002:3056   */\n      tag_185\n        /* \"#utility.yul\":3050:3055   */\n      dup3\n        /* \"#utility.yul\":3002:3056   */\n      tag_133\n      jump\t// in\n    tag_185:\n        /* \"#utility.yul\":3072:3158   */\n      tag_186\n        /* \"#utility.yul\":3151:3157   */\n      dup2\n        /* \"#utility.yul\":3146:3149   */\n      dup6\n        /* \"#utility.yul\":3072:3158   */\n      tag_134\n      jump\t// in\n    tag_186:\n        /* \"#utility.yul\":3065:3158   */\n      swap4\n      pop\n        /* \"#utility.yul\":3182:3238   */\n      tag_187\n        /* \"#utility.yul\":3232:3237   */\n      dup4\n        /* \"#utility.yul\":3182:3238   */\n      tag_135\n      jump\t// in\n    tag_187:\n        /* \"#utility.yul\":3261:3268   */\n      dup1\n        /* \"#utility.yul\":3292:3293   */\n      0x00\n        /* \"#utility.yul\":3277:3561   */\n    tag_188:\n        /* \"#utility.yul\":3302:3308   */\n      dup4\n        /* \"#utility.yul\":3299:3300   */\n      dup2\n        /* \"#utility.yul\":3296:3309   */\n      lt\n        /* \"#utility.yul\":3277:3561   */\n      iszero\n      tag_190\n      jumpi\n        /* \"#utility.yul\":3378:3384   */\n      dup2\n        /* \"#utility.yul\":3372:3385   */\n      mload\n        /* \"#utility.yul\":3405:3468   */\n      tag_191\n        /* \"#utility.yul\":3464:3467   */\n      dup9\n        /* \"#utility.yul\":3449:3462   */\n      dup3\n        /* \"#utility.yul\":3405:3468   */\n      tag_139\n      jump\t// in\n    tag_191:\n        /* \"#utility.yul\":3398:3468   */\n      swap8\n      pop\n        /* \"#utility.yul\":3491:3551   */\n      tag_192\n        /* \"#utility.yul\":3544:3550   */\n      dup4\n        /* \"#utility.yul\":3491:3551   */\n      tag_140\n      jump\t// in\n    tag_192:\n        /* \"#utility.yul\":3481:3551   */\n      swap3\n      pop\n        /* \"#utility.yul\":3337:3561   */\n      pop\n        /* \"#utility.yul\":3324:3325   */\n      0x01\n        /* \"#utility.yul\":3321:3322   */\n      dup2\n        /* \"#utility.yul\":3317:3326   */\n      add\n        /* \"#utility.yul\":3312:3326   */\n      swap1\n      pop\n        /* \"#utility.yul\":3277:3561   */\n      jump(tag_188)\n    tag_190:\n        /* \"#utility.yul\":3281:3295   */\n      pop\n        /* \"#utility.yul\":3577:3580   */\n      dup6\n        /* \"#utility.yul\":3570:3580   */\n      swap4\n      pop\n        /* \"#utility.yul\":2978:3586   */\n      pop\n      pop\n      pop\n        /* \"#utility.yul\":2854:3586   */\n      swap3\n      swap2\n      pop\n      pop\n      jump\t// out\n        /* \"#utility.yul\":3592:4226   */\n    tag_17:\n        /* \"#utility.yul\":3813:3817   */\n      0x00\n        /* \"#utility.yul\":3851:3853   */\n      0x40\n        /* \"#utility.yul\":3840:3849   */\n      dup3\n        /* \"#utility.yul\":3836:3854   */\n      add\n        /* \"#utility.yul\":3828:3854   */\n      swap1\n      pop\n        /* \"#utility.yul\":3900:3909   */\n      dup2\n        /* \"#utility.yul\":3894:3898   */\n      dup2\n        /* \"#utility.yul\":3890:3910   */\n      sub\n        /* \"#utility.yul\":3886:3887   */\n      0x00\n        /* \"#utility.yul\":3875:3884   */\n      dup4\n        /* \"#utility.yul\":3871:3888   */\n      add\n        /* \"#utility.yul\":3864:3911   */\n      mstore\n        /* \"#utility.yul\":3928:4036   */\n      tag_194\n        /* \"#utility.yul\":4031:4035   */\n      dup2\n        /* \"#utility.yul\":4022:4028   */\n      dup6\n        /* \"#utility.yul\":3928:4036   */\n      tag_132\n      jump\t// in\n    tag_194:\n        /* \"#utility.yul\":3920:4036   */\n      swap1\n      pop\n        /* \"#utility.yul\":4083:4092   */\n      dup2\n        /* \"#utility.yul\":4077:4081   */\n      dup2\n        /* \"#utility.yul\":4073:4093   */\n      sub\n        /* \"#utility.yul\":4068:4070   */\n      0x20\n        /* \"#utility.yul\":4057:4066   */\n      dup4\n        /* \"#utility.yul\":4053:4071   */\n      add\n        /* \"#utility.yul\":4046:4094   */\n      mstore\n        /* \"#utility.yul\":4111:4219   */\n      tag_195\n        /* \"#utility.yul\":4214:4218   */\n      dup2\n        /* \"#utility.yul\":4205:4211   */\n      dup5\n        /* \"#utility.yul\":4111:4219   */\n      tag_141\n      jump\t// in\n    tag_195:\n        /* \"#utility.yul\":4103:4219   */\n      swap1\n      pop\n        /* \"#utility.yul\":3592:4226   */\n      swap4\n      swap3\n      pop\n      pop\n      pop\n      jump\t// out\n        /* \"#utility.yul\":4313:4430   */\n    tag_143:\n        /* \"#utility.yul\":4422:4423   */\n      0x00\n        /* \"#utility.yul\":4419:4420   */\n      dup1\n        /* \"#utility.yul\":4412:4424   */\n      revert\n        /* \"#utility.yul\":4436:4553   */\n    tag_144:\n        /* \"#utility.yul\":4545:4546   */\n      0x00\n        /* \"#utility.yul\":4542:4543   */\n      dup1\n        /* \"#utility.yul\":4535:4547   */\n      revert\n        /* \"#utility.yul\":4559:4676   */\n    tag_145:\n        /* \"#utility.yul\":4668:4669   */\n      0x00\n        /* \"#utility.yul\":4665:4666   */\n      dup1\n        /* \"#utility.yul\":4658:4670   */\n      revert\n        /* \"#utility.yul\":4682:4799   */\n    tag_146:\n        /* \"#utility.yul\":4791:4792   */\n      0x00\n        /* \"#utility.yul\":4788:4789   */\n      dup1\n        /* \"#utility.yul\":4781:4793   */\n      revert\n        /* \"#utility.yul\":4805:4922   */\n    tag_147:\n        /* \"#utility.yul\":4914:4915   */\n      0x00\n        /* \"#utility.yul\":4911:4912   */\n      dup1\n        /* \"#utility.yul\":4904:4916   */\n      revert\n        /* \"#utility.yul\":4945:5513   */\n    tag_148:\n        /* \"#utility.yul\":5018:5026   */\n      0x00\n        /* \"#utility.yul\":5028:5034   */\n      dup1\n        /* \"#utility.yul\":5078:5081   */\n      dup4\n        /* \"#utility.yul\":5071:5075   */\n      0x1f\n        /* \"#utility.yul\":5063:5069   */\n      dup5\n        /* \"#utility.yul\":5059:5076   */\n      add\n        /* \"#utility.yul\":5055:5082   */\n      slt\n        /* \"#utility.yul\":5045:5167   */\n      tag_203\n      jumpi\n        /* \"#utility.yul\":5086:5165   */\n      tag_204\n      tag_145\n      jump\t// in\n    tag_204:\n        /* \"#utility.yul\":5045:5167   */\n    tag_203:\n        /* \"#utility.yul\":5199:5205   */\n      dup3\n        /* \"#utility.yul\":5186:5206   */\n      calldataload\n        /* \"#utility.yul\":5176:5206   */\n      swap1\n      pop\n        /* \"#utility.yul\":5229:5247   */\n      0xffffffffffffffff\n        /* \"#utility.yul\":5221:5227   */\n      dup2\n        /* \"#utility.yul\":5218:5248   */\n      gt\n        /* \"#utility.yul\":5215:5332   */\n      iszero\n      tag_205\n      jumpi\n        /* \"#utility.yul\":5251:5330   */\n      tag_206\n      tag_146\n      jump\t// in\n    tag_206:\n        /* \"#utility.yul\":5215:5332   */\n    tag_205:\n        /* \"#utility.yul\":5365:5369   */\n      0x20\n        /* \"#utility.yul\":5357:5363   */\n      dup4\n        /* \"#utility.yul\":5353:5370   */\n      add\n        /* \"#utility.yul\":5341:5370   */\n      swap2\n      pop\n        /* \"#utility.yul\":5419:5422   */\n      dup4\n        /* \"#utility.yul\":5411:5415   */\n      0x20\n        /* \"#utility.yul\":5403:5409   */\n      dup3\n        /* \"#utility.yul\":5399:5416   */\n      mul\n        /* \"#utility.yul\":5389:5397   */\n      dup4\n        /* \"#utility.yul\":5385:5417   */\n      add\n        /* \"#utility.yul\":5382:5423   */\n      gt\n        /* \"#utility.yul\":5379:5507   */\n      iszero\n      tag_207\n      jumpi\n        /* \"#utility.yul\":5426:5505   */\n      tag_208\n      tag_147\n      jump\t// in\n    tag_208:\n        /* \"#utility.yul\":5379:5507   */\n    tag_207:\n        /* \"#utility.yul\":4945:5513   */\n      swap3\n      pop\n      swap3\n      swap1\n      pop\n      jump\t// out\n        /* \"#utility.yul\":5519:6078   */\n    tag_20:\n        /* \"#utility.yul\":5605:5611   */\n      0x00\n        /* \"#utility.yul\":5613:5619   */\n      dup1\n        /* \"#utility.yul\":5662:5664   */\n      0x20\n        /* \"#utility.yul\":5650:5659   */\n      dup4\n        /* \"#utility.yul\":5641:5648   */\n      dup6\n        /* \"#utility.yul\":5637:5660   */\n      sub\n        /* \"#utility.yul\":5633:5665   */\n      slt\n        /* \"#utility.yul\":5630:5749   */\n      iszero\n      tag_210\n      jumpi\n        /* \"#utility.yul\":5668:5747   */\n      tag_211\n      tag_143\n      jump\t// in\n    tag_211:\n        /* \"#utility.yul\":5630:5749   */\n    tag_210:\n        /* \"#utility.yul\":5816:5817   */\n      0x00\n        /* \"#utility.yul\":5805:5814   */\n      dup4\n        /* \"#utility.yul\":5801:5818   */\n      add\n        /* \"#utility.yul\":5788:5819   */\n      calldataload\n        /* \"#utility.yul\":5846:5864   */\n      0xffffffffffffffff\n        /* \"#utility.yul\":5838:5844   */\n      dup2\n        /* \"#utility.yul\":5835:5865   */\n      gt\n        /* \"#utility.yul\":5832:5949   */\n      iszero\n      tag_212\n      jumpi\n        /* \"#utility.yul\":5868:5947   */\n      tag_213\n      tag_144\n      jump\t// in\n    tag_213:\n        /* \"#utility.yul\":5832:5949   */\n    tag_212:\n        /* \"#utility.yul\":5981:6061   */\n      tag_214\n        /* \"#utility.yul\":6053:6060   */\n      dup6\n        /* \"#utility.yul\":6044:6050   */\n      dup3\n        /* \"#utility.yul\":6033:6042   */\n      dup7\n        /* \"#utility.yul\":6029:6051   */\n      add\n        /* \"#utility.yul\":5981:6061   */\n      tag_148\n      jump\t// in\n    tag_214:\n        /* \"#utility.yul\":5963:6061   */\n      swap3\n      pop\n      swap3\n      pop\n        /* \"#utility.yul\":5759:6071   */\n      pop\n        /* \"#utility.yul\":5519:6078   */\n      swap3\n      pop\n      swap3\n      swap1\n      pop\n      jump\t// out\n        /* \"#utility.yul\":6084:6457   */\n    tag_27:\n        /* \"#utility.yul\":6227:6231   */\n      0x00\n        /* \"#utility.yul\":6265:6267   */\n      0x20\n        /* \"#utility.yul\":6254:6263   */\n      dup3\n        /* \"#utility.yul\":6250:6268   */\n      add\n        /* \"#utility.yul\":6242:6268   */\n      swap1\n      pop\n        /* \"#utility.yul\":6314:6323   */\n      dup2\n        /* \"#utility.yul\":6308:6312   */\n      dup2\n        /* \"#utility.yul\":6304:6324   */\n      sub\n        /* \"#utility.yul\":6300:6301   */\n      0x00\n        /* \"#utility.yul\":6289:6298   */\n      dup4\n        /* \"#utility.yul\":6285:6302   */\n      add\n        /* \"#utility.yul\":6278:6325   */\n      mstore\n        /* \"#utility.yul\":6342:6450   */\n      tag_216\n        /* \"#utility.yul\":6445:6449   */\n      dup2\n        /* \"#utility.yul\":6436:6442   */\n      dup5\n        /* \"#utility.yul\":6342:6450   */\n      tag_132\n      jump\t// in\n    tag_216:\n        /* \"#utility.yul\":6334:6450   */\n      swap1\n      pop\n        /* \"#utility.yul\":6084:6457   */\n      swap3\n      swap2\n      pop\n      pop\n      jump\t// out\n        /* \"#utility.yul\":6463:6585   */\n    tag_149:\n        /* \"#utility.yul\":6536:6560   */\n      tag_218\n        /* \"#utility.yul\":6554:6559   */\n      dup2\n        /* \"#utility.yul\":6536:6560   */\n      tag_128\n      jump\t// in\n    tag_218:\n        /* \"#utility.yul\":6529:6534   */\n      dup2\n        /* \"#utility.yul\":6526:6561   */\n      eq\n        /* \"#utility.yul\":6516:6579   */\n      tag_219\n      jumpi\n        /* \"#utility.yul\":6575:6576   */\n      0x00\n        /* \"#utility.yul\":6572:6573   */\n      dup1\n        /* \"#utility.yul\":6565:6577   */\n      revert\n        /* \"#utility.yul\":6516:6579   */\n    tag_219:\n        /* \"#utility.yul\":6463:6585   */\n      pop\n      jump\t// out\n        /* \"#utility.yul\":6591:6730   */\n    tag_150:\n        /* \"#utility.yul\":6637:6642   */\n      0x00\n        /* \"#utility.yul\":6675:6681   */\n      dup2\n        /* \"#utility.yul\":6662:6682   */\n      calldataload\n        /* \"#utility.yul\":6653:6682   */\n      swap1\n      pop\n        /* \"#utility.yul\":6691:6724   */\n      tag_221\n        /* \"#utility.yul\":6718:6723   */\n      dup2\n        /* \"#utility.yul\":6691:6724   */\n      tag_149\n      jump\t// in\n    tag_221:\n        /* \"#utility.yul\":6591:6730   */\n      swap3\n      swap2\n      pop\n      pop\n      jump\t// out\n        /* \"#utility.yul\":6736:7065   */\n    tag_30:\n        /* \"#utility.yul\":6795:6801   */\n      0x00\n        /* \"#utility.yul\":6844:6846   */\n      0x20\n        /* \"#utility.yul\":6832:6841   */\n      dup3\n        /* \"#utility.yul\":6823:6830   */\n      dup5\n        /* \"#utility.yul\":6819:6842   */\n      sub\n        /* \"#utility.yul\":6815:6847   */\n      slt\n        /* \"#utility.yul\":6812:6931   */\n      iszero\n      tag_223\n      jumpi\n        /* \"#utility.yul\":6850:6929   */\n      tag_224\n      tag_143\n      jump\t// in\n    tag_224:\n        /* \"#utility.yul\":6812:6931   */\n    tag_223:\n        /* \"#utility.yul\":6970:6971   */\n      0x00\n        /* \"#utility.yul\":6995:7048   */\n      tag_225\n        /* \"#utility.yul\":7040:7047   */\n      dup5\n        /* \"#utility.yul\":7031:7037   */\n      dup3\n        /* \"#utility.yul\":7020:7029   */\n      dup6\n        /* \"#utility.yul\":7016:7038   */\n      add\n        /* \"#utility.yul\":6995:7048   */\n      tag_150\n      jump\t// in\n    tag_225:\n        /* \"#utility.yul\":6985:7048   */\n      swap2\n      pop\n        /* \"#utility.yul\":6941:7058   */\n      pop\n        /* \"#utility.yul\":6736:7065   */\n      swap3\n      swap2\n      pop\n      pop\n      jump\t// out\n        /* \"#utility.yul\":7071:7189   */\n    tag_151:\n        /* \"#utility.yul\":7158:7182   */\n      tag_227\n        /* \"#utility.yul\":7176:7181   */\n      dup2\n        /* \"#utility.yul\":7158:7182   */\n      tag_128\n      jump\t// in\n    tag_227:\n        /* \"#utility.yul\":7153:7156   */\n      dup3\n        /* \"#utility.yul\":7146:7183   */\n      mstore\n        /* \"#utility.yul\":7071:7189   */\n      pop\n      pop\n      jump\t// out\n        /* \"#utility.yul\":7195:7417   */\n    tag_33:\n        /* \"#utility.yul\":7288:7292   */\n      0x00\n        /* \"#utility.yul\":7326:7328   */\n      0x20\n        /* \"#utility.yul\":7315:7324   */\n      dup3\n        /* \"#utility.yul\":7311:7329   */\n      add\n        /* \"#utility.yul\":7303:7329   */\n      swap1\n      pop\n        /* \"#utility.yul\":7339:7410   */\n      tag_229\n        /* \"#utility.yul\":7407:7408   */\n      0x00\n        /* \"#utility.yul\":7396:7405   */\n      dup4\n        /* \"#utility.yul\":7392:7409   */\n      add\n        /* \"#utility.yul\":7383:7389   */\n      dup5\n        /* \"#utility.yul\":7339:7410   */\n      tag_151\n      jump\t// in\n    tag_229:\n        /* \"#utility.yul\":7195:7417   */\n      swap3\n      swap2\n      pop\n      pop\n      jump\t// out\n        /* \"#utility.yul\":7423:7541   */\n    tag_152:\n        /* \"#utility.yul\":7510:7534   */\n      tag_231\n        /* \"#utility.yul\":7528:7533   */\n      dup2\n        /* \"#utility.yul\":7510:7534   */\n      tag_137\n      jump\t// in\n    tag_231:\n        /* \"#utility.yul\":7505:7508   */\n      dup3\n        /* \"#utility.yul\":7498:7535   */\n      mstore\n        /* \"#utility.yul\":7423:7541   */\n      pop\n      pop\n      jump\t// out\n        /* \"#utility.yul\":7547:7769   */\n    tag_38:\n        /* \"#utility.yul\":7640:7644   */\n      0x00\n        /* \"#utility.yul\":7678:7680   */\n      0x20\n        /* \"#utility.yul\":7667:7676   */\n      dup3\n        /* \"#utility.yul\":7663:7681   */\n      add\n        /* \"#utility.yul\":7655:7681   */\n      swap1\n      pop\n        /* \"#utility.yul\":7691:7762   */\n      tag_233\n        /* \"#utility.yul\":7759:7760   */\n      0x00\n        /* \"#utility.yul\":7748:7757   */\n      dup4\n        /* \"#utility.yul\":7744:7761   */\n      add\n        /* \"#utility.yul\":7735:7741   */\n      dup5\n        /* \"#utility.yul\":7691:7762   */\n      tag_152\n      jump\t// in\n    tag_233:\n        /* \"#utility.yul\":7547:7769   */\n      swap3\n      swap2\n      pop\n      pop\n      jump\t// out\n        /* \"#utility.yul\":7775:7955   */\n    tag_56:\n        /* \"#utility.yul\":7823:7900   */\n      0x4e487b7100000000000000000000000000000000000000000000000000000000\n        /* \"#utility.yul\":7820:7821   */\n      0x00\n        /* \"#utility.yul\":7813:7901   */\n      mstore\n        /* \"#utility.yul\":7920:7924   */\n      0x32\n        /* \"#utility.yul\":7917:7918   */\n      0x04\n        /* \"#utility.yul\":7910:7925   */\n      mstore\n        /* \"#utility.yul\":7944:7948   */\n      0x24\n        /* \"#utility.yul\":7941:7942   */\n      0x00\n        /* \"#utility.yul\":7934:7949   */\n      revert\n        /* \"#utility.yul\":7961:8141   */\n    tag_153:\n        /* \"#utility.yul\":8009:8086   */\n      0x4e487b7100000000000000000000000000000000000000000000000000000000\n        /* \"#utility.yul\":8006:8007   */\n      0x00\n        /* \"#utility.yul\":7999:8087   */\n      mstore\n        /* \"#utility.yul\":8106:8110   */\n      0x11\n        /* \"#utility.yul\":8103:8104   */\n      0x04\n        /* \"#utility.yul\":8096:8111   */\n      mstore\n        /* \"#utility.yul\":8130:8134   */\n      0x24\n        /* \"#utility.yul\":8127:8128   */\n      0x00\n        /* \"#utility.yul\":8120:8135   */\n      revert\n        /* \"#utility.yul\":8147:8380   */\n    tag_60:\n        /* \"#utility.yul\":8186:8189   */\n      0x00\n        /* \"#utility.yul\":8209:8233   */\n      tag_237\n        /* \"#utility.yul\":8227:8232   */\n      dup3\n        /* \"#utility.yul\":8209:8233   */\n      tag_128\n      jump\t// in\n    tag_237:\n        /* \"#utility.yul\":8200:8233   */\n      swap2\n      pop\n        /* \"#utility.yul\":8255:8321   */\n      0xffffffffffffffffffffffffffffffffffffffffffffffffffffffffffffffff\n        /* \"#utility.yul\":8248:8253   */\n      dup3\n        /* \"#utility.yul\":8245:8322   */\n      sub\n        /* \"#utility.yul\":8242:8345   */\n      tag_238\n      jumpi\n        /* \"#utility.yul\":8325:8343   */\n      tag_239\n      tag_153\n      jump\t// in\n    tag_239:\n        /* \"#utility.yul\":8242:8345   */\n    tag_238:\n        /* \"#utility.yul\":8372:8373   */\n      0x01\n        /* \"#utility.yul\":8365:8370   */\n      dup3\n        /* \"#utility.yul\":8361:8374   */\n      add\n        /* \"#utility.yul\":8354:8374   */\n      swap1\n      pop\n        /* \"#utility.yul\":8147:8380   */\n      swap2\n      swap1\n      pop\n      jump\t// out\n        /* \"#utility.yul\":8386:8566   */\n    tag_63:\n        /* \"#utility.yul\":8434:8511   */\n      0x4e487b7100000000000000000000000000000000000000000000000000000000\n        /* \"#utility.yul\":8431:8432   */\n      0x00\n        /* \"#utility.yul\":8424:8512   */\n      mstore\n        /* \"#utility.yul\":8531:8535   */\n      0x41\n        /* \"#utility.yul\":8528:8529   */\n      0x04\n        /* \"#utility.yul\":8521:8536   */\n      mstore\n        /* \"#utility.yul\":8555:8559   */\n      0x24\n        /* \"#utility.yul\":8552:8553   */\n      0x00\n        /* \"#utility.yul\":8545:8560   */\n      revert\n\n    auxdata: 0xa2646970667358221220e34023df7bcc857851559306587d081f214b2d10f486845c32d2f76641b18b0564736f6c63430008190033\n}\n",
				"bytecode": {
					"linkReferences": {},
					"object": "6080604052604051806101400160405280600160ff168152602001600260ff168152602001600360ff168152602001600460ff168152602001600560ff168152602001600660ff168152602001600760ff168152602001600860ff168152602001600960ff168152602001600a60ff168152505f90600a610081929190610093565b5034801561008d575f80fd5b506100fe565b828054828255905f5260205f209081019282156100d2579160200282015b828111156100d1578251829060ff169055916020019190600101906100b1565b5b5090506100df91906100e3565b5090565b5b808211156100fa575f815f9055506001016100e4565b5090565b610ab38061010b5f395ff3fe608060405234801561000f575f80fd5b506004361061009c575f3560e01c80639977c78a116100645780639977c78a14610133578063a00b7acd14610163578063ade82bfd1461017f578063b1cebac514610189578063d39fa233146101935761009c565b806320aaf79a146100a05780634f9377db146100bf5780637f66b1b8146100db57806389f915f6146100e55780638bc33af314610103575b5f80fd5b6100a86101c3565b6040516100b6929190610801565b60405180910390f35b6100d960048036038101906100d4919061089f565b6103db565b005b6100e3610438565b005b6100ed610447565b6040516100fa91906108ea565b60405180910390f35b61011d60048036038101906101189190610934565b61049c565b60405161012a919061096e565b60405180910390f35b61014d60048036038101906101489190610934565b6104bc565b60405161015a9190610996565b60405180910390f35b61017d60048036038101906101789190610934565b6104f7565b005b610187610580565b005b61019161058f565b005b6101ad60048036038101906101a89190610934565b6105e4565b6040516101ba919061096e565b60405180910390f35b6060805f805b60028054905081101561021a5763386d89d0600282815481106101ef576101ee6109af565b5b905f5260205f200154111561020d57818061020990610a09565b9250505b80806001019150506101c9565b505f8167ffffffffffffffff81111561023657610235610a50565b5b6040519080825280602002602001820160405280156102645781602001602082028036833780820191505090505b5090505f8267ffffffffffffffff81111561028257610281610a50565b5b6040519080825280602002602001820160405280156102b05781602001602082028036833780820191505090505b5090505f805b6002805490508110156103cc5763386d89d0600282815481106102dc576102db6109af565b5b905f5260205f20015411156103bf57600281815481106102ff576102fe6109af565b5b905f5260205f20015484838151811061031b5761031a6109af565b5b6020026020010181815250506001818154811061033b5761033a6109af565b5b905f5260205f20015f9054906101000a900473ffffffffffffffffffffffffffffffffffffffff16838381518110610376576103756109af565b5b602002602001019073ffffffffffffffffffffffffffffffffffffffff16908173ffffffffffffffffffffffffffffffffffffffff168152505081806103bb90610a09565b9250505b80806001019150506102b6565b50828295509550505050509091565b5f5b82829050811015610433575f8383838181106103fc576103fb6109af565b5b90506020020135908060018154018082558091505060019003905f5260205f20015f909190919091505580806001019150506103dd565b505050565b60015f6104459190610603565b565b60605f80548060200260200160405190810160405280929190818152602001828054801561049257602002820191905f5260205f20905b81548152602001906001019080831161047e575b5050505050905090565b600281815481106104ab575f80fd5b905f5260205f20015f915090505481565b600181815481106104cb575f80fd5b905f5260205f20015f915054906101000a900473ffffffffffffffffffffffffffffffffffffffff1681565b600133908060018154018082558091505060019003905f5260205f20015f9091909190916101000a81548173ffffffffffffffffffffffffffffffffffffffff021916908373ffffffffffffffffffffffffffffffffffffffff160217905550600281908060018154018082558091505060019003905f5260205f20015f909190919091505550565b60025f61058d9190610621565b565b5f8061059b9190610621565b5f600190505b600a81116105e1575f81908060018154018082558091505060019003905f5260205f20015f909190919091505580806105d990610a09565b9150506105a1565b50565b5f81815481106105f2575f80fd5b905f5260205f20015f915090505481565b5080545f8255905f5260205f209081019061061e919061063f565b50565b5080545f8255905f5260205f209081019061063c919061063f565b50565b5b80821115610656575f815f905550600101610640565b5090565b5f81519050919050565b5f82825260208201905092915050565b5f819050602082019050919050565b5f819050919050565b61069581610683565b82525050565b5f6106a6838361068c565b60208301905092915050565b5f602082019050919050565b5f6106c88261065a565b6106d28185610664565b93506106dd83610674565b805f5b8381101561070d5781516106f4888261069b565b97506106ff836106b2565b9250506001810190506106e0565b5085935050505092915050565b5f81519050919050565b5f82825260208201905092915050565b5f819050602082019050919050565b5f73ffffffffffffffffffffffffffffffffffffffff82169050919050565b5f61076c82610743565b9050919050565b61077c81610762565b82525050565b5f61078d8383610773565b60208301905092915050565b5f602082019050919050565b5f6107af8261071a565b6107b98185610724565b93506107c483610734565b805f5b838110156107f45781516107db8882610782565b97506107e683610799565b9250506001810190506107c7565b5085935050505092915050565b5f6040820190508181035f83015261081981856106be565b9050818103602083015261082d81846107a5565b90509392505050565b5f80fd5b5f80fd5b5f80fd5b5f80fd5b5f80fd5b5f8083601f84011261085f5761085e61083e565b5b8235905067ffffffffffffffff81111561087c5761087b610842565b5b60208301915083602082028301111561089857610897610846565b5b9250929050565b5f80602083850312156108b5576108b4610836565b5b5f83013567ffffffffffffffff8111156108d2576108d161083a565b5b6108de8582860161084a565b92509250509250929050565b5f6020820190508181035f83015261090281846106be565b905092915050565b61091381610683565b811461091d575f80fd5b50565b5f8135905061092e8161090a565b92915050565b5f6020828403121561094957610948610836565b5b5f61095684828501610920565b91505092915050565b61096881610683565b82525050565b5f6020820190506109815f83018461095f565b92915050565b61099081610762565b82525050565b5f6020820190506109a95f830184610987565b92915050565b7f4e487b71000000000000000000000000000000000000000000000000000000005f52603260045260245ffd5b7f4e487b71000000000000000000000000000000000000000000000000000000005f52601160045260245ffd5b5f610a1382610683565b91507fffffffffffffffffffffffffffffffffffffffffffffffffffffffffffffffff8203610a4557610a446109dc565b5b600182019050919050565b7f4e487b71000000000000000000000000000000000000000000000000000000005f52604160045260245ffdfea2646970667358221220e34023df7bcc857851559306587d081f214b2d10f486845c32d2f76641b18b0564736f6c63430008190033",
					"opcodes": "PUSH1 0x80 PUSH1 0x40 MSTORE PUSH1 0x40 MLOAD DUP1 PUSH2 0x140 ADD PUSH1 0x40 MSTORE DUP1 PUSH1 0x1 PUSH1 0xFF AND DUP2 MSTORE PUSH1 0x20 ADD PUSH1 0x2 PUSH1 0xFF AND DUP2 MSTORE PUSH1 0x20 ADD PUSH1 0x3 PUSH1 0xFF AND DUP2 MSTORE PUSH1 0x20 ADD PUSH1 0x4 PUSH1 0xFF AND DUP2 MSTORE PUSH1 0x20 ADD PUSH1 0x5 PUSH1 0xFF AND DUP2 MSTORE PUSH1 0x20 ADD PUSH1 0x6 PUSH1 0xFF AND DUP2 MSTORE PUSH1 0x20 ADD PUSH1 0x7 PUSH1 0xFF AND DUP2 MSTORE PUSH1 0x20 ADD PUSH1 0x8 PUSH1 0xFF AND DUP2 MSTORE PUSH1 0x20 ADD PUSH1 0x9 PUSH1 0xFF AND DUP2 MSTORE PUSH1 0x20 ADD PUSH1 0xA PUSH1 0xFF AND DUP2 MSTORE POP PUSH0 SWAP1 PUSH1 0xA PUSH2 0x81 SWAP3 SWAP2 SWAP1 PUSH2 0x93 JUMP JUMPDEST POP CALLVALUE DUP1 ISZERO PUSH2 0x8D JUMPI PUSH0 DUP1 REVERT JUMPDEST POP PUSH2 0xFE JUMP JUMPDEST DUP3 DUP1 SLOAD DUP3 DUP3 SSTORE SWAP1 PUSH0 MSTORE PUSH1 0x20 PUSH0 KECCAK256 SWAP1 DUP2 ADD SWAP3 DUP3 ISZERO PUSH2 0xD2 JUMPI SWAP2 PUSH1 0x20 MUL DUP3 ADD JUMPDEST DUP3 DUP2 GT ISZERO PUSH2 0xD1 JUMPI DUP3 MLOAD DUP3 SWAP1 PUSH1 0xFF AND SWAP1 SSTORE SWAP2 PUSH1 0x20 ADD SWAP2 SWAP1 PUSH1 0x1 ADD SWAP1 PUSH2 0xB1 JUMP JUMPDEST JUMPDEST POP SWAP1 POP PUSH2 0xDF SWAP2 SWAP1 PUSH2 0xE3 JUMP JUMPDEST POP SWAP1 JUMP JUMPDEST JUMPDEST DUP1 DUP3 GT ISZERO PUSH2 0xFA JUMPI PUSH0 DUP2 PUSH0 SWAP1 SSTORE POP PUSH1 0x1 ADD PUSH2 0xE4 JUMP JUMPDEST POP SWAP1 JUMP JUMPDEST PUSH2 0xAB3 DUP1 PUSH2 0x10B PUSH0 CODECOPY PUSH0 RETURN INVALID PUSH1 0x80 PUSH1 0x40 MSTORE CALLVALUE DUP1 ISZERO PUSH2 0xF JUMPI PUSH0 DUP1 REVERT JUMPDEST POP PUSH1 0x4 CALLDATASIZE LT PUSH2 0x9C JUMPI PUSH0 CALLDATALOAD PUSH1 0xE0 SHR DUP1 PUSH4 0x9977C78A GT PUSH2 0x64 JUMPI DUP1 PUSH4 0x9977C78A EQ PUSH2 0x133 JUMPI DUP1 PUSH4 0xA00B7ACD EQ PUSH2 0x163 JUMPI DUP1 PUSH4 0xADE82BFD EQ PUSH2 0x17F JUMPI DUP1 PUSH4 0xB1CEBAC5 EQ PUSH2 0x189 JUMPI DUP1 PUSH4 0xD39FA233 EQ PUSH2 0x193 JUMPI PUSH2 0x9C JUMP JUMPDEST DUP1 PUSH4 0x20AAF79A EQ PUSH2 0xA0 JUMPI DUP1 PUSH4 0x4F9377DB EQ PUSH2 0xBF JUMPI DUP1 PUSH4 0x7F66B1B8 EQ PUSH2 0xDB JUMPI DUP1 PUSH4 0x89F915F6 EQ PUSH2 0xE5 JUMPI DUP1 PUSH4 0x8BC33AF3 EQ PUSH2 0x103 JUMPI JUMPDEST PUSH0 DUP1 REVERT JUMPDEST PUSH2 0xA8 PUSH2 0x1C3 JUMP JUMPDEST PUSH1 0x40 MLOAD PUSH2 0xB6 SWAP3 SWAP2 SWAP1 PUSH2 0x801 JUMP JUMPDEST PUSH1 0x40 MLOAD DUP1 SWAP2 SUB SWAP1 RETURN JUMPDEST PUSH2 0xD9 PUSH1 0x4 DUP1 CALLDATASIZE SUB DUP2 ADD SWAP1 PUSH2 0xD4 SWAP2 SWAP1 PUSH2 0x89F JUMP JUMPDEST PUSH2 0x3DB JUMP JUMPDEST STOP JUMPDEST PUSH2 0xE3 PUSH2 0x438 JUMP JUMPDEST STOP JUMPDEST PUSH2 0xED PUSH2 0x447 JUMP JUMPDEST PUSH1 0x40 MLOAD PUSH2 0xFA SWAP2 SWAP1 PUSH2 0x8EA JUMP JUMPDEST PUSH1 0x40 MLOAD DUP1 SWAP2 SUB SWAP1 RETURN JUMPDEST PUSH2 0x11D PUSH1 0x4 DUP1 CALLDATASIZE SUB DUP2 ADD SWAP1 PUSH2 0x118 SWAP2 SWAP1 PUSH2 0x934 JUMP JUMPDEST PUSH2 0x49C JUMP JUMPDEST PUSH1 0x40 MLOAD PUSH2 0x12A SWAP2 SWAP1 PUSH2 0x96E JUMP JUMPDEST PUSH1 0x40 MLOAD DUP1 SWAP2 SUB SWAP1 RETURN JUMPDEST PUSH2 0x14D PUSH1 0x4 DUP1 CALLDATASIZE SUB DUP2 ADD SWAP1 PUSH2 0x148 SWAP2 SWAP1 PUSH2 0x934 JUMP JUMPDEST PUSH2 0x4BC JUMP JUMPDEST PUSH1 0x40 MLOAD PUSH2 0x15A SWAP2 SWAP1 PUSH2 0x996 JUMP JUMPDEST PUSH1 0x40 MLOAD DUP1 SWAP2 SUB SWAP1 RETURN JUMPDEST PUSH2 0x17D PUSH1 0x4 DUP1 CALLDATASIZE SUB DUP2 ADD SWAP1 PUSH2 0x178 SWAP2 SWAP1 PUSH2 0x934 JUMP JUMPDEST PUSH2 0x4F7 JUMP JUMPDEST STOP JUMPDEST PUSH2 0x187 PUSH2 0x580 JUMP JUMPDEST STOP JUMPDEST PUSH2 0x191 PUSH2 0x58F JUMP JUMPDEST STOP JUMPDEST PUSH2 0x1AD PUSH1 0x4 DUP1 CALLDATASIZE SUB DUP2 ADD SWAP1 PUSH2 0x1A8 SWAP2 SWAP1 PUSH2 0x934 JUMP JUMPDEST PUSH2 0x5E4 JUMP JUMPDEST PUSH1 0x40 MLOAD PUSH2 0x1BA SWAP2 SWAP1 PUSH2 0x96E JUMP JUMPDEST PUSH1 0x40 MLOAD DUP1 SWAP2 SUB SWAP1 RETURN JUMPDEST PUSH1 0x60 DUP1 PUSH0 DUP1 JUMPDEST PUSH1 0x2 DUP1 SLOAD SWAP1 POP DUP2 LT ISZERO PUSH2 0x21A JUMPI PUSH4 0x386D89D0 PUSH1 0x2 DUP3 DUP2 SLOAD DUP2 LT PUSH2 0x1EF JUMPI PUSH2 0x1EE PUSH2 0x9AF JUMP JUMPDEST JUMPDEST SWAP1 PUSH0 MSTORE PUSH1 0x20 PUSH0 KECCAK256 ADD SLOAD GT ISZERO PUSH2 0x20D JUMPI DUP2 DUP1 PUSH2 0x209 SWAP1 PUSH2 0xA09 JUMP JUMPDEST SWAP3 POP POP JUMPDEST DUP1 DUP1 PUSH1 0x1 ADD SWAP2 POP POP PUSH2 0x1C9 JUMP JUMPDEST POP PUSH0 DUP2 PUSH8 0xFFFFFFFFFFFFFFFF DUP2 GT ISZERO PUSH2 0x236 JUMPI PUSH2 0x235 PUSH2 0xA50 JUMP JUMPDEST JUMPDEST PUSH1 0x40 MLOAD SWAP1 DUP1 DUP3 MSTORE DUP1 PUSH1 0x20 MUL PUSH1 0x20 ADD DUP3 ADD PUSH1 0x40 MSTORE DUP1 ISZERO PUSH2 0x264 JUMPI DUP2 PUSH1 0x20 ADD PUSH1 0x20 DUP3 MUL DUP1 CALLDATASIZE DUP4 CALLDATACOPY DUP1 DUP3 ADD SWAP2 POP POP SWAP1 POP JUMPDEST POP SWAP1 POP PUSH0 DUP3 PUSH8 0xFFFFFFFFFFFFFFFF DUP2 GT ISZERO PUSH2 0x282 JUMPI PUSH2 0x281 PUSH2 0xA50 JUMP JUMPDEST JUMPDEST PUSH1 0x40 MLOAD SWAP1 DUP1 DUP3 MSTORE DUP1 PUSH1 0x20 MUL PUSH1 0x20 ADD DUP3 ADD PUSH1 0x40 MSTORE DUP1 ISZERO PUSH2 0x2B0 JUMPI DUP2 PUSH1 0x20 ADD PUSH1 0x20 DUP3 MUL DUP1 CALLDATASIZE DUP4 CALLDATACOPY DUP1 DUP3 ADD SWAP2 POP POP SWAP1 POP JUMPDEST POP SWAP1 POP PUSH0 DUP1 JUMPDEST PUSH1 0x2 DUP1 SLOAD SWAP1 POP DUP2 LT ISZERO PUSH2 0x3CC JUMPI PUSH4 0x386D89D0 PUSH1 0x2 DUP3 DUP2 SLOAD DUP2 LT PUSH2 0x2DC JUMPI PUSH2 0x2DB PUSH2 0x9AF JUMP JUMPDEST JUMPDEST SWAP1 PUSH0 MSTORE PUSH1 0x20 PUSH0 KECCAK256 ADD SLOAD GT ISZERO PUSH2 0x3BF JUMPI PUSH1 0x2 DUP2 DUP2 SLOAD DUP2 LT PUSH2 0x2FF JUMPI PUSH2 0x2FE PUSH2 0x9AF JUMP JUMPDEST JUMPDEST SWAP1 PUSH0 MSTORE PUSH1 0x20 PUSH0 KECCAK256 ADD SLOAD DUP5 DUP4 DUP2 MLOAD DUP2 LT PUSH2 0x31B JUMPI PUSH2 0x31A PUSH2 0x9AF JUMP JUMPDEST JUMPDEST PUSH1 0x20 MUL PUSH1 0x20 ADD ADD DUP2 DUP2 MSTORE POP POP PUSH1 0x1 DUP2 DUP2 SLOAD DUP2 LT PUSH2 0x33B JUMPI PUSH2 0x33A PUSH2 0x9AF JUMP JUMPDEST JUMPDEST SWAP1 PUSH0 MSTORE PUSH1 0x20 PUSH0 KECCAK256 ADD PUSH0 SWAP1 SLOAD SWAP1 PUSH2 0x100 EXP SWAP1 DIV PUSH20 0xFFFFFFFFFFFFFFFFFFFFFFFFFFFFFFFFFFFFFFFF AND DUP4 DUP4 DUP2 MLOAD DUP2 LT PUSH2 0x376 JUMPI PUSH2 0x375 PUSH2 0x9AF JUMP JUMPDEST JUMPDEST PUSH1 0x20 MUL PUSH1 0x20 ADD ADD SWAP1 PUSH20 0xFFFFFFFFFFFFFFFFFFFFFFFFFFFFFFFFFFFFFFFF AND SWAP1 DUP2 PUSH20 0xFFFFFFFFFFFFFFFFFFFFFFFFFFFFFFFFFFFFFFFF AND DUP2 MSTORE POP POP DUP2 DUP1 PUSH2 0x3BB SWAP1 PUSH2 0xA09 JUMP JUMPDEST SWAP3 POP POP JUMPDEST DUP1 DUP1 PUSH1 0x1 ADD SWAP2 POP POP PUSH2 0x2B6 JUMP JUMPDEST POP DUP3 DUP3 SWAP6 POP SWAP6 POP POP POP POP POP SWAP1 SWAP2 JUMP JUMPDEST PUSH0 JUMPDEST DUP3 DUP3 SWAP1 POP DUP2 LT ISZERO PUSH2 0x433 JUMPI PUSH0 DUP4 DUP4 DUP4 DUP2 DUP2 LT PUSH2 0x3FC JUMPI PUSH2 0x3FB PUSH2 0x9AF JUMP JUMPDEST JUMPDEST SWAP1 POP PUSH1 0x20 MUL ADD CALLDATALOAD SWAP1 DUP1 PUSH1 0x1 DUP2 SLOAD ADD DUP1 DUP3 SSTORE DUP1 SWAP2 POP POP PUSH1 0x1 SWAP1 SUB SWAP1 PUSH0 MSTORE PUSH1 0x20 PUSH0 KECCAK256 ADD PUSH0 SWAP1 SWAP2 SWAP1 SWAP2 SWAP1 SWAP2 POP SSTORE DUP1 DUP1 PUSH1 0x1 ADD SWAP2 POP POP PUSH2 0x3DD JUMP JUMPDEST POP POP POP JUMP JUMPDEST PUSH1 0x1 PUSH0 PUSH2 0x445 SWAP2 SWAP1 PUSH2 0x603 JUMP JUMPDEST JUMP JUMPDEST PUSH1 0x60 PUSH0 DUP1 SLOAD DUP1 PUSH1 0x20 MUL PUSH1 0x20 ADD PUSH1 0x40 MLOAD SWAP1 DUP2 ADD PUSH1 0x40 MSTORE DUP1 SWAP3 SWAP2 SWAP1 DUP2 DUP2 MSTORE PUSH1 0x20 ADD DUP3 DUP1 SLOAD DUP1 ISZERO PUSH2 0x492 JUMPI PUSH1 0x20 MUL DUP3 ADD SWAP2 SWAP1 PUSH0 MSTORE PUSH1 0x20 PUSH0 KECCAK256 SWAP1 JUMPDEST DUP2 SLOAD DUP2 MSTORE PUSH1 0x20 ADD SWAP1 PUSH1 0x1 ADD SWAP1 DUP1 DUP4 GT PUSH2 0x47E JUMPI JUMPDEST POP POP POP POP POP SWAP1 POP SWAP1 JUMP JUMPDEST PUSH1 0x2 DUP2 DUP2 SLOAD DUP2 LT PUSH2 0x4AB JUMPI PUSH0 DUP1 REVERT JUMPDEST SWAP1 PUSH0 MSTORE PUSH1 0x20 PUSH0 KECCAK256 ADD PUSH0 SWAP2 POP SWAP1 POP SLOAD DUP2 JUMP JUMPDEST PUSH1 0x1 DUP2 DUP2 SLOAD DUP2 LT PUSH2 0x4CB JUMPI PUSH0 DUP1 REVERT JUMPDEST SWAP1 PUSH0 MSTORE PUSH1 0x20 PUSH0 KECCAK256 ADD PUSH0 SWAP2 POP SLOAD SWAP1 PUSH2 0x100 EXP SWAP1 DIV PUSH20 0xFFFFFFFFFFFFFFFFFFFFFFFFFFFFFFFFFFFFFFFF AND DUP2 JUMP JUMPDEST PUSH1 0x1 CALLER SWAP1 DUP1 PUSH1 0x1 DUP2 SLOAD ADD DUP1 DUP3 SSTORE DUP1 SWAP2 POP POP PUSH1 0x1 SWAP1 SUB SWAP1 PUSH0 MSTORE PUSH1 0x20 PUSH0 KECCAK256 ADD PUSH0 SWAP1 SWAP2 SWAP1 SWAP2 SWAP1 SWAP2 PUSH2 0x100 EXP DUP2 SLOAD DUP2 PUSH20 0xFFFFFFFFFFFFFFFFFFFFFFFFFFFFFFFFFFFFFFFF MUL NOT AND SWAP1 DUP4 PUSH20 0xFFFFFFFFFFFFFFFFFFFFFFFFFFFFFFFFFFFFFFFF AND MUL OR SWAP1 SSTORE POP PUSH1 0x2 DUP2 SWAP1 DUP1 PUSH1 0x1 DUP2 SLOAD ADD DUP1 DUP3 SSTORE DUP1 SWAP2 POP POP PUSH1 0x1 SWAP1 SUB SWAP1 PUSH0 MSTORE PUSH1 0x20 PUSH0 KECCAK256 ADD PUSH0 SWAP1 SWAP2 SWAP1 SWAP2 SWAP1 SWAP2 POP SSTORE POP JUMP JUMPDEST PUSH1 0x2 PUSH0 PUSH2 0x58D SWAP2 SWAP1 PUSH2 0x621 JUMP JUMPDEST JUMP JUMPDEST PUSH0 DUP1 PUSH2 0x59B SWAP2 SWAP1 PUSH2 0x621 JUMP JUMPDEST PUSH0 PUSH1 0x1 SWAP1 POP JUMPDEST PUSH1 0xA DUP2 GT PUSH2 0x5E1 JUMPI PUSH0 DUP2 SWAP1 DUP1 PUSH1 0x1 DUP2 SLOAD ADD DUP1 DUP3 SSTORE DUP1 SWAP2 POP POP PUSH1 0x1 SWAP1 SUB SWAP1 PUSH0 MSTORE PUSH1 0x20 PUSH0 KECCAK256 ADD PUSH0 SWAP1 SWAP2 SWAP1 SWAP2 SWAP1 SWAP2 POP SSTORE DUP1 DUP1 PUSH2 0x5D9 SWAP1 PUSH2 0xA09 JUMP JUMPDEST SWAP2 POP POP PUSH2 0x5A1 JUMP JUMPDEST POP JUMP JUMPDEST PUSH0 DUP2 DUP2 SLOAD DUP2 LT PUSH2 0x5F2 JUMPI PUSH0 DUP1 REVERT JUMPDEST SWAP1 PUSH0 MSTORE PUSH1 0x20 PUSH0 KECCAK256 ADD PUSH0 SWAP2 POP SWAP1 POP SLOAD DUP2 JUMP JUMPDEST POP DUP1 SLOAD PUSH0 DUP3 SSTORE SWAP1 PUSH0 MSTORE PUSH1 0x20 PUSH0 KECCAK256 SWAP1 DUP2 ADD SWAP1 PUSH2 0x61E SWAP2 SWAP1 PUSH2 0x63F JUMP JUMPDEST POP JUMP JUMPDEST POP DUP1 SLOAD PUSH0 DUP3 SSTORE SWAP1 PUSH0 MSTORE PUSH1 0x20 PUSH0 KECCAK256 SWAP1 DUP2 ADD SWAP1 PUSH2 0x63C SWAP2 SWAP1 PUSH2 0x63F JUMP JUMPDEST POP JUMP JUMPDEST JUMPDEST DUP1 DUP3 GT ISZERO PUSH2 0x656 JUMPI PUSH0 DUP2 PUSH0 SWAP1 SSTORE POP PUSH1 0x1 ADD PUSH2 0x640 JUMP JUMPDEST POP SWAP1 JUMP JUMPDEST PUSH0 DUP2 MLOAD SWAP1 POP SWAP2 SWAP1 POP JUMP JUMPDEST PUSH0 DUP3 DUP3 MSTORE PUSH1 0x20 DUP3 ADD SWAP1 POP SWAP3 SWAP2 POP POP JUMP JUMPDEST PUSH0 DUP2 SWAP1 POP PUSH1 0x20 DUP3 ADD SWAP1 POP SWAP2 SWAP1 POP JUMP JUMPDEST PUSH0 DUP2 SWAP1 POP SWAP2 SWAP1 POP JUMP JUMPDEST PUSH2 0x695 DUP2 PUSH2 0x683 JUMP JUMPDEST DUP3 MSTORE POP POP JUMP JUMPDEST PUSH0 PUSH2 0x6A6 DUP4 DUP4 PUSH2 0x68C JUMP JUMPDEST PUSH1 0x20 DUP4 ADD SWAP1 POP SWAP3 SWAP2 POP POP JUMP JUMPDEST PUSH0 PUSH1 0x20 DUP3 ADD SWAP1 POP SWAP2 SWAP1 POP JUMP JUMPDEST PUSH0 PUSH2 0x6C8 DUP3 PUSH2 0x65A JUMP JUMPDEST PUSH2 0x6D2 DUP2 DUP6 PUSH2 0x664 JUMP JUMPDEST SWAP4 POP PUSH2 0x6DD DUP4 PUSH2 0x674 JUMP JUMPDEST DUP1 PUSH0 JUMPDEST DUP4 DUP2 LT ISZERO PUSH2 0x70D JUMPI DUP2 MLOAD PUSH2 0x6F4 DUP9 DUP3 PUSH2 0x69B JUMP JUMPDEST SWAP8 POP PUSH2 0x6FF DUP4 PUSH2 0x6B2 JUMP JUMPDEST SWAP3 POP POP PUSH1 0x1 DUP2 ADD SWAP1 POP PUSH2 0x6E0 JUMP JUMPDEST POP DUP6 SWAP4 POP POP POP POP SWAP3 SWAP2 POP POP JUMP JUMPDEST PUSH0 DUP2 MLOAD SWAP1 POP SWAP2 SWAP1 POP JUMP JUMPDEST PUSH0 DUP3 DUP3 MSTORE PUSH1 0x20 DUP3 ADD SWAP1 POP SWAP3 SWAP2 POP POP JUMP JUMPDEST PUSH0 DUP2 SWAP1 POP PUSH1 0x20 DUP3 ADD SWAP1 POP SWAP2 SWAP1 POP JUMP JUMPDEST PUSH0 PUSH20 0xFFFFFFFFFFFFFFFFFFFFFFFFFFFFFFFFFFFFFFFF DUP3 AND SWAP1 POP SWAP2 SWAP1 POP JUMP JUMPDEST PUSH0 PUSH2 0x76C DUP3 PUSH2 0x743 JUMP JUMPDEST SWAP1 POP SWAP2 SWAP1 POP JUMP JUMPDEST PUSH2 0x77C DUP2 PUSH2 0x762 JUMP JUMPDEST DUP3 MSTORE POP POP JUMP JUMPDEST PUSH0 PUSH2 0x78D DUP4 DUP4 PUSH2 0x773 JUMP JUMPDEST PUSH1 0x20 DUP4 ADD SWAP1 POP SWAP3 SWAP2 POP POP JUMP JUMPDEST PUSH0 PUSH1 0x20 DUP3 ADD SWAP1 POP SWAP2 SWAP1 POP JUMP JUMPDEST PUSH0 PUSH2 0x7AF DUP3 PUSH2 0x71A JUMP JUMPDEST PUSH2 0x7B9 DUP2 DUP6 PUSH2 0x724 JUMP JUMPDEST SWAP4 POP PUSH2 0x7C4 DUP4 PUSH2 0x734 JUMP JUMPDEST DUP1 PUSH0 JUMPDEST DUP4 DUP2 LT ISZERO PUSH2 0x7F4 JUMPI DUP2 MLOAD PUSH2 0x7DB DUP9 DUP3 PUSH2 0x782 JUMP JUMPDEST SWAP8 POP PUSH2 0x7E6 DUP4 PUSH2 0x799 JUMP JUMPDEST SWAP3 POP POP PUSH1 0x1 DUP2 ADD SWAP1 POP PUSH2 0x7C7 JUMP JUMPDEST POP DUP6 SWAP4 POP POP POP POP SWAP3 SWAP2 POP POP JUMP JUMPDEST PUSH0 PUSH1 0x40 DUP3 ADD SWAP1 POP DUP2 DUP2 SUB PUSH0 DUP4 ADD MSTORE PUSH2 0x819 DUP2 DUP6 PUSH2 0x6BE JUMP JUMPDEST SWAP1 POP DUP2 DUP2 SUB PUSH1 0x20 DUP4 ADD MSTORE PUSH2 0x82D DUP2 DUP5 PUSH2 0x7A5 JUMP JUMPDEST SWAP1 POP SWAP4 SWAP3 POP POP POP JUMP JUMPDEST PUSH0 DUP1 REVERT JUMPDEST PUSH0 DUP1 REVERT JUMPDEST PUSH0 DUP1 REVERT JUMPDEST PUSH0 DUP1 REVERT JUMPDEST PUSH0 DUP1 REVERT JUMPDEST PUSH0 DUP1 DUP4 PUSH1 0x1F DUP5 ADD SLT PUSH2 0x85F JUMPI PUSH2 0x85E PUSH2 0x83E JUMP JUMPDEST JUMPDEST DUP3 CALLDATALOAD SWAP1 POP PUSH8 0xFFFFFFFFFFFFFFFF DUP2 GT ISZERO PUSH2 0x87C JUMPI PUSH2 0x87B PUSH2 0x842 JUMP JUMPDEST JUMPDEST PUSH1 0x20 DUP4 ADD SWAP2 POP DUP4 PUSH1 0x20 DUP3 MUL DUP4 ADD GT ISZERO PUSH2 0x898 JUMPI PUSH2 0x897 PUSH2 0x846 JUMP JUMPDEST JUMPDEST SWAP3 POP SWAP3 SWAP1 POP JUMP JUMPDEST PUSH0 DUP1 PUSH1 0x20 DUP4 DUP6 SUB SLT ISZERO PUSH2 0x8B5 JUMPI PUSH2 0x8B4 PUSH2 0x836 JUMP JUMPDEST JUMPDEST PUSH0 DUP4 ADD CALLDATALOAD PUSH8 0xFFFFFFFFFFFFFFFF DUP2 GT ISZERO PUSH2 0x8D2 JUMPI PUSH2 0x8D1 PUSH2 0x83A JUMP JUMPDEST JUMPDEST PUSH2 0x8DE DUP6 DUP3 DUP7 ADD PUSH2 0x84A JUMP JUMPDEST SWAP3 POP SWAP3 POP POP SWAP3 POP SWAP3 SWAP1 POP JUMP JUMPDEST PUSH0 PUSH1 0x20 DUP3 ADD SWAP1 POP DUP2 DUP2 SUB PUSH0 DUP4 ADD MSTORE PUSH2 0x902 DUP2 DUP5 PUSH2 0x6BE JUMP JUMPDEST SWAP1 POP SWAP3 SWAP2 POP POP JUMP JUMPDEST PUSH2 0x913 DUP2 PUSH2 0x683 JUMP JUMPDEST DUP2 EQ PUSH2 0x91D JUMPI PUSH0 DUP1 REVERT JUMPDEST POP JUMP JUMPDEST PUSH0 DUP2 CALLDATALOAD SWAP1 POP PUSH2 0x92E DUP2 PUSH2 0x90A JUMP JUMPDEST SWAP3 SWAP2 POP POP JUMP JUMPDEST PUSH0 PUSH1 0x20 DUP3 DUP5 SUB SLT ISZERO PUSH2 0x949 JUMPI PUSH2 0x948 PUSH2 0x836 JUMP JUMPDEST JUMPDEST PUSH0 PUSH2 0x956 DUP5 DUP3 DUP6 ADD PUSH2 0x920 JUMP JUMPDEST SWAP2 POP POP SWAP3 SWAP2 POP POP JUMP JUMPDEST PUSH2 0x968 DUP2 PUSH2 0x683 JUMP JUMPDEST DUP3 MSTORE POP POP JUMP JUMPDEST PUSH0 PUSH1 0x20 DUP3 ADD SWAP1 POP PUSH2 0x981 PUSH0 DUP4 ADD DUP5 PUSH2 0x95F JUMP JUMPDEST SWAP3 SWAP2 POP POP JUMP JUMPDEST PUSH2 0x990 DUP2 PUSH2 0x762 JUMP JUMPDEST DUP3 MSTORE POP POP JUMP JUMPDEST PUSH0 PUSH1 0x20 DUP3 ADD SWAP1 POP PUSH2 0x9A9 PUSH0 DUP4 ADD DUP5 PUSH2 0x987 JUMP JUMPDEST SWAP3 SWAP2 POP POP JUMP JUMPDEST PUSH32 0x4E487B7100000000000000000000000000000000000000000000000000000000 PUSH0 MSTORE PUSH1 0x32 PUSH1 0x4 MSTORE PUSH1 0x24 PUSH0 REVERT JUMPDEST PUSH32 0x4E487B7100000000000000000000000000000000000000000000000000000000 PUSH0 MSTORE PUSH1 0x11 PUSH1 0x4 MSTORE PUSH1 0x24 PUSH0 REVERT JUMPDEST PUSH0 PUSH2 0xA13 DUP3 PUSH2 0x683 JUMP JUMPDEST SWAP2 POP PUSH32 0xFFFFFFFFFFFFFFFFFFFFFFFFFFFFFFFFFFFFFFFFFFFFFFFFFFFFFFFFFFFFFFFF DUP3 SUB PUSH2 0xA45 JUMPI PUSH2 0xA44 PUSH2 0x9DC JUMP JUMPDEST JUMPDEST PUSH1 0x1 DUP3 ADD SWAP1 POP SWAP2 SWAP1 POP JUMP JUMPDEST PUSH32 0x4E487B7100000000000000000000000000000000000000000000000000000000 PUSH0 MSTORE PUSH1 0x41 PUSH1 0x4 MSTORE PUSH1 0x24 PUSH0 REVERT INVALID LOG2 PUSH5 0x6970667358 0x22 SLT KECCAK256 0xE3 BLOCKHASH 0x23 0xDF PUSH28 0xCC857851559306587D081F214B2D10F486845C32D2F76641B18B0564 PUSH20 0x6F6C634300081900330000000000000000000000 "
				},
				"gasEstimates": {
					"creation": {
						"codeDepositCost": "547800",
						"executionCost": "infinite",
						"totalCost": "infinite"
					},
					"external": {
						"afterY2K()": "infinite",
						"appendToNumbers(uint256[])": "infinite",
						"getNumbers()": "infinite",
						"numbers(uint256)": "infinite",
						"resetNumbers()": "infinite",
						"resetSenders()": "infinite",
						"resetTimestamps()": "infinite",
						"saveTimestamp(uint256)": "95418",
						"senders(uint256)": "4944",
						"timestamps(uint256)": "infinite"
					}
				},
				"methodIdentifiers": {
					"afterY2K()": "20aaf79a",
					"appendToNumbers(uint256[])": "4f9377db",
					"getNumbers()": "89f915f6",
					"numbers(uint256)": "d39fa233",
					"resetNumbers()": "b1cebac5",
					"resetSenders()": "7f66b1b8",
					"resetTimestamps()": "ade82bfd",
					"saveTimestamp(uint256)": "a00b7acd",
					"senders(uint256)": "9977c78a",
					"timestamps(uint256)": "8bc33af3"
				}
			},
			"storageLayout": {
				"storage": [
					{
						"astId": 15,
						"contract": "contrakts base/ArraysExercise.sol:ArraysExercise",
						"label": "numbers",
						"offset": 0,
						"slot": "0",
						"type": "t_array(t_uint256)dyn_storage"
					},
					{
						"astId": 18,
						"contract": "contrakts base/ArraysExercise.sol:ArraysExercise",
						"label": "senders",
						"offset": 0,
						"slot": "1",
						"type": "t_array(t_address)dyn_storage"
					},
					{
						"astId": 21,
						"contract": "contrakts base/ArraysExercise.sol:ArraysExercise",
						"label": "timestamps",
						"offset": 0,
						"slot": "2",
						"type": "t_array(t_uint256)dyn_storage"
					}
				],
				"types": {
					"t_address": {
						"encoding": "inplace",
						"label": "address",
						"numberOfBytes": "20"
					},
					"t_array(t_address)dyn_storage": {
						"base": "t_address",
						"encoding": "dynamic_array",
						"label": "address[]",
						"numberOfBytes": "32"
					},
					"t_array(t_uint256)dyn_storage": {
						"base": "t_uint256",
						"encoding": "dynamic_array",
						"label": "uint256[]",
						"numberOfBytes": "32"
					},
					"t_uint256": {
						"encoding": "inplace",
						"label": "uint256",
						"numberOfBytes": "32"
					}
				}
			},
			"userdoc": {
				"kind": "user",
				"methods": {},
				"version": 1
			}
		}
	}
}