{
	"contrakts base/FavoriteRecords.sol": {
		"FavoriteRecords": {
			"abi": [
				{
					"inputs": [],
					"stateMutability": "nonpayable",
					"type": "constructor"
				},
				{
					"inputs": [
						{
							"internalType": "string",
							"name": "record",
							"type": "string"
						}
					],
					"name": "NotApproved",
					"type": "error"
				},
				{
					"inputs": [
						{
							"internalType": "string",
							"name": "_recordName",
							"type": "string"
						}
					],
					"name": "addRecord",
					"outputs": [],
					"stateMutability": "nonpayable",
					"type": "function"
				},
				{
					"inputs": [
						{
							"internalType": "string",
							"name": "",
							"type": "string"
						}
					],
					"name": "approvedRecords",
					"outputs": [
						{
							"internalType": "bool",
							"name": "",
							"type": "bool"
						}
					],
					"stateMutability": "view",
					"type": "function"
				},
				{
					"inputs": [],
					"name": "getApprovedRecords",
					"outputs": [
						{
							"internalType": "string[]",
							"name": "",
							"type": "string[]"
						}
					],
					"stateMutability": "view",
					"type": "function"
				},
				{
					"inputs": [
						{
							"internalType": "address",
							"name": "_user",
							"type": "address"
						}
					],
					"name": "getUserFavorites",
					"outputs": [
						{
							"internalType": "string[]",
							"name": "",
							"type": "string[]"
						}
					],
					"stateMutability": "view",
					"type": "function"
				},
				{
					"inputs": [],
					"name": "resetUserFavorites",
					"outputs": [],
					"stateMutability": "nonpayable",
					"type": "function"
				},
				{
					"inputs": [
						{
							"internalType": "address",
							"name": "",
							"type": "address"
						},
						{
							"internalType": "string",
							"name": "",
							"type": "string"
						}
					],
					"name": "userFavorites",
					"outputs": [
						{
							"internalType": "bool",
							"name": "",
							"type": "bool"
						}
					],
					"stateMutability": "view",
					"type": "function"
				}
			],
			"devdoc": {
				"kind": "dev",
				"methods": {},
				"version": 1
			},
			"evm": {
				"assembly": "    /* \"contrakts base/FavoriteRecords.sol\":185:3291  contract FavoriteRecords {... */\n  mstore(0x40, 0x80)\n    /* \"contrakts base/FavoriteRecords.sol\":707:1190  constructor() {... */\n  callvalue\n  dup1\n  iszero\n  tag_1\n  jumpi\n  0x00\n  dup1\n  revert\ntag_1:\n  pop\n    /* \"contrakts base/FavoriteRecords.sol\":732:1056  recordsNames = [... */\n  mload(0x40)\n  dup1\n  0x0120\n  add\n  0x40\n  mstore\n  dup1\n  mload(0x40)\n  dup1\n  0x40\n  add\n  0x40\n  mstore\n  dup1\n  0x08\n  dup2\n  mstore\n  0x20\n  add\n  0x546872696c6c6572000000000000000000000000000000000000000000000000\n  dup2\n  mstore\n  pop\n  dup2\n  mstore\n  0x20\n  add\n  mload(0x40)\n  dup1\n  0x40\n  add\n  0x40\n  mstore\n  dup1\n  0x0d\n  dup2\n  mstore\n  0x20\n  add\n  0x4261636b20696e20426c61636b00000000000000000000000000000000000000\n  dup2\n  mstore\n  pop\n  dup2\n  mstore\n  0x20\n  add\n  mload(0x40)\n  dup1\n  0x40\n  add\n  0x40\n  mstore\n  dup1\n  0x0d\n  dup2\n  mstore\n  0x20\n  add\n  0x54686520426f6479677561726400000000000000000000000000000000000000\n  dup2\n  mstore\n  pop\n  dup2\n  mstore\n  0x20\n  add\n  mload(0x40)\n  dup1\n  0x40\n  add\n  0x40\n  mstore\n  dup1\n  0x19\n  dup2\n  mstore\n  0x20\n  add\n  0x546865204461726b2053696465206f6620746865204d6f6f6e00000000000000\n  dup2\n  mstore\n  pop\n  dup2\n  mstore\n  0x20\n  add\n  mload(0x40)\n  dup1\n  0x40\n  add\n  0x40\n  mstore\n  dup1\n  0x1f\n  dup2\n  mstore\n  0x20\n  add\n  0x546865697220477265617465737420486974732028313937312d313937352900\n  dup2\n  mstore\n  pop\n  dup2\n  mstore\n  0x20\n  add\n  mload(0x40)\n  dup1\n  0x40\n  add\n  0x40\n  mstore\n  dup1\n  0x10\n  dup2\n  mstore\n  0x20\n  add\n  0x486f74656c2043616c69666f726e696100000000000000000000000000000000\n  dup2\n  mstore\n  pop\n  dup2\n  mstore\n  0x20\n  add\n  mload(0x40)\n  dup1\n  0x40\n  add\n  0x40\n  mstore\n  dup1\n  0x0c\n  dup2\n  mstore\n  0x20\n  add\n  0x436f6d65204f6e204f7665720000000000000000000000000000000000000000\n  dup2\n  mstore\n  pop\n  dup2\n  mstore\n  0x20\n  add\n  mload(0x40)\n  dup1\n  0x40\n  add\n  0x40\n  mstore\n  dup1\n  0x07\n  dup2\n  mstore\n  0x20\n  add\n  0x52756d6f75727300000000000000000000000000000000000000000000000000\n  dup2\n  mstore\n  pop\n  dup2\n  mstore\n  0x20\n  add\n  mload(0x40)\n  dup1\n  0x40\n  add\n  0x40\n  mstore\n  dup1\n  0x14\n  dup2\n  mstore\n  0x20\n  add\n  0x5361747572646179204e69676874204665766572000000000000000000000000\n  dup2\n  mstore\n  pop\n  dup2\n  mstore\n  pop\n    /* \"contrakts base/FavoriteRecords.sol\":732:744  recordsNames */\n  0x01\n    /* \"contrakts base/FavoriteRecords.sol\":732:1056  recordsNames = [... */\n  swap1\n  0x09\n  tag_4\n  swap3\n  swap2\n  swap1\n  tag_5\n  jump\t// in\ntag_4:\n  pop\n    /* \"contrakts base/FavoriteRecords.sol\":1072:1081  uint256 i */\n  0x00\n    /* \"contrakts base/FavoriteRecords.sol\":1067:1183  for (uint256 i = 0; i < recordsNames.length; i++) {... */\ntag_6:\n    /* \"contrakts base/FavoriteRecords.sol\":1091:1103  recordsNames */\n  0x01\n    /* \"contrakts base/FavoriteRecords.sol\":1091:1110  recordsNames.length */\n  dup1\n  sload\n  swap1\n  pop\n    /* \"contrakts base/FavoriteRecords.sol\":1087:1088  i */\n  dup2\n    /* \"contrakts base/FavoriteRecords.sol\":1087:1110  i < recordsNames.length */\n  lt\n    /* \"contrakts base/FavoriteRecords.sol\":1067:1183  for (uint256 i = 0; i < recordsNames.length; i++) {... */\n  iszero\n  tag_7\n  jumpi\n    /* \"contrakts base/FavoriteRecords.sol\":1167:1171  true */\n  0x01\n    /* \"contrakts base/FavoriteRecords.sol\":1132:1147  approvedRecords */\n  0x00\n    /* \"contrakts base/FavoriteRecords.sol\":1148:1160  recordsNames */\n  0x01\n    /* \"contrakts base/FavoriteRecords.sol\":1161:1162  i */\n  dup4\n    /* \"contrakts base/FavoriteRecords.sol\":1148:1163  recordsNames[i] */\n  dup2\n  sload\n  dup2\n  lt\n  tag_9\n  jumpi\n  tag_10\n  tag_11\n  jump\t// in\ntag_10:\ntag_9:\n  swap1\n  0x00\n  mstore\n  keccak256(0x00, 0x20)\n  add\n    /* \"contrakts base/FavoriteRecords.sol\":1132:1164  approvedRecords[recordsNames[i]] */\n  mload(0x40)\n  tag_13\n  swap2\n  swap1\n  tag_14\n  jump\t// in\ntag_13:\n  swap1\n  dup2\n  mstore\n  0x20\n  add\n  mload(0x40)\n  dup1\n  swap2\n  sub\n  swap1\n  keccak256\n  0x00\n    /* \"contrakts base/FavoriteRecords.sol\":1132:1171  approvedRecords[recordsNames[i]] = true */\n  0x0100\n  exp\n  dup2\n  sload\n  dup2\n  0xff\n  mul\n  not\n  and\n  swap1\n  dup4\n  iszero\n  iszero\n  mul\n  or\n  swap1\n  sstore\n  pop\n    /* \"contrakts base/FavoriteRecords.sol\":1112:1115  i++ */\n  dup1\n  dup1\n  0x01\n  add\n  swap2\n  pop\n  pop\n    /* \"contrakts base/FavoriteRecords.sol\":1067:1183  for (uint256 i = 0; i < recordsNames.length; i++) {... */\n  jump(tag_6)\ntag_7:\n  pop\n    /* \"contrakts base/FavoriteRecords.sol\":185:3291  contract FavoriteRecords {... */\n  jump(tag_15)\ntag_5:\n  dup3\n  dup1\n  sload\n  dup3\n  dup3\n  sstore\n  swap1\n  0x00\n  mstore\n  keccak256(0x00, 0x20)\n  swap1\n  dup2\n  add\n  swap3\n  dup3\n  iszero\n  tag_16\n  jumpi\n  swap2\n  0x20\n  mul\n  dup3\n  add\ntag_17:\n  dup3\n  dup2\n  gt\n  iszero\n  tag_18\n  jumpi\n  dup3\n  mload\n  dup3\n  swap1\n  dup2\n  tag_19\n  swap2\n  swap1\n  tag_20\n  jump\t// in\ntag_19:\n  pop\n  swap2\n  0x20\n  add\n  swap2\n  swap1\n  0x01\n  add\n  swap1\n  jump(tag_17)\ntag_18:\ntag_16:\n  pop\n  swap1\n  pop\n  tag_21\n  swap2\n  swap1\n  tag_22\n  jump\t// in\ntag_21:\n  pop\n  swap1\n  jump\t// out\ntag_22:\ntag_23:\n  dup1\n  dup3\n  gt\n  iszero\n  tag_24\n  jumpi\n  0x00\n  dup2\n  dup2\n  tag_25\n  swap2\n  swap1\n  tag_26\n  jump\t// in\ntag_25:\n  pop\n  0x01\n  add\n  jump(tag_23)\ntag_24:\n  pop\n  swap1\n  jump\t// out\ntag_26:\n  pop\n  dup1\n  sload\n  tag_27\n  swap1\n  tag_28\n  jump\t// in\ntag_27:\n  0x00\n  dup3\n  sstore\n  dup1\n  0x1f\n  lt\n  tag_30\n  jumpi\n  pop\n  jump(tag_29)\ntag_30:\n  0x1f\n  add\n  0x20\n  swap1\n  div\n  swap1\n  0x00\n  mstore\n  keccak256(0x00, 0x20)\n  swap1\n  dup2\n  add\n  swap1\n  tag_31\n  swap2\n  swap1\n  tag_32\n  jump\t// in\ntag_31:\ntag_29:\n  pop\n  jump\t// out\ntag_32:\ntag_33:\n  dup1\n  dup3\n  gt\n  iszero\n  tag_34\n  jumpi\n  0x00\n  dup2\n  0x00\n  swap1\n  sstore\n  pop\n  0x01\n  add\n  jump(tag_33)\ntag_34:\n  pop\n  swap1\n  jump\t// out\n    /* \"#utility.yul\":7:187   */\ntag_11:\n    /* \"#utility.yul\":55:132   */\n  0x4e487b7100000000000000000000000000000000000000000000000000000000\n    /* \"#utility.yul\":52:53   */\n  0x00\n    /* \"#utility.yul\":45:133   */\n  mstore\n    /* \"#utility.yul\":152:156   */\n  0x32\n    /* \"#utility.yul\":149:150   */\n  0x04\n    /* \"#utility.yul\":142:157   */\n  mstore\n    /* \"#utility.yul\":176:180   */\n  0x24\n    /* \"#utility.yul\":173:174   */\n  0x00\n    /* \"#utility.yul\":166:181   */\n  revert\n    /* \"#utility.yul\":193:373   */\ntag_35:\n    /* \"#utility.yul\":241:318   */\n  0x4e487b7100000000000000000000000000000000000000000000000000000000\n    /* \"#utility.yul\":238:239   */\n  0x00\n    /* \"#utility.yul\":231:319   */\n  mstore\n    /* \"#utility.yul\":338:342   */\n  0x22\n    /* \"#utility.yul\":335:336   */\n  0x04\n    /* \"#utility.yul\":328:343   */\n  mstore\n    /* \"#utility.yul\":362:366   */\n  0x24\n    /* \"#utility.yul\":359:360   */\n  0x00\n    /* \"#utility.yul\":352:367   */\n  revert\n    /* \"#utility.yul\":379:699   */\ntag_28:\n    /* \"#utility.yul\":423:429   */\n  0x00\n    /* \"#utility.yul\":460:461   */\n  0x02\n    /* \"#utility.yul\":454:458   */\n  dup3\n    /* \"#utility.yul\":450:462   */\n  div\n    /* \"#utility.yul\":440:462   */\n  swap1\n  pop\n    /* \"#utility.yul\":507:508   */\n  0x01\n    /* \"#utility.yul\":501:505   */\n  dup3\n    /* \"#utility.yul\":497:509   */\n  and\n    /* \"#utility.yul\":528:546   */\n  dup1\n    /* \"#utility.yul\":518:599   */\n  tag_60\n  jumpi\n    /* \"#utility.yul\":584:588   */\n  0x7f\n    /* \"#utility.yul\":576:582   */\n  dup3\n    /* \"#utility.yul\":572:589   */\n  and\n    /* \"#utility.yul\":562:589   */\n  swap2\n  pop\n    /* \"#utility.yul\":518:599   */\ntag_60:\n    /* \"#utility.yul\":646:648   */\n  0x20\n    /* \"#utility.yul\":638:644   */\n  dup3\n    /* \"#utility.yul\":635:649   */\n  lt\n    /* \"#utility.yul\":615:633   */\n  dup2\n    /* \"#utility.yul\":612:650   */\n  sub\n    /* \"#utility.yul\":609:693   */\n  tag_61\n  jumpi\n    /* \"#utility.yul\":665:683   */\n  tag_62\n  tag_35\n  jump\t// in\ntag_62:\n    /* \"#utility.yul\":609:693   */\ntag_61:\n    /* \"#utility.yul\":430:699   */\n  pop\n    /* \"#utility.yul\":379:699   */\n  swap2\n  swap1\n  pop\n  jump\t// out\n    /* \"#utility.yul\":705:853   */\ntag_36:\n    /* \"#utility.yul\":807:818   */\n  0x00\n    /* \"#utility.yul\":844:847   */\n  dup2\n    /* \"#utility.yul\":829:847   */\n  swap1\n  pop\n    /* \"#utility.yul\":705:853   */\n  swap3\n  swap2\n  pop\n  pop\n  jump\t// out\n    /* \"#utility.yul\":859:1000   */\ntag_37:\n    /* \"#utility.yul\":908:912   */\n  0x00\n    /* \"#utility.yul\":931:934   */\n  dup2\n    /* \"#utility.yul\":923:934   */\n  swap1\n  pop\n    /* \"#utility.yul\":954:957   */\n  dup2\n    /* \"#utility.yul\":951:952   */\n  0x00\n    /* \"#utility.yul\":944:958   */\n  mstore\n    /* \"#utility.yul\":988:992   */\n  0x20\n    /* \"#utility.yul\":985:986   */\n  0x00\n    /* \"#utility.yul\":975:993   */\n  keccak256\n    /* \"#utility.yul\":967:993   */\n  swap1\n  pop\n    /* \"#utility.yul\":859:1000   */\n  swap2\n  swap1\n  pop\n  jump\t// out\n    /* \"#utility.yul\":1030:1904   */\ntag_38:\n    /* \"#utility.yul\":1133:1136   */\n  0x00\n    /* \"#utility.yul\":1170:1175   */\n  dup2\n    /* \"#utility.yul\":1164:1176   */\n  sload\n    /* \"#utility.yul\":1199:1235   */\n  tag_66\n    /* \"#utility.yul\":1225:1234   */\n  dup2\n    /* \"#utility.yul\":1199:1235   */\n  tag_28\n  jump\t// in\ntag_66:\n    /* \"#utility.yul\":1251:1340   */\n  tag_67\n    /* \"#utility.yul\":1333:1339   */\n  dup2\n    /* \"#utility.yul\":1328:1331   */\n  dup7\n    /* \"#utility.yul\":1251:1340   */\n  tag_36\n  jump\t// in\ntag_67:\n    /* \"#utility.yul\":1244:1340   */\n  swap5\n  pop\n    /* \"#utility.yul\":1371:1372   */\n  0x01\n    /* \"#utility.yul\":1360:1369   */\n  dup3\n    /* \"#utility.yul\":1356:1373   */\n  and\n    /* \"#utility.yul\":1387:1388   */\n  0x00\n    /* \"#utility.yul\":1382:1548   */\n  dup2\n  eq\n  tag_69\n  jumpi\n    /* \"#utility.yul\":1562:1563   */\n  0x01\n    /* \"#utility.yul\":1557:1898   */\n  dup2\n  eq\n  tag_70\n  jumpi\n    /* \"#utility.yul\":1349:1898   */\n  jump(tag_68)\n    /* \"#utility.yul\":1382:1548   */\ntag_69:\n    /* \"#utility.yul\":1466:1470   */\n  0xff\n    /* \"#utility.yul\":1462:1471   */\n  not\n    /* \"#utility.yul\":1451:1460   */\n  dup4\n    /* \"#utility.yul\":1447:1472   */\n  and\n    /* \"#utility.yul\":1442:1445   */\n  dup7\n    /* \"#utility.yul\":1435:1473   */\n  mstore\n    /* \"#utility.yul\":1528:1534   */\n  dup2\n    /* \"#utility.yul\":1521:1535   */\n  iszero\n    /* \"#utility.yul\":1514:1536   */\n  iszero\n    /* \"#utility.yul\":1506:1512   */\n  dup3\n    /* \"#utility.yul\":1502:1537   */\n  mul\n    /* \"#utility.yul\":1497:1500   */\n  dup7\n    /* \"#utility.yul\":1493:1538   */\n  add\n    /* \"#utility.yul\":1486:1538   */\n  swap4\n  pop\n    /* \"#utility.yul\":1382:1548   */\n  jump(tag_68)\n    /* \"#utility.yul\":1557:1898   */\ntag_70:\n    /* \"#utility.yul\":1624:1662   */\n  tag_71\n    /* \"#utility.yul\":1656:1661   */\n  dup6\n    /* \"#utility.yul\":1624:1662   */\n  tag_37\n  jump\t// in\ntag_71:\n    /* \"#utility.yul\":1684:1685   */\n  0x00\n    /* \"#utility.yul\":1698:1852   */\ntag_72:\n    /* \"#utility.yul\":1712:1718   */\n  dup4\n    /* \"#utility.yul\":1709:1710   */\n  dup2\n    /* \"#utility.yul\":1706:1719   */\n  lt\n    /* \"#utility.yul\":1698:1852   */\n  iszero\n  tag_74\n  jumpi\n    /* \"#utility.yul\":1786:1793   */\n  dup2\n    /* \"#utility.yul\":1780:1794   */\n  sload\n    /* \"#utility.yul\":1776:1777   */\n  dup2\n    /* \"#utility.yul\":1771:1774   */\n  dup10\n    /* \"#utility.yul\":1767:1778   */\n  add\n    /* \"#utility.yul\":1760:1795   */\n  mstore\n    /* \"#utility.yul\":1836:1837   */\n  0x01\n    /* \"#utility.yul\":1827:1834   */\n  dup3\n    /* \"#utility.yul\":1823:1838   */\n  add\n    /* \"#utility.yul\":1812:1838   */\n  swap2\n  pop\n    /* \"#utility.yul\":1734:1738   */\n  0x20\n    /* \"#utility.yul\":1731:1732   */\n  dup2\n    /* \"#utility.yul\":1727:1739   */\n  add\n    /* \"#utility.yul\":1722:1739   */\n  swap1\n  pop\n    /* \"#utility.yul\":1698:1852   */\n  jump(tag_72)\ntag_74:\n    /* \"#utility.yul\":1881:1887   */\n  dup4\n    /* \"#utility.yul\":1876:1879   */\n  dup9\n    /* \"#utility.yul\":1872:1888   */\n  add\n    /* \"#utility.yul\":1865:1888   */\n  swap6\n  pop\n    /* \"#utility.yul\":1564:1898   */\n  pop\n  pop\n    /* \"#utility.yul\":1349:1898   */\ntag_68:\n  pop\n    /* \"#utility.yul\":1137:1904   */\n  pop\n  pop\n    /* \"#utility.yul\":1030:1904   */\n  swap3\n  swap2\n  pop\n  pop\n  jump\t// out\n    /* \"#utility.yul\":1910:2179   */\ntag_14:\n    /* \"#utility.yul\":2039:2042   */\n  0x00\n    /* \"#utility.yul\":2061:2153   */\n  tag_76\n    /* \"#utility.yul\":2149:2152   */\n  dup3\n    /* \"#utility.yul\":2140:2146   */\n  dup5\n    /* \"#utility.yul\":2061:2153   */\n  tag_38\n  jump\t// in\ntag_76:\n    /* \"#utility.yul\":2054:2153   */\n  swap2\n  pop\n    /* \"#utility.yul\":2170:2173   */\n  dup2\n    /* \"#utility.yul\":2163:2173   */\n  swap1\n  pop\n    /* \"#utility.yul\":1910:2179   */\n  swap3\n  swap2\n  pop\n  pop\n  jump\t// out\n    /* \"#utility.yul\":2185:2284   */\ntag_39:\n    /* \"#utility.yul\":2237:2243   */\n  0x00\n    /* \"#utility.yul\":2271:2276   */\n  dup2\n    /* \"#utility.yul\":2265:2277   */\n  mload\n    /* \"#utility.yul\":2255:2277   */\n  swap1\n  pop\n    /* \"#utility.yul\":2185:2284   */\n  swap2\n  swap1\n  pop\n  jump\t// out\n    /* \"#utility.yul\":2290:2470   */\ntag_40:\n    /* \"#utility.yul\":2338:2415   */\n  0x4e487b7100000000000000000000000000000000000000000000000000000000\n    /* \"#utility.yul\":2335:2336   */\n  0x00\n    /* \"#utility.yul\":2328:2416   */\n  mstore\n    /* \"#utility.yul\":2435:2439   */\n  0x41\n    /* \"#utility.yul\":2432:2433   */\n  0x04\n    /* \"#utility.yul\":2425:2440   */\n  mstore\n    /* \"#utility.yul\":2459:2463   */\n  0x24\n    /* \"#utility.yul\":2456:2457   */\n  0x00\n    /* \"#utility.yul\":2449:2464   */\n  revert\n    /* \"#utility.yul\":2476:2569   */\ntag_41:\n    /* \"#utility.yul\":2513:2519   */\n  0x00\n    /* \"#utility.yul\":2560:2562   */\n  0x20\n    /* \"#utility.yul\":2555:2557   */\n  0x1f\n    /* \"#utility.yul\":2548:2553   */\n  dup4\n    /* \"#utility.yul\":2544:2558   */\n  add\n    /* \"#utility.yul\":2540:2563   */\n  div\n    /* \"#utility.yul\":2530:2563   */\n  swap1\n  pop\n    /* \"#utility.yul\":2476:2569   */\n  swap2\n  swap1\n  pop\n  jump\t// out\n    /* \"#utility.yul\":2575:2682   */\ntag_42:\n    /* \"#utility.yul\":2619:2627   */\n  0x00\n    /* \"#utility.yul\":2669:2674   */\n  dup3\n    /* \"#utility.yul\":2663:2667   */\n  dup3\n    /* \"#utility.yul\":2659:2675   */\n  shl\n    /* \"#utility.yul\":2638:2675   */\n  swap1\n  pop\n    /* \"#utility.yul\":2575:2682   */\n  swap3\n  swap2\n  pop\n  pop\n  jump\t// out\n    /* \"#utility.yul\":2688:3081   */\ntag_43:\n    /* \"#utility.yul\":2757:2763   */\n  0x00\n    /* \"#utility.yul\":2807:2808   */\n  0x08\n    /* \"#utility.yul\":2795:2805   */\n  dup4\n    /* \"#utility.yul\":2791:2809   */\n  mul\n    /* \"#utility.yul\":2830:2927   */\n  tag_82\n    /* \"#utility.yul\":2860:2926   */\n  0xffffffffffffffffffffffffffffffffffffffffffffffffffffffffffffffff\n    /* \"#utility.yul\":2849:2858   */\n  dup3\n    /* \"#utility.yul\":2830:2927   */\n  tag_42\n  jump\t// in\ntag_82:\n    /* \"#utility.yul\":2948:2987   */\n  tag_83\n    /* \"#utility.yul\":2978:2986   */\n  dup7\n    /* \"#utility.yul\":2967:2976   */\n  dup4\n    /* \"#utility.yul\":2948:2987   */\n  tag_42\n  jump\t// in\ntag_83:\n    /* \"#utility.yul\":2936:2987   */\n  swap6\n  pop\n    /* \"#utility.yul\":3020:3024   */\n  dup1\n    /* \"#utility.yul\":3016:3025   */\n  not\n    /* \"#utility.yul\":3009:3014   */\n  dup5\n    /* \"#utility.yul\":3005:3026   */\n  and\n    /* \"#utility.yul\":2996:3026   */\n  swap4\n  pop\n    /* \"#utility.yul\":3069:3073   */\n  dup1\n    /* \"#utility.yul\":3059:3067   */\n  dup7\n    /* \"#utility.yul\":3055:3074   */\n  and\n    /* \"#utility.yul\":3048:3053   */\n  dup5\n    /* \"#utility.yul\":3045:3075   */\n  or\n    /* \"#utility.yul\":3035:3075   */\n  swap3\n  pop\n    /* \"#utility.yul\":2764:3081   */\n  pop\n  pop\n    /* \"#utility.yul\":2688:3081   */\n  swap4\n  swap3\n  pop\n  pop\n  pop\n  jump\t// out\n    /* \"#utility.yul\":3087:3164   */\ntag_44:\n    /* \"#utility.yul\":3124:3131   */\n  0x00\n    /* \"#utility.yul\":3153:3158   */\n  dup2\n    /* \"#utility.yul\":3142:3158   */\n  swap1\n  pop\n    /* \"#utility.yul\":3087:3164   */\n  swap2\n  swap1\n  pop\n  jump\t// out\n    /* \"#utility.yul\":3170:3230   */\ntag_45:\n    /* \"#utility.yul\":3198:3201   */\n  0x00\n    /* \"#utility.yul\":3219:3224   */\n  dup2\n    /* \"#utility.yul\":3212:3224   */\n  swap1\n  pop\n    /* \"#utility.yul\":3170:3230   */\n  swap2\n  swap1\n  pop\n  jump\t// out\n    /* \"#utility.yul\":3236:3378   */\ntag_46:\n    /* \"#utility.yul\":3286:3295   */\n  0x00\n    /* \"#utility.yul\":3319:3372   */\n  tag_87\n    /* \"#utility.yul\":3337:3371   */\n  tag_88\n    /* \"#utility.yul\":3346:3370   */\n  tag_89\n    /* \"#utility.yul\":3364:3369   */\n  dup5\n    /* \"#utility.yul\":3346:3370   */\n  tag_44\n  jump\t// in\ntag_89:\n    /* \"#utility.yul\":3337:3371   */\n  tag_45\n  jump\t// in\ntag_88:\n    /* \"#utility.yul\":3319:3372   */\n  tag_44\n  jump\t// in\ntag_87:\n    /* \"#utility.yul\":3306:3372   */\n  swap1\n  pop\n    /* \"#utility.yul\":3236:3378   */\n  swap2\n  swap1\n  pop\n  jump\t// out\n    /* \"#utility.yul\":3384:3459   */\ntag_47:\n    /* \"#utility.yul\":3427:3430   */\n  0x00\n    /* \"#utility.yul\":3448:3453   */\n  dup2\n    /* \"#utility.yul\":3441:3453   */\n  swap1\n  pop\n    /* \"#utility.yul\":3384:3459   */\n  swap2\n  swap1\n  pop\n  jump\t// out\n    /* \"#utility.yul\":3465:3734   */\ntag_48:\n    /* \"#utility.yul\":3575:3614   */\n  tag_92\n    /* \"#utility.yul\":3606:3613   */\n  dup4\n    /* \"#utility.yul\":3575:3614   */\n  tag_46\n  jump\t// in\ntag_92:\n    /* \"#utility.yul\":3636:3727   */\n  tag_93\n    /* \"#utility.yul\":3685:3726   */\n  tag_94\n    /* \"#utility.yul\":3709:3725   */\n  dup3\n    /* \"#utility.yul\":3685:3726   */\n  tag_47\n  jump\t// in\ntag_94:\n    /* \"#utility.yul\":3677:3683   */\n  dup5\n    /* \"#utility.yul\":3670:3674   */\n  dup5\n    /* \"#utility.yul\":3664:3675   */\n  sload\n    /* \"#utility.yul\":3636:3727   */\n  tag_43\n  jump\t// in\ntag_93:\n    /* \"#utility.yul\":3630:3634   */\n  dup3\n    /* \"#utility.yul\":3623:3728   */\n  sstore\n    /* \"#utility.yul\":3541:3734   */\n  pop\n    /* \"#utility.yul\":3465:3734   */\n  pop\n  pop\n  pop\n  jump\t// out\n    /* \"#utility.yul\":3740:3813   */\ntag_49:\n    /* \"#utility.yul\":3785:3788   */\n  0x00\n    /* \"#utility.yul\":3740:3813   */\n  swap1\n  jump\t// out\n    /* \"#utility.yul\":3819:4008   */\ntag_50:\n    /* \"#utility.yul\":3896:3928   */\n  tag_97\n  tag_49\n  jump\t// in\ntag_97:\n    /* \"#utility.yul\":3937:4002   */\n  tag_98\n    /* \"#utility.yul\":3995:4001   */\n  dup2\n    /* \"#utility.yul\":3987:3993   */\n  dup5\n    /* \"#utility.yul\":3981:3985   */\n  dup5\n    /* \"#utility.yul\":3937:4002   */\n  tag_48\n  jump\t// in\ntag_98:\n    /* \"#utility.yul\":3872:4008   */\n  pop\n    /* \"#utility.yul\":3819:4008   */\n  pop\n  pop\n  jump\t// out\n    /* \"#utility.yul\":4014:4200   */\ntag_51:\n    /* \"#utility.yul\":4074:4194   */\ntag_100:\n    /* \"#utility.yul\":4091:4094   */\n  dup2\n    /* \"#utility.yul\":4084:4089   */\n  dup2\n    /* \"#utility.yul\":4081:4095   */\n  lt\n    /* \"#utility.yul\":4074:4194   */\n  iszero\n  tag_102\n  jumpi\n    /* \"#utility.yul\":4145:4184   */\n  tag_103\n    /* \"#utility.yul\":4182:4183   */\n  0x00\n    /* \"#utility.yul\":4175:4180   */\n  dup3\n    /* \"#utility.yul\":4145:4184   */\n  tag_50\n  jump\t// in\ntag_103:\n    /* \"#utility.yul\":4118:4119   */\n  0x01\n    /* \"#utility.yul\":4111:4116   */\n  dup2\n    /* \"#utility.yul\":4107:4120   */\n  add\n    /* \"#utility.yul\":4098:4120   */\n  swap1\n  pop\n    /* \"#utility.yul\":4074:4194   */\n  jump(tag_100)\ntag_102:\n    /* \"#utility.yul\":4014:4200   */\n  pop\n  pop\n  jump\t// out\n    /* \"#utility.yul\":4206:4749   */\ntag_52:\n    /* \"#utility.yul\":4307:4309   */\n  0x1f\n    /* \"#utility.yul\":4302:4305   */\n  dup3\n    /* \"#utility.yul\":4299:4310   */\n  gt\n    /* \"#utility.yul\":4296:4742   */\n  iszero\n  tag_105\n  jumpi\n    /* \"#utility.yul\":4341:4379   */\n  tag_106\n    /* \"#utility.yul\":4373:4378   */\n  dup2\n    /* \"#utility.yul\":4341:4379   */\n  tag_37\n  jump\t// in\ntag_106:\n    /* \"#utility.yul\":4425:4454   */\n  tag_107\n    /* \"#utility.yul\":4443:4453   */\n  dup5\n    /* \"#utility.yul\":4425:4454   */\n  tag_41\n  jump\t// in\ntag_107:\n    /* \"#utility.yul\":4415:4423   */\n  dup2\n    /* \"#utility.yul\":4411:4455   */\n  add\n    /* \"#utility.yul\":4608:4610   */\n  0x20\n    /* \"#utility.yul\":4596:4606   */\n  dup6\n    /* \"#utility.yul\":4593:4611   */\n  lt\n    /* \"#utility.yul\":4590:4639   */\n  iszero\n  tag_108\n  jumpi\n    /* \"#utility.yul\":4629:4637   */\n  dup2\n    /* \"#utility.yul\":4614:4637   */\n  swap1\n  pop\n    /* \"#utility.yul\":4590:4639   */\ntag_108:\n    /* \"#utility.yul\":4652:4732   */\n  tag_109\n    /* \"#utility.yul\":4708:4730   */\n  tag_110\n    /* \"#utility.yul\":4726:4729   */\n  dup6\n    /* \"#utility.yul\":4708:4730   */\n  tag_41\n  jump\t// in\ntag_110:\n    /* \"#utility.yul\":4698:4706   */\n  dup4\n    /* \"#utility.yul\":4694:4731   */\n  add\n    /* \"#utility.yul\":4681:4692   */\n  dup3\n    /* \"#utility.yul\":4652:4732   */\n  tag_51\n  jump\t// in\ntag_109:\n    /* \"#utility.yul\":4311:4742   */\n  pop\n  pop\n    /* \"#utility.yul\":4296:4742   */\ntag_105:\n    /* \"#utility.yul\":4206:4749   */\n  pop\n  pop\n  pop\n  jump\t// out\n    /* \"#utility.yul\":4755:4872   */\ntag_53:\n    /* \"#utility.yul\":4809:4817   */\n  0x00\n    /* \"#utility.yul\":4859:4864   */\n  dup3\n    /* \"#utility.yul\":4853:4857   */\n  dup3\n    /* \"#utility.yul\":4849:4865   */\n  shr\n    /* \"#utility.yul\":4828:4865   */\n  swap1\n  pop\n    /* \"#utility.yul\":4755:4872   */\n  swap3\n  swap2\n  pop\n  pop\n  jump\t// out\n    /* \"#utility.yul\":4878:5047   */\ntag_54:\n    /* \"#utility.yul\":4922:4928   */\n  0x00\n    /* \"#utility.yul\":4955:5006   */\n  tag_113\n    /* \"#utility.yul\":5003:5004   */\n  0x00\n    /* \"#utility.yul\":4999:5005   */\n  not\n    /* \"#utility.yul\":4991:4996   */\n  dup5\n    /* \"#utility.yul\":4988:4989   */\n  0x08\n    /* \"#utility.yul\":4984:4997   */\n  mul\n    /* \"#utility.yul\":4955:5006   */\n  tag_53\n  jump\t// in\ntag_113:\n    /* \"#utility.yul\":4951:5007   */\n  not\n    /* \"#utility.yul\":5036:5040   */\n  dup1\n    /* \"#utility.yul\":5030:5034   */\n  dup4\n    /* \"#utility.yul\":5026:5041   */\n  and\n    /* \"#utility.yul\":5016:5041   */\n  swap2\n  pop\n    /* \"#utility.yul\":4929:5047   */\n  pop\n    /* \"#utility.yul\":4878:5047   */\n  swap3\n  swap2\n  pop\n  pop\n  jump\t// out\n    /* \"#utility.yul\":5052:5347   */\ntag_55:\n    /* \"#utility.yul\":5128:5132   */\n  0x00\n    /* \"#utility.yul\":5274:5303   */\n  tag_115\n    /* \"#utility.yul\":5299:5302   */\n  dup4\n    /* \"#utility.yul\":5293:5297   */\n  dup4\n    /* \"#utility.yul\":5274:5303   */\n  tag_54\n  jump\t// in\ntag_115:\n    /* \"#utility.yul\":5266:5303   */\n  swap2\n  pop\n    /* \"#utility.yul\":5336:5339   */\n  dup3\n    /* \"#utility.yul\":5333:5334   */\n  0x02\n    /* \"#utility.yul\":5329:5340   */\n  mul\n    /* \"#utility.yul\":5323:5327   */\n  dup3\n    /* \"#utility.yul\":5320:5341   */\n  or\n    /* \"#utility.yul\":5312:5341   */\n  swap1\n  pop\n    /* \"#utility.yul\":5052:5347   */\n  swap3\n  swap2\n  pop\n  pop\n  jump\t// out\n    /* \"#utility.yul\":5352:6747   */\ntag_20:\n    /* \"#utility.yul\":5469:5506   */\n  tag_117\n    /* \"#utility.yul\":5502:5505   */\n  dup3\n    /* \"#utility.yul\":5469:5506   */\n  tag_39\n  jump\t// in\ntag_117:\n    /* \"#utility.yul\":5571:5589   */\n  0xffffffffffffffff\n    /* \"#utility.yul\":5563:5569   */\n  dup2\n    /* \"#utility.yul\":5560:5590   */\n  gt\n    /* \"#utility.yul\":5557:5613   */\n  iszero\n  tag_118\n  jumpi\n    /* \"#utility.yul\":5593:5611   */\n  tag_119\n  tag_40\n  jump\t// in\ntag_119:\n    /* \"#utility.yul\":5557:5613   */\ntag_118:\n    /* \"#utility.yul\":5637:5675   */\n  tag_120\n    /* \"#utility.yul\":5669:5673   */\n  dup3\n    /* \"#utility.yul\":5663:5674   */\n  sload\n    /* \"#utility.yul\":5637:5675   */\n  tag_28\n  jump\t// in\ntag_120:\n    /* \"#utility.yul\":5722:5789   */\n  tag_121\n    /* \"#utility.yul\":5782:5788   */\n  dup3\n    /* \"#utility.yul\":5774:5780   */\n  dup3\n    /* \"#utility.yul\":5768:5772   */\n  dup6\n    /* \"#utility.yul\":5722:5789   */\n  tag_52\n  jump\t// in\ntag_121:\n    /* \"#utility.yul\":5816:5817   */\n  0x00\n    /* \"#utility.yul\":5840:5844   */\n  0x20\n    /* \"#utility.yul\":5827:5844   */\n  swap1\n  pop\n    /* \"#utility.yul\":5872:5874   */\n  0x1f\n    /* \"#utility.yul\":5864:5870   */\n  dup4\n    /* \"#utility.yul\":5861:5875   */\n  gt\n    /* \"#utility.yul\":5889:5890   */\n  0x01\n    /* \"#utility.yul\":5884:6502   */\n  dup2\n  eq\n  tag_123\n  jumpi\n    /* \"#utility.yul\":6546:6547   */\n  0x00\n    /* \"#utility.yul\":6563:6569   */\n  dup5\n    /* \"#utility.yul\":6560:6637   */\n  iszero\n  tag_124\n  jumpi\n    /* \"#utility.yul\":6612:6621   */\n  dup3\n    /* \"#utility.yul\":6607:6610   */\n  dup8\n    /* \"#utility.yul\":6603:6622   */\n  add\n    /* \"#utility.yul\":6597:6623   */\n  mload\n    /* \"#utility.yul\":6588:6623   */\n  swap1\n  pop\n    /* \"#utility.yul\":6560:6637   */\ntag_124:\n    /* \"#utility.yul\":6663:6730   */\n  tag_125\n    /* \"#utility.yul\":6723:6729   */\n  dup6\n    /* \"#utility.yul\":6716:6721   */\n  dup3\n    /* \"#utility.yul\":6663:6730   */\n  tag_55\n  jump\t// in\ntag_125:\n    /* \"#utility.yul\":6657:6661   */\n  dup7\n    /* \"#utility.yul\":6650:6731   */\n  sstore\n    /* \"#utility.yul\":6519:6741   */\n  pop\n    /* \"#utility.yul\":5854:6741   */\n  jump(tag_122)\n    /* \"#utility.yul\":5884:6502   */\ntag_123:\n    /* \"#utility.yul\":5936:5940   */\n  0x1f\n    /* \"#utility.yul\":5932:5941   */\n  not\n    /* \"#utility.yul\":5924:5930   */\n  dup5\n    /* \"#utility.yul\":5920:5942   */\n  and\n    /* \"#utility.yul\":5970:6007   */\n  tag_126\n    /* \"#utility.yul\":6002:6006   */\n  dup7\n    /* \"#utility.yul\":5970:6007   */\n  tag_37\n  jump\t// in\ntag_126:\n    /* \"#utility.yul\":6029:6030   */\n  0x00\n    /* \"#utility.yul\":6043:6251   */\ntag_127:\n    /* \"#utility.yul\":6057:6064   */\n  dup3\n    /* \"#utility.yul\":6054:6055   */\n  dup2\n    /* \"#utility.yul\":6051:6065   */\n  lt\n    /* \"#utility.yul\":6043:6251   */\n  iszero\n  tag_129\n  jumpi\n    /* \"#utility.yul\":6136:6145   */\n  dup5\n    /* \"#utility.yul\":6131:6134   */\n  dup10\n    /* \"#utility.yul\":6127:6146   */\n  add\n    /* \"#utility.yul\":6121:6147   */\n  mload\n    /* \"#utility.yul\":6113:6119   */\n  dup3\n    /* \"#utility.yul\":6106:6148   */\n  sstore\n    /* \"#utility.yul\":6187:6188   */\n  0x01\n    /* \"#utility.yul\":6179:6185   */\n  dup3\n    /* \"#utility.yul\":6175:6189   */\n  add\n    /* \"#utility.yul\":6165:6189   */\n  swap2\n  pop\n    /* \"#utility.yul\":6234:6236   */\n  0x20\n    /* \"#utility.yul\":6223:6232   */\n  dup6\n    /* \"#utility.yul\":6219:6237   */\n  add\n    /* \"#utility.yul\":6206:6237   */\n  swap5\n  pop\n    /* \"#utility.yul\":6080:6084   */\n  0x20\n    /* \"#utility.yul\":6077:6078   */\n  dup2\n    /* \"#utility.yul\":6073:6085   */\n  add\n    /* \"#utility.yul\":6068:6085   */\n  swap1\n  pop\n    /* \"#utility.yul\":6043:6251   */\n  jump(tag_127)\ntag_129:\n    /* \"#utility.yul\":6279:6285   */\n  dup7\n    /* \"#utility.yul\":6270:6277   */\n  dup4\n    /* \"#utility.yul\":6267:6286   */\n  lt\n    /* \"#utility.yul\":6264:6443   */\n  iszero\n  tag_130\n  jumpi\n    /* \"#utility.yul\":6337:6346   */\n  dup5\n    /* \"#utility.yul\":6332:6335   */\n  dup10\n    /* \"#utility.yul\":6328:6347   */\n  add\n    /* \"#utility.yul\":6322:6348   */\n  mload\n    /* \"#utility.yul\":6380:6428   */\n  tag_131\n    /* \"#utility.yul\":6422:6426   */\n  0x1f\n    /* \"#utility.yul\":6414:6420   */\n  dup10\n    /* \"#utility.yul\":6410:6427   */\n  and\n    /* \"#utility.yul\":6399:6408   */\n  dup3\n    /* \"#utility.yul\":6380:6428   */\n  tag_54\n  jump\t// in\ntag_131:\n    /* \"#utility.yul\":6372:6378   */\n  dup4\n    /* \"#utility.yul\":6365:6429   */\n  sstore\n    /* \"#utility.yul\":6287:6443   */\n  pop\n    /* \"#utility.yul\":6264:6443   */\ntag_130:\n    /* \"#utility.yul\":6489:6490   */\n  0x01\n    /* \"#utility.yul\":6485:6486   */\n  0x02\n    /* \"#utility.yul\":6477:6483   */\n  dup9\n    /* \"#utility.yul\":6473:6487   */\n  mul\n    /* \"#utility.yul\":6469:6491   */\n  add\n    /* \"#utility.yul\":6463:6467   */\n  dup9\n    /* \"#utility.yul\":6456:6492   */\n  sstore\n    /* \"#utility.yul\":5891:6502   */\n  pop\n  pop\n  pop\n    /* \"#utility.yul\":5854:6741   */\ntag_122:\n  pop\n    /* \"#utility.yul\":5444:6747   */\n  pop\n  pop\n  pop\n    /* \"#utility.yul\":5352:6747   */\n  pop\n  pop\n  jump\t// out\n    /* \"contrakts base/FavoriteRecords.sol\":185:3291  contract FavoriteRecords {... */\ntag_15:\n  dataSize(sub_0)\n  dup1\n  dataOffset(sub_0)\n  0x00\n  codecopy\n  0x00\n  return\nstop\n\nsub_0: assembly {\n        /* \"contrakts base/FavoriteRecords.sol\":185:3291  contract FavoriteRecords {... */\n      mstore(0x40, 0x80)\n      callvalue\n      dup1\n      iszero\n      tag_1\n      jumpi\n      0x00\n      dup1\n      revert\n    tag_1:\n      pop\n      jumpi(tag_2, lt(calldatasize, 0x04))\n      shr(0xe0, calldataload(0x00))\n      dup1\n      0x1cf0830b\n      eq\n      tag_3\n      jumpi\n      dup1\n      0x837f8878\n      eq\n      tag_4\n      jumpi\n      dup1\n      0xb374ac59\n      eq\n      tag_5\n      jumpi\n      dup1\n      0xc75c333c\n      eq\n      tag_6\n      jumpi\n      dup1\n      0xc7853148\n      eq\n      tag_7\n      jumpi\n      dup1\n      0xd81aa8c4\n      eq\n      tag_8\n      jumpi\n    tag_2:\n      0x00\n      dup1\n      revert\n        /* \"contrakts base/FavoriteRecords.sol\":2030:2136  function getApprovedRecords() public view returns (string[] memory) {... */\n    tag_3:\n      tag_9\n      tag_10\n      jump\t// in\n    tag_9:\n      mload(0x40)\n      tag_11\n      swap2\n      swap1\n      tag_12\n      jump\t// in\n    tag_11:\n      mload(0x40)\n      dup1\n      swap2\n      sub\n      swap1\n      return\n        /* \"contrakts base/FavoriteRecords.sol\":1701:1883  function resetUserFavorites() public {... */\n    tag_4:\n      tag_13\n      tag_14\n      jump\t// in\n    tag_13:\n      stop\n        /* \"contrakts base/FavoriteRecords.sol\":276:322  mapping(string => bool) public approvedRecords */\n    tag_5:\n      tag_15\n      0x04\n      dup1\n      calldatasize\n      sub\n      dup2\n      add\n      swap1\n      tag_16\n      swap2\n      swap1\n      tag_17\n      jump\t// in\n    tag_16:\n      tag_18\n      jump\t// in\n    tag_15:\n      mload(0x40)\n      tag_19\n      swap2\n      swap1\n      tag_20\n      jump\t// in\n    tag_19:\n      mload(0x40)\n      dup1\n      swap2\n      sub\n      swap1\n      return\n        /* \"contrakts base/FavoriteRecords.sol\":524:588  mapping(address => mapping(string => bool)) public userFavorites */\n    tag_6:\n      tag_21\n      0x04\n      dup1\n      calldatasize\n      sub\n      dup2\n      add\n      swap1\n      tag_22\n      swap2\n      swap1\n      tag_23\n      jump\t// in\n    tag_22:\n      tag_24\n      jump\t// in\n    tag_21:\n      mload(0x40)\n      tag_25\n      swap2\n      swap1\n      tag_20\n      jump\t// in\n    tag_25:\n      mload(0x40)\n      dup1\n      swap2\n      sub\n      swap1\n      return\n        /* \"contrakts base/FavoriteRecords.sol\":2338:3288  function getUserFavorites(address _user) public view returns (string[] memory) {... */\n    tag_7:\n      tag_26\n      0x04\n      dup1\n      calldatasize\n      sub\n      dup2\n      add\n      swap1\n      tag_27\n      swap2\n      swap1\n      tag_28\n      jump\t// in\n    tag_27:\n      tag_29\n      jump\t// in\n    tag_26:\n      mload(0x40)\n      tag_30\n      swap2\n      swap1\n      tag_12\n      jump\t// in\n    tag_30:\n      mload(0x40)\n      dup1\n      swap2\n      sub\n      swap1\n      return\n        /* \"contrakts base/FavoriteRecords.sol\":1391:1611  function addRecord(string memory _recordName) public {... */\n    tag_8:\n      tag_31\n      0x04\n      dup1\n      calldatasize\n      sub\n      dup2\n      add\n      swap1\n      tag_32\n      swap2\n      swap1\n      tag_17\n      jump\t// in\n    tag_32:\n      tag_33\n      jump\t// in\n    tag_31:\n      stop\n        /* \"contrakts base/FavoriteRecords.sol\":2030:2136  function getApprovedRecords() public view returns (string[] memory) {... */\n    tag_10:\n        /* \"contrakts base/FavoriteRecords.sol\":2081:2096  string[] memory */\n      0x60\n        /* \"contrakts base/FavoriteRecords.sol\":2116:2128  recordsNames */\n      0x01\n        /* \"contrakts base/FavoriteRecords.sol\":2109:2128  return recordsNames */\n      dup1\n      sload\n      dup1\n      0x20\n      mul\n      0x20\n      add\n      mload(0x40)\n      swap1\n      dup2\n      add\n      0x40\n      mstore\n      dup1\n      swap3\n      swap2\n      swap1\n      dup2\n      dup2\n      mstore\n      0x20\n      add\n      0x00\n      swap1\n    tag_35:\n      dup3\n      dup3\n      lt\n      iszero\n      tag_36\n      jumpi\n      dup4\n      dup3\n      swap1\n      0x00\n      mstore\n      keccak256(0x00, 0x20)\n      add\n      dup1\n      sload\n      tag_38\n      swap1\n      tag_39\n      jump\t// in\n    tag_38:\n      dup1\n      0x1f\n      add\n      0x20\n      dup1\n      swap2\n      div\n      mul\n      0x20\n      add\n      mload(0x40)\n      swap1\n      dup2\n      add\n      0x40\n      mstore\n      dup1\n      swap3\n      swap2\n      swap1\n      dup2\n      dup2\n      mstore\n      0x20\n      add\n      dup3\n      dup1\n      sload\n      tag_40\n      swap1\n      tag_39\n      jump\t// in\n    tag_40:\n      dup1\n      iszero\n      tag_41\n      jumpi\n      dup1\n      0x1f\n      lt\n      tag_42\n      jumpi\n      0x0100\n      dup1\n      dup4\n      sload\n      div\n      mul\n      dup4\n      mstore\n      swap2\n      0x20\n      add\n      swap2\n      jump(tag_41)\n    tag_42:\n      dup3\n      add\n      swap2\n      swap1\n      0x00\n      mstore\n      keccak256(0x00, 0x20)\n      swap1\n    tag_43:\n      dup2\n      sload\n      dup2\n      mstore\n      swap1\n      0x01\n      add\n      swap1\n      0x20\n      add\n      dup1\n      dup4\n      gt\n      tag_43\n      jumpi\n      dup3\n      swap1\n      sub\n      0x1f\n      and\n      dup3\n      add\n      swap2\n    tag_41:\n      pop\n      pop\n      pop\n      pop\n      pop\n      dup2\n      mstore\n      0x20\n      add\n      swap1\n      0x01\n      add\n      swap1\n      jump(tag_35)\n    tag_36:\n      pop\n      pop\n      pop\n      pop\n      swap1\n      pop\n        /* \"contrakts base/FavoriteRecords.sol\":2030:2136  function getApprovedRecords() public view returns (string[] memory) {... */\n      swap1\n      jump\t// out\n        /* \"contrakts base/FavoriteRecords.sol\":1701:1883  function resetUserFavorites() public {... */\n    tag_14:\n        /* \"contrakts base/FavoriteRecords.sol\":1754:1763  uint256 i */\n      0x00\n        /* \"contrakts base/FavoriteRecords.sol\":1749:1876  for (uint256 i = 0; i < recordsNames.length; i++) {... */\n    tag_45:\n        /* \"contrakts base/FavoriteRecords.sol\":1773:1785  recordsNames */\n      0x01\n        /* \"contrakts base/FavoriteRecords.sol\":1773:1792  recordsNames.length */\n      dup1\n      sload\n      swap1\n      pop\n        /* \"contrakts base/FavoriteRecords.sol\":1769:1770  i */\n      dup2\n        /* \"contrakts base/FavoriteRecords.sol\":1769:1792  i < recordsNames.length */\n      lt\n        /* \"contrakts base/FavoriteRecords.sol\":1749:1876  for (uint256 i = 0; i < recordsNames.length; i++) {... */\n      iszero\n      tag_46\n      jumpi\n        /* \"contrakts base/FavoriteRecords.sol\":1859:1864  false */\n      0x00\n        /* \"contrakts base/FavoriteRecords.sol\":1814:1827  userFavorites */\n      0x02\n        /* \"contrakts base/FavoriteRecords.sol\":1814:1839  userFavorites[msg.sender] */\n      0x00\n        /* \"contrakts base/FavoriteRecords.sol\":1828:1838  msg.sender */\n      caller\n        /* \"contrakts base/FavoriteRecords.sol\":1814:1839  userFavorites[msg.sender] */\n      0xffffffffffffffffffffffffffffffffffffffff\n      and\n      0xffffffffffffffffffffffffffffffffffffffff\n      and\n      dup2\n      mstore\n      0x20\n      add\n      swap1\n      dup2\n      mstore\n      0x20\n      add\n      0x00\n      keccak256\n        /* \"contrakts base/FavoriteRecords.sol\":1840:1852  recordsNames */\n      0x01\n        /* \"contrakts base/FavoriteRecords.sol\":1853:1854  i */\n      dup4\n        /* \"contrakts base/FavoriteRecords.sol\":1840:1855  recordsNames[i] */\n      dup2\n      sload\n      dup2\n      lt\n      tag_48\n      jumpi\n      tag_49\n      tag_50\n      jump\t// in\n    tag_49:\n    tag_48:\n      swap1\n      0x00\n      mstore\n      keccak256(0x00, 0x20)\n      add\n        /* \"contrakts base/FavoriteRecords.sol\":1814:1856  userFavorites[msg.sender][recordsNames[i]] */\n      mload(0x40)\n      tag_52\n      swap2\n      swap1\n      tag_53\n      jump\t// in\n    tag_52:\n      swap1\n      dup2\n      mstore\n      0x20\n      add\n      mload(0x40)\n      dup1\n      swap2\n      sub\n      swap1\n      keccak256\n      0x00\n        /* \"contrakts base/FavoriteRecords.sol\":1814:1864  userFavorites[msg.sender][recordsNames[i]] = false */\n      0x0100\n      exp\n      dup2\n      sload\n      dup2\n      0xff\n      mul\n      not\n      and\n      swap1\n      dup4\n      iszero\n      iszero\n      mul\n      or\n      swap1\n      sstore\n      pop\n        /* \"contrakts base/FavoriteRecords.sol\":1794:1797  i++ */\n      dup1\n      dup1\n      0x01\n      add\n      swap2\n      pop\n      pop\n        /* \"contrakts base/FavoriteRecords.sol\":1749:1876  for (uint256 i = 0; i < recordsNames.length; i++) {... */\n      jump(tag_45)\n    tag_46:\n      pop\n        /* \"contrakts base/FavoriteRecords.sol\":1701:1883  function resetUserFavorites() public {... */\n      jump\t// out\n        /* \"contrakts base/FavoriteRecords.sol\":276:322  mapping(string => bool) public approvedRecords */\n    tag_18:\n      0x00\n      dup2\n      dup1\n      mload\n      0x20\n      dup2\n      add\n      dup3\n      add\n      dup1\n      mload\n      dup5\n      dup3\n      mstore\n      0x20\n      dup4\n      add\n      0x20\n      dup6\n      add\n      keccak256\n      dup2\n      dup4\n      mstore\n      dup1\n      swap6\n      pop\n      pop\n      pop\n      pop\n      pop\n      pop\n      0x00\n      swap2\n      pop\n      sload\n      swap1\n      0x0100\n      exp\n      swap1\n      div\n      0xff\n      and\n      dup2\n      jump\t// out\n        /* \"contrakts base/FavoriteRecords.sol\":524:588  mapping(address => mapping(string => bool)) public userFavorites */\n    tag_24:\n      mstore(0x20, 0x02)\n      dup2\n      0x00\n      mstore\n      keccak256(0x00, 0x40)\n      dup2\n      dup1\n      mload\n      0x20\n      dup2\n      add\n      dup3\n      add\n      dup1\n      mload\n      dup5\n      dup3\n      mstore\n      0x20\n      dup4\n      add\n      0x20\n      dup6\n      add\n      keccak256\n      dup2\n      dup4\n      mstore\n      dup1\n      swap6\n      pop\n      pop\n      pop\n      pop\n      pop\n      pop\n      0x00\n      swap2\n      pop\n      swap2\n      pop\n      swap1\n      sload\n      swap1\n      0x0100\n      exp\n      swap1\n      div\n      0xff\n      and\n      dup2\n      jump\t// out\n        /* \"contrakts base/FavoriteRecords.sol\":2338:3288  function getUserFavorites(address _user) public view returns (string[] memory) {... */\n    tag_29:\n        /* \"contrakts base/FavoriteRecords.sol\":2400:2415  string[] memory */\n      0x60\n        /* \"contrakts base/FavoriteRecords.sol\":2497:2510  uint256 count */\n      0x00\n        /* \"contrakts base/FavoriteRecords.sol\":2526:2535  uint256 i */\n      dup1\n        /* \"contrakts base/FavoriteRecords.sol\":2538:2539  0 */\n      0x00\n        /* \"contrakts base/FavoriteRecords.sol\":2526:2539  uint256 i = 0 */\n      swap1\n      pop\n        /* \"contrakts base/FavoriteRecords.sol\":2521:2682  for (uint256 i = 0; i < recordsNames.length; i++) {... */\n    tag_55:\n        /* \"contrakts base/FavoriteRecords.sol\":2545:2557  recordsNames */\n      0x01\n        /* \"contrakts base/FavoriteRecords.sol\":2545:2564  recordsNames.length */\n      dup1\n      sload\n      swap1\n      pop\n        /* \"contrakts base/FavoriteRecords.sol\":2541:2542  i */\n      dup2\n        /* \"contrakts base/FavoriteRecords.sol\":2541:2564  i < recordsNames.length */\n      lt\n        /* \"contrakts base/FavoriteRecords.sol\":2521:2682  for (uint256 i = 0; i < recordsNames.length; i++) {... */\n      iszero\n      tag_56\n      jumpi\n        /* \"contrakts base/FavoriteRecords.sol\":2590:2603  userFavorites */\n      0x02\n        /* \"contrakts base/FavoriteRecords.sol\":2590:2610  userFavorites[_user] */\n      0x00\n        /* \"contrakts base/FavoriteRecords.sol\":2604:2609  _user */\n      dup6\n        /* \"contrakts base/FavoriteRecords.sol\":2590:2610  userFavorites[_user] */\n      0xffffffffffffffffffffffffffffffffffffffff\n      and\n      0xffffffffffffffffffffffffffffffffffffffff\n      and\n      dup2\n      mstore\n      0x20\n      add\n      swap1\n      dup2\n      mstore\n      0x20\n      add\n      0x00\n      keccak256\n        /* \"contrakts base/FavoriteRecords.sol\":2611:2623  recordsNames */\n      0x01\n        /* \"contrakts base/FavoriteRecords.sol\":2624:2625  i */\n      dup3\n        /* \"contrakts base/FavoriteRecords.sol\":2611:2626  recordsNames[i] */\n      dup2\n      sload\n      dup2\n      lt\n      tag_58\n      jumpi\n      tag_59\n      tag_50\n      jump\t// in\n    tag_59:\n    tag_58:\n      swap1\n      0x00\n      mstore\n      keccak256(0x00, 0x20)\n      add\n        /* \"contrakts base/FavoriteRecords.sol\":2590:2627  userFavorites[_user][recordsNames[i]] */\n      mload(0x40)\n      tag_61\n      swap2\n      swap1\n      tag_53\n      jump\t// in\n    tag_61:\n      swap1\n      dup2\n      mstore\n      0x20\n      add\n      mload(0x40)\n      dup1\n      swap2\n      sub\n      swap1\n      keccak256\n      0x00\n      swap1\n      sload\n      swap1\n      0x0100\n      exp\n      swap1\n      div\n      0xff\n      and\n        /* \"contrakts base/FavoriteRecords.sol\":2586:2671  if (userFavorites[_user][recordsNames[i]]) {... */\n      iszero\n      tag_62\n      jumpi\n        /* \"contrakts base/FavoriteRecords.sol\":2648:2655  count++ */\n      dup2\n      dup1\n      tag_63\n      swap1\n      tag_64\n      jump\t// in\n    tag_63:\n      swap3\n      pop\n      pop\n        /* \"contrakts base/FavoriteRecords.sol\":2586:2671  if (userFavorites[_user][recordsNames[i]]) {... */\n    tag_62:\n        /* \"contrakts base/FavoriteRecords.sol\":2566:2569  i++ */\n      dup1\n      dup1\n      0x01\n      add\n      swap2\n      pop\n      pop\n        /* \"contrakts base/FavoriteRecords.sol\":2521:2682  for (uint256 i = 0; i < recordsNames.length; i++) {... */\n      jump(tag_55)\n    tag_56:\n      pop\n        /* \"contrakts base/FavoriteRecords.sol\":2754:2788  string[] memory userFavoritesNames */\n      0x00\n        /* \"contrakts base/FavoriteRecords.sol\":2804:2809  count */\n      dup2\n        /* \"contrakts base/FavoriteRecords.sol\":2791:2810  new string[](count) */\n      0xffffffffffffffff\n      dup2\n      gt\n      iszero\n      tag_65\n      jumpi\n      tag_66\n      tag_67\n      jump\t// in\n    tag_66:\n    tag_65:\n      mload(0x40)\n      swap1\n      dup1\n      dup3\n      mstore\n      dup1\n      0x20\n      mul\n      0x20\n      add\n      dup3\n      add\n      0x40\n      mstore\n      dup1\n      iszero\n      tag_68\n      jumpi\n      dup2\n      0x20\n      add\n    tag_69:\n      0x60\n      dup2\n      mstore\n      0x20\n      add\n      swap1\n      0x01\n      swap1\n      sub\n      swap1\n      dup2\n      tag_69\n      jumpi\n      swap1\n      pop\n    tag_68:\n      pop\n        /* \"contrakts base/FavoriteRecords.sol\":2754:2810  string[] memory userFavoritesNames = new string[](count) */\n      swap1\n      pop\n        /* \"contrakts base/FavoriteRecords.sol\":2834:2835  0 */\n      0x00\n        /* \"contrakts base/FavoriteRecords.sol\":2825:2830  count */\n      dup3\n        /* \"contrakts base/FavoriteRecords.sol\":2825:2835  count != 0 */\n      eq\n        /* \"contrakts base/FavoriteRecords.sol\":2821:3243  if (count != 0) {... */\n      tag_70\n      jumpi\n        /* \"contrakts base/FavoriteRecords.sol\":2907:2938  uint256 userFavoritesNamesCount */\n      0x00\n        /* \"contrakts base/FavoriteRecords.sol\":2958:2967  uint256 i */\n      dup1\n        /* \"contrakts base/FavoriteRecords.sol\":2970:2971  0 */\n      0x00\n        /* \"contrakts base/FavoriteRecords.sol\":2958:2971  uint256 i = 0 */\n      swap1\n      pop\n        /* \"contrakts base/FavoriteRecords.sol\":2953:3232  for (uint256 i = 0; i < recordsNames.length; i++) {... */\n    tag_71:\n        /* \"contrakts base/FavoriteRecords.sol\":2977:2989  recordsNames */\n      0x01\n        /* \"contrakts base/FavoriteRecords.sol\":2977:2996  recordsNames.length */\n      dup1\n      sload\n      swap1\n      pop\n        /* \"contrakts base/FavoriteRecords.sol\":2973:2974  i */\n      dup2\n        /* \"contrakts base/FavoriteRecords.sol\":2973:2996  i < recordsNames.length */\n      lt\n        /* \"contrakts base/FavoriteRecords.sol\":2953:3232  for (uint256 i = 0; i < recordsNames.length; i++) {... */\n      iszero\n      tag_72\n      jumpi\n        /* \"contrakts base/FavoriteRecords.sol\":3026:3039  userFavorites */\n      0x02\n        /* \"contrakts base/FavoriteRecords.sol\":3026:3046  userFavorites[_user] */\n      0x00\n        /* \"contrakts base/FavoriteRecords.sol\":3040:3045  _user */\n      dup8\n        /* \"contrakts base/FavoriteRecords.sol\":3026:3046  userFavorites[_user] */\n      0xffffffffffffffffffffffffffffffffffffffff\n      and\n      0xffffffffffffffffffffffffffffffffffffffff\n      and\n      dup2\n      mstore\n      0x20\n      add\n      swap1\n      dup2\n      mstore\n      0x20\n      add\n      0x00\n      keccak256\n        /* \"contrakts base/FavoriteRecords.sol\":3047:3059  recordsNames */\n      0x01\n        /* \"contrakts base/FavoriteRecords.sol\":3060:3061  i */\n      dup3\n        /* \"contrakts base/FavoriteRecords.sol\":3047:3062  recordsNames[i] */\n      dup2\n      sload\n      dup2\n      lt\n      tag_74\n      jumpi\n      tag_75\n      tag_50\n      jump\t// in\n    tag_75:\n    tag_74:\n      swap1\n      0x00\n      mstore\n      keccak256(0x00, 0x20)\n      add\n        /* \"contrakts base/FavoriteRecords.sol\":3026:3063  userFavorites[_user][recordsNames[i]] */\n      mload(0x40)\n      tag_77\n      swap2\n      swap1\n      tag_53\n      jump\t// in\n    tag_77:\n      swap1\n      dup2\n      mstore\n      0x20\n      add\n      mload(0x40)\n      dup1\n      swap2\n      sub\n      swap1\n      keccak256\n      0x00\n      swap1\n      sload\n      swap1\n      0x0100\n      exp\n      swap1\n      div\n      0xff\n      and\n        /* \"contrakts base/FavoriteRecords.sol\":3022:3217  if (userFavorites[_user][recordsNames[i]]) {... */\n      iszero\n      tag_78\n      jumpi\n        /* \"contrakts base/FavoriteRecords.sol\":3134:3146  recordsNames */\n      0x01\n        /* \"contrakts base/FavoriteRecords.sol\":3147:3148  i */\n      dup2\n        /* \"contrakts base/FavoriteRecords.sol\":3134:3149  recordsNames[i] */\n      dup2\n      sload\n      dup2\n      lt\n      tag_79\n      jumpi\n      tag_80\n      tag_50\n      jump\t// in\n    tag_80:\n    tag_79:\n      swap1\n      0x00\n      mstore\n      keccak256(0x00, 0x20)\n      add\n        /* \"contrakts base/FavoriteRecords.sol\":3088:3149  userFavoritesNames[userFavoritesNamesCount] = recordsNames[i] */\n      dup1\n      sload\n      tag_82\n      swap1\n      tag_39\n      jump\t// in\n    tag_82:\n      dup1\n      0x1f\n      add\n      0x20\n      dup1\n      swap2\n      div\n      mul\n      0x20\n      add\n      mload(0x40)\n      swap1\n      dup2\n      add\n      0x40\n      mstore\n      dup1\n      swap3\n      swap2\n      swap1\n      dup2\n      dup2\n      mstore\n      0x20\n      add\n      dup3\n      dup1\n      sload\n      tag_83\n      swap1\n      tag_39\n      jump\t// in\n    tag_83:\n      dup1\n      iszero\n      tag_84\n      jumpi\n      dup1\n      0x1f\n      lt\n      tag_85\n      jumpi\n      0x0100\n      dup1\n      dup4\n      sload\n      div\n      mul\n      dup4\n      mstore\n      swap2\n      0x20\n      add\n      swap2\n      jump(tag_84)\n    tag_85:\n      dup3\n      add\n      swap2\n      swap1\n      0x00\n      mstore\n      keccak256(0x00, 0x20)\n      swap1\n    tag_86:\n      dup2\n      sload\n      dup2\n      mstore\n      swap1\n      0x01\n      add\n      swap1\n      0x20\n      add\n      dup1\n      dup4\n      gt\n      tag_86\n      jumpi\n      dup3\n      swap1\n      sub\n      0x1f\n      and\n      dup3\n      add\n      swap2\n    tag_84:\n      pop\n      pop\n      pop\n      pop\n      pop\n        /* \"contrakts base/FavoriteRecords.sol\":3088:3106  userFavoritesNames */\n      dup4\n        /* \"contrakts base/FavoriteRecords.sol\":3107:3130  userFavoritesNamesCount */\n      dup4\n        /* \"contrakts base/FavoriteRecords.sol\":3088:3131  userFavoritesNames[userFavoritesNamesCount] */\n      dup2\n      mload\n      dup2\n      lt\n      tag_87\n      jumpi\n      tag_88\n      tag_50\n      jump\t// in\n    tag_88:\n    tag_87:\n      0x20\n      mul\n      0x20\n      add\n      add\n        /* \"contrakts base/FavoriteRecords.sol\":3088:3149  userFavoritesNames[userFavoritesNamesCount] = recordsNames[i] */\n      dup2\n      swap1\n      mstore\n      pop\n        /* \"contrakts base/FavoriteRecords.sol\":3172:3197  userFavoritesNamesCount++ */\n      dup2\n      dup1\n      tag_89\n      swap1\n      tag_64\n      jump\t// in\n    tag_89:\n      swap3\n      pop\n      pop\n        /* \"contrakts base/FavoriteRecords.sol\":3022:3217  if (userFavorites[_user][recordsNames[i]]) {... */\n    tag_78:\n        /* \"contrakts base/FavoriteRecords.sol\":2998:3001  i++ */\n      dup1\n      dup1\n      0x01\n      add\n      swap2\n      pop\n      pop\n        /* \"contrakts base/FavoriteRecords.sol\":2953:3232  for (uint256 i = 0; i < recordsNames.length; i++) {... */\n      jump(tag_71)\n    tag_72:\n      pop\n        /* \"contrakts base/FavoriteRecords.sol\":2837:3243  {... */\n      pop\n        /* \"contrakts base/FavoriteRecords.sol\":2821:3243  if (count != 0) {... */\n    tag_70:\n        /* \"contrakts base/FavoriteRecords.sol\":3262:3280  userFavoritesNames */\n      dup1\n        /* \"contrakts base/FavoriteRecords.sol\":3255:3280  return userFavoritesNames */\n      swap3\n      pop\n      pop\n      pop\n        /* \"contrakts base/FavoriteRecords.sol\":2338:3288  function getUserFavorites(address _user) public view returns (string[] memory) {... */\n      swap2\n      swap1\n      pop\n      jump\t// out\n        /* \"contrakts base/FavoriteRecords.sol\":1391:1611  function addRecord(string memory _recordName) public {... */\n    tag_33:\n        /* \"contrakts base/FavoriteRecords.sol\":1460:1475  approvedRecords */\n      0x00\n        /* \"contrakts base/FavoriteRecords.sol\":1476:1487  _recordName */\n      dup2\n        /* \"contrakts base/FavoriteRecords.sol\":1460:1488  approvedRecords[_recordName] */\n      mload(0x40)\n      tag_91\n      swap2\n      swap1\n      tag_92\n      jump\t// in\n    tag_91:\n      swap1\n      dup2\n      mstore\n      0x20\n      add\n      mload(0x40)\n      dup1\n      swap2\n      sub\n      swap1\n      keccak256\n      0x00\n      swap1\n      sload\n      swap1\n      0x0100\n      exp\n      swap1\n      div\n      0xff\n      and\n        /* \"contrakts base/FavoriteRecords.sol\":1455:1548  if (!approvedRecords[_recordName]) {... */\n      tag_93\n      jumpi\n        /* \"contrakts base/FavoriteRecords.sol\":1524:1535  _recordName */\n      dup1\n        /* \"contrakts base/FavoriteRecords.sol\":1512:1536  NotApproved(_recordName) */\n      mload(0x40)\n      0x4f0ffc1b00000000000000000000000000000000000000000000000000000000\n      dup2\n      mstore\n      0x04\n      add\n      tag_94\n      swap2\n      swap1\n      tag_95\n      jump\t// in\n    tag_94:\n      mload(0x40)\n      dup1\n      swap2\n      sub\n      swap1\n      revert\n        /* \"contrakts base/FavoriteRecords.sol\":1455:1548  if (!approvedRecords[_recordName]) {... */\n    tag_93:\n        /* \"contrakts base/FavoriteRecords.sol\":1599:1603  true */\n      0x01\n        /* \"contrakts base/FavoriteRecords.sol\":1558:1571  userFavorites */\n      0x02\n        /* \"contrakts base/FavoriteRecords.sol\":1558:1583  userFavorites[msg.sender] */\n      0x00\n        /* \"contrakts base/FavoriteRecords.sol\":1572:1582  msg.sender */\n      caller\n        /* \"contrakts base/FavoriteRecords.sol\":1558:1583  userFavorites[msg.sender] */\n      0xffffffffffffffffffffffffffffffffffffffff\n      and\n      0xffffffffffffffffffffffffffffffffffffffff\n      and\n      dup2\n      mstore\n      0x20\n      add\n      swap1\n      dup2\n      mstore\n      0x20\n      add\n      0x00\n      keccak256\n        /* \"contrakts base/FavoriteRecords.sol\":1584:1595  _recordName */\n      dup3\n        /* \"contrakts base/FavoriteRecords.sol\":1558:1596  userFavorites[msg.sender][_recordName] */\n      mload(0x40)\n      tag_96\n      swap2\n      swap1\n      tag_92\n      jump\t// in\n    tag_96:\n      swap1\n      dup2\n      mstore\n      0x20\n      add\n      mload(0x40)\n      dup1\n      swap2\n      sub\n      swap1\n      keccak256\n      0x00\n        /* \"contrakts base/FavoriteRecords.sol\":1558:1603  userFavorites[msg.sender][_recordName] = true */\n      0x0100\n      exp\n      dup2\n      sload\n      dup2\n      0xff\n      mul\n      not\n      and\n      swap1\n      dup4\n      iszero\n      iszero\n      mul\n      or\n      swap1\n      sstore\n      pop\n        /* \"contrakts base/FavoriteRecords.sol\":1391:1611  function addRecord(string memory _recordName) public {... */\n      pop\n      jump\t// out\n        /* \"#utility.yul\":7:131   */\n    tag_97:\n        /* \"#utility.yul\":84:90   */\n      0x00\n        /* \"#utility.yul\":118:123   */\n      dup2\n        /* \"#utility.yul\":112:124   */\n      mload\n        /* \"#utility.yul\":102:124   */\n      swap1\n      pop\n        /* \"#utility.yul\":7:131   */\n      swap2\n      swap1\n      pop\n      jump\t// out\n        /* \"#utility.yul\":137:331   */\n    tag_98:\n        /* \"#utility.yul\":246:257   */\n      0x00\n        /* \"#utility.yul\":280:286   */\n      dup3\n        /* \"#utility.yul\":275:278   */\n      dup3\n        /* \"#utility.yul\":268:287   */\n      mstore\n        /* \"#utility.yul\":320:324   */\n      0x20\n        /* \"#utility.yul\":315:318   */\n      dup3\n        /* \"#utility.yul\":311:325   */\n      add\n        /* \"#utility.yul\":296:325   */\n      swap1\n      pop\n        /* \"#utility.yul\":137:331   */\n      swap3\n      swap2\n      pop\n      pop\n      jump\t// out\n        /* \"#utility.yul\":337:479   */\n    tag_99:\n        /* \"#utility.yul\":414:418   */\n      0x00\n        /* \"#utility.yul\":437:440   */\n      dup2\n        /* \"#utility.yul\":429:440   */\n      swap1\n      pop\n        /* \"#utility.yul\":467:471   */\n      0x20\n        /* \"#utility.yul\":462:465   */\n      dup3\n        /* \"#utility.yul\":458:472   */\n      add\n        /* \"#utility.yul\":450:472   */\n      swap1\n      pop\n        /* \"#utility.yul\":337:479   */\n      swap2\n      swap1\n      pop\n      jump\t// out\n        /* \"#utility.yul\":485:584   */\n    tag_100:\n        /* \"#utility.yul\":537:543   */\n      0x00\n        /* \"#utility.yul\":571:576   */\n      dup2\n        /* \"#utility.yul\":565:577   */\n      mload\n        /* \"#utility.yul\":555:577   */\n      swap1\n      pop\n        /* \"#utility.yul\":485:584   */\n      swap2\n      swap1\n      pop\n      jump\t// out\n        /* \"#utility.yul\":590:749   */\n    tag_101:\n        /* \"#utility.yul\":664:675   */\n      0x00\n        /* \"#utility.yul\":698:704   */\n      dup3\n        /* \"#utility.yul\":693:696   */\n      dup3\n        /* \"#utility.yul\":686:705   */\n      mstore\n        /* \"#utility.yul\":738:742   */\n      0x20\n        /* \"#utility.yul\":733:736   */\n      dup3\n        /* \"#utility.yul\":729:743   */\n      add\n        /* \"#utility.yul\":714:743   */\n      swap1\n      pop\n        /* \"#utility.yul\":590:749   */\n      swap3\n      swap2\n      pop\n      pop\n      jump\t// out\n        /* \"#utility.yul\":755:894   */\n    tag_102:\n        /* \"#utility.yul\":844:850   */\n      dup3\n        /* \"#utility.yul\":839:842   */\n      dup2\n        /* \"#utility.yul\":834:837   */\n      dup4\n        /* \"#utility.yul\":828:851   */\n      mcopy\n        /* \"#utility.yul\":885:886   */\n      0x00\n        /* \"#utility.yul\":876:882   */\n      dup4\n        /* \"#utility.yul\":871:874   */\n      dup4\n        /* \"#utility.yul\":867:883   */\n      add\n        /* \"#utility.yul\":860:887   */\n      mstore\n        /* \"#utility.yul\":755:894   */\n      pop\n      pop\n      pop\n      jump\t// out\n        /* \"#utility.yul\":900:1002   */\n    tag_103:\n        /* \"#utility.yul\":941:947   */\n      0x00\n        /* \"#utility.yul\":992:994   */\n      0x1f\n        /* \"#utility.yul\":988:995   */\n      not\n        /* \"#utility.yul\":983:985   */\n      0x1f\n        /* \"#utility.yul\":976:981   */\n      dup4\n        /* \"#utility.yul\":972:986   */\n      add\n        /* \"#utility.yul\":968:996   */\n      and\n        /* \"#utility.yul\":958:996   */\n      swap1\n      pop\n        /* \"#utility.yul\":900:1002   */\n      swap2\n      swap1\n      pop\n      jump\t// out\n        /* \"#utility.yul\":1008:1365   */\n    tag_104:\n        /* \"#utility.yul\":1086:1089   */\n      0x00\n        /* \"#utility.yul\":1114:1153   */\n      tag_143\n        /* \"#utility.yul\":1147:1152   */\n      dup3\n        /* \"#utility.yul\":1114:1153   */\n      tag_100\n      jump\t// in\n    tag_143:\n        /* \"#utility.yul\":1169:1230   */\n      tag_144\n        /* \"#utility.yul\":1223:1229   */\n      dup2\n        /* \"#utility.yul\":1218:1221   */\n      dup6\n        /* \"#utility.yul\":1169:1230   */\n      tag_101\n      jump\t// in\n    tag_144:\n        /* \"#utility.yul\":1162:1230   */\n      swap4\n      pop\n        /* \"#utility.yul\":1239:1304   */\n      tag_145\n        /* \"#utility.yul\":1297:1303   */\n      dup2\n        /* \"#utility.yul\":1292:1295   */\n      dup6\n        /* \"#utility.yul\":1285:1289   */\n      0x20\n        /* \"#utility.yul\":1278:1283   */\n      dup7\n        /* \"#utility.yul\":1274:1290   */\n      add\n        /* \"#utility.yul\":1239:1304   */\n      tag_102\n      jump\t// in\n    tag_145:\n        /* \"#utility.yul\":1329:1358   */\n      tag_146\n        /* \"#utility.yul\":1351:1357   */\n      dup2\n        /* \"#utility.yul\":1329:1358   */\n      tag_103\n      jump\t// in\n    tag_146:\n        /* \"#utility.yul\":1324:1327   */\n      dup5\n        /* \"#utility.yul\":1320:1359   */\n      add\n        /* \"#utility.yul\":1313:1359   */\n      swap2\n      pop\n        /* \"#utility.yul\":1090:1365   */\n      pop\n        /* \"#utility.yul\":1008:1365   */\n      swap3\n      swap2\n      pop\n      pop\n      jump\t// out\n        /* \"#utility.yul\":1371:1567   */\n    tag_105:\n        /* \"#utility.yul\":1460:1470   */\n      0x00\n        /* \"#utility.yul\":1495:1561   */\n      tag_148\n        /* \"#utility.yul\":1557:1560   */\n      dup4\n        /* \"#utility.yul\":1549:1555   */\n      dup4\n        /* \"#utility.yul\":1495:1561   */\n      tag_104\n      jump\t// in\n    tag_148:\n        /* \"#utility.yul\":1481:1561   */\n      swap1\n      pop\n        /* \"#utility.yul\":1371:1567   */\n      swap3\n      swap2\n      pop\n      pop\n      jump\t// out\n        /* \"#utility.yul\":1573:1696   */\n    tag_106:\n        /* \"#utility.yul\":1653:1657   */\n      0x00\n        /* \"#utility.yul\":1685:1689   */\n      0x20\n        /* \"#utility.yul\":1680:1683   */\n      dup3\n        /* \"#utility.yul\":1676:1690   */\n      add\n        /* \"#utility.yul\":1668:1690   */\n      swap1\n      pop\n        /* \"#utility.yul\":1573:1696   */\n      swap2\n      swap1\n      pop\n      jump\t// out\n        /* \"#utility.yul\":1730:2721   */\n    tag_107:\n        /* \"#utility.yul\":1869:1872   */\n      0x00\n        /* \"#utility.yul\":1898:1962   */\n      tag_151\n        /* \"#utility.yul\":1956:1961   */\n      dup3\n        /* \"#utility.yul\":1898:1962   */\n      tag_97\n      jump\t// in\n    tag_151:\n        /* \"#utility.yul\":1978:2074   */\n      tag_152\n        /* \"#utility.yul\":2067:2073   */\n      dup2\n        /* \"#utility.yul\":2062:2065   */\n      dup6\n        /* \"#utility.yul\":1978:2074   */\n      tag_98\n      jump\t// in\n    tag_152:\n        /* \"#utility.yul\":1971:2074   */\n      swap4\n      pop\n        /* \"#utility.yul\":2100:2103   */\n      dup4\n        /* \"#utility.yul\":2145:2149   */\n      0x20\n        /* \"#utility.yul\":2137:2143   */\n      dup3\n        /* \"#utility.yul\":2133:2150   */\n      mul\n        /* \"#utility.yul\":2128:2131   */\n      dup6\n        /* \"#utility.yul\":2124:2151   */\n      add\n        /* \"#utility.yul\":2175:2241   */\n      tag_153\n        /* \"#utility.yul\":2235:2240   */\n      dup6\n        /* \"#utility.yul\":2175:2241   */\n      tag_99\n      jump\t// in\n    tag_153:\n        /* \"#utility.yul\":2264:2271   */\n      dup1\n        /* \"#utility.yul\":2295:2296   */\n      0x00\n        /* \"#utility.yul\":2280:2676   */\n    tag_154:\n        /* \"#utility.yul\":2305:2311   */\n      dup6\n        /* \"#utility.yul\":2302:2303   */\n      dup2\n        /* \"#utility.yul\":2299:2312   */\n      lt\n        /* \"#utility.yul\":2280:2676   */\n      iszero\n      tag_156\n      jumpi\n        /* \"#utility.yul\":2376:2385   */\n      dup5\n        /* \"#utility.yul\":2370:2374   */\n      dup5\n        /* \"#utility.yul\":2366:2386   */\n      sub\n        /* \"#utility.yul\":2361:2364   */\n      dup10\n        /* \"#utility.yul\":2354:2387   */\n      mstore\n        /* \"#utility.yul\":2427:2433   */\n      dup2\n        /* \"#utility.yul\":2421:2434   */\n      mload\n        /* \"#utility.yul\":2455:2539   */\n      tag_157\n        /* \"#utility.yul\":2534:2538   */\n      dup6\n        /* \"#utility.yul\":2519:2532   */\n      dup3\n        /* \"#utility.yul\":2455:2539   */\n      tag_105\n      jump\t// in\n    tag_157:\n        /* \"#utility.yul\":2447:2539   */\n      swap5\n      pop\n        /* \"#utility.yul\":2562:2632   */\n      tag_158\n        /* \"#utility.yul\":2625:2631   */\n      dup4\n        /* \"#utility.yul\":2562:2632   */\n      tag_106\n      jump\t// in\n    tag_158:\n        /* \"#utility.yul\":2552:2632   */\n      swap3\n      pop\n        /* \"#utility.yul\":2661:2665   */\n      0x20\n        /* \"#utility.yul\":2656:2659   */\n      dup11\n        /* \"#utility.yul\":2652:2666   */\n      add\n        /* \"#utility.yul\":2645:2666   */\n      swap10\n      pop\n        /* \"#utility.yul\":2340:2676   */\n      pop\n        /* \"#utility.yul\":2327:2328   */\n      0x01\n        /* \"#utility.yul\":2324:2325   */\n      dup2\n        /* \"#utility.yul\":2320:2329   */\n      add\n        /* \"#utility.yul\":2315:2329   */\n      swap1\n      pop\n        /* \"#utility.yul\":2280:2676   */\n      jump(tag_154)\n    tag_156:\n        /* \"#utility.yul\":2284:2298   */\n      pop\n        /* \"#utility.yul\":2692:2696   */\n      dup3\n        /* \"#utility.yul\":2685:2696   */\n      swap8\n      pop\n        /* \"#utility.yul\":2712:2715   */\n      dup8\n        /* \"#utility.yul\":2705:2715   */\n      swap6\n      pop\n        /* \"#utility.yul\":1874:2721   */\n      pop\n      pop\n      pop\n      pop\n      pop\n        /* \"#utility.yul\":1730:2721   */\n      swap3\n      swap2\n      pop\n      pop\n      jump\t// out\n        /* \"#utility.yul\":2727:3140   */\n    tag_12:\n        /* \"#utility.yul\":2890:2894   */\n      0x00\n        /* \"#utility.yul\":2928:2930   */\n      0x20\n        /* \"#utility.yul\":2917:2926   */\n      dup3\n        /* \"#utility.yul\":2913:2931   */\n      add\n        /* \"#utility.yul\":2905:2931   */\n      swap1\n      pop\n        /* \"#utility.yul\":2977:2986   */\n      dup2\n        /* \"#utility.yul\":2971:2975   */\n      dup2\n        /* \"#utility.yul\":2967:2987   */\n      sub\n        /* \"#utility.yul\":2963:2964   */\n      0x00\n        /* \"#utility.yul\":2952:2961   */\n      dup4\n        /* \"#utility.yul\":2948:2965   */\n      add\n        /* \"#utility.yul\":2941:2988   */\n      mstore\n        /* \"#utility.yul\":3005:3133   */\n      tag_160\n        /* \"#utility.yul\":3128:3132   */\n      dup2\n        /* \"#utility.yul\":3119:3125   */\n      dup5\n        /* \"#utility.yul\":3005:3133   */\n      tag_107\n      jump\t// in\n    tag_160:\n        /* \"#utility.yul\":2997:3133   */\n      swap1\n      pop\n        /* \"#utility.yul\":2727:3140   */\n      swap3\n      swap2\n      pop\n      pop\n      jump\t// out\n        /* \"#utility.yul\":3146:3221   */\n    tag_108:\n        /* \"#utility.yul\":3179:3185   */\n      0x00\n        /* \"#utility.yul\":3212:3214   */\n      0x40\n        /* \"#utility.yul\":3206:3215   */\n      mload\n        /* \"#utility.yul\":3196:3215   */\n      swap1\n      pop\n        /* \"#utility.yul\":3146:3221   */\n      swap1\n      jump\t// out\n        /* \"#utility.yul\":3227:3344   */\n    tag_109:\n        /* \"#utility.yul\":3336:3337   */\n      0x00\n        /* \"#utility.yul\":3333:3334   */\n      dup1\n        /* \"#utility.yul\":3326:3338   */\n      revert\n        /* \"#utility.yul\":3350:3467   */\n    tag_110:\n        /* \"#utility.yul\":3459:3460   */\n      0x00\n        /* \"#utility.yul\":3456:3457   */\n      dup1\n        /* \"#utility.yul\":3449:3461   */\n      revert\n        /* \"#utility.yul\":3473:3590   */\n    tag_111:\n        /* \"#utility.yul\":3582:3583   */\n      0x00\n        /* \"#utility.yul\":3579:3580   */\n      dup1\n        /* \"#utility.yul\":3572:3584   */\n      revert\n        /* \"#utility.yul\":3596:3713   */\n    tag_112:\n        /* \"#utility.yul\":3705:3706   */\n      0x00\n        /* \"#utility.yul\":3702:3703   */\n      dup1\n        /* \"#utility.yul\":3695:3707   */\n      revert\n        /* \"#utility.yul\":3719:3899   */\n    tag_67:\n        /* \"#utility.yul\":3767:3844   */\n      0x4e487b7100000000000000000000000000000000000000000000000000000000\n        /* \"#utility.yul\":3764:3765   */\n      0x00\n        /* \"#utility.yul\":3757:3845   */\n      mstore\n        /* \"#utility.yul\":3864:3868   */\n      0x41\n        /* \"#utility.yul\":3861:3862   */\n      0x04\n        /* \"#utility.yul\":3854:3869   */\n      mstore\n        /* \"#utility.yul\":3888:3892   */\n      0x24\n        /* \"#utility.yul\":3885:3886   */\n      0x00\n        /* \"#utility.yul\":3878:3893   */\n      revert\n        /* \"#utility.yul\":3905:4186   */\n    tag_113:\n        /* \"#utility.yul\":3988:4015   */\n      tag_168\n        /* \"#utility.yul\":4010:4014   */\n      dup3\n        /* \"#utility.yul\":3988:4015   */\n      tag_103\n      jump\t// in\n    tag_168:\n        /* \"#utility.yul\":3980:3986   */\n      dup2\n        /* \"#utility.yul\":3976:4016   */\n      add\n        /* \"#utility.yul\":4118:4124   */\n      dup2\n        /* \"#utility.yul\":4106:4116   */\n      dup2\n        /* \"#utility.yul\":4103:4125   */\n      lt\n        /* \"#utility.yul\":4082:4100   */\n      0xffffffffffffffff\n        /* \"#utility.yul\":4070:4080   */\n      dup3\n        /* \"#utility.yul\":4067:4101   */\n      gt\n        /* \"#utility.yul\":4064:4126   */\n      or\n        /* \"#utility.yul\":4061:4149   */\n      iszero\n      tag_169\n      jumpi\n        /* \"#utility.yul\":4129:4147   */\n      tag_170\n      tag_67\n      jump\t// in\n    tag_170:\n        /* \"#utility.yul\":4061:4149   */\n    tag_169:\n        /* \"#utility.yul\":4169:4179   */\n      dup1\n        /* \"#utility.yul\":4165:4167   */\n      0x40\n        /* \"#utility.yul\":4158:4180   */\n      mstore\n        /* \"#utility.yul\":3948:4186   */\n      pop\n        /* \"#utility.yul\":3905:4186   */\n      pop\n      pop\n      jump\t// out\n        /* \"#utility.yul\":4192:4321   */\n    tag_114:\n        /* \"#utility.yul\":4226:4232   */\n      0x00\n        /* \"#utility.yul\":4253:4273   */\n      tag_172\n      tag_108\n      jump\t// in\n    tag_172:\n        /* \"#utility.yul\":4243:4273   */\n      swap1\n      pop\n        /* \"#utility.yul\":4282:4315   */\n      tag_173\n        /* \"#utility.yul\":4310:4314   */\n      dup3\n        /* \"#utility.yul\":4302:4308   */\n      dup3\n        /* \"#utility.yul\":4282:4315   */\n      tag_113\n      jump\t// in\n    tag_173:\n        /* \"#utility.yul\":4192:4321   */\n      swap2\n      swap1\n      pop\n      jump\t// out\n        /* \"#utility.yul\":4327:4635   */\n    tag_115:\n        /* \"#utility.yul\":4389:4393   */\n      0x00\n        /* \"#utility.yul\":4479:4497   */\n      0xffffffffffffffff\n        /* \"#utility.yul\":4471:4477   */\n      dup3\n        /* \"#utility.yul\":4468:4498   */\n      gt\n        /* \"#utility.yul\":4465:4521   */\n      iszero\n      tag_175\n      jumpi\n        /* \"#utility.yul\":4501:4519   */\n      tag_176\n      tag_67\n      jump\t// in\n    tag_176:\n        /* \"#utility.yul\":4465:4521   */\n    tag_175:\n        /* \"#utility.yul\":4539:4568   */\n      tag_177\n        /* \"#utility.yul\":4561:4567   */\n      dup3\n        /* \"#utility.yul\":4539:4568   */\n      tag_103\n      jump\t// in\n    tag_177:\n        /* \"#utility.yul\":4531:4568   */\n      swap1\n      pop\n        /* \"#utility.yul\":4623:4627   */\n      0x20\n        /* \"#utility.yul\":4617:4621   */\n      dup2\n        /* \"#utility.yul\":4613:4628   */\n      add\n        /* \"#utility.yul\":4605:4628   */\n      swap1\n      pop\n        /* \"#utility.yul\":4327:4635   */\n      swap2\n      swap1\n      pop\n      jump\t// out\n        /* \"#utility.yul\":4641:4789   */\n    tag_116:\n        /* \"#utility.yul\":4739:4745   */\n      dup3\n        /* \"#utility.yul\":4734:4737   */\n      dup2\n        /* \"#utility.yul\":4729:4732   */\n      dup4\n        /* \"#utility.yul\":4716:4746   */\n      calldatacopy\n        /* \"#utility.yul\":4780:4781   */\n      0x00\n        /* \"#utility.yul\":4771:4777   */\n      dup4\n        /* \"#utility.yul\":4766:4769   */\n      dup4\n        /* \"#utility.yul\":4762:4778   */\n      add\n        /* \"#utility.yul\":4755:4782   */\n      mstore\n        /* \"#utility.yul\":4641:4789   */\n      pop\n      pop\n      pop\n      jump\t// out\n        /* \"#utility.yul\":4795:5220   */\n    tag_117:\n        /* \"#utility.yul\":4873:4878   */\n      0x00\n        /* \"#utility.yul\":4898:4964   */\n      tag_180\n        /* \"#utility.yul\":4914:4963   */\n      tag_181\n        /* \"#utility.yul\":4956:4962   */\n      dup5\n        /* \"#utility.yul\":4914:4963   */\n      tag_115\n      jump\t// in\n    tag_181:\n        /* \"#utility.yul\":4898:4964   */\n      tag_114\n      jump\t// in\n    tag_180:\n        /* \"#utility.yul\":4889:4964   */\n      swap1\n      pop\n        /* \"#utility.yul\":4987:4993   */\n      dup3\n        /* \"#utility.yul\":4980:4985   */\n      dup2\n        /* \"#utility.yul\":4973:4994   */\n      mstore\n        /* \"#utility.yul\":5025:5029   */\n      0x20\n        /* \"#utility.yul\":5018:5023   */\n      dup2\n        /* \"#utility.yul\":5014:5030   */\n      add\n        /* \"#utility.yul\":5063:5066   */\n      dup5\n        /* \"#utility.yul\":5054:5060   */\n      dup5\n        /* \"#utility.yul\":5049:5052   */\n      dup5\n        /* \"#utility.yul\":5045:5061   */\n      add\n        /* \"#utility.yul\":5042:5067   */\n      gt\n        /* \"#utility.yul\":5039:5151   */\n      iszero\n      tag_182\n      jumpi\n        /* \"#utility.yul\":5070:5149   */\n      tag_183\n      tag_112\n      jump\t// in\n    tag_183:\n        /* \"#utility.yul\":5039:5151   */\n    tag_182:\n        /* \"#utility.yul\":5160:5214   */\n      tag_184\n        /* \"#utility.yul\":5207:5213   */\n      dup5\n        /* \"#utility.yul\":5202:5205   */\n      dup3\n        /* \"#utility.yul\":5197:5200   */\n      dup6\n        /* \"#utility.yul\":5160:5214   */\n      tag_116\n      jump\t// in\n    tag_184:\n        /* \"#utility.yul\":4879:5220   */\n      pop\n        /* \"#utility.yul\":4795:5220   */\n      swap4\n      swap3\n      pop\n      pop\n      pop\n      jump\t// out\n        /* \"#utility.yul\":5240:5580   */\n    tag_118:\n        /* \"#utility.yul\":5296:5301   */\n      0x00\n        /* \"#utility.yul\":5345:5348   */\n      dup3\n        /* \"#utility.yul\":5338:5342   */\n      0x1f\n        /* \"#utility.yul\":5330:5336   */\n      dup4\n        /* \"#utility.yul\":5326:5343   */\n      add\n        /* \"#utility.yul\":5322:5349   */\n      slt\n        /* \"#utility.yul\":5312:5434   */\n      tag_186\n      jumpi\n        /* \"#utility.yul\":5353:5432   */\n      tag_187\n      tag_111\n      jump\t// in\n    tag_187:\n        /* \"#utility.yul\":5312:5434   */\n    tag_186:\n        /* \"#utility.yul\":5470:5476   */\n      dup2\n        /* \"#utility.yul\":5457:5477   */\n      calldataload\n        /* \"#utility.yul\":5495:5574   */\n      tag_188\n        /* \"#utility.yul\":5570:5573   */\n      dup5\n        /* \"#utility.yul\":5562:5568   */\n      dup3\n        /* \"#utility.yul\":5555:5559   */\n      0x20\n        /* \"#utility.yul\":5547:5553   */\n      dup7\n        /* \"#utility.yul\":5543:5560   */\n      add\n        /* \"#utility.yul\":5495:5574   */\n      tag_117\n      jump\t// in\n    tag_188:\n        /* \"#utility.yul\":5486:5574   */\n      swap2\n      pop\n        /* \"#utility.yul\":5302:5580   */\n      pop\n        /* \"#utility.yul\":5240:5580   */\n      swap3\n      swap2\n      pop\n      pop\n      jump\t// out\n        /* \"#utility.yul\":5586:6095   */\n    tag_17:\n        /* \"#utility.yul\":5655:5661   */\n      0x00\n        /* \"#utility.yul\":5704:5706   */\n      0x20\n        /* \"#utility.yul\":5692:5701   */\n      dup3\n        /* \"#utility.yul\":5683:5690   */\n      dup5\n        /* \"#utility.yul\":5679:5702   */\n      sub\n        /* \"#utility.yul\":5675:5707   */\n      slt\n        /* \"#utility.yul\":5672:5791   */\n      iszero\n      tag_190\n      jumpi\n        /* \"#utility.yul\":5710:5789   */\n      tag_191\n      tag_109\n      jump\t// in\n    tag_191:\n        /* \"#utility.yul\":5672:5791   */\n    tag_190:\n        /* \"#utility.yul\":5858:5859   */\n      0x00\n        /* \"#utility.yul\":5847:5856   */\n      dup3\n        /* \"#utility.yul\":5843:5860   */\n      add\n        /* \"#utility.yul\":5830:5861   */\n      calldataload\n        /* \"#utility.yul\":5888:5906   */\n      0xffffffffffffffff\n        /* \"#utility.yul\":5880:5886   */\n      dup2\n        /* \"#utility.yul\":5877:5907   */\n      gt\n        /* \"#utility.yul\":5874:5991   */\n      iszero\n      tag_192\n      jumpi\n        /* \"#utility.yul\":5910:5989   */\n      tag_193\n      tag_110\n      jump\t// in\n    tag_193:\n        /* \"#utility.yul\":5874:5991   */\n    tag_192:\n        /* \"#utility.yul\":6015:6078   */\n      tag_194\n        /* \"#utility.yul\":6070:6077   */\n      dup5\n        /* \"#utility.yul\":6061:6067   */\n      dup3\n        /* \"#utility.yul\":6050:6059   */\n      dup6\n        /* \"#utility.yul\":6046:6068   */\n      add\n        /* \"#utility.yul\":6015:6078   */\n      tag_118\n      jump\t// in\n    tag_194:\n        /* \"#utility.yul\":6005:6078   */\n      swap2\n      pop\n        /* \"#utility.yul\":5801:6088   */\n      pop\n        /* \"#utility.yul\":5586:6095   */\n      swap3\n      swap2\n      pop\n      pop\n      jump\t// out\n        /* \"#utility.yul\":6101:6191   */\n    tag_119:\n        /* \"#utility.yul\":6135:6142   */\n      0x00\n        /* \"#utility.yul\":6178:6183   */\n      dup2\n        /* \"#utility.yul\":6171:6184   */\n      iszero\n        /* \"#utility.yul\":6164:6185   */\n      iszero\n        /* \"#utility.yul\":6153:6185   */\n      swap1\n      pop\n        /* \"#utility.yul\":6101:6191   */\n      swap2\n      swap1\n      pop\n      jump\t// out\n        /* \"#utility.yul\":6197:6306   */\n    tag_120:\n        /* \"#utility.yul\":6278:6299   */\n      tag_197\n        /* \"#utility.yul\":6293:6298   */\n      dup2\n        /* \"#utility.yul\":6278:6299   */\n      tag_119\n      jump\t// in\n    tag_197:\n        /* \"#utility.yul\":6273:6276   */\n      dup3\n        /* \"#utility.yul\":6266:6300   */\n      mstore\n        /* \"#utility.yul\":6197:6306   */\n      pop\n      pop\n      jump\t// out\n        /* \"#utility.yul\":6312:6522   */\n    tag_20:\n        /* \"#utility.yul\":6399:6403   */\n      0x00\n        /* \"#utility.yul\":6437:6439   */\n      0x20\n        /* \"#utility.yul\":6426:6435   */\n      dup3\n        /* \"#utility.yul\":6422:6440   */\n      add\n        /* \"#utility.yul\":6414:6440   */\n      swap1\n      pop\n        /* \"#utility.yul\":6450:6515   */\n      tag_199\n        /* \"#utility.yul\":6512:6513   */\n      0x00\n        /* \"#utility.yul\":6501:6510   */\n      dup4\n        /* \"#utility.yul\":6497:6514   */\n      add\n        /* \"#utility.yul\":6488:6494   */\n      dup5\n        /* \"#utility.yul\":6450:6515   */\n      tag_120\n      jump\t// in\n    tag_199:\n        /* \"#utility.yul\":6312:6522   */\n      swap3\n      swap2\n      pop\n      pop\n      jump\t// out\n        /* \"#utility.yul\":6528:6654   */\n    tag_121:\n        /* \"#utility.yul\":6565:6572   */\n      0x00\n        /* \"#utility.yul\":6605:6647   */\n      0xffffffffffffffffffffffffffffffffffffffff\n        /* \"#utility.yul\":6598:6603   */\n      dup3\n        /* \"#utility.yul\":6594:6648   */\n      and\n        /* \"#utility.yul\":6583:6648   */\n      swap1\n      pop\n        /* \"#utility.yul\":6528:6654   */\n      swap2\n      swap1\n      pop\n      jump\t// out\n        /* \"#utility.yul\":6660:6756   */\n    tag_122:\n        /* \"#utility.yul\":6697:6704   */\n      0x00\n        /* \"#utility.yul\":6726:6750   */\n      tag_202\n        /* \"#utility.yul\":6744:6749   */\n      dup3\n        /* \"#utility.yul\":6726:6750   */\n      tag_121\n      jump\t// in\n    tag_202:\n        /* \"#utility.yul\":6715:6750   */\n      swap1\n      pop\n        /* \"#utility.yul\":6660:6756   */\n      swap2\n      swap1\n      pop\n      jump\t// out\n        /* \"#utility.yul\":6762:6884   */\n    tag_123:\n        /* \"#utility.yul\":6835:6859   */\n      tag_204\n        /* \"#utility.yul\":6853:6858   */\n      dup2\n        /* \"#utility.yul\":6835:6859   */\n      tag_122\n      jump\t// in\n    tag_204:\n        /* \"#utility.yul\":6828:6833   */\n      dup2\n        /* \"#utility.yul\":6825:6860   */\n      eq\n        /* \"#utility.yul\":6815:6878   */\n      tag_205\n      jumpi\n        /* \"#utility.yul\":6874:6875   */\n      0x00\n        /* \"#utility.yul\":6871:6872   */\n      dup1\n        /* \"#utility.yul\":6864:6876   */\n      revert\n        /* \"#utility.yul\":6815:6878   */\n    tag_205:\n        /* \"#utility.yul\":6762:6884   */\n      pop\n      jump\t// out\n        /* \"#utility.yul\":6890:7029   */\n    tag_124:\n        /* \"#utility.yul\":6936:6941   */\n      0x00\n        /* \"#utility.yul\":6974:6980   */\n      dup2\n        /* \"#utility.yul\":6961:6981   */\n      calldataload\n        /* \"#utility.yul\":6952:6981   */\n      swap1\n      pop\n        /* \"#utility.yul\":6990:7023   */\n      tag_207\n        /* \"#utility.yul\":7017:7022   */\n      dup2\n        /* \"#utility.yul\":6990:7023   */\n      tag_123\n      jump\t// in\n    tag_207:\n        /* \"#utility.yul\":6890:7029   */\n      swap3\n      swap2\n      pop\n      pop\n      jump\t// out\n        /* \"#utility.yul\":7035:7689   */\n    tag_23:\n        /* \"#utility.yul\":7113:7119   */\n      0x00\n        /* \"#utility.yul\":7121:7127   */\n      dup1\n        /* \"#utility.yul\":7170:7172   */\n      0x40\n        /* \"#utility.yul\":7158:7167   */\n      dup4\n        /* \"#utility.yul\":7149:7156   */\n      dup6\n        /* \"#utility.yul\":7145:7168   */\n      sub\n        /* \"#utility.yul\":7141:7173   */\n      slt\n        /* \"#utility.yul\":7138:7257   */\n      iszero\n      tag_209\n      jumpi\n        /* \"#utility.yul\":7176:7255   */\n      tag_210\n      tag_109\n      jump\t// in\n    tag_210:\n        /* \"#utility.yul\":7138:7257   */\n    tag_209:\n        /* \"#utility.yul\":7296:7297   */\n      0x00\n        /* \"#utility.yul\":7321:7374   */\n      tag_211\n        /* \"#utility.yul\":7366:7373   */\n      dup6\n        /* \"#utility.yul\":7357:7363   */\n      dup3\n        /* \"#utility.yul\":7346:7355   */\n      dup7\n        /* \"#utility.yul\":7342:7364   */\n      add\n        /* \"#utility.yul\":7321:7374   */\n      tag_124\n      jump\t// in\n    tag_211:\n        /* \"#utility.yul\":7311:7374   */\n      swap3\n      pop\n        /* \"#utility.yul\":7267:7384   */\n      pop\n        /* \"#utility.yul\":7451:7453   */\n      0x20\n        /* \"#utility.yul\":7440:7449   */\n      dup4\n        /* \"#utility.yul\":7436:7454   */\n      add\n        /* \"#utility.yul\":7423:7455   */\n      calldataload\n        /* \"#utility.yul\":7482:7500   */\n      0xffffffffffffffff\n        /* \"#utility.yul\":7474:7480   */\n      dup2\n        /* \"#utility.yul\":7471:7501   */\n      gt\n        /* \"#utility.yul\":7468:7585   */\n      iszero\n      tag_212\n      jumpi\n        /* \"#utility.yul\":7504:7583   */\n      tag_213\n      tag_110\n      jump\t// in\n    tag_213:\n        /* \"#utility.yul\":7468:7585   */\n    tag_212:\n        /* \"#utility.yul\":7609:7672   */\n      tag_214\n        /* \"#utility.yul\":7664:7671   */\n      dup6\n        /* \"#utility.yul\":7655:7661   */\n      dup3\n        /* \"#utility.yul\":7644:7653   */\n      dup7\n        /* \"#utility.yul\":7640:7662   */\n      add\n        /* \"#utility.yul\":7609:7672   */\n      tag_118\n      jump\t// in\n    tag_214:\n        /* \"#utility.yul\":7599:7672   */\n      swap2\n      pop\n        /* \"#utility.yul\":7394:7682   */\n      pop\n        /* \"#utility.yul\":7035:7689   */\n      swap3\n      pop\n      swap3\n      swap1\n      pop\n      jump\t// out\n        /* \"#utility.yul\":7695:8024   */\n    tag_28:\n        /* \"#utility.yul\":7754:7760   */\n      0x00\n        /* \"#utility.yul\":7803:7805   */\n      0x20\n        /* \"#utility.yul\":7791:7800   */\n      dup3\n        /* \"#utility.yul\":7782:7789   */\n      dup5\n        /* \"#utility.yul\":7778:7801   */\n      sub\n        /* \"#utility.yul\":7774:7806   */\n      slt\n        /* \"#utility.yul\":7771:7890   */\n      iszero\n      tag_216\n      jumpi\n        /* \"#utility.yul\":7809:7888   */\n      tag_217\n      tag_109\n      jump\t// in\n    tag_217:\n        /* \"#utility.yul\":7771:7890   */\n    tag_216:\n        /* \"#utility.yul\":7929:7930   */\n      0x00\n        /* \"#utility.yul\":7954:8007   */\n      tag_218\n        /* \"#utility.yul\":7999:8006   */\n      dup5\n        /* \"#utility.yul\":7990:7996   */\n      dup3\n        /* \"#utility.yul\":7979:7988   */\n      dup6\n        /* \"#utility.yul\":7975:7997   */\n      add\n        /* \"#utility.yul\":7954:8007   */\n      tag_124\n      jump\t// in\n    tag_218:\n        /* \"#utility.yul\":7944:8007   */\n      swap2\n      pop\n        /* \"#utility.yul\":7900:8017   */\n      pop\n        /* \"#utility.yul\":7695:8024   */\n      swap3\n      swap2\n      pop\n      pop\n      jump\t// out\n        /* \"#utility.yul\":8030:8210   */\n    tag_125:\n        /* \"#utility.yul\":8078:8155   */\n      0x4e487b7100000000000000000000000000000000000000000000000000000000\n        /* \"#utility.yul\":8075:8076   */\n      0x00\n        /* \"#utility.yul\":8068:8156   */\n      mstore\n        /* \"#utility.yul\":8175:8179   */\n      0x22\n        /* \"#utility.yul\":8172:8173   */\n      0x04\n        /* \"#utility.yul\":8165:8180   */\n      mstore\n        /* \"#utility.yul\":8199:8203   */\n      0x24\n        /* \"#utility.yul\":8196:8197   */\n      0x00\n        /* \"#utility.yul\":8189:8204   */\n      revert\n        /* \"#utility.yul\":8216:8536   */\n    tag_39:\n        /* \"#utility.yul\":8260:8266   */\n      0x00\n        /* \"#utility.yul\":8297:8298   */\n      0x02\n        /* \"#utility.yul\":8291:8295   */\n      dup3\n        /* \"#utility.yul\":8287:8299   */\n      div\n        /* \"#utility.yul\":8277:8299   */\n      swap1\n      pop\n        /* \"#utility.yul\":8344:8345   */\n      0x01\n        /* \"#utility.yul\":8338:8342   */\n      dup3\n        /* \"#utility.yul\":8334:8346   */\n      and\n        /* \"#utility.yul\":8365:8383   */\n      dup1\n        /* \"#utility.yul\":8355:8436   */\n      tag_221\n      jumpi\n        /* \"#utility.yul\":8421:8425   */\n      0x7f\n        /* \"#utility.yul\":8413:8419   */\n      dup3\n        /* \"#utility.yul\":8409:8426   */\n      and\n        /* \"#utility.yul\":8399:8426   */\n      swap2\n      pop\n        /* \"#utility.yul\":8355:8436   */\n    tag_221:\n        /* \"#utility.yul\":8483:8485   */\n      0x20\n        /* \"#utility.yul\":8475:8481   */\n      dup3\n        /* \"#utility.yul\":8472:8486   */\n      lt\n        /* \"#utility.yul\":8452:8470   */\n      dup2\n        /* \"#utility.yul\":8449:8487   */\n      sub\n        /* \"#utility.yul\":8446:8530   */\n      tag_222\n      jumpi\n        /* \"#utility.yul\":8502:8520   */\n      tag_223\n      tag_125\n      jump\t// in\n    tag_223:\n        /* \"#utility.yul\":8446:8530   */\n    tag_222:\n        /* \"#utility.yul\":8267:8536   */\n      pop\n        /* \"#utility.yul\":8216:8536   */\n      swap2\n      swap1\n      pop\n      jump\t// out\n        /* \"#utility.yul\":8542:8722   */\n    tag_50:\n        /* \"#utility.yul\":8590:8667   */\n      0x4e487b7100000000000000000000000000000000000000000000000000000000\n        /* \"#utility.yul\":8587:8588   */\n      0x00\n        /* \"#utility.yul\":8580:8668   */\n      mstore\n        /* \"#utility.yul\":8687:8691   */\n      0x32\n        /* \"#utility.yul\":8684:8685   */\n      0x04\n        /* \"#utility.yul\":8677:8692   */\n      mstore\n        /* \"#utility.yul\":8711:8715   */\n      0x24\n        /* \"#utility.yul\":8708:8709   */\n      0x00\n        /* \"#utility.yul\":8701:8716   */\n      revert\n        /* \"#utility.yul\":8728:8876   */\n    tag_126:\n        /* \"#utility.yul\":8830:8841   */\n      0x00\n        /* \"#utility.yul\":8867:8870   */\n      dup2\n        /* \"#utility.yul\":8852:8870   */\n      swap1\n      pop\n        /* \"#utility.yul\":8728:8876   */\n      swap3\n      swap2\n      pop\n      pop\n      jump\t// out\n        /* \"#utility.yul\":8882:9023   */\n    tag_127:\n        /* \"#utility.yul\":8931:8935   */\n      0x00\n        /* \"#utility.yul\":8954:8957   */\n      dup2\n        /* \"#utility.yul\":8946:8957   */\n      swap1\n      pop\n        /* \"#utility.yul\":8977:8980   */\n      dup2\n        /* \"#utility.yul\":8974:8975   */\n      0x00\n        /* \"#utility.yul\":8967:8981   */\n      mstore\n        /* \"#utility.yul\":9011:9015   */\n      0x20\n        /* \"#utility.yul\":9008:9009   */\n      0x00\n        /* \"#utility.yul\":8998:9016   */\n      keccak256\n        /* \"#utility.yul\":8990:9016   */\n      swap1\n      pop\n        /* \"#utility.yul\":8882:9023   */\n      swap2\n      swap1\n      pop\n      jump\t// out\n        /* \"#utility.yul\":9053:9927   */\n    tag_128:\n        /* \"#utility.yul\":9156:9159   */\n      0x00\n        /* \"#utility.yul\":9193:9198   */\n      dup2\n        /* \"#utility.yul\":9187:9199   */\n      sload\n        /* \"#utility.yul\":9222:9258   */\n      tag_228\n        /* \"#utility.yul\":9248:9257   */\n      dup2\n        /* \"#utility.yul\":9222:9258   */\n      tag_39\n      jump\t// in\n    tag_228:\n        /* \"#utility.yul\":9274:9363   */\n      tag_229\n        /* \"#utility.yul\":9356:9362   */\n      dup2\n        /* \"#utility.yul\":9351:9354   */\n      dup7\n        /* \"#utility.yul\":9274:9363   */\n      tag_126\n      jump\t// in\n    tag_229:\n        /* \"#utility.yul\":9267:9363   */\n      swap5\n      pop\n        /* \"#utility.yul\":9394:9395   */\n      0x01\n        /* \"#utility.yul\":9383:9392   */\n      dup3\n        /* \"#utility.yul\":9379:9396   */\n      and\n        /* \"#utility.yul\":9410:9411   */\n      0x00\n        /* \"#utility.yul\":9405:9571   */\n      dup2\n      eq\n      tag_231\n      jumpi\n        /* \"#utility.yul\":9585:9586   */\n      0x01\n        /* \"#utility.yul\":9580:9921   */\n      dup2\n      eq\n      tag_232\n      jumpi\n        /* \"#utility.yul\":9372:9921   */\n      jump(tag_230)\n        /* \"#utility.yul\":9405:9571   */\n    tag_231:\n        /* \"#utility.yul\":9489:9493   */\n      0xff\n        /* \"#utility.yul\":9485:9494   */\n      not\n        /* \"#utility.yul\":9474:9483   */\n      dup4\n        /* \"#utility.yul\":9470:9495   */\n      and\n        /* \"#utility.yul\":9465:9468   */\n      dup7\n        /* \"#utility.yul\":9458:9496   */\n      mstore\n        /* \"#utility.yul\":9551:9557   */\n      dup2\n        /* \"#utility.yul\":9544:9558   */\n      iszero\n        /* \"#utility.yul\":9537:9559   */\n      iszero\n        /* \"#utility.yul\":9529:9535   */\n      dup3\n        /* \"#utility.yul\":9525:9560   */\n      mul\n        /* \"#utility.yul\":9520:9523   */\n      dup7\n        /* \"#utility.yul\":9516:9561   */\n      add\n        /* \"#utility.yul\":9509:9561   */\n      swap4\n      pop\n        /* \"#utility.yul\":9405:9571   */\n      jump(tag_230)\n        /* \"#utility.yul\":9580:9921   */\n    tag_232:\n        /* \"#utility.yul\":9647:9685   */\n      tag_233\n        /* \"#utility.yul\":9679:9684   */\n      dup6\n        /* \"#utility.yul\":9647:9685   */\n      tag_127\n      jump\t// in\n    tag_233:\n        /* \"#utility.yul\":9707:9708   */\n      0x00\n        /* \"#utility.yul\":9721:9875   */\n    tag_234:\n        /* \"#utility.yul\":9735:9741   */\n      dup4\n        /* \"#utility.yul\":9732:9733   */\n      dup2\n        /* \"#utility.yul\":9729:9742   */\n      lt\n        /* \"#utility.yul\":9721:9875   */\n      iszero\n      tag_236\n      jumpi\n        /* \"#utility.yul\":9809:9816   */\n      dup2\n        /* \"#utility.yul\":9803:9817   */\n      sload\n        /* \"#utility.yul\":9799:9800   */\n      dup2\n        /* \"#utility.yul\":9794:9797   */\n      dup10\n        /* \"#utility.yul\":9790:9801   */\n      add\n        /* \"#utility.yul\":9783:9818   */\n      mstore\n        /* \"#utility.yul\":9859:9860   */\n      0x01\n        /* \"#utility.yul\":9850:9857   */\n      dup3\n        /* \"#utility.yul\":9846:9861   */\n      add\n        /* \"#utility.yul\":9835:9861   */\n      swap2\n      pop\n        /* \"#utility.yul\":9757:9761   */\n      0x20\n        /* \"#utility.yul\":9754:9755   */\n      dup2\n        /* \"#utility.yul\":9750:9762   */\n      add\n        /* \"#utility.yul\":9745:9762   */\n      swap1\n      pop\n        /* \"#utility.yul\":9721:9875   */\n      jump(tag_234)\n    tag_236:\n        /* \"#utility.yul\":9904:9910   */\n      dup4\n        /* \"#utility.yul\":9899:9902   */\n      dup9\n        /* \"#utility.yul\":9895:9911   */\n      add\n        /* \"#utility.yul\":9888:9911   */\n      swap6\n      pop\n        /* \"#utility.yul\":9587:9921   */\n      pop\n      pop\n        /* \"#utility.yul\":9372:9921   */\n    tag_230:\n      pop\n        /* \"#utility.yul\":9160:9927   */\n      pop\n      pop\n        /* \"#utility.yul\":9053:9927   */\n      swap3\n      swap2\n      pop\n      pop\n      jump\t// out\n        /* \"#utility.yul\":9933:10202   */\n    tag_53:\n        /* \"#utility.yul\":10062:10065   */\n      0x00\n        /* \"#utility.yul\":10084:10176   */\n      tag_238\n        /* \"#utility.yul\":10172:10175   */\n      dup3\n        /* \"#utility.yul\":10163:10169   */\n      dup5\n        /* \"#utility.yul\":10084:10176   */\n      tag_128\n      jump\t// in\n    tag_238:\n        /* \"#utility.yul\":10077:10176   */\n      swap2\n      pop\n        /* \"#utility.yul\":10193:10196   */\n      dup2\n        /* \"#utility.yul\":10186:10196   */\n      swap1\n      pop\n        /* \"#utility.yul\":9933:10202   */\n      swap3\n      swap2\n      pop\n      pop\n      jump\t// out\n        /* \"#utility.yul\":10208:10388   */\n    tag_129:\n        /* \"#utility.yul\":10256:10333   */\n      0x4e487b7100000000000000000000000000000000000000000000000000000000\n        /* \"#utility.yul\":10253:10254   */\n      0x00\n        /* \"#utility.yul\":10246:10334   */\n      mstore\n        /* \"#utility.yul\":10353:10357   */\n      0x11\n        /* \"#utility.yul\":10350:10351   */\n      0x04\n        /* \"#utility.yul\":10343:10358   */\n      mstore\n        /* \"#utility.yul\":10377:10381   */\n      0x24\n        /* \"#utility.yul\":10374:10375   */\n      0x00\n        /* \"#utility.yul\":10367:10382   */\n      revert\n        /* \"#utility.yul\":10394:10471   */\n    tag_130:\n        /* \"#utility.yul\":10431:10438   */\n      0x00\n        /* \"#utility.yul\":10460:10465   */\n      dup2\n        /* \"#utility.yul\":10449:10465   */\n      swap1\n      pop\n        /* \"#utility.yul\":10394:10471   */\n      swap2\n      swap1\n      pop\n      jump\t// out\n        /* \"#utility.yul\":10477:10710   */\n    tag_64:\n        /* \"#utility.yul\":10516:10519   */\n      0x00\n        /* \"#utility.yul\":10539:10563   */\n      tag_242\n        /* \"#utility.yul\":10557:10562   */\n      dup3\n        /* \"#utility.yul\":10539:10563   */\n      tag_130\n      jump\t// in\n    tag_242:\n        /* \"#utility.yul\":10530:10563   */\n      swap2\n      pop\n        /* \"#utility.yul\":10585:10651   */\n      0xffffffffffffffffffffffffffffffffffffffffffffffffffffffffffffffff\n        /* \"#utility.yul\":10578:10583   */\n      dup3\n        /* \"#utility.yul\":10575:10652   */\n      sub\n        /* \"#utility.yul\":10572:10675   */\n      tag_243\n      jumpi\n        /* \"#utility.yul\":10655:10673   */\n      tag_244\n      tag_129\n      jump\t// in\n    tag_244:\n        /* \"#utility.yul\":10572:10675   */\n    tag_243:\n        /* \"#utility.yul\":10702:10703   */\n      0x01\n        /* \"#utility.yul\":10695:10700   */\n      dup3\n        /* \"#utility.yul\":10691:10704   */\n      add\n        /* \"#utility.yul\":10684:10704   */\n      swap1\n      pop\n        /* \"#utility.yul\":10477:10710   */\n      swap2\n      swap1\n      pop\n      jump\t// out\n        /* \"#utility.yul\":10716:11106   */\n    tag_131:\n        /* \"#utility.yul\":10822:10825   */\n      0x00\n        /* \"#utility.yul\":10850:10889   */\n      tag_246\n        /* \"#utility.yul\":10883:10888   */\n      dup3\n        /* \"#utility.yul\":10850:10889   */\n      tag_100\n      jump\t// in\n    tag_246:\n        /* \"#utility.yul\":10905:10994   */\n      tag_247\n        /* \"#utility.yul\":10987:10993   */\n      dup2\n        /* \"#utility.yul\":10982:10985   */\n      dup6\n        /* \"#utility.yul\":10905:10994   */\n      tag_126\n      jump\t// in\n    tag_247:\n        /* \"#utility.yul\":10898:10994   */\n      swap4\n      pop\n        /* \"#utility.yul\":11003:11068   */\n      tag_248\n        /* \"#utility.yul\":11061:11067   */\n      dup2\n        /* \"#utility.yul\":11056:11059   */\n      dup6\n        /* \"#utility.yul\":11049:11053   */\n      0x20\n        /* \"#utility.yul\":11042:11047   */\n      dup7\n        /* \"#utility.yul\":11038:11054   */\n      add\n        /* \"#utility.yul\":11003:11068   */\n      tag_102\n      jump\t// in\n    tag_248:\n        /* \"#utility.yul\":11093:11099   */\n      dup1\n        /* \"#utility.yul\":11088:11091   */\n      dup5\n        /* \"#utility.yul\":11084:11100   */\n      add\n        /* \"#utility.yul\":11077:11100   */\n      swap2\n      pop\n        /* \"#utility.yul\":10826:11106   */\n      pop\n        /* \"#utility.yul\":10716:11106   */\n      swap3\n      swap2\n      pop\n      pop\n      jump\t// out\n        /* \"#utility.yul\":11112:11387   */\n    tag_92:\n        /* \"#utility.yul\":11244:11247   */\n      0x00\n        /* \"#utility.yul\":11266:11361   */\n      tag_250\n        /* \"#utility.yul\":11357:11360   */\n      dup3\n        /* \"#utility.yul\":11348:11354   */\n      dup5\n        /* \"#utility.yul\":11266:11361   */\n      tag_131\n      jump\t// in\n    tag_250:\n        /* \"#utility.yul\":11259:11361   */\n      swap2\n      pop\n        /* \"#utility.yul\":11378:11381   */\n      dup2\n        /* \"#utility.yul\":11371:11381   */\n      swap1\n      pop\n        /* \"#utility.yul\":11112:11387   */\n      swap3\n      swap2\n      pop\n      pop\n      jump\t// out\n        /* \"#utility.yul\":11393:11562   */\n    tag_132:\n        /* \"#utility.yul\":11477:11488   */\n      0x00\n        /* \"#utility.yul\":11511:11517   */\n      dup3\n        /* \"#utility.yul\":11506:11509   */\n      dup3\n        /* \"#utility.yul\":11499:11518   */\n      mstore\n        /* \"#utility.yul\":11551:11555   */\n      0x20\n        /* \"#utility.yul\":11546:11549   */\n      dup3\n        /* \"#utility.yul\":11542:11556   */\n      add\n        /* \"#utility.yul\":11527:11556   */\n      swap1\n      pop\n        /* \"#utility.yul\":11393:11562   */\n      swap3\n      swap2\n      pop\n      pop\n      jump\t// out\n        /* \"#utility.yul\":11568:11945   */\n    tag_133:\n        /* \"#utility.yul\":11656:11659   */\n      0x00\n        /* \"#utility.yul\":11684:11723   */\n      tag_253\n        /* \"#utility.yul\":11717:11722   */\n      dup3\n        /* \"#utility.yul\":11684:11723   */\n      tag_100\n      jump\t// in\n    tag_253:\n        /* \"#utility.yul\":11739:11810   */\n      tag_254\n        /* \"#utility.yul\":11803:11809   */\n      dup2\n        /* \"#utility.yul\":11798:11801   */\n      dup6\n        /* \"#utility.yul\":11739:11810   */\n      tag_132\n      jump\t// in\n    tag_254:\n        /* \"#utility.yul\":11732:11810   */\n      swap4\n      pop\n        /* \"#utility.yul\":11819:11884   */\n      tag_255\n        /* \"#utility.yul\":11877:11883   */\n      dup2\n        /* \"#utility.yul\":11872:11875   */\n      dup6\n        /* \"#utility.yul\":11865:11869   */\n      0x20\n        /* \"#utility.yul\":11858:11863   */\n      dup7\n        /* \"#utility.yul\":11854:11870   */\n      add\n        /* \"#utility.yul\":11819:11884   */\n      tag_102\n      jump\t// in\n    tag_255:\n        /* \"#utility.yul\":11909:11938   */\n      tag_256\n        /* \"#utility.yul\":11931:11937   */\n      dup2\n        /* \"#utility.yul\":11909:11938   */\n      tag_103\n      jump\t// in\n    tag_256:\n        /* \"#utility.yul\":11904:11907   */\n      dup5\n        /* \"#utility.yul\":11900:11939   */\n      add\n        /* \"#utility.yul\":11893:11939   */\n      swap2\n      pop\n        /* \"#utility.yul\":11660:11945   */\n      pop\n        /* \"#utility.yul\":11568:11945   */\n      swap3\n      swap2\n      pop\n      pop\n      jump\t// out\n        /* \"#utility.yul\":11951:12264   */\n    tag_95:\n        /* \"#utility.yul\":12064:12068   */\n      0x00\n        /* \"#utility.yul\":12102:12104   */\n      0x20\n        /* \"#utility.yul\":12091:12100   */\n      dup3\n        /* \"#utility.yul\":12087:12105   */\n      add\n        /* \"#utility.yul\":12079:12105   */\n      swap1\n      pop\n        /* \"#utility.yul\":12151:12160   */\n      dup2\n        /* \"#utility.yul\":12145:12149   */\n      dup2\n        /* \"#utility.yul\":12141:12161   */\n      sub\n        /* \"#utility.yul\":12137:12138   */\n      0x00\n        /* \"#utility.yul\":12126:12135   */\n      dup4\n        /* \"#utility.yul\":12122:12139   */\n      add\n        /* \"#utility.yul\":12115:12162   */\n      mstore\n        /* \"#utility.yul\":12179:12257   */\n      tag_258\n        /* \"#utility.yul\":12252:12256   */\n      dup2\n        /* \"#utility.yul\":12243:12249   */\n      dup5\n        /* \"#utility.yul\":12179:12257   */\n      tag_133\n      jump\t// in\n    tag_258:\n        /* \"#utility.yul\":12171:12257   */\n      swap1\n      pop\n        /* \"#utility.yul\":11951:12264   */\n      swap3\n      swap2\n      pop\n      pop\n      jump\t// out\n\n    auxdata: 0xa2646970667358221220213d29f53a217e506be3cf3324989e52fe7836589dcfc536d0297c28d2ae1a1a64736f6c63430008190033\n}\n",
				"bytecode": {
					"linkReferences": {},
					"object": "608060405234801561000f575f80fd5b506040518061012001604052806040518060400160405280600881526020017f546872696c6c657200000000000000000000000000000000000000000000000081525081526020016040518060400160405280600d81526020017f4261636b20696e20426c61636b0000000000000000000000000000000000000081525081526020016040518060400160405280600d81526020017f54686520426f647967756172640000000000000000000000000000000000000081525081526020016040518060400160405280601981526020017f546865204461726b2053696465206f6620746865204d6f6f6e0000000000000081525081526020016040518060400160405280601f81526020017f546865697220477265617465737420486974732028313937312d31393735290081525081526020016040518060400160405280601081526020017f486f74656c2043616c69666f726e69610000000000000000000000000000000081525081526020016040518060400160405280600c81526020017f436f6d65204f6e204f766572000000000000000000000000000000000000000081525081526020016040518060400160405280600781526020017f52756d6f7572730000000000000000000000000000000000000000000000000081525081526020016040518060400160405280601481526020017f5361747572646179204e69676874204665766572000000000000000000000000815250815250600190600961023d9291906102b0565b505f5b6001805490508110156102aa5760015f6001838154811061026457610263610382565b5b905f5260205f200160405161027991906104a8565b90815260200160405180910390205f6101000a81548160ff0219169083151502179055508080600101915050610240565b50610758565b828054828255905f5260205f209081019282156102f6579160200282015b828111156102f55782518290816102e59190610689565b50916020019190600101906102ce565b5b5090506103039190610307565b5090565b5b80821115610326575f818161031d919061032a565b50600101610308565b5090565b508054610336906103dc565b5f825580601f106103475750610364565b601f0160209004905f5260205f20908101906103639190610367565b5b50565b5b8082111561037e575f815f905550600101610368565b5090565b7f4e487b71000000000000000000000000000000000000000000000000000000005f52603260045260245ffd5b7f4e487b71000000000000000000000000000000000000000000000000000000005f52602260045260245ffd5b5f60028204905060018216806103f357607f821691505b602082108103610406576104056103af565b5b50919050565b5f81905092915050565b5f819050815f5260205f209050919050565b5f8154610434816103dc565b61043e818661040c565b9450600182165f8114610458576001811461046d5761049f565b60ff198316865281151582028601935061049f565b61047685610416565b5f5b8381101561049757815481890152600182019150602081019050610478565b838801955050505b50505092915050565b5f6104b38284610428565b915081905092915050565b5f81519050919050565b7f4e487b71000000000000000000000000000000000000000000000000000000005f52604160045260245ffd5b5f6020601f8301049050919050565b5f82821b905092915050565b5f6008830261053f7fffffffffffffffffffffffffffffffffffffffffffffffffffffffffffffffff82610504565b6105498683610504565b95508019841693508086168417925050509392505050565b5f819050919050565b5f819050919050565b5f61058d61058861058384610561565b61056a565b610561565b9050919050565b5f819050919050565b6105a683610573565b6105ba6105b282610594565b848454610510565b825550505050565b5f90565b6105ce6105c2565b6105d981848461059d565b505050565b5b818110156105fc576105f15f826105c6565b6001810190506105df565b5050565b601f8211156106415761061281610416565b61061b846104f5565b8101602085101561062a578190505b61063e610636856104f5565b8301826105de565b50505b505050565b5f82821c905092915050565b5f6106615f1984600802610646565b1980831691505092915050565b5f6106798383610652565b9150826002028217905092915050565b610692826104be565b67ffffffffffffffff8111156106ab576106aa6104c8565b5b6106b582546103dc565b6106c0828285610600565b5f60209050601f8311600181146106f1575f84156106df578287015190505b6106e9858261066e565b865550610750565b601f1984166106ff86610416565b5f5b8281101561072657848901518255600182019150602085019450602081019050610701565b86831015610743578489015161073f601f891682610652565b8355505b6001600288020188555050505b505050505050565b610d1c806107655f395ff3fe608060405234801561000f575f80fd5b5060043610610060575f3560e01c80631cf0830b14610064578063837f887814610082578063b374ac591461008c578063c75c333c146100bc578063c7853148146100ec578063d81aa8c41461011c575b5f80fd5b61006c610138565b60405161007991906107c9565b60405180910390f35b61008a61020c565b005b6100a660048036038101906100a19190610926565b6102b6565b6040516100b39190610987565b60405180910390f35b6100d660048036038101906100d191906109fa565b6102ea565b6040516100e39190610987565b60405180910390f35b61010660048036038101906101019190610a54565b61032c565b60405161011391906107c9565b60405180910390f35b61013660048036038101906101319190610926565b6105bf565b005b60606001805480602002602001604051908101604052809291908181526020015f905b82821015610203578382905f5260205f2001805461017890610aac565b80601f01602080910402602001604051908101604052809291908181526020018280546101a490610aac565b80156101ef5780601f106101c6576101008083540402835291602001916101ef565b820191905f5260205f20905b8154815290600101906020018083116101d257829003601f168201915b50505050508152602001906001019061015b565b50505050905090565b5f5b6001805490508110156102b3575f60025f3373ffffffffffffffffffffffffffffffffffffffff1673ffffffffffffffffffffffffffffffffffffffff1681526020019081526020015f206001838154811061026d5761026c610adc565b5b905f5260205f20016040516102829190610ba5565b90815260200160405180910390205f6101000a81548160ff021916908315150217905550808060010191505061020e565b50565b5f818051602081018201805184825260208301602085012081835280955050505050505f915054906101000a900460ff1681565b6002602052815f5260405f20818051602081018201805184825260208301602085012081835280955050505050505f915091509054906101000a900460ff1681565b60605f805f90505b6001805490508110156103e35760025f8573ffffffffffffffffffffffffffffffffffffffff1673ffffffffffffffffffffffffffffffffffffffff1681526020019081526020015f206001828154811061039257610391610adc565b5b905f5260205f20016040516103a79190610ba5565b90815260200160405180910390205f9054906101000a900460ff16156103d65781806103d290610bf1565b9250505b8080600101915050610334565b505f8167ffffffffffffffff8111156103ff576103fe610802565b5b60405190808252806020026020018201604052801561043257816020015b606081526020019060019003908161041d5790505b5090505f82146105b5575f805f90505b6001805490508110156105b25760025f8773ffffffffffffffffffffffffffffffffffffffff1673ffffffffffffffffffffffffffffffffffffffff1681526020019081526020015f20600182815481106104a05761049f610adc565b5b905f5260205f20016040516104b59190610ba5565b90815260200160405180910390205f9054906101000a900460ff16156105a557600181815481106104e9576104e8610adc565b5b905f5260205f200180546104fc90610aac565b80601f016020809104026020016040519081016040528092919081815260200182805461052890610aac565b80156105735780601f1061054a57610100808354040283529160200191610573565b820191905f5260205f20905b81548152906001019060200180831161055657829003601f168201915b505050505083838151811061058b5761058a610adc565b5b602002602001018190525081806105a190610bf1565b9250505b8080600101915050610442565b50505b8092505050919050565b5f816040516105ce9190610c68565b90815260200160405180910390205f9054906101000a900460ff1661062a57806040517f4f0ffc1b0000000000000000000000000000000000000000000000000000000081526004016106219190610cc6565b60405180910390fd5b600160025f3373ffffffffffffffffffffffffffffffffffffffff1673ffffffffffffffffffffffffffffffffffffffff1681526020019081526020015f20826040516106779190610c68565b90815260200160405180910390205f6101000a81548160ff02191690831515021790555050565b5f81519050919050565b5f82825260208201905092915050565b5f819050602082019050919050565b5f81519050919050565b5f82825260208201905092915050565b8281835e5f83830152505050565b5f601f19601f8301169050919050565b5f610709826106c7565b61071381856106d1565b93506107238185602086016106e1565b61072c816106ef565b840191505092915050565b5f61074283836106ff565b905092915050565b5f602082019050919050565b5f6107608261069e565b61076a81856106a8565b93508360208202850161077c856106b8565b805f5b858110156107b757848403895281516107988582610737565b94506107a38361074a565b925060208a0199505060018101905061077f565b50829750879550505050505092915050565b5f6020820190508181035f8301526107e18184610756565b905092915050565b5f604051905090565b5f80fd5b5f80fd5b5f80fd5b5f80fd5b7f4e487b71000000000000000000000000000000000000000000000000000000005f52604160045260245ffd5b610838826106ef565b810181811067ffffffffffffffff8211171561085757610856610802565b5b80604052505050565b5f6108696107e9565b9050610875828261082f565b919050565b5f67ffffffffffffffff82111561089457610893610802565b5b61089d826106ef565b9050602081019050919050565b828183375f83830152505050565b5f6108ca6108c58461087a565b610860565b9050828152602081018484840111156108e6576108e56107fe565b5b6108f18482856108aa565b509392505050565b5f82601f83011261090d5761090c6107fa565b5b813561091d8482602086016108b8565b91505092915050565b5f6020828403121561093b5761093a6107f2565b5b5f82013567ffffffffffffffff811115610958576109576107f6565b5b610964848285016108f9565b91505092915050565b5f8115159050919050565b6109818161096d565b82525050565b5f60208201905061099a5f830184610978565b92915050565b5f73ffffffffffffffffffffffffffffffffffffffff82169050919050565b5f6109c9826109a0565b9050919050565b6109d9816109bf565b81146109e3575f80fd5b50565b5f813590506109f4816109d0565b92915050565b5f8060408385031215610a1057610a0f6107f2565b5b5f610a1d858286016109e6565b925050602083013567ffffffffffffffff811115610a3e57610a3d6107f6565b5b610a4a858286016108f9565b9150509250929050565b5f60208284031215610a6957610a686107f2565b5b5f610a76848285016109e6565b91505092915050565b7f4e487b71000000000000000000000000000000000000000000000000000000005f52602260045260245ffd5b5f6002820490506001821680610ac357607f821691505b602082108103610ad657610ad5610a7f565b5b50919050565b7f4e487b71000000000000000000000000000000000000000000000000000000005f52603260045260245ffd5b5f81905092915050565b5f819050815f5260205f209050919050565b5f8154610b3181610aac565b610b3b8186610b09565b9450600182165f8114610b555760018114610b6a57610b9c565b60ff1983168652811515820286019350610b9c565b610b7385610b13565b5f5b83811015610b9457815481890152600182019150602081019050610b75565b838801955050505b50505092915050565b5f610bb08284610b25565b915081905092915050565b7f4e487b71000000000000000000000000000000000000000000000000000000005f52601160045260245ffd5b5f819050919050565b5f610bfb82610be8565b91507fffffffffffffffffffffffffffffffffffffffffffffffffffffffffffffffff8203610c2d57610c2c610bbb565b5b600182019050919050565b5f610c42826106c7565b610c4c8185610b09565b9350610c5c8185602086016106e1565b80840191505092915050565b5f610c738284610c38565b915081905092915050565b5f82825260208201905092915050565b5f610c98826106c7565b610ca28185610c7e565b9350610cb28185602086016106e1565b610cbb816106ef565b840191505092915050565b5f6020820190508181035f830152610cde8184610c8e565b90509291505056fea2646970667358221220213d29f53a217e506be3cf3324989e52fe7836589dcfc536d0297c28d2ae1a1a64736f6c63430008190033",
					"opcodes": "PUSH1 0x80 PUSH1 0x40 MSTORE CALLVALUE DUP1 ISZERO PUSH2 0xF JUMPI PUSH0 DUP1 REVERT JUMPDEST POP PUSH1 0x40 MLOAD DUP1 PUSH2 0x120 ADD PUSH1 0x40 MSTORE DUP1 PUSH1 0x40 MLOAD DUP1 PUSH1 0x40 ADD PUSH1 0x40 MSTORE DUP1 PUSH1 0x8 DUP2 MSTORE PUSH1 0x20 ADD PUSH32 0x546872696C6C6572000000000000000000000000000000000000000000000000 DUP2 MSTORE POP DUP2 MSTORE PUSH1 0x20 ADD PUSH1 0x40 MLOAD DUP1 PUSH1 0x40 ADD PUSH1 0x40 MSTORE DUP1 PUSH1 0xD DUP2 MSTORE PUSH1 0x20 ADD PUSH32 0x4261636B20696E20426C61636B00000000000000000000000000000000000000 DUP2 MSTORE POP DUP2 MSTORE PUSH1 0x20 ADD PUSH1 0x40 MLOAD DUP1 PUSH1 0x40 ADD PUSH1 0x40 MSTORE DUP1 PUSH1 0xD DUP2 MSTORE PUSH1 0x20 ADD PUSH32 0x54686520426F6479677561726400000000000000000000000000000000000000 DUP2 MSTORE POP DUP2 MSTORE PUSH1 0x20 ADD PUSH1 0x40 MLOAD DUP1 PUSH1 0x40 ADD PUSH1 0x40 MSTORE DUP1 PUSH1 0x19 DUP2 MSTORE PUSH1 0x20 ADD PUSH32 0x546865204461726B2053696465206F6620746865204D6F6F6E00000000000000 DUP2 MSTORE POP DUP2 MSTORE PUSH1 0x20 ADD PUSH1 0x40 MLOAD DUP1 PUSH1 0x40 ADD PUSH1 0x40 MSTORE DUP1 PUSH1 0x1F DUP2 MSTORE PUSH1 0x20 ADD PUSH32 0x546865697220477265617465737420486974732028313937312D313937352900 DUP2 MSTORE POP DUP2 MSTORE PUSH1 0x20 ADD PUSH1 0x40 MLOAD DUP1 PUSH1 0x40 ADD PUSH1 0x40 MSTORE DUP1 PUSH1 0x10 DUP2 MSTORE PUSH1 0x20 ADD PUSH32 0x486F74656C2043616C69666F726E696100000000000000000000000000000000 DUP2 MSTORE POP DUP2 MSTORE PUSH1 0x20 ADD PUSH1 0x40 MLOAD DUP1 PUSH1 0x40 ADD PUSH1 0x40 MSTORE DUP1 PUSH1 0xC DUP2 MSTORE PUSH1 0x20 ADD PUSH32 0x436F6D65204F6E204F7665720000000000000000000000000000000000000000 DUP2 MSTORE POP DUP2 MSTORE PUSH1 0x20 ADD PUSH1 0x40 MLOAD DUP1 PUSH1 0x40 ADD PUSH1 0x40 MSTORE DUP1 PUSH1 0x7 DUP2 MSTORE PUSH1 0x20 ADD PUSH32 0x52756D6F75727300000000000000000000000000000000000000000000000000 DUP2 MSTORE POP DUP2 MSTORE PUSH1 0x20 ADD PUSH1 0x40 MLOAD DUP1 PUSH1 0x40 ADD PUSH1 0x40 MSTORE DUP1 PUSH1 0x14 DUP2 MSTORE PUSH1 0x20 ADD PUSH32 0x5361747572646179204E69676874204665766572000000000000000000000000 DUP2 MSTORE POP DUP2 MSTORE POP PUSH1 0x1 SWAP1 PUSH1 0x9 PUSH2 0x23D SWAP3 SWAP2 SWAP1 PUSH2 0x2B0 JUMP JUMPDEST POP PUSH0 JUMPDEST PUSH1 0x1 DUP1 SLOAD SWAP1 POP DUP2 LT ISZERO PUSH2 0x2AA JUMPI PUSH1 0x1 PUSH0 PUSH1 0x1 DUP4 DUP2 SLOAD DUP2 LT PUSH2 0x264 JUMPI PUSH2 0x263 PUSH2 0x382 JUMP JUMPDEST JUMPDEST SWAP1 PUSH0 MSTORE PUSH1 0x20 PUSH0 KECCAK256 ADD PUSH1 0x40 MLOAD PUSH2 0x279 SWAP2 SWAP1 PUSH2 0x4A8 JUMP JUMPDEST SWAP1 DUP2 MSTORE PUSH1 0x20 ADD PUSH1 0x40 MLOAD DUP1 SWAP2 SUB SWAP1 KECCAK256 PUSH0 PUSH2 0x100 EXP DUP2 SLOAD DUP2 PUSH1 0xFF MUL NOT AND SWAP1 DUP4 ISZERO ISZERO MUL OR SWAP1 SSTORE POP DUP1 DUP1 PUSH1 0x1 ADD SWAP2 POP POP PUSH2 0x240 JUMP JUMPDEST POP PUSH2 0x758 JUMP JUMPDEST DUP3 DUP1 SLOAD DUP3 DUP3 SSTORE SWAP1 PUSH0 MSTORE PUSH1 0x20 PUSH0 KECCAK256 SWAP1 DUP2 ADD SWAP3 DUP3 ISZERO PUSH2 0x2F6 JUMPI SWAP2 PUSH1 0x20 MUL DUP3 ADD JUMPDEST DUP3 DUP2 GT ISZERO PUSH2 0x2F5 JUMPI DUP3 MLOAD DUP3 SWAP1 DUP2 PUSH2 0x2E5 SWAP2 SWAP1 PUSH2 0x689 JUMP JUMPDEST POP SWAP2 PUSH1 0x20 ADD SWAP2 SWAP1 PUSH1 0x1 ADD SWAP1 PUSH2 0x2CE JUMP JUMPDEST JUMPDEST POP SWAP1 POP PUSH2 0x303 SWAP2 SWAP1 PUSH2 0x307 JUMP JUMPDEST POP SWAP1 JUMP JUMPDEST JUMPDEST DUP1 DUP3 GT ISZERO PUSH2 0x326 JUMPI PUSH0 DUP2 DUP2 PUSH2 0x31D SWAP2 SWAP1 PUSH2 0x32A JUMP JUMPDEST POP PUSH1 0x1 ADD PUSH2 0x308 JUMP JUMPDEST POP SWAP1 JUMP JUMPDEST POP DUP1 SLOAD PUSH2 0x336 SWAP1 PUSH2 0x3DC JUMP JUMPDEST PUSH0 DUP3 SSTORE DUP1 PUSH1 0x1F LT PUSH2 0x347 JUMPI POP PUSH2 0x364 JUMP JUMPDEST PUSH1 0x1F ADD PUSH1 0x20 SWAP1 DIV SWAP1 PUSH0 MSTORE PUSH1 0x20 PUSH0 KECCAK256 SWAP1 DUP2 ADD SWAP1 PUSH2 0x363 SWAP2 SWAP1 PUSH2 0x367 JUMP JUMPDEST JUMPDEST POP JUMP JUMPDEST JUMPDEST DUP1 DUP3 GT ISZERO PUSH2 0x37E JUMPI PUSH0 DUP2 PUSH0 SWAP1 SSTORE POP PUSH1 0x1 ADD PUSH2 0x368 JUMP JUMPDEST POP SWAP1 JUMP JUMPDEST PUSH32 0x4E487B7100000000000000000000000000000000000000000000000000000000 PUSH0 MSTORE PUSH1 0x32 PUSH1 0x4 MSTORE PUSH1 0x24 PUSH0 REVERT JUMPDEST PUSH32 0x4E487B7100000000000000000000000000000000000000000000000000000000 PUSH0 MSTORE PUSH1 0x22 PUSH1 0x4 MSTORE PUSH1 0x24 PUSH0 REVERT JUMPDEST PUSH0 PUSH1 0x2 DUP3 DIV SWAP1 POP PUSH1 0x1 DUP3 AND DUP1 PUSH2 0x3F3 JUMPI PUSH1 0x7F DUP3 AND SWAP2 POP JUMPDEST PUSH1 0x20 DUP3 LT DUP2 SUB PUSH2 0x406 JUMPI PUSH2 0x405 PUSH2 0x3AF JUMP JUMPDEST JUMPDEST POP SWAP2 SWAP1 POP JUMP JUMPDEST PUSH0 DUP2 SWAP1 POP SWAP3 SWAP2 POP POP JUMP JUMPDEST PUSH0 DUP2 SWAP1 POP DUP2 PUSH0 MSTORE PUSH1 0x20 PUSH0 KECCAK256 SWAP1 POP SWAP2 SWAP1 POP JUMP JUMPDEST PUSH0 DUP2 SLOAD PUSH2 0x434 DUP2 PUSH2 0x3DC JUMP JUMPDEST PUSH2 0x43E DUP2 DUP7 PUSH2 0x40C JUMP JUMPDEST SWAP5 POP PUSH1 0x1 DUP3 AND PUSH0 DUP2 EQ PUSH2 0x458 JUMPI PUSH1 0x1 DUP2 EQ PUSH2 0x46D JUMPI PUSH2 0x49F JUMP JUMPDEST PUSH1 0xFF NOT DUP4 AND DUP7 MSTORE DUP2 ISZERO ISZERO DUP3 MUL DUP7 ADD SWAP4 POP PUSH2 0x49F JUMP JUMPDEST PUSH2 0x476 DUP6 PUSH2 0x416 JUMP JUMPDEST PUSH0 JUMPDEST DUP4 DUP2 LT ISZERO PUSH2 0x497 JUMPI DUP2 SLOAD DUP2 DUP10 ADD MSTORE PUSH1 0x1 DUP3 ADD SWAP2 POP PUSH1 0x20 DUP2 ADD SWAP1 POP PUSH2 0x478 JUMP JUMPDEST DUP4 DUP9 ADD SWAP6 POP POP POP JUMPDEST POP POP POP SWAP3 SWAP2 POP POP JUMP JUMPDEST PUSH0 PUSH2 0x4B3 DUP3 DUP5 PUSH2 0x428 JUMP JUMPDEST SWAP2 POP DUP2 SWAP1 POP SWAP3 SWAP2 POP POP JUMP JUMPDEST PUSH0 DUP2 MLOAD SWAP1 POP SWAP2 SWAP1 POP JUMP JUMPDEST PUSH32 0x4E487B7100000000000000000000000000000000000000000000000000000000 PUSH0 MSTORE PUSH1 0x41 PUSH1 0x4 MSTORE PUSH1 0x24 PUSH0 REVERT JUMPDEST PUSH0 PUSH1 0x20 PUSH1 0x1F DUP4 ADD DIV SWAP1 POP SWAP2 SWAP1 POP JUMP JUMPDEST PUSH0 DUP3 DUP3 SHL SWAP1 POP SWAP3 SWAP2 POP POP JUMP JUMPDEST PUSH0 PUSH1 0x8 DUP4 MUL PUSH2 0x53F PUSH32 0xFFFFFFFFFFFFFFFFFFFFFFFFFFFFFFFFFFFFFFFFFFFFFFFFFFFFFFFFFFFFFFFF DUP3 PUSH2 0x504 JUMP JUMPDEST PUSH2 0x549 DUP7 DUP4 PUSH2 0x504 JUMP JUMPDEST SWAP6 POP DUP1 NOT DUP5 AND SWAP4 POP DUP1 DUP7 AND DUP5 OR SWAP3 POP POP POP SWAP4 SWAP3 POP POP POP JUMP JUMPDEST PUSH0 DUP2 SWAP1 POP SWAP2 SWAP1 POP JUMP JUMPDEST PUSH0 DUP2 SWAP1 POP SWAP2 SWAP1 POP JUMP JUMPDEST PUSH0 PUSH2 0x58D PUSH2 0x588 PUSH2 0x583 DUP5 PUSH2 0x561 JUMP JUMPDEST PUSH2 0x56A JUMP JUMPDEST PUSH2 0x561 JUMP JUMPDEST SWAP1 POP SWAP2 SWAP1 POP JUMP JUMPDEST PUSH0 DUP2 SWAP1 POP SWAP2 SWAP1 POP JUMP JUMPDEST PUSH2 0x5A6 DUP4 PUSH2 0x573 JUMP JUMPDEST PUSH2 0x5BA PUSH2 0x5B2 DUP3 PUSH2 0x594 JUMP JUMPDEST DUP5 DUP5 SLOAD PUSH2 0x510 JUMP JUMPDEST DUP3 SSTORE POP POP POP POP JUMP JUMPDEST PUSH0 SWAP1 JUMP JUMPDEST PUSH2 0x5CE PUSH2 0x5C2 JUMP JUMPDEST PUSH2 0x5D9 DUP2 DUP5 DUP5 PUSH2 0x59D JUMP JUMPDEST POP POP POP JUMP JUMPDEST JUMPDEST DUP2 DUP2 LT ISZERO PUSH2 0x5FC JUMPI PUSH2 0x5F1 PUSH0 DUP3 PUSH2 0x5C6 JUMP JUMPDEST PUSH1 0x1 DUP2 ADD SWAP1 POP PUSH2 0x5DF JUMP JUMPDEST POP POP JUMP JUMPDEST PUSH1 0x1F DUP3 GT ISZERO PUSH2 0x641 JUMPI PUSH2 0x612 DUP2 PUSH2 0x416 JUMP JUMPDEST PUSH2 0x61B DUP5 PUSH2 0x4F5 JUMP JUMPDEST DUP2 ADD PUSH1 0x20 DUP6 LT ISZERO PUSH2 0x62A JUMPI DUP2 SWAP1 POP JUMPDEST PUSH2 0x63E PUSH2 0x636 DUP6 PUSH2 0x4F5 JUMP JUMPDEST DUP4 ADD DUP3 PUSH2 0x5DE JUMP JUMPDEST POP POP JUMPDEST POP POP POP JUMP JUMPDEST PUSH0 DUP3 DUP3 SHR SWAP1 POP SWAP3 SWAP2 POP POP JUMP JUMPDEST PUSH0 PUSH2 0x661 PUSH0 NOT DUP5 PUSH1 0x8 MUL PUSH2 0x646 JUMP JUMPDEST NOT DUP1 DUP4 AND SWAP2 POP POP SWAP3 SWAP2 POP POP JUMP JUMPDEST PUSH0 PUSH2 0x679 DUP4 DUP4 PUSH2 0x652 JUMP JUMPDEST SWAP2 POP DUP3 PUSH1 0x2 MUL DUP3 OR SWAP1 POP SWAP3 SWAP2 POP POP JUMP JUMPDEST PUSH2 0x692 DUP3 PUSH2 0x4BE JUMP JUMPDEST PUSH8 0xFFFFFFFFFFFFFFFF DUP2 GT ISZERO PUSH2 0x6AB JUMPI PUSH2 0x6AA PUSH2 0x4C8 JUMP JUMPDEST JUMPDEST PUSH2 0x6B5 DUP3 SLOAD PUSH2 0x3DC JUMP JUMPDEST PUSH2 0x6C0 DUP3 DUP3 DUP6 PUSH2 0x600 JUMP JUMPDEST PUSH0 PUSH1 0x20 SWAP1 POP PUSH1 0x1F DUP4 GT PUSH1 0x1 DUP2 EQ PUSH2 0x6F1 JUMPI PUSH0 DUP5 ISZERO PUSH2 0x6DF JUMPI DUP3 DUP8 ADD MLOAD SWAP1 POP JUMPDEST PUSH2 0x6E9 DUP6 DUP3 PUSH2 0x66E JUMP JUMPDEST DUP7 SSTORE POP PUSH2 0x750 JUMP JUMPDEST PUSH1 0x1F NOT DUP5 AND PUSH2 0x6FF DUP7 PUSH2 0x416 JUMP JUMPDEST PUSH0 JUMPDEST DUP3 DUP2 LT ISZERO PUSH2 0x726 JUMPI DUP5 DUP10 ADD MLOAD DUP3 SSTORE PUSH1 0x1 DUP3 ADD SWAP2 POP PUSH1 0x20 DUP6 ADD SWAP5 POP PUSH1 0x20 DUP2 ADD SWAP1 POP PUSH2 0x701 JUMP JUMPDEST DUP7 DUP4 LT ISZERO PUSH2 0x743 JUMPI DUP5 DUP10 ADD MLOAD PUSH2 0x73F PUSH1 0x1F DUP10 AND DUP3 PUSH2 0x652 JUMP JUMPDEST DUP4 SSTORE POP JUMPDEST PUSH1 0x1 PUSH1 0x2 DUP9 MUL ADD DUP9 SSTORE POP POP POP JUMPDEST POP POP POP POP POP POP JUMP JUMPDEST PUSH2 0xD1C DUP1 PUSH2 0x765 PUSH0 CODECOPY PUSH0 RETURN INVALID PUSH1 0x80 PUSH1 0x40 MSTORE CALLVALUE DUP1 ISZERO PUSH2 0xF JUMPI PUSH0 DUP1 REVERT JUMPDEST POP PUSH1 0x4 CALLDATASIZE LT PUSH2 0x60 JUMPI PUSH0 CALLDATALOAD PUSH1 0xE0 SHR DUP1 PUSH4 0x1CF0830B EQ PUSH2 0x64 JUMPI DUP1 PUSH4 0x837F8878 EQ PUSH2 0x82 JUMPI DUP1 PUSH4 0xB374AC59 EQ PUSH2 0x8C JUMPI DUP1 PUSH4 0xC75C333C EQ PUSH2 0xBC JUMPI DUP1 PUSH4 0xC7853148 EQ PUSH2 0xEC JUMPI DUP1 PUSH4 0xD81AA8C4 EQ PUSH2 0x11C JUMPI JUMPDEST PUSH0 DUP1 REVERT JUMPDEST PUSH2 0x6C PUSH2 0x138 JUMP JUMPDEST PUSH1 0x40 MLOAD PUSH2 0x79 SWAP2 SWAP1 PUSH2 0x7C9 JUMP JUMPDEST PUSH1 0x40 MLOAD DUP1 SWAP2 SUB SWAP1 RETURN JUMPDEST PUSH2 0x8A PUSH2 0x20C JUMP JUMPDEST STOP JUMPDEST PUSH2 0xA6 PUSH1 0x4 DUP1 CALLDATASIZE SUB DUP2 ADD SWAP1 PUSH2 0xA1 SWAP2 SWAP1 PUSH2 0x926 JUMP JUMPDEST PUSH2 0x2B6 JUMP JUMPDEST PUSH1 0x40 MLOAD PUSH2 0xB3 SWAP2 SWAP1 PUSH2 0x987 JUMP JUMPDEST PUSH1 0x40 MLOAD DUP1 SWAP2 SUB SWAP1 RETURN JUMPDEST PUSH2 0xD6 PUSH1 0x4 DUP1 CALLDATASIZE SUB DUP2 ADD SWAP1 PUSH2 0xD1 SWAP2 SWAP1 PUSH2 0x9FA JUMP JUMPDEST PUSH2 0x2EA JUMP JUMPDEST PUSH1 0x40 MLOAD PUSH2 0xE3 SWAP2 SWAP1 PUSH2 0x987 JUMP JUMPDEST PUSH1 0x40 MLOAD DUP1 SWAP2 SUB SWAP1 RETURN JUMPDEST PUSH2 0x106 PUSH1 0x4 DUP1 CALLDATASIZE SUB DUP2 ADD SWAP1 PUSH2 0x101 SWAP2 SWAP1 PUSH2 0xA54 JUMP JUMPDEST PUSH2 0x32C JUMP JUMPDEST PUSH1 0x40 MLOAD PUSH2 0x113 SWAP2 SWAP1 PUSH2 0x7C9 JUMP JUMPDEST PUSH1 0x40 MLOAD DUP1 SWAP2 SUB SWAP1 RETURN JUMPDEST PUSH2 0x136 PUSH1 0x4 DUP1 CALLDATASIZE SUB DUP2 ADD SWAP1 PUSH2 0x131 SWAP2 SWAP1 PUSH2 0x926 JUMP JUMPDEST PUSH2 0x5BF JUMP JUMPDEST STOP JUMPDEST PUSH1 0x60 PUSH1 0x1 DUP1 SLOAD DUP1 PUSH1 0x20 MUL PUSH1 0x20 ADD PUSH1 0x40 MLOAD SWAP1 DUP2 ADD PUSH1 0x40 MSTORE DUP1 SWAP3 SWAP2 SWAP1 DUP2 DUP2 MSTORE PUSH1 0x20 ADD PUSH0 SWAP1 JUMPDEST DUP3 DUP3 LT ISZERO PUSH2 0x203 JUMPI DUP4 DUP3 SWAP1 PUSH0 MSTORE PUSH1 0x20 PUSH0 KECCAK256 ADD DUP1 SLOAD PUSH2 0x178 SWAP1 PUSH2 0xAAC JUMP JUMPDEST DUP1 PUSH1 0x1F ADD PUSH1 0x20 DUP1 SWAP2 DIV MUL PUSH1 0x20 ADD PUSH1 0x40 MLOAD SWAP1 DUP2 ADD PUSH1 0x40 MSTORE DUP1 SWAP3 SWAP2 SWAP1 DUP2 DUP2 MSTORE PUSH1 0x20 ADD DUP3 DUP1 SLOAD PUSH2 0x1A4 SWAP1 PUSH2 0xAAC JUMP JUMPDEST DUP1 ISZERO PUSH2 0x1EF JUMPI DUP1 PUSH1 0x1F LT PUSH2 0x1C6 JUMPI PUSH2 0x100 DUP1 DUP4 SLOAD DIV MUL DUP4 MSTORE SWAP2 PUSH1 0x20 ADD SWAP2 PUSH2 0x1EF JUMP JUMPDEST DUP3 ADD SWAP2 SWAP1 PUSH0 MSTORE PUSH1 0x20 PUSH0 KECCAK256 SWAP1 JUMPDEST DUP2 SLOAD DUP2 MSTORE SWAP1 PUSH1 0x1 ADD SWAP1 PUSH1 0x20 ADD DUP1 DUP4 GT PUSH2 0x1D2 JUMPI DUP3 SWAP1 SUB PUSH1 0x1F AND DUP3 ADD SWAP2 JUMPDEST POP POP POP POP POP DUP2 MSTORE PUSH1 0x20 ADD SWAP1 PUSH1 0x1 ADD SWAP1 PUSH2 0x15B JUMP JUMPDEST POP POP POP POP SWAP1 POP SWAP1 JUMP JUMPDEST PUSH0 JUMPDEST PUSH1 0x1 DUP1 SLOAD SWAP1 POP DUP2 LT ISZERO PUSH2 0x2B3 JUMPI PUSH0 PUSH1 0x2 PUSH0 CALLER PUSH20 0xFFFFFFFFFFFFFFFFFFFFFFFFFFFFFFFFFFFFFFFF AND PUSH20 0xFFFFFFFFFFFFFFFFFFFFFFFFFFFFFFFFFFFFFFFF AND DUP2 MSTORE PUSH1 0x20 ADD SWAP1 DUP2 MSTORE PUSH1 0x20 ADD PUSH0 KECCAK256 PUSH1 0x1 DUP4 DUP2 SLOAD DUP2 LT PUSH2 0x26D JUMPI PUSH2 0x26C PUSH2 0xADC JUMP JUMPDEST JUMPDEST SWAP1 PUSH0 MSTORE PUSH1 0x20 PUSH0 KECCAK256 ADD PUSH1 0x40 MLOAD PUSH2 0x282 SWAP2 SWAP1 PUSH2 0xBA5 JUMP JUMPDEST SWAP1 DUP2 MSTORE PUSH1 0x20 ADD PUSH1 0x40 MLOAD DUP1 SWAP2 SUB SWAP1 KECCAK256 PUSH0 PUSH2 0x100 EXP DUP2 SLOAD DUP2 PUSH1 0xFF MUL NOT AND SWAP1 DUP4 ISZERO ISZERO MUL OR SWAP1 SSTORE POP DUP1 DUP1 PUSH1 0x1 ADD SWAP2 POP POP PUSH2 0x20E JUMP JUMPDEST POP JUMP JUMPDEST PUSH0 DUP2 DUP1 MLOAD PUSH1 0x20 DUP2 ADD DUP3 ADD DUP1 MLOAD DUP5 DUP3 MSTORE PUSH1 0x20 DUP4 ADD PUSH1 0x20 DUP6 ADD KECCAK256 DUP2 DUP4 MSTORE DUP1 SWAP6 POP POP POP POP POP POP PUSH0 SWAP2 POP SLOAD SWAP1 PUSH2 0x100 EXP SWAP1 DIV PUSH1 0xFF AND DUP2 JUMP JUMPDEST PUSH1 0x2 PUSH1 0x20 MSTORE DUP2 PUSH0 MSTORE PUSH1 0x40 PUSH0 KECCAK256 DUP2 DUP1 MLOAD PUSH1 0x20 DUP2 ADD DUP3 ADD DUP1 MLOAD DUP5 DUP3 MSTORE PUSH1 0x20 DUP4 ADD PUSH1 0x20 DUP6 ADD KECCAK256 DUP2 DUP4 MSTORE DUP1 SWAP6 POP POP POP POP POP POP PUSH0 SWAP2 POP SWAP2 POP SWAP1 SLOAD SWAP1 PUSH2 0x100 EXP SWAP1 DIV PUSH1 0xFF AND DUP2 JUMP JUMPDEST PUSH1 0x60 PUSH0 DUP1 PUSH0 SWAP1 POP JUMPDEST PUSH1 0x1 DUP1 SLOAD SWAP1 POP DUP2 LT ISZERO PUSH2 0x3E3 JUMPI PUSH1 0x2 PUSH0 DUP6 PUSH20 0xFFFFFFFFFFFFFFFFFFFFFFFFFFFFFFFFFFFFFFFF AND PUSH20 0xFFFFFFFFFFFFFFFFFFFFFFFFFFFFFFFFFFFFFFFF AND DUP2 MSTORE PUSH1 0x20 ADD SWAP1 DUP2 MSTORE PUSH1 0x20 ADD PUSH0 KECCAK256 PUSH1 0x1 DUP3 DUP2 SLOAD DUP2 LT PUSH2 0x392 JUMPI PUSH2 0x391 PUSH2 0xADC JUMP JUMPDEST JUMPDEST SWAP1 PUSH0 MSTORE PUSH1 0x20 PUSH0 KECCAK256 ADD PUSH1 0x40 MLOAD PUSH2 0x3A7 SWAP2 SWAP1 PUSH2 0xBA5 JUMP JUMPDEST SWAP1 DUP2 MSTORE PUSH1 0x20 ADD PUSH1 0x40 MLOAD DUP1 SWAP2 SUB SWAP1 KECCAK256 PUSH0 SWAP1 SLOAD SWAP1 PUSH2 0x100 EXP SWAP1 DIV PUSH1 0xFF AND ISZERO PUSH2 0x3D6 JUMPI DUP2 DUP1 PUSH2 0x3D2 SWAP1 PUSH2 0xBF1 JUMP JUMPDEST SWAP3 POP POP JUMPDEST DUP1 DUP1 PUSH1 0x1 ADD SWAP2 POP POP PUSH2 0x334 JUMP JUMPDEST POP PUSH0 DUP2 PUSH8 0xFFFFFFFFFFFFFFFF DUP2 GT ISZERO PUSH2 0x3FF JUMPI PUSH2 0x3FE PUSH2 0x802 JUMP JUMPDEST JUMPDEST PUSH1 0x40 MLOAD SWAP1 DUP1 DUP3 MSTORE DUP1 PUSH1 0x20 MUL PUSH1 0x20 ADD DUP3 ADD PUSH1 0x40 MSTORE DUP1 ISZERO PUSH2 0x432 JUMPI DUP2 PUSH1 0x20 ADD JUMPDEST PUSH1 0x60 DUP2 MSTORE PUSH1 0x20 ADD SWAP1 PUSH1 0x1 SWAP1 SUB SWAP1 DUP2 PUSH2 0x41D JUMPI SWAP1 POP JUMPDEST POP SWAP1 POP PUSH0 DUP3 EQ PUSH2 0x5B5 JUMPI PUSH0 DUP1 PUSH0 SWAP1 POP JUMPDEST PUSH1 0x1 DUP1 SLOAD SWAP1 POP DUP2 LT ISZERO PUSH2 0x5B2 JUMPI PUSH1 0x2 PUSH0 DUP8 PUSH20 0xFFFFFFFFFFFFFFFFFFFFFFFFFFFFFFFFFFFFFFFF AND PUSH20 0xFFFFFFFFFFFFFFFFFFFFFFFFFFFFFFFFFFFFFFFF AND DUP2 MSTORE PUSH1 0x20 ADD SWAP1 DUP2 MSTORE PUSH1 0x20 ADD PUSH0 KECCAK256 PUSH1 0x1 DUP3 DUP2 SLOAD DUP2 LT PUSH2 0x4A0 JUMPI PUSH2 0x49F PUSH2 0xADC JUMP JUMPDEST JUMPDEST SWAP1 PUSH0 MSTORE PUSH1 0x20 PUSH0 KECCAK256 ADD PUSH1 0x40 MLOAD PUSH2 0x4B5 SWAP2 SWAP1 PUSH2 0xBA5 JUMP JUMPDEST SWAP1 DUP2 MSTORE PUSH1 0x20 ADD PUSH1 0x40 MLOAD DUP1 SWAP2 SUB SWAP1 KECCAK256 PUSH0 SWAP1 SLOAD SWAP1 PUSH2 0x100 EXP SWAP1 DIV PUSH1 0xFF AND ISZERO PUSH2 0x5A5 JUMPI PUSH1 0x1 DUP2 DUP2 SLOAD DUP2 LT PUSH2 0x4E9 JUMPI PUSH2 0x4E8 PUSH2 0xADC JUMP JUMPDEST JUMPDEST SWAP1 PUSH0 MSTORE PUSH1 0x20 PUSH0 KECCAK256 ADD DUP1 SLOAD PUSH2 0x4FC SWAP1 PUSH2 0xAAC JUMP JUMPDEST DUP1 PUSH1 0x1F ADD PUSH1 0x20 DUP1 SWAP2 DIV MUL PUSH1 0x20 ADD PUSH1 0x40 MLOAD SWAP1 DUP2 ADD PUSH1 0x40 MSTORE DUP1 SWAP3 SWAP2 SWAP1 DUP2 DUP2 MSTORE PUSH1 0x20 ADD DUP3 DUP1 SLOAD PUSH2 0x528 SWAP1 PUSH2 0xAAC JUMP JUMPDEST DUP1 ISZERO PUSH2 0x573 JUMPI DUP1 PUSH1 0x1F LT PUSH2 0x54A JUMPI PUSH2 0x100 DUP1 DUP4 SLOAD DIV MUL DUP4 MSTORE SWAP2 PUSH1 0x20 ADD SWAP2 PUSH2 0x573 JUMP JUMPDEST DUP3 ADD SWAP2 SWAP1 PUSH0 MSTORE PUSH1 0x20 PUSH0 KECCAK256 SWAP1 JUMPDEST DUP2 SLOAD DUP2 MSTORE SWAP1 PUSH1 0x1 ADD SWAP1 PUSH1 0x20 ADD DUP1 DUP4 GT PUSH2 0x556 JUMPI DUP3 SWAP1 SUB PUSH1 0x1F AND DUP3 ADD SWAP2 JUMPDEST POP POP POP POP POP DUP4 DUP4 DUP2 MLOAD DUP2 LT PUSH2 0x58B JUMPI PUSH2 0x58A PUSH2 0xADC JUMP JUMPDEST JUMPDEST PUSH1 0x20 MUL PUSH1 0x20 ADD ADD DUP2 SWAP1 MSTORE POP DUP2 DUP1 PUSH2 0x5A1 SWAP1 PUSH2 0xBF1 JUMP JUMPDEST SWAP3 POP POP JUMPDEST DUP1 DUP1 PUSH1 0x1 ADD SWAP2 POP POP PUSH2 0x442 JUMP JUMPDEST POP POP JUMPDEST DUP1 SWAP3 POP POP POP SWAP2 SWAP1 POP JUMP JUMPDEST PUSH0 DUP2 PUSH1 0x40 MLOAD PUSH2 0x5CE SWAP2 SWAP1 PUSH2 0xC68 JUMP JUMPDEST SWAP1 DUP2 MSTORE PUSH1 0x20 ADD PUSH1 0x40 MLOAD DUP1 SWAP2 SUB SWAP1 KECCAK256 PUSH0 SWAP1 SLOAD SWAP1 PUSH2 0x100 EXP SWAP1 DIV PUSH1 0xFF AND PUSH2 0x62A JUMPI DUP1 PUSH1 0x40 MLOAD PUSH32 0x4F0FFC1B00000000000000000000000000000000000000000000000000000000 DUP2 MSTORE PUSH1 0x4 ADD PUSH2 0x621 SWAP2 SWAP1 PUSH2 0xCC6 JUMP JUMPDEST PUSH1 0x40 MLOAD DUP1 SWAP2 SUB SWAP1 REVERT JUMPDEST PUSH1 0x1 PUSH1 0x2 PUSH0 CALLER PUSH20 0xFFFFFFFFFFFFFFFFFFFFFFFFFFFFFFFFFFFFFFFF AND PUSH20 0xFFFFFFFFFFFFFFFFFFFFFFFFFFFFFFFFFFFFFFFF AND DUP2 MSTORE PUSH1 0x20 ADD SWAP1 DUP2 MSTORE PUSH1 0x20 ADD PUSH0 KECCAK256 DUP3 PUSH1 0x40 MLOAD PUSH2 0x677 SWAP2 SWAP1 PUSH2 0xC68 JUMP JUMPDEST SWAP1 DUP2 MSTORE PUSH1 0x20 ADD PUSH1 0x40 MLOAD DUP1 SWAP2 SUB SWAP1 KECCAK256 PUSH0 PUSH2 0x100 EXP DUP2 SLOAD DUP2 PUSH1 0xFF MUL NOT AND SWAP1 DUP4 ISZERO ISZERO MUL OR SWAP1 SSTORE POP POP JUMP JUMPDEST PUSH0 DUP2 MLOAD SWAP1 POP SWAP2 SWAP1 POP JUMP JUMPDEST PUSH0 DUP3 DUP3 MSTORE PUSH1 0x20 DUP3 ADD SWAP1 POP SWAP3 SWAP2 POP POP JUMP JUMPDEST PUSH0 DUP2 SWAP1 POP PUSH1 0x20 DUP3 ADD SWAP1 POP SWAP2 SWAP1 POP JUMP JUMPDEST PUSH0 DUP2 MLOAD SWAP1 POP SWAP2 SWAP1 POP JUMP JUMPDEST PUSH0 DUP3 DUP3 MSTORE PUSH1 0x20 DUP3 ADD SWAP1 POP SWAP3 SWAP2 POP POP JUMP JUMPDEST DUP3 DUP2 DUP4 MCOPY PUSH0 DUP4 DUP4 ADD MSTORE POP POP POP JUMP JUMPDEST PUSH0 PUSH1 0x1F NOT PUSH1 0x1F DUP4 ADD AND SWAP1 POP SWAP2 SWAP1 POP JUMP JUMPDEST PUSH0 PUSH2 0x709 DUP3 PUSH2 0x6C7 JUMP JUMPDEST PUSH2 0x713 DUP2 DUP6 PUSH2 0x6D1 JUMP JUMPDEST SWAP4 POP PUSH2 0x723 DUP2 DUP6 PUSH1 0x20 DUP7 ADD PUSH2 0x6E1 JUMP JUMPDEST PUSH2 0x72C DUP2 PUSH2 0x6EF JUMP JUMPDEST DUP5 ADD SWAP2 POP POP SWAP3 SWAP2 POP POP JUMP JUMPDEST PUSH0 PUSH2 0x742 DUP4 DUP4 PUSH2 0x6FF JUMP JUMPDEST SWAP1 POP SWAP3 SWAP2 POP POP JUMP JUMPDEST PUSH0 PUSH1 0x20 DUP3 ADD SWAP1 POP SWAP2 SWAP1 POP JUMP JUMPDEST PUSH0 PUSH2 0x760 DUP3 PUSH2 0x69E JUMP JUMPDEST PUSH2 0x76A DUP2 DUP6 PUSH2 0x6A8 JUMP JUMPDEST SWAP4 POP DUP4 PUSH1 0x20 DUP3 MUL DUP6 ADD PUSH2 0x77C DUP6 PUSH2 0x6B8 JUMP JUMPDEST DUP1 PUSH0 JUMPDEST DUP6 DUP2 LT ISZERO PUSH2 0x7B7 JUMPI DUP5 DUP5 SUB DUP10 MSTORE DUP2 MLOAD PUSH2 0x798 DUP6 DUP3 PUSH2 0x737 JUMP JUMPDEST SWAP5 POP PUSH2 0x7A3 DUP4 PUSH2 0x74A JUMP JUMPDEST SWAP3 POP PUSH1 0x20 DUP11 ADD SWAP10 POP POP PUSH1 0x1 DUP2 ADD SWAP1 POP PUSH2 0x77F JUMP JUMPDEST POP DUP3 SWAP8 POP DUP8 SWAP6 POP POP POP POP POP POP SWAP3 SWAP2 POP POP JUMP JUMPDEST PUSH0 PUSH1 0x20 DUP3 ADD SWAP1 POP DUP2 DUP2 SUB PUSH0 DUP4 ADD MSTORE PUSH2 0x7E1 DUP2 DUP5 PUSH2 0x756 JUMP JUMPDEST SWAP1 POP SWAP3 SWAP2 POP POP JUMP JUMPDEST PUSH0 PUSH1 0x40 MLOAD SWAP1 POP SWAP1 JUMP JUMPDEST PUSH0 DUP1 REVERT JUMPDEST PUSH0 DUP1 REVERT JUMPDEST PUSH0 DUP1 REVERT JUMPDEST PUSH0 DUP1 REVERT JUMPDEST PUSH32 0x4E487B7100000000000000000000000000000000000000000000000000000000 PUSH0 MSTORE PUSH1 0x41 PUSH1 0x4 MSTORE PUSH1 0x24 PUSH0 REVERT JUMPDEST PUSH2 0x838 DUP3 PUSH2 0x6EF JUMP JUMPDEST DUP2 ADD DUP2 DUP2 LT PUSH8 0xFFFFFFFFFFFFFFFF DUP3 GT OR ISZERO PUSH2 0x857 JUMPI PUSH2 0x856 PUSH2 0x802 JUMP JUMPDEST JUMPDEST DUP1 PUSH1 0x40 MSTORE POP POP POP JUMP JUMPDEST PUSH0 PUSH2 0x869 PUSH2 0x7E9 JUMP JUMPDEST SWAP1 POP PUSH2 0x875 DUP3 DUP3 PUSH2 0x82F JUMP JUMPDEST SWAP2 SWAP1 POP JUMP JUMPDEST PUSH0 PUSH8 0xFFFFFFFFFFFFFFFF DUP3 GT ISZERO PUSH2 0x894 JUMPI PUSH2 0x893 PUSH2 0x802 JUMP JUMPDEST JUMPDEST PUSH2 0x89D DUP3 PUSH2 0x6EF JUMP JUMPDEST SWAP1 POP PUSH1 0x20 DUP2 ADD SWAP1 POP SWAP2 SWAP1 POP JUMP JUMPDEST DUP3 DUP2 DUP4 CALLDATACOPY PUSH0 DUP4 DUP4 ADD MSTORE POP POP POP JUMP JUMPDEST PUSH0 PUSH2 0x8CA PUSH2 0x8C5 DUP5 PUSH2 0x87A JUMP JUMPDEST PUSH2 0x860 JUMP JUMPDEST SWAP1 POP DUP3 DUP2 MSTORE PUSH1 0x20 DUP2 ADD DUP5 DUP5 DUP5 ADD GT ISZERO PUSH2 0x8E6 JUMPI PUSH2 0x8E5 PUSH2 0x7FE JUMP JUMPDEST JUMPDEST PUSH2 0x8F1 DUP5 DUP3 DUP6 PUSH2 0x8AA JUMP JUMPDEST POP SWAP4 SWAP3 POP POP POP JUMP JUMPDEST PUSH0 DUP3 PUSH1 0x1F DUP4 ADD SLT PUSH2 0x90D JUMPI PUSH2 0x90C PUSH2 0x7FA JUMP JUMPDEST JUMPDEST DUP2 CALLDATALOAD PUSH2 0x91D DUP5 DUP3 PUSH1 0x20 DUP7 ADD PUSH2 0x8B8 JUMP JUMPDEST SWAP2 POP POP SWAP3 SWAP2 POP POP JUMP JUMPDEST PUSH0 PUSH1 0x20 DUP3 DUP5 SUB SLT ISZERO PUSH2 0x93B JUMPI PUSH2 0x93A PUSH2 0x7F2 JUMP JUMPDEST JUMPDEST PUSH0 DUP3 ADD CALLDATALOAD PUSH8 0xFFFFFFFFFFFFFFFF DUP2 GT ISZERO PUSH2 0x958 JUMPI PUSH2 0x957 PUSH2 0x7F6 JUMP JUMPDEST JUMPDEST PUSH2 0x964 DUP5 DUP3 DUP6 ADD PUSH2 0x8F9 JUMP JUMPDEST SWAP2 POP POP SWAP3 SWAP2 POP POP JUMP JUMPDEST PUSH0 DUP2 ISZERO ISZERO SWAP1 POP SWAP2 SWAP1 POP JUMP JUMPDEST PUSH2 0x981 DUP2 PUSH2 0x96D JUMP JUMPDEST DUP3 MSTORE POP POP JUMP JUMPDEST PUSH0 PUSH1 0x20 DUP3 ADD SWAP1 POP PUSH2 0x99A PUSH0 DUP4 ADD DUP5 PUSH2 0x978 JUMP JUMPDEST SWAP3 SWAP2 POP POP JUMP JUMPDEST PUSH0 PUSH20 0xFFFFFFFFFFFFFFFFFFFFFFFFFFFFFFFFFFFFFFFF DUP3 AND SWAP1 POP SWAP2 SWAP1 POP JUMP JUMPDEST PUSH0 PUSH2 0x9C9 DUP3 PUSH2 0x9A0 JUMP JUMPDEST SWAP1 POP SWAP2 SWAP1 POP JUMP JUMPDEST PUSH2 0x9D9 DUP2 PUSH2 0x9BF JUMP JUMPDEST DUP2 EQ PUSH2 0x9E3 JUMPI PUSH0 DUP1 REVERT JUMPDEST POP JUMP JUMPDEST PUSH0 DUP2 CALLDATALOAD SWAP1 POP PUSH2 0x9F4 DUP2 PUSH2 0x9D0 JUMP JUMPDEST SWAP3 SWAP2 POP POP JUMP JUMPDEST PUSH0 DUP1 PUSH1 0x40 DUP4 DUP6 SUB SLT ISZERO PUSH2 0xA10 JUMPI PUSH2 0xA0F PUSH2 0x7F2 JUMP JUMPDEST JUMPDEST PUSH0 PUSH2 0xA1D DUP6 DUP3 DUP7 ADD PUSH2 0x9E6 JUMP JUMPDEST SWAP3 POP POP PUSH1 0x20 DUP4 ADD CALLDATALOAD PUSH8 0xFFFFFFFFFFFFFFFF DUP2 GT ISZERO PUSH2 0xA3E JUMPI PUSH2 0xA3D PUSH2 0x7F6 JUMP JUMPDEST JUMPDEST PUSH2 0xA4A DUP6 DUP3 DUP7 ADD PUSH2 0x8F9 JUMP JUMPDEST SWAP2 POP POP SWAP3 POP SWAP3 SWAP1 POP JUMP JUMPDEST PUSH0 PUSH1 0x20 DUP3 DUP5 SUB SLT ISZERO PUSH2 0xA69 JUMPI PUSH2 0xA68 PUSH2 0x7F2 JUMP JUMPDEST JUMPDEST PUSH0 PUSH2 0xA76 DUP5 DUP3 DUP6 ADD PUSH2 0x9E6 JUMP JUMPDEST SWAP2 POP POP SWAP3 SWAP2 POP POP JUMP JUMPDEST PUSH32 0x4E487B7100000000000000000000000000000000000000000000000000000000 PUSH0 MSTORE PUSH1 0x22 PUSH1 0x4 MSTORE PUSH1 0x24 PUSH0 REVERT JUMPDEST PUSH0 PUSH1 0x2 DUP3 DIV SWAP1 POP PUSH1 0x1 DUP3 AND DUP1 PUSH2 0xAC3 JUMPI PUSH1 0x7F DUP3 AND SWAP2 POP JUMPDEST PUSH1 0x20 DUP3 LT DUP2 SUB PUSH2 0xAD6 JUMPI PUSH2 0xAD5 PUSH2 0xA7F JUMP JUMPDEST JUMPDEST POP SWAP2 SWAP1 POP JUMP JUMPDEST PUSH32 0x4E487B7100000000000000000000000000000000000000000000000000000000 PUSH0 MSTORE PUSH1 0x32 PUSH1 0x4 MSTORE PUSH1 0x24 PUSH0 REVERT JUMPDEST PUSH0 DUP2 SWAP1 POP SWAP3 SWAP2 POP POP JUMP JUMPDEST PUSH0 DUP2 SWAP1 POP DUP2 PUSH0 MSTORE PUSH1 0x20 PUSH0 KECCAK256 SWAP1 POP SWAP2 SWAP1 POP JUMP JUMPDEST PUSH0 DUP2 SLOAD PUSH2 0xB31 DUP2 PUSH2 0xAAC JUMP JUMPDEST PUSH2 0xB3B DUP2 DUP7 PUSH2 0xB09 JUMP JUMPDEST SWAP5 POP PUSH1 0x1 DUP3 AND PUSH0 DUP2 EQ PUSH2 0xB55 JUMPI PUSH1 0x1 DUP2 EQ PUSH2 0xB6A JUMPI PUSH2 0xB9C JUMP JUMPDEST PUSH1 0xFF NOT DUP4 AND DUP7 MSTORE DUP2 ISZERO ISZERO DUP3 MUL DUP7 ADD SWAP4 POP PUSH2 0xB9C JUMP JUMPDEST PUSH2 0xB73 DUP6 PUSH2 0xB13 JUMP JUMPDEST PUSH0 JUMPDEST DUP4 DUP2 LT ISZERO PUSH2 0xB94 JUMPI DUP2 SLOAD DUP2 DUP10 ADD MSTORE PUSH1 0x1 DUP3 ADD SWAP2 POP PUSH1 0x20 DUP2 ADD SWAP1 POP PUSH2 0xB75 JUMP JUMPDEST DUP4 DUP9 ADD SWAP6 POP POP POP JUMPDEST POP POP POP SWAP3 SWAP2 POP POP JUMP JUMPDEST PUSH0 PUSH2 0xBB0 DUP3 DUP5 PUSH2 0xB25 JUMP JUMPDEST SWAP2 POP DUP2 SWAP1 POP SWAP3 SWAP2 POP POP JUMP JUMPDEST PUSH32 0x4E487B7100000000000000000000000000000000000000000000000000000000 PUSH0 MSTORE PUSH1 0x11 PUSH1 0x4 MSTORE PUSH1 0x24 PUSH0 REVERT JUMPDEST PUSH0 DUP2 SWAP1 POP SWAP2 SWAP1 POP JUMP JUMPDEST PUSH0 PUSH2 0xBFB DUP3 PUSH2 0xBE8 JUMP JUMPDEST SWAP2 POP PUSH32 0xFFFFFFFFFFFFFFFFFFFFFFFFFFFFFFFFFFFFFFFFFFFFFFFFFFFFFFFFFFFFFFFF DUP3 SUB PUSH2 0xC2D JUMPI PUSH2 0xC2C PUSH2 0xBBB JUMP JUMPDEST JUMPDEST PUSH1 0x1 DUP3 ADD SWAP1 POP SWAP2 SWAP1 POP JUMP JUMPDEST PUSH0 PUSH2 0xC42 DUP3 PUSH2 0x6C7 JUMP JUMPDEST PUSH2 0xC4C DUP2 DUP6 PUSH2 0xB09 JUMP JUMPDEST SWAP4 POP PUSH2 0xC5C DUP2 DUP6 PUSH1 0x20 DUP7 ADD PUSH2 0x6E1 JUMP JUMPDEST DUP1 DUP5 ADD SWAP2 POP POP SWAP3 SWAP2 POP POP JUMP JUMPDEST PUSH0 PUSH2 0xC73 DUP3 DUP5 PUSH2 0xC38 JUMP JUMPDEST SWAP2 POP DUP2 SWAP1 POP SWAP3 SWAP2 POP POP JUMP JUMPDEST PUSH0 DUP3 DUP3 MSTORE PUSH1 0x20 DUP3 ADD SWAP1 POP SWAP3 SWAP2 POP POP JUMP JUMPDEST PUSH0 PUSH2 0xC98 DUP3 PUSH2 0x6C7 JUMP JUMPDEST PUSH2 0xCA2 DUP2 DUP6 PUSH2 0xC7E JUMP JUMPDEST SWAP4 POP PUSH2 0xCB2 DUP2 DUP6 PUSH1 0x20 DUP7 ADD PUSH2 0x6E1 JUMP JUMPDEST PUSH2 0xCBB DUP2 PUSH2 0x6EF JUMP JUMPDEST DUP5 ADD SWAP2 POP POP SWAP3 SWAP2 POP POP JUMP JUMPDEST PUSH0 PUSH1 0x20 DUP3 ADD SWAP1 POP DUP2 DUP2 SUB PUSH0 DUP4 ADD MSTORE PUSH2 0xCDE DUP2 DUP5 PUSH2 0xC8E JUMP JUMPDEST SWAP1 POP SWAP3 SWAP2 POP POP JUMP INVALID LOG2 PUSH5 0x6970667358 0x22 SLT KECCAK256 0x21 RETURNDATASIZE 0x29 CREATE2 GASPRICE 0x21 PUSH31 0x506BE3CF3324989E52FE7836589DCFC536D0297C28D2AE1A1A64736F6C6343 STOP ADDMOD NOT STOP CALLER "
				},
				"gasEstimates": {
					"creation": {
						"codeDepositCost": "671200",
						"executionCost": "infinite",
						"totalCost": "infinite"
					},
					"external": {
						"addRecord(string)": "infinite",
						"approvedRecords(string)": "infinite",
						"getApprovedRecords()": "infinite",
						"getUserFavorites(address)": "infinite",
						"resetUserFavorites()": "infinite",
						"userFavorites(address,string)": "infinite"
					}
				},
				"methodIdentifiers": {
					"addRecord(string)": "d81aa8c4",
					"approvedRecords(string)": "b374ac59",
					"getApprovedRecords()": "1cf0830b",
					"getUserFavorites(address)": "c7853148",
					"resetUserFavorites()": "837f8878",
					"userFavorites(address,string)": "c75c333c"
				}
			},
			"storageLayout": {
				"storage": [
					{
						"astId": 5,
						"contract": "contrakts base/FavoriteRecords.sol:FavoriteRecords",
						"label": "approvedRecords",
						"offset": 0,
						"slot": "0",
						"type": "t_mapping(t_string_memory_ptr,t_bool)"
					},
					{
						"astId": 8,
						"contract": "contrakts base/FavoriteRecords.sol:FavoriteRecords",
						"label": "recordsNames",
						"offset": 0,
						"slot": "1",
						"type": "t_array(t_string_storage)dyn_storage"
					},
					{
						"astId": 14,
						"contract": "contrakts base/FavoriteRecords.sol:FavoriteRecords",
						"label": "userFavorites",
						"offset": 0,
						"slot": "2",
						"type": "t_mapping(t_address,t_mapping(t_string_memory_ptr,t_bool))"
					}
				],
				"types": {
					"t_address": {
						"encoding": "inplace",
						"label": "address",
						"numberOfBytes": "20"
					},
					"t_array(t_string_storage)dyn_storage": {
						"base": "t_string_storage",
						"encoding": "dynamic_array",
						"label": "string[]",
						"numberOfBytes": "32"
					},
					"t_bool": {
						"encoding": "inplace",
						"label": "bool",
						"numberOfBytes": "1"
					},
					"t_mapping(t_address,t_mapping(t_string_memory_ptr,t_bool))": {
						"encoding": "mapping",
						"key": "t_address",
						"label": "mapping(address => mapping(string => bool))",
						"numberOfBytes": "32",
						"value": "t_mapping(t_string_memory_ptr,t_bool)"
					},
					"t_mapping(t_string_memory_ptr,t_bool)": {
						"encoding": "mapping",
						"key": "t_string_memory_ptr",
						"label": "mapping(string => bool)",
						"numberOfBytes": "32",
						"value": "t_bool"
					},
					"t_string_memory_ptr": {
						"encoding": "bytes",
						"label": "string",
						"numberOfBytes": "32"
					},
					"t_string_storage": {
						"encoding": "bytes",
						"label": "string",
						"numberOfBytes": "32"
					}
				}
			},
			"userdoc": {
				"kind": "user",
				"methods": {},
				"version": 1
			}
		}
	}
}